{
  "contractName": "Admin",
  "abi": [
    {
      "inputs": [
        {
          "internalType": "address",
          "name": "_firstAdmin",
          "type": "address"
        }
      ],
      "stateMutability": "nonpayable",
      "type": "constructor"
    },
    {
      "anonymous": false,
      "inputs": [
        {
          "indexed": true,
          "internalType": "address",
          "name": "previousOwner",
          "type": "address"
        },
        {
          "indexed": true,
          "internalType": "address",
          "name": "newOwner",
          "type": "address"
        }
      ],
      "name": "OwnershipTransferred",
      "type": "event"
    },
    {
      "inputs": [],
      "name": "owner",
      "outputs": [
        {
          "internalType": "address",
          "name": "",
          "type": "address"
        }
      ],
      "stateMutability": "view",
      "type": "function"
    },
    {
      "inputs": [],
      "name": "renounceOwnership",
      "outputs": [],
      "stateMutability": "nonpayable",
      "type": "function"
    },
    {
      "inputs": [
        {
          "internalType": "address",
          "name": "newOwner",
          "type": "address"
        }
      ],
      "name": "transferOwnership",
      "outputs": [],
      "stateMutability": "nonpayable",
      "type": "function"
    },
    {
      "inputs": [
        {
          "internalType": "address",
          "name": "_address",
          "type": "address"
        }
      ],
      "name": "isAdmin",
      "outputs": [
        {
          "internalType": "bool",
          "name": "",
          "type": "bool"
        }
      ],
      "stateMutability": "view",
      "type": "function"
    },
    {
      "inputs": [
        {
          "internalType": "address",
          "name": "_person",
          "type": "address"
        }
      ],
      "name": "isBlacklisted",
      "outputs": [
        {
          "internalType": "bool",
          "name": "",
          "type": "bool"
        }
      ],
      "stateMutability": "view",
      "type": "function"
    },
    {
      "inputs": [
        {
          "internalType": "address",
          "name": "_newAdmin",
          "type": "address"
        }
      ],
      "name": "addAdmin",
      "outputs": [],
      "stateMutability": "nonpayable",
      "type": "function"
    },
    {
      "inputs": [
        {
          "internalType": "address",
          "name": "_badAdmin",
          "type": "address"
        }
      ],
      "name": "removeAdmin",
      "outputs": [],
      "stateMutability": "nonpayable",
      "type": "function"
    },
    {
      "inputs": [],
      "name": "getAdminCount",
      "outputs": [
        {
          "internalType": "uint256",
          "name": "",
          "type": "uint256"
        }
      ],
      "stateMutability": "view",
      "type": "function"
    },
    {
      "inputs": [
        {
          "internalType": "address",
          "name": "_criminal",
          "type": "address"
        }
      ],
      "name": "addToBlacklist",
      "outputs": [],
      "stateMutability": "nonpayable",
      "type": "function"
    },
    {
      "inputs": [
        {
          "internalType": "address",
          "name": "_parolee",
          "type": "address"
        }
      ],
      "name": "removeFromBlacklist",
      "outputs": [],
      "stateMutability": "nonpayable",
      "type": "function"
    },
    {
      "inputs": [
        {
          "internalType": "bytes32",
          "name": "_studentId",
          "type": "bytes32"
        }
      ],
      "name": "pairStudentIdAddress",
      "outputs": [],
      "stateMutability": "nonpayable",
      "type": "function"
    },
    {
      "inputs": [
        {
          "internalType": "bytes32",
          "name": "_studentId",
          "type": "bytes32"
        }
      ],
      "name": "studentIdToAddress",
      "outputs": [
        {
          "internalType": "address[]",
          "name": "",
          "type": "address[]"
        }
      ],
      "stateMutability": "view",
      "type": "function"
    },
    {
      "inputs": [
        {
          "internalType": "address",
          "name": "_address",
          "type": "address"
        }
      ],
      "name": "addressToStudentId",
      "outputs": [
        {
          "internalType": "bytes32",
          "name": "studentId",
          "type": "bytes32"
        }
      ],
      "stateMutability": "view",
      "type": "function"
    }
  ],
  "bytecode": "0x60806040523480156200001157600080fd5b506040516200110a3803806200110a833981810160405281019062000037919062000258565b620000576200004b6200017560201b60201c565b6200017d60201b60201c565b60018060008373ffffffffffffffffffffffffffffffffffffffff1673ffffffffffffffffffffffffffffffffffffffff16815260200190815260200160002060006101000a81548160ff02191690831515021790555060018060003373ffffffffffffffffffffffffffffffffffffffff1673ffffffffffffffffffffffffffffffffffffffff16815260200190815260200160002060006101000a81548160ff021916908315150217905550600260008154809291906200011a90620002c8565b91905055503373ffffffffffffffffffffffffffffffffffffffff168173ffffffffffffffffffffffffffffffffffffffff16146200016e57600260008154809291906200016890620002c8565b91905055505b5062000364565b600033905090565b60008060009054906101000a900473ffffffffffffffffffffffffffffffffffffffff169050816000806101000a81548173ffffffffffffffffffffffffffffffffffffffff021916908373ffffffffffffffffffffffffffffffffffffffff1602179055508173ffffffffffffffffffffffffffffffffffffffff168173ffffffffffffffffffffffffffffffffffffffff167f8be0079c531659141344cd1fd0a4f28419497f9722a3daafe3b4186f6b6457e060405160405180910390a35050565b60008151905062000252816200034a565b92915050565b60006020828403121562000271576200027062000345565b5b6000620002818482850162000241565b91505092915050565b600062000297826200029e565b9050919050565b600073ffffffffffffffffffffffffffffffffffffffff82169050919050565b6000819050919050565b6000620002d582620002be565b91507fffffffffffffffffffffffffffffffffffffffffffffffffffffffffffffffff8214156200030b576200030a62000316565b5b600182019050919050565b7f4e487b7100000000000000000000000000000000000000000000000000000000600052601160045260246000fd5b600080fd5b62000355816200028a565b81146200036157600080fd5b50565b610d9680620003746000396000f3fe608060405234801561001057600080fd5b50600436106100cf5760003560e01c8063704802751161008c5780638b7bf3eb116100665780638b7bf3eb146101fa5780638da5cb5b14610218578063f2fde38b14610236578063fe575a8714610252576100cf565b806370480275146101a4578063715018a6146101c057806386c34415146101ca576100cf565b80631785f53c146100d457806324d7806c146100f05780632d6915a11461012057806344337ea11461013c57806346a9da7914610158578063537df3b614610188575b600080fd5b6100ee60048036038101906100e99190610948565b610282565b005b61010a60048036038101906101059190610948565b610347565b6040516101179190610ae6565b60405180910390f35b61013a60048036038101906101359190610975565b61039d565b005b61015660048036038101906101519190610948565b610458565b005b610172600480360381019061016d9190610975565b6104d8565b60405161017f9190610ac4565b60405180910390f35b6101a2600480360381019061019d9190610948565b610579565b005b6101be60048036038101906101b99190610948565b6105e6565b005b6101c861066a565b005b6101e460048036038101906101df9190610948565b61067e565b6040516101f19190610b01565b60405180910390f35b6102026106c7565b60405161020f9190610b5c565b60405180910390f35b6102206106d1565b60405161022d9190610aa9565b60405180910390f35b610250600480360381019061024b9190610948565b6106fa565b005b61026c60048036038101906102679190610948565b61077e565b6040516102799190610ae6565b60405180910390f35b61028b32610347565b61029457600080fd5b61029c6106d1565b73ffffffffffffffffffffffffffffffffffffffff168173ffffffffffffffffffffffffffffffffffffffff1614156102d457600080fd5b6000600160008373ffffffffffffffffffffffffffffffffffffffff1673ffffffffffffffffffffffffffffffffffffffff16815260200190815260200160002060006101000a81548160ff0219169083151502179055506002600081548092919061033f90610c13565b919050555050565b6000600160008373ffffffffffffffffffffffffffffffffffffffff1673ffffffffffffffffffffffffffffffffffffffff16815260200190815260200160002060009054906101000a900460ff169050919050565b80600560003273ffffffffffffffffffffffffffffffffffffffff1673ffffffffffffffffffffffffffffffffffffffff1681526020019081526020016000208190555060046000828152602001908152602001600020329080600181540180825580915050600190039060005260206000200160009091909190916101000a81548173ffffffffffffffffffffffffffffffffffffffff021916908373ffffffffffffffffffffffffffffffffffffffff16021790555050565b61046132610347565b61046a57600080fd5b61047381610347565b1561047d57600080fd5b6001600360008373ffffffffffffffffffffffffffffffffffffffff1673ffffffffffffffffffffffffffffffffffffffff16815260200190815260200160002060006101000a81548160ff02191690831515021790555050565b60606004600083815260200190815260200160002080548060200260200160405190810160405280929190818152602001828054801561056d57602002820191906000526020600020905b8160009054906101000a900473ffffffffffffffffffffffffffffffffffffffff1673ffffffffffffffffffffffffffffffffffffffff1681526020019060010190808311610523575b50505050509050919050565b61058232610347565b61058b57600080fd5b6000600360008373ffffffffffffffffffffffffffffffffffffffff1673ffffffffffffffffffffffffffffffffffffffff16815260200190815260200160002060006101000a81548160ff02191690831515021790555050565b6105ef32610347565b6105f857600080fd5b60018060008373ffffffffffffffffffffffffffffffffffffffff1673ffffffffffffffffffffffffffffffffffffffff16815260200190815260200160002060006101000a81548160ff0219169083151502179055506002600081548092919061066290610c3d565b919050555050565b6106726107d4565b61067c6000610852565b565b6000600560008373ffffffffffffffffffffffffffffffffffffffff1673ffffffffffffffffffffffffffffffffffffffff168152602001908152602001600020549050919050565b6000600254905090565b60008060009054906101000a900473ffffffffffffffffffffffffffffffffffffffff16905090565b6107026107d4565b600073ffffffffffffffffffffffffffffffffffffffff168173ffffffffffffffffffffffffffffffffffffffff161415610772576040517f08c379a000000000000000000000000000000000000000000000000000000000815260040161076990610b1c565b60405180910390fd5b61077b81610852565b50565b6000600360008373ffffffffffffffffffffffffffffffffffffffff1673ffffffffffffffffffffffffffffffffffffffff16815260200190815260200160002060009054906101000a900460ff169050919050565b6107dc610916565b73ffffffffffffffffffffffffffffffffffffffff166107fa6106d1565b73ffffffffffffffffffffffffffffffffffffffff1614610850576040517f08c379a000000000000000000000000000000000000000000000000000000000815260040161084790610b3c565b60405180910390fd5b565b60008060009054906101000a900473ffffffffffffffffffffffffffffffffffffffff169050816000806101000a81548173ffffffffffffffffffffffffffffffffffffffff021916908373ffffffffffffffffffffffffffffffffffffffff1602179055508173ffffffffffffffffffffffffffffffffffffffff168173ffffffffffffffffffffffffffffffffffffffff167f8be0079c531659141344cd1fd0a4f28419497f9722a3daafe3b4186f6b6457e060405160405180910390a35050565b600033905090565b60008135905061092d81610d32565b92915050565b60008135905061094281610d49565b92915050565b60006020828403121561095e5761095d610cb5565b5b600061096c8482850161091e565b91505092915050565b60006020828403121561098b5761098a610cb5565b5b600061099984828501610933565b91505092915050565b60006109ae83836109ba565b60208301905092915050565b6109c381610bc1565b82525050565b6109d281610bc1565b82525050565b60006109e382610b87565b6109ed8185610b9f565b93506109f883610b77565b8060005b83811015610a29578151610a1088826109a2565b9750610a1b83610b92565b9250506001810190506109fc565b5085935050505092915050565b610a3f81610bd3565b82525050565b610a4e81610bdf565b82525050565b6000610a61602683610bb0565b9150610a6c82610cba565b604082019050919050565b6000610a84602083610bb0565b9150610a8f82610d09565b602082019050919050565b610aa381610c09565b82525050565b6000602082019050610abe60008301846109c9565b92915050565b60006020820190508181036000830152610ade81846109d8565b905092915050565b6000602082019050610afb6000830184610a36565b92915050565b6000602082019050610b166000830184610a45565b92915050565b60006020820190508181036000830152610b3581610a54565b9050919050565b60006020820190508181036000830152610b5581610a77565b9050919050565b6000602082019050610b716000830184610a9a565b92915050565b6000819050602082019050919050565b600081519050919050565b6000602082019050919050565b600082825260208201905092915050565b600082825260208201905092915050565b6000610bcc82610be9565b9050919050565b60008115159050919050565b6000819050919050565b600073ffffffffffffffffffffffffffffffffffffffff82169050919050565b6000819050919050565b6000610c1e82610c09565b91506000821415610c3257610c31610c86565b5b600182039050919050565b6000610c4882610c09565b91507fffffffffffffffffffffffffffffffffffffffffffffffffffffffffffffffff821415610c7b57610c7a610c86565b5b600182019050919050565b7f4e487b7100000000000000000000000000000000000000000000000000000000600052601160045260246000fd5b600080fd5b7f4f776e61626c653a206e6577206f776e657220697320746865207a65726f206160008201527f6464726573730000000000000000000000000000000000000000000000000000602082015250565b7f4f776e61626c653a2063616c6c6572206973206e6f7420746865206f776e6572600082015250565b610d3b81610bc1565b8114610d4657600080fd5b50565b610d5281610bdf565b8114610d5d57600080fd5b5056fea26469706673582212204d64ed587134994ace0c30d163f633fbb30557ece2772eeba9583502864e7c5964736f6c63430008060033",
  "immutableReferences": {},
  "source": "pragma solidity ^0.8.6;\r\n// SPDX-License-Identifier: UNLICENSED\r\n\r\n// commenting this out because already wrapped into compilation from truffle? - TODO confirm\r\nimport \"./Libraries.sol\";\r\nimport \"@openzeppelin/contracts/access/Ownable.sol\";\r\n\r\n\r\ncontract Admin is Ownable{\r\n\r\n    // tracking admins and blacklisted folks\r\n    mapping(address => bool) admins;\r\n    uint256 adminCount;\r\n    mapping(address => bool) blacklist;\r\n\r\n    // tracking all student IDs and addresses\r\n    mapping (bytes32 => address[]) studentId_to_addresses; // TODO - rm this data structure and functions if unnecessary\r\n    mapping(address => bytes32) address_to_studentId;\r\n\r\n    modifier requiresAdmin {\r\n        require(isAdmin(tx.origin));\r\n        _;\r\n    }\r\n\r\n    constructor (address _firstAdmin) {\r\n        admins[_firstAdmin] = true; \r\n        admins[msg.sender] = true;\r\n        adminCount++;                           // increment admin count for the first admin\r\n        if (_firstAdmin != msg.sender){\r\n            adminCount++;                       // increment admin count if the first admin and contract owner are diff\r\n        }\r\n    }\r\n \r\n    function isAdmin(address _address) public view returns(bool) { \r\n        return admins[_address]; \r\n    }\r\n     \r\n    function isBlacklisted(address _person) public view returns(bool) {\r\n        return blacklist[_person];\r\n    }\r\n     \r\n    function addAdmin(address _newAdmin) requiresAdmin public {\r\n        admins[_newAdmin] = true;                   // Adds new admin to mapping =\r\n        adminCount++;                               // Increment adminCount\r\n    }\r\n \r\n    function removeAdmin(address _badAdmin) requiresAdmin public {\r\n        require(_badAdmin != owner());\r\n        admins[_badAdmin] = false;                   // Sets _badAdmin to false in mapping \r\n        adminCount--;                               // Decrement adminCount\r\n    }\r\n\r\n    function getAdminCount() public view returns(uint256) {\r\n        return adminCount;\r\n    }\r\n\r\n    // note that admins can not be blacklisted - j remove them as admin, and then blacklist them\r\n    function addToBlacklist(address _criminal) requiresAdmin public {\r\n        require(!isAdmin(_criminal));\r\n        blacklist[_criminal] = true;\r\n    }\r\n\r\n    function removeFromBlacklist(address _parolee) requiresAdmin public {\r\n        blacklist[_parolee] = false;\r\n    }\r\n    \r\n    function pairStudentIdAddress (bytes32 _studentId) public {\r\n        address_to_studentId[tx.origin] = _studentId;   // associate this address with this student\r\n        \r\n        // // if this student doesnn't already have an account, set tx.origin as its account\r\n        // if (studentId_to_addresses[_studentId].length == 0){\r\n        //     studentId_to_addresses[_studentId] = [tx.origin];\r\n        //     return;\r\n        // }\r\n\r\n        // // otherwise push \r\n\r\n        // Directly push tx.origin\r\n        studentId_to_addresses[_studentId].push(tx.origin);\r\n    }\r\n\r\n    function studentIdToAddress (bytes32 _studentId) public view returns (address[] memory){\r\n        return studentId_to_addresses[_studentId];\r\n    }\r\n\r\n    function addressToStudentId (address _address) public view returns (bytes32 studentId){\r\n        return address_to_studentId[_address];\r\n    }\r\n}\r\n",
  "sourcePath": "D:\\IBlock\\truffle\\contracts\\Admin.sol",
  "compiler": {
    "name": "solc",
    "version": "0.8.6+commit.11564f7e.Emscripten.clang"
  },
  "schemaVersion": "3.4.10",
  "updatedAt": "2022-10-20T23:58:33.897Z",
  "devdoc": {
    "kind": "dev",
    "methods": {
      "owner()": {
        "details": "Returns the address of the current owner."
      },
      "renounceOwnership()": {
        "details": "Leaves the contract without owner. It will not be possible to call `onlyOwner` functions anymore. Can only be called by the current owner. NOTE: Renouncing ownership will leave the contract without an owner, thereby removing any functionality that is only available to the owner."
      },
      "transferOwnership(address)": {
        "details": "Transfers ownership of the contract to a new account (`newOwner`). Can only be called by the current owner."
      }
    },
    "version": 1
  },
  "userdoc": {
    "kind": "user",
    "methods": {},
    "version": 1
  }
}