{
  "contractName": "ERC1155NFT",
  "abi": [
    {
      "inputs": [
        {
          "internalType": "address",
          "name": "marketplaceAddress",
          "type": "address"
        },
        {
          "internalType": "string",
          "name": "initUri",
          "type": "string"
        }
      ],
      "stateMutability": "nonpayable",
      "type": "constructor"
    },
    {
      "anonymous": false,
      "inputs": [
        {
          "indexed": true,
          "internalType": "address",
          "name": "account",
          "type": "address"
        },
        {
          "indexed": true,
          "internalType": "address",
          "name": "operator",
          "type": "address"
        },
        {
          "indexed": false,
          "internalType": "bool",
          "name": "approved",
          "type": "bool"
        }
      ],
      "name": "ApprovalForAll",
      "type": "event"
    },
    {
      "anonymous": false,
      "inputs": [
        {
          "indexed": true,
          "internalType": "address",
          "name": "previousOwner",
          "type": "address"
        },
        {
          "indexed": true,
          "internalType": "address",
          "name": "newOwner",
          "type": "address"
        }
      ],
      "name": "OwnershipTransferred",
      "type": "event"
    },
    {
      "anonymous": false,
      "inputs": [
        {
          "indexed": true,
          "internalType": "address",
          "name": "operator",
          "type": "address"
        },
        {
          "indexed": true,
          "internalType": "address",
          "name": "from",
          "type": "address"
        },
        {
          "indexed": true,
          "internalType": "address",
          "name": "to",
          "type": "address"
        },
        {
          "indexed": false,
          "internalType": "uint256[]",
          "name": "ids",
          "type": "uint256[]"
        },
        {
          "indexed": false,
          "internalType": "uint256[]",
          "name": "values",
          "type": "uint256[]"
        }
      ],
      "name": "TransferBatch",
      "type": "event"
    },
    {
      "anonymous": false,
      "inputs": [
        {
          "indexed": true,
          "internalType": "address",
          "name": "operator",
          "type": "address"
        },
        {
          "indexed": true,
          "internalType": "address",
          "name": "from",
          "type": "address"
        },
        {
          "indexed": true,
          "internalType": "address",
          "name": "to",
          "type": "address"
        },
        {
          "indexed": false,
          "internalType": "uint256",
          "name": "id",
          "type": "uint256"
        },
        {
          "indexed": false,
          "internalType": "uint256",
          "name": "value",
          "type": "uint256"
        }
      ],
      "name": "TransferSingle",
      "type": "event"
    },
    {
      "anonymous": false,
      "inputs": [
        {
          "indexed": false,
          "internalType": "string",
          "name": "value",
          "type": "string"
        },
        {
          "indexed": true,
          "internalType": "uint256",
          "name": "id",
          "type": "uint256"
        }
      ],
      "name": "URI",
      "type": "event"
    },
    {
      "inputs": [
        {
          "internalType": "address",
          "name": "account",
          "type": "address"
        },
        {
          "internalType": "uint256",
          "name": "id",
          "type": "uint256"
        }
      ],
      "name": "balanceOf",
      "outputs": [
        {
          "internalType": "uint256",
          "name": "",
          "type": "uint256"
        }
      ],
      "stateMutability": "view",
      "type": "function"
    },
    {
      "inputs": [
        {
          "internalType": "address[]",
          "name": "accounts",
          "type": "address[]"
        },
        {
          "internalType": "uint256[]",
          "name": "ids",
          "type": "uint256[]"
        }
      ],
      "name": "balanceOfBatch",
      "outputs": [
        {
          "internalType": "uint256[]",
          "name": "",
          "type": "uint256[]"
        }
      ],
      "stateMutability": "view",
      "type": "function"
    },
    {
      "inputs": [
        {
          "internalType": "address",
          "name": "account",
          "type": "address"
        },
        {
          "internalType": "address",
          "name": "operator",
          "type": "address"
        }
      ],
      "name": "isApprovedForAll",
      "outputs": [
        {
          "internalType": "bool",
          "name": "",
          "type": "bool"
        }
      ],
      "stateMutability": "view",
      "type": "function"
    },
    {
      "inputs": [],
      "name": "owner",
      "outputs": [
        {
          "internalType": "address",
          "name": "",
          "type": "address"
        }
      ],
      "stateMutability": "view",
      "type": "function"
    },
    {
      "inputs": [],
      "name": "renounceOwnership",
      "outputs": [],
      "stateMutability": "nonpayable",
      "type": "function"
    },
    {
      "inputs": [
        {
          "internalType": "address",
          "name": "from",
          "type": "address"
        },
        {
          "internalType": "address",
          "name": "to",
          "type": "address"
        },
        {
          "internalType": "uint256[]",
          "name": "ids",
          "type": "uint256[]"
        },
        {
          "internalType": "uint256[]",
          "name": "amounts",
          "type": "uint256[]"
        },
        {
          "internalType": "bytes",
          "name": "data",
          "type": "bytes"
        }
      ],
      "name": "safeBatchTransferFrom",
      "outputs": [],
      "stateMutability": "nonpayable",
      "type": "function"
    },
    {
      "inputs": [
        {
          "internalType": "address",
          "name": "from",
          "type": "address"
        },
        {
          "internalType": "address",
          "name": "to",
          "type": "address"
        },
        {
          "internalType": "uint256",
          "name": "id",
          "type": "uint256"
        },
        {
          "internalType": "uint256",
          "name": "amount",
          "type": "uint256"
        },
        {
          "internalType": "bytes",
          "name": "data",
          "type": "bytes"
        }
      ],
      "name": "safeTransferFrom",
      "outputs": [],
      "stateMutability": "nonpayable",
      "type": "function"
    },
    {
      "inputs": [
        {
          "internalType": "address",
          "name": "operator",
          "type": "address"
        },
        {
          "internalType": "bool",
          "name": "approved",
          "type": "bool"
        }
      ],
      "name": "setApprovalForAll",
      "outputs": [],
      "stateMutability": "nonpayable",
      "type": "function"
    },
    {
      "inputs": [
        {
          "internalType": "bytes4",
          "name": "interfaceId",
          "type": "bytes4"
        }
      ],
      "name": "supportsInterface",
      "outputs": [
        {
          "internalType": "bool",
          "name": "",
          "type": "bool"
        }
      ],
      "stateMutability": "view",
      "type": "function"
    },
    {
      "inputs": [
        {
          "internalType": "address",
          "name": "newOwner",
          "type": "address"
        }
      ],
      "name": "transferOwnership",
      "outputs": [],
      "stateMutability": "nonpayable",
      "type": "function"
    },
    {
      "inputs": [
        {
          "internalType": "uint256",
          "name": "id",
          "type": "uint256"
        }
      ],
      "name": "uri",
      "outputs": [
        {
          "internalType": "string",
          "name": "",
          "type": "string"
        }
      ],
      "stateMutability": "view",
      "type": "function"
    },
    {
      "inputs": [
        {
          "internalType": "uint256",
          "name": "amount",
          "type": "uint256"
        },
        {
          "internalType": "string",
          "name": "hash",
          "type": "string"
        }
      ],
      "name": "createToken",
      "outputs": [
        {
          "internalType": "uint256",
          "name": "",
          "type": "uint256"
        }
      ],
      "stateMutability": "nonpayable",
      "type": "function"
    }
  ],
  "bytecode": "0x60806040523480156200001157600080fd5b50604051620033a2380380620033a283398181016040528101906200003791906200030a565b604051806020016040528060008152506200005881620000db60201b60201c565b50620000796200006d620000f760201b60201c565b620000ff60201b60201c565b81600560006101000a81548173ffffffffffffffffffffffffffffffffffffffff021916908373ffffffffffffffffffffffffffffffffffffffff1602179055508060079080519060200190620000d2929190620001c5565b50505062000542565b8060029080519060200190620000f3929190620001c5565b5050565b600033905090565b6000600360009054906101000a900473ffffffffffffffffffffffffffffffffffffffff16905081600360006101000a81548173ffffffffffffffffffffffffffffffffffffffff021916908373ffffffffffffffffffffffffffffffffffffffff1602179055508173ffffffffffffffffffffffffffffffffffffffff168173ffffffffffffffffffffffffffffffffffffffff167f8be0079c531659141344cd1fd0a4f28419497f9722a3daafe3b4186f6b6457e060405160405180910390a35050565b828054620001d39062000439565b90600052602060002090601f016020900481019282620001f7576000855562000243565b82601f106200021257805160ff191683800117855562000243565b8280016001018555821562000243579182015b828111156200024257825182559160200191906001019062000225565b5b50905062000252919062000256565b5090565b5b808211156200027157600081600090555060010162000257565b5090565b60006200028c620002868462000399565b62000370565b905082815260208101848484011115620002ab57620002aa62000508565b5b620002b884828562000403565b509392505050565b600081519050620002d18162000528565b92915050565b600082601f830112620002ef57620002ee62000503565b5b81516200030184826020860162000275565b91505092915050565b6000806040838503121562000324576200032362000512565b5b60006200033485828601620002c0565b925050602083015167ffffffffffffffff8111156200035857620003576200050d565b5b6200036685828601620002d7565b9150509250929050565b60006200037c6200038f565b90506200038a82826200046f565b919050565b6000604051905090565b600067ffffffffffffffff821115620003b757620003b6620004d4565b5b620003c28262000517565b9050602081019050919050565b6000620003dc82620003e3565b9050919050565b600073ffffffffffffffffffffffffffffffffffffffff82169050919050565b60005b838110156200042357808201518184015260208101905062000406565b8381111562000433576000848401525b50505050565b600060028204905060018216806200045257607f821691505b60208210811415620004695762000468620004a5565b5b50919050565b6200047a8262000517565b810181811067ffffffffffffffff821117156200049c576200049b620004d4565b5b80604052505050565b7f4e487b7100000000000000000000000000000000000000000000000000000000600052602260045260246000fd5b7f4e487b7100000000000000000000000000000000000000000000000000000000600052604160045260246000fd5b600080fd5b600080fd5b600080fd5b600080fd5b6000601f19601f8301169050919050565b6200053381620003cf565b81146200053f57600080fd5b50565b612e5080620005526000396000f3fe608060405234801561001057600080fd5b50600436106100b35760003560e01c8063715018a611610071578063715018a6146101c45780638da5cb5b146101ce578063a22cb465146101ec578063e985e9c514610208578063f242432a14610238578063f2fde38b14610254576100b3565b8062fdd58e146100b857806301ffc9a7146100e85780630e89341c146101185780631b3efe85146101485780632eb2c2d6146101785780634e1273f414610194575b600080fd5b6100d260048036038101906100cd9190611d20565b610270565b6040516100df9190612519565b60405180910390f35b61010260048036038101906100fd9190611dd8565b610339565b60405161010f919061235c565b60405180910390f35b610132600480360381019061012d9190611e32565b61041b565b60405161013f9190612377565b60405180910390f35b610162600480360381019061015d9190611e5f565b610459565b60405161016f9190612519565b60405180910390f35b610192600480360381019061018d9190611b7a565b6104ed565b005b6101ae60048036038101906101a99190611d60565b61058e565b6040516101bb9190612303565b60405180910390f35b6101cc6106a7565b005b6101d66106bb565b6040516101e39190612226565b60405180910390f35b61020660048036038101906102019190611ce0565b6106e5565b005b610222600480360381019061021d9190611b3a565b6106fb565b60405161022f919061235c565b60405180910390f35b610252600480360381019061024d9190611c49565b61078f565b005b61026e60048036038101906102699190611b0d565b610830565b005b60008073ffffffffffffffffffffffffffffffffffffffff168373ffffffffffffffffffffffffffffffffffffffff1614156102e1576040517f08c379a00000000000000000000000000000000000000000000000000000000081526004016102d890612419565b60405180910390fd5b60008083815260200190815260200160002060008473ffffffffffffffffffffffffffffffffffffffff1673ffffffffffffffffffffffffffffffffffffffff16815260200190815260200160002054905092915050565b60007fd9b67a26000000000000000000000000000000000000000000000000000000007bffffffffffffffffffffffffffffffffffffffffffffffffffffffff1916827bffffffffffffffffffffffffffffffffffffffffffffffffffffffff1916148061040457507f0e89341c000000000000000000000000000000000000000000000000000000007bffffffffffffffffffffffffffffffffffffffffffffffffffffffff1916827bffffffffffffffffffffffffffffffffffffffffffffffffffffffff1916145b806104145750610413826108b4565b5b9050919050565b6060600760066000848152602001908152602001600020604051602001610443929190612202565b6040516020818303038152906040529050919050565b6000610465600461091e565b60006104716004610934565b905061048e33828660405180602001604052806000815250610942565b826006600083815260200190815260200160002090805190602001906104b59291906117e5565b506104e3600560009054906101000a900473ffffffffffffffffffffffffffffffffffffffff1660016106e5565b8091505092915050565b6104f5610af3565b73ffffffffffffffffffffffffffffffffffffffff168573ffffffffffffffffffffffffffffffffffffffff16148061053b575061053a85610535610af3565b6106fb565b5b61057a576040517f08c379a0000000000000000000000000000000000000000000000000000000008152600401610571906123b9565b60405180910390fd5b6105878585858585610afb565b5050505050565b606081518351146105d4576040517f08c379a00000000000000000000000000000000000000000000000000000000081526004016105cb906124b9565b60405180910390fd5b6000835167ffffffffffffffff8111156105f1576105f0612912565b5b60405190808252806020026020018201604052801561061f5781602001602082028036833780820191505090505b50905060005b845181101561069c5761066c858281518110610644576106436128e3565b5b602002602001015185838151811061065f5761065e6128e3565b5b6020026020010151610270565b82828151811061067f5761067e6128e3565b5b602002602001018181525050806106959061283c565b9050610625565b508091505092915050565b6106af610e1d565b6106b96000610e9b565b565b6000600360009054906101000a900473ffffffffffffffffffffffffffffffffffffffff16905090565b6106f76106f0610af3565b8383610f61565b5050565b6000600160008473ffffffffffffffffffffffffffffffffffffffff1673ffffffffffffffffffffffffffffffffffffffff16815260200190815260200160002060008373ffffffffffffffffffffffffffffffffffffffff1673ffffffffffffffffffffffffffffffffffffffff16815260200190815260200160002060009054906101000a900460ff16905092915050565b610797610af3565b73ffffffffffffffffffffffffffffffffffffffff168573ffffffffffffffffffffffffffffffffffffffff1614806107dd57506107dc856107d7610af3565b6106fb565b5b61081c576040517f08c379a0000000000000000000000000000000000000000000000000000000008152600401610813906123b9565b60405180910390fd5b61082985858585856110ce565b5050505050565b610838610e1d565b600073ffffffffffffffffffffffffffffffffffffffff168173ffffffffffffffffffffffffffffffffffffffff1614156108a8576040517f08c379a000000000000000000000000000000000000000000000000000000000815260040161089f906123f9565b60405180910390fd5b6108b181610e9b565b50565b60007f01ffc9a7000000000000000000000000000000000000000000000000000000007bffffffffffffffffffffffffffffffffffffffffffffffffffffffff1916827bffffffffffffffffffffffffffffffffffffffffffffffffffffffff1916149050919050565b6001816000016000828254019250508190555050565b600081600001549050919050565b600073ffffffffffffffffffffffffffffffffffffffff168473ffffffffffffffffffffffffffffffffffffffff1614156109b2576040517f08c379a00000000000000000000000000000000000000000000000000000000081526004016109a9906124f9565b60405180910390fd5b60006109bc610af3565b905060006109c98561136a565b905060006109d68561136a565b90506109e7836000898585896113e4565b8460008088815260200190815260200160002060008973ffffffffffffffffffffffffffffffffffffffff1673ffffffffffffffffffffffffffffffffffffffff1681526020019081526020016000206000828254610a4691906126cd565b925050819055508673ffffffffffffffffffffffffffffffffffffffff16600073ffffffffffffffffffffffffffffffffffffffff168473ffffffffffffffffffffffffffffffffffffffff167fc3d58168c5ae7397731d063d5bbf3d657854427343f4c083240f7aacaa2d0f628989604051610ac4929190612534565b60405180910390a4610adb836000898585896113ec565b610aea836000898989896113f4565b50505050505050565b600033905090565b8151835114610b3f576040517f08c379a0000000000000000000000000000000000000000000000000000000008152600401610b36906124d9565b60405180910390fd5b600073ffffffffffffffffffffffffffffffffffffffff168473ffffffffffffffffffffffffffffffffffffffff161415610baf576040517f08c379a0000000000000000000000000000000000000000000000000000000008152600401610ba690612439565b60405180910390fd5b6000610bb9610af3565b9050610bc98187878787876113e4565b60005b8451811015610d7a576000858281518110610bea57610be96128e3565b5b602002602001015190506000858381518110610c0957610c086128e3565b5b60200260200101519050600080600084815260200190815260200160002060008b73ffffffffffffffffffffffffffffffffffffffff1673ffffffffffffffffffffffffffffffffffffffff16815260200190815260200160002054905081811015610caa576040517f08c379a0000000000000000000000000000000000000000000000000000000008152600401610ca190612459565b60405180910390fd5b81810360008085815260200190815260200160002060008c73ffffffffffffffffffffffffffffffffffffffff1673ffffffffffffffffffffffffffffffffffffffff168152602001908152602001600020819055508160008085815260200190815260200160002060008b73ffffffffffffffffffffffffffffffffffffffff1673ffffffffffffffffffffffffffffffffffffffff1681526020019081526020016000206000828254610d5f91906126cd565b9250508190555050505080610d739061283c565b9050610bcc565b508473ffffffffffffffffffffffffffffffffffffffff168673ffffffffffffffffffffffffffffffffffffffff168273ffffffffffffffffffffffffffffffffffffffff167f4a39dc06d4c0dbc64b70af90fd698a233a518aa5d07e595d983b8c0526c8f7fb8787604051610df1929190612325565b60405180910390a4610e078187878787876113ec565b610e158187878787876115db565b505050505050565b610e25610af3565b73ffffffffffffffffffffffffffffffffffffffff16610e436106bb565b73ffffffffffffffffffffffffffffffffffffffff1614610e99576040517f08c379a0000000000000000000000000000000000000000000000000000000008152600401610e9090612479565b60405180910390fd5b565b6000600360009054906101000a900473ffffffffffffffffffffffffffffffffffffffff16905081600360006101000a81548173ffffffffffffffffffffffffffffffffffffffff021916908373ffffffffffffffffffffffffffffffffffffffff1602179055508173ffffffffffffffffffffffffffffffffffffffff168173ffffffffffffffffffffffffffffffffffffffff167f8be0079c531659141344cd1fd0a4f28419497f9722a3daafe3b4186f6b6457e060405160405180910390a35050565b8173ffffffffffffffffffffffffffffffffffffffff168373ffffffffffffffffffffffffffffffffffffffff161415610fd0576040517f08c379a0000000000000000000000000000000000000000000000000000000008152600401610fc790612499565b60405180910390fd5b80600160008573ffffffffffffffffffffffffffffffffffffffff1673ffffffffffffffffffffffffffffffffffffffff16815260200190815260200160002060008473ffffffffffffffffffffffffffffffffffffffff1673ffffffffffffffffffffffffffffffffffffffff16815260200190815260200160002060006101000a81548160ff0219169083151502179055508173ffffffffffffffffffffffffffffffffffffffff168373ffffffffffffffffffffffffffffffffffffffff167f17307eab39ab6107e8899845ad3d59bd9653f200f220920489ca2b5937696c31836040516110c1919061235c565b60405180910390a3505050565b600073ffffffffffffffffffffffffffffffffffffffff168473ffffffffffffffffffffffffffffffffffffffff16141561113e576040517f08c379a000000000000000000000000000000000000000000000000000000000815260040161113590612439565b60405180910390fd5b6000611148610af3565b905060006111558561136a565b905060006111628561136a565b90506111728389898585896113e4565b600080600088815260200190815260200160002060008a73ffffffffffffffffffffffffffffffffffffffff1673ffffffffffffffffffffffffffffffffffffffff16815260200190815260200160002054905085811015611209576040517f08c379a000000000000000000000000000000000000000000000000000000000815260040161120090612459565b60405180910390fd5b85810360008089815260200190815260200160002060008b73ffffffffffffffffffffffffffffffffffffffff1673ffffffffffffffffffffffffffffffffffffffff168152602001908152602001600020819055508560008089815260200190815260200160002060008a73ffffffffffffffffffffffffffffffffffffffff1673ffffffffffffffffffffffffffffffffffffffff16815260200190815260200160002060008282546112be91906126cd565b925050819055508773ffffffffffffffffffffffffffffffffffffffff168973ffffffffffffffffffffffffffffffffffffffff168573ffffffffffffffffffffffffffffffffffffffff167fc3d58168c5ae7397731d063d5bbf3d657854427343f4c083240f7aacaa2d0f628a8a60405161133b929190612534565b60405180910390a4611351848a8a86868a6113ec565b61135f848a8a8a8a8a6113f4565b505050505050505050565b60606000600167ffffffffffffffff81111561138957611388612912565b5b6040519080825280602002602001820160405280156113b75781602001602082028036833780820191505090505b50905082816000815181106113cf576113ce6128e3565b5b60200260200101818152505080915050919050565b505050505050565b505050505050565b6114138473ffffffffffffffffffffffffffffffffffffffff166117c2565b156115d3578373ffffffffffffffffffffffffffffffffffffffff1663f23a6e6187878686866040518663ffffffff1660e01b81526004016114599594939291906122a9565b602060405180830381600087803b15801561147357600080fd5b505af19250505080156114a457506040513d601f19601f820116820180604052508101906114a19190611e05565b60015b61154a576114b0612941565b806308c379a0141561150d57506114c5612d28565b806114d0575061150f565b806040517f08c379a00000000000000000000000000000000000000000000000000000000081526004016115049190612377565b60405180910390fd5b505b6040517f08c379a000000000000000000000000000000000000000000000000000000000815260040161154190612399565b60405180910390fd5b63f23a6e6160e01b7bffffffffffffffffffffffffffffffffffffffffffffffffffffffff1916817bffffffffffffffffffffffffffffffffffffffffffffffffffffffff1916146115d1576040517f08c379a00000000000000000000000000000000000000000000000000000000081526004016115c8906123d9565b60405180910390fd5b505b505050505050565b6115fa8473ffffffffffffffffffffffffffffffffffffffff166117c2565b156117ba578373ffffffffffffffffffffffffffffffffffffffff1663bc197c8187878686866040518663ffffffff1660e01b8152600401611640959493929190612241565b602060405180830381600087803b15801561165a57600080fd5b505af192505050801561168b57506040513d601f19601f820116820180604052508101906116889190611e05565b60015b61173157611697612941565b806308c379a014156116f457506116ac612d28565b806116b757506116f6565b806040517f08c379a00000000000000000000000000000000000000000000000000000000081526004016116eb9190612377565b60405180910390fd5b505b6040517f08c379a000000000000000000000000000000000000000000000000000000000815260040161172890612399565b60405180910390fd5b63bc197c8160e01b7bffffffffffffffffffffffffffffffffffffffffffffffffffffffff1916817bffffffffffffffffffffffffffffffffffffffffffffffffffffffff1916146117b8576040517f08c379a00000000000000000000000000000000000000000000000000000000081526004016117af906123d9565b60405180910390fd5b505b505050505050565b6000808273ffffffffffffffffffffffffffffffffffffffff163b119050919050565b8280546117f1906127d9565b90600052602060002090601f016020900481019282611813576000855561185a565b82601f1061182c57805160ff191683800117855561185a565b8280016001018555821561185a579182015b8281111561185957825182559160200191906001019061183e565b5b509050611867919061186b565b5090565b5b8082111561188457600081600090555060010161186c565b5090565b600061189b61189684612582565b61255d565b905080838252602082019050828560208602820111156118be576118bd612968565b5b60005b858110156118ee57816118d488826119ec565b8452602084019350602083019250506001810190506118c1565b5050509392505050565b600061190b611906846125ae565b61255d565b9050808382526020820190508285602086028201111561192e5761192d612968565b5b60005b8581101561195e57816119448882611af8565b845260208401935060208301925050600181019050611931565b5050509392505050565b600061197b611976846125da565b61255d565b9050828152602081018484840111156119975761199661296d565b5b6119a2848285612797565b509392505050565b60006119bd6119b88461260b565b61255d565b9050828152602081018484840111156119d9576119d861296d565b5b6119e4848285612797565b509392505050565b6000813590506119fb81612dbe565b92915050565b600082601f830112611a1657611a15612963565b5b8135611a26848260208601611888565b91505092915050565b600082601f830112611a4457611a43612963565b5b8135611a548482602086016118f8565b91505092915050565b600081359050611a6c81612dd5565b92915050565b600081359050611a8181612dec565b92915050565b600081519050611a9681612dec565b92915050565b600082601f830112611ab157611ab0612963565b5b8135611ac1848260208601611968565b91505092915050565b600082601f830112611adf57611ade612963565b5b8135611aef8482602086016119aa565b91505092915050565b600081359050611b0781612e03565b92915050565b600060208284031215611b2357611b22612977565b5b6000611b31848285016119ec565b91505092915050565b60008060408385031215611b5157611b50612977565b5b6000611b5f858286016119ec565b9250506020611b70858286016119ec565b9150509250929050565b600080600080600060a08688031215611b9657611b95612977565b5b6000611ba4888289016119ec565b9550506020611bb5888289016119ec565b945050604086013567ffffffffffffffff811115611bd657611bd5612972565b5b611be288828901611a2f565b935050606086013567ffffffffffffffff811115611c0357611c02612972565b5b611c0f88828901611a2f565b925050608086013567ffffffffffffffff811115611c3057611c2f612972565b5b611c3c88828901611a9c565b9150509295509295909350565b600080600080600060a08688031215611c6557611c64612977565b5b6000611c73888289016119ec565b9550506020611c84888289016119ec565b9450506040611c9588828901611af8565b9350506060611ca688828901611af8565b925050608086013567ffffffffffffffff811115611cc757611cc6612972565b5b611cd388828901611a9c565b9150509295509295909350565b60008060408385031215611cf757611cf6612977565b5b6000611d05858286016119ec565b9250506020611d1685828601611a5d565b9150509250929050565b60008060408385031215611d3757611d36612977565b5b6000611d45858286016119ec565b9250506020611d5685828601611af8565b9150509250929050565b60008060408385031215611d7757611d76612977565b5b600083013567ffffffffffffffff811115611d9557611d94612972565b5b611da185828601611a01565b925050602083013567ffffffffffffffff811115611dc257611dc1612972565b5b611dce85828601611a2f565b9150509250929050565b600060208284031215611dee57611ded612977565b5b6000611dfc84828501611a72565b91505092915050565b600060208284031215611e1b57611e1a612977565b5b6000611e2984828501611a87565b91505092915050565b600060208284031215611e4857611e47612977565b5b6000611e5684828501611af8565b91505092915050565b60008060408385031215611e7657611e75612977565b5b6000611e8485828601611af8565b925050602083013567ffffffffffffffff811115611ea557611ea4612972565b5b611eb185828601611aca565b9150509250929050565b6000611ec783836121e4565b60208301905092915050565b611edc81612723565b82525050565b6000611eed82612661565b611ef7818561268f565b9350611f028361263c565b8060005b83811015611f33578151611f1a8882611ebb565b9750611f2583612682565b925050600181019050611f06565b5085935050505092915050565b611f4981612735565b82525050565b6000611f5a8261266c565b611f6481856126a0565b9350611f748185602086016127a6565b611f7d8161297c565b840191505092915050565b6000611f9382612677565b611f9d81856126b1565b9350611fad8185602086016127a6565b611fb68161297c565b840191505092915050565b60008154611fce816127d9565b611fd881866126c2565b94506001821660008114611ff3576001811461200457612037565b60ff19831686528186019350612037565b61200d8561264c565b60005b8381101561202f57815481890152600182019150602081019050612010565b838801955050505b50505092915050565b600061204d6034836126b1565b91506120588261299a565b604082019050919050565b6000612070602f836126b1565b915061207b826129e9565b604082019050919050565b60006120936028836126b1565b915061209e82612a38565b604082019050919050565b60006120b66026836126b1565b91506120c182612a87565b604082019050919050565b60006120d9602a836126b1565b91506120e482612ad6565b604082019050919050565b60006120fc6025836126b1565b915061210782612b25565b604082019050919050565b600061211f602a836126b1565b915061212a82612b74565b604082019050919050565b60006121426020836126b1565b915061214d82612bc3565b602082019050919050565b60006121656029836126b1565b915061217082612bec565b604082019050919050565b60006121886029836126b1565b915061219382612c3b565b604082019050919050565b60006121ab6028836126b1565b91506121b682612c8a565b604082019050919050565b60006121ce6021836126b1565b91506121d982612cd9565b604082019050919050565b6121ed8161278d565b82525050565b6121fc8161278d565b82525050565b600061220e8285611fc1565b915061221a8284611fc1565b91508190509392505050565b600060208201905061223b6000830184611ed3565b92915050565b600060a0820190506122566000830188611ed3565b6122636020830187611ed3565b81810360408301526122758186611ee2565b905081810360608301526122898185611ee2565b9050818103608083015261229d8184611f4f565b90509695505050505050565b600060a0820190506122be6000830188611ed3565b6122cb6020830187611ed3565b6122d860408301866121f3565b6122e560608301856121f3565b81810360808301526122f78184611f4f565b90509695505050505050565b6000602082019050818103600083015261231d8184611ee2565b905092915050565b6000604082019050818103600083015261233f8185611ee2565b905081810360208301526123538184611ee2565b90509392505050565b60006020820190506123716000830184611f40565b92915050565b600060208201905081810360008301526123918184611f88565b905092915050565b600060208201905081810360008301526123b281612040565b9050919050565b600060208201905081810360008301526123d281612063565b9050919050565b600060208201905081810360008301526123f281612086565b9050919050565b60006020820190508181036000830152612412816120a9565b9050919050565b60006020820190508181036000830152612432816120cc565b9050919050565b60006020820190508181036000830152612452816120ef565b9050919050565b6000602082019050818103600083015261247281612112565b9050919050565b6000602082019050818103600083015261249281612135565b9050919050565b600060208201905081810360008301526124b281612158565b9050919050565b600060208201905081810360008301526124d28161217b565b9050919050565b600060208201905081810360008301526124f28161219e565b9050919050565b60006020820190508181036000830152612512816121c1565b9050919050565b600060208201905061252e60008301846121f3565b92915050565b600060408201905061254960008301856121f3565b61255660208301846121f3565b9392505050565b6000612567612578565b9050612573828261280b565b919050565b6000604051905090565b600067ffffffffffffffff82111561259d5761259c612912565b5b602082029050602081019050919050565b600067ffffffffffffffff8211156125c9576125c8612912565b5b602082029050602081019050919050565b600067ffffffffffffffff8211156125f5576125f4612912565b5b6125fe8261297c565b9050602081019050919050565b600067ffffffffffffffff82111561262657612625612912565b5b61262f8261297c565b9050602081019050919050565b6000819050602082019050919050565b60008190508160005260206000209050919050565b600081519050919050565b600081519050919050565b600081519050919050565b6000602082019050919050565b600082825260208201905092915050565b600082825260208201905092915050565b600082825260208201905092915050565b600081905092915050565b60006126d88261278d565b91506126e38361278d565b9250827fffffffffffffffffffffffffffffffffffffffffffffffffffffffffffffffff0382111561271857612717612885565b5b828201905092915050565b600061272e8261276d565b9050919050565b60008115159050919050565b60007fffffffff0000000000000000000000000000000000000000000000000000000082169050919050565b600073ffffffffffffffffffffffffffffffffffffffff82169050919050565b6000819050919050565b82818337600083830152505050565b60005b838110156127c45780820151818401526020810190506127a9565b838111156127d3576000848401525b50505050565b600060028204905060018216806127f157607f821691505b60208210811415612805576128046128b4565b5b50919050565b6128148261297c565b810181811067ffffffffffffffff8211171561283357612832612912565b5b80604052505050565b60006128478261278d565b91507fffffffffffffffffffffffffffffffffffffffffffffffffffffffffffffffff82141561287a57612879612885565b5b600182019050919050565b7f4e487b7100000000000000000000000000000000000000000000000000000000600052601160045260246000fd5b7f4e487b7100000000000000000000000000000000000000000000000000000000600052602260045260246000fd5b7f4e487b7100000000000000000000000000000000000000000000000000000000600052603260045260246000fd5b7f4e487b7100000000000000000000000000000000000000000000000000000000600052604160045260246000fd5b600060033d11156129605760046000803e61295d60005161298d565b90505b90565b600080fd5b600080fd5b600080fd5b600080fd5b600080fd5b6000601f19601f8301169050919050565b60008160e01c9050919050565b7f455243313135353a207472616e7366657220746f206e6f6e204552433131353560008201527f526563656976657220696d706c656d656e746572000000000000000000000000602082015250565b7f455243313135353a2063616c6c6572206973206e6f7420746f6b656e206f776e60008201527f6572206e6f7220617070726f7665640000000000000000000000000000000000602082015250565b7f455243313135353a204552433131353552656365697665722072656a6563746560008201527f6420746f6b656e73000000000000000000000000000000000000000000000000602082015250565b7f4f776e61626c653a206e6577206f776e657220697320746865207a65726f206160008201527f6464726573730000000000000000000000000000000000000000000000000000602082015250565b7f455243313135353a2061646472657373207a65726f206973206e6f742061207660008201527f616c6964206f776e657200000000000000000000000000000000000000000000602082015250565b7f455243313135353a207472616e7366657220746f20746865207a65726f20616460008201527f6472657373000000000000000000000000000000000000000000000000000000602082015250565b7f455243313135353a20696e73756666696369656e742062616c616e636520666f60008201527f72207472616e7366657200000000000000000000000000000000000000000000602082015250565b7f4f776e61626c653a2063616c6c6572206973206e6f7420746865206f776e6572600082015250565b7f455243313135353a2073657474696e6720617070726f76616c2073746174757360008201527f20666f722073656c660000000000000000000000000000000000000000000000602082015250565b7f455243313135353a206163636f756e747320616e6420696473206c656e67746860008201527f206d69736d617463680000000000000000000000000000000000000000000000602082015250565b7f455243313135353a2069647320616e6420616d6f756e7473206c656e6774682060008201527f6d69736d61746368000000000000000000000000000000000000000000000000602082015250565b7f455243313135353a206d696e7420746f20746865207a65726f2061646472657360008201527f7300000000000000000000000000000000000000000000000000000000000000602082015250565b600060443d1015612d3857612dbb565b612d40612578565b60043d036004823e80513d602482011167ffffffffffffffff82111715612d68575050612dbb565b808201805167ffffffffffffffff811115612d865750505050612dbb565b80602083010160043d038501811115612da3575050505050612dbb565b612db28260200185018661280b565b82955050505050505b90565b612dc781612723565b8114612dd257600080fd5b50565b612dde81612735565b8114612de957600080fd5b50565b612df581612741565b8114612e0057600080fd5b50565b612e0c8161278d565b8114612e1757600080fd5b5056fea264697066735822122067b6201173f63d582f71fd2d5a84fa8b9642578f020a478ce93dfb0824c373a664736f6c63430008060033",
  "immutableReferences": {},
  "source": "// SPDX-License-Identifier: MIT OR Apache-2.0\r\npragma solidity ^0.8.6;\r\n\r\nimport \"../node_modules/@openzeppelin/contracts/token/ERC1155/ERC1155.sol\";\r\nimport \"../node_modules/@openzeppelin/contracts/access/Ownable.sol\";\r\nimport \"../node_modules/@openzeppelin/contracts/utils/Counters.sol\";\r\n\r\ncontract ERC1155NFT is ERC1155, Ownable {\r\n    using Counters for Counters.Counter;\r\n    Counters.Counter private _tokenIds;\r\n    address contractAddress;\r\n    mapping(uint256 => string) private _hashes;\r\n    string private _uri;\r\n\r\n    constructor(address marketplaceAddress, string memory initUri) ERC1155(\"\"){\r\n        contractAddress = marketplaceAddress;\r\n        _uri = initUri;\r\n    }\r\n\r\n     function uri(uint256 id) public view virtual override returns (string memory) {\r\n        return string(abi.encodePacked(_uri, _hashes[id]));\r\n    }\r\n\r\n    function createToken(uint256 amount, string memory hash) public returns (uint) {\r\n        _tokenIds.increment();\r\n        uint256 newItemId = _tokenIds.current();\r\n        _mint(msg.sender, newItemId, amount,\"\");\r\n        _hashes[newItemId] = hash;\r\n        setApprovalForAll(contractAddress, true);\r\n        return newItemId;\r\n    }\r\n    \r\n}",
  "sourcePath": "D:\\IBlock\\truffle\\contracts\\ERC1155NFT.sol",
  "compiler": {
    "name": "solc",
    "version": "0.8.6+commit.11564f7e.Emscripten.clang"
  },
  "schemaVersion": "3.4.10",
  "updatedAt": "2022-10-20T23:58:33.922Z",
  "devdoc": {
    "kind": "dev",
    "methods": {
      "balanceOf(address,uint256)": {
        "details": "See {IERC1155-balanceOf}. Requirements: - `account` cannot be the zero address."
      },
      "balanceOfBatch(address[],uint256[])": {
        "details": "See {IERC1155-balanceOfBatch}. Requirements: - `accounts` and `ids` must have the same length."
      },
      "isApprovedForAll(address,address)": {
        "details": "See {IERC1155-isApprovedForAll}."
      },
      "owner()": {
        "details": "Returns the address of the current owner."
      },
      "renounceOwnership()": {
        "details": "Leaves the contract without owner. It will not be possible to call `onlyOwner` functions anymore. Can only be called by the current owner. NOTE: Renouncing ownership will leave the contract without an owner, thereby removing any functionality that is only available to the owner."
      },
      "safeBatchTransferFrom(address,address,uint256[],uint256[],bytes)": {
        "details": "See {IERC1155-safeBatchTransferFrom}."
      },
      "safeTransferFrom(address,address,uint256,uint256,bytes)": {
        "details": "See {IERC1155-safeTransferFrom}."
      },
      "setApprovalForAll(address,bool)": {
        "details": "See {IERC1155-setApprovalForAll}."
      },
      "supportsInterface(bytes4)": {
        "details": "See {IERC165-supportsInterface}."
      },
      "transferOwnership(address)": {
        "details": "Transfers ownership of the contract to a new account (`newOwner`). Can only be called by the current owner."
      }
    },
    "version": 1
  },
  "userdoc": {
    "kind": "user",
    "methods": {},
    "version": 1
  }
}