{
  "contractName": "ERC1155NFT",
  "abi": [
    {
      "inputs": [
        {
          "internalType": "address",
          "name": "marketplaceAddress",
          "type": "address"
        },
        {
          "internalType": "string",
          "name": "initUri",
          "type": "string"
        }
      ],
      "stateMutability": "nonpayable",
      "type": "constructor"
    },
    {
      "anonymous": false,
      "inputs": [
        {
          "indexed": true,
          "internalType": "address",
          "name": "account",
          "type": "address"
        },
        {
          "indexed": true,
          "internalType": "address",
          "name": "operator",
          "type": "address"
        },
        {
          "indexed": false,
          "internalType": "bool",
          "name": "approved",
          "type": "bool"
        }
      ],
      "name": "ApprovalForAll",
      "type": "event"
    },
    {
      "anonymous": false,
      "inputs": [
        {
          "indexed": true,
          "internalType": "address",
          "name": "previousOwner",
          "type": "address"
        },
        {
          "indexed": true,
          "internalType": "address",
          "name": "newOwner",
          "type": "address"
        }
      ],
      "name": "OwnershipTransferred",
      "type": "event"
    },
    {
      "anonymous": false,
      "inputs": [
        {
          "indexed": true,
          "internalType": "address",
          "name": "operator",
          "type": "address"
        },
        {
          "indexed": true,
          "internalType": "address",
          "name": "from",
          "type": "address"
        },
        {
          "indexed": true,
          "internalType": "address",
          "name": "to",
          "type": "address"
        },
        {
          "indexed": false,
          "internalType": "uint256[]",
          "name": "ids",
          "type": "uint256[]"
        },
        {
          "indexed": false,
          "internalType": "uint256[]",
          "name": "values",
          "type": "uint256[]"
        }
      ],
      "name": "TransferBatch",
      "type": "event"
    },
    {
      "anonymous": false,
      "inputs": [
        {
          "indexed": true,
          "internalType": "address",
          "name": "operator",
          "type": "address"
        },
        {
          "indexed": true,
          "internalType": "address",
          "name": "from",
          "type": "address"
        },
        {
          "indexed": true,
          "internalType": "address",
          "name": "to",
          "type": "address"
        },
        {
          "indexed": false,
          "internalType": "uint256",
          "name": "id",
          "type": "uint256"
        },
        {
          "indexed": false,
          "internalType": "uint256",
          "name": "value",
          "type": "uint256"
        }
      ],
      "name": "TransferSingle",
      "type": "event"
    },
    {
      "anonymous": false,
      "inputs": [
        {
          "indexed": false,
          "internalType": "string",
          "name": "value",
          "type": "string"
        },
        {
          "indexed": true,
          "internalType": "uint256",
          "name": "id",
          "type": "uint256"
        }
      ],
      "name": "URI",
      "type": "event"
    },
    {
      "inputs": [
        {
          "internalType": "address",
          "name": "account",
          "type": "address"
        },
        {
          "internalType": "uint256",
          "name": "id",
          "type": "uint256"
        }
      ],
      "name": "balanceOf",
      "outputs": [
        {
          "internalType": "uint256",
          "name": "",
          "type": "uint256"
        }
      ],
      "stateMutability": "view",
      "type": "function",
      "constant": true
    },
    {
      "inputs": [
        {
          "internalType": "address[]",
          "name": "accounts",
          "type": "address[]"
        },
        {
          "internalType": "uint256[]",
          "name": "ids",
          "type": "uint256[]"
        }
      ],
      "name": "balanceOfBatch",
      "outputs": [
        {
          "internalType": "uint256[]",
          "name": "",
          "type": "uint256[]"
        }
      ],
      "stateMutability": "view",
      "type": "function",
      "constant": true
    },
    {
      "inputs": [
        {
          "internalType": "address",
          "name": "account",
          "type": "address"
        },
        {
          "internalType": "address",
          "name": "operator",
          "type": "address"
        }
      ],
      "name": "isApprovedForAll",
      "outputs": [
        {
          "internalType": "bool",
          "name": "",
          "type": "bool"
        }
      ],
      "stateMutability": "view",
      "type": "function",
      "constant": true
    },
    {
      "inputs": [],
      "name": "owner",
      "outputs": [
        {
          "internalType": "address",
          "name": "",
          "type": "address"
        }
      ],
      "stateMutability": "view",
      "type": "function",
      "constant": true
    },
    {
      "inputs": [],
      "name": "renounceOwnership",
      "outputs": [],
      "stateMutability": "nonpayable",
      "type": "function"
    },
    {
      "inputs": [
        {
          "internalType": "address",
          "name": "from",
          "type": "address"
        },
        {
          "internalType": "address",
          "name": "to",
          "type": "address"
        },
        {
          "internalType": "uint256[]",
          "name": "ids",
          "type": "uint256[]"
        },
        {
          "internalType": "uint256[]",
          "name": "amounts",
          "type": "uint256[]"
        },
        {
          "internalType": "bytes",
          "name": "data",
          "type": "bytes"
        }
      ],
      "name": "safeBatchTransferFrom",
      "outputs": [],
      "stateMutability": "nonpayable",
      "type": "function"
    },
    {
      "inputs": [
        {
          "internalType": "address",
          "name": "from",
          "type": "address"
        },
        {
          "internalType": "address",
          "name": "to",
          "type": "address"
        },
        {
          "internalType": "uint256",
          "name": "id",
          "type": "uint256"
        },
        {
          "internalType": "uint256",
          "name": "amount",
          "type": "uint256"
        },
        {
          "internalType": "bytes",
          "name": "data",
          "type": "bytes"
        }
      ],
      "name": "safeTransferFrom",
      "outputs": [],
      "stateMutability": "nonpayable",
      "type": "function"
    },
    {
      "inputs": [
        {
          "internalType": "address",
          "name": "operator",
          "type": "address"
        },
        {
          "internalType": "bool",
          "name": "approved",
          "type": "bool"
        }
      ],
      "name": "setApprovalForAll",
      "outputs": [],
      "stateMutability": "nonpayable",
      "type": "function"
    },
    {
      "inputs": [
        {
          "internalType": "bytes4",
          "name": "interfaceId",
          "type": "bytes4"
        }
      ],
      "name": "supportsInterface",
      "outputs": [
        {
          "internalType": "bool",
          "name": "",
          "type": "bool"
        }
      ],
      "stateMutability": "view",
      "type": "function",
      "constant": true
    },
    {
      "inputs": [
        {
          "internalType": "address",
          "name": "newOwner",
          "type": "address"
        }
      ],
      "name": "transferOwnership",
      "outputs": [],
      "stateMutability": "nonpayable",
      "type": "function"
    },
    {
      "inputs": [
        {
          "internalType": "uint256",
          "name": "id",
          "type": "uint256"
        }
      ],
      "name": "uri",
      "outputs": [
        {
          "internalType": "string",
          "name": "",
          "type": "string"
        }
      ],
      "stateMutability": "view",
      "type": "function",
      "constant": true
    },
    {
      "inputs": [
        {
          "internalType": "uint256",
          "name": "amount",
          "type": "uint256"
        },
        {
          "internalType": "string",
          "name": "hash",
          "type": "string"
        }
      ],
      "name": "createToken",
      "outputs": [
        {
          "internalType": "uint256",
          "name": "",
          "type": "uint256"
        }
      ],
      "stateMutability": "nonpayable",
      "type": "function"
    }
  ],
  "bytecode": "0x60806040523480156200001157600080fd5b50604051620034533803806200345383398181016040528101906200003791906200030a565b604051806020016040528060008152506200005881620000db60201b60201c565b50620000796200006d620000f760201b60201c565b620000ff60201b60201c565b81600560006101000a81548173ffffffffffffffffffffffffffffffffffffffff021916908373ffffffffffffffffffffffffffffffffffffffff1602179055508060079080519060200190620000d2929190620001c5565b50505062000542565b8060029080519060200190620000f3929190620001c5565b5050565b600033905090565b6000600360009054906101000a900473ffffffffffffffffffffffffffffffffffffffff16905081600360006101000a81548173ffffffffffffffffffffffffffffffffffffffff021916908373ffffffffffffffffffffffffffffffffffffffff1602179055508173ffffffffffffffffffffffffffffffffffffffff168173ffffffffffffffffffffffffffffffffffffffff167f8be0079c531659141344cd1fd0a4f28419497f9722a3daafe3b4186f6b6457e060405160405180910390a35050565b828054620001d39062000439565b90600052602060002090601f016020900481019282620001f7576000855562000243565b82601f106200021257805160ff191683800117855562000243565b8280016001018555821562000243579182015b828111156200024257825182559160200191906001019062000225565b5b50905062000252919062000256565b5090565b5b808211156200027157600081600090555060010162000257565b5090565b60006200028c620002868462000399565b62000370565b905082815260208101848484011115620002ab57620002aa62000508565b5b620002b884828562000403565b509392505050565b600081519050620002d18162000528565b92915050565b600082601f830112620002ef57620002ee62000503565b5b81516200030184826020860162000275565b91505092915050565b6000806040838503121562000324576200032362000512565b5b60006200033485828601620002c0565b925050602083015167ffffffffffffffff8111156200035857620003576200050d565b5b6200036685828601620002d7565b9150509250929050565b60006200037c6200038f565b90506200038a82826200046f565b919050565b6000604051905090565b600067ffffffffffffffff821115620003b757620003b6620004d4565b5b620003c28262000517565b9050602081019050919050565b6000620003dc82620003e3565b9050919050565b600073ffffffffffffffffffffffffffffffffffffffff82169050919050565b60005b838110156200042357808201518184015260208101905062000406565b8381111562000433576000848401525b50505050565b600060028204905060018216806200045257607f821691505b60208210811415620004695762000468620004a5565b5b50919050565b6200047a8262000517565b810181811067ffffffffffffffff821117156200049c576200049b620004d4565b5b80604052505050565b7f4e487b7100000000000000000000000000000000000000000000000000000000600052602260045260246000fd5b7f4e487b7100000000000000000000000000000000000000000000000000000000600052604160045260246000fd5b600080fd5b600080fd5b600080fd5b600080fd5b6000601f19601f8301169050919050565b6200053381620003cf565b81146200053f57600080fd5b50565b612f0180620005526000396000f3fe608060405234801561001057600080fd5b50600436106100b35760003560e01c8063715018a611610071578063715018a6146101c45780638da5cb5b146101ce578063a22cb465146101ec578063e985e9c514610208578063f242432a14610238578063f2fde38b14610254576100b3565b8062fdd58e146100b857806301ffc9a7146100e85780630e89341c146101185780631b3efe85146101485780632eb2c2d6146101785780634e1273f414610194575b600080fd5b6100d260048036038101906100cd9190611d3f565b610270565b6040516100df919061257b565b60405180910390f35b61010260048036038101906100fd9190611df7565b610339565b60405161010f919061239e565b60405180910390f35b610132600480360381019061012d9190611e51565b61041b565b60405161013f91906123b9565b60405180910390f35b610162600480360381019061015d9190611e7e565b610459565b60405161016f919061257b565b60405180910390f35b610192600480360381019061018d9190611b99565b6104ed565b005b6101ae60048036038101906101a99190611d7f565b61058e565b6040516101bb9190612345565b60405180910390f35b6101cc6106a7565b005b6101d661072f565b6040516101e39190612268565b60405180910390f35b61020660048036038101906102019190611cff565b610759565b005b610222600480360381019061021d9190611b59565b61076f565b60405161022f919061239e565b60405180910390f35b610252600480360381019061024d9190611c68565b610803565b005b61026e60048036038101906102699190611b2c565b6108a4565b005b60008073ffffffffffffffffffffffffffffffffffffffff168373ffffffffffffffffffffffffffffffffffffffff1614156102e1576040517f08c379a00000000000000000000000000000000000000000000000000000000081526004016102d89061241b565b60405180910390fd5b60008083815260200190815260200160002060008473ffffffffffffffffffffffffffffffffffffffff1673ffffffffffffffffffffffffffffffffffffffff16815260200190815260200160002054905092915050565b60007fd9b67a26000000000000000000000000000000000000000000000000000000007bffffffffffffffffffffffffffffffffffffffffffffffffffffffff1916827bffffffffffffffffffffffffffffffffffffffffffffffffffffffff1916148061040457507f0e89341c000000000000000000000000000000000000000000000000000000007bffffffffffffffffffffffffffffffffffffffffffffffffffffffff1916827bffffffffffffffffffffffffffffffffffffffffffffffffffffffff1916145b8061041457506104138261099c565b5b9050919050565b6060600760066000848152602001908152602001600020604051602001610443929190612244565b6040516020818303038152906040529050919050565b60006104656004610a06565b60006104716004610a1c565b905061048e33828660405180602001604052806000815250610a2a565b826006600083815260200190815260200160002090805190602001906104b5929190611804565b506104e3600560009054906101000a900473ffffffffffffffffffffffffffffffffffffffff166001610759565b8091505092915050565b6104f5610bc0565b73ffffffffffffffffffffffffffffffffffffffff168573ffffffffffffffffffffffffffffffffffffffff16148061053b575061053a85610535610bc0565b61076f565b5b61057a576040517f08c379a00000000000000000000000000000000000000000000000000000000081526004016105719061249b565b60405180910390fd5b6105878585858585610bc8565b5050505050565b606081518351146105d4576040517f08c379a00000000000000000000000000000000000000000000000000000000081526004016105cb9061251b565b60405180910390fd5b6000835167ffffffffffffffff8111156105f1576105f0612974565b5b60405190808252806020026020018201604052801561061f5781602001602082028036833780820191505090505b50905060005b845181101561069c5761066c85828151811061064457610643612945565b5b602002602001015185838151811061065f5761065e612945565b5b6020026020010151610270565b82828151811061067f5761067e612945565b5b602002602001018181525050806106959061289e565b9050610625565b508091505092915050565b6106af610bc0565b73ffffffffffffffffffffffffffffffffffffffff166106cd61072f565b73ffffffffffffffffffffffffffffffffffffffff1614610723576040517f08c379a000000000000000000000000000000000000000000000000000000000815260040161071a906124db565b60405180910390fd5b61072d6000610edc565b565b6000600360009054906101000a900473ffffffffffffffffffffffffffffffffffffffff16905090565b61076b610764610bc0565b8383610fa2565b5050565b6000600160008473ffffffffffffffffffffffffffffffffffffffff1673ffffffffffffffffffffffffffffffffffffffff16815260200190815260200160002060008373ffffffffffffffffffffffffffffffffffffffff1673ffffffffffffffffffffffffffffffffffffffff16815260200190815260200160002060009054906101000a900460ff16905092915050565b61080b610bc0565b73ffffffffffffffffffffffffffffffffffffffff168573ffffffffffffffffffffffffffffffffffffffff16148061085157506108508561084b610bc0565b61076f565b5b610890576040517f08c379a00000000000000000000000000000000000000000000000000000000081526004016108879061245b565b60405180910390fd5b61089d858585858561110f565b5050505050565b6108ac610bc0565b73ffffffffffffffffffffffffffffffffffffffff166108ca61072f565b73ffffffffffffffffffffffffffffffffffffffff1614610920576040517f08c379a0000000000000000000000000000000000000000000000000000000008152600401610917906124db565b60405180910390fd5b600073ffffffffffffffffffffffffffffffffffffffff168173ffffffffffffffffffffffffffffffffffffffff161415610990576040517f08c379a00000000000000000000000000000000000000000000000000000000081526004016109879061243b565b60405180910390fd5b61099981610edc565b50565b60007f01ffc9a7000000000000000000000000000000000000000000000000000000007bffffffffffffffffffffffffffffffffffffffffffffffffffffffff1916827bffffffffffffffffffffffffffffffffffffffffffffffffffffffff1916149050919050565b6001816000016000828254019250508190555050565b600081600001549050919050565b600073ffffffffffffffffffffffffffffffffffffffff168473ffffffffffffffffffffffffffffffffffffffff161415610a9a576040517f08c379a0000000000000000000000000000000000000000000000000000000008152600401610a919061255b565b60405180910390fd5b6000610aa4610bc0565b9050610ac581600087610ab688611391565b610abf88611391565b8761140b565b8260008086815260200190815260200160002060008773ffffffffffffffffffffffffffffffffffffffff1673ffffffffffffffffffffffffffffffffffffffff1681526020019081526020016000206000828254610b24919061272f565b925050819055508473ffffffffffffffffffffffffffffffffffffffff16600073ffffffffffffffffffffffffffffffffffffffff168273ffffffffffffffffffffffffffffffffffffffff167fc3d58168c5ae7397731d063d5bbf3d657854427343f4c083240f7aacaa2d0f628787604051610ba2929190612596565b60405180910390a4610bb981600087878787611413565b5050505050565b600033905090565b8151835114610c0c576040517f08c379a0000000000000000000000000000000000000000000000000000000008152600401610c039061253b565b60405180910390fd5b600073ffffffffffffffffffffffffffffffffffffffff168473ffffffffffffffffffffffffffffffffffffffff161415610c7c576040517f08c379a0000000000000000000000000000000000000000000000000000000008152600401610c739061247b565b60405180910390fd5b6000610c86610bc0565b9050610c9681878787878761140b565b60005b8451811015610e47576000858281518110610cb757610cb6612945565b5b602002602001015190506000858381518110610cd657610cd5612945565b5b60200260200101519050600080600084815260200190815260200160002060008b73ffffffffffffffffffffffffffffffffffffffff1673ffffffffffffffffffffffffffffffffffffffff16815260200190815260200160002054905081811015610d77576040517f08c379a0000000000000000000000000000000000000000000000000000000008152600401610d6e906124bb565b60405180910390fd5b81810360008085815260200190815260200160002060008c73ffffffffffffffffffffffffffffffffffffffff1673ffffffffffffffffffffffffffffffffffffffff168152602001908152602001600020819055508160008085815260200190815260200160002060008b73ffffffffffffffffffffffffffffffffffffffff1673ffffffffffffffffffffffffffffffffffffffff1681526020019081526020016000206000828254610e2c919061272f565b9250508190555050505080610e409061289e565b9050610c99565b508473ffffffffffffffffffffffffffffffffffffffff168673ffffffffffffffffffffffffffffffffffffffff168273ffffffffffffffffffffffffffffffffffffffff167f4a39dc06d4c0dbc64b70af90fd698a233a518aa5d07e595d983b8c0526c8f7fb8787604051610ebe929190612367565b60405180910390a4610ed48187878787876115fa565b505050505050565b6000600360009054906101000a900473ffffffffffffffffffffffffffffffffffffffff16905081600360006101000a81548173ffffffffffffffffffffffffffffffffffffffff021916908373ffffffffffffffffffffffffffffffffffffffff1602179055508173ffffffffffffffffffffffffffffffffffffffff168173ffffffffffffffffffffffffffffffffffffffff167f8be0079c531659141344cd1fd0a4f28419497f9722a3daafe3b4186f6b6457e060405160405180910390a35050565b8173ffffffffffffffffffffffffffffffffffffffff168373ffffffffffffffffffffffffffffffffffffffff161415611011576040517f08c379a0000000000000000000000000000000000000000000000000000000008152600401611008906124fb565b60405180910390fd5b80600160008573ffffffffffffffffffffffffffffffffffffffff1673ffffffffffffffffffffffffffffffffffffffff16815260200190815260200160002060008473ffffffffffffffffffffffffffffffffffffffff1673ffffffffffffffffffffffffffffffffffffffff16815260200190815260200160002060006101000a81548160ff0219169083151502179055508173ffffffffffffffffffffffffffffffffffffffff168373ffffffffffffffffffffffffffffffffffffffff167f17307eab39ab6107e8899845ad3d59bd9653f200f220920489ca2b5937696c3183604051611102919061239e565b60405180910390a3505050565b600073ffffffffffffffffffffffffffffffffffffffff168473ffffffffffffffffffffffffffffffffffffffff16141561117f576040517f08c379a00000000000000000000000000000000000000000000000000000000081526004016111769061247b565b60405180910390fd5b6000611189610bc0565b90506111a981878761119a88611391565b6111a388611391565b8761140b565b600080600086815260200190815260200160002060008873ffffffffffffffffffffffffffffffffffffffff1673ffffffffffffffffffffffffffffffffffffffff16815260200190815260200160002054905083811015611240576040517f08c379a0000000000000000000000000000000000000000000000000000000008152600401611237906124bb565b60405180910390fd5b83810360008087815260200190815260200160002060008973ffffffffffffffffffffffffffffffffffffffff1673ffffffffffffffffffffffffffffffffffffffff168152602001908152602001600020819055508360008087815260200190815260200160002060008873ffffffffffffffffffffffffffffffffffffffff1673ffffffffffffffffffffffffffffffffffffffff16815260200190815260200160002060008282546112f5919061272f565b925050819055508573ffffffffffffffffffffffffffffffffffffffff168773ffffffffffffffffffffffffffffffffffffffff168373ffffffffffffffffffffffffffffffffffffffff167fc3d58168c5ae7397731d063d5bbf3d657854427343f4c083240f7aacaa2d0f628888604051611372929190612596565b60405180910390a4611388828888888888611413565b50505050505050565b60606000600167ffffffffffffffff8111156113b0576113af612974565b5b6040519080825280602002602001820160405280156113de5781602001602082028036833780820191505090505b50905082816000815181106113f6576113f5612945565b5b60200260200101818152505080915050919050565b505050505050565b6114328473ffffffffffffffffffffffffffffffffffffffff166117e1565b156115f2578373ffffffffffffffffffffffffffffffffffffffff1663f23a6e6187878686866040518663ffffffff1660e01b81526004016114789594939291906122eb565b602060405180830381600087803b15801561149257600080fd5b505af19250505080156114c357506040513d601f19601f820116820180604052508101906114c09190611e24565b60015b611569576114cf6129a3565b806308c379a0141561152c57506114e4612dd9565b806114ef575061152e565b806040517f08c379a000000000000000000000000000000000000000000000000000000000815260040161152391906123b9565b60405180910390fd5b505b6040517f08c379a0000000000000000000000000000000000000000000000000000000008152600401611560906123db565b60405180910390fd5b63f23a6e6160e01b7bffffffffffffffffffffffffffffffffffffffffffffffffffffffff1916817bffffffffffffffffffffffffffffffffffffffffffffffffffffffff1916146115f0576040517f08c379a00000000000000000000000000000000000000000000000000000000081526004016115e7906123fb565b60405180910390fd5b505b505050505050565b6116198473ffffffffffffffffffffffffffffffffffffffff166117e1565b156117d9578373ffffffffffffffffffffffffffffffffffffffff1663bc197c8187878686866040518663ffffffff1660e01b815260040161165f959493929190612283565b602060405180830381600087803b15801561167957600080fd5b505af19250505080156116aa57506040513d601f19601f820116820180604052508101906116a79190611e24565b60015b611750576116b66129a3565b806308c379a0141561171357506116cb612dd9565b806116d65750611715565b806040517f08c379a000000000000000000000000000000000000000000000000000000000815260040161170a91906123b9565b60405180910390fd5b505b6040517f08c379a0000000000000000000000000000000000000000000000000000000008152600401611747906123db565b60405180910390fd5b63bc197c8160e01b7bffffffffffffffffffffffffffffffffffffffffffffffffffffffff1916817bffffffffffffffffffffffffffffffffffffffffffffffffffffffff1916146117d7576040517f08c379a00000000000000000000000000000000000000000000000000000000081526004016117ce906123fb565b60405180910390fd5b505b505050505050565b6000808273ffffffffffffffffffffffffffffffffffffffff163b119050919050565b8280546118109061283b565b90600052602060002090601f0160209004810192826118325760008555611879565b82601f1061184b57805160ff1916838001178555611879565b82800160010185558215611879579182015b8281111561187857825182559160200191906001019061185d565b5b509050611886919061188a565b5090565b5b808211156118a357600081600090555060010161188b565b5090565b60006118ba6118b5846125e4565b6125bf565b905080838252602082019050828560208602820111156118dd576118dc6129ca565b5b60005b8581101561190d57816118f38882611a0b565b8452602084019350602083019250506001810190506118e0565b5050509392505050565b600061192a61192584612610565b6125bf565b9050808382526020820190508285602086028201111561194d5761194c6129ca565b5b60005b8581101561197d57816119638882611b17565b845260208401935060208301925050600181019050611950565b5050509392505050565b600061199a6119958461263c565b6125bf565b9050828152602081018484840111156119b6576119b56129cf565b5b6119c18482856127f9565b509392505050565b60006119dc6119d78461266d565b6125bf565b9050828152602081018484840111156119f8576119f76129cf565b5b611a038482856127f9565b509392505050565b600081359050611a1a81612e6f565b92915050565b600082601f830112611a3557611a346129c5565b5b8135611a458482602086016118a7565b91505092915050565b600082601f830112611a6357611a626129c5565b5b8135611a73848260208601611917565b91505092915050565b600081359050611a8b81612e86565b92915050565b600081359050611aa081612e9d565b92915050565b600081519050611ab581612e9d565b92915050565b600082601f830112611ad057611acf6129c5565b5b8135611ae0848260208601611987565b91505092915050565b600082601f830112611afe57611afd6129c5565b5b8135611b0e8482602086016119c9565b91505092915050565b600081359050611b2681612eb4565b92915050565b600060208284031215611b4257611b416129d9565b5b6000611b5084828501611a0b565b91505092915050565b60008060408385031215611b7057611b6f6129d9565b5b6000611b7e85828601611a0b565b9250506020611b8f85828601611a0b565b9150509250929050565b600080600080600060a08688031215611bb557611bb46129d9565b5b6000611bc388828901611a0b565b9550506020611bd488828901611a0b565b945050604086013567ffffffffffffffff811115611bf557611bf46129d4565b5b611c0188828901611a4e565b935050606086013567ffffffffffffffff811115611c2257611c216129d4565b5b611c2e88828901611a4e565b925050608086013567ffffffffffffffff811115611c4f57611c4e6129d4565b5b611c5b88828901611abb565b9150509295509295909350565b600080600080600060a08688031215611c8457611c836129d9565b5b6000611c9288828901611a0b565b9550506020611ca388828901611a0b565b9450506040611cb488828901611b17565b9350506060611cc588828901611b17565b925050608086013567ffffffffffffffff811115611ce657611ce56129d4565b5b611cf288828901611abb565b9150509295509295909350565b60008060408385031215611d1657611d156129d9565b5b6000611d2485828601611a0b565b9250506020611d3585828601611a7c565b9150509250929050565b60008060408385031215611d5657611d556129d9565b5b6000611d6485828601611a0b565b9250506020611d7585828601611b17565b9150509250929050565b60008060408385031215611d9657611d956129d9565b5b600083013567ffffffffffffffff811115611db457611db36129d4565b5b611dc085828601611a20565b925050602083013567ffffffffffffffff811115611de157611de06129d4565b5b611ded85828601611a4e565b9150509250929050565b600060208284031215611e0d57611e0c6129d9565b5b6000611e1b84828501611a91565b91505092915050565b600060208284031215611e3a57611e396129d9565b5b6000611e4884828501611aa6565b91505092915050565b600060208284031215611e6757611e666129d9565b5b6000611e7584828501611b17565b91505092915050565b60008060408385031215611e9557611e946129d9565b5b6000611ea385828601611b17565b925050602083013567ffffffffffffffff811115611ec457611ec36129d4565b5b611ed085828601611ae9565b9150509250929050565b6000611ee68383612226565b60208301905092915050565b611efb81612785565b82525050565b6000611f0c826126c3565b611f1681856126f1565b9350611f218361269e565b8060005b83811015611f52578151611f398882611eda565b9750611f44836126e4565b925050600181019050611f25565b5085935050505092915050565b611f6881612797565b82525050565b6000611f79826126ce565b611f838185612702565b9350611f93818560208601612808565b611f9c816129de565b840191505092915050565b6000611fb2826126d9565b611fbc8185612713565b9350611fcc818560208601612808565b611fd5816129de565b840191505092915050565b60008154611fed8161283b565b611ff78186612724565b94506001821660008114612012576001811461202357612056565b60ff19831686528186019350612056565b61202c856126ae565b60005b8381101561204e5781548189015260018201915060208101905061202f565b838801955050505b50505092915050565b600061206c603483612713565b9150612077826129fc565b604082019050919050565b600061208f602883612713565b915061209a82612a4b565b604082019050919050565b60006120b2602b83612713565b91506120bd82612a9a565b604082019050919050565b60006120d5602683612713565b91506120e082612ae9565b604082019050919050565b60006120f8602983612713565b915061210382612b38565b604082019050919050565b600061211b602583612713565b915061212682612b87565b604082019050919050565b600061213e603283612713565b915061214982612bd6565b604082019050919050565b6000612161602a83612713565b915061216c82612c25565b604082019050919050565b6000612184602083612713565b915061218f82612c74565b602082019050919050565b60006121a7602983612713565b91506121b282612c9d565b604082019050919050565b60006121ca602983612713565b91506121d582612cec565b604082019050919050565b60006121ed602883612713565b91506121f882612d3b565b604082019050919050565b6000612210602183612713565b915061221b82612d8a565b604082019050919050565b61222f816127ef565b82525050565b61223e816127ef565b82525050565b60006122508285611fe0565b915061225c8284611fe0565b91508190509392505050565b600060208201905061227d6000830184611ef2565b92915050565b600060a0820190506122986000830188611ef2565b6122a56020830187611ef2565b81810360408301526122b78186611f01565b905081810360608301526122cb8185611f01565b905081810360808301526122df8184611f6e565b90509695505050505050565b600060a0820190506123006000830188611ef2565b61230d6020830187611ef2565b61231a6040830186612235565b6123276060830185612235565b81810360808301526123398184611f6e565b90509695505050505050565b6000602082019050818103600083015261235f8184611f01565b905092915050565b600060408201905081810360008301526123818185611f01565b905081810360208301526123958184611f01565b90509392505050565b60006020820190506123b36000830184611f5f565b92915050565b600060208201905081810360008301526123d38184611fa7565b905092915050565b600060208201905081810360008301526123f48161205f565b9050919050565b6000602082019050818103600083015261241481612082565b9050919050565b60006020820190508181036000830152612434816120a5565b9050919050565b60006020820190508181036000830152612454816120c8565b9050919050565b60006020820190508181036000830152612474816120eb565b9050919050565b600060208201905081810360008301526124948161210e565b9050919050565b600060208201905081810360008301526124b481612131565b9050919050565b600060208201905081810360008301526124d481612154565b9050919050565b600060208201905081810360008301526124f481612177565b9050919050565b600060208201905081810360008301526125148161219a565b9050919050565b60006020820190508181036000830152612534816121bd565b9050919050565b60006020820190508181036000830152612554816121e0565b9050919050565b6000602082019050818103600083015261257481612203565b9050919050565b60006020820190506125906000830184612235565b92915050565b60006040820190506125ab6000830185612235565b6125b86020830184612235565b9392505050565b60006125c96125da565b90506125d5828261286d565b919050565b6000604051905090565b600067ffffffffffffffff8211156125ff576125fe612974565b5b602082029050602081019050919050565b600067ffffffffffffffff82111561262b5761262a612974565b5b602082029050602081019050919050565b600067ffffffffffffffff82111561265757612656612974565b5b612660826129de565b9050602081019050919050565b600067ffffffffffffffff82111561268857612687612974565b5b612691826129de565b9050602081019050919050565b6000819050602082019050919050565b60008190508160005260206000209050919050565b600081519050919050565b600081519050919050565b600081519050919050565b6000602082019050919050565b600082825260208201905092915050565b600082825260208201905092915050565b600082825260208201905092915050565b600081905092915050565b600061273a826127ef565b9150612745836127ef565b9250827fffffffffffffffffffffffffffffffffffffffffffffffffffffffffffffffff0382111561277a576127796128e7565b5b828201905092915050565b6000612790826127cf565b9050919050565b60008115159050919050565b60007fffffffff0000000000000000000000000000000000000000000000000000000082169050919050565b600073ffffffffffffffffffffffffffffffffffffffff82169050919050565b6000819050919050565b82818337600083830152505050565b60005b8381101561282657808201518184015260208101905061280b565b83811115612835576000848401525b50505050565b6000600282049050600182168061285357607f821691505b6020821081141561286757612866612916565b5b50919050565b612876826129de565b810181811067ffffffffffffffff8211171561289557612894612974565b5b80604052505050565b60006128a9826127ef565b91507fffffffffffffffffffffffffffffffffffffffffffffffffffffffffffffffff8214156128dc576128db6128e7565b5b600182019050919050565b7f4e487b7100000000000000000000000000000000000000000000000000000000600052601160045260246000fd5b7f4e487b7100000000000000000000000000000000000000000000000000000000600052602260045260246000fd5b7f4e487b7100000000000000000000000000000000000000000000000000000000600052603260045260246000fd5b7f4e487b7100000000000000000000000000000000000000000000000000000000600052604160045260246000fd5b600060033d11156129c25760046000803e6129bf6000516129ef565b90505b90565b600080fd5b600080fd5b600080fd5b600080fd5b600080fd5b6000601f19601f8301169050919050565b60008160e01c9050919050565b7f455243313135353a207472616e7366657220746f206e6f6e204552433131353560008201527f526563656976657220696d706c656d656e746572000000000000000000000000602082015250565b7f455243313135353a204552433131353552656365697665722072656a6563746560008201527f6420746f6b656e73000000000000000000000000000000000000000000000000602082015250565b7f455243313135353a2062616c616e636520717565727920666f7220746865207a60008201527f65726f2061646472657373000000000000000000000000000000000000000000602082015250565b7f4f776e61626c653a206e6577206f776e657220697320746865207a65726f206160008201527f6464726573730000000000000000000000000000000000000000000000000000602082015250565b7f455243313135353a2063616c6c6572206973206e6f74206f776e6572206e6f7260008201527f20617070726f7665640000000000000000000000000000000000000000000000602082015250565b7f455243313135353a207472616e7366657220746f20746865207a65726f20616460008201527f6472657373000000000000000000000000000000000000000000000000000000602082015250565b7f455243313135353a207472616e736665722063616c6c6572206973206e6f742060008201527f6f776e6572206e6f7220617070726f7665640000000000000000000000000000602082015250565b7f455243313135353a20696e73756666696369656e742062616c616e636520666f60008201527f72207472616e7366657200000000000000000000000000000000000000000000602082015250565b7f4f776e61626c653a2063616c6c6572206973206e6f7420746865206f776e6572600082015250565b7f455243313135353a2073657474696e6720617070726f76616c2073746174757360008201527f20666f722073656c660000000000000000000000000000000000000000000000602082015250565b7f455243313135353a206163636f756e747320616e6420696473206c656e67746860008201527f206d69736d617463680000000000000000000000000000000000000000000000602082015250565b7f455243313135353a2069647320616e6420616d6f756e7473206c656e6774682060008201527f6d69736d61746368000000000000000000000000000000000000000000000000602082015250565b7f455243313135353a206d696e7420746f20746865207a65726f2061646472657360008201527f7300000000000000000000000000000000000000000000000000000000000000602082015250565b600060443d1015612de957612e6c565b612df16125da565b60043d036004823e80513d602482011167ffffffffffffffff82111715612e19575050612e6c565b808201805167ffffffffffffffff811115612e375750505050612e6c565b80602083010160043d038501811115612e54575050505050612e6c565b612e638260200185018661286d565b82955050505050505b90565b612e7881612785565b8114612e8357600080fd5b50565b612e8f81612797565b8114612e9a57600080fd5b50565b612ea6816127a3565b8114612eb157600080fd5b50565b612ebd816127ef565b8114612ec857600080fd5b5056fea2646970667358221220489081d24e122c9b4c36ce3e19dc353db3d0fdcdeac4b404e88aab909e860b4e64736f6c63430008060033",
  "immutableReferences": {},
  "source": "// SPDX-License-Identifier: MIT OR Apache-2.0\r\npragma solidity ^0.8.6;\r\n\r\nimport \"../node_modules/@openzeppelin/contracts/token/ERC1155/ERC1155.sol\";\r\nimport \"../node_modules/@openzeppelin/contracts/access/Ownable.sol\";\r\nimport \"../node_modules/@openzeppelin/contracts/utils/Counters.sol\";\r\n\r\ncontract ERC1155NFT is ERC1155, Ownable {\r\n    using Counters for Counters.Counter;\r\n    Counters.Counter private _tokenIds;\r\n    address contractAddress;\r\n    mapping(uint256 => string) private _hashes;\r\n    string private _uri;\r\n\r\n    constructor(address marketplaceAddress, string memory initUri) ERC1155(\"\"){\r\n        contractAddress = marketplaceAddress;\r\n        _uri = initUri;\r\n    }\r\n\r\n     function uri(uint256 id) public view virtual override returns (string memory) {\r\n        return string(abi.encodePacked(_uri, _hashes[id]));\r\n    }\r\n\r\n    function createToken(uint256 amount, string memory hash) public returns (uint) {\r\n        _tokenIds.increment();\r\n        uint256 newItemId = _tokenIds.current();\r\n        _mint(msg.sender, newItemId, amount,\"\");\r\n        _hashes[newItemId] = hash;\r\n        setApprovalForAll(contractAddress, true);\r\n        return newItemId;\r\n    }\r\n    \r\n}",
  "sourcePath": "C:\\Users\\sutanto4\\Desktop\\IBlockSp22\\sp22_NFT_marketplace\\truffle\\contracts\\ERC1155NFT.sol",
  "compiler": {
    "name": "solc",
    "version": "0.8.6+commit.11564f7e.Emscripten.clang"
  },
  "schemaVersion": "3.4.3",
  "updatedAt": "2022-04-22T09:12:36.905Z",
  "networkType": "ethereum",
  "devdoc": {
    "kind": "dev",
    "methods": {
      "balanceOf(address,uint256)": {
        "details": "See {IERC1155-balanceOf}. Requirements: - `account` cannot be the zero address."
      },
      "balanceOfBatch(address[],uint256[])": {
        "details": "See {IERC1155-balanceOfBatch}. Requirements: - `accounts` and `ids` must have the same length."
      },
      "isApprovedForAll(address,address)": {
        "details": "See {IERC1155-isApprovedForAll}."
      },
      "owner()": {
        "details": "Returns the address of the current owner."
      },
      "renounceOwnership()": {
        "details": "Leaves the contract without owner. It will not be possible to call `onlyOwner` functions anymore. Can only be called by the current owner. NOTE: Renouncing ownership will leave the contract without an owner, thereby removing any functionality that is only available to the owner."
      },
      "safeBatchTransferFrom(address,address,uint256[],uint256[],bytes)": {
        "details": "See {IERC1155-safeBatchTransferFrom}."
      },
      "safeTransferFrom(address,address,uint256,uint256,bytes)": {
        "details": "See {IERC1155-safeTransferFrom}."
      },
      "setApprovalForAll(address,bool)": {
        "details": "See {IERC1155-setApprovalForAll}."
      },
      "supportsInterface(bytes4)": {
        "details": "See {IERC165-supportsInterface}."
      },
      "transferOwnership(address)": {
        "details": "Transfers ownership of the contract to a new account (`newOwner`). Can only be called by the current owner."
      }
    },
    "version": 1
  },
  "userdoc": {
    "kind": "user",
    "methods": {},
    "version": 1
  }
}