{
  "contractName": "ERC1155Market",
  "abi": [
    {
      "inputs": [
        {
          "internalType": "contract IERC20",
          "name": "_mcoToken",
          "type": "address"
        },
        {
          "internalType": "contract IERC20",
          "name": "_gcoToken",
          "type": "address"
        }
      ],
      "stateMutability": "nonpayable",
      "type": "constructor"
    },
    {
      "anonymous": false,
      "inputs": [
        {
          "indexed": true,
          "internalType": "uint256",
          "name": "itemId",
          "type": "uint256"
        },
        {
          "indexed": true,
          "internalType": "address",
          "name": "nftContract",
          "type": "address"
        },
        {
          "indexed": true,
          "internalType": "uint256",
          "name": "tokenId",
          "type": "uint256"
        },
        {
          "indexed": false,
          "internalType": "address",
          "name": "seller",
          "type": "address"
        },
        {
          "indexed": false,
          "internalType": "address",
          "name": "owner",
          "type": "address"
        },
        {
          "indexed": false,
          "internalType": "uint256",
          "name": "royalty",
          "type": "uint256"
        }
      ],
      "name": "MarketItemCreated",
      "type": "event"
    },
    {
      "anonymous": false,
      "inputs": [
        {
          "indexed": true,
          "internalType": "uint256",
          "name": "itemId",
          "type": "uint256"
        },
        {
          "indexed": true,
          "internalType": "address",
          "name": "nftContract",
          "type": "address"
        },
        {
          "indexed": true,
          "internalType": "uint256",
          "name": "tokenId",
          "type": "uint256"
        },
        {
          "indexed": false,
          "internalType": "address",
          "name": "seller",
          "type": "address"
        },
        {
          "indexed": false,
          "internalType": "address",
          "name": "owner",
          "type": "address"
        },
        {
          "indexed": false,
          "internalType": "uint256",
          "name": "royalty",
          "type": "uint256"
        },
        {
          "indexed": false,
          "internalType": "uint256",
          "name": "quantity",
          "type": "uint256"
        }
      ],
      "name": "MarketItemMultiCreated",
      "type": "event"
    },
    {
      "anonymous": false,
      "inputs": [
        {
          "indexed": true,
          "internalType": "uint256",
          "name": "itemId",
          "type": "uint256"
        },
        {
          "indexed": true,
          "internalType": "address",
          "name": "nftContract",
          "type": "address"
        },
        {
          "indexed": true,
          "internalType": "uint256",
          "name": "tokenId",
          "type": "uint256"
        },
        {
          "indexed": false,
          "internalType": "address",
          "name": "lister",
          "type": "address"
        },
        {
          "indexed": false,
          "internalType": "uint256",
          "name": "price",
          "type": "uint256"
        },
        {
          "indexed": false,
          "internalType": "string",
          "name": "transactionToken",
          "type": "string"
        }
      ],
      "name": "MarketListingCancelled",
      "type": "event"
    },
    {
      "anonymous": false,
      "inputs": [
        {
          "indexed": true,
          "internalType": "uint256",
          "name": "itemId",
          "type": "uint256"
        },
        {
          "indexed": true,
          "internalType": "address",
          "name": "nftContract",
          "type": "address"
        },
        {
          "indexed": true,
          "internalType": "uint256",
          "name": "tokenId",
          "type": "uint256"
        },
        {
          "indexed": false,
          "internalType": "address",
          "name": "lister",
          "type": "address"
        },
        {
          "indexed": false,
          "internalType": "uint256",
          "name": "price",
          "type": "uint256"
        },
        {
          "indexed": false,
          "internalType": "string",
          "name": "transactionToken",
          "type": "string"
        }
      ],
      "name": "MarketListingCreated",
      "type": "event"
    },
    {
      "anonymous": false,
      "inputs": [
        {
          "indexed": true,
          "internalType": "uint256",
          "name": "itemId",
          "type": "uint256"
        },
        {
          "indexed": true,
          "internalType": "address",
          "name": "nftContract",
          "type": "address"
        },
        {
          "indexed": true,
          "internalType": "uint256",
          "name": "tokenId",
          "type": "uint256"
        },
        {
          "indexed": false,
          "internalType": "address",
          "name": "lister",
          "type": "address"
        },
        {
          "indexed": false,
          "internalType": "uint256",
          "name": "price",
          "type": "uint256"
        },
        {
          "indexed": false,
          "internalType": "string",
          "name": "transactionToken",
          "type": "string"
        },
        {
          "indexed": false,
          "internalType": "uint256",
          "name": "quantity",
          "type": "uint256"
        }
      ],
      "name": "MarketMultiListingCreated",
      "type": "event"
    },
    {
      "anonymous": false,
      "inputs": [
        {
          "indexed": true,
          "internalType": "uint256",
          "name": "itemId",
          "type": "uint256"
        },
        {
          "indexed": true,
          "internalType": "address",
          "name": "nftContract",
          "type": "address"
        },
        {
          "indexed": true,
          "internalType": "uint256",
          "name": "tokenId",
          "type": "uint256"
        },
        {
          "indexed": false,
          "internalType": "address",
          "name": "seller",
          "type": "address"
        },
        {
          "indexed": false,
          "internalType": "address",
          "name": "buyer",
          "type": "address"
        },
        {
          "indexed": false,
          "internalType": "uint256",
          "name": "price",
          "type": "uint256"
        },
        {
          "indexed": false,
          "internalType": "uint256",
          "name": "royalty",
          "type": "uint256"
        },
        {
          "indexed": false,
          "internalType": "string",
          "name": "transactionToken",
          "type": "string"
        }
      ],
      "name": "MarketSaleCreated",
      "type": "event"
    },
    {
      "anonymous": false,
      "inputs": [
        {
          "indexed": false,
          "internalType": "address",
          "name": "_senderAddress",
          "type": "address"
        },
        {
          "indexed": false,
          "internalType": "address",
          "name": "_destAddress",
          "type": "address"
        },
        {
          "indexed": false,
          "internalType": "uint256",
          "name": "_amount",
          "type": "uint256"
        }
      ],
      "name": "TransferSent",
      "type": "event"
    },
    {
      "inputs": [
        {
          "internalType": "address",
          "name": "",
          "type": "address"
        },
        {
          "internalType": "address",
          "name": "",
          "type": "address"
        },
        {
          "internalType": "uint256[]",
          "name": "",
          "type": "uint256[]"
        },
        {
          "internalType": "uint256[]",
          "name": "",
          "type": "uint256[]"
        },
        {
          "internalType": "bytes",
          "name": "",
          "type": "bytes"
        }
      ],
      "name": "onERC1155BatchReceived",
      "outputs": [
        {
          "internalType": "bytes4",
          "name": "",
          "type": "bytes4"
        }
      ],
      "stateMutability": "nonpayable",
      "type": "function"
    },
    {
      "inputs": [
        {
          "internalType": "address",
          "name": "",
          "type": "address"
        },
        {
          "internalType": "address",
          "name": "",
          "type": "address"
        },
        {
          "internalType": "uint256",
          "name": "",
          "type": "uint256"
        },
        {
          "internalType": "uint256",
          "name": "",
          "type": "uint256"
        },
        {
          "internalType": "bytes",
          "name": "",
          "type": "bytes"
        }
      ],
      "name": "onERC1155Received",
      "outputs": [
        {
          "internalType": "bytes4",
          "name": "",
          "type": "bytes4"
        }
      ],
      "stateMutability": "nonpayable",
      "type": "function"
    },
    {
      "inputs": [
        {
          "internalType": "bytes4",
          "name": "interfaceId",
          "type": "bytes4"
        }
      ],
      "name": "supportsInterface",
      "outputs": [
        {
          "internalType": "bool",
          "name": "",
          "type": "bool"
        }
      ],
      "stateMutability": "view",
      "type": "function",
      "constant": true
    },
    {
      "inputs": [],
      "name": "getListingPrice",
      "outputs": [
        {
          "internalType": "uint256",
          "name": "",
          "type": "uint256"
        }
      ],
      "stateMutability": "view",
      "type": "function",
      "constant": true
    },
    {
      "inputs": [
        {
          "internalType": "address",
          "name": "nftContract",
          "type": "address"
        },
        {
          "internalType": "uint256",
          "name": "tokenId",
          "type": "uint256"
        },
        {
          "internalType": "uint256",
          "name": "category",
          "type": "uint256"
        },
        {
          "internalType": "uint256",
          "name": "royalty",
          "type": "uint256"
        },
        {
          "internalType": "uint256",
          "name": "price",
          "type": "uint256"
        },
        {
          "internalType": "bool",
          "name": "useGco",
          "type": "bool"
        }
      ],
      "name": "createMarketItem",
      "outputs": [],
      "stateMutability": "nonpayable",
      "type": "function"
    },
    {
      "inputs": [
        {
          "internalType": "address",
          "name": "nftContract",
          "type": "address"
        },
        {
          "internalType": "uint256",
          "name": "tokenId",
          "type": "uint256"
        },
        {
          "internalType": "uint256",
          "name": "category",
          "type": "uint256"
        },
        {
          "internalType": "uint256",
          "name": "royalty",
          "type": "uint256"
        },
        {
          "internalType": "uint256",
          "name": "quantity",
          "type": "uint256"
        }
      ],
      "name": "createMultiMarketItem",
      "outputs": [],
      "stateMutability": "nonpayable",
      "type": "function"
    },
    {
      "inputs": [
        {
          "internalType": "uint256",
          "name": "itemId",
          "type": "uint256"
        },
        {
          "internalType": "uint256",
          "name": "price",
          "type": "uint256"
        },
        {
          "internalType": "bool",
          "name": "useGco",
          "type": "bool"
        }
      ],
      "name": "createMarketListing",
      "outputs": [],
      "stateMutability": "nonpayable",
      "type": "function"
    },
    {
      "inputs": [
        {
          "internalType": "uint256",
          "name": "itemId",
          "type": "uint256"
        },
        {
          "internalType": "uint256",
          "name": "price",
          "type": "uint256"
        },
        {
          "internalType": "bool",
          "name": "useGco",
          "type": "bool"
        },
        {
          "internalType": "uint256",
          "name": "quantity",
          "type": "uint256"
        }
      ],
      "name": "createMultiMarketListing",
      "outputs": [],
      "stateMutability": "nonpayable",
      "type": "function"
    },
    {
      "inputs": [
        {
          "internalType": "uint256",
          "name": "itemId",
          "type": "uint256"
        }
      ],
      "name": "cancelMarketListing",
      "outputs": [],
      "stateMutability": "nonpayable",
      "type": "function"
    },
    {
      "inputs": [
        {
          "internalType": "address",
          "name": "nftContract",
          "type": "address"
        },
        {
          "internalType": "uint256",
          "name": "itemId",
          "type": "uint256"
        }
      ],
      "name": "createMarketSale",
      "outputs": [],
      "stateMutability": "nonpayable",
      "type": "function"
    },
    {
      "inputs": [],
      "name": "fetchMarketItems",
      "outputs": [
        {
          "components": [
            {
              "internalType": "uint256",
              "name": "itemId",
              "type": "uint256"
            },
            {
              "internalType": "address",
              "name": "nftContract",
              "type": "address"
            },
            {
              "internalType": "uint256",
              "name": "tokenId",
              "type": "uint256"
            },
            {
              "internalType": "uint256",
              "name": "currentPrice",
              "type": "uint256"
            },
            {
              "internalType": "enum ERC1155Market.ItemCategories",
              "name": "category",
              "type": "uint8"
            },
            {
              "internalType": "bool",
              "name": "listed",
              "type": "bool"
            },
            {
              "internalType": "address",
              "name": "creator",
              "type": "address"
            },
            {
              "internalType": "address",
              "name": "currentOwner",
              "type": "address"
            },
            {
              "internalType": "uint256",
              "name": "royalty",
              "type": "uint256"
            },
            {
              "internalType": "bool",
              "name": "useGco",
              "type": "bool"
            }
          ],
          "internalType": "struct ERC1155Market.MarketItem[]",
          "name": "",
          "type": "tuple[]"
        }
      ],
      "stateMutability": "view",
      "type": "function",
      "constant": true
    },
    {
      "inputs": [],
      "name": "fetchMyNFTs",
      "outputs": [
        {
          "components": [
            {
              "internalType": "uint256",
              "name": "itemId",
              "type": "uint256"
            },
            {
              "internalType": "address",
              "name": "nftContract",
              "type": "address"
            },
            {
              "internalType": "uint256",
              "name": "tokenId",
              "type": "uint256"
            },
            {
              "internalType": "uint256",
              "name": "currentPrice",
              "type": "uint256"
            },
            {
              "internalType": "enum ERC1155Market.ItemCategories",
              "name": "category",
              "type": "uint8"
            },
            {
              "internalType": "bool",
              "name": "listed",
              "type": "bool"
            },
            {
              "internalType": "address",
              "name": "creator",
              "type": "address"
            },
            {
              "internalType": "address",
              "name": "currentOwner",
              "type": "address"
            },
            {
              "internalType": "uint256",
              "name": "royalty",
              "type": "uint256"
            },
            {
              "internalType": "bool",
              "name": "useGco",
              "type": "bool"
            }
          ],
          "internalType": "struct ERC1155Market.MarketItem[]",
          "name": "",
          "type": "tuple[]"
        }
      ],
      "stateMutability": "view",
      "type": "function",
      "constant": true
    },
    {
      "inputs": [],
      "name": "fetchItemsCreated",
      "outputs": [
        {
          "components": [
            {
              "internalType": "uint256",
              "name": "itemId",
              "type": "uint256"
            },
            {
              "internalType": "address",
              "name": "nftContract",
              "type": "address"
            },
            {
              "internalType": "uint256",
              "name": "tokenId",
              "type": "uint256"
            },
            {
              "internalType": "uint256",
              "name": "currentPrice",
              "type": "uint256"
            },
            {
              "internalType": "enum ERC1155Market.ItemCategories",
              "name": "category",
              "type": "uint8"
            },
            {
              "internalType": "bool",
              "name": "listed",
              "type": "bool"
            },
            {
              "internalType": "address",
              "name": "creator",
              "type": "address"
            },
            {
              "internalType": "address",
              "name": "currentOwner",
              "type": "address"
            },
            {
              "internalType": "uint256",
              "name": "royalty",
              "type": "uint256"
            },
            {
              "internalType": "bool",
              "name": "useGco",
              "type": "bool"
            }
          ],
          "internalType": "struct ERC1155Market.MarketItem[]",
          "name": "",
          "type": "tuple[]"
        }
      ],
      "stateMutability": "view",
      "type": "function",
      "constant": true
    }
  ],
  "bytecode": "0x60806040526658d15e176280006006553480156200001c57600080fd5b5060405162004b7c38038062004b7c83398181016040528101906200004291906200012c565b600160008190555033600560006101000a81548173ffffffffffffffffffffffffffffffffffffffff021916908373ffffffffffffffffffffffffffffffffffffffff16021790555081600160006101000a81548173ffffffffffffffffffffffffffffffffffffffff021916908373ffffffffffffffffffffffffffffffffffffffff16021790555080600260006101000a81548173ffffffffffffffffffffffffffffffffffffffff021916908373ffffffffffffffffffffffffffffffffffffffff1602179055505050620001da565b6000815190506200012681620001c0565b92915050565b60008060408385031215620001465762000145620001bb565b5b6000620001568582860162000115565b9250506020620001698582860162000115565b9150509250929050565b600062000180826200019b565b9050919050565b6000620001948262000173565b9050919050565b600073ffffffffffffffffffffffffffffffffffffffff82169050919050565b600080fd5b620001cb8162000187565b8114620001d757600080fd5b50565b61499280620001ea6000396000f3fe608060405234801561001057600080fd5b50600436106100cf5760003560e01c8063b85a51de1161008c578063e51b5f8311610066578063e51b5f83146101fe578063e5576e7a1461021a578063f064c32e14610236578063f23a6e6114610254576100cf565b8063b85a51de14610196578063bc197c81146101b2578063c23b139e146101e2576100cf565b806301ffc9a7146100d4578063020be559146101045780630f08efe01461012057806312e855851461013e578063202e37401461015c578063a0cf6cbb1461017a575b600080fd5b6100ee60048036038101906100e991906138e1565b610284565b6040516100fb91906140de565b60405180910390f35b61011e60048036038101906101199190613968565b6102fe565b005b6101286107c4565b60405161013591906140bc565b60405180910390f35b610146610a54565b6040516101539190614234565b60405180910390f35b610164610a5e565b60405161017191906140bc565b60405180910390f35b610194600480360381019061018f919061390e565b610e0d565b005b6101b060048036038101906101ab91906139bb565b6112ba565b005b6101cc60048036038101906101c79190613606565b611913565b6040516101d991906140f9565b60405180910390f35b6101fc60048036038101906101f7919061376c565b611928565b005b610218600480360381019061021391906137ac565b61242c565b005b610234600480360381019061022f9190613827565b612848565b005b61023e612ef5565b60405161024b91906140bc565b60405180910390f35b61026e600480360381019061026991906136d5565b6132a4565b60405161027b91906140f9565b60405180910390f35b60007f4e2312e0000000000000000000000000000000000000000000000000000000007bffffffffffffffffffffffffffffffffffffffffffffffffffffffff1916827bffffffffffffffffffffffffffffffffffffffffffffffffffffffff191614806102f757506102f6826132b9565b5b9050919050565b826103096003613323565b811115801561032d5750806007600083815260200190815260200160002060000154145b61036c576040517f08c379a000000000000000000000000000000000000000000000000000000000815260040161036390614194565b60405180910390fd5b600260005414156103b2576040517f08c379a00000000000000000000000000000000000000000000000000000000081526004016103a9906141f4565b60405180910390fd5b6002600081905550600083116103fd576040517f08c379a00000000000000000000000000000000000000000000000000000000081526004016103f490614214565b60405180910390fd5b60006007600086815260200190815260200160002060020154905060006007600087815260200190815260200160002060010160009054906101000a900473ffffffffffffffffffffffffffffffffffffffff16905060018173ffffffffffffffffffffffffffffffffffffffff1662fdd58e33856040518363ffffffff1660e01b815260040161048f929190613f87565b60206040518083038186803b1580156104a757600080fd5b505afa1580156104bb573d6000803e3d6000fd5b505050506040513d601f19601f820116820180604052508101906104df919061393b565b1015610520576040517f08c379a0000000000000000000000000000000000000000000000000000000008152600401610517906141b4565b60405180910390fd5b600260009054906101000a900473ffffffffffffffffffffffffffffffffffffffff1673ffffffffffffffffffffffffffffffffffffffff166323b872dd33306006546040518463ffffffff1660e01b815260040161058193929190613dab565b602060405180830381600087803b15801561059b57600080fd5b505af11580156105af573d6000803e3d6000fd5b505050506040513d601f19601f820116820180604052508101906105d391906138b4565b50831561060e5760016007600088815260200190815260200160002060070160006101000a81548160ff02191690831515021790555061063e565b60006007600088815260200190815260200160002060070160006101000a81548160ff0219169083151502179055505b8460076000888152602001908152602001600020600301819055508073ffffffffffffffffffffffffffffffffffffffff1663f242432a33308560016040518563ffffffff1660e01b81526004016106999493929190613de2565b600060405180830381600087803b1580156106b357600080fd5b505af11580156106c7573d6000803e3d6000fd5b5050505060016007600088815260200190815260200160002060040160016101000a81548160ff0219169083151502179055506107046004613331565b831561076157818173ffffffffffffffffffffffffffffffffffffffff16877fccc5f53ee184a9b140a54ccde6f4fe6278fcdf0dfa4de965ab714965bedf53103389604051610754929190614036565b60405180910390a46107b4565b818173ffffffffffffffffffffffffffffffffffffffff16877fccc5f53ee184a9b140a54ccde6f4fe6278fcdf0dfa4de965ab714965bedf531033896040516107ab929190613fb0565b60405180910390a45b5050600160008190555050505050565b606060006107d26003613323565b90506000808267ffffffffffffffff8111156107f1576107f061465b565b5b60405190808252806020026020018201604052801561082a57816020015b6108176133cf565b81526020019060019003908161080f5790505b50905060005b83811015610a4a576000600182610847919061432c565b905060006007600083815260200190815260200160002090508060405180610140016040529081600082015481526020016001820160009054906101000a900473ffffffffffffffffffffffffffffffffffffffff1673ffffffffffffffffffffffffffffffffffffffff1673ffffffffffffffffffffffffffffffffffffffff16815260200160028201548152602001600382015481526020016004820160009054906101000a900460ff166004811115610906576109056145fd565b5b6004811115610918576109176145fd565b5b81526020016004820160019054906101000a900460ff161515151581526020016004820160029054906101000a900473ffffffffffffffffffffffffffffffffffffffff1673ffffffffffffffffffffffffffffffffffffffff1673ffffffffffffffffffffffffffffffffffffffff1681526020016005820160009054906101000a900473ffffffffffffffffffffffffffffffffffffffff1673ffffffffffffffffffffffffffffffffffffffff1673ffffffffffffffffffffffffffffffffffffffff168152602001600682015481526020016007820160009054906101000a900460ff161515151581525050848681518110610a1b57610a1a61462c565b5b6020026020010181905250600185610a33919061432c565b945050508080610a4290614556565b915050610830565b5080935050505090565b6000600654905090565b60606000610a6c6003613323565b905060008060005b83811015610b15573373ffffffffffffffffffffffffffffffffffffffff1660076000600184610aa4919061432c565b815260200190815260200160002060050160009054906101000a900473ffffffffffffffffffffffffffffffffffffffff1673ffffffffffffffffffffffffffffffffffffffff161415610b0257600183610aff919061432c565b92505b8080610b0d90614556565b915050610a74565b5060008267ffffffffffffffff811115610b3257610b3161465b565b5b604051908082528060200260200182016040528015610b6b57816020015b610b586133cf565b815260200190600190039081610b505790505b50905060005b84811015610e02573373ffffffffffffffffffffffffffffffffffffffff1660076000600184610ba1919061432c565b815260200190815260200160002060050160009054906101000a900473ffffffffffffffffffffffffffffffffffffffff1673ffffffffffffffffffffffffffffffffffffffff161415610def576000600182610bfe919061432c565b905060006007600083815260200190815260200160002090508060405180610140016040529081600082015481526020016001820160009054906101000a900473ffffffffffffffffffffffffffffffffffffffff1673ffffffffffffffffffffffffffffffffffffffff1673ffffffffffffffffffffffffffffffffffffffff16815260200160028201548152602001600382015481526020016004820160009054906101000a900460ff166004811115610cbd57610cbc6145fd565b5b6004811115610ccf57610cce6145fd565b5b81526020016004820160019054906101000a900460ff161515151581526020016004820160029054906101000a900473ffffffffffffffffffffffffffffffffffffffff1673ffffffffffffffffffffffffffffffffffffffff1673ffffffffffffffffffffffffffffffffffffffff1681526020016005820160009054906101000a900473ffffffffffffffffffffffffffffffffffffffff1673ffffffffffffffffffffffffffffffffffffffff1673ffffffffffffffffffffffffffffffffffffffff168152602001600682015481526020016007820160009054906101000a900460ff161515151581525050848681518110610dd257610dd161462c565b5b6020026020010181905250600185610dea919061432c565b945050505b8080610dfa90614556565b915050610b71565b508094505050505090565b80610e186003613323565b8111158015610e3c5750806007600083815260200190815260200160002060000154145b610e7b576040517f08c379a0000000000000000000000000000000000000000000000000000000008152600401610e7290614194565b60405180910390fd5b81600115156007600083815260200190815260200160002060040160019054906101000a900460ff16151514610ee6576040517f08c379a0000000000000000000000000000000000000000000000000000000008152600401610edd90614154565b60405180910390fd5b60026000541415610f2c576040517f08c379a0000000000000000000000000000000000000000000000000000000008152600401610f23906141f4565b60405180910390fd5b600260008190555060006007600085815260200190815260200160002060020154905060006007600086815260200190815260200160002060010160009054906101000a900473ffffffffffffffffffffffffffffffffffffffff16905060018173ffffffffffffffffffffffffffffffffffffffff1662fdd58e33856040518363ffffffff1660e01b8152600401610fc6929190613f87565b60206040518083038186803b158015610fde57600080fd5b505afa158015610ff2573d6000803e3d6000fd5b505050506040513d601f19601f82011682018060405250810190611016919061393b565b1015611057576040517f08c379a000000000000000000000000000000000000000000000000000000000815260040161104e906141d4565b60405180910390fd5b600260009054906101000a900473ffffffffffffffffffffffffffffffffffffffff1673ffffffffffffffffffffffffffffffffffffffff166323b872dd30336006546040518463ffffffff1660e01b81526004016110b893929190613dab565b602060405180830381600087803b1580156110d257600080fd5b505af11580156110e6573d6000803e3d6000fd5b505050506040513d601f19601f8201168201806040525081019061110a91906138b4565b508073ffffffffffffffffffffffffffffffffffffffff1663f242432a30338560016040518563ffffffff1660e01b815260040161114b9493929190613de2565b600060405180830381600087803b15801561116557600080fd5b505af1158015611179573d6000803e3d6000fd5b5050505060006007600087815260200190815260200160002060040160016101000a81548160ff02191690831515021790555060006007600087815260200190815260200160002060030154905060006007600088815260200190815260200160002060070160009054906101000a900460ff1690506111f96004613347565b801561125657838373ffffffffffffffffffffffffffffffffffffffff16887fda0675e100ef805b171eae6494d9c3bff0e514f13f8091659d13a1418ec37e5d3386604051611249929190614036565b60405180910390a46112a9565b838373ffffffffffffffffffffffffffffffffffffffff16887fda0675e100ef805b171eae6494d9c3bff0e514f13f8091659d13a1418ec37e5d33866040516112a0929190613fb0565b60405180910390a45b505050506001600081905550505050565b836112c56003613323565b81111580156112e95750806007600083815260200190815260200160002060000154145b611328576040517f08c379a000000000000000000000000000000000000000000000000000000000815260040161131f90614194565b60405180910390fd5b6002600054141561136e576040517f08c379a0000000000000000000000000000000000000000000000000000000008152600401611365906141f4565b60405180910390fd5b6002600081905550600084116113b9576040517f08c379a00000000000000000000000000000000000000000000000000000000081526004016113b090614214565b60405180910390fd5b60006007600087815260200190815260200160002060020154905060006007600088815260200190815260200160002060010160009054906101000a900473ffffffffffffffffffffffffffffffffffffffff169050838173ffffffffffffffffffffffffffffffffffffffff1662fdd58e33856040518363ffffffff1660e01b815260040161144a929190613f87565b60206040518083038186803b15801561146257600080fd5b505afa158015611476573d6000803e3d6000fd5b505050506040513d601f19601f8201168201806040525081019061149a919061393b565b10156114db576040517f08c379a00000000000000000000000000000000000000000000000000000000081526004016114d2906141b4565b60405180910390fd5b600260009054906101000a900473ffffffffffffffffffffffffffffffffffffffff1673ffffffffffffffffffffffffffffffffffffffff166323b872dd33308760065461152991906143b3565b6040518463ffffffff1660e01b815260040161154793929190613dab565b602060405180830381600087803b15801561156157600080fd5b505af1158015611575573d6000803e3d6000fd5b505050506040513d601f19601f8201168201806040525081019061159991906138b4565b5060008790506000818610156115b85785896115b5919061440d565b90505b6000808a90505b83831161162a57600283856115d4919061432c565b6115de9190614382565b915085600760008481526020019081526020016000206002015414156116155781905060018261160e919061440d565b9350611625565b600182611622919061432c565b92505b6115bf565b60008890505b8660076000848152602001908152602001600020600201541480156116555750600081115b156117d8573373ffffffffffffffffffffffffffffffffffffffff166007600084815260200190815260200160002060050160009054906101000a900473ffffffffffffffffffffffffffffffffffffffff1673ffffffffffffffffffffffffffffffffffffffff161480156116f25750600015156007600084815260200190815260200160002060040160019054906101000a900460ff161515145b156117c45789156117315760016007600084815260200190815260200160002060070160006101000a81548160ff021916908315150217905550611761565b60006007600084815260200190815260200160002060070160006101000a81548160ff0219169083151502179055505b8a600760008481526020019081526020016000206003018190555060016007600084815260200190815260200160002060040160016101000a81548160ff0219169083151502179055506117b56004613331565b80806117c0906144fb565b9150505b6001826117d1919061432c565b9150611630565b8573ffffffffffffffffffffffffffffffffffffffff1663f242432a33308a8d6040518563ffffffff1660e01b81526004016118179493929190613f2f565b600060405180830381600087803b15801561183157600080fd5b505af1158015611845573d6000803e3d6000fd5b5050505089156118a857868673ffffffffffffffffffffffffffffffffffffffff168d7f276cf1e6f58e7ccec967c58ed893ba2db52f96923e8a80905bfeee909a72e0f6338f8e60405161189b93929190614072565b60405180910390a46118fd565b868673ffffffffffffffffffffffffffffffffffffffff168d7f276cf1e6f58e7ccec967c58ed893ba2db52f96923e8a80905bfeee909a72e0f6338f8e6040516118f493929190613fec565b60405180910390a45b5050505050505060016000819055505050505050565b600063bc197c8160e01b905095945050505050565b806119336003613323565b81111580156119575750806007600083815260200190815260200160002060000154145b611996576040517f08c379a000000000000000000000000000000000000000000000000000000000815260040161198d90614194565b60405180910390fd5b81600115156007600083815260200190815260200160002060040160019054906101000a900460ff16151514611a01576040517f08c379a00000000000000000000000000000000000000000000000000000000081526004016119f890614154565b60405180910390fd5b60026000541415611a47576040517f08c379a0000000000000000000000000000000000000000000000000000000008152600401611a3e906141f4565b60405180910390fd5b600260008190555060006007600085815260200190815260200160002060030154905060006007600086815260200190815260200160002060020154905060006007600087815260200190815260200160002060050160009054906101000a900473ffffffffffffffffffffffffffffffffffffffff16905060006007600088815260200190815260200160002060060154905060006007600089815260200190815260200160002060040160029054906101000a900473ffffffffffffffffffffffffffffffffffffffff1690506000600760008a815260200190815260200160002060070160009054906101000a900460ff1690506000600260009054906101000a900473ffffffffffffffffffffffffffffffffffffffff1673ffffffffffffffffffffffffffffffffffffffff166370a08231336040518263ffffffff1660e01b8152600401611b9b9190613d90565b60206040518083038186803b158015611bb357600080fd5b505afa158015611bc7573d6000803e3d6000fd5b505050506040513d601f19601f82011682018060405250810190611beb919061393b565b90508115611ca557600260009054906101000a900473ffffffffffffffffffffffffffffffffffffffff1673ffffffffffffffffffffffffffffffffffffffff166370a08231336040518263ffffffff1660e01b8152600401611c4e9190613d90565b60206040518083038186803b158015611c6657600080fd5b505afa158015611c7a573d6000803e3d6000fd5b505050506040513d601f19601f82011682018060405250810190611c9e919061393b565b9050611d53565b600160009054906101000a900473ffffffffffffffffffffffffffffffffffffffff1673ffffffffffffffffffffffffffffffffffffffff166370a08231336040518263ffffffff1660e01b8152600401611d009190613d90565b60206040518083038186803b158015611d1857600080fd5b505afa158015611d2c573d6000803e3d6000fd5b505050506040513d601f19601f82011682018060405250810190611d50919061393b565b90505b86811015611d96576040517f08c379a0000000000000000000000000000000000000000000000000000000008152600401611d8d90614114565b60405180910390fd5b600087111561225f576000611dc960fa611dbb6127108b6133a390919063ffffffff16565b6133b990919063ffffffff16565b90506000611dfe6064611df088858d611de2919061440d565b6133b990919063ffffffff16565b6133a390919063ffffffff16565b9050831561203357600260009054906101000a900473ffffffffffffffffffffffffffffffffffffffff1673ffffffffffffffffffffffffffffffffffffffff166323b872dd33308c6040518463ffffffff1660e01b8152600401611e6593929190613dab565b602060405180830381600087803b158015611e7f57600080fd5b505af1158015611e93573d6000803e3d6000fd5b505050506040513d601f19601f82011682018060405250810190611eb791906138b4565b50600260009054906101000a900473ffffffffffffffffffffffffffffffffffffffff1673ffffffffffffffffffffffffffffffffffffffff1663a9059cbb86836040518363ffffffff1660e01b8152600401611f15929190613f87565b602060405180830381600087803b158015611f2f57600080fd5b505af1158015611f43573d6000803e3d6000fd5b505050506040513d601f19601f82011682018060405250810190611f6791906138b4565b50600260009054906101000a900473ffffffffffffffffffffffffffffffffffffffff1673ffffffffffffffffffffffffffffffffffffffff1663a9059cbb8883858d611fb4919061440d565b611fbe919061440d565b6040518363ffffffff1660e01b8152600401611fdb929190613f87565b602060405180830381600087803b158015611ff557600080fd5b505af1158015612009573d6000803e3d6000fd5b505050506040513d601f19601f8201168201806040525081019061202d91906138b4565b5061225c565b600160009054906101000a900473ffffffffffffffffffffffffffffffffffffffff1673ffffffffffffffffffffffffffffffffffffffff166323b872dd33308c6040518463ffffffff1660e01b815260040161209293929190613dab565b602060405180830381600087803b1580156120ac57600080fd5b505af11580156120c0573d6000803e3d6000fd5b505050506040513d601f19601f820116820180604052508101906120e491906138b4565b50600160009054906101000a900473ffffffffffffffffffffffffffffffffffffffff1673ffffffffffffffffffffffffffffffffffffffff1663a9059cbb86836040518363ffffffff1660e01b8152600401612142929190613f87565b602060405180830381600087803b15801561215c57600080fd5b505af1158015612170573d6000803e3d6000fd5b505050506040513d601f19601f8201168201806040525081019061219491906138b4565b50600160009054906101000a900473ffffffffffffffffffffffffffffffffffffffff1673ffffffffffffffffffffffffffffffffffffffff1663a9059cbb8883858d6121e1919061440d565b6121eb919061440d565b6040518363ffffffff1660e01b8152600401612208929190613f87565b602060405180830381600087803b15801561222257600080fd5b505af1158015612236573d6000803e3d6000fd5b505050506040513d601f19601f8201168201806040525081019061225a91906138b4565b505b50505b8a73ffffffffffffffffffffffffffffffffffffffff1663f242432a30338960016040518563ffffffff1660e01b815260040161229f9493929190613de2565b600060405180830381600087803b1580156122b957600080fd5b505af11580156122cd573d6000803e3d6000fd5b505050506000600760008c815260200190815260200160002060040160016101000a81548160ff02191690831515021790555033600760008c815260200190815260200160002060050160006101000a81548173ffffffffffffffffffffffffffffffffffffffff021916908373ffffffffffffffffffffffffffffffffffffffff16021790555061235f6004613347565b81156123c057858b73ffffffffffffffffffffffffffffffffffffffff168b7f96b74af4bff411ec4390f5aab309e301b812855ab74090d4207fb595779d3b9388338c8a6040516123b39493929190613ed7565b60405180910390a4612417565b858b73ffffffffffffffffffffffffffffffffffffffff168b7f96b74af4bff411ec4390f5aab309e301b812855ab74090d4207fb595779d3b9388338c8a60405161240e9493929190613e7f565b60405180910390a45b50505050505050600160008190555050505050565b848460018273ffffffffffffffffffffffffffffffffffffffff1662fdd58e33846040518363ffffffff1660e01b815260040161246a929190613f87565b60206040518083038186803b15801561248257600080fd5b505afa158015612496573d6000803e3d6000fd5b505050506040513d601f19601f820116820180604052508101906124ba919061393b565b10156124fb576040517f08c379a00000000000000000000000000000000000000000000000000000000081526004016124f290614174565b60405180910390fd5b60026000541415612541576040517f08c379a0000000000000000000000000000000000000000000000000000000008152600401612538906141f4565b60405180910390fd5b600260008190555060006125556003613323565b905060006125636003613323565b905060005b858110156127d15761257a6003613331565b6125846003613323565b91506040518061014001604052808381526020018b73ffffffffffffffffffffffffffffffffffffffff1681526020018a8152602001600081526020018960048111156125d4576125d36145fd565b5b60048111156125e6576125e56145fd565b5b81526020016000151581526020013373ffffffffffffffffffffffffffffffffffffffff1681526020013373ffffffffffffffffffffffffffffffffffffffff16815260200188815260200160011515815250600760008481526020019081526020016000206000820151816000015560208201518160010160006101000a81548173ffffffffffffffffffffffffffffffffffffffff021916908373ffffffffffffffffffffffffffffffffffffffff160217905550604082015181600201556060820151816003015560808201518160040160006101000a81548160ff021916908360048111156126dc576126db6145fd565b5b021790555060a08201518160040160016101000a81548160ff02191690831515021790555060c08201518160040160026101000a81548173ffffffffffffffffffffffffffffffffffffffff021916908373ffffffffffffffffffffffffffffffffffffffff16021790555060e08201518160050160006101000a81548173ffffffffffffffffffffffffffffffffffffffff021916908373ffffffffffffffffffffffffffffffffffffffff16021790555061010082015181600601556101208201518160070160006101000a81548160ff02191690831515021790555090505080806127c990614556565b915050612568565b50878973ffffffffffffffffffffffffffffffffffffffff166001846127f7919061432c565b7fce6956b70d17a5a9b596ad8873cafc400255d82fc6c7267df66eb0d088bbb8e26000338b8b60405161282d9493929190613e3a565b60405180910390a45050600160008190555050505050505050565b858560018273ffffffffffffffffffffffffffffffffffffffff1662fdd58e33846040518363ffffffff1660e01b8152600401612886929190613f87565b60206040518083038186803b15801561289e57600080fd5b505afa1580156128b2573d6000803e3d6000fd5b505050506040513d601f19601f820116820180604052508101906128d6919061393b565b1015612917576040517f08c379a000000000000000000000000000000000000000000000000000000000815260040161290e90614174565b60405180910390fd5b6002600054141561295d576040517f08c379a0000000000000000000000000000000000000000000000000000000008152600401612954906141f4565b60405180910390fd5b6002600081905550600084116129a8576040517f08c379a000000000000000000000000000000000000000000000000000000000815260040161299f90614214565b60405180910390fd5b60018873ffffffffffffffffffffffffffffffffffffffff1662fdd58e338a6040518363ffffffff1660e01b81526004016129e4929190613f87565b60206040518083038186803b1580156129fc57600080fd5b505afa158015612a10573d6000803e3d6000fd5b505050506040513d601f19601f82011682018060405250810190612a34919061393b565b1015612a75576040517f08c379a0000000000000000000000000000000000000000000000000000000008152600401612a6c906141b4565b60405180910390fd5b612a7f6003613331565b6000612a8b6003613323565b9050600260009054906101000a900473ffffffffffffffffffffffffffffffffffffffff1673ffffffffffffffffffffffffffffffffffffffff166323b872dd33306006546040518463ffffffff1660e01b8152600401612aee93929190613dab565b602060405180830381600087803b158015612b0857600080fd5b505af1158015612b1c573d6000803e3d6000fd5b505050506040513d601f19601f82011682018060405250810190612b4091906138b4565b506040518061014001604052808281526020018a73ffffffffffffffffffffffffffffffffffffffff168152602001898152602001868152602001886004811115612b8e57612b8d6145fd565b5b6004811115612ba057612b9f6145fd565b5b81526020016000151581526020013373ffffffffffffffffffffffffffffffffffffffff1681526020013373ffffffffffffffffffffffffffffffffffffffff16815260200187815260200160011515815250600760008381526020019081526020016000206000820151816000015560208201518160010160006101000a81548173ffffffffffffffffffffffffffffffffffffffff021916908373ffffffffffffffffffffffffffffffffffffffff160217905550604082015181600201556060820151816003015560808201518160040160006101000a81548160ff02191690836004811115612c9657612c956145fd565b5b021790555060a08201518160040160016101000a81548160ff02191690831515021790555060c08201518160040160026101000a81548173ffffffffffffffffffffffffffffffffffffffff021916908373ffffffffffffffffffffffffffffffffffffffff16021790555060e08201518160050160006101000a81548173ffffffffffffffffffffffffffffffffffffffff021916908373ffffffffffffffffffffffffffffffffffffffff16021790555061010082015181600601556101208201518160070160006101000a81548160ff0219169083151502179055509050508873ffffffffffffffffffffffffffffffffffffffff1663f242432a33308b60016040518563ffffffff1660e01b8152600401612db89493929190613de2565b600060405180830381600087803b158015612dd257600080fd5b505af1158015612de6573d6000803e3d6000fd5b505050508315612e245760016007600083815260200190815260200160002060070160006101000a81548160ff021916908315150217905550612e54565b60006007600083815260200190815260200160002060070160006101000a81548160ff0219169083151502179055505b60016007600083815260200190815260200160002060040160016101000a81548160ff021916908315150217905550612e8d6004613331565b878973ffffffffffffffffffffffffffffffffffffffff16827f2ad024d53a0dc50c130967f8d4941927ee087ea31394cebb2b9599d3706c9c006000338b604051612eda93929190613dab565b60405180910390a45060016000819055505050505050505050565b60606000612f036003613323565b905060008060005b83811015612fac573373ffffffffffffffffffffffffffffffffffffffff1660076000600184612f3b919061432c565b815260200190815260200160002060040160029054906101000a900473ffffffffffffffffffffffffffffffffffffffff1673ffffffffffffffffffffffffffffffffffffffff161415612f9957600183612f96919061432c565b92505b8080612fa490614556565b915050612f0b565b5060008267ffffffffffffffff811115612fc957612fc861465b565b5b60405190808252806020026020018201604052801561300257816020015b612fef6133cf565b815260200190600190039081612fe75790505b50905060005b84811015613299573373ffffffffffffffffffffffffffffffffffffffff1660076000600184613038919061432c565b815260200190815260200160002060040160029054906101000a900473ffffffffffffffffffffffffffffffffffffffff1673ffffffffffffffffffffffffffffffffffffffff161415613286576000600182613095919061432c565b905060006007600083815260200190815260200160002090508060405180610140016040529081600082015481526020016001820160009054906101000a900473ffffffffffffffffffffffffffffffffffffffff1673ffffffffffffffffffffffffffffffffffffffff1673ffffffffffffffffffffffffffffffffffffffff16815260200160028201548152602001600382015481526020016004820160009054906101000a900460ff166004811115613154576131536145fd565b5b6004811115613166576131656145fd565b5b81526020016004820160019054906101000a900460ff161515151581526020016004820160029054906101000a900473ffffffffffffffffffffffffffffffffffffffff1673ffffffffffffffffffffffffffffffffffffffff1673ffffffffffffffffffffffffffffffffffffffff1681526020016005820160009054906101000a900473ffffffffffffffffffffffffffffffffffffffff1673ffffffffffffffffffffffffffffffffffffffff1673ffffffffffffffffffffffffffffffffffffffff168152602001600682015481526020016007820160009054906101000a900460ff1615151515815250508486815181106132695761326861462c565b5b6020026020010181905250600185613281919061432c565b945050505b808061329190614556565b915050613008565b508094505050505090565b600063f23a6e6160e01b905095945050505050565b60007f01ffc9a7000000000000000000000000000000000000000000000000000000007bffffffffffffffffffffffffffffffffffffffffffffffffffffffff1916827bffffffffffffffffffffffffffffffffffffffffffffffffffffffff1916149050919050565b600081600001549050919050565b6001816000016000828254019250508190555050565b60008160000154905060008111613393576040517f08c379a000000000000000000000000000000000000000000000000000000000815260040161338a90614134565b60405180910390fd5b6001810382600001819055505050565b600081836133b19190614382565b905092915050565b600081836133c791906143b3565b905092915050565b60405180610140016040528060008152602001600073ffffffffffffffffffffffffffffffffffffffff168152602001600081526020016000815260200160006004811115613421576134206145fd565b5b8152602001600015158152602001600073ffffffffffffffffffffffffffffffffffffffff168152602001600073ffffffffffffffffffffffffffffffffffffffff168152602001600081526020016000151581525090565b600061348d61348884614274565b61424f565b905080838252602082019050828560208602820111156134b0576134af61468f565b5b60005b858110156134e057816134c688826135dc565b8452602084019350602083019250506001810190506134b3565b5050509392505050565b60006134fd6134f8846142a0565b61424f565b90508281526020810184848401111561351957613518614694565b5b6135248482856144ec565b509392505050565b60008135905061353b81614900565b92915050565b600082601f8301126135565761355561468a565b5b813561356684826020860161347a565b91505092915050565b60008135905061357e81614917565b92915050565b60008151905061359381614917565b92915050565b6000813590506135a88161492e565b92915050565b600082601f8301126135c3576135c261468a565b5b81356135d38482602086016134ea565b91505092915050565b6000813590506135eb81614945565b92915050565b60008151905061360081614945565b92915050565b600080600080600060a086880312156136225761362161469e565b5b60006136308882890161352c565b95505060206136418882890161352c565b945050604086013567ffffffffffffffff81111561366257613661614699565b5b61366e88828901613541565b935050606086013567ffffffffffffffff81111561368f5761368e614699565b5b61369b88828901613541565b925050608086013567ffffffffffffffff8111156136bc576136bb614699565b5b6136c8888289016135ae565b9150509295509295909350565b600080600080600060a086880312156136f1576136f061469e565b5b60006136ff8882890161352c565b95505060206137108882890161352c565b9450506040613721888289016135dc565b9350506060613732888289016135dc565b925050608086013567ffffffffffffffff81111561375357613752614699565b5b61375f888289016135ae565b9150509295509295909350565b600080604083850312156137835761378261469e565b5b60006137918582860161352c565b92505060206137a2858286016135dc565b9150509250929050565b600080600080600060a086880312156137c8576137c761469e565b5b60006137d68882890161352c565b95505060206137e7888289016135dc565b94505060406137f8888289016135dc565b9350506060613809888289016135dc565b925050608061381a888289016135dc565b9150509295509295909350565b60008060008060008060c087890312156138445761384361469e565b5b600061385289828a0161352c565b965050602061386389828a016135dc565b955050604061387489828a016135dc565b945050606061388589828a016135dc565b935050608061389689828a016135dc565b92505060a06138a789828a0161356f565b9150509295509295509295565b6000602082840312156138ca576138c961469e565b5b60006138d884828501613584565b91505092915050565b6000602082840312156138f7576138f661469e565b5b600061390584828501613599565b91505092915050565b6000602082840312156139245761392361469e565b5b6000613932848285016135dc565b91505092915050565b6000602082840312156139515761395061469e565b5b600061395f848285016135f1565b91505092915050565b6000806000606084860312156139815761398061469e565b5b600061398f868287016135dc565b93505060206139a0868287016135dc565b92505060406139b18682870161356f565b9150509250925092565b600080600080608085870312156139d5576139d461469e565b5b60006139e3878288016135dc565b94505060206139f4878288016135dc565b9350506040613a058782880161356f565b9250506060613a16878288016135dc565b91505092959194509250565b6000613a2e8383613ca6565b6101408301905092915050565b613a4481614441565b82525050565b613a5381614441565b82525050565b6000613a64826142e1565b613a6e81856142f9565b9350613a79836142d1565b8060005b83811015613aaa578151613a918882613a22565b9750613a9c836142ec565b925050600181019050613a7d565b5085935050505092915050565b613ac081614453565b82525050565b613acf81614453565b82525050565b613ade8161445f565b82525050565b613aed816144c8565b82525050565b613afc816144da565b82525050565b6000613b0f60038361431b565b9150613b1a826146b4565b602082019050919050565b6000613b32602b8361431b565b9150613b3d826146dd565b604082019050919050565b6000613b55601b8361431b565b9150613b608261472c565b602082019050919050565b6000613b7860038361431b565b9150613b8382614755565b602082019050919050565b6000613b9b601b8361431b565b9150613ba68261477e565b602082019050919050565b6000613bbe60228361431b565b9150613bc9826147a7565b604082019050919050565b6000613be160138361431b565b9150613bec826147f6565b602082019050919050565b6000613c0460008361430a565b9150613c0f8261481f565b600082019050919050565b6000613c2760178361431b565b9150613c3282614822565b602082019050919050565b6000613c4a60218361431b565b9150613c558261484b565b604082019050919050565b6000613c6d601f8361431b565b9150613c788261489a565b602082019050919050565b6000613c90601c8361431b565b9150613c9b826148c3565b602082019050919050565b61014082016000820151613cbd6000850182613d72565b506020820151613cd06020850182613a3b565b506040820151613ce36040850182613d72565b506060820151613cf66060850182613d72565b506080820151613d096080850182613ae4565b5060a0820151613d1c60a0850182613ab7565b5060c0820151613d2f60c0850182613a3b565b5060e0820151613d4260e0850182613a3b565b50610100820151613d57610100850182613d72565b50610120820151613d6c610120850182613ab7565b50505050565b613d7b816144be565b82525050565b613d8a816144be565b82525050565b6000602082019050613da56000830184613a4a565b92915050565b6000606082019050613dc06000830186613a4a565b613dcd6020830185613a4a565b613dda6040830184613d81565b949350505050565b600060a082019050613df76000830187613a4a565b613e046020830186613a4a565b613e116040830185613d81565b613e1e6060830184613af3565b8181036080830152613e2f81613bf7565b905095945050505050565b6000608082019050613e4f6000830187613a4a565b613e5c6020830186613a4a565b613e696040830185613d81565b613e766060830184613d81565b95945050505050565b600060a082019050613e946000830187613a4a565b613ea16020830186613a4a565b613eae6040830185613d81565b613ebb6060830184613d81565b8181036080830152613ecc81613b02565b905095945050505050565b600060a082019050613eec6000830187613a4a565b613ef96020830186613a4a565b613f066040830185613d81565b613f136060830184613d81565b8181036080830152613f2481613b6b565b905095945050505050565b600060a082019050613f446000830187613a4a565b613f516020830186613a4a565b613f5e6040830185613d81565b613f6b6060830184613d81565b8181036080830152613f7c81613bf7565b905095945050505050565b6000604082019050613f9c6000830185613a4a565b613fa96020830184613d81565b9392505050565b6000606082019050613fc56000830185613a4a565b613fd26020830184613d81565b8181036040830152613fe381613b02565b90509392505050565b60006080820190506140016000830186613a4a565b61400e6020830185613d81565b818103604083015261401f81613b02565b905061402e6060830184613d81565b949350505050565b600060608201905061404b6000830185613a4a565b6140586020830184613d81565b818103604083015261406981613b6b565b90509392505050565b60006080820190506140876000830186613a4a565b6140946020830185613d81565b81810360408301526140a581613b6b565b90506140b46060830184613d81565b949350505050565b600060208201905081810360008301526140d68184613a59565b905092915050565b60006020820190506140f36000830184613ac6565b92915050565b600060208201905061410e6000830184613ad5565b92915050565b6000602082019050818103600083015261412d81613b25565b9050919050565b6000602082019050818103600083015261414d81613b48565b9050919050565b6000602082019050818103600083015261416d81613b8e565b9050919050565b6000602082019050818103600083015261418d81613bb1565b9050919050565b600060208201905081810360008301526141ad81613bd4565b9050919050565b600060208201905081810360008301526141cd81613c1a565b9050919050565b600060208201905081810360008301526141ed81613c3d565b9050919050565b6000602082019050818103600083015261420d81613c60565b9050919050565b6000602082019050818103600083015261422d81613c83565b9050919050565b60006020820190506142496000830184613d81565b92915050565b600061425961426a565b90506142658282614525565b919050565b6000604051905090565b600067ffffffffffffffff82111561428f5761428e61465b565b5b602082029050602081019050919050565b600067ffffffffffffffff8211156142bb576142ba61465b565b5b6142c4826146a3565b9050602081019050919050565b6000819050602082019050919050565b600081519050919050565b6000602082019050919050565b600082825260208201905092915050565b600082825260208201905092915050565b600082825260208201905092915050565b6000614337826144be565b9150614342836144be565b9250827fffffffffffffffffffffffffffffffffffffffffffffffffffffffffffffffff038211156143775761437661459f565b5b828201905092915050565b600061438d826144be565b9150614398836144be565b9250826143a8576143a76145ce565b5b828204905092915050565b60006143be826144be565b91506143c9836144be565b9250817fffffffffffffffffffffffffffffffffffffffffffffffffffffffffffffffff04831182151516156144025761440161459f565b5b828202905092915050565b6000614418826144be565b9150614423836144be565b9250828210156144365761443561459f565b5b828203905092915050565b600061444c8261449e565b9050919050565b60008115159050919050565b60007fffffffff0000000000000000000000000000000000000000000000000000000082169050919050565b6000819050614499826148ec565b919050565b600073ffffffffffffffffffffffffffffffffffffffff82169050919050565b6000819050919050565b60006144d38261448b565b9050919050565b60006144e5826144be565b9050919050565b82818337600083830152505050565b6000614506826144be565b9150600082141561451a5761451961459f565b5b600182039050919050565b61452e826146a3565b810181811067ffffffffffffffff8211171561454d5761454c61465b565b5b80604052505050565b6000614561826144be565b91507fffffffffffffffffffffffffffffffffffffffffffffffffffffffffffffffff8214156145945761459361459f565b5b600182019050919050565b7f4e487b7100000000000000000000000000000000000000000000000000000000600052601160045260246000fd5b7f4e487b7100000000000000000000000000000000000000000000000000000000600052601260045260246000fd5b7f4e487b7100000000000000000000000000000000000000000000000000000000600052602160045260246000fd5b7f4e487b7100000000000000000000000000000000000000000000000000000000600052603260045260246000fd5b7f4e487b7100000000000000000000000000000000000000000000000000000000600052604160045260246000fd5b600080fd5b600080fd5b600080fd5b600080fd5b600080fd5b6000601f19601f8301169050919050565b7f4d434f0000000000000000000000000000000000000000000000000000000000600082015250565b7f496e73756666696369656e742066756e647320746f20636f6d706c657465207460008201527f6865207075726368617365000000000000000000000000000000000000000000602082015250565b7f436f756e7465723a2064656372656d656e74206f766572666c6f770000000000600082015250565b7f47434f0000000000000000000000000000000000000000000000000000000000600082015250565b7f4974656d206e6f742063757272656e746c7920666f722073616c650000000000600082015250565b7f6c6973746572206973206e6f74206f776e6572206f66204e465420616e796d6f60008201527f7265000000000000000000000000000000000000000000000000000000000000602082015250565b7f636f756c64206e6f742066696e64206974656d00000000000000000000000000600082015250565b50565b7f6f6e6c79206f776e65722063616e206c697374204e4654000000000000000000600082015250565b7f6f6e6c79206f776e65722063616e2063616e63656c204e4654206c697374696e60008201527f6700000000000000000000000000000000000000000000000000000000000000602082015250565b7f5265656e7472616e637947756172643a207265656e7472616e742063616c6c00600082015250565b7f5072696365206d757374206265206174206c6561737420312077656900000000600082015250565b600581106148fd576148fc6145fd565b5b50565b61490981614441565b811461491457600080fd5b50565b61492081614453565b811461492b57600080fd5b50565b6149378161445f565b811461494257600080fd5b50565b61494e816144be565b811461495957600080fd5b5056fea2646970667358221220f53037748e883ad418beb766739c2c351e4e9349cde6cf3c1cdbb6544cf0ca0064736f6c63430008060033",
  "immutableReferences": {},
  "source": "// SPDX-License-Identifier: MIT OR Apache-2.0\r\npragma solidity ^0.8.6;\r\n\r\nimport \"../node_modules/@openzeppelin/contracts/token/ERC1155/utils/ERC1155Holder.sol\";\r\nimport \"../node_modules/@openzeppelin/contracts/token/ERC1155/ERC1155.sol\";\r\nimport \"../node_modules/@openzeppelin/contracts/utils/Counters.sol\";\r\nimport \"../node_modules/@openzeppelin/contracts/token/ERC20/IERC20.sol\";\r\nimport \"../node_modules/@openzeppelin/contracts/security/ReentrancyGuard.sol\";\r\nimport \"../node_modules/@openzeppelin/contracts/utils/math/SafeMath.sol\";\r\n\r\n/**\r\n * @title NFTMarket\r\n * @dev NFT Marketplace Smart Contract for ownership\r\n * TODO Make Reselling Functionality\r\n */\r\n\r\ncontract ERC1155Market is ReentrancyGuard,ERC1155Holder{\r\n\r\n    //ERC 20 Transfer\r\n    IERC20 private mcoToken;\r\n    IERC20 private gcoToken;\r\n\r\n    event TransferSent(address _senderAddress, address _destAddress, uint256 _amount);\r\n\r\n    //Marketplace Code\r\n    using Counters for Counters.Counter;\r\n    Counters.Counter private _itemIds;\r\n    Counters.Counter private _itemsListed;\r\n\r\n    using SafeMath for uint256;\r\n    address owner;\r\n    uint256 listingPrice = 0.025 ether;\r\n    enum ItemCategories{ART, MUSIC, COLLECTIBLE, SKILL, OTHER} \r\n    /*string[] collections;\r\n    mapping(string=>uint256) collectionNameToID;*/\r\n\r\n    constructor(IERC20 _mcoToken, IERC20 _gcoToken) {\r\n        owner = address(msg.sender);//Tentatively change to beneficiary\r\n        /*collections.push(\"Independent\");\r\n        collectionNameToID[\"Independent\"] = 1;//collections is -1 from the id*/\r\n        mcoToken = _mcoToken;\r\n        gcoToken = _gcoToken;\r\n    }\r\n    \r\n    function getListingPrice() public view returns (uint256) {\r\n    return listingPrice;\r\n  }\r\n\r\n\r\n    struct MarketItem {\r\n        uint itemId;//Make it a one-to-one mapping with nftContract and tokenID\r\n        address nftContract;\r\n        uint256 tokenId;\r\n        uint256 currentPrice;\r\n        ItemCategories category;\r\n        bool listed;\r\n        address creator;\r\n        address currentOwner;\r\n        uint royalty;\r\n        bool useGco;\r\n    }\r\n\r\n    mapping(uint256 => MarketItem) private idToMarketItem;\r\n\r\n    event MarketItemCreated (\r\n        uint indexed itemId,\r\n        address indexed nftContract,\r\n        uint256 indexed tokenId,\r\n        address seller,\r\n        address owner,\r\n        uint royalty\r\n    );\r\n\r\n    event MarketItemMultiCreated (\r\n      uint indexed itemId,\r\n      address indexed nftContract,\r\n      uint256 indexed tokenId,\r\n      address seller,\r\n      address owner,\r\n      uint royalty,\r\n      uint quantity\r\n  );\r\n\r\n    event MarketListingCreated (\r\n        uint indexed itemId,\r\n        address indexed nftContract,\r\n        uint256 indexed tokenId,\r\n        address lister,\r\n        uint256 price,\r\n        string transactionToken\r\n    );\r\n\r\n    event MarketMultiListingCreated (\r\n      uint indexed itemId,\r\n      address indexed nftContract,\r\n      uint256 indexed tokenId,\r\n      address lister,\r\n      uint256 price,\r\n      string transactionToken,\r\n      uint quantity\r\n  );\r\n\r\n    event MarketListingCancelled (\r\n        uint indexed itemId,\r\n        address indexed nftContract,\r\n        uint256 indexed tokenId,\r\n        address lister,\r\n        uint256 price,\r\n        string transactionToken\r\n    );\r\n\r\n\r\n    event MarketSaleCreated (\r\n          uint indexed itemId,\r\n          address indexed nftContract,\r\n          uint256 indexed tokenId,\r\n          address seller,\r\n          address buyer,\r\n          uint256 price,\r\n          uint royalty,\r\n          string transactionToken\r\n      );\r\n\r\n\r\n//we waant to create a modifier to check if the caller is the item owner\r\n    modifier onlyItemOwner (address tokenAddress, uint256 tokenId) {\r\n        require(IERC1155(tokenAddress).balanceOf(msg.sender,tokenId) >=1 , \"lister is not owner of NFT anymore\" );\r\n        _;\r\n    }\r\n\r\n    //modifier which checks if the item actuall does exist\r\n    modifier itemExists(uint256 id){\r\n        require(id <= _itemIds.current() && idToMarketItem[id].itemId == id, \"could not find item\");\r\n        _;\r\n    }\r\n\r\n    modifier isForSale(uint256 id) {\r\n        require(idToMarketItem[id].listed == true, \"Item not currently for sale\");\r\n        _;\r\n    }\r\n\r\n    /* Places an item for sale on the marketplace */\r\n  /*function getCollectionId(string collectionName) public view returns(uint256){\r\n    return (collectionNameToID[collectionName]);\r\n  }*/\r\n\r\n/*\r\n  Create Market Item--\r\n  Function: Creates new NFT struct and makes 1-1 mapping to an itemId in the market;\r\n  -- Considerations: \r\n    - Keep it like this where every single minted nft in blockchain is a struct item in contract too\r\n    - Only enter the market contract once want to bring up for listing?-- Downside, need to interface with respective nft contracts\r\n */\r\nfunction createMarketItem(address nftContract, uint256 tokenId, uint category, uint royalty,uint price, bool useGco) onlyItemOwner(nftContract, tokenId) public nonReentrant {\r\n    require(price > 0, \"Price must be at least 1 wei\");  \r\n    require(IERC1155(nftContract).balanceOf(msg.sender,tokenId) >=1 , \"only owner can list NFT\" );\r\n\r\n    _itemIds.increment();\r\n    uint256 itemId = _itemIds.current();\r\n\r\n    //Creator transfers listing price in merchcoin and ownership to the smart contract\r\n    gcoToken.transferFrom(address(msg.sender),address(this),listingPrice);\r\n\r\n    //One-to-one mapping itemId to item\r\n    idToMarketItem[itemId] =  MarketItem(itemId, nftContract, tokenId, price,ItemCategories(category), false, address(msg.sender),address(msg.sender),royalty,true);\r\n\r\n    IERC1155(nftContract).safeTransferFrom(address(msg.sender), address(this), tokenId,1,\"\");\r\n\r\n\r\n    if(useGco){\r\n      idToMarketItem[itemId].useGco = true;\r\n    }else{\r\n      idToMarketItem[itemId].useGco = false;\r\n    }\r\n    idToMarketItem[itemId].listed = true;\r\n    _itemsListed.increment();\r\n    \r\n    //Log creation of Market Item\r\n    emit MarketItemCreated(itemId,nftContract,tokenId,address(0),msg.sender,royalty);\r\n  }\r\n\r\n\r\n  function createMultiMarketItem(address nftContract, uint256 tokenId, uint category, uint royalty, uint quantity) onlyItemOwner(nftContract, tokenId) public nonReentrant {\r\n    uint firstItemId = _itemIds.current();\r\n    uint256 itemId = _itemIds.current();\r\n    for (uint i = 0; i < quantity; i++) {\r\n        _itemIds.increment();\r\n        itemId = _itemIds.current();\r\n        idToMarketItem[itemId] =  MarketItem(itemId, nftContract, tokenId,0,ItemCategories(category), false, address(msg.sender),address(msg.sender),royalty,true);\r\n    }\r\n    //Log creation of Market Item\r\n    emit MarketItemMultiCreated(firstItemId+1,nftContract,tokenId,address(0),msg.sender,royalty,quantity);\r\n  }\r\n\r\n  /*\r\n  Create Market Listing--\r\n  Function: Transfers ownership of NFT to market and pay listing price\r\n  -- Considerations: \r\n    - Should listing price be fixed amount or a percentage\r\n */\r\n\r\n  function createMarketListing(uint256 itemId, uint256 price, bool useGco) public itemExists(itemId) nonReentrant {\r\n    require(price > 0, \"Price must be at least 1 wei\");\r\n    uint256 tokenId = idToMarketItem[itemId].tokenId;\r\n    address nftContract = idToMarketItem[itemId].nftContract;\r\n    require(IERC1155(nftContract).balanceOf(msg.sender,tokenId) >=1 , \"only owner can list NFT\" );\r\n    //Creator transfers listing price in merchcoin and ownership to the smart contract\r\n    gcoToken.transferFrom(address(msg.sender),address(this),listingPrice);\r\n    if(useGco){\r\n      idToMarketItem[itemId].useGco = true;\r\n    }else{\r\n      idToMarketItem[itemId].useGco = false;\r\n    }\r\n    //Change Current listed price\r\n    idToMarketItem[itemId].currentPrice = price;\r\n\r\n    //Transfer nft ownership to marketplace contract\r\n    IERC1155(nftContract).safeTransferFrom(address(msg.sender), address(this), tokenId,1,\"\");\r\n\r\n    //Change the status to listed\r\n    idToMarketItem[itemId].listed = true;\r\n    _itemsListed.increment();\r\n    //Log creation of Market Listing\r\n    if(useGco){\r\n      emit MarketListingCreated(itemId,nftContract,tokenId,msg.sender,price,'GCO');\r\n    }else{\r\n      emit MarketListingCreated(itemId,nftContract,tokenId,msg.sender,price,'MCO');\r\n    }\r\n  }\r\n\r\n  function createMultiMarketListing(uint256 itemId, uint256 price, bool useGco, uint quantity) public itemExists(itemId) nonReentrant {\r\n    // Might just be for erc1155, meaning that we could either search by tokenId or make sure that its the first item id and iterate from there\r\n    require(price > 0, \"Price must be at least 1 wei\");\r\n    uint256 tokenId = idToMarketItem[itemId].tokenId;\r\n    address nftContract = idToMarketItem[itemId].nftContract;\r\n    require(IERC1155(nftContract).balanceOf(msg.sender,tokenId) >=quantity , \"only owner can list NFT\" );\r\n    //Creator transfers listing price in merchcoin and ownership to the smart contract\r\n    gcoToken.transferFrom(address(msg.sender),address(this),listingPrice*quantity);\r\n\r\n    //In case the itemId passed in isn't the first one on the marketplace\r\n    uint upperBound = itemId;\r\n    uint lowerBound = 0;\r\n    if(quantity<upperBound) lowerBound = itemId - quantity;\r\n    uint mid = 0;\r\n    uint firstItemId = itemId;\r\n    while(lowerBound<=upperBound){\r\n      mid = (upperBound + lowerBound)/2;\r\n      if(idToMarketItem[mid].tokenId==tokenId){\r\n        firstItemId = mid;\r\n        upperBound = mid-1;\r\n      }else lowerBound = mid+1;\r\n    }\r\n\r\n    uint cnt = quantity;\r\n    while(idToMarketItem[firstItemId].tokenId == tokenId && cnt>0){\r\n      //Only Items under msgsender ownership is listed\r\n     if(idToMarketItem[firstItemId].currentOwner == address(msg.sender) && idToMarketItem[firstItemId].listed == false){\r\n      if(useGco){\r\n        idToMarketItem[firstItemId].useGco = true;\r\n      }else{\r\n        idToMarketItem[firstItemId].useGco = false;\r\n      }\r\n      //Change Current listed price\r\n      idToMarketItem[firstItemId].currentPrice = price;  \r\n      idToMarketItem[firstItemId].listed = true;\r\n       //Change the status to listed\r\n      _itemsListed.increment();\r\n      cnt--;\r\n     }\r\n      firstItemId+=1;\r\n    }\r\n    //Transfer nft ownership to marketplace contract\r\n    IERC1155(nftContract).safeTransferFrom(address(msg.sender), address(this), tokenId,quantity,\"\");\r\n\r\n   \r\n    //Log creation of Market Listing\r\n    if(useGco){\r\n      emit MarketMultiListingCreated(itemId,nftContract,tokenId,msg.sender,price,'GCO', quantity);\r\n    }else{\r\n      emit MarketMultiListingCreated(itemId,nftContract,tokenId,msg.sender,price,'MCO', quantity);\r\n    }\r\n  }\r\n\r\n  //Cancel market listing\r\n  function cancelMarketListing(uint256 itemId) public itemExists(itemId) isForSale(itemId) nonReentrant {\r\n    uint256 tokenId = idToMarketItem[itemId].tokenId;\r\n    address nftContract = idToMarketItem[itemId].nftContract;\r\n    require(IERC1155(nftContract).balanceOf(msg.sender,tokenId) >=1 , \"only owner can cancel NFT listing\" );\r\n    //Creator transfers listing price in merchcoin and ownership to the smart contract\r\n    gcoToken.transferFrom(address(this),address(msg.sender),listingPrice);\r\n\r\n    //Transfer nft ownership to marketplace contract\r\n    IERC1155(nftContract).safeTransferFrom(address(this), address(msg.sender), tokenId,1,\"\");\r\n\r\n    //Change the status to listed\r\n    idToMarketItem[itemId].listed = false;\r\n    uint256 price = idToMarketItem[itemId].currentPrice; \r\n    bool useGco = idToMarketItem[itemId].useGco;\r\n    _itemsListed.decrement();\r\n    //Log creation of Market Listing\r\n    if(useGco){\r\n      emit MarketListingCancelled(itemId,nftContract,tokenId,msg.sender,price,'GCO');\r\n    }else{\r\n      emit MarketListingCancelled(itemId,nftContract,tokenId,msg.sender,price,'MCO');\r\n    }\r\n  }\r\n\r\n\r\n\r\n  /*\r\n  Create Market Sale--\r\n  Function: \r\n  When someone buys the item, \r\n  1) transfers item price to the seller\r\n  2) transfers ownership to buyer,\r\n  3) transfers listing price to the admin beneficiary\r\n */\r\n\r\n   function createMarketSale(address nftContract, uint256 itemId) itemExists(itemId) isForSale(itemId) public nonReentrant {\r\n    uint256 price = idToMarketItem[itemId].currentPrice;\r\n    uint tokenId = idToMarketItem[itemId].tokenId;\r\n    address lister = idToMarketItem[itemId].currentOwner;\r\n    uint royalty = idToMarketItem[itemId].royalty;\r\n    address creator = idToMarketItem[itemId].creator;\r\n    bool useGco = idToMarketItem[itemId].useGco;\r\n\r\n    //Balance\r\n    uint256 erc20balance = gcoToken.balanceOf(address(msg.sender)); \r\n    if(useGco)erc20balance = gcoToken.balanceOf(address(msg.sender)); \r\n    else erc20balance = mcoToken.balanceOf(address(msg.sender)); \r\n    \r\n    require(erc20balance >= price, \"Insufficient funds to complete the purchase\");\r\n\r\n    if (price > 0) {\r\n      uint256 fee = (price.div(10000)).mul(250);\r\n      uint creatorRoyalty = (price-fee).mul(royalty).div(100);\r\n      \r\n      if(useGco){\r\n        gcoToken.transferFrom(address(msg.sender), address(this), price);\r\n\r\n        // Contract pays seller\r\n        gcoToken.transfer(address(creator), creatorRoyalty);\r\n        gcoToken.transfer(address(lister), price - fee - creatorRoyalty);\r\n      }else{\r\n          // Buyer pays contract\r\n        mcoToken.transferFrom(address(msg.sender), address(this), price);\r\n\r\n        // Contract pays seller\r\n        mcoToken.transfer(address(creator), creatorRoyalty);\r\n        mcoToken.transfer(address(lister), price - fee - creatorRoyalty);\r\n      }\r\n      \r\n    }\r\n\r\n    // Transfer ownership from contract to buyer\r\n    IERC1155(nftContract).safeTransferFrom(address(this), address(msg.sender), tokenId, 1, \"\");\r\n\r\n    // Increase the sale index for the saleHistory array of the item\r\n    idToMarketItem[itemId].listed = false;\r\n    idToMarketItem[itemId].currentOwner = address(msg.sender);\r\n    _itemsListed.decrement();\r\n\r\n    if(useGco){\r\n      emit MarketSaleCreated(itemId, nftContract, tokenId, lister, msg.sender, price, royalty,'GCO');\r\n    }else{\r\n      emit MarketSaleCreated(itemId, nftContract, tokenId, lister, msg.sender, price, royalty,'MCO');\r\n    }\r\n}\r\n\r\n  /* \r\n  Returns all market items \r\n  --Classification of listed and unlisted will be handled in frontend\r\n  */\r\n  function fetchMarketItems() public view returns (MarketItem[] memory) {\r\n    uint itemCount = _itemIds.current();\r\n    uint currentIndex = 0;\r\n\r\n    MarketItem[] memory items = new MarketItem[](itemCount);\r\n    for (uint i = 0; i < itemCount; i++) {\r\n        uint currentId = i + 1;\r\n        MarketItem storage currentItem = idToMarketItem[currentId];\r\n        items[currentIndex] = currentItem;\r\n        currentIndex += 1;\r\n    }\r\n    return items;\r\n  }\r\n\r\n  /* \r\n  fetchMyNFTs\r\n  -- Returns only items that a user has purchased \r\n  */\r\n  function fetchMyNFTs() public view returns (MarketItem[] memory) {\r\n    uint totalItemCount = _itemIds.current();\r\n    uint itemCount = 0;\r\n    uint currentIndex = 0;\r\n\r\n    for (uint i = 0; i < totalItemCount; i++) {\r\n      if (idToMarketItem[i + 1].currentOwner == msg.sender) {\r\n        itemCount += 1;\r\n      }\r\n    }\r\n\r\n    MarketItem[] memory items = new MarketItem[](itemCount);\r\n    for (uint i = 0; i < totalItemCount; i++) {\r\n      if (idToMarketItem[i + 1].currentOwner == msg.sender) {\r\n        uint currentId = i + 1;\r\n        MarketItem storage currentItem = idToMarketItem[currentId];\r\n        items[currentIndex] = currentItem;\r\n        currentIndex += 1;\r\n      }\r\n    }\r\n    return items;\r\n  }\r\n\r\n\r\n  /* Returns items a user has created */\r\n  function fetchItemsCreated() public view returns (MarketItem[] memory) {\r\n    uint totalItemCount = _itemIds.current();\r\n    uint itemCount = 0;\r\n    uint currentIndex = 0;\r\n\r\n    for (uint i = 0; i < totalItemCount; i++) {\r\n      if (idToMarketItem[i + 1].creator == msg.sender) {\r\n        itemCount += 1;\r\n      }\r\n    }\r\n\r\n    MarketItem[] memory items = new MarketItem[](itemCount);\r\n    for (uint i = 0; i < totalItemCount; i++) {\r\n      if (idToMarketItem[i + 1].creator == msg.sender) {\r\n        uint currentId = i + 1;\r\n        MarketItem storage currentItem = idToMarketItem[currentId];\r\n        items[currentIndex] = currentItem;\r\n        currentIndex += 1;\r\n      }\r\n    }\r\n    return items;\r\n  }\r\n\r\n}",
  "sourcePath": "C:\\Users\\sutanto4\\Desktop\\IBlockSp22\\sp22_NFT_marketplace\\truffle\\contracts\\ERC1155Market.sol",
  "compiler": {
    "name": "solc",
    "version": "0.8.6+commit.11564f7e.Emscripten.clang"
  },
  "schemaVersion": "3.4.3",
  "updatedAt": "2022-04-22T08:31:07.155Z",
  "networkType": "ethereum",
  "devdoc": {
    "details": "NFT Marketplace Smart Contract for ownership TODO Make Reselling Functionality",
    "kind": "dev",
    "methods": {
      "supportsInterface(bytes4)": {
        "details": "See {IERC165-supportsInterface}."
      }
    },
    "title": "NFTMarket",
    "version": 1
  },
  "userdoc": {
    "kind": "user",
    "methods": {},
    "version": 1
  }
}