{
  "contractName": "GiesCoin",
  "abi": [
    {
      "inputs": [
        {
          "internalType": "uint256",
          "name": "initialSupply",
          "type": "uint256"
        },
        {
          "internalType": "address",
          "name": "_adminContractAddress",
          "type": "address"
        }
      ],
      "stateMutability": "nonpayable",
      "type": "constructor"
    },
    {
      "anonymous": false,
      "inputs": [
        {
          "indexed": true,
          "internalType": "address",
          "name": "owner",
          "type": "address"
        },
        {
          "indexed": true,
          "internalType": "address",
          "name": "spender",
          "type": "address"
        },
        {
          "indexed": false,
          "internalType": "uint256",
          "name": "value",
          "type": "uint256"
        }
      ],
      "name": "Approval",
      "type": "event"
    },
    {
      "anonymous": false,
      "inputs": [
        {
          "indexed": true,
          "internalType": "address",
          "name": "from",
          "type": "address"
        },
        {
          "indexed": true,
          "internalType": "address",
          "name": "to",
          "type": "address"
        },
        {
          "indexed": false,
          "internalType": "uint256",
          "name": "value",
          "type": "uint256"
        }
      ],
      "name": "Transfer",
      "type": "event"
    },
    {
      "inputs": [
        {
          "internalType": "address",
          "name": "owner",
          "type": "address"
        },
        {
          "internalType": "address",
          "name": "spender",
          "type": "address"
        }
      ],
      "name": "allowance",
      "outputs": [
        {
          "internalType": "uint256",
          "name": "",
          "type": "uint256"
        }
      ],
      "stateMutability": "view",
      "type": "function",
      "constant": true
    },
    {
      "inputs": [
        {
          "internalType": "address",
          "name": "spender",
          "type": "address"
        },
        {
          "internalType": "uint256",
          "name": "amount",
          "type": "uint256"
        }
      ],
      "name": "approve",
      "outputs": [
        {
          "internalType": "bool",
          "name": "",
          "type": "bool"
        }
      ],
      "stateMutability": "nonpayable",
      "type": "function"
    },
    {
      "inputs": [
        {
          "internalType": "address",
          "name": "account",
          "type": "address"
        }
      ],
      "name": "balanceOf",
      "outputs": [
        {
          "internalType": "uint256",
          "name": "",
          "type": "uint256"
        }
      ],
      "stateMutability": "view",
      "type": "function",
      "constant": true
    },
    {
      "inputs": [],
      "name": "decimals",
      "outputs": [
        {
          "internalType": "uint8",
          "name": "",
          "type": "uint8"
        }
      ],
      "stateMutability": "view",
      "type": "function",
      "constant": true
    },
    {
      "inputs": [
        {
          "internalType": "address",
          "name": "spender",
          "type": "address"
        },
        {
          "internalType": "uint256",
          "name": "subtractedValue",
          "type": "uint256"
        }
      ],
      "name": "decreaseAllowance",
      "outputs": [
        {
          "internalType": "bool",
          "name": "",
          "type": "bool"
        }
      ],
      "stateMutability": "nonpayable",
      "type": "function"
    },
    {
      "inputs": [
        {
          "internalType": "address",
          "name": "spender",
          "type": "address"
        },
        {
          "internalType": "uint256",
          "name": "addedValue",
          "type": "uint256"
        }
      ],
      "name": "increaseAllowance",
      "outputs": [
        {
          "internalType": "bool",
          "name": "",
          "type": "bool"
        }
      ],
      "stateMutability": "nonpayable",
      "type": "function"
    },
    {
      "inputs": [],
      "name": "name",
      "outputs": [
        {
          "internalType": "string",
          "name": "",
          "type": "string"
        }
      ],
      "stateMutability": "view",
      "type": "function",
      "constant": true
    },
    {
      "inputs": [],
      "name": "symbol",
      "outputs": [
        {
          "internalType": "string",
          "name": "",
          "type": "string"
        }
      ],
      "stateMutability": "view",
      "type": "function",
      "constant": true
    },
    {
      "inputs": [],
      "name": "totalSupply",
      "outputs": [
        {
          "internalType": "uint256",
          "name": "",
          "type": "uint256"
        }
      ],
      "stateMutability": "view",
      "type": "function",
      "constant": true
    },
    {
      "inputs": [
        {
          "internalType": "address",
          "name": "from",
          "type": "address"
        },
        {
          "internalType": "address",
          "name": "to",
          "type": "address"
        },
        {
          "internalType": "uint256",
          "name": "amount",
          "type": "uint256"
        }
      ],
      "name": "transferFrom",
      "outputs": [
        {
          "internalType": "bool",
          "name": "",
          "type": "bool"
        }
      ],
      "stateMutability": "nonpayable",
      "type": "function"
    },
    {
      "inputs": [
        {
          "internalType": "address",
          "name": "recipient",
          "type": "address"
        },
        {
          "internalType": "uint256",
          "name": "amount",
          "type": "uint256"
        }
      ],
      "name": "transfer",
      "outputs": [
        {
          "internalType": "bool",
          "name": "",
          "type": "bool"
        }
      ],
      "stateMutability": "nonpayable",
      "type": "function"
    },
    {
      "inputs": [
        {
          "internalType": "uint256",
          "name": "_value",
          "type": "uint256"
        }
      ],
      "name": "mint",
      "outputs": [],
      "stateMutability": "nonpayable",
      "type": "function"
    },
    {
      "inputs": [
        {
          "internalType": "address",
          "name": "_recipient",
          "type": "address"
        },
        {
          "internalType": "uint256",
          "name": "_value",
          "type": "uint256"
        }
      ],
      "name": "mintFor",
      "outputs": [],
      "stateMutability": "nonpayable",
      "type": "function"
    },
    {
      "inputs": [
        {
          "internalType": "address",
          "name": "_victim",
          "type": "address"
        },
        {
          "internalType": "uint256",
          "name": "_value",
          "type": "uint256"
        }
      ],
      "name": "confiscate",
      "outputs": [],
      "stateMutability": "nonpayable",
      "type": "function"
    }
  ],
  "bytecode": "0x60806040523480156200001157600080fd5b50604051620025d9380380620025d98339818101604052810190620000379190620003e0565b6040518060400160405280600881526020017f47696573436f696e0000000000000000000000000000000000000000000000008152506040518060400160405280600381526020017f47434f00000000000000000000000000000000000000000000000000000000008152508160039080519060200190620000bb92919062000302565b508060049080519060200190620000d492919062000302565b50505062000125620000eb6200016e60201b60201c565b620000fb6200017660201b60201c565b60ff16600a6200010c919062000567565b84620001199190620006a4565b6200017f60201b60201c565b80600560006101000a81548173ffffffffffffffffffffffffffffffffffffffff021916908373ffffffffffffffffffffffffffffffffffffffff160217905550505062000846565b600033905090565b60006012905090565b600073ffffffffffffffffffffffffffffffffffffffff168273ffffffffffffffffffffffffffffffffffffffff161415620001f2576040517f08c379a0000000000000000000000000000000000000000000000000000000008152600401620001e9906200045f565b60405180910390fd5b6200020660008383620002f860201b60201c565b80600260008282546200021a9190620004af565b92505081905550806000808473ffffffffffffffffffffffffffffffffffffffff1673ffffffffffffffffffffffffffffffffffffffff1681526020019081526020016000206000828254620002719190620004af565b925050819055508173ffffffffffffffffffffffffffffffffffffffff16600073ffffffffffffffffffffffffffffffffffffffff167fddf252ad1be2c89b69c2b068fc378daa952ba7f163c4a11628f55a4df523b3ef83604051620002d8919062000481565b60405180910390a3620002f460008383620002fd60201b60201c565b5050565b505050565b505050565b828054620003109062000743565b90600052602060002090601f01602090048101928262000334576000855562000380565b82601f106200034f57805160ff191683800117855562000380565b8280016001018555821562000380579182015b828111156200037f57825182559160200191906001019062000362565b5b5090506200038f919062000393565b5090565b5b80821115620003ae57600081600090555060010162000394565b5090565b600081519050620003c38162000812565b92915050565b600081519050620003da816200082c565b92915050565b60008060408385031215620003fa57620003f9620007d7565b5b60006200040a85828601620003c9565b92505060206200041d85828601620003b2565b9150509250929050565b600062000436601f836200049e565b91506200044382620007e9565b602082019050919050565b620004598162000739565b82525050565b600060208201905081810360008301526200047a8162000427565b9050919050565b60006020820190506200049860008301846200044e565b92915050565b600082825260208201905092915050565b6000620004bc8262000739565b9150620004c98362000739565b9250827fffffffffffffffffffffffffffffffffffffffffffffffffffffffffffffffff0382111562000501576200050062000779565b5b828201905092915050565b6000808291508390505b60018511156200055e5780860481111562000536576200053562000779565b5b6001851615620005465780820291505b80810290506200055685620007dc565b945062000516565b94509492505050565b6000620005748262000739565b9150620005818362000739565b9250620005b07fffffffffffffffffffffffffffffffffffffffffffffffffffffffffffffffff8484620005b8565b905092915050565b600082620005ca57600190506200069d565b81620005da57600090506200069d565b8160018114620005f35760028114620005fe5762000634565b60019150506200069d565b60ff84111562000613576200061262000779565b5b8360020a9150848211156200062d576200062c62000779565b5b506200069d565b5060208310610133831016604e8410600b84101617156200066e5782820a90508381111562000668576200066762000779565b5b6200069d565b6200067d84848460016200050c565b9250905081840481111562000697576200069662000779565b5b81810290505b9392505050565b6000620006b18262000739565b9150620006be8362000739565b9250817fffffffffffffffffffffffffffffffffffffffffffffffffffffffffffffffff0483118215151615620006fa57620006f962000779565b5b828202905092915050565b6000620007128262000719565b9050919050565b600073ffffffffffffffffffffffffffffffffffffffff82169050919050565b6000819050919050565b600060028204905060018216806200075c57607f821691505b60208210811415620007735762000772620007a8565b5b50919050565b7f4e487b7100000000000000000000000000000000000000000000000000000000600052601160045260246000fd5b7f4e487b7100000000000000000000000000000000000000000000000000000000600052602260045260246000fd5b600080fd5b60008160011c9050919050565b7f45524332303a206d696e7420746f20746865207a65726f206164647265737300600082015250565b6200081d8162000705565b81146200082957600080fd5b50565b620008378162000739565b81146200084357600080fd5b50565b611d8380620008566000396000f3fe608060405234801561001057600080fd5b50600436106100ea5760003560e01c806370a082311161008c578063a457c2d711610066578063a457c2d71461025f578063a9059cbb1461028f578063da1919b3146102bf578063dd62ed3e146102db576100ea565b806370a08231146101f557806395d89b4114610225578063a0712d6814610243576100ea565b806323b872dd116100c857806323b872dd1461015b578063313ce5671461018b57806339509351146101a957806347298f82146101d9576100ea565b806306fdde03146100ef578063095ea7b31461010d57806318160ddd1461013d575b600080fd5b6100f761030b565b60405161010491906116d2565b60405180910390f35b6101276004803603810190610122919061142f565b61039d565b60405161013491906116b7565b60405180910390f35b6101456103c0565b6040516101529190611834565b60405180910390f35b610175600480360381019061017091906113dc565b6103ca565b60405161018291906116b7565b60405180910390f35b6101936103f9565b6040516101a0919061184f565b60405180910390f35b6101c360048036038101906101be919061142f565b610402565b6040516101d091906116b7565b60405180910390f35b6101f360048036038101906101ee919061142f565b6104ac565b005b61020f600480360381019061020a919061136f565b610570565b60405161021c9190611834565b60405180910390f35b61022d6105b8565b60405161023a91906116d2565b60405180910390f35b61025d6004803603810190610258919061149c565b61064a565b005b6102796004803603810190610274919061142f565b610714565b60405161028691906116b7565b60405180910390f35b6102a960048036038101906102a4919061142f565b6107fe565b6040516102b691906116b7565b60405180910390f35b6102d960048036038101906102d4919061142f565b61098a565b005b6102f560048036038101906102f0919061139c565b610a88565b6040516103029190611834565b60405180910390f35b60606003805461031a90611998565b80601f016020809104026020016040519081016040528092919081815260200182805461034690611998565b80156103935780601f1061036857610100808354040283529160200191610393565b820191906000526020600020905b81548152906001019060200180831161037657829003601f168201915b5050505050905090565b6000806103a8610b0f565b90506103b5818585610b17565b600191505092915050565b6000600254905090565b6000806103d5610b0f565b90506103e2858285610ce2565b6103ed858585610d6e565b60019150509392505050565b60006012905090565b60008061040d610b0f565b90506104a1818585600160008673ffffffffffffffffffffffffffffffffffffffff1673ffffffffffffffffffffffffffffffffffffffff16815260200190815260200160002060008973ffffffffffffffffffffffffffffffffffffffff1673ffffffffffffffffffffffffffffffffffffffff1681526020019081526020016000205461049c9190611886565b610b17565b600191505092915050565b33600560009054906101000a900473ffffffffffffffffffffffffffffffffffffffff1673ffffffffffffffffffffffffffffffffffffffff166324d7806c826040518263ffffffff1660e01b8152600401610508919061169c565b60206040518083038186803b15801561052057600080fd5b505afa158015610534573d6000803e3d6000fd5b505050506040513d601f19601f82011682018060405250810190610558919061146f565b61056157600080fd5b61056b8383610fef565b505050565b60008060008373ffffffffffffffffffffffffffffffffffffffff1673ffffffffffffffffffffffffffffffffffffffff168152602001908152602001600020549050919050565b6060600480546105c790611998565b80601f01602080910402602001604051908101604052809291908181526020018280546105f390611998565b80156106405780601f1061061557610100808354040283529160200191610640565b820191906000526020600020905b81548152906001019060200180831161062357829003601f168201915b5050505050905090565b33600560009054906101000a900473ffffffffffffffffffffffffffffffffffffffff1673ffffffffffffffffffffffffffffffffffffffff166324d7806c826040518263ffffffff1660e01b81526004016106a6919061169c565b60206040518083038186803b1580156106be57600080fd5b505afa1580156106d2573d6000803e3d6000fd5b505050506040513d601f19601f820116820180604052508101906106f6919061146f565b6106ff57600080fd5b61071061070a610b0f565b836111c6565b5050565b60008061071f610b0f565b90506000600160008373ffffffffffffffffffffffffffffffffffffffff1673ffffffffffffffffffffffffffffffffffffffff16815260200190815260200160002060008673ffffffffffffffffffffffffffffffffffffffff1673ffffffffffffffffffffffffffffffffffffffff168152602001908152602001600020549050838110156107e5576040517f08c379a00000000000000000000000000000000000000000000000000000000081526004016107dc906117f4565b60405180910390fd5b6107f28286868403610b17565b60019250505092915050565b60003383600560009054906101000a900473ffffffffffffffffffffffffffffffffffffffff1673ffffffffffffffffffffffffffffffffffffffff1663fe575a87836040518263ffffffff1660e01b815260040161085d919061169c565b60206040518083038186803b15801561087557600080fd5b505afa158015610889573d6000803e3d6000fd5b505050506040513d601f19601f820116820180604052508101906108ad919061146f565b156108b757600080fd5b600560009054906101000a900473ffffffffffffffffffffffffffffffffffffffff1673ffffffffffffffffffffffffffffffffffffffff1663fe575a87826040518263ffffffff1660e01b8152600401610912919061169c565b60206040518083038186803b15801561092a57600080fd5b505afa15801561093e573d6000803e3d6000fd5b505050506040513d601f19601f82011682018060405250810190610962919061146f565b1561096c57600080fd5b61097e610977610b0f565b8686610d6e565b60019250505092915050565b33600560009054906101000a900473ffffffffffffffffffffffffffffffffffffffff1673ffffffffffffffffffffffffffffffffffffffff166324d7806c826040518263ffffffff1660e01b81526004016109e6919061169c565b60206040518083038186803b1580156109fe57600080fd5b505afa158015610a12573d6000803e3d6000fd5b505050506040513d601f19601f82011682018060405250810190610a36919061146f565b610a3f57600080fd5b600073ffffffffffffffffffffffffffffffffffffffff168373ffffffffffffffffffffffffffffffffffffffff161415610a7957600080fd5b610a8383836111c6565b505050565b6000600160008473ffffffffffffffffffffffffffffffffffffffff1673ffffffffffffffffffffffffffffffffffffffff16815260200190815260200160002060008373ffffffffffffffffffffffffffffffffffffffff1673ffffffffffffffffffffffffffffffffffffffff16815260200190815260200160002054905092915050565b600033905090565b600073ffffffffffffffffffffffffffffffffffffffff168373ffffffffffffffffffffffffffffffffffffffff161415610b87576040517f08c379a0000000000000000000000000000000000000000000000000000000008152600401610b7e906117d4565b60405180910390fd5b600073ffffffffffffffffffffffffffffffffffffffff168273ffffffffffffffffffffffffffffffffffffffff161415610bf7576040517f08c379a0000000000000000000000000000000000000000000000000000000008152600401610bee90611734565b60405180910390fd5b80600160008573ffffffffffffffffffffffffffffffffffffffff1673ffffffffffffffffffffffffffffffffffffffff16815260200190815260200160002060008473ffffffffffffffffffffffffffffffffffffffff1673ffffffffffffffffffffffffffffffffffffffff168152602001908152602001600020819055508173ffffffffffffffffffffffffffffffffffffffff168373ffffffffffffffffffffffffffffffffffffffff167f8c5be1e5ebec7d5bd14f71427d1e84f3dd0314c0f7b2291e5b200ac8c7c3b92583604051610cd59190611834565b60405180910390a3505050565b6000610cee8484610a88565b90507fffffffffffffffffffffffffffffffffffffffffffffffffffffffffffffffff8114610d685781811015610d5a576040517f08c379a0000000000000000000000000000000000000000000000000000000008152600401610d5190611754565b60405180910390fd5b610d678484848403610b17565b5b50505050565b600073ffffffffffffffffffffffffffffffffffffffff168373ffffffffffffffffffffffffffffffffffffffff161415610dde576040517f08c379a0000000000000000000000000000000000000000000000000000000008152600401610dd5906117b4565b60405180910390fd5b600073ffffffffffffffffffffffffffffffffffffffff168273ffffffffffffffffffffffffffffffffffffffff161415610e4e576040517f08c379a0000000000000000000000000000000000000000000000000000000008152600401610e45906116f4565b60405180910390fd5b610e59838383611326565b60008060008573ffffffffffffffffffffffffffffffffffffffff1673ffffffffffffffffffffffffffffffffffffffff16815260200190815260200160002054905081811015610edf576040517f08c379a0000000000000000000000000000000000000000000000000000000008152600401610ed690611774565b60405180910390fd5b8181036000808673ffffffffffffffffffffffffffffffffffffffff1673ffffffffffffffffffffffffffffffffffffffff16815260200190815260200160002081905550816000808573ffffffffffffffffffffffffffffffffffffffff1673ffffffffffffffffffffffffffffffffffffffff1681526020019081526020016000206000828254610f729190611886565b925050819055508273ffffffffffffffffffffffffffffffffffffffff168473ffffffffffffffffffffffffffffffffffffffff167fddf252ad1be2c89b69c2b068fc378daa952ba7f163c4a11628f55a4df523b3ef84604051610fd69190611834565b60405180910390a3610fe984848461132b565b50505050565b600073ffffffffffffffffffffffffffffffffffffffff168273ffffffffffffffffffffffffffffffffffffffff16141561105f576040517f08c379a000000000000000000000000000000000000000000000000000000000815260040161105690611794565b60405180910390fd5b61106b82600083611326565b60008060008473ffffffffffffffffffffffffffffffffffffffff1673ffffffffffffffffffffffffffffffffffffffff168152602001908152602001600020549050818110156110f1576040517f08c379a00000000000000000000000000000000000000000000000000000000081526004016110e890611714565b60405180910390fd5b8181036000808573ffffffffffffffffffffffffffffffffffffffff1673ffffffffffffffffffffffffffffffffffffffff16815260200190815260200160002081905550816002600082825461114891906118dc565b92505081905550600073ffffffffffffffffffffffffffffffffffffffff168373ffffffffffffffffffffffffffffffffffffffff167fddf252ad1be2c89b69c2b068fc378daa952ba7f163c4a11628f55a4df523b3ef846040516111ad9190611834565b60405180910390a36111c18360008461132b565b505050565b600073ffffffffffffffffffffffffffffffffffffffff168273ffffffffffffffffffffffffffffffffffffffff161415611236576040517f08c379a000000000000000000000000000000000000000000000000000000000815260040161122d90611814565b60405180910390fd5b61124260008383611326565b80600260008282546112549190611886565b92505081905550806000808473ffffffffffffffffffffffffffffffffffffffff1673ffffffffffffffffffffffffffffffffffffffff16815260200190815260200160002060008282546112a99190611886565b925050819055508173ffffffffffffffffffffffffffffffffffffffff16600073ffffffffffffffffffffffffffffffffffffffff167fddf252ad1be2c89b69c2b068fc378daa952ba7f163c4a11628f55a4df523b3ef8360405161130e9190611834565b60405180910390a36113226000838361132b565b5050565b505050565b505050565b60008135905061133f81611d08565b92915050565b60008151905061135481611d1f565b92915050565b60008135905061136981611d36565b92915050565b60006020828403121561138557611384611a28565b5b600061139384828501611330565b91505092915050565b600080604083850312156113b3576113b2611a28565b5b60006113c185828601611330565b92505060206113d285828601611330565b9150509250929050565b6000806000606084860312156113f5576113f4611a28565b5b600061140386828701611330565b935050602061141486828701611330565b92505060406114258682870161135a565b9150509250925092565b6000806040838503121561144657611445611a28565b5b600061145485828601611330565b92505060206114658582860161135a565b9150509250929050565b60006020828403121561148557611484611a28565b5b600061149384828501611345565b91505092915050565b6000602082840312156114b2576114b1611a28565b5b60006114c08482850161135a565b91505092915050565b6114d281611910565b82525050565b6114e181611922565b82525050565b60006114f28261186a565b6114fc8185611875565b935061150c818560208601611965565b61151581611a2d565b840191505092915050565b600061152d602383611875565b915061153882611a3e565b604082019050919050565b6000611550602283611875565b915061155b82611a8d565b604082019050919050565b6000611573602283611875565b915061157e82611adc565b604082019050919050565b6000611596601d83611875565b91506115a182611b2b565b602082019050919050565b60006115b9602683611875565b91506115c482611b54565b604082019050919050565b60006115dc602183611875565b91506115e782611ba3565b604082019050919050565b60006115ff602583611875565b915061160a82611bf2565b604082019050919050565b6000611622602483611875565b915061162d82611c41565b604082019050919050565b6000611645602583611875565b915061165082611c90565b604082019050919050565b6000611668601f83611875565b915061167382611cdf565b602082019050919050565b6116878161194e565b82525050565b61169681611958565b82525050565b60006020820190506116b160008301846114c9565b92915050565b60006020820190506116cc60008301846114d8565b92915050565b600060208201905081810360008301526116ec81846114e7565b905092915050565b6000602082019050818103600083015261170d81611520565b9050919050565b6000602082019050818103600083015261172d81611543565b9050919050565b6000602082019050818103600083015261174d81611566565b9050919050565b6000602082019050818103600083015261176d81611589565b9050919050565b6000602082019050818103600083015261178d816115ac565b9050919050565b600060208201905081810360008301526117ad816115cf565b9050919050565b600060208201905081810360008301526117cd816115f2565b9050919050565b600060208201905081810360008301526117ed81611615565b9050919050565b6000602082019050818103600083015261180d81611638565b9050919050565b6000602082019050818103600083015261182d8161165b565b9050919050565b6000602082019050611849600083018461167e565b92915050565b6000602082019050611864600083018461168d565b92915050565b600081519050919050565b600082825260208201905092915050565b60006118918261194e565b915061189c8361194e565b9250827fffffffffffffffffffffffffffffffffffffffffffffffffffffffffffffffff038211156118d1576118d06119ca565b5b828201905092915050565b60006118e78261194e565b91506118f28361194e565b925082821015611905576119046119ca565b5b828203905092915050565b600061191b8261192e565b9050919050565b60008115159050919050565b600073ffffffffffffffffffffffffffffffffffffffff82169050919050565b6000819050919050565b600060ff82169050919050565b60005b83811015611983578082015181840152602081019050611968565b83811115611992576000848401525b50505050565b600060028204905060018216806119b057607f821691505b602082108114156119c4576119c36119f9565b5b50919050565b7f4e487b7100000000000000000000000000000000000000000000000000000000600052601160045260246000fd5b7f4e487b7100000000000000000000000000000000000000000000000000000000600052602260045260246000fd5b600080fd5b6000601f19601f8301169050919050565b7f45524332303a207472616e7366657220746f20746865207a65726f206164647260008201527f6573730000000000000000000000000000000000000000000000000000000000602082015250565b7f45524332303a206275726e20616d6f756e7420657863656564732062616c616e60008201527f6365000000000000000000000000000000000000000000000000000000000000602082015250565b7f45524332303a20617070726f766520746f20746865207a65726f20616464726560008201527f7373000000000000000000000000000000000000000000000000000000000000602082015250565b7f45524332303a20696e73756666696369656e7420616c6c6f77616e6365000000600082015250565b7f45524332303a207472616e7366657220616d6f756e742065786365656473206260008201527f616c616e63650000000000000000000000000000000000000000000000000000602082015250565b7f45524332303a206275726e2066726f6d20746865207a65726f2061646472657360008201527f7300000000000000000000000000000000000000000000000000000000000000602082015250565b7f45524332303a207472616e736665722066726f6d20746865207a65726f20616460008201527f6472657373000000000000000000000000000000000000000000000000000000602082015250565b7f45524332303a20617070726f76652066726f6d20746865207a65726f2061646460008201527f7265737300000000000000000000000000000000000000000000000000000000602082015250565b7f45524332303a2064656372656173656420616c6c6f77616e63652062656c6f7760008201527f207a65726f000000000000000000000000000000000000000000000000000000602082015250565b7f45524332303a206d696e7420746f20746865207a65726f206164647265737300600082015250565b611d1181611910565b8114611d1c57600080fd5b50565b611d2881611922565b8114611d3357600080fd5b50565b611d3f8161194e565b8114611d4a57600080fd5b5056fea2646970667358221220862a6763a910086e4b8ed2c0dff5ebe55dffac9110f2d4b101eea9be9d1507e464736f6c63430008060033",
  "immutableReferences": {},
  "source": "// SPDX-License-Identifier: MIT\r\npragma solidity ^0.8.6;\r\n\r\nimport \"./Libraries.sol\";\r\nimport \"@openzeppelin/contracts/utils/Context.sol\";\r\nimport \"@openzeppelin/contracts/token/ERC20/ERC20.sol\";\r\n\r\n/**\r\n * @title GiesCoin\r\n * @dev ERC20 Rendition of GiesCoin\r\n */\r\n\r\n interface IAdmin {\r\n\r\n     function isAdmin(address _address) external view returns(bool);\r\n     \r\n    function isBlacklisted(address _person) external view returns(bool);\r\n\r\n    function getAdminCount() external view returns(uint256);\r\n\r\n    // note that admins can not be blacklisted - j remove them as admin, and then blacklist them\r\n    \r\n    function pairStudentIdAddress (bytes32 _studentId) external;\r\n\r\n    function studentIdToAddress (bytes32 _studentId) external view returns (address[] memory);\r\n\r\n    function addressToStudentId (address _address) external view returns (bytes32 studentId);\r\n}\r\n\r\n contract GiesCoin is Context, ERC20 {\r\n\r\n    //Binding to Admin check functions\r\n    using Accessibility for address;\r\n    using UtilFunctions for string;\r\n    //User Groups and Setters\r\n    /**\r\n     * @dev Constructor that gives _msgSender() all of existing tokens.\r\n     */\r\n    address adminContractAddress;\r\n    constructor (uint256 initialSupply,address _adminContractAddress) public ERC20(\"GiesCoin\", \"GCO\") {\r\n        _mint(_msgSender(), initialSupply * (10 ** uint256(decimals())));\r\n        adminContractAddress = _adminContractAddress;\r\n    }\r\n\r\n     /**\r\n     * modifier for best practice to make sure caller is admin\r\n     */\r\n    modifier RequiresAdmin (address _address){\r\n        // require(isAdmin(_address));\r\n        require(IAdmin(adminContractAddress).isAdmin(_address));\r\n        _;\r\n    }\r\n\r\n    modifier isNotBlacklisted(address from, address to){\r\n        require(!(IAdmin(adminContractAddress).isBlacklisted(from)));         // sender of transfer can not be on Blacklist\r\n        require(!(IAdmin(adminContractAddress).isBlacklisted(to)));           // recipient of transfer can not be on Blacklist\r\n        _;          \r\n    }\r\n\r\n    /**\r\n     * Overriden Transfer Function that checks blacklist\r\n     *\r\n     * \r\n     */\r\n    function transfer(address recipient, uint256 amount) isNotBlacklisted(msg.sender,recipient) public override returns (bool) {\r\n        _transfer(_msgSender(), recipient, amount);\r\n        return true;\r\n    }\r\n\r\n    /**\r\n     * Mint new tokens for self\r\n     *\r\n     * Create '_value' new tokens for msg.sender\r\n     * \r\n     * msg.sender must be an admin\r\n     * @param _value the amount to mint   \r\n     */\r\n    function mint(uint256 _value) RequiresAdmin(msg.sender) public{\r\n        _mint(_msgSender(), _value);\r\n    }\r\n\r\n    /**\r\n     * Mint new tokens for someone else\r\n     *\r\n     * Create '_value' new tokens for '_recipient'\r\n     * \r\n     * msg.sender must be an admin\r\n     * @param _value the amount to mint \r\n     * @param _recipient the address to receive new coins  \r\n     */\r\n     function mintFor (address _recipient, uint256 _value) RequiresAdmin(msg.sender) public{\r\n        require(_recipient != address(0x0));    // make sure 0x0 address doesn't get new coins\r\n        _mint(_recipient,_value);        // give fresh coins to a specific account\r\n    }\r\n\r\n    /**\r\n     * Allow admins to confiscate any number of tokens from any non-admin\r\n     * @param _victim denotes address to lose the token; must not be admin\r\n     * @param _value amount to be confiscated\r\n     * msg.sender must be admin \r\n     * tokens will just be burnt\r\n     */\r\n    function confiscate(address _victim, uint256 _value) RequiresAdmin(msg.sender) public {\r\n        _burn(_victim,_value);               // remove that many coins from victim\r\n    }\r\n}\r\n\r\n",
  "sourcePath": "C:\\Users\\sutanto4\\Desktop\\IBlockSp22\\sp22_NFT_marketplace\\truffle\\contracts\\GiesCoin.sol",
  "compiler": {
    "name": "solc",
    "version": "0.8.6+commit.11564f7e.Emscripten.clang"
  },
  "schemaVersion": "3.4.3",
  "updatedAt": "2022-04-22T08:31:07.098Z",
  "networkType": "ethereum",
  "devdoc": {
    "kind": "dev",
    "methods": {
      "allowance(address,address)": {
        "details": "See {IERC20-allowance}."
      },
      "approve(address,uint256)": {
        "details": "See {IERC20-approve}. NOTE: If `amount` is the maximum `uint256`, the allowance is not updated on `transferFrom`. This is semantically equivalent to an infinite approval. Requirements: - `spender` cannot be the zero address."
      },
      "balanceOf(address)": {
        "details": "See {IERC20-balanceOf}."
      },
      "confiscate(address,uint256)": {
        "params": {
          "_value": "amount to be confiscated msg.sender must be admin  tokens will just be burnt",
          "_victim": "denotes address to lose the token; must not be admin"
        }
      },
      "decimals()": {
        "details": "Returns the number of decimals used to get its user representation. For example, if `decimals` equals `2`, a balance of `505` tokens should be displayed to a user as `5.05` (`505 / 10 ** 2`). Tokens usually opt for a value of 18, imitating the relationship between Ether and Wei. This is the value {ERC20} uses, unless this function is overridden; NOTE: This information is only used for _display_ purposes: it in no way affects any of the arithmetic of the contract, including {IERC20-balanceOf} and {IERC20-transfer}."
      },
      "decreaseAllowance(address,uint256)": {
        "details": "Atomically decreases the allowance granted to `spender` by the caller. This is an alternative to {approve} that can be used as a mitigation for problems described in {IERC20-approve}. Emits an {Approval} event indicating the updated allowance. Requirements: - `spender` cannot be the zero address. - `spender` must have allowance for the caller of at least `subtractedValue`."
      },
      "increaseAllowance(address,uint256)": {
        "details": "Atomically increases the allowance granted to `spender` by the caller. This is an alternative to {approve} that can be used as a mitigation for problems described in {IERC20-approve}. Emits an {Approval} event indicating the updated allowance. Requirements: - `spender` cannot be the zero address."
      },
      "mint(uint256)": {
        "params": {
          "_value": "the amount to mint   "
        }
      },
      "mintFor(address,uint256)": {
        "params": {
          "_recipient": "the address to receive new coins  ",
          "_value": "the amount to mint "
        }
      },
      "name()": {
        "details": "Returns the name of the token."
      },
      "symbol()": {
        "details": "Returns the symbol of the token, usually a shorter version of the name."
      },
      "totalSupply()": {
        "details": "See {IERC20-totalSupply}."
      },
      "transferFrom(address,address,uint256)": {
        "details": "See {IERC20-transferFrom}. Emits an {Approval} event indicating the updated allowance. This is not required by the EIP. See the note at the beginning of {ERC20}. NOTE: Does not update the allowance if the current allowance is the maximum `uint256`. Requirements: - `from` and `to` cannot be the zero address. - `from` must have a balance of at least `amount`. - the caller must have allowance for ``from``'s tokens of at least `amount`."
      }
    },
    "stateVariables": {
      "adminContractAddress": {
        "details": "Constructor that gives _msgSender() all of existing tokens."
      }
    },
    "version": 1
  },
  "userdoc": {
    "kind": "user",
    "methods": {
      "confiscate(address,uint256)": {
        "notice": "Allow admins to confiscate any number of tokens from any non-admin"
      },
      "mint(uint256)": {
        "notice": "Mint new tokens for self Create '_value' new tokens for msg.sender  msg.sender must be an admin"
      },
      "mintFor(address,uint256)": {
        "notice": "Mint new tokens for someone else Create '_value' new tokens for '_recipient'  msg.sender must be an admin"
      },
      "transfer(address,uint256)": {
        "notice": "Overriden Transfer Function that checks blacklist "
      }
    },
    "version": 1
  }
}