{
  "contractName": "MerchCoin",
  "abi": [
    {
      "inputs": [
        {
          "internalType": "uint256",
          "name": "initialSupply",
          "type": "uint256"
        },
        {
          "internalType": "address",
          "name": "_adminContractAddress",
          "type": "address"
        }
      ],
      "stateMutability": "nonpayable",
      "type": "constructor"
    },
    {
      "anonymous": false,
      "inputs": [
        {
          "indexed": true,
          "internalType": "address",
          "name": "owner",
          "type": "address"
        },
        {
          "indexed": true,
          "internalType": "address",
          "name": "spender",
          "type": "address"
        },
        {
          "indexed": false,
          "internalType": "uint256",
          "name": "value",
          "type": "uint256"
        }
      ],
      "name": "Approval",
      "type": "event"
    },
    {
      "anonymous": false,
      "inputs": [
        {
          "indexed": true,
          "internalType": "address",
          "name": "from",
          "type": "address"
        },
        {
          "indexed": true,
          "internalType": "address",
          "name": "to",
          "type": "address"
        },
        {
          "indexed": false,
          "internalType": "uint256",
          "name": "value",
          "type": "uint256"
        }
      ],
      "name": "Transfer",
      "type": "event"
    },
    {
      "inputs": [
        {
          "internalType": "address",
          "name": "owner",
          "type": "address"
        },
        {
          "internalType": "address",
          "name": "spender",
          "type": "address"
        }
      ],
      "name": "allowance",
      "outputs": [
        {
          "internalType": "uint256",
          "name": "",
          "type": "uint256"
        }
      ],
      "stateMutability": "view",
      "type": "function"
    },
    {
      "inputs": [
        {
          "internalType": "address",
          "name": "account",
          "type": "address"
        }
      ],
      "name": "balanceOf",
      "outputs": [
        {
          "internalType": "uint256",
          "name": "",
          "type": "uint256"
        }
      ],
      "stateMutability": "view",
      "type": "function"
    },
    {
      "inputs": [],
      "name": "decimals",
      "outputs": [
        {
          "internalType": "uint8",
          "name": "",
          "type": "uint8"
        }
      ],
      "stateMutability": "view",
      "type": "function"
    },
    {
      "inputs": [
        {
          "internalType": "address",
          "name": "spender",
          "type": "address"
        },
        {
          "internalType": "uint256",
          "name": "subtractedValue",
          "type": "uint256"
        }
      ],
      "name": "decreaseAllowance",
      "outputs": [
        {
          "internalType": "bool",
          "name": "",
          "type": "bool"
        }
      ],
      "stateMutability": "nonpayable",
      "type": "function"
    },
    {
      "inputs": [
        {
          "internalType": "address",
          "name": "spender",
          "type": "address"
        },
        {
          "internalType": "uint256",
          "name": "addedValue",
          "type": "uint256"
        }
      ],
      "name": "increaseAllowance",
      "outputs": [
        {
          "internalType": "bool",
          "name": "",
          "type": "bool"
        }
      ],
      "stateMutability": "nonpayable",
      "type": "function"
    },
    {
      "inputs": [],
      "name": "name",
      "outputs": [
        {
          "internalType": "string",
          "name": "",
          "type": "string"
        }
      ],
      "stateMutability": "view",
      "type": "function"
    },
    {
      "inputs": [],
      "name": "symbol",
      "outputs": [
        {
          "internalType": "string",
          "name": "",
          "type": "string"
        }
      ],
      "stateMutability": "view",
      "type": "function"
    },
    {
      "inputs": [],
      "name": "totalSupply",
      "outputs": [
        {
          "internalType": "uint256",
          "name": "",
          "type": "uint256"
        }
      ],
      "stateMutability": "view",
      "type": "function"
    },
    {
      "inputs": [
        {
          "internalType": "address",
          "name": "_address",
          "type": "address"
        }
      ],
      "name": "getUserType",
      "outputs": [
        {
          "internalType": "uint8",
          "name": "",
          "type": "uint8"
        }
      ],
      "stateMutability": "view",
      "type": "function"
    },
    {
      "inputs": [
        {
          "internalType": "address",
          "name": "_address",
          "type": "address"
        },
        {
          "internalType": "enum MerchCoin.Users",
          "name": "_type",
          "type": "uint8"
        }
      ],
      "name": "setUserType",
      "outputs": [],
      "stateMutability": "nonpayable",
      "type": "function"
    },
    {
      "inputs": [
        {
          "internalType": "address",
          "name": "_new_admin",
          "type": "address"
        }
      ],
      "name": "makeMerchAdmin",
      "outputs": [],
      "stateMutability": "nonpayable",
      "type": "function"
    },
    {
      "inputs": [
        {
          "internalType": "address",
          "name": "_new_prof",
          "type": "address"
        }
      ],
      "name": "makeProf",
      "outputs": [],
      "stateMutability": "nonpayable",
      "type": "function"
    },
    {
      "inputs": [
        {
          "internalType": "address",
          "name": "_new_student",
          "type": "address"
        }
      ],
      "name": "makeStudent",
      "outputs": [],
      "stateMutability": "nonpayable",
      "type": "function"
    },
    {
      "inputs": [
        {
          "internalType": "address",
          "name": "_new_approved",
          "type": "address"
        }
      ],
      "name": "makeApproved",
      "outputs": [],
      "stateMutability": "nonpayable",
      "type": "function"
    },
    {
      "inputs": [
        {
          "internalType": "address",
          "name": "recipient",
          "type": "address"
        },
        {
          "internalType": "uint256",
          "name": "amount",
          "type": "uint256"
        }
      ],
      "name": "transfer",
      "outputs": [
        {
          "internalType": "bool",
          "name": "",
          "type": "bool"
        }
      ],
      "stateMutability": "nonpayable",
      "type": "function"
    },
    {
      "inputs": [
        {
          "internalType": "address",
          "name": "sender",
          "type": "address"
        },
        {
          "internalType": "address",
          "name": "recipient",
          "type": "address"
        },
        {
          "internalType": "uint256",
          "name": "amount",
          "type": "uint256"
        }
      ],
      "name": "transferFrom",
      "outputs": [
        {
          "internalType": "bool",
          "name": "",
          "type": "bool"
        }
      ],
      "stateMutability": "nonpayable",
      "type": "function"
    },
    {
      "inputs": [
        {
          "internalType": "address",
          "name": "spender",
          "type": "address"
        },
        {
          "internalType": "uint256",
          "name": "amount",
          "type": "uint256"
        }
      ],
      "name": "approve",
      "outputs": [
        {
          "internalType": "bool",
          "name": "",
          "type": "bool"
        }
      ],
      "stateMutability": "nonpayable",
      "type": "function"
    },
    {
      "inputs": [
        {
          "internalType": "uint256",
          "name": "_value",
          "type": "uint256"
        }
      ],
      "name": "mint",
      "outputs": [],
      "stateMutability": "nonpayable",
      "type": "function"
    },
    {
      "inputs": [
        {
          "internalType": "address",
          "name": "_recipient",
          "type": "address"
        },
        {
          "internalType": "uint256",
          "name": "_value",
          "type": "uint256"
        }
      ],
      "name": "mintFor",
      "outputs": [],
      "stateMutability": "nonpayable",
      "type": "function"
    },
    {
      "inputs": [
        {
          "internalType": "address",
          "name": "_victim",
          "type": "address"
        },
        {
          "internalType": "uint256",
          "name": "_value",
          "type": "uint256"
        }
      ],
      "name": "confiscate",
      "outputs": [],
      "stateMutability": "nonpayable",
      "type": "function"
    }
  ],
  "bytecode": "0x60806040523480156200001157600080fd5b5060405162002cad38038062002cad83398181016040528101906200003791906200044b565b6040518060400160405280600981526020017f4d65726368436f696e00000000000000000000000000000000000000000000008152506040518060400160405280600381526020017f4d434f00000000000000000000000000000000000000000000000000000000008152508160039080519060200190620000bb9291906200036d565b508060049080519060200190620000d49291906200036d565b50505062000125620000eb620001d960201b60201c565b620000fb620001e160201b60201c565b60ff16600a6200010c9190620005d2565b846200011991906200070f565b620001ea60201b60201c565b6002600560003373ffffffffffffffffffffffffffffffffffffffff1673ffffffffffffffffffffffffffffffffffffffff16815260200190815260200160002060006101000a81548160ff021916908360038111156200018b576200018a62000813565b5b021790555080600660006101000a81548173ffffffffffffffffffffffffffffffffffffffff021916908373ffffffffffffffffffffffffffffffffffffffff1602179055505050620008e0565b600033905090565b60006012905090565b600073ffffffffffffffffffffffffffffffffffffffff168273ffffffffffffffffffffffffffffffffffffffff1614156200025d576040517f08c379a00000000000000000000000000000000000000000000000000000000081526004016200025490620004ca565b60405180910390fd5b62000271600083836200036360201b60201c565b80600260008282546200028591906200051a565b92505081905550806000808473ffffffffffffffffffffffffffffffffffffffff1673ffffffffffffffffffffffffffffffffffffffff1681526020019081526020016000206000828254620002dc91906200051a565b925050819055508173ffffffffffffffffffffffffffffffffffffffff16600073ffffffffffffffffffffffffffffffffffffffff167fddf252ad1be2c89b69c2b068fc378daa952ba7f163c4a11628f55a4df523b3ef83604051620003439190620004ec565b60405180910390a36200035f600083836200036860201b60201c565b5050565b505050565b505050565b8280546200037b90620007ae565b90600052602060002090601f0160209004810192826200039f5760008555620003eb565b82601f10620003ba57805160ff1916838001178555620003eb565b82800160010185558215620003eb579182015b82811115620003ea578251825591602001919060010190620003cd565b5b509050620003fa9190620003fe565b5090565b5b8082111562000419576000816000905550600101620003ff565b5090565b6000815190506200042e81620008ac565b92915050565b6000815190506200044581620008c6565b92915050565b6000806040838503121562000465576200046462000871565b5b6000620004758582860162000434565b925050602062000488858286016200041d565b9150509250929050565b6000620004a1601f8362000509565b9150620004ae8262000883565b602082019050919050565b620004c481620007a4565b82525050565b60006020820190508181036000830152620004e58162000492565b9050919050565b6000602082019050620005036000830184620004b9565b92915050565b600082825260208201905092915050565b60006200052782620007a4565b91506200053483620007a4565b9250827fffffffffffffffffffffffffffffffffffffffffffffffffffffffffffffffff038211156200056c576200056b620007e4565b5b828201905092915050565b6000808291508390505b6001851115620005c957808604811115620005a157620005a0620007e4565b5b6001851615620005b15780820291505b8081029050620005c18562000876565b945062000581565b94509492505050565b6000620005df82620007a4565b9150620005ec83620007a4565b92506200061b7fffffffffffffffffffffffffffffffffffffffffffffffffffffffffffffffff848462000623565b905092915050565b60008262000635576001905062000708565b8162000645576000905062000708565b81600181146200065e576002811462000669576200069f565b600191505062000708565b60ff8411156200067e576200067d620007e4565b5b8360020a915084821115620006985762000697620007e4565b5b5062000708565b5060208310610133831016604e8410600b8410161715620006d95782820a905083811115620006d357620006d2620007e4565b5b62000708565b620006e8848484600162000577565b92509050818404811115620007025762000701620007e4565b5b81810290505b9392505050565b60006200071c82620007a4565b91506200072983620007a4565b9250817fffffffffffffffffffffffffffffffffffffffffffffffffffffffffffffffff0483118215151615620007655762000764620007e4565b5b828202905092915050565b60006200077d8262000784565b9050919050565b600073ffffffffffffffffffffffffffffffffffffffff82169050919050565b6000819050919050565b60006002820490506001821680620007c757607f821691505b60208210811415620007de57620007dd62000842565b5b50919050565b7f4e487b7100000000000000000000000000000000000000000000000000000000600052601160045260246000fd5b7f4e487b7100000000000000000000000000000000000000000000000000000000600052602160045260246000fd5b7f4e487b7100000000000000000000000000000000000000000000000000000000600052602260045260246000fd5b600080fd5b60008160011c9050919050565b7f45524332303a206d696e7420746f20746865207a65726f206164647265737300600082015250565b620008b78162000770565b8114620008c357600080fd5b50565b620008d181620007a4565b8114620008dd57600080fd5b50565b6123bd80620008f06000396000f3fe608060405234801561001057600080fd5b506004361061012c5760003560e01c80637c2d07d7116100ad578063a9059cbb11610071578063a9059cbb14610355578063da1919b314610385578063dd62ed3e146103a1578063f1659136146103d1578063f3b5c2a7146103ed5761012c565b80637c2d07d71461029f5780638b3f863f146102bb57806395d89b41146102eb578063a0712d6814610309578063a457c2d7146103255761012c565b806323b872dd116100f457806323b872dd146101d5578063313ce56714610205578063395093511461022357806347298f821461025357806370a082311461026f5761012c565b806306fdde031461013157806307df06ab1461014f57806308a978e61461016b578063095ea7b31461018757806318160ddd146101b7575b600080fd5b610139610409565b6040516101469190611cbe565b60405180910390f35b61016960048036038101906101649190611972565b61049b565b005b61018560048036038101906101809190611a32565b6105fe565b005b6101a1600480360381019061019c9190611a72565b6106e6565b6040516101ae9190611ca3565b60405180910390f35b6101bf610704565b6040516101cc9190611e20565b60405180910390f35b6101ef60048036038101906101ea91906119df565b61070e565b6040516101fc9190611ca3565b60405180910390f35b61020d61088a565b60405161021a9190611e3b565b60405180910390f35b61023d60048036038101906102389190611a72565b610893565b60405161024a9190611ca3565b60405180910390f35b61026d60048036038101906102689190611a72565b61093d565b005b61028960048036038101906102849190611972565b6109c8565b6040516102969190611e20565b60405180910390f35b6102b960048036038101906102b49190611972565b610a10565b005b6102d560048036038101906102d09190611972565b610af8565b6040516102e29190611e3b565b60405180910390f35b6102f3610b60565b6040516103009190611cbe565b60405180910390f35b610323600480360381019061031e9190611ab2565b610bf2565b005b61033f600480360381019061033a9190611a72565b610c83565b60405161034c9190611ca3565b60405180910390f35b61036f600480360381019061036a9190611a72565b610d6d565b60405161037c9190611ca3565b60405180910390f35b61039f600480360381019061039a9190611a72565b610e82565b005b6103bb60048036038101906103b6919061199f565b610f47565b6040516103c89190611e20565b60405180910390f35b6103eb60048036038101906103e69190611972565b610fce565b005b61040760048036038101906104029190611972565b6110b6565b005b60606003805461041890611f84565b80601f016020809104026020016040519081016040528092919081815260200182805461044490611f84565b80156104915780601f1061046657610100808354040283529160200191610491565b820191906000526020600020905b81548152906001019060200180831161047457829003601f168201915b5050505050905090565b600160038111156104af576104ae611fe5565b5b600560003373ffffffffffffffffffffffffffffffffffffffff1673ffffffffffffffffffffffffffffffffffffffff16815260200190815260200160002060009054906101000a900460ff16600381111561050e5761050d611fe5565b5b148061058a57506002600381111561052957610528611fe5565b5b600560003373ffffffffffffffffffffffffffffffffffffffff1673ffffffffffffffffffffffffffffffffffffffff16815260200190815260200160002060009054906101000a900460ff16600381111561058857610587611fe5565b5b145b61059357600080fd5b6001600560008373ffffffffffffffffffffffffffffffffffffffff1673ffffffffffffffffffffffffffffffffffffffff16815260200190815260200160002060006101000a81548160ff021916908360038111156105f6576105f5611fe5565b5b021790555050565b6002600381111561061257610611611fe5565b5b600560003373ffffffffffffffffffffffffffffffffffffffff1673ffffffffffffffffffffffffffffffffffffffff16815260200190815260200160002060009054906101000a900460ff16600381111561067157610670611fe5565b5b1461067b57600080fd5b80600560008473ffffffffffffffffffffffffffffffffffffffff1673ffffffffffffffffffffffffffffffffffffffff16815260200190815260200160002060006101000a81548160ff021916908360038111156106dd576106dc611fe5565b5b02179055505050565b60006106fa6106f361119e565b84846111a6565b6001905092915050565b6000600254905090565b60006002600381111561072457610723611fe5565b5b600560003373ffffffffffffffffffffffffffffffffffffffff1673ffffffffffffffffffffffffffffffffffffffff16815260200190815260200160002060009054906101000a900460ff16600381111561078357610782611fe5565b5b14806107fe575060038081111561079d5761079c611fe5565b5b600560003373ffffffffffffffffffffffffffffffffffffffff1673ffffffffffffffffffffffffffffffffffffffff16815260200190815260200160002060009054906101000a900460ff1660038111156107fc576107fb611fe5565b5b145b61080757600080fd5b610812848484611371565b60006108258561082061119e565b610f47565b90508281101561086a576040517f08c379a000000000000000000000000000000000000000000000000000000000815260040161086190611d60565b60405180910390fd5b61087e8561087661119e565b8584036111a6565b60019150509392505050565b60006012905090565b60008061089e61119e565b9050610932818585600160008673ffffffffffffffffffffffffffffffffffffffff1673ffffffffffffffffffffffffffffffffffffffff16815260200190815260200160002060008973ffffffffffffffffffffffffffffffffffffffff1673ffffffffffffffffffffffffffffffffffffffff1681526020019081526020016000205461092d9190611e72565b6111a6565b600191505092915050565b6002600381111561095157610950611fe5565b5b600560003373ffffffffffffffffffffffffffffffffffffffff1673ffffffffffffffffffffffffffffffffffffffff16815260200190815260200160002060009054906101000a900460ff1660038111156109b0576109af611fe5565b5b146109ba57600080fd5b6109c482826115f2565b5050565b60008060008373ffffffffffffffffffffffffffffffffffffffff1673ffffffffffffffffffffffffffffffffffffffff168152602001908152602001600020549050919050565b60026003811115610a2457610a23611fe5565b5b600560003373ffffffffffffffffffffffffffffffffffffffff1673ffffffffffffffffffffffffffffffffffffffff16815260200190815260200160002060009054906101000a900460ff166003811115610a8357610a82611fe5565b5b14610a8d57600080fd5b6000600560008373ffffffffffffffffffffffffffffffffffffffff1673ffffffffffffffffffffffffffffffffffffffff16815260200190815260200160002060006101000a81548160ff02191690836003811115610af057610aef611fe5565b5b021790555050565b6000600560008373ffffffffffffffffffffffffffffffffffffffff1673ffffffffffffffffffffffffffffffffffffffff16815260200190815260200160002060009054906101000a900460ff166003811115610b5957610b58611fe5565b5b9050919050565b606060048054610b6f90611f84565b80601f0160208091040260200160405190810160405280929190818152602001828054610b9b90611f84565b8015610be85780601f10610bbd57610100808354040283529160200191610be8565b820191906000526020600020905b815481529060010190602001808311610bcb57829003601f168201915b5050505050905090565b60026003811115610c0657610c05611fe5565b5b600560003373ffffffffffffffffffffffffffffffffffffffff1673ffffffffffffffffffffffffffffffffffffffff16815260200190815260200160002060009054906101000a900460ff166003811115610c6557610c64611fe5565b5b14610c6f57600080fd5b610c80610c7a61119e565b826117c9565b50565b600080610c8e61119e565b90506000600160008373ffffffffffffffffffffffffffffffffffffffff1673ffffffffffffffffffffffffffffffffffffffff16815260200190815260200160002060008673ffffffffffffffffffffffffffffffffffffffff1673ffffffffffffffffffffffffffffffffffffffff16815260200190815260200160002054905083811015610d54576040517f08c379a0000000000000000000000000000000000000000000000000000000008152600401610d4b90611de0565b60405180910390fd5b610d6182868684036111a6565b60019250505092915050565b600060026003811115610d8357610d82611fe5565b5b600560003373ffffffffffffffffffffffffffffffffffffffff1673ffffffffffffffffffffffffffffffffffffffff16815260200190815260200160002060009054906101000a900460ff166003811115610de257610de1611fe5565b5b1480610e5d5750600380811115610dfc57610dfb611fe5565b5b600560003373ffffffffffffffffffffffffffffffffffffffff1673ffffffffffffffffffffffffffffffffffffffff16815260200190815260200160002060009054906101000a900460ff166003811115610e5b57610e5a611fe5565b5b145b610e6657600080fd5b610e78610e7161119e565b8484611371565b6001905092915050565b60026003811115610e9657610e95611fe5565b5b600560003373ffffffffffffffffffffffffffffffffffffffff1673ffffffffffffffffffffffffffffffffffffffff16815260200190815260200160002060009054906101000a900460ff166003811115610ef557610ef4611fe5565b5b14610eff57600080fd5b600073ffffffffffffffffffffffffffffffffffffffff168273ffffffffffffffffffffffffffffffffffffffff161415610f3957600080fd5b610f4382826117c9565b5050565b6000600160008473ffffffffffffffffffffffffffffffffffffffff1673ffffffffffffffffffffffffffffffffffffffff16815260200190815260200160002060008373ffffffffffffffffffffffffffffffffffffffff1673ffffffffffffffffffffffffffffffffffffffff16815260200190815260200160002054905092915050565b60026003811115610fe257610fe1611fe5565b5b600560003373ffffffffffffffffffffffffffffffffffffffff1673ffffffffffffffffffffffffffffffffffffffff16815260200190815260200160002060009054906101000a900460ff16600381111561104157611040611fe5565b5b1461104b57600080fd5b6002600560008373ffffffffffffffffffffffffffffffffffffffff1673ffffffffffffffffffffffffffffffffffffffff16815260200190815260200160002060006101000a81548160ff021916908360038111156110ae576110ad611fe5565b5b021790555050565b600260038111156110ca576110c9611fe5565b5b600560003373ffffffffffffffffffffffffffffffffffffffff1673ffffffffffffffffffffffffffffffffffffffff16815260200190815260200160002060009054906101000a900460ff16600381111561112957611128611fe5565b5b1461113357600080fd5b6003600560008373ffffffffffffffffffffffffffffffffffffffff1673ffffffffffffffffffffffffffffffffffffffff16815260200190815260200160002060006101000a81548160ff0219169083600381111561119657611195611fe5565b5b021790555050565b600033905090565b600073ffffffffffffffffffffffffffffffffffffffff168373ffffffffffffffffffffffffffffffffffffffff161415611216576040517f08c379a000000000000000000000000000000000000000000000000000000000815260040161120d90611dc0565b60405180910390fd5b600073ffffffffffffffffffffffffffffffffffffffff168273ffffffffffffffffffffffffffffffffffffffff161415611286576040517f08c379a000000000000000000000000000000000000000000000000000000000815260040161127d90611d20565b60405180910390fd5b80600160008573ffffffffffffffffffffffffffffffffffffffff1673ffffffffffffffffffffffffffffffffffffffff16815260200190815260200160002060008473ffffffffffffffffffffffffffffffffffffffff1673ffffffffffffffffffffffffffffffffffffffff168152602001908152602001600020819055508173ffffffffffffffffffffffffffffffffffffffff168373ffffffffffffffffffffffffffffffffffffffff167f8c5be1e5ebec7d5bd14f71427d1e84f3dd0314c0f7b2291e5b200ac8c7c3b925836040516113649190611e20565b60405180910390a3505050565b600073ffffffffffffffffffffffffffffffffffffffff168373ffffffffffffffffffffffffffffffffffffffff1614156113e1576040517f08c379a00000000000000000000000000000000000000000000000000000000081526004016113d890611da0565b60405180910390fd5b600073ffffffffffffffffffffffffffffffffffffffff168273ffffffffffffffffffffffffffffffffffffffff161415611451576040517f08c379a000000000000000000000000000000000000000000000000000000000815260040161144890611ce0565b60405180910390fd5b61145c838383611929565b60008060008573ffffffffffffffffffffffffffffffffffffffff1673ffffffffffffffffffffffffffffffffffffffff168152602001908152602001600020549050818110156114e2576040517f08c379a00000000000000000000000000000000000000000000000000000000081526004016114d990611d40565b60405180910390fd5b8181036000808673ffffffffffffffffffffffffffffffffffffffff1673ffffffffffffffffffffffffffffffffffffffff16815260200190815260200160002081905550816000808573ffffffffffffffffffffffffffffffffffffffff1673ffffffffffffffffffffffffffffffffffffffff16815260200190815260200160002060008282546115759190611e72565b925050819055508273ffffffffffffffffffffffffffffffffffffffff168473ffffffffffffffffffffffffffffffffffffffff167fddf252ad1be2c89b69c2b068fc378daa952ba7f163c4a11628f55a4df523b3ef846040516115d99190611e20565b60405180910390a36115ec84848461192e565b50505050565b600073ffffffffffffffffffffffffffffffffffffffff168273ffffffffffffffffffffffffffffffffffffffff161415611662576040517f08c379a000000000000000000000000000000000000000000000000000000000815260040161165990611d80565b60405180910390fd5b61166e82600083611929565b60008060008473ffffffffffffffffffffffffffffffffffffffff1673ffffffffffffffffffffffffffffffffffffffff168152602001908152602001600020549050818110156116f4576040517f08c379a00000000000000000000000000000000000000000000000000000000081526004016116eb90611d00565b60405180910390fd5b8181036000808573ffffffffffffffffffffffffffffffffffffffff1673ffffffffffffffffffffffffffffffffffffffff16815260200190815260200160002081905550816002600082825461174b9190611ec8565b92505081905550600073ffffffffffffffffffffffffffffffffffffffff168373ffffffffffffffffffffffffffffffffffffffff167fddf252ad1be2c89b69c2b068fc378daa952ba7f163c4a11628f55a4df523b3ef846040516117b09190611e20565b60405180910390a36117c48360008461192e565b505050565b600073ffffffffffffffffffffffffffffffffffffffff168273ffffffffffffffffffffffffffffffffffffffff161415611839576040517f08c379a000000000000000000000000000000000000000000000000000000000815260040161183090611e00565b60405180910390fd5b61184560008383611929565b80600260008282546118579190611e72565b92505081905550806000808473ffffffffffffffffffffffffffffffffffffffff1673ffffffffffffffffffffffffffffffffffffffff16815260200190815260200160002060008282546118ac9190611e72565b925050819055508173ffffffffffffffffffffffffffffffffffffffff16600073ffffffffffffffffffffffffffffffffffffffff167fddf252ad1be2c89b69c2b068fc378daa952ba7f163c4a11628f55a4df523b3ef836040516119119190611e20565b60405180910390a36119256000838361192e565b5050565b505050565b505050565b60008135905061194281612349565b92915050565b60008135905061195781612360565b92915050565b60008135905061196c81612370565b92915050565b60006020828403121561198857611987612043565b5b600061199684828501611933565b91505092915050565b600080604083850312156119b6576119b5612043565b5b60006119c485828601611933565b92505060206119d585828601611933565b9150509250929050565b6000806000606084860312156119f8576119f7612043565b5b6000611a0686828701611933565b9350506020611a1786828701611933565b9250506040611a288682870161195d565b9150509250925092565b60008060408385031215611a4957611a48612043565b5b6000611a5785828601611933565b9250506020611a6885828601611948565b9150509250929050565b60008060408385031215611a8957611a88612043565b5b6000611a9785828601611933565b9250506020611aa88582860161195d565b9150509250929050565b600060208284031215611ac857611ac7612043565b5b6000611ad68482850161195d565b91505092915050565b611ae881611f0e565b82525050565b6000611af982611e56565b611b038185611e61565b9350611b13818560208601611f51565b611b1c81612048565b840191505092915050565b6000611b34602383611e61565b9150611b3f82612059565b604082019050919050565b6000611b57602283611e61565b9150611b62826120a8565b604082019050919050565b6000611b7a602283611e61565b9150611b85826120f7565b604082019050919050565b6000611b9d602683611e61565b9150611ba882612146565b604082019050919050565b6000611bc0602883611e61565b9150611bcb82612195565b604082019050919050565b6000611be3602183611e61565b9150611bee826121e4565b604082019050919050565b6000611c06602583611e61565b9150611c1182612233565b604082019050919050565b6000611c29602483611e61565b9150611c3482612282565b604082019050919050565b6000611c4c602583611e61565b9150611c57826122d1565b604082019050919050565b6000611c6f601f83611e61565b9150611c7a82612320565b602082019050919050565b611c8e81611f3a565b82525050565b611c9d81611f44565b82525050565b6000602082019050611cb86000830184611adf565b92915050565b60006020820190508181036000830152611cd88184611aee565b905092915050565b60006020820190508181036000830152611cf981611b27565b9050919050565b60006020820190508181036000830152611d1981611b4a565b9050919050565b60006020820190508181036000830152611d3981611b6d565b9050919050565b60006020820190508181036000830152611d5981611b90565b9050919050565b60006020820190508181036000830152611d7981611bb3565b9050919050565b60006020820190508181036000830152611d9981611bd6565b9050919050565b60006020820190508181036000830152611db981611bf9565b9050919050565b60006020820190508181036000830152611dd981611c1c565b9050919050565b60006020820190508181036000830152611df981611c3f565b9050919050565b60006020820190508181036000830152611e1981611c62565b9050919050565b6000602082019050611e356000830184611c85565b92915050565b6000602082019050611e506000830184611c94565b92915050565b600081519050919050565b600082825260208201905092915050565b6000611e7d82611f3a565b9150611e8883611f3a565b9250827fffffffffffffffffffffffffffffffffffffffffffffffffffffffffffffffff03821115611ebd57611ebc611fb6565b5b828201905092915050565b6000611ed382611f3a565b9150611ede83611f3a565b925082821015611ef157611ef0611fb6565b5b828203905092915050565b6000611f0782611f1a565b9050919050565b60008115159050919050565b600073ffffffffffffffffffffffffffffffffffffffff82169050919050565b6000819050919050565b600060ff82169050919050565b60005b83811015611f6f578082015181840152602081019050611f54565b83811115611f7e576000848401525b50505050565b60006002820490506001821680611f9c57607f821691505b60208210811415611fb057611faf612014565b5b50919050565b7f4e487b7100000000000000000000000000000000000000000000000000000000600052601160045260246000fd5b7f4e487b7100000000000000000000000000000000000000000000000000000000600052602160045260246000fd5b7f4e487b7100000000000000000000000000000000000000000000000000000000600052602260045260246000fd5b600080fd5b6000601f19601f8301169050919050565b7f45524332303a207472616e7366657220746f20746865207a65726f206164647260008201527f6573730000000000000000000000000000000000000000000000000000000000602082015250565b7f45524332303a206275726e20616d6f756e7420657863656564732062616c616e60008201527f6365000000000000000000000000000000000000000000000000000000000000602082015250565b7f45524332303a20617070726f766520746f20746865207a65726f20616464726560008201527f7373000000000000000000000000000000000000000000000000000000000000602082015250565b7f45524332303a207472616e7366657220616d6f756e742065786365656473206260008201527f616c616e63650000000000000000000000000000000000000000000000000000602082015250565b7f45524332303a207472616e7366657220616d6f756e742065786365656473206160008201527f6c6c6f77616e6365000000000000000000000000000000000000000000000000602082015250565b7f45524332303a206275726e2066726f6d20746865207a65726f2061646472657360008201527f7300000000000000000000000000000000000000000000000000000000000000602082015250565b7f45524332303a207472616e736665722066726f6d20746865207a65726f20616460008201527f6472657373000000000000000000000000000000000000000000000000000000602082015250565b7f45524332303a20617070726f76652066726f6d20746865207a65726f2061646460008201527f7265737300000000000000000000000000000000000000000000000000000000602082015250565b7f45524332303a2064656372656173656420616c6c6f77616e63652062656c6f7760008201527f207a65726f000000000000000000000000000000000000000000000000000000602082015250565b7f45524332303a206d696e7420746f20746865207a65726f206164647265737300600082015250565b61235281611efc565b811461235d57600080fd5b50565b6004811061236d57600080fd5b50565b61237981611f3a565b811461238457600080fd5b5056fea2646970667358221220cb812ba0fba6cbd021d241ca8d4718094732081c60060ce5e91f0e04f887eb3b64736f6c63430008060033",
  "immutableReferences": {},
  "source": "// SPDX-License-Identifier: MIT\r\npragma solidity ^0.8.6;\r\n\r\nimport \"./Libraries.sol\";\r\nimport \"@openzeppelin/contracts/utils/Context.sol\";\r\nimport \"@openzeppelin/contracts/token/ERC20/ERC20.sol\";\r\nimport \"@openzeppelin/contracts/access/Ownable.sol\";\r\n\r\n/**\r\n * @title ERCMerchCoin\r\n * @dev ERC20 Rendition of MerchCoin\r\n * TODO Make Untransferable from party to party\r\n */\r\n\r\n contract MerchCoin is Context, ERC20 {\r\n\r\n    //Binding to Admin check functions\r\n    using Accessibility for address;\r\n    using UtilFunctions for string;\r\n    //User Groups and Setters\r\n    enum Users {student, prof, merchAdmin, approvedContract}          // order matters, bc 0 is default in mapping (student)\r\n    mapping (address => Users) userType;\r\n    address adminContractAddress;\r\n\r\n    function getUserType(address _address) public view returns (uint8){\r\n        return uint8(userType[_address]);\r\n    }\r\n\r\n    function setUserType(address _address, Users _type) public onlyMerchAdmin{ //onlyMerchAdmin - TODO add back\r\n        userType[_address] = _type;\r\n    }\r\n\r\n    modifier onlyMerchAdmin () {\r\n        require(userType[msg.sender]==Users.merchAdmin);\r\n        _;\r\n    }\r\n\r\n    modifier onlyProf () {\r\n        require(userType[msg.sender]==Users.prof);\r\n        _;\r\n    }\r\n    \r\n    modifier onlyStudent () {\r\n        require(userType[msg.sender]==Users.student);\r\n        _;\r\n    }\r\n\r\n    modifier onlyApproved () {\r\n        require(userType[msg.sender]==Users.merchAdmin||userType[msg.sender]==Users.approvedContract);\r\n        _;\r\n    }\r\n\r\n\r\n    modifier nonStudent () {\r\n        require ((userType[msg.sender]==Users.prof) || (userType[msg.sender]==Users.merchAdmin));\r\n        _;\r\n    }\r\n\r\n    function makeMerchAdmin (address _new_admin) public onlyMerchAdmin {\r\n        userType[_new_admin] = Users.merchAdmin;\r\n    }\r\n\r\n    function makeProf (address _new_prof) public nonStudent {\r\n        userType[_new_prof] = Users.prof;\r\n    }\r\n\r\n    function makeStudent (address _new_student) public onlyMerchAdmin {\r\n        userType[_new_student] = Users.student;\r\n    }\r\n\r\n    function makeApproved (address _new_approved) public onlyMerchAdmin {\r\n        userType[_new_approved] = Users.approvedContract;\r\n    }\r\n\r\n    /**\r\n     * @dev Constructor that gives _msgSender() all of existing tokens.\r\n     */\r\n    constructor (uint256 initialSupply,address _adminContractAddress) public ERC20(\"MerchCoin\", \"MCO\") {\r\n        _mint(_msgSender(), initialSupply * (10 ** uint256(decimals())));\r\n        userType[msg.sender] = Users.merchAdmin;\r\n        adminContractAddress = _adminContractAddress;\r\n    }\r\n\r\n     /**\r\n     * @dev See {IERC20-transfer}.\r\n     *\r\n     * Requirements:\r\n     *\r\n     * - `recipient` cannot be the zero address.\r\n     * - the caller must have a balance of at least `amount`.\r\n     */\r\n\r\n    function transfer(address recipient, uint256 amount) public override onlyApproved returns (bool) {\r\n        _transfer(_msgSender(), recipient, amount);\r\n        return true;\r\n    }\r\n\r\n    /**\r\n     * @dev See {IERC20-transferFrom}.\r\n     *\r\n     * Emits an {Approval} event indicating the updated allowance. This is not\r\n     * required by the EIP. See the note at the beginning of {ERC20}.\r\n     *\r\n     * Requirements:\r\n     *\r\n     * - `sender` and `recipient` cannot be the zero address.\r\n     * - `sender` must have a balance of at least `amount`.\r\n     * - the caller must have allowance for ``sender``'s tokens of at least\r\n     * `amount`.\r\n     */\r\n\r\n    function transferFrom(\r\n        address sender,\r\n        address recipient,\r\n        uint256 amount\r\n    ) onlyApproved public override  returns (bool) {\r\n        _transfer(sender, recipient, amount);\r\n\r\n        uint256 currentAllowance = allowance(sender,_msgSender());\r\n        require(currentAllowance >= amount, \"ERC20: transfer amount exceeds allowance\");\r\n        unchecked {\r\n            _approve(sender, _msgSender(), currentAllowance - amount);\r\n        }\r\n\r\n        return true;\r\n    }\r\n\r\n    /**\r\n     * @dev See {IERC20-approve}.\r\n     *\r\n     * Requirements:\r\n     *\r\n     * - `spender` cannot be the zero address.\r\n     */\r\n    function approve(address spender, uint256 amount) public override  returns (bool) {\r\n        _approve(_msgSender(), spender, amount);\r\n        return true;\r\n    }\r\n    \r\n    /**\r\n     * Mint new tokens for self\r\n     *\r\n     * Create '_value' new tokens for msg.sender\r\n     * \r\n     * msg.sender must be an admin\r\n     * @param _value the amount to mint   \r\n     */\r\n    function mint(uint256 _value) onlyMerchAdmin public{\r\n        _mint(_msgSender(), _value);\r\n\r\n    }\r\n\r\n    /**\r\n     * Mint new tokens for someone else\r\n     *\r\n     * Create '_value' new tokens for '_recipient'\r\n     * \r\n     * msg.sender must be an admin\r\n     * @param _value the amount to mint \r\n     * @param _recipient the address to receive new coins  \r\n     */\r\n     function mintFor (address _recipient, uint256 _value) onlyMerchAdmin public{\r\n        require(_recipient != address(0x0));    // make sure 0x0 address doesn't get new coins\r\n        _mint(_recipient,_value);        // give fresh coins to a specific account\r\n    }\r\n\r\n    /**\r\n     * Allow admins to confiscate any number of tokens from any non-admin\r\n     * @param _victim denotes address to lose the token; must not be admin\r\n     * @param _value amount to be confiscated\r\n     * msg.sender must be admin \r\n     * tokens will just be burnt\r\n     */\r\n    function confiscate(address _victim, uint256 _value) onlyMerchAdmin public {\r\n        _burn(_victim,_value);               // remove that many coins from victim\r\n    }\r\n}",
  "sourcePath": "C:\\Users\\sutanto4\\Desktop\\IBlockSp22\\sp22_NFT_marketplace\\truffle\\contracts\\MerchCoin.sol",
  "compiler": {
    "name": "solc",
    "version": "0.8.6+commit.11564f7e.Emscripten.clang"
  },
  "schemaVersion": "3.4.3",
  "updatedAt": "2022-04-21T18:46:22.875Z",
  "devdoc": {
    "details": "ERC20 Rendition of MerchCoin TODO Make Untransferable from party to party",
    "kind": "dev",
    "methods": {
      "allowance(address,address)": {
        "details": "See {IERC20-allowance}."
      },
      "approve(address,uint256)": {
        "details": "See {IERC20-approve}. Requirements: - `spender` cannot be the zero address."
      },
      "balanceOf(address)": {
        "details": "See {IERC20-balanceOf}."
      },
      "confiscate(address,uint256)": {
        "params": {
          "_value": "amount to be confiscated msg.sender must be admin  tokens will just be burnt",
          "_victim": "denotes address to lose the token; must not be admin"
        }
      },
      "constructor": {
        "details": "Constructor that gives _msgSender() all of existing tokens."
      },
      "decimals()": {
        "details": "Returns the number of decimals used to get its user representation. For example, if `decimals` equals `2`, a balance of `505` tokens should be displayed to a user as `5.05` (`505 / 10 ** 2`). Tokens usually opt for a value of 18, imitating the relationship between Ether and Wei. This is the value {ERC20} uses, unless this function is overridden; NOTE: This information is only used for _display_ purposes: it in no way affects any of the arithmetic of the contract, including {IERC20-balanceOf} and {IERC20-transfer}."
      },
      "decreaseAllowance(address,uint256)": {
        "details": "Atomically decreases the allowance granted to `spender` by the caller. This is an alternative to {approve} that can be used as a mitigation for problems described in {IERC20-approve}. Emits an {Approval} event indicating the updated allowance. Requirements: - `spender` cannot be the zero address. - `spender` must have allowance for the caller of at least `subtractedValue`."
      },
      "increaseAllowance(address,uint256)": {
        "details": "Atomically increases the allowance granted to `spender` by the caller. This is an alternative to {approve} that can be used as a mitigation for problems described in {IERC20-approve}. Emits an {Approval} event indicating the updated allowance. Requirements: - `spender` cannot be the zero address."
      },
      "mint(uint256)": {
        "params": {
          "_value": "the amount to mint   "
        }
      },
      "mintFor(address,uint256)": {
        "params": {
          "_recipient": "the address to receive new coins  ",
          "_value": "the amount to mint "
        }
      },
      "name()": {
        "details": "Returns the name of the token."
      },
      "symbol()": {
        "details": "Returns the symbol of the token, usually a shorter version of the name."
      },
      "totalSupply()": {
        "details": "See {IERC20-totalSupply}."
      },
      "transfer(address,uint256)": {
        "details": "See {IERC20-transfer}. Requirements: - `recipient` cannot be the zero address. - the caller must have a balance of at least `amount`."
      },
      "transferFrom(address,address,uint256)": {
        "details": "See {IERC20-transferFrom}. Emits an {Approval} event indicating the updated allowance. This is not required by the EIP. See the note at the beginning of {ERC20}. Requirements: - `sender` and `recipient` cannot be the zero address. - `sender` must have a balance of at least `amount`. - the caller must have allowance for ``sender``'s tokens of at least `amount`."
      }
    },
    "title": "ERCMerchCoin",
    "version": 1
  },
  "userdoc": {
    "kind": "user",
    "methods": {
      "confiscate(address,uint256)": {
        "notice": "Allow admins to confiscate any number of tokens from any non-admin"
      },
      "mint(uint256)": {
        "notice": "Mint new tokens for self Create '_value' new tokens for msg.sender  msg.sender must be an admin"
      },
      "mintFor(address,uint256)": {
        "notice": "Mint new tokens for someone else Create '_value' new tokens for '_recipient'  msg.sender must be an admin"
      }
    },
    "version": 1
  }
}