{
  "contractName": "MerchCoin",
  "abi": [
    {
      "inputs": [
        {
          "internalType": "uint256",
          "name": "initialSupply",
          "type": "uint256"
        },
        {
          "internalType": "address",
          "name": "_adminContractAddress",
          "type": "address"
        }
      ],
      "stateMutability": "nonpayable",
      "type": "constructor"
    },
    {
      "anonymous": false,
      "inputs": [
        {
          "indexed": true,
          "internalType": "address",
          "name": "owner",
          "type": "address"
        },
        {
          "indexed": true,
          "internalType": "address",
          "name": "spender",
          "type": "address"
        },
        {
          "indexed": false,
          "internalType": "uint256",
          "name": "value",
          "type": "uint256"
        }
      ],
      "name": "Approval",
      "type": "event"
    },
    {
      "anonymous": false,
      "inputs": [
        {
          "indexed": true,
          "internalType": "address",
          "name": "from",
          "type": "address"
        },
        {
          "indexed": true,
          "internalType": "address",
          "name": "to",
          "type": "address"
        },
        {
          "indexed": false,
          "internalType": "uint256",
          "name": "value",
          "type": "uint256"
        }
      ],
      "name": "Transfer",
      "type": "event"
    },
    {
      "inputs": [
        {
          "internalType": "address",
          "name": "owner",
          "type": "address"
        },
        {
          "internalType": "address",
          "name": "spender",
          "type": "address"
        }
      ],
      "name": "allowance",
      "outputs": [
        {
          "internalType": "uint256",
          "name": "",
          "type": "uint256"
        }
      ],
      "stateMutability": "view",
      "type": "function"
    },
    {
      "inputs": [
        {
          "internalType": "address",
          "name": "account",
          "type": "address"
        }
      ],
      "name": "balanceOf",
      "outputs": [
        {
          "internalType": "uint256",
          "name": "",
          "type": "uint256"
        }
      ],
      "stateMutability": "view",
      "type": "function"
    },
    {
      "inputs": [],
      "name": "decimals",
      "outputs": [
        {
          "internalType": "uint8",
          "name": "",
          "type": "uint8"
        }
      ],
      "stateMutability": "view",
      "type": "function"
    },
    {
      "inputs": [
        {
          "internalType": "address",
          "name": "spender",
          "type": "address"
        },
        {
          "internalType": "uint256",
          "name": "subtractedValue",
          "type": "uint256"
        }
      ],
      "name": "decreaseAllowance",
      "outputs": [
        {
          "internalType": "bool",
          "name": "",
          "type": "bool"
        }
      ],
      "stateMutability": "nonpayable",
      "type": "function"
    },
    {
      "inputs": [
        {
          "internalType": "address",
          "name": "spender",
          "type": "address"
        },
        {
          "internalType": "uint256",
          "name": "addedValue",
          "type": "uint256"
        }
      ],
      "name": "increaseAllowance",
      "outputs": [
        {
          "internalType": "bool",
          "name": "",
          "type": "bool"
        }
      ],
      "stateMutability": "nonpayable",
      "type": "function"
    },
    {
      "inputs": [],
      "name": "name",
      "outputs": [
        {
          "internalType": "string",
          "name": "",
          "type": "string"
        }
      ],
      "stateMutability": "view",
      "type": "function"
    },
    {
      "inputs": [],
      "name": "symbol",
      "outputs": [
        {
          "internalType": "string",
          "name": "",
          "type": "string"
        }
      ],
      "stateMutability": "view",
      "type": "function"
    },
    {
      "inputs": [],
      "name": "totalSupply",
      "outputs": [
        {
          "internalType": "uint256",
          "name": "",
          "type": "uint256"
        }
      ],
      "stateMutability": "view",
      "type": "function"
    },
    {
      "inputs": [
        {
          "internalType": "address",
          "name": "_address",
          "type": "address"
        }
      ],
      "name": "getUserType",
      "outputs": [
        {
          "internalType": "uint8",
          "name": "",
          "type": "uint8"
        }
      ],
      "stateMutability": "view",
      "type": "function"
    },
    {
      "inputs": [
        {
          "internalType": "address",
          "name": "_address",
          "type": "address"
        },
        {
          "internalType": "enum MerchCoin.Users",
          "name": "_type",
          "type": "uint8"
        }
      ],
      "name": "setUserType",
      "outputs": [],
      "stateMutability": "nonpayable",
      "type": "function"
    },
    {
      "inputs": [
        {
          "internalType": "address",
          "name": "_new_admin",
          "type": "address"
        }
      ],
      "name": "makeMerchAdmin",
      "outputs": [],
      "stateMutability": "nonpayable",
      "type": "function"
    },
    {
      "inputs": [
        {
          "internalType": "address",
          "name": "_new_prof",
          "type": "address"
        }
      ],
      "name": "makeProf",
      "outputs": [],
      "stateMutability": "nonpayable",
      "type": "function"
    },
    {
      "inputs": [
        {
          "internalType": "address",
          "name": "_new_student",
          "type": "address"
        }
      ],
      "name": "makeStudent",
      "outputs": [],
      "stateMutability": "nonpayable",
      "type": "function"
    },
    {
      "inputs": [
        {
          "internalType": "address",
          "name": "_new_approved",
          "type": "address"
        }
      ],
      "name": "makeApproved",
      "outputs": [],
      "stateMutability": "nonpayable",
      "type": "function"
    },
    {
      "inputs": [
        {
          "internalType": "address",
          "name": "recipient",
          "type": "address"
        },
        {
          "internalType": "uint256",
          "name": "amount",
          "type": "uint256"
        }
      ],
      "name": "transfer",
      "outputs": [
        {
          "internalType": "bool",
          "name": "",
          "type": "bool"
        }
      ],
      "stateMutability": "nonpayable",
      "type": "function"
    },
    {
      "inputs": [
        {
          "internalType": "address",
          "name": "sender",
          "type": "address"
        },
        {
          "internalType": "address",
          "name": "recipient",
          "type": "address"
        },
        {
          "internalType": "uint256",
          "name": "amount",
          "type": "uint256"
        }
      ],
      "name": "transferFrom",
      "outputs": [
        {
          "internalType": "bool",
          "name": "",
          "type": "bool"
        }
      ],
      "stateMutability": "nonpayable",
      "type": "function"
    },
    {
      "inputs": [
        {
          "internalType": "address",
          "name": "spender",
          "type": "address"
        },
        {
          "internalType": "uint256",
          "name": "amount",
          "type": "uint256"
        }
      ],
      "name": "approve",
      "outputs": [
        {
          "internalType": "bool",
          "name": "",
          "type": "bool"
        }
      ],
      "stateMutability": "nonpayable",
      "type": "function"
    },
    {
      "inputs": [
        {
          "internalType": "uint256",
          "name": "_value",
          "type": "uint256"
        }
      ],
      "name": "mint",
      "outputs": [],
      "stateMutability": "nonpayable",
      "type": "function"
    },
    {
      "inputs": [
        {
          "internalType": "address",
          "name": "_recipient",
          "type": "address"
        },
        {
          "internalType": "uint256",
          "name": "_value",
          "type": "uint256"
        }
      ],
      "name": "mintFor",
      "outputs": [],
      "stateMutability": "nonpayable",
      "type": "function"
    },
    {
      "inputs": [
        {
          "internalType": "address",
          "name": "_victim",
          "type": "address"
        },
        {
          "internalType": "uint256",
          "name": "_value",
          "type": "uint256"
        }
      ],
      "name": "confiscate",
      "outputs": [],
      "stateMutability": "nonpayable",
      "type": "function"
    }
  ],
  "bytecode": "0x60806040523480156200001157600080fd5b5060405162002bc738038062002bc783398181016040528101906200003791906200044b565b6040518060400160405280600981526020017f4d65726368436f696e00000000000000000000000000000000000000000000008152506040518060400160405280600381526020017f4d434f00000000000000000000000000000000000000000000000000000000008152508160039080519060200190620000bb9291906200036d565b508060049080519060200190620000d49291906200036d565b50505062000125620000eb620001d960201b60201c565b620000fb620001e160201b60201c565b60ff16600a6200010c9190620005d2565b846200011991906200070f565b620001ea60201b60201c565b6002600560003373ffffffffffffffffffffffffffffffffffffffff1673ffffffffffffffffffffffffffffffffffffffff16815260200190815260200160002060006101000a81548160ff021916908360038111156200018b576200018a62000813565b5b021790555080600660006101000a81548173ffffffffffffffffffffffffffffffffffffffff021916908373ffffffffffffffffffffffffffffffffffffffff1602179055505050620008e0565b600033905090565b60006012905090565b600073ffffffffffffffffffffffffffffffffffffffff168273ffffffffffffffffffffffffffffffffffffffff1614156200025d576040517f08c379a00000000000000000000000000000000000000000000000000000000081526004016200025490620004ca565b60405180910390fd5b62000271600083836200036360201b60201c565b80600260008282546200028591906200051a565b92505081905550806000808473ffffffffffffffffffffffffffffffffffffffff1673ffffffffffffffffffffffffffffffffffffffff1681526020019081526020016000206000828254620002dc91906200051a565b925050819055508173ffffffffffffffffffffffffffffffffffffffff16600073ffffffffffffffffffffffffffffffffffffffff167fddf252ad1be2c89b69c2b068fc378daa952ba7f163c4a11628f55a4df523b3ef83604051620003439190620004ec565b60405180910390a36200035f600083836200036860201b60201c565b5050565b505050565b505050565b8280546200037b90620007ae565b90600052602060002090601f0160209004810192826200039f5760008555620003eb565b82601f10620003ba57805160ff1916838001178555620003eb565b82800160010185558215620003eb579182015b82811115620003ea578251825591602001919060010190620003cd565b5b509050620003fa9190620003fe565b5090565b5b8082111562000419576000816000905550600101620003ff565b5090565b6000815190506200042e81620008ac565b92915050565b6000815190506200044581620008c6565b92915050565b6000806040838503121562000465576200046462000871565b5b6000620004758582860162000434565b925050602062000488858286016200041d565b9150509250929050565b6000620004a1601f8362000509565b9150620004ae8262000883565b602082019050919050565b620004c481620007a4565b82525050565b60006020820190508181036000830152620004e58162000492565b9050919050565b6000602082019050620005036000830184620004b9565b92915050565b600082825260208201905092915050565b60006200052782620007a4565b91506200053483620007a4565b9250827fffffffffffffffffffffffffffffffffffffffffffffffffffffffffffffffff038211156200056c576200056b620007e4565b5b828201905092915050565b6000808291508390505b6001851115620005c957808604811115620005a157620005a0620007e4565b5b6001851615620005b15780820291505b8081029050620005c18562000876565b945062000581565b94509492505050565b6000620005df82620007a4565b9150620005ec83620007a4565b92506200061b7fffffffffffffffffffffffffffffffffffffffffffffffffffffffffffffffff848462000623565b905092915050565b60008262000635576001905062000708565b8162000645576000905062000708565b81600181146200065e576002811462000669576200069f565b600191505062000708565b60ff8411156200067e576200067d620007e4565b5b8360020a915084821115620006985762000697620007e4565b5b5062000708565b5060208310610133831016604e8410600b8410161715620006d95782820a905083811115620006d357620006d2620007e4565b5b62000708565b620006e8848484600162000577565b92509050818404811115620007025762000701620007e4565b5b81810290505b9392505050565b60006200071c82620007a4565b91506200072983620007a4565b9250817fffffffffffffffffffffffffffffffffffffffffffffffffffffffffffffffff0483118215151615620007655762000764620007e4565b5b828202905092915050565b60006200077d8262000784565b9050919050565b600073ffffffffffffffffffffffffffffffffffffffff82169050919050565b6000819050919050565b60006002820490506001821680620007c757607f821691505b60208210811415620007de57620007dd62000842565b5b50919050565b7f4e487b7100000000000000000000000000000000000000000000000000000000600052601160045260246000fd5b7f4e487b7100000000000000000000000000000000000000000000000000000000600052602160045260246000fd5b7f4e487b7100000000000000000000000000000000000000000000000000000000600052602260045260246000fd5b600080fd5b60008160011c9050919050565b7f45524332303a206d696e7420746f20746865207a65726f206164647265737300600082015250565b620008b78162000770565b8114620008c357600080fd5b50565b620008d181620007a4565b8114620008dd57600080fd5b50565b6122d780620008f06000396000f3fe608060405234801561001057600080fd5b506004361061012c5760003560e01c80637c2d07d7116100ad578063a9059cbb11610071578063a9059cbb14610355578063da1919b314610385578063dd62ed3e146103a1578063f1659136146103d1578063f3b5c2a7146103ed5761012c565b80637c2d07d71461029f5780638b3f863f146102bb57806395d89b41146102eb578063a0712d6814610309578063a457c2d7146103255761012c565b806323b872dd116100f457806323b872dd146101d5578063313ce56714610205578063395093511461022357806347298f821461025357806370a082311461026f5761012c565b806306fdde031461013157806307df06ab1461014f57806308a978e61461016b578063095ea7b31461018757806318160ddd146101b7575b600080fd5b610139610409565b6040516101469190611bd8565b60405180910390f35b6101696004803603810190610164919061188c565b61049b565b005b6101856004803603810190610180919061194c565b6105fe565b005b6101a1600480360381019061019c919061198c565b6106e6565b6040516101ae9190611bbd565b60405180910390f35b6101bf610704565b6040516101cc9190611d3a565b60405180910390f35b6101ef60048036038101906101ea91906118f9565b61070e565b6040516101fc9190611bbd565b60405180910390f35b61020d61088a565b60405161021a9190611d55565b60405180910390f35b61023d6004803603810190610238919061198c565b610893565b60405161024a9190611bbd565b60405180910390f35b61026d6004803603810190610268919061198c565b6108ca565b005b6102896004803603810190610284919061188c565b610955565b6040516102969190611d3a565b60405180910390f35b6102b960048036038101906102b4919061188c565b61099d565b005b6102d560048036038101906102d0919061188c565b610a85565b6040516102e29190611d55565b60405180910390f35b6102f3610aed565b6040516103009190611bd8565b60405180910390f35b610323600480360381019061031e91906119cc565b610b7f565b005b61033f600480360381019061033a919061198c565b610c10565b60405161034c9190611bbd565b60405180910390f35b61036f600480360381019061036a919061198c565b610c87565b60405161037c9190611bbd565b60405180910390f35b61039f600480360381019061039a919061198c565b610d9c565b005b6103bb60048036038101906103b691906118b9565b610e61565b6040516103c89190611d3a565b60405180910390f35b6103eb60048036038101906103e6919061188c565b610ee8565b005b6104076004803603810190610402919061188c565b610fd0565b005b60606003805461041890611e9e565b80601f016020809104026020016040519081016040528092919081815260200182805461044490611e9e565b80156104915780601f1061046657610100808354040283529160200191610491565b820191906000526020600020905b81548152906001019060200180831161047457829003601f168201915b5050505050905090565b600160038111156104af576104ae611eff565b5b600560003373ffffffffffffffffffffffffffffffffffffffff1673ffffffffffffffffffffffffffffffffffffffff16815260200190815260200160002060009054906101000a900460ff16600381111561050e5761050d611eff565b5b148061058a57506002600381111561052957610528611eff565b5b600560003373ffffffffffffffffffffffffffffffffffffffff1673ffffffffffffffffffffffffffffffffffffffff16815260200190815260200160002060009054906101000a900460ff16600381111561058857610587611eff565b5b145b61059357600080fd5b6001600560008373ffffffffffffffffffffffffffffffffffffffff1673ffffffffffffffffffffffffffffffffffffffff16815260200190815260200160002060006101000a81548160ff021916908360038111156105f6576105f5611eff565b5b021790555050565b6002600381111561061257610611611eff565b5b600560003373ffffffffffffffffffffffffffffffffffffffff1673ffffffffffffffffffffffffffffffffffffffff16815260200190815260200160002060009054906101000a900460ff16600381111561067157610670611eff565b5b1461067b57600080fd5b80600560008473ffffffffffffffffffffffffffffffffffffffff1673ffffffffffffffffffffffffffffffffffffffff16815260200190815260200160002060006101000a81548160ff021916908360038111156106dd576106dc611eff565b5b02179055505050565b60006106fa6106f36110b8565b84846110c0565b6001905092915050565b6000600254905090565b60006002600381111561072457610723611eff565b5b600560003373ffffffffffffffffffffffffffffffffffffffff1673ffffffffffffffffffffffffffffffffffffffff16815260200190815260200160002060009054906101000a900460ff16600381111561078357610782611eff565b5b14806107fe575060038081111561079d5761079c611eff565b5b600560003373ffffffffffffffffffffffffffffffffffffffff1673ffffffffffffffffffffffffffffffffffffffff16815260200190815260200160002060009054906101000a900460ff1660038111156107fc576107fb611eff565b5b145b61080757600080fd5b61081284848461128b565b6000610825856108206110b8565b610e61565b90508281101561086a576040517f08c379a000000000000000000000000000000000000000000000000000000000815260040161086190611c7a565b60405180910390fd5b61087e856108766110b8565b8584036110c0565b60019150509392505050565b60006012905090565b60008061089e6110b8565b90506108bf8185856108b08589610e61565b6108ba9190611d8c565b6110c0565b600191505092915050565b600260038111156108de576108dd611eff565b5b600560003373ffffffffffffffffffffffffffffffffffffffff1673ffffffffffffffffffffffffffffffffffffffff16815260200190815260200160002060009054906101000a900460ff16600381111561093d5761093c611eff565b5b1461094757600080fd5b610951828261150c565b5050565b60008060008373ffffffffffffffffffffffffffffffffffffffff1673ffffffffffffffffffffffffffffffffffffffff168152602001908152602001600020549050919050565b600260038111156109b1576109b0611eff565b5b600560003373ffffffffffffffffffffffffffffffffffffffff1673ffffffffffffffffffffffffffffffffffffffff16815260200190815260200160002060009054906101000a900460ff166003811115610a1057610a0f611eff565b5b14610a1a57600080fd5b6000600560008373ffffffffffffffffffffffffffffffffffffffff1673ffffffffffffffffffffffffffffffffffffffff16815260200190815260200160002060006101000a81548160ff02191690836003811115610a7d57610a7c611eff565b5b021790555050565b6000600560008373ffffffffffffffffffffffffffffffffffffffff1673ffffffffffffffffffffffffffffffffffffffff16815260200190815260200160002060009054906101000a900460ff166003811115610ae657610ae5611eff565b5b9050919050565b606060048054610afc90611e9e565b80601f0160208091040260200160405190810160405280929190818152602001828054610b2890611e9e565b8015610b755780601f10610b4a57610100808354040283529160200191610b75565b820191906000526020600020905b815481529060010190602001808311610b5857829003601f168201915b5050505050905090565b60026003811115610b9357610b92611eff565b5b600560003373ffffffffffffffffffffffffffffffffffffffff1673ffffffffffffffffffffffffffffffffffffffff16815260200190815260200160002060009054906101000a900460ff166003811115610bf257610bf1611eff565b5b14610bfc57600080fd5b610c0d610c076110b8565b826116e3565b50565b600080610c1b6110b8565b90506000610c298286610e61565b905083811015610c6e576040517f08c379a0000000000000000000000000000000000000000000000000000000008152600401610c6590611cfa565b60405180910390fd5b610c7b82868684036110c0565b60019250505092915050565b600060026003811115610c9d57610c9c611eff565b5b600560003373ffffffffffffffffffffffffffffffffffffffff1673ffffffffffffffffffffffffffffffffffffffff16815260200190815260200160002060009054906101000a900460ff166003811115610cfc57610cfb611eff565b5b1480610d775750600380811115610d1657610d15611eff565b5b600560003373ffffffffffffffffffffffffffffffffffffffff1673ffffffffffffffffffffffffffffffffffffffff16815260200190815260200160002060009054906101000a900460ff166003811115610d7557610d74611eff565b5b145b610d8057600080fd5b610d92610d8b6110b8565b848461128b565b6001905092915050565b60026003811115610db057610daf611eff565b5b600560003373ffffffffffffffffffffffffffffffffffffffff1673ffffffffffffffffffffffffffffffffffffffff16815260200190815260200160002060009054906101000a900460ff166003811115610e0f57610e0e611eff565b5b14610e1957600080fd5b600073ffffffffffffffffffffffffffffffffffffffff168273ffffffffffffffffffffffffffffffffffffffff161415610e5357600080fd5b610e5d82826116e3565b5050565b6000600160008473ffffffffffffffffffffffffffffffffffffffff1673ffffffffffffffffffffffffffffffffffffffff16815260200190815260200160002060008373ffffffffffffffffffffffffffffffffffffffff1673ffffffffffffffffffffffffffffffffffffffff16815260200190815260200160002054905092915050565b60026003811115610efc57610efb611eff565b5b600560003373ffffffffffffffffffffffffffffffffffffffff1673ffffffffffffffffffffffffffffffffffffffff16815260200190815260200160002060009054906101000a900460ff166003811115610f5b57610f5a611eff565b5b14610f6557600080fd5b6002600560008373ffffffffffffffffffffffffffffffffffffffff1673ffffffffffffffffffffffffffffffffffffffff16815260200190815260200160002060006101000a81548160ff02191690836003811115610fc857610fc7611eff565b5b021790555050565b60026003811115610fe457610fe3611eff565b5b600560003373ffffffffffffffffffffffffffffffffffffffff1673ffffffffffffffffffffffffffffffffffffffff16815260200190815260200160002060009054906101000a900460ff16600381111561104357611042611eff565b5b1461104d57600080fd5b6003600560008373ffffffffffffffffffffffffffffffffffffffff1673ffffffffffffffffffffffffffffffffffffffff16815260200190815260200160002060006101000a81548160ff021916908360038111156110b0576110af611eff565b5b021790555050565b600033905090565b600073ffffffffffffffffffffffffffffffffffffffff168373ffffffffffffffffffffffffffffffffffffffff161415611130576040517f08c379a000000000000000000000000000000000000000000000000000000000815260040161112790611cda565b60405180910390fd5b600073ffffffffffffffffffffffffffffffffffffffff168273ffffffffffffffffffffffffffffffffffffffff1614156111a0576040517f08c379a000000000000000000000000000000000000000000000000000000000815260040161119790611c3a565b60405180910390fd5b80600160008573ffffffffffffffffffffffffffffffffffffffff1673ffffffffffffffffffffffffffffffffffffffff16815260200190815260200160002060008473ffffffffffffffffffffffffffffffffffffffff1673ffffffffffffffffffffffffffffffffffffffff168152602001908152602001600020819055508173ffffffffffffffffffffffffffffffffffffffff168373ffffffffffffffffffffffffffffffffffffffff167f8c5be1e5ebec7d5bd14f71427d1e84f3dd0314c0f7b2291e5b200ac8c7c3b9258360405161127e9190611d3a565b60405180910390a3505050565b600073ffffffffffffffffffffffffffffffffffffffff168373ffffffffffffffffffffffffffffffffffffffff1614156112fb576040517f08c379a00000000000000000000000000000000000000000000000000000000081526004016112f290611cba565b60405180910390fd5b600073ffffffffffffffffffffffffffffffffffffffff168273ffffffffffffffffffffffffffffffffffffffff16141561136b576040517f08c379a000000000000000000000000000000000000000000000000000000000815260040161136290611bfa565b60405180910390fd5b611376838383611843565b60008060008573ffffffffffffffffffffffffffffffffffffffff1673ffffffffffffffffffffffffffffffffffffffff168152602001908152602001600020549050818110156113fc576040517f08c379a00000000000000000000000000000000000000000000000000000000081526004016113f390611c5a565b60405180910390fd5b8181036000808673ffffffffffffffffffffffffffffffffffffffff1673ffffffffffffffffffffffffffffffffffffffff16815260200190815260200160002081905550816000808573ffffffffffffffffffffffffffffffffffffffff1673ffffffffffffffffffffffffffffffffffffffff168152602001908152602001600020600082825461148f9190611d8c565b925050819055508273ffffffffffffffffffffffffffffffffffffffff168473ffffffffffffffffffffffffffffffffffffffff167fddf252ad1be2c89b69c2b068fc378daa952ba7f163c4a11628f55a4df523b3ef846040516114f39190611d3a565b60405180910390a3611506848484611848565b50505050565b600073ffffffffffffffffffffffffffffffffffffffff168273ffffffffffffffffffffffffffffffffffffffff16141561157c576040517f08c379a000000000000000000000000000000000000000000000000000000000815260040161157390611c9a565b60405180910390fd5b61158882600083611843565b60008060008473ffffffffffffffffffffffffffffffffffffffff1673ffffffffffffffffffffffffffffffffffffffff1681526020019081526020016000205490508181101561160e576040517f08c379a000000000000000000000000000000000000000000000000000000000815260040161160590611c1a565b60405180910390fd5b8181036000808573ffffffffffffffffffffffffffffffffffffffff1673ffffffffffffffffffffffffffffffffffffffff1681526020019081526020016000208190555081600260008282546116659190611de2565b92505081905550600073ffffffffffffffffffffffffffffffffffffffff168373ffffffffffffffffffffffffffffffffffffffff167fddf252ad1be2c89b69c2b068fc378daa952ba7f163c4a11628f55a4df523b3ef846040516116ca9190611d3a565b60405180910390a36116de83600084611848565b505050565b600073ffffffffffffffffffffffffffffffffffffffff168273ffffffffffffffffffffffffffffffffffffffff161415611753576040517f08c379a000000000000000000000000000000000000000000000000000000000815260040161174a90611d1a565b60405180910390fd5b61175f60008383611843565b80600260008282546117719190611d8c565b92505081905550806000808473ffffffffffffffffffffffffffffffffffffffff1673ffffffffffffffffffffffffffffffffffffffff16815260200190815260200160002060008282546117c69190611d8c565b925050819055508173ffffffffffffffffffffffffffffffffffffffff16600073ffffffffffffffffffffffffffffffffffffffff167fddf252ad1be2c89b69c2b068fc378daa952ba7f163c4a11628f55a4df523b3ef8360405161182b9190611d3a565b60405180910390a361183f60008383611848565b5050565b505050565b505050565b60008135905061185c81612263565b92915050565b6000813590506118718161227a565b92915050565b6000813590506118868161228a565b92915050565b6000602082840312156118a2576118a1611f5d565b5b60006118b08482850161184d565b91505092915050565b600080604083850312156118d0576118cf611f5d565b5b60006118de8582860161184d565b92505060206118ef8582860161184d565b9150509250929050565b60008060006060848603121561191257611911611f5d565b5b60006119208682870161184d565b93505060206119318682870161184d565b925050604061194286828701611877565b9150509250925092565b6000806040838503121561196357611962611f5d565b5b60006119718582860161184d565b925050602061198285828601611862565b9150509250929050565b600080604083850312156119a3576119a2611f5d565b5b60006119b18582860161184d565b92505060206119c285828601611877565b9150509250929050565b6000602082840312156119e2576119e1611f5d565b5b60006119f084828501611877565b91505092915050565b611a0281611e28565b82525050565b6000611a1382611d70565b611a1d8185611d7b565b9350611a2d818560208601611e6b565b611a3681611f62565b840191505092915050565b6000611a4e602383611d7b565b9150611a5982611f73565b604082019050919050565b6000611a71602283611d7b565b9150611a7c82611fc2565b604082019050919050565b6000611a94602283611d7b565b9150611a9f82612011565b604082019050919050565b6000611ab7602683611d7b565b9150611ac282612060565b604082019050919050565b6000611ada602883611d7b565b9150611ae5826120af565b604082019050919050565b6000611afd602183611d7b565b9150611b08826120fe565b604082019050919050565b6000611b20602583611d7b565b9150611b2b8261214d565b604082019050919050565b6000611b43602483611d7b565b9150611b4e8261219c565b604082019050919050565b6000611b66602583611d7b565b9150611b71826121eb565b604082019050919050565b6000611b89601f83611d7b565b9150611b948261223a565b602082019050919050565b611ba881611e54565b82525050565b611bb781611e5e565b82525050565b6000602082019050611bd260008301846119f9565b92915050565b60006020820190508181036000830152611bf28184611a08565b905092915050565b60006020820190508181036000830152611c1381611a41565b9050919050565b60006020820190508181036000830152611c3381611a64565b9050919050565b60006020820190508181036000830152611c5381611a87565b9050919050565b60006020820190508181036000830152611c7381611aaa565b9050919050565b60006020820190508181036000830152611c9381611acd565b9050919050565b60006020820190508181036000830152611cb381611af0565b9050919050565b60006020820190508181036000830152611cd381611b13565b9050919050565b60006020820190508181036000830152611cf381611b36565b9050919050565b60006020820190508181036000830152611d1381611b59565b9050919050565b60006020820190508181036000830152611d3381611b7c565b9050919050565b6000602082019050611d4f6000830184611b9f565b92915050565b6000602082019050611d6a6000830184611bae565b92915050565b600081519050919050565b600082825260208201905092915050565b6000611d9782611e54565b9150611da283611e54565b9250827fffffffffffffffffffffffffffffffffffffffffffffffffffffffffffffffff03821115611dd757611dd6611ed0565b5b828201905092915050565b6000611ded82611e54565b9150611df883611e54565b925082821015611e0b57611e0a611ed0565b5b828203905092915050565b6000611e2182611e34565b9050919050565b60008115159050919050565b600073ffffffffffffffffffffffffffffffffffffffff82169050919050565b6000819050919050565b600060ff82169050919050565b60005b83811015611e89578082015181840152602081019050611e6e565b83811115611e98576000848401525b50505050565b60006002820490506001821680611eb657607f821691505b60208210811415611eca57611ec9611f2e565b5b50919050565b7f4e487b7100000000000000000000000000000000000000000000000000000000600052601160045260246000fd5b7f4e487b7100000000000000000000000000000000000000000000000000000000600052602160045260246000fd5b7f4e487b7100000000000000000000000000000000000000000000000000000000600052602260045260246000fd5b600080fd5b6000601f19601f8301169050919050565b7f45524332303a207472616e7366657220746f20746865207a65726f206164647260008201527f6573730000000000000000000000000000000000000000000000000000000000602082015250565b7f45524332303a206275726e20616d6f756e7420657863656564732062616c616e60008201527f6365000000000000000000000000000000000000000000000000000000000000602082015250565b7f45524332303a20617070726f766520746f20746865207a65726f20616464726560008201527f7373000000000000000000000000000000000000000000000000000000000000602082015250565b7f45524332303a207472616e7366657220616d6f756e742065786365656473206260008201527f616c616e63650000000000000000000000000000000000000000000000000000602082015250565b7f45524332303a207472616e7366657220616d6f756e742065786365656473206160008201527f6c6c6f77616e6365000000000000000000000000000000000000000000000000602082015250565b7f45524332303a206275726e2066726f6d20746865207a65726f2061646472657360008201527f7300000000000000000000000000000000000000000000000000000000000000602082015250565b7f45524332303a207472616e736665722066726f6d20746865207a65726f20616460008201527f6472657373000000000000000000000000000000000000000000000000000000602082015250565b7f45524332303a20617070726f76652066726f6d20746865207a65726f2061646460008201527f7265737300000000000000000000000000000000000000000000000000000000602082015250565b7f45524332303a2064656372656173656420616c6c6f77616e63652062656c6f7760008201527f207a65726f000000000000000000000000000000000000000000000000000000602082015250565b7f45524332303a206d696e7420746f20746865207a65726f206164647265737300600082015250565b61226c81611e16565b811461227757600080fd5b50565b6004811061228757600080fd5b50565b61229381611e54565b811461229e57600080fd5b5056fea26469706673582212202ff0ea8de58dcffa9a8ac758e143c6fd638c7a937cd32d6831197165869e334864736f6c63430008060033",
  "immutableReferences": {},
  "source": "// SPDX-License-Identifier: MIT\r\npragma solidity ^0.8.6;\r\n\r\nimport \"./Libraries.sol\";\r\nimport \"@openzeppelin/contracts/utils/Context.sol\";\r\nimport \"@openzeppelin/contracts/token/ERC20/ERC20.sol\";\r\nimport \"@openzeppelin/contracts/access/Ownable.sol\";\r\n\r\n/**\r\n * @title ERCMerchCoin\r\n * @dev ERC20 Rendition of MerchCoin\r\n * TODO Make Untransferable from party to party\r\n */\r\n\r\n contract MerchCoin is Context, ERC20 {\r\n\r\n    //Binding to Admin check functions\r\n    using Accessibility for address;\r\n    using UtilFunctions for string;\r\n    //User Groups and Setters\r\n    enum Users {student, prof, merchAdmin, approvedContract}          // order matters, bc 0 is default in mapping (student)\r\n    mapping (address => Users) userType;\r\n    address adminContractAddress;\r\n\r\n    function getUserType(address _address) public view returns (uint8){\r\n        return uint8(userType[_address]);\r\n    }\r\n\r\n    function setUserType(address _address, Users _type) public onlyMerchAdmin{ //onlyMerchAdmin - TODO add back\r\n        userType[_address] = _type;\r\n    }\r\n\r\n    modifier onlyMerchAdmin () {\r\n        require(userType[msg.sender]==Users.merchAdmin);\r\n        _;\r\n    }\r\n\r\n    modifier onlyProf () {\r\n        require(userType[msg.sender]==Users.prof);\r\n        _;\r\n    }\r\n    \r\n    modifier onlyStudent () {\r\n        require(userType[msg.sender]==Users.student);\r\n        _;\r\n    }\r\n\r\n    modifier onlyApproved () {\r\n        require(userType[msg.sender]==Users.merchAdmin||userType[msg.sender]==Users.approvedContract);\r\n        _;\r\n    }\r\n\r\n\r\n    modifier nonStudent () {\r\n        require ((userType[msg.sender]==Users.prof) || (userType[msg.sender]==Users.merchAdmin));\r\n        _;\r\n    }\r\n\r\n    function makeMerchAdmin (address _new_admin) public onlyMerchAdmin {\r\n        userType[_new_admin] = Users.merchAdmin;\r\n    }\r\n\r\n    function makeProf (address _new_prof) public nonStudent {\r\n        userType[_new_prof] = Users.prof;\r\n    }\r\n\r\n    function makeStudent (address _new_student) public onlyMerchAdmin {\r\n        userType[_new_student] = Users.student;\r\n    }\r\n\r\n    function makeApproved (address _new_approved) public onlyMerchAdmin {\r\n        userType[_new_approved] = Users.approvedContract;\r\n    }\r\n\r\n    /**\r\n     * @dev Constructor that gives _msgSender() all of existing tokens.\r\n     */\r\n    constructor (uint256 initialSupply,address _adminContractAddress) public ERC20(\"MerchCoin\", \"MCO\") {\r\n        _mint(_msgSender(), initialSupply * (10 ** uint256(decimals())));\r\n        userType[msg.sender] = Users.merchAdmin;\r\n        adminContractAddress = _adminContractAddress;\r\n    }\r\n\r\n     /**\r\n     * @dev See {IERC20-transfer}.\r\n     *\r\n     * Requirements:\r\n     *\r\n     * - `recipient` cannot be the zero address.\r\n     * - the caller must have a balance of at least `amount`.\r\n     */\r\n\r\n    function transfer(address recipient, uint256 amount) public override onlyApproved returns (bool) {\r\n        _transfer(_msgSender(), recipient, amount);\r\n        return true;\r\n    }\r\n\r\n    /**\r\n     * @dev See {IERC20-transferFrom}.\r\n     *\r\n     * Emits an {Approval} event indicating the updated allowance. This is not\r\n     * required by the EIP. See the note at the beginning of {ERC20}.\r\n     *\r\n     * Requirements:\r\n     *\r\n     * - `sender` and `recipient` cannot be the zero address.\r\n     * - `sender` must have a balance of at least `amount`.\r\n     * - the caller must have allowance for ``sender``'s tokens of at least\r\n     * `amount`.\r\n     */\r\n\r\n    function transferFrom(\r\n        address sender,\r\n        address recipient,\r\n        uint256 amount\r\n    ) onlyApproved public override  returns (bool) {\r\n        _transfer(sender, recipient, amount);\r\n\r\n        uint256 currentAllowance = allowance(sender,_msgSender());\r\n        require(currentAllowance >= amount, \"ERC20: transfer amount exceeds allowance\");\r\n        unchecked {\r\n            _approve(sender, _msgSender(), currentAllowance - amount);\r\n        }\r\n\r\n        return true;\r\n    }\r\n\r\n    /**\r\n     * @dev See {IERC20-approve}.\r\n     *\r\n     * Requirements:\r\n     *\r\n     * - `spender` cannot be the zero address.\r\n     */\r\n    function approve(address spender, uint256 amount) public override  returns (bool) {\r\n        _approve(_msgSender(), spender, amount);\r\n        return true;\r\n    }\r\n    \r\n    /**\r\n     * Mint new tokens for self\r\n     *\r\n     * Create '_value' new tokens for msg.sender\r\n     * \r\n     * msg.sender must be an admin\r\n     * @param _value the amount to mint   \r\n     */\r\n    function mint(uint256 _value) onlyMerchAdmin public{\r\n        _mint(_msgSender(), _value);\r\n\r\n    }\r\n\r\n    /**\r\n     * Mint new tokens for someone else\r\n     *\r\n     * Create '_value' new tokens for '_recipient'\r\n     * \r\n     * msg.sender must be an admin\r\n     * @param _value the amount to mint \r\n     * @param _recipient the address to receive new coins  \r\n     */\r\n     function mintFor (address _recipient, uint256 _value) onlyMerchAdmin public{\r\n        require(_recipient != address(0x0));    // make sure 0x0 address doesn't get new coins\r\n        _mint(_recipient,_value);        // give fresh coins to a specific account\r\n    }\r\n\r\n    /**\r\n     * Allow admins to confiscate any number of tokens from any non-admin\r\n     * @param _victim denotes address to lose the token; must not be admin\r\n     * @param _value amount to be confiscated\r\n     * msg.sender must be admin \r\n     * tokens will just be burnt\r\n     */\r\n    function confiscate(address _victim, uint256 _value) onlyMerchAdmin public {\r\n        _burn(_victim,_value);               // remove that many coins from victim\r\n    }\r\n}",
  "sourcePath": "D:\\IBlock\\truffle\\contracts\\MerchCoin.sol",
  "compiler": {
    "name": "solc",
    "version": "0.8.6+commit.11564f7e.Emscripten.clang"
  },
  "schemaVersion": "3.4.10",
  "updatedAt": "2022-10-20T23:58:33.969Z",
  "devdoc": {
    "details": "ERC20 Rendition of MerchCoin TODO Make Untransferable from party to party",
    "kind": "dev",
    "methods": {
      "allowance(address,address)": {
        "details": "See {IERC20-allowance}."
      },
      "approve(address,uint256)": {
        "details": "See {IERC20-approve}. Requirements: - `spender` cannot be the zero address."
      },
      "balanceOf(address)": {
        "details": "See {IERC20-balanceOf}."
      },
      "confiscate(address,uint256)": {
        "params": {
          "_value": "amount to be confiscated msg.sender must be admin  tokens will just be burnt",
          "_victim": "denotes address to lose the token; must not be admin"
        }
      },
      "constructor": {
        "details": "Constructor that gives _msgSender() all of existing tokens."
      },
      "decimals()": {
        "details": "Returns the number of decimals used to get its user representation. For example, if `decimals` equals `2`, a balance of `505` tokens should be displayed to a user as `5.05` (`505 / 10 ** 2`). Tokens usually opt for a value of 18, imitating the relationship between Ether and Wei. This is the value {ERC20} uses, unless this function is overridden; NOTE: This information is only used for _display_ purposes: it in no way affects any of the arithmetic of the contract, including {IERC20-balanceOf} and {IERC20-transfer}."
      },
      "decreaseAllowance(address,uint256)": {
        "details": "Atomically decreases the allowance granted to `spender` by the caller. This is an alternative to {approve} that can be used as a mitigation for problems described in {IERC20-approve}. Emits an {Approval} event indicating the updated allowance. Requirements: - `spender` cannot be the zero address. - `spender` must have allowance for the caller of at least `subtractedValue`."
      },
      "increaseAllowance(address,uint256)": {
        "details": "Atomically increases the allowance granted to `spender` by the caller. This is an alternative to {approve} that can be used as a mitigation for problems described in {IERC20-approve}. Emits an {Approval} event indicating the updated allowance. Requirements: - `spender` cannot be the zero address."
      },
      "mint(uint256)": {
        "params": {
          "_value": "the amount to mint   "
        }
      },
      "mintFor(address,uint256)": {
        "params": {
          "_recipient": "the address to receive new coins  ",
          "_value": "the amount to mint "
        }
      },
      "name()": {
        "details": "Returns the name of the token."
      },
      "symbol()": {
        "details": "Returns the symbol of the token, usually a shorter version of the name."
      },
      "totalSupply()": {
        "details": "See {IERC20-totalSupply}."
      },
      "transfer(address,uint256)": {
        "details": "See {IERC20-transfer}. Requirements: - `recipient` cannot be the zero address. - the caller must have a balance of at least `amount`."
      },
      "transferFrom(address,address,uint256)": {
        "details": "See {IERC20-transferFrom}. Emits an {Approval} event indicating the updated allowance. This is not required by the EIP. See the note at the beginning of {ERC20}. Requirements: - `sender` and `recipient` cannot be the zero address. - `sender` must have a balance of at least `amount`. - the caller must have allowance for ``sender``'s tokens of at least `amount`."
      }
    },
    "title": "ERCMerchCoin",
    "version": 1
  },
  "userdoc": {
    "kind": "user",
    "methods": {
      "confiscate(address,uint256)": {
        "notice": "Allow admins to confiscate any number of tokens from any non-admin"
      },
      "mint(uint256)": {
        "notice": "Mint new tokens for self Create '_value' new tokens for msg.sender  msg.sender must be an admin"
      },
      "mintFor(address,uint256)": {
        "notice": "Mint new tokens for someone else Create '_value' new tokens for '_recipient'  msg.sender must be an admin"
      }
    },
    "version": 1
  }
}