{
  "contractName": "NFT",
  "abi": [
    {
      "inputs": [
        {
          "internalType": "address",
          "name": "marketplaceAddress",
          "type": "address"
        }
      ],
      "stateMutability": "nonpayable",
      "type": "constructor"
    },
    {
      "anonymous": false,
      "inputs": [
        {
          "indexed": true,
          "internalType": "address",
          "name": "owner",
          "type": "address"
        },
        {
          "indexed": true,
          "internalType": "address",
          "name": "approved",
          "type": "address"
        },
        {
          "indexed": true,
          "internalType": "uint256",
          "name": "tokenId",
          "type": "uint256"
        }
      ],
      "name": "Approval",
      "type": "event"
    },
    {
      "anonymous": false,
      "inputs": [
        {
          "indexed": true,
          "internalType": "address",
          "name": "owner",
          "type": "address"
        },
        {
          "indexed": true,
          "internalType": "address",
          "name": "operator",
          "type": "address"
        },
        {
          "indexed": false,
          "internalType": "bool",
          "name": "approved",
          "type": "bool"
        }
      ],
      "name": "ApprovalForAll",
      "type": "event"
    },
    {
      "anonymous": false,
      "inputs": [
        {
          "indexed": true,
          "internalType": "address",
          "name": "from",
          "type": "address"
        },
        {
          "indexed": true,
          "internalType": "address",
          "name": "to",
          "type": "address"
        },
        {
          "indexed": true,
          "internalType": "uint256",
          "name": "tokenId",
          "type": "uint256"
        }
      ],
      "name": "Transfer",
      "type": "event"
    },
    {
      "inputs": [
        {
          "internalType": "address",
          "name": "to",
          "type": "address"
        },
        {
          "internalType": "uint256",
          "name": "tokenId",
          "type": "uint256"
        }
      ],
      "name": "approve",
      "outputs": [],
      "stateMutability": "nonpayable",
      "type": "function"
    },
    {
      "inputs": [
        {
          "internalType": "address",
          "name": "owner",
          "type": "address"
        }
      ],
      "name": "balanceOf",
      "outputs": [
        {
          "internalType": "uint256",
          "name": "",
          "type": "uint256"
        }
      ],
      "stateMutability": "view",
      "type": "function"
    },
    {
      "inputs": [
        {
          "internalType": "uint256",
          "name": "tokenId",
          "type": "uint256"
        }
      ],
      "name": "getApproved",
      "outputs": [
        {
          "internalType": "address",
          "name": "",
          "type": "address"
        }
      ],
      "stateMutability": "view",
      "type": "function"
    },
    {
      "inputs": [
        {
          "internalType": "address",
          "name": "owner",
          "type": "address"
        },
        {
          "internalType": "address",
          "name": "operator",
          "type": "address"
        }
      ],
      "name": "isApprovedForAll",
      "outputs": [
        {
          "internalType": "bool",
          "name": "",
          "type": "bool"
        }
      ],
      "stateMutability": "view",
      "type": "function"
    },
    {
      "inputs": [],
      "name": "name",
      "outputs": [
        {
          "internalType": "string",
          "name": "",
          "type": "string"
        }
      ],
      "stateMutability": "view",
      "type": "function"
    },
    {
      "inputs": [
        {
          "internalType": "uint256",
          "name": "tokenId",
          "type": "uint256"
        }
      ],
      "name": "ownerOf",
      "outputs": [
        {
          "internalType": "address",
          "name": "",
          "type": "address"
        }
      ],
      "stateMutability": "view",
      "type": "function"
    },
    {
      "inputs": [
        {
          "internalType": "address",
          "name": "from",
          "type": "address"
        },
        {
          "internalType": "address",
          "name": "to",
          "type": "address"
        },
        {
          "internalType": "uint256",
          "name": "tokenId",
          "type": "uint256"
        }
      ],
      "name": "safeTransferFrom",
      "outputs": [],
      "stateMutability": "nonpayable",
      "type": "function"
    },
    {
      "inputs": [
        {
          "internalType": "address",
          "name": "from",
          "type": "address"
        },
        {
          "internalType": "address",
          "name": "to",
          "type": "address"
        },
        {
          "internalType": "uint256",
          "name": "tokenId",
          "type": "uint256"
        },
        {
          "internalType": "bytes",
          "name": "data",
          "type": "bytes"
        }
      ],
      "name": "safeTransferFrom",
      "outputs": [],
      "stateMutability": "nonpayable",
      "type": "function"
    },
    {
      "inputs": [
        {
          "internalType": "address",
          "name": "operator",
          "type": "address"
        },
        {
          "internalType": "bool",
          "name": "approved",
          "type": "bool"
        }
      ],
      "name": "setApprovalForAll",
      "outputs": [],
      "stateMutability": "nonpayable",
      "type": "function"
    },
    {
      "inputs": [
        {
          "internalType": "bytes4",
          "name": "interfaceId",
          "type": "bytes4"
        }
      ],
      "name": "supportsInterface",
      "outputs": [
        {
          "internalType": "bool",
          "name": "",
          "type": "bool"
        }
      ],
      "stateMutability": "view",
      "type": "function"
    },
    {
      "inputs": [],
      "name": "symbol",
      "outputs": [
        {
          "internalType": "string",
          "name": "",
          "type": "string"
        }
      ],
      "stateMutability": "view",
      "type": "function"
    },
    {
      "inputs": [
        {
          "internalType": "uint256",
          "name": "tokenId",
          "type": "uint256"
        }
      ],
      "name": "tokenURI",
      "outputs": [
        {
          "internalType": "string",
          "name": "",
          "type": "string"
        }
      ],
      "stateMutability": "view",
      "type": "function"
    },
    {
      "inputs": [
        {
          "internalType": "address",
          "name": "from",
          "type": "address"
        },
        {
          "internalType": "address",
          "name": "to",
          "type": "address"
        },
        {
          "internalType": "uint256",
          "name": "tokenId",
          "type": "uint256"
        }
      ],
      "name": "transferFrom",
      "outputs": [],
      "stateMutability": "nonpayable",
      "type": "function"
    },
    {
      "inputs": [
        {
          "internalType": "string",
          "name": "tokenURI",
          "type": "string"
        }
      ],
      "name": "createToken",
      "outputs": [
        {
          "internalType": "uint256",
          "name": "",
          "type": "uint256"
        }
      ],
      "stateMutability": "nonpayable",
      "type": "function"
    }
  ],
  "bytecode": "0x60806040523480156200001157600080fd5b5060405162002ba138038062002ba18339818101604052810190620000379190620001e6565b6040518060400160405280600981526020017f4d657461766572736500000000000000000000000000000000000000000000008152506040518060400160405280600481526020017f4d455454000000000000000000000000000000000000000000000000000000008152508160009080519060200190620000bb9291906200011f565b508060019080519060200190620000d49291906200011f565b50505080600860006101000a81548173ffffffffffffffffffffffffffffffffffffffff021916908373ffffffffffffffffffffffffffffffffffffffff16021790555050620002d0565b8280546200012d906200024c565b90600052602060002090601f0160209004810192826200015157600085556200019d565b82601f106200016c57805160ff19168380011785556200019d565b828001600101855582156200019d579182015b828111156200019c5782518255916020019190600101906200017f565b5b509050620001ac9190620001b0565b5090565b5b80821115620001cb576000816000905550600101620001b1565b5090565b600081519050620001e081620002b6565b92915050565b600060208284031215620001ff57620001fe620002b1565b5b60006200020f84828501620001cf565b91505092915050565b600062000225826200022c565b9050919050565b600073ffffffffffffffffffffffffffffffffffffffff82169050919050565b600060028204905060018216806200026557607f821691505b602082108114156200027c576200027b62000282565b5b50919050565b7f4e487b7100000000000000000000000000000000000000000000000000000000600052602260045260246000fd5b600080fd5b620002c18162000218565b8114620002cd57600080fd5b50565b6128c180620002e06000396000f3fe608060405234801561001057600080fd5b50600436106100ea5760003560e01c80636352211e1161008c578063a22cb46511610066578063a22cb4651461026f578063b88d4fde1461028b578063c87b56dd146102a7578063e985e9c5146102d7576100ea565b80636352211e146101f157806370a082311461022157806395d89b4114610251576100ea565b8063095ea7b3116100c8578063095ea7b31461016d57806323b872dd1461018957806342842e0e146101a557806345576f94146101c1576100ea565b806301ffc9a7146100ef57806306fdde031461011f578063081812fc1461013d575b600080fd5b61010960048036038101906101049190611b44565b610307565b6040516101169190611f13565b60405180910390f35b6101276103e9565b6040516101349190611f2e565b60405180910390f35b61015760048036038101906101529190611be7565b61047b565b6040516101649190611eac565b60405180910390f35b61018760048036038101906101829190611b04565b6104c1565b005b6101a3600480360381019061019e91906119ee565b6105d9565b005b6101bf60048036038101906101ba91906119ee565b610639565b005b6101db60048036038101906101d69190611b9e565b610659565b6040516101e891906120d0565b60405180910390f35b61020b60048036038101906102069190611be7565b6106bd565b6040516102189190611eac565b60405180910390f35b61023b60048036038101906102369190611981565b61076f565b60405161024891906120d0565b60405180910390f35b610259610827565b6040516102669190611f2e565b60405180910390f35b61028960048036038101906102849190611ac4565b6108b9565b005b6102a560048036038101906102a09190611a41565b6108cf565b005b6102c160048036038101906102bc9190611be7565b610931565b6040516102ce9190611f2e565b60405180910390f35b6102f160048036038101906102ec91906119ae565b610a44565b6040516102fe9190611f13565b60405180910390f35b60007f80ac58cd000000000000000000000000000000000000000000000000000000007bffffffffffffffffffffffffffffffffffffffffffffffffffffffff1916827bffffffffffffffffffffffffffffffffffffffffffffffffffffffff191614806103d257507f5b5e139f000000000000000000000000000000000000000000000000000000007bffffffffffffffffffffffffffffffffffffffffffffffffffffffff1916827bffffffffffffffffffffffffffffffffffffffffffffffffffffffff1916145b806103e257506103e182610ad8565b5b9050919050565b6060600080546103f890612326565b80601f016020809104026020016040519081016040528092919081815260200182805461042490612326565b80156104715780601f1061044657610100808354040283529160200191610471565b820191906000526020600020905b81548152906001019060200180831161045457829003601f168201915b5050505050905090565b600061048682610b42565b6004600083815260200190815260200160002060009054906101000a900473ffffffffffffffffffffffffffffffffffffffff169050919050565b60006104cc826106bd565b90508073ffffffffffffffffffffffffffffffffffffffff168373ffffffffffffffffffffffffffffffffffffffff16141561053d576040517f08c379a000000000000000000000000000000000000000000000000000000000815260040161053490612090565b60405180910390fd5b8073ffffffffffffffffffffffffffffffffffffffff1661055c610b8d565b73ffffffffffffffffffffffffffffffffffffffff16148061058b575061058a81610585610b8d565b610a44565b5b6105ca576040517f08c379a00000000000000000000000000000000000000000000000000000000081526004016105c190612030565b60405180910390fd5b6105d48383610b95565b505050565b6105ea6105e4610b8d565b82610c4e565b610629576040517f08c379a0000000000000000000000000000000000000000000000000000000008152600401610620906120b0565b60405180910390fd5b610634838383610ce3565b505050565b610654838383604051806020016040528060008152506108cf565b505050565b60006106656007610f4a565b60006106716007610f60565b905061067d3382610f6e565b6106878184611148565b6106b4600860009054906101000a900473ffffffffffffffffffffffffffffffffffffffff1660016108b9565b80915050919050565b6000806002600084815260200190815260200160002060009054906101000a900473ffffffffffffffffffffffffffffffffffffffff169050600073ffffffffffffffffffffffffffffffffffffffff168173ffffffffffffffffffffffffffffffffffffffff161415610766576040517f08c379a000000000000000000000000000000000000000000000000000000000815260040161075d90612070565b60405180910390fd5b80915050919050565b60008073ffffffffffffffffffffffffffffffffffffffff168273ffffffffffffffffffffffffffffffffffffffff1614156107e0576040517f08c379a00000000000000000000000000000000000000000000000000000000081526004016107d790611ff0565b60405180910390fd5b600360008373ffffffffffffffffffffffffffffffffffffffff1673ffffffffffffffffffffffffffffffffffffffff168152602001908152602001600020549050919050565b60606001805461083690612326565b80601f016020809104026020016040519081016040528092919081815260200182805461086290612326565b80156108af5780601f10610884576101008083540402835291602001916108af565b820191906000526020600020905b81548152906001019060200180831161089257829003601f168201915b5050505050905090565b6108cb6108c4610b8d565b83836111bc565b5050565b6108e06108da610b8d565b83610c4e565b61091f576040517f08c379a0000000000000000000000000000000000000000000000000000000008152600401610916906120b0565b60405180910390fd5b61092b84848484611329565b50505050565b606061093c82610b42565b600060066000848152602001908152602001600020805461095c90612326565b80601f016020809104026020016040519081016040528092919081815260200182805461098890612326565b80156109d55780601f106109aa576101008083540402835291602001916109d5565b820191906000526020600020905b8154815290600101906020018083116109b857829003601f168201915b5050505050905060006109e6611385565b90506000815114156109fc578192505050610a3f565b600082511115610a31578082604051602001610a19929190611e88565b60405160208183030381529060405292505050610a3f565b610a3a8461139c565b925050505b919050565b6000600560008473ffffffffffffffffffffffffffffffffffffffff1673ffffffffffffffffffffffffffffffffffffffff16815260200190815260200160002060008373ffffffffffffffffffffffffffffffffffffffff1673ffffffffffffffffffffffffffffffffffffffff16815260200190815260200160002060009054906101000a900460ff16905092915050565b60007f01ffc9a7000000000000000000000000000000000000000000000000000000007bffffffffffffffffffffffffffffffffffffffffffffffffffffffff1916827bffffffffffffffffffffffffffffffffffffffffffffffffffffffff1916149050919050565b610b4b81611404565b610b8a576040517f08c379a0000000000000000000000000000000000000000000000000000000008152600401610b8190612070565b60405180910390fd5b50565b600033905090565b816004600083815260200190815260200160002060006101000a81548173ffffffffffffffffffffffffffffffffffffffff021916908373ffffffffffffffffffffffffffffffffffffffff160217905550808273ffffffffffffffffffffffffffffffffffffffff16610c08836106bd565b73ffffffffffffffffffffffffffffffffffffffff167f8c5be1e5ebec7d5bd14f71427d1e84f3dd0314c0f7b2291e5b200ac8c7c3b92560405160405180910390a45050565b600080610c5a836106bd565b90508073ffffffffffffffffffffffffffffffffffffffff168473ffffffffffffffffffffffffffffffffffffffff161480610c9c5750610c9b8185610a44565b5b80610cda57508373ffffffffffffffffffffffffffffffffffffffff16610cc28461047b565b73ffffffffffffffffffffffffffffffffffffffff16145b91505092915050565b8273ffffffffffffffffffffffffffffffffffffffff16610d03826106bd565b73ffffffffffffffffffffffffffffffffffffffff1614610d59576040517f08c379a0000000000000000000000000000000000000000000000000000000008152600401610d5090611f70565b60405180910390fd5b600073ffffffffffffffffffffffffffffffffffffffff168273ffffffffffffffffffffffffffffffffffffffff161415610dc9576040517f08c379a0000000000000000000000000000000000000000000000000000000008152600401610dc090611fb0565b60405180910390fd5b610dd4838383611470565b610ddf600082610b95565b6001600360008573ffffffffffffffffffffffffffffffffffffffff1673ffffffffffffffffffffffffffffffffffffffff1681526020019081526020016000206000828254610e2f919061223c565b925050819055506001600360008473ffffffffffffffffffffffffffffffffffffffff1673ffffffffffffffffffffffffffffffffffffffff1681526020019081526020016000206000828254610e8691906121b5565b92505081905550816002600083815260200190815260200160002060006101000a81548173ffffffffffffffffffffffffffffffffffffffff021916908373ffffffffffffffffffffffffffffffffffffffff160217905550808273ffffffffffffffffffffffffffffffffffffffff168473ffffffffffffffffffffffffffffffffffffffff167fddf252ad1be2c89b69c2b068fc378daa952ba7f163c4a11628f55a4df523b3ef60405160405180910390a4610f45838383611475565b505050565b6001816000016000828254019250508190555050565b600081600001549050919050565b600073ffffffffffffffffffffffffffffffffffffffff168273ffffffffffffffffffffffffffffffffffffffff161415610fde576040517f08c379a0000000000000000000000000000000000000000000000000000000008152600401610fd590612050565b60405180910390fd5b610fe781611404565b15611027576040517f08c379a000000000000000000000000000000000000000000000000000000000815260040161101e90611f90565b60405180910390fd5b61103360008383611470565b6001600360008473ffffffffffffffffffffffffffffffffffffffff1673ffffffffffffffffffffffffffffffffffffffff168152602001908152602001600020600082825461108391906121b5565b92505081905550816002600083815260200190815260200160002060006101000a81548173ffffffffffffffffffffffffffffffffffffffff021916908373ffffffffffffffffffffffffffffffffffffffff160217905550808273ffffffffffffffffffffffffffffffffffffffff16600073ffffffffffffffffffffffffffffffffffffffff167fddf252ad1be2c89b69c2b068fc378daa952ba7f163c4a11628f55a4df523b3ef60405160405180910390a461114460008383611475565b5050565b61115182611404565b611190576040517f08c379a000000000000000000000000000000000000000000000000000000000815260040161118790612010565b60405180910390fd5b806006600084815260200190815260200160002090805190602001906111b7929190611795565b505050565b8173ffffffffffffffffffffffffffffffffffffffff168373ffffffffffffffffffffffffffffffffffffffff16141561122b576040517f08c379a000000000000000000000000000000000000000000000000000000000815260040161122290611fd0565b60405180910390fd5b80600560008573ffffffffffffffffffffffffffffffffffffffff1673ffffffffffffffffffffffffffffffffffffffff16815260200190815260200160002060008473ffffffffffffffffffffffffffffffffffffffff1673ffffffffffffffffffffffffffffffffffffffff16815260200190815260200160002060006101000a81548160ff0219169083151502179055508173ffffffffffffffffffffffffffffffffffffffff168373ffffffffffffffffffffffffffffffffffffffff167f17307eab39ab6107e8899845ad3d59bd9653f200f220920489ca2b5937696c318360405161131c9190611f13565b60405180910390a3505050565b611334848484610ce3565b6113408484848461147a565b61137f576040517f08c379a000000000000000000000000000000000000000000000000000000000815260040161137690611f50565b60405180910390fd5b50505050565b606060405180602001604052806000815250905090565b60606113a782610b42565b60006113b1611385565b905060008151116113d157604051806020016040528060008152506113fc565b806113db84611611565b6040516020016113ec929190611e88565b6040516020818303038152906040525b915050919050565b60008073ffffffffffffffffffffffffffffffffffffffff166002600084815260200190815260200160002060009054906101000a900473ffffffffffffffffffffffffffffffffffffffff1673ffffffffffffffffffffffffffffffffffffffff1614159050919050565b505050565b505050565b600061149b8473ffffffffffffffffffffffffffffffffffffffff16611772565b15611604578373ffffffffffffffffffffffffffffffffffffffff1663150b7a026114c4610b8d565b8786866040518563ffffffff1660e01b81526004016114e69493929190611ec7565b602060405180830381600087803b15801561150057600080fd5b505af192505050801561153157506040513d601f19601f8201168201806040525081019061152e9190611b71565b60015b6115b4573d8060008114611561576040519150601f19603f3d011682016040523d82523d6000602084013e611566565b606091505b506000815114156115ac576040517f08c379a00000000000000000000000000000000000000000000000000000000081526004016115a390611f50565b60405180910390fd5b805181602001fd5b63150b7a0260e01b7bffffffffffffffffffffffffffffffffffffffffffffffffffffffff1916817bffffffffffffffffffffffffffffffffffffffffffffffffffffffff191614915050611609565b600190505b949350505050565b60606000821415611659576040518060400160405280600181526020017f3000000000000000000000000000000000000000000000000000000000000000815250905061176d565b600082905060005b6000821461168b57808061167490612389565b915050600a82611684919061220b565b9150611661565b60008167ffffffffffffffff8111156116a7576116a66124bf565b5b6040519080825280601f01601f1916602001820160405280156116d95781602001600182028036833780820191505090505b5090505b60008514611766576001826116f2919061223c565b9150600a8561170191906123d2565b603061170d91906121b5565b60f81b81838151811061172357611722612490565b5b60200101907effffffffffffffffffffffffffffffffffffffffffffffffffffffffffffff1916908160001a905350600a8561175f919061220b565b94506116dd565b8093505050505b919050565b6000808273ffffffffffffffffffffffffffffffffffffffff163b119050919050565b8280546117a190612326565b90600052602060002090601f0160209004810192826117c3576000855561180a565b82601f106117dc57805160ff191683800117855561180a565b8280016001018555821561180a579182015b828111156118095782518255916020019190600101906117ee565b5b509050611817919061181b565b5090565b5b8082111561183457600081600090555060010161181c565b5090565b600061184b61184684612110565b6120eb565b905082815260208101848484011115611867576118666124f3565b5b6118728482856122e4565b509392505050565b600061188d61188884612141565b6120eb565b9050828152602081018484840111156118a9576118a86124f3565b5b6118b48482856122e4565b509392505050565b6000813590506118cb8161282f565b92915050565b6000813590506118e081612846565b92915050565b6000813590506118f58161285d565b92915050565b60008151905061190a8161285d565b92915050565b600082601f830112611925576119246124ee565b5b8135611935848260208601611838565b91505092915050565b600082601f830112611953576119526124ee565b5b813561196384826020860161187a565b91505092915050565b60008135905061197b81612874565b92915050565b600060208284031215611997576119966124fd565b5b60006119a5848285016118bc565b91505092915050565b600080604083850312156119c5576119c46124fd565b5b60006119d3858286016118bc565b92505060206119e4858286016118bc565b9150509250929050565b600080600060608486031215611a0757611a066124fd565b5b6000611a15868287016118bc565b9350506020611a26868287016118bc565b9250506040611a378682870161196c565b9150509250925092565b60008060008060808587031215611a5b57611a5a6124fd565b5b6000611a69878288016118bc565b9450506020611a7a878288016118bc565b9350506040611a8b8782880161196c565b925050606085013567ffffffffffffffff811115611aac57611aab6124f8565b5b611ab887828801611910565b91505092959194509250565b60008060408385031215611adb57611ada6124fd565b5b6000611ae9858286016118bc565b9250506020611afa858286016118d1565b9150509250929050565b60008060408385031215611b1b57611b1a6124fd565b5b6000611b29858286016118bc565b9250506020611b3a8582860161196c565b9150509250929050565b600060208284031215611b5a57611b596124fd565b5b6000611b68848285016118e6565b91505092915050565b600060208284031215611b8757611b866124fd565b5b6000611b95848285016118fb565b91505092915050565b600060208284031215611bb457611bb36124fd565b5b600082013567ffffffffffffffff811115611bd257611bd16124f8565b5b611bde8482850161193e565b91505092915050565b600060208284031215611bfd57611bfc6124fd565b5b6000611c0b8482850161196c565b91505092915050565b611c1d81612270565b82525050565b611c2c81612282565b82525050565b6000611c3d82612172565b611c478185612188565b9350611c578185602086016122f3565b611c6081612502565b840191505092915050565b6000611c768261217d565b611c808185612199565b9350611c908185602086016122f3565b611c9981612502565b840191505092915050565b6000611caf8261217d565b611cb981856121aa565b9350611cc98185602086016122f3565b80840191505092915050565b6000611ce2603283612199565b9150611ced82612513565b604082019050919050565b6000611d05602583612199565b9150611d1082612562565b604082019050919050565b6000611d28601c83612199565b9150611d33826125b1565b602082019050919050565b6000611d4b602483612199565b9150611d56826125da565b604082019050919050565b6000611d6e601983612199565b9150611d7982612629565b602082019050919050565b6000611d91602983612199565b9150611d9c82612652565b604082019050919050565b6000611db4602e83612199565b9150611dbf826126a1565b604082019050919050565b6000611dd7603e83612199565b9150611de2826126f0565b604082019050919050565b6000611dfa602083612199565b9150611e058261273f565b602082019050919050565b6000611e1d601883612199565b9150611e2882612768565b602082019050919050565b6000611e40602183612199565b9150611e4b82612791565b604082019050919050565b6000611e63602e83612199565b9150611e6e826127e0565b604082019050919050565b611e82816122da565b82525050565b6000611e948285611ca4565b9150611ea08284611ca4565b91508190509392505050565b6000602082019050611ec16000830184611c14565b92915050565b6000608082019050611edc6000830187611c14565b611ee96020830186611c14565b611ef66040830185611e79565b8181036060830152611f088184611c32565b905095945050505050565b6000602082019050611f286000830184611c23565b92915050565b60006020820190508181036000830152611f488184611c6b565b905092915050565b60006020820190508181036000830152611f6981611cd5565b9050919050565b60006020820190508181036000830152611f8981611cf8565b9050919050565b60006020820190508181036000830152611fa981611d1b565b9050919050565b60006020820190508181036000830152611fc981611d3e565b9050919050565b60006020820190508181036000830152611fe981611d61565b9050919050565b6000602082019050818103600083015261200981611d84565b9050919050565b6000602082019050818103600083015261202981611da7565b9050919050565b6000602082019050818103600083015261204981611dca565b9050919050565b6000602082019050818103600083015261206981611ded565b9050919050565b6000602082019050818103600083015261208981611e10565b9050919050565b600060208201905081810360008301526120a981611e33565b9050919050565b600060208201905081810360008301526120c981611e56565b9050919050565b60006020820190506120e56000830184611e79565b92915050565b60006120f5612106565b90506121018282612358565b919050565b6000604051905090565b600067ffffffffffffffff82111561212b5761212a6124bf565b5b61213482612502565b9050602081019050919050565b600067ffffffffffffffff82111561215c5761215b6124bf565b5b61216582612502565b9050602081019050919050565b600081519050919050565b600081519050919050565b600082825260208201905092915050565b600082825260208201905092915050565b600081905092915050565b60006121c0826122da565b91506121cb836122da565b9250827fffffffffffffffffffffffffffffffffffffffffffffffffffffffffffffffff03821115612200576121ff612403565b5b828201905092915050565b6000612216826122da565b9150612221836122da565b92508261223157612230612432565b5b828204905092915050565b6000612247826122da565b9150612252836122da565b92508282101561226557612264612403565b5b828203905092915050565b600061227b826122ba565b9050919050565b60008115159050919050565b60007fffffffff0000000000000000000000000000000000000000000000000000000082169050919050565b600073ffffffffffffffffffffffffffffffffffffffff82169050919050565b6000819050919050565b82818337600083830152505050565b60005b838110156123115780820151818401526020810190506122f6565b83811115612320576000848401525b50505050565b6000600282049050600182168061233e57607f821691505b6020821081141561235257612351612461565b5b50919050565b61236182612502565b810181811067ffffffffffffffff821117156123805761237f6124bf565b5b80604052505050565b6000612394826122da565b91507fffffffffffffffffffffffffffffffffffffffffffffffffffffffffffffffff8214156123c7576123c6612403565b5b600182019050919050565b60006123dd826122da565b91506123e8836122da565b9250826123f8576123f7612432565b5b828206905092915050565b7f4e487b7100000000000000000000000000000000000000000000000000000000600052601160045260246000fd5b7f4e487b7100000000000000000000000000000000000000000000000000000000600052601260045260246000fd5b7f4e487b7100000000000000000000000000000000000000000000000000000000600052602260045260246000fd5b7f4e487b7100000000000000000000000000000000000000000000000000000000600052603260045260246000fd5b7f4e487b7100000000000000000000000000000000000000000000000000000000600052604160045260246000fd5b600080fd5b600080fd5b600080fd5b600080fd5b6000601f19601f8301169050919050565b7f4552433732313a207472616e7366657220746f206e6f6e20455243373231526560008201527f63656976657220696d706c656d656e7465720000000000000000000000000000602082015250565b7f4552433732313a207472616e736665722066726f6d20696e636f72726563742060008201527f6f776e6572000000000000000000000000000000000000000000000000000000602082015250565b7f4552433732313a20746f6b656e20616c7265616479206d696e74656400000000600082015250565b7f4552433732313a207472616e7366657220746f20746865207a65726f2061646460008201527f7265737300000000000000000000000000000000000000000000000000000000602082015250565b7f4552433732313a20617070726f766520746f2063616c6c657200000000000000600082015250565b7f4552433732313a2061646472657373207a65726f206973206e6f74206120766160008201527f6c6964206f776e65720000000000000000000000000000000000000000000000602082015250565b7f45524337323155524953746f726167653a2055524920736574206f66206e6f6e60008201527f6578697374656e7420746f6b656e000000000000000000000000000000000000602082015250565b7f4552433732313a20617070726f76652063616c6c6572206973206e6f7420746f60008201527f6b656e206f776e6572206e6f7220617070726f76656420666f7220616c6c0000602082015250565b7f4552433732313a206d696e7420746f20746865207a65726f2061646472657373600082015250565b7f4552433732313a20696e76616c696420746f6b656e2049440000000000000000600082015250565b7f4552433732313a20617070726f76616c20746f2063757272656e74206f776e6560008201527f7200000000000000000000000000000000000000000000000000000000000000602082015250565b7f4552433732313a2063616c6c6572206973206e6f7420746f6b656e206f776e6560008201527f72206e6f7220617070726f766564000000000000000000000000000000000000602082015250565b61283881612270565b811461284357600080fd5b50565b61284f81612282565b811461285a57600080fd5b50565b6128668161228e565b811461287157600080fd5b50565b61287d816122da565b811461288857600080fd5b5056fea2646970667358221220864d7508a3e15e307b066b3c96e9a8f06508d29527abc2eca515a54e4433fe5f64736f6c63430008060033",
  "immutableReferences": {},
  "source": "// SPDX-License-Identifier: MIT OR Apache-2.0\r\npragma solidity ^0.8.6;\r\n\r\nimport \"@openzeppelin/contracts/token/ERC721/ERC721.sol\";\r\nimport \"@openzeppelin/contracts/token/ERC721/extensions/ERC721URIStorage.sol\";\r\nimport \"@openzeppelin/contracts/utils/Counters.sol\";\r\n\r\ncontract NFT is ERC721URIStorage {\r\n    using Counters for Counters.Counter;\r\n    Counters.Counter private _tokenIds;\r\n    address contractAddress;\r\n\r\n    constructor(address marketplaceAddress) ERC721(\"Metaverse\", \"METT\") {\r\n        contractAddress = marketplaceAddress;\r\n    }\r\n\r\n    function createToken(string memory tokenURI) public returns (uint) {\r\n        _tokenIds.increment();\r\n        uint256 newItemId = _tokenIds.current();\r\n\r\n        _mint(msg.sender, newItemId);\r\n        _setTokenURI(newItemId, tokenURI);\r\n        setApprovalForAll(contractAddress, true);\r\n        return newItemId;\r\n    }\r\n}",
  "sourcePath": "D:\\IBlock\\truffle\\contracts\\NFT.sol",
  "compiler": {
    "name": "solc",
    "version": "0.8.6+commit.11564f7e.Emscripten.clang"
  },
  "schemaVersion": "3.4.10",
  "updatedAt": "2022-10-23T20:55:19.084Z",
  "devdoc": {
    "kind": "dev",
    "methods": {
      "approve(address,uint256)": {
        "details": "See {IERC721-approve}."
      },
      "balanceOf(address)": {
        "details": "See {IERC721-balanceOf}."
      },
      "getApproved(uint256)": {
        "details": "See {IERC721-getApproved}."
      },
      "isApprovedForAll(address,address)": {
        "details": "See {IERC721-isApprovedForAll}."
      },
      "name()": {
        "details": "See {IERC721Metadata-name}."
      },
      "ownerOf(uint256)": {
        "details": "See {IERC721-ownerOf}."
      },
      "safeTransferFrom(address,address,uint256)": {
        "details": "See {IERC721-safeTransferFrom}."
      },
      "safeTransferFrom(address,address,uint256,bytes)": {
        "details": "See {IERC721-safeTransferFrom}."
      },
      "setApprovalForAll(address,bool)": {
        "details": "See {IERC721-setApprovalForAll}."
      },
      "supportsInterface(bytes4)": {
        "details": "See {IERC165-supportsInterface}."
      },
      "symbol()": {
        "details": "See {IERC721Metadata-symbol}."
      },
      "tokenURI(uint256)": {
        "details": "See {IERC721Metadata-tokenURI}."
      },
      "transferFrom(address,address,uint256)": {
        "details": "See {IERC721-transferFrom}."
      }
    },
    "version": 1
  },
  "userdoc": {
    "kind": "user",
    "methods": {},
    "version": 1
  }
}