{
  "contractName": "NFTMarket",
  "abi": [
    {
      "inputs": [
        {
          "internalType": "contract IERC20",
          "name": "_mcoToken",
          "type": "address"
        },
        {
          "internalType": "contract IERC20",
          "name": "_gcoToken",
          "type": "address"
        }
      ],
      "stateMutability": "nonpayable",
      "type": "constructor"
    },
    {
      "anonymous": false,
      "inputs": [
        {
          "indexed": true,
          "internalType": "uint256",
          "name": "itemId",
          "type": "uint256"
        },
        {
          "indexed": true,
          "internalType": "address",
          "name": "nftContract",
          "type": "address"
        },
        {
          "indexed": true,
          "internalType": "uint256",
          "name": "tokenId",
          "type": "uint256"
        },
        {
          "indexed": false,
          "internalType": "address",
          "name": "seller",
          "type": "address"
        },
        {
          "indexed": false,
          "internalType": "address",
          "name": "owner",
          "type": "address"
        }
      ],
      "name": "MarketItemCreated",
      "type": "event"
    },
    {
      "anonymous": false,
      "inputs": [
        {
          "indexed": true,
          "internalType": "uint256",
          "name": "itemId",
          "type": "uint256"
        },
        {
          "indexed": true,
          "internalType": "address",
          "name": "nftContract",
          "type": "address"
        },
        {
          "indexed": true,
          "internalType": "uint256",
          "name": "tokenId",
          "type": "uint256"
        },
        {
          "indexed": false,
          "internalType": "address",
          "name": "lister",
          "type": "address"
        },
        {
          "indexed": false,
          "internalType": "uint256",
          "name": "price",
          "type": "uint256"
        }
      ],
      "name": "MarketListingCreated",
      "type": "event"
    },
    {
      "anonymous": false,
      "inputs": [
        {
          "indexed": false,
          "internalType": "address",
          "name": "_senderAddress",
          "type": "address"
        },
        {
          "indexed": false,
          "internalType": "address",
          "name": "_destAddress",
          "type": "address"
        },
        {
          "indexed": false,
          "internalType": "uint256",
          "name": "_amount",
          "type": "uint256"
        }
      ],
      "name": "TransferSent",
      "type": "event"
    },
    {
      "inputs": [],
      "name": "getListingPrice",
      "outputs": [
        {
          "internalType": "uint256",
          "name": "",
          "type": "uint256"
        }
      ],
      "stateMutability": "view",
      "type": "function",
      "constant": true
    },
    {
      "inputs": [
        {
          "internalType": "address",
          "name": "nftContract",
          "type": "address"
        },
        {
          "internalType": "uint256",
          "name": "tokenId",
          "type": "uint256"
        },
        {
          "internalType": "uint256",
          "name": "category",
          "type": "uint256"
        }
      ],
      "name": "createMarketItem",
      "outputs": [],
      "stateMutability": "nonpayable",
      "type": "function"
    },
    {
      "inputs": [
        {
          "internalType": "uint256",
          "name": "itemId",
          "type": "uint256"
        },
        {
          "internalType": "uint256",
          "name": "price",
          "type": "uint256"
        }
      ],
      "name": "createMarketListing",
      "outputs": [],
      "stateMutability": "nonpayable",
      "type": "function"
    },
    {
      "inputs": [
        {
          "internalType": "address",
          "name": "nftContract",
          "type": "address"
        },
        {
          "internalType": "uint256",
          "name": "itemId",
          "type": "uint256"
        }
      ],
      "name": "createMarketSale",
      "outputs": [],
      "stateMutability": "nonpayable",
      "type": "function"
    },
    {
      "inputs": [],
      "name": "fetchMarketItems",
      "outputs": [
        {
          "components": [
            {
              "internalType": "uint256",
              "name": "itemId",
              "type": "uint256"
            },
            {
              "internalType": "address",
              "name": "nftContract",
              "type": "address"
            },
            {
              "internalType": "uint256",
              "name": "tokenId",
              "type": "uint256"
            },
            {
              "internalType": "uint256",
              "name": "currentPrice",
              "type": "uint256"
            },
            {
              "internalType": "uint256",
              "name": "saleIndex",
              "type": "uint256"
            },
            {
              "internalType": "enum NFTMarket.ItemCategories",
              "name": "category",
              "type": "uint8"
            },
            {
              "internalType": "bool",
              "name": "listed",
              "type": "bool"
            },
            {
              "internalType": "address",
              "name": "creator",
              "type": "address"
            },
            {
              "internalType": "address",
              "name": "currentOwner",
              "type": "address"
            }
          ],
          "internalType": "struct NFTMarket.MarketItem[]",
          "name": "",
          "type": "tuple[]"
        }
      ],
      "stateMutability": "view",
      "type": "function",
      "constant": true
    },
    {
      "inputs": [],
      "name": "fetchMyNFTs",
      "outputs": [
        {
          "components": [
            {
              "internalType": "uint256",
              "name": "itemId",
              "type": "uint256"
            },
            {
              "internalType": "address",
              "name": "nftContract",
              "type": "address"
            },
            {
              "internalType": "uint256",
              "name": "tokenId",
              "type": "uint256"
            },
            {
              "internalType": "uint256",
              "name": "currentPrice",
              "type": "uint256"
            },
            {
              "internalType": "uint256",
              "name": "saleIndex",
              "type": "uint256"
            },
            {
              "internalType": "enum NFTMarket.ItemCategories",
              "name": "category",
              "type": "uint8"
            },
            {
              "internalType": "bool",
              "name": "listed",
              "type": "bool"
            },
            {
              "internalType": "address",
              "name": "creator",
              "type": "address"
            },
            {
              "internalType": "address",
              "name": "currentOwner",
              "type": "address"
            }
          ],
          "internalType": "struct NFTMarket.MarketItem[]",
          "name": "",
          "type": "tuple[]"
        }
      ],
      "stateMutability": "view",
      "type": "function",
      "constant": true
    },
    {
      "inputs": [],
      "name": "fetchItemsCreated",
      "outputs": [
        {
          "components": [
            {
              "internalType": "uint256",
              "name": "itemId",
              "type": "uint256"
            },
            {
              "internalType": "address",
              "name": "nftContract",
              "type": "address"
            },
            {
              "internalType": "uint256",
              "name": "tokenId",
              "type": "uint256"
            },
            {
              "internalType": "uint256",
              "name": "currentPrice",
              "type": "uint256"
            },
            {
              "internalType": "uint256",
              "name": "saleIndex",
              "type": "uint256"
            },
            {
              "internalType": "enum NFTMarket.ItemCategories",
              "name": "category",
              "type": "uint8"
            },
            {
              "internalType": "bool",
              "name": "listed",
              "type": "bool"
            },
            {
              "internalType": "address",
              "name": "creator",
              "type": "address"
            },
            {
              "internalType": "address",
              "name": "currentOwner",
              "type": "address"
            }
          ],
          "internalType": "struct NFTMarket.MarketItem[]",
          "name": "",
          "type": "tuple[]"
        }
      ],
      "stateMutability": "view",
      "type": "function",
      "constant": true
    }
  ],
  "bytecode": "0x60806040526658d15e176280006006553480156200001c57600080fd5b50604051620025693803806200256983398181016040528101906200004291906200012c565b600160008190555033600560006101000a81548173ffffffffffffffffffffffffffffffffffffffff021916908373ffffffffffffffffffffffffffffffffffffffff16021790555081600160006101000a81548173ffffffffffffffffffffffffffffffffffffffff021916908373ffffffffffffffffffffffffffffffffffffffff16021790555080600260006101000a81548173ffffffffffffffffffffffffffffffffffffffff021916908373ffffffffffffffffffffffffffffffffffffffff1602179055505050620001da565b6000815190506200012681620001c0565b92915050565b60008060408385031215620001465762000145620001bb565b5b6000620001568582860162000115565b9250506020620001698582860162000115565b9150509250929050565b600062000180826200019b565b9050919050565b6000620001948262000173565b9050919050565b600073ffffffffffffffffffffffffffffffffffffffff82169050919050565b600080fd5b620001cb8162000187565b8114620001d757600080fd5b50565b61237f80620001ea6000396000f3fe608060405234801561001057600080fd5b506004361061007d5760003560e01c806358eb2df51161005b57806358eb2df5146100dc5780636456152a146100f8578063c23b139e14610114578063f064c32e146101305761007d565b80630f08efe01461008257806312e85585146100a0578063202e3740146100be575b600080fd5b61008a61014e565b6040516100979190611ee3565b60405180910390f35b6100a86103c3565b6040516100b59190611fa5565b60405180910390f35b6100c66103cd565b6040516100d39190611ee3565b60405180910390f35b6100f660048036038101906100f19190611b1b565b610761565b005b610112600480360381019061010d9190611bc8565b610b56565b005b61012e60048036038101906101299190611adb565b610e14565b005b61013861158f565b6040516101459190611ee3565b60405180910390f35b6060600061015c6003611923565b90506000808267ffffffffffffffff81111561017b5761017a6121a3565b5b6040519080825280602002602001820160405280156101b457816020015b6101a16119a3565b8152602001906001900390816101995790505b50905060005b838110156103b95760006001826101d1919061200a565b905060006007600083815260200190815260200160002090508060405180610120016040529081600082015481526020016001820160009054906101000a900473ffffffffffffffffffffffffffffffffffffffff1673ffffffffffffffffffffffffffffffffffffffff1673ffffffffffffffffffffffffffffffffffffffff1681526020016002820154815260200160038201548152602001600482015481526020016005820160009054906101000a900460ff16600481111561029a57610299612145565b5b60048111156102ac576102ab612145565b5b81526020016005820160019054906101000a900460ff161515151581526020016005820160029054906101000a900473ffffffffffffffffffffffffffffffffffffffff1673ffffffffffffffffffffffffffffffffffffffff1673ffffffffffffffffffffffffffffffffffffffff1681526020016006820160009054906101000a900473ffffffffffffffffffffffffffffffffffffffff1673ffffffffffffffffffffffffffffffffffffffff1673ffffffffffffffffffffffffffffffffffffffff168152505084868151811061038a57610389612174565b5b60200260200101819052506001856103a2919061200a565b9450505080806103b1906120cd565b9150506101ba565b5080935050505090565b6000600654905090565b606060006103db6003611923565b905060008060005b83811015610484573373ffffffffffffffffffffffffffffffffffffffff1660076000600184610413919061200a565b815260200190815260200160002060060160009054906101000a900473ffffffffffffffffffffffffffffffffffffffff1673ffffffffffffffffffffffffffffffffffffffff1614156104715760018361046e919061200a565b92505b808061047c906120cd565b9150506103e3565b5060008267ffffffffffffffff8111156104a1576104a06121a3565b5b6040519080825280602002602001820160405280156104da57816020015b6104c76119a3565b8152602001906001900390816104bf5790505b50905060005b84811015610756573373ffffffffffffffffffffffffffffffffffffffff1660076000600184610510919061200a565b815260200190815260200160002060060160009054906101000a900473ffffffffffffffffffffffffffffffffffffffff1673ffffffffffffffffffffffffffffffffffffffff16141561074357600060018261056d919061200a565b905060006007600083815260200190815260200160002090508060405180610120016040529081600082015481526020016001820160009054906101000a900473ffffffffffffffffffffffffffffffffffffffff1673ffffffffffffffffffffffffffffffffffffffff1673ffffffffffffffffffffffffffffffffffffffff1681526020016002820154815260200160038201548152602001600482015481526020016005820160009054906101000a900460ff16600481111561063657610635612145565b5b600481111561064857610647612145565b5b81526020016005820160019054906101000a900460ff161515151581526020016005820160029054906101000a900473ffffffffffffffffffffffffffffffffffffffff1673ffffffffffffffffffffffffffffffffffffffff1673ffffffffffffffffffffffffffffffffffffffff1681526020016006820160009054906101000a900473ffffffffffffffffffffffffffffffffffffffff1673ffffffffffffffffffffffffffffffffffffffff1673ffffffffffffffffffffffffffffffffffffffff168152505084868151811061072657610725612174565b5b602002602001018190525060018561073e919061200a565b945050505b808061074e906120cd565b9150506104e0565b508094505050505090565b600260005414156107a7576040517f08c379a000000000000000000000000000000000000000000000000000000000815260040161079e90611f65565b60405180910390fd5b60026000819055506107b96003611931565b60006107c56003611923565b9050600860008281526020019081526020016000206040518060600160405280600073ffffffffffffffffffffffffffffffffffffffff1681526020013373ffffffffffffffffffffffffffffffffffffffff1681526020016000815250908060018154018082558091505060019003906000526020600020906003020160009091909190915060008201518160000160006101000a81548173ffffffffffffffffffffffffffffffffffffffff021916908373ffffffffffffffffffffffffffffffffffffffff16021790555060208201518160010160006101000a81548173ffffffffffffffffffffffffffffffffffffffff021916908373ffffffffffffffffffffffffffffffffffffffff1602179055506040820151816002015550506040518061012001604052808281526020018573ffffffffffffffffffffffffffffffffffffffff168152602001848152602001600081526020016000815260200183600481111561093b5761093a612145565b5b600481111561094d5761094c612145565b5b81526020016000151581526020013373ffffffffffffffffffffffffffffffffffffffff1681526020013373ffffffffffffffffffffffffffffffffffffffff16815250600760008381526020019081526020016000206000820151816000015560208201518160010160006101000a81548173ffffffffffffffffffffffffffffffffffffffff021916908373ffffffffffffffffffffffffffffffffffffffff16021790555060408201518160020155606082015181600301556080820151816004015560a08201518160050160006101000a81548160ff02191690836004811115610a3e57610a3d612145565b5b021790555060c08201518160050160016101000a81548160ff02191690831515021790555060e08201518160050160026101000a81548173ffffffffffffffffffffffffffffffffffffffff021916908373ffffffffffffffffffffffffffffffffffffffff1602179055506101008201518160060160006101000a81548173ffffffffffffffffffffffffffffffffffffffff021916908373ffffffffffffffffffffffffffffffffffffffff160217905550905050828473ffffffffffffffffffffffffffffffffffffffff16827f371f27f6a0fe7819306fc5cf42bd3c289ac445631dcfba5cbb52153df800e946600033604051610b40929190611e5a565b60405180910390a4506001600081905550505050565b60026000541415610b9c576040517f08c379a0000000000000000000000000000000000000000000000000000000008152600401610b9390611f65565b60405180910390fd5b600260008190555060008111610be7576040517f08c379a0000000000000000000000000000000000000000000000000000000008152600401610bde90611f85565b60405180910390fd5b60006007600084815260200190815260200160002060020154905060006007600085815260200190815260200160002060010160009054906101000a900473ffffffffffffffffffffffffffffffffffffffff169050600260009054906101000a900473ffffffffffffffffffffffffffffffffffffffff1673ffffffffffffffffffffffffffffffffffffffff166323b872dd33306006546040518463ffffffff1660e01b8152600401610c9e93929190611e83565b602060405180830381600087803b158015610cb857600080fd5b505af1158015610ccc573d6000803e3d6000fd5b505050506040513d601f19601f82011682018060405250810190610cf09190611b6e565b508260076000868152602001908152602001600020600301819055508073ffffffffffffffffffffffffffffffffffffffff166323b872dd3330856040518463ffffffff1660e01b8152600401610d4993929190611e83565b600060405180830381600087803b158015610d6357600080fd5b505af1158015610d77573d6000803e3d6000fd5b5050505060016007600086815260200190815260200160002060050160016101000a81548160ff021916908315150217905550610db46004611931565b818173ffffffffffffffffffffffffffffffffffffffff16857f53b38b48452bf50cf128bb68ee46949d8b3db0fb2e4503166bbe0034794565283387604051610dfe929190611eba565b60405180910390a4505060016000819055505050565b60026000541415610e5a576040517f08c379a0000000000000000000000000000000000000000000000000000000008152600401610e5190611f65565b60405180910390fd5b60026000819055506000600760008381526020019081526020016000206003015490506000600760008481526020019081526020016000206002015490506000600760008581526020019081526020016000206004015490506000600860008681526020019081526020016000208281548110610eda57610ed9612174565b5b906000526020600020906003020160010160009054906101000a900473ffffffffffffffffffffffffffffffffffffffff1690506000600260009054906101000a900473ffffffffffffffffffffffffffffffffffffffff1673ffffffffffffffffffffffffffffffffffffffff166370a08231336040518263ffffffff1660e01b8152600401610f6b9190611e3f565b60206040518083038186803b158015610f8357600080fd5b505afa158015610f97573d6000803e3d6000fd5b505050506040513d601f19601f82011682018060405250810190610fbb9190611b9b565b905084811015611000576040517f08c379a0000000000000000000000000000000000000000000000000000000008152600401610ff790611f25565b60405180910390fd5b8173ffffffffffffffffffffffffffffffffffffffff168773ffffffffffffffffffffffffffffffffffffffff16636352211e866040518263ffffffff1660e01b81526004016110509190611fa5565b60206040518083038186803b15801561106857600080fd5b505afa15801561107c573d6000803e3d6000fd5b505050506040513d601f19601f820116820180604052508101906110a09190611aae565b73ffffffffffffffffffffffffffffffffffffffff16146110f6576040517f08c379a00000000000000000000000000000000000000000000000000000000081526004016110ed90611f45565b60405180910390fd5b600260009054906101000a900473ffffffffffffffffffffffffffffffffffffffff1673ffffffffffffffffffffffffffffffffffffffff166323b872dd3384886040518463ffffffff1660e01b815260040161115593929190611e83565b602060405180830381600087803b15801561116f57600080fd5b505af1158015611183573d6000803e3d6000fd5b505050506040513d601f19601f820116820180604052508101906111a79190611b6e565b508673ffffffffffffffffffffffffffffffffffffffff166323b872dd3033876040518463ffffffff1660e01b81526004016111e593929190611e83565b600060405180830381600087803b1580156111ff57600080fd5b505af1158015611213573d6000803e3d6000fd5b50505050600060405180606001604052808473ffffffffffffffffffffffffffffffffffffffff1681526020013373ffffffffffffffffffffffffffffffffffffffff1681526020018781525090506008600088815260200190815260200160002081908060018154018082558091505060019003906000526020600020906003020160009091909190915060008201518160000160006101000a81548173ffffffffffffffffffffffffffffffffffffffff021916908373ffffffffffffffffffffffffffffffffffffffff16021790555060208201518160010160006101000a81548173ffffffffffffffffffffffffffffffffffffffff021916908373ffffffffffffffffffffffffffffffffffffffff1602179055506040820151816002015550506001600760008981526020019081526020016000206004016000828254611360919061200a565b9250508190555060006007600089815260200190815260200160002060050160016101000a81548160ff021916908315150217905550336007600089815260200190815260200160002060060160006101000a81548173ffffffffffffffffffffffffffffffffffffffff021916908373ffffffffffffffffffffffffffffffffffffffff1602179055506113f56004611947565b600260009054906101000a900473ffffffffffffffffffffffffffffffffffffffff1673ffffffffffffffffffffffffffffffffffffffff1663095ea7b3306006546040518363ffffffff1660e01b8152600401611454929190611eba565b602060405180830381600087803b15801561146e57600080fd5b505af1158015611482573d6000803e3d6000fd5b505050506040513d601f19601f820116820180604052508101906114a69190611b6e565b50600260009054906101000a900473ffffffffffffffffffffffffffffffffffffffff1673ffffffffffffffffffffffffffffffffffffffff166323b872dd30600560009054906101000a900473ffffffffffffffffffffffffffffffffffffffff166006546040518463ffffffff1660e01b815260040161152a93929190611e83565b602060405180830381600087803b15801561154457600080fd5b505af1158015611558573d6000803e3d6000fd5b505050506040513d601f19601f8201168201806040525081019061157c9190611b6e565b5050505050505060016000819055505050565b6060600061159d6003611923565b905060008060005b83811015611646573373ffffffffffffffffffffffffffffffffffffffff16600760006001846115d5919061200a565b815260200190815260200160002060050160029054906101000a900473ffffffffffffffffffffffffffffffffffffffff1673ffffffffffffffffffffffffffffffffffffffff16141561163357600183611630919061200a565b92505b808061163e906120cd565b9150506115a5565b5060008267ffffffffffffffff811115611663576116626121a3565b5b60405190808252806020026020018201604052801561169c57816020015b6116896119a3565b8152602001906001900390816116815790505b50905060005b84811015611918573373ffffffffffffffffffffffffffffffffffffffff16600760006001846116d2919061200a565b815260200190815260200160002060050160029054906101000a900473ffffffffffffffffffffffffffffffffffffffff1673ffffffffffffffffffffffffffffffffffffffff16141561190557600060018261172f919061200a565b905060006007600083815260200190815260200160002090508060405180610120016040529081600082015481526020016001820160009054906101000a900473ffffffffffffffffffffffffffffffffffffffff1673ffffffffffffffffffffffffffffffffffffffff1673ffffffffffffffffffffffffffffffffffffffff1681526020016002820154815260200160038201548152602001600482015481526020016005820160009054906101000a900460ff1660048111156117f8576117f7612145565b5b600481111561180a57611809612145565b5b81526020016005820160019054906101000a900460ff161515151581526020016005820160029054906101000a900473ffffffffffffffffffffffffffffffffffffffff1673ffffffffffffffffffffffffffffffffffffffff1673ffffffffffffffffffffffffffffffffffffffff1681526020016006820160009054906101000a900473ffffffffffffffffffffffffffffffffffffffff1673ffffffffffffffffffffffffffffffffffffffff1673ffffffffffffffffffffffffffffffffffffffff16815250508486815181106118e8576118e7612174565b5b6020026020010181905250600185611900919061200a565b945050505b8080611910906120cd565b9150506116a2565b508094505050505090565b600081600001549050919050565b6001816000016000828254019250508190555050565b60008160000154905060008111611993576040517f08c379a000000000000000000000000000000000000000000000000000000000815260040161198a90611f05565b60405180910390fd5b6001810382600001819055505050565b60405180610120016040528060008152602001600073ffffffffffffffffffffffffffffffffffffffff168152602001600081526020016000815260200160008152602001600060048111156119fc576119fb612145565b5b8152602001600015158152602001600073ffffffffffffffffffffffffffffffffffffffff168152602001600073ffffffffffffffffffffffffffffffffffffffff1681525090565b600081359050611a5481612304565b92915050565b600081519050611a6981612304565b92915050565b600081519050611a7e8161231b565b92915050565b600081359050611a9381612332565b92915050565b600081519050611aa881612332565b92915050565b600060208284031215611ac457611ac36121d2565b5b6000611ad284828501611a5a565b91505092915050565b60008060408385031215611af257611af16121d2565b5b6000611b0085828601611a45565b9250506020611b1185828601611a84565b9150509250929050565b600080600060608486031215611b3457611b336121d2565b5b6000611b4286828701611a45565b9350506020611b5386828701611a84565b9250506040611b6486828701611a84565b9150509250925092565b600060208284031215611b8457611b836121d2565b5b6000611b9284828501611a6f565b91505092915050565b600060208284031215611bb157611bb06121d2565b5b6000611bbf84828501611a99565b91505092915050565b60008060408385031215611bdf57611bde6121d2565b5b6000611bed85828601611a84565b9250506020611bfe85828601611a84565b9150509250929050565b6000611c148383611d6a565b6101208301905092915050565b611c2a81612060565b82525050565b611c3981612060565b82525050565b6000611c4a82611fd0565b611c548185611fe8565b9350611c5f83611fc0565b8060005b83811015611c90578151611c778882611c08565b9750611c8283611fdb565b925050600181019050611c63565b5085935050505092915050565b611ca681612072565b82525050565b611cb5816120bb565b82525050565b6000611cc8601b83611ff9565b9150611cd3826121d7565b602082019050919050565b6000611ceb603583611ff9565b9150611cf682612200565b604082019050919050565b6000611d0e602283611ff9565b9150611d198261224f565b604082019050919050565b6000611d31601f83611ff9565b9150611d3c8261229e565b602082019050919050565b6000611d54601c83611ff9565b9150611d5f826122c7565b602082019050919050565b61012082016000820151611d816000850182611e21565b506020820151611d946020850182611c21565b506040820151611da76040850182611e21565b506060820151611dba6060850182611e21565b506080820151611dcd6080850182611e21565b5060a0820151611de060a0850182611cac565b5060c0820151611df360c0850182611c9d565b5060e0820151611e0660e0850182611c21565b50610100820151611e1b610100850182611c21565b50505050565b611e2a816120b1565b82525050565b611e39816120b1565b82525050565b6000602082019050611e546000830184611c30565b92915050565b6000604082019050611e6f6000830185611c30565b611e7c6020830184611c30565b9392505050565b6000606082019050611e986000830186611c30565b611ea56020830185611c30565b611eb26040830184611e30565b949350505050565b6000604082019050611ecf6000830185611c30565b611edc6020830184611e30565b9392505050565b60006020820190508181036000830152611efd8184611c3f565b905092915050565b60006020820190508181036000830152611f1e81611cbb565b9050919050565b60006020820190508181036000830152611f3e81611cde565b9050919050565b60006020820190508181036000830152611f5e81611d01565b9050919050565b60006020820190508181036000830152611f7e81611d24565b9050919050565b60006020820190508181036000830152611f9e81611d47565b9050919050565b6000602082019050611fba6000830184611e30565b92915050565b6000819050602082019050919050565b600081519050919050565b6000602082019050919050565b600082825260208201905092915050565b600082825260208201905092915050565b6000612015826120b1565b9150612020836120b1565b9250827fffffffffffffffffffffffffffffffffffffffffffffffffffffffffffffffff0382111561205557612054612116565b5b828201905092915050565b600061206b82612091565b9050919050565b60008115159050919050565b600081905061208c826122f0565b919050565b600073ffffffffffffffffffffffffffffffffffffffff82169050919050565b6000819050919050565b60006120c68261207e565b9050919050565b60006120d8826120b1565b91507fffffffffffffffffffffffffffffffffffffffffffffffffffffffffffffffff82141561210b5761210a612116565b5b600182019050919050565b7f4e487b7100000000000000000000000000000000000000000000000000000000600052601160045260246000fd5b7f4e487b7100000000000000000000000000000000000000000000000000000000600052602160045260246000fd5b7f4e487b7100000000000000000000000000000000000000000000000000000000600052603260045260246000fd5b7f4e487b7100000000000000000000000000000000000000000000000000000000600052604160045260246000fd5b600080fd5b7f436f756e7465723a2064656372656d656e74206f766572666c6f770000000000600082015250565b7f496e73756666696369656e74204d65726368436f696e2066756e647320746f2060008201527f636f6d706c657465207468652070757263686173650000000000000000000000602082015250565b7f6c6973746572206973206e6f74206f776e6572206f66204e465420616e796d6f60008201527f7265000000000000000000000000000000000000000000000000000000000000602082015250565b7f5265656e7472616e637947756172643a207265656e7472616e742063616c6c00600082015250565b7f5072696365206d757374206265206174206c6561737420312077656900000000600082015250565b6005811061230157612300612145565b5b50565b61230d81612060565b811461231857600080fd5b50565b61232481612072565b811461232f57600080fd5b50565b61233b816120b1565b811461234657600080fd5b5056fea264697066735822122045a3c057a45d023ac87be2616c901a3369479af7eb4a30f3f3fecc7b1e3fbc0964736f6c63430008060033",
  "immutableReferences": {},
  "source": "// SPDX-License-Identifier: MIT OR Apache-2.0\r\npragma solidity ^0.8.6;\r\n\r\nimport \"@openzeppelin/contracts/token/ERC721/ERC721.sol\";\r\nimport \"@openzeppelin/contracts/utils/Counters.sol\";\r\nimport \"@openzeppelin/contracts/token/ERC20/IERC20.sol\";\r\nimport \"@openzeppelin/contracts/security/ReentrancyGuard.sol\";\r\n\r\n\r\n/**\r\n * @title NFTMarket\r\n * @dev NFT Marketplace Smart Contract for ownership\r\n * TODO Make Reselling Functionality\r\n */\r\n\r\ncontract NFTMarket is ReentrancyGuard{\r\n\r\n    //ERC 20 Transfer\r\n    IERC20 private mcoToken;\r\n    IERC20 private gcoToken;\r\n\r\n    event TransferSent(address _senderAddress, address _destAddress, uint256 _amount);\r\n\r\n    //Marketplace Code\r\n    using Counters for Counters.Counter;\r\n    Counters.Counter private _itemIds;\r\n    Counters.Counter private _itemsListed;\r\n\r\n    address owner;\r\n    uint256 listingPrice = 0.025 ether;\r\n    enum ItemCategories{ART, MUSIC, COLLECTIBLE, SKILL, OTHER} \r\n    /*string[] collections;\r\n    mapping(string=>uint256) collectionNameToID;*/\r\n\r\n    constructor(IERC20 _mcoToken, IERC20 _gcoToken) public {\r\n        owner = address(msg.sender);//Tentatively change to beneficiary\r\n        /*collections.push(\"Independent\");\r\n        collectionNameToID[\"Independent\"] = 1;//collections is -1 from the id*/\r\n        mcoToken = _mcoToken;\r\n        gcoToken = _gcoToken;\r\n    }\r\n    \r\n    function getListingPrice() public view returns (uint256) {\r\n    return listingPrice;\r\n  }\r\n\r\n      struct MarketSale{\r\n      address seller;\r\n      address owner;\r\n      uint256 price;\r\n    }\r\n\r\n    struct MarketItem {\r\n        uint itemId;//Make it a one-to-one mapping with nftContract and tokenID\r\n        address nftContract;\r\n        uint256 tokenId;\r\n        uint256 currentPrice;\r\n        uint256 saleIndex;\r\n        ItemCategories category;\r\n        bool listed;\r\n        address creator;\r\n        address currentOwner;\r\n    }\r\n\r\n    mapping(uint256 => MarketItem) private idToMarketItem;\r\n    mapping(uint256 => MarketSale[]) private idToSaleHistory;\r\n\r\n    event MarketItemCreated (\r\n        uint indexed itemId,\r\n        address indexed nftContract,\r\n        uint256 indexed tokenId,\r\n        address seller,\r\n        address owner\r\n    );\r\n\r\n    event MarketListingCreated (\r\n        uint indexed itemId,\r\n        address indexed nftContract,\r\n        uint256 indexed tokenId,\r\n        address lister,\r\n        uint256 price\r\n    );\r\n\r\n    /* Places an item for sale on the marketplace */\r\n  /*function getCollectionId(string collectionName) public view returns(uint256){\r\n    return (collectionNameToID[collectionName]);\r\n  }*/\r\n\r\n/*\r\n  Create Market Item--\r\n  Function: Creates new NFT struct and makes 1-1 mapping to an itemId in the market;\r\n  -- Considerations: \r\n    - Keep it like this where every single minted nft in blockchain is a struct item in contract too\r\n    - Only enter the market contract once want to bring up for listing?-- Downside, need to interface with respective nft contracts\r\n */\r\nfunction createMarketItem(address nftContract, uint256 tokenId, uint category) public nonReentrant {\r\n    _itemIds.increment();\r\n    uint256 itemId = _itemIds.current();\r\n    \r\n    idToSaleHistory[itemId].push(MarketSale(address(0),address(msg.sender),0));\r\n\r\n    //One-to-one mapping itemId to item\r\n    idToMarketItem[itemId] =  MarketItem(itemId, nftContract, tokenId,0,0,ItemCategories(category), false, address(msg.sender),address(msg.sender));\r\n\r\n    \r\n    //Log creation of Market Item\r\n    emit MarketItemCreated(itemId,nftContract,tokenId,address(0),msg.sender);\r\n  }\r\n\r\n  /*\r\n  Create Market Listing--\r\n  Function: Transfers ownership of NFT to market and pay listing price\r\n  -- Considerations: \r\n    - Should listing price be fixed amount or a percentage\r\n */\r\n\r\n  function createMarketListing(uint256 itemId, uint256 price) public nonReentrant {\r\n    require(price > 0, \"Price must be at least 1 wei\");\r\n    uint256 tokenId = idToMarketItem[itemId].tokenId;\r\n    address nftContract = idToMarketItem[itemId].nftContract;\r\n    //Creator transfers listing price in merchcoin and ownership to the smart contract\r\n    gcoToken.transferFrom(address(msg.sender),address(this),listingPrice);\r\n\r\n    //Change Current listed price\r\n    idToMarketItem[itemId].currentPrice = price;\r\n\r\n    //Transfer nft ownership to marketplace contract\r\n    IERC721(nftContract).transferFrom(address(msg.sender), address(this), tokenId);\r\n\r\n    //Change the status to listed\r\n    idToMarketItem[itemId].listed = true;\r\n    _itemsListed.increment();\r\n    //Log creation of Market Listing\r\n    emit MarketListingCreated(itemId,nftContract,tokenId,msg.sender,price);\r\n  }\r\n\r\n//Cancel market listing\r\n  /*\r\n  Create Market Sale--\r\n  Function: \r\n  When someone buys the item, \r\n  1) transfers item price to the seller\r\n  2) transfers ownership to buyer,\r\n  3) transfers listing price to the admin beneficiary\r\n */\r\n\r\n   function createMarketSale(address nftContract, uint256 itemId) public nonReentrant {\r\n\r\n    uint256 price = idToMarketItem[itemId].currentPrice;\r\n    uint tokenId = idToMarketItem[itemId].tokenId;\r\n    uint saleIndex = idToMarketItem[itemId].saleIndex;\r\n    address lister = idToSaleHistory[itemId][saleIndex].owner;\r\n\r\n    uint256 erc20balance = gcoToken.balanceOf(address(msg.sender)); \r\n    require(erc20balance >= price, \"Insufficient MerchCoin funds to complete the purchase\");\r\n    require(IERC721(nftContract).ownerOf(tokenId) == lister, \"lister is not owner of NFT anymore\" );\r\n\r\n    //\r\n    gcoToken.transferFrom(address(msg.sender),address(lister),price);\r\n\r\n    //Transfer ownership to the buyer\r\n    IERC721(nftContract).transferFrom(address(this), address(msg.sender), tokenId);\r\n\r\n    MarketSale memory sale = MarketSale(lister,address(msg.sender),price);\r\n\r\n    //Increase the sale index for the saleHistory array of the item\r\n    idToSaleHistory[itemId].push(sale);\r\n    idToMarketItem[itemId].saleIndex += 1; \r\n    idToMarketItem[itemId].listed = false;\r\n    idToMarketItem[itemId].currentOwner = address(msg.sender);\r\n    _itemsListed.decrement();\r\n\r\n    //Transfer listing price to beneficiary\r\n    gcoToken.approve(address(this),listingPrice);\r\n    gcoToken.transferFrom(address(this),owner,listingPrice);\r\n    //MarketTransactionEVENT\r\n  }\r\n\r\n  /* \r\n  Returns all market items \r\n  --Classification of listed and unlisted will be handled in frontend\r\n  */\r\n  function fetchMarketItems() public view returns (MarketItem[] memory) {\r\n    uint itemCount = _itemIds.current();\r\n    uint currentIndex = 0;\r\n\r\n    MarketItem[] memory items = new MarketItem[](itemCount);\r\n    for (uint i = 0; i < itemCount; i++) {\r\n        uint currentId = i + 1;\r\n        MarketItem storage currentItem = idToMarketItem[currentId];\r\n        items[currentIndex] = currentItem;\r\n        currentIndex += 1;\r\n    }\r\n    return items;\r\n  }\r\n\r\n  /* \r\n  fetchMyNFTs\r\n  -- Returns only items that a user has purchased \r\n  */\r\n  function fetchMyNFTs() public view returns (MarketItem[] memory) {\r\n    uint totalItemCount = _itemIds.current();\r\n    uint itemCount = 0;\r\n    uint currentIndex = 0;\r\n\r\n    for (uint i = 0; i < totalItemCount; i++) {\r\n      if (idToMarketItem[i + 1].currentOwner == msg.sender) {\r\n        itemCount += 1;\r\n      }\r\n    }\r\n\r\n    MarketItem[] memory items = new MarketItem[](itemCount);\r\n    for (uint i = 0; i < totalItemCount; i++) {\r\n      if (idToMarketItem[i + 1].currentOwner == msg.sender) {\r\n        uint currentId = i + 1;\r\n        MarketItem storage currentItem = idToMarketItem[currentId];\r\n        items[currentIndex] = currentItem;\r\n        currentIndex += 1;\r\n      }\r\n    }\r\n    return items;\r\n  }\r\n\r\n\r\n  /* Returns items a user has created */\r\n  function fetchItemsCreated() public view returns (MarketItem[] memory) {\r\n    uint totalItemCount = _itemIds.current();\r\n    uint itemCount = 0;\r\n    uint currentIndex = 0;\r\n\r\n    for (uint i = 0; i < totalItemCount; i++) {\r\n      if (idToMarketItem[i + 1].creator == msg.sender) {\r\n        itemCount += 1;\r\n      }\r\n    }\r\n\r\n    MarketItem[] memory items = new MarketItem[](itemCount);\r\n    for (uint i = 0; i < totalItemCount; i++) {\r\n      if (idToMarketItem[i + 1].creator == msg.sender) {\r\n        uint currentId = i + 1;\r\n        MarketItem storage currentItem = idToMarketItem[currentId];\r\n        items[currentIndex] = currentItem;\r\n        currentIndex += 1;\r\n      }\r\n    }\r\n    return items;\r\n  }\r\n\r\n}",
  "sourcePath": "C:\\Users\\Freddy\\OneDrive - University of Illinois - Urbana\\UIUC Spring 2022\\IBlock\\truffle\\contracts\\NFTMarket.sol",
  "compiler": {
    "name": "solc",
    "version": "0.8.6+commit.11564f7e.Emscripten.clang"
  },
  "schemaVersion": "3.4.3",
  "updatedAt": "2022-04-15T21:35:29.010Z",
  "networkType": "ethereum",
  "devdoc": {
    "details": "NFT Marketplace Smart Contract for ownership TODO Make Reselling Functionality",
    "kind": "dev",
    "methods": {},
    "title": "NFTMarket",
    "version": 1
  },
  "userdoc": {
    "kind": "user",
    "methods": {},
    "version": 1
  }
}