{
  "contractName": "SkillsWallet",
  "abi": [
    {
      "inputs": [
        {
          "internalType": "string",
          "name": "_uri",
          "type": "string"
        },
        {
          "internalType": "contract SkillsClearance",
          "name": "_clearanceContract",
          "type": "address"
        }
      ],
      "stateMutability": "nonpayable",
      "type": "constructor"
    },
    {
      "anonymous": false,
      "inputs": [
        {
          "indexed": true,
          "internalType": "address",
          "name": "account",
          "type": "address"
        },
        {
          "indexed": true,
          "internalType": "address",
          "name": "operator",
          "type": "address"
        },
        {
          "indexed": false,
          "internalType": "bool",
          "name": "approved",
          "type": "bool"
        }
      ],
      "name": "ApprovalForAll",
      "type": "event"
    },
    {
      "anonymous": false,
      "inputs": [
        {
          "indexed": true,
          "internalType": "address",
          "name": "credentialer",
          "type": "address"
        },
        {
          "indexed": true,
          "internalType": "uint256",
          "name": "credentialId",
          "type": "uint256"
        },
        {
          "indexed": false,
          "internalType": "uint256",
          "name": "time",
          "type": "uint256"
        }
      ],
      "name": "Create",
      "type": "event"
    },
    {
      "anonymous": false,
      "inputs": [
        {
          "indexed": true,
          "internalType": "address",
          "name": "previousOwner",
          "type": "address"
        },
        {
          "indexed": true,
          "internalType": "address",
          "name": "newOwner",
          "type": "address"
        }
      ],
      "name": "OwnershipTransferred",
      "type": "event"
    },
    {
      "anonymous": false,
      "inputs": [
        {
          "indexed": true,
          "internalType": "address",
          "name": "operator",
          "type": "address"
        },
        {
          "indexed": true,
          "internalType": "address",
          "name": "from",
          "type": "address"
        },
        {
          "indexed": true,
          "internalType": "address",
          "name": "to",
          "type": "address"
        },
        {
          "indexed": false,
          "internalType": "uint256[]",
          "name": "ids",
          "type": "uint256[]"
        },
        {
          "indexed": false,
          "internalType": "uint256[]",
          "name": "values",
          "type": "uint256[]"
        }
      ],
      "name": "TransferBatch",
      "type": "event"
    },
    {
      "anonymous": false,
      "inputs": [
        {
          "indexed": true,
          "internalType": "address",
          "name": "operator",
          "type": "address"
        },
        {
          "indexed": true,
          "internalType": "address",
          "name": "from",
          "type": "address"
        },
        {
          "indexed": true,
          "internalType": "address",
          "name": "to",
          "type": "address"
        },
        {
          "indexed": false,
          "internalType": "uint256",
          "name": "id",
          "type": "uint256"
        },
        {
          "indexed": false,
          "internalType": "uint256",
          "name": "value",
          "type": "uint256"
        }
      ],
      "name": "TransferSingle",
      "type": "event"
    },
    {
      "anonymous": false,
      "inputs": [
        {
          "indexed": false,
          "internalType": "string",
          "name": "value",
          "type": "string"
        },
        {
          "indexed": true,
          "internalType": "uint256",
          "name": "id",
          "type": "uint256"
        }
      ],
      "name": "URI",
      "type": "event"
    },
    {
      "inputs": [
        {
          "internalType": "address",
          "name": "account",
          "type": "address"
        },
        {
          "internalType": "uint256",
          "name": "id",
          "type": "uint256"
        }
      ],
      "name": "balanceOf",
      "outputs": [
        {
          "internalType": "uint256",
          "name": "",
          "type": "uint256"
        }
      ],
      "stateMutability": "view",
      "type": "function"
    },
    {
      "inputs": [
        {
          "internalType": "address[]",
          "name": "accounts",
          "type": "address[]"
        },
        {
          "internalType": "uint256[]",
          "name": "ids",
          "type": "uint256[]"
        }
      ],
      "name": "balanceOfBatch",
      "outputs": [
        {
          "internalType": "uint256[]",
          "name": "",
          "type": "uint256[]"
        }
      ],
      "stateMutability": "view",
      "type": "function"
    },
    {
      "inputs": [
        {
          "internalType": "address",
          "name": "account",
          "type": "address"
        },
        {
          "internalType": "uint256",
          "name": "id",
          "type": "uint256"
        },
        {
          "internalType": "uint256",
          "name": "value",
          "type": "uint256"
        }
      ],
      "name": "burn",
      "outputs": [],
      "stateMutability": "nonpayable",
      "type": "function"
    },
    {
      "inputs": [
        {
          "internalType": "address",
          "name": "account",
          "type": "address"
        },
        {
          "internalType": "uint256[]",
          "name": "ids",
          "type": "uint256[]"
        },
        {
          "internalType": "uint256[]",
          "name": "values",
          "type": "uint256[]"
        }
      ],
      "name": "burnBatch",
      "outputs": [],
      "stateMutability": "nonpayable",
      "type": "function"
    },
    {
      "inputs": [],
      "name": "clearanceContract",
      "outputs": [
        {
          "internalType": "contract SkillsClearance",
          "name": "",
          "type": "address"
        }
      ],
      "stateMutability": "view",
      "type": "function"
    },
    {
      "inputs": [
        {
          "internalType": "address",
          "name": "account",
          "type": "address"
        },
        {
          "internalType": "address",
          "name": "operator",
          "type": "address"
        }
      ],
      "name": "isApprovedForAll",
      "outputs": [
        {
          "internalType": "bool",
          "name": "",
          "type": "bool"
        }
      ],
      "stateMutability": "view",
      "type": "function"
    },
    {
      "inputs": [],
      "name": "owner",
      "outputs": [
        {
          "internalType": "address",
          "name": "",
          "type": "address"
        }
      ],
      "stateMutability": "view",
      "type": "function"
    },
    {
      "inputs": [],
      "name": "renounceOwnership",
      "outputs": [],
      "stateMutability": "nonpayable",
      "type": "function"
    },
    {
      "inputs": [
        {
          "internalType": "address",
          "name": "operator",
          "type": "address"
        },
        {
          "internalType": "bool",
          "name": "approved",
          "type": "bool"
        }
      ],
      "name": "setApprovalForAll",
      "outputs": [],
      "stateMutability": "nonpayable",
      "type": "function"
    },
    {
      "inputs": [
        {
          "internalType": "bytes4",
          "name": "interfaceId",
          "type": "bytes4"
        }
      ],
      "name": "supportsInterface",
      "outputs": [
        {
          "internalType": "bool",
          "name": "",
          "type": "bool"
        }
      ],
      "stateMutability": "view",
      "type": "function"
    },
    {
      "inputs": [
        {
          "internalType": "address",
          "name": "newOwner",
          "type": "address"
        }
      ],
      "name": "transferOwnership",
      "outputs": [],
      "stateMutability": "nonpayable",
      "type": "function"
    },
    {
      "inputs": [
        {
          "internalType": "address",
          "name": "from",
          "type": "address"
        },
        {
          "internalType": "address",
          "name": "to",
          "type": "address"
        },
        {
          "internalType": "uint256",
          "name": "id",
          "type": "uint256"
        },
        {
          "internalType": "uint256",
          "name": "amount",
          "type": "uint256"
        },
        {
          "internalType": "bytes",
          "name": "data",
          "type": "bytes"
        }
      ],
      "name": "safeTransferFrom",
      "outputs": [],
      "stateMutability": "nonpayable",
      "type": "function"
    },
    {
      "inputs": [
        {
          "internalType": "address",
          "name": "from",
          "type": "address"
        },
        {
          "internalType": "address",
          "name": "to",
          "type": "address"
        },
        {
          "internalType": "uint256[]",
          "name": "ids",
          "type": "uint256[]"
        },
        {
          "internalType": "uint256[]",
          "name": "amounts",
          "type": "uint256[]"
        },
        {
          "internalType": "bytes",
          "name": "data",
          "type": "bytes"
        }
      ],
      "name": "safeBatchTransferFrom",
      "outputs": [],
      "stateMutability": "nonpayable",
      "type": "function"
    },
    {
      "inputs": [
        {
          "internalType": "uint256",
          "name": "_tokenId",
          "type": "uint256"
        }
      ],
      "name": "uri",
      "outputs": [
        {
          "internalType": "string",
          "name": "",
          "type": "string"
        }
      ],
      "stateMutability": "view",
      "type": "function"
    },
    {
      "inputs": [
        {
          "internalType": "string",
          "name": "_type",
          "type": "string"
        },
        {
          "internalType": "string",
          "name": "_uri",
          "type": "string"
        }
      ],
      "name": "createCredential",
      "outputs": [
        {
          "internalType": "uint256",
          "name": "",
          "type": "uint256"
        }
      ],
      "stateMutability": "nonpayable",
      "type": "function"
    },
    {
      "inputs": [
        {
          "internalType": "address",
          "name": "receiver",
          "type": "address"
        },
        {
          "internalType": "uint256",
          "name": "credId",
          "type": "uint256"
        }
      ],
      "name": "issueCredential",
      "outputs": [],
      "stateMutability": "nonpayable",
      "type": "function"
    },
    {
      "inputs": [
        {
          "internalType": "address",
          "name": "user",
          "type": "address"
        }
      ],
      "name": "getUserTokens",
      "outputs": [
        {
          "internalType": "uint256[]",
          "name": "userTokens",
          "type": "uint256[]"
        }
      ],
      "stateMutability": "view",
      "type": "function"
    },
    {
      "inputs": [],
      "name": "tokenId",
      "outputs": [
        {
          "internalType": "uint256",
          "name": "",
          "type": "uint256"
        }
      ],
      "stateMutability": "view",
      "type": "function"
    }
  ],
  "bytecode": "0x608060405260405180602001604052806000815250600390805190602001906200002b929190620001f2565b503480156200003957600080fd5b5060405162004a9c38038062004a9c83398181016040528101906200005f919062000337565b816200007181620000ec60201b60201c565b5062000092620000866200010860201b60201c565b6200011060201b60201c565b620000a382620001d660201b60201c565b80600960006101000a81548173ffffffffffffffffffffffffffffffffffffffff021916908373ffffffffffffffffffffffffffffffffffffffff160217905550505062000583565b806002908051906020019062000104929190620001f2565b5050565b600033905090565b6000600560009054906101000a900473ffffffffffffffffffffffffffffffffffffffff16905081600560006101000a81548173ffffffffffffffffffffffffffffffffffffffff021916908373ffffffffffffffffffffffffffffffffffffffff1602179055508173ffffffffffffffffffffffffffffffffffffffff168173ffffffffffffffffffffffffffffffffffffffff167f8be0079c531659141344cd1fd0a4f28419497f9722a3daafe3b4186f6b6457e060405160405180910390a35050565b8060039080519060200190620001ee929190620001f2565b5050565b82805462000200906200047a565b90600052602060002090601f01602090048101928262000224576000855562000270565b82601f106200023f57805160ff191683800117855562000270565b8280016001018555821562000270579182015b828111156200026f57825182559160200191906001019062000252565b5b5090506200027f919062000283565b5090565b5b808211156200029e57600081600090555060010162000284565b5090565b6000620002b9620002b384620003c6565b6200039d565b905082815260208101848484011115620002d857620002d762000549565b5b620002e584828562000444565b509392505050565b600081519050620002fe8162000569565b92915050565b600082601f8301126200031c576200031b62000544565b5b81516200032e848260208601620002a2565b91505092915050565b6000806040838503121562000351576200035062000553565b5b600083015167ffffffffffffffff8111156200037257620003716200054e565b5b620003808582860162000304565b92505060206200039385828601620002ed565b9150509250929050565b6000620003a9620003bc565b9050620003b78282620004b0565b919050565b6000604051905090565b600067ffffffffffffffff821115620003e457620003e362000515565b5b620003ef8262000558565b9050602081019050919050565b6000620004098262000424565b9050919050565b60006200041d82620003fc565b9050919050565b600073ffffffffffffffffffffffffffffffffffffffff82169050919050565b60005b838110156200046457808201518184015260208101905062000447565b8381111562000474576000848401525b50505050565b600060028204905060018216806200049357607f821691505b60208210811415620004aa57620004a9620004e6565b5b50919050565b620004bb8262000558565b810181811067ffffffffffffffff82111715620004dd57620004dc62000515565b5b80604052505050565b7f4e487b7100000000000000000000000000000000000000000000000000000000600052602260045260246000fd5b7f4e487b7100000000000000000000000000000000000000000000000000000000600052604160045260246000fd5b600080fd5b600080fd5b600080fd5b600080fd5b6000601f19601f8301169050919050565b620005748162000410565b81146200058057600080fd5b50565b61450980620005936000396000f3fe608060405234801561001057600080fd5b50600436106101155760003560e01c8063715018a6116100a2578063a22cb46511610071578063a22cb465146102f2578063e985e9c51461030e578063f242432a1461033e578063f2fde38b1461035a578063f5298aca1461037657610115565b8063715018a61461027c5780637199a82f1461028657806374a4d951146102b65780638da5cb5b146102d457610115565b80632eb2c2d6116100e95780632eb2c2d6146101c8578063396b233f146101e45780634e1273f414610200578063519dc8d2146102305780636b20c4541461026057610115565b8062fdd58e1461011a57806301ffc9a71461014a5780630e89341c1461017a57806317d70f7c146101aa575b600080fd5b610134600480360381019061012f9190612e2c565b610392565b60405161014191906139d1565b60405180910390f35b610164600480360381019061015f9190612f64565b61045b565b6040516101719190613719565b60405180910390f35b610194600480360381019061018f9190613036565b61053d565b6040516101a1919061374f565b60405180910390f35b6101b261054f565b6040516101bf91906139d1565b60405180910390f35b6101e260048036038101906101dd9190612bfb565b610560565b005b6101fe60048036038101906101f99190612e2c565b6106f9565b005b61021a60048036038101906102159190612ebf565b610969565b60405161022791906136c0565b60405180910390f35b61024a60048036038101906102459190612b8e565b610a82565b60405161025791906136c0565b60405180910390f35b61027a60048036038101906102759190612d61565b610bb2565b005b610284610c4f565b005b6102a0600480360381019061029b9190612fbe565b610c63565b6040516102ad91906139d1565b60405180910390f35b6102be610e71565b6040516102cb9190613734565b60405180910390f35b6102dc610e97565b6040516102e99190613583565b60405180910390f35b61030c60048036038101906103079190612dec565b610ec1565b005b61032860048036038101906103239190612bbb565b610ed7565b6040516103359190613719565b60405180910390f35b61035860048036038101906103539190612cca565b610f6b565b005b610374600480360381019061036f9190612b8e565b611104565b005b610390600480360381019061038b9190612e6c565b611188565b005b60008073ffffffffffffffffffffffffffffffffffffffff168373ffffffffffffffffffffffffffffffffffffffff161415610403576040517f08c379a00000000000000000000000000000000000000000000000000000000081526004016103fa90613851565b60405180910390fd5b60008083815260200190815260200160002060008473ffffffffffffffffffffffffffffffffffffffff1673ffffffffffffffffffffffffffffffffffffffff16815260200190815260200160002054905092915050565b60007fd9b67a26000000000000000000000000000000000000000000000000000000007bffffffffffffffffffffffffffffffffffffffffffffffffffffffff1916827bffffffffffffffffffffffffffffffffffffffffffffffffffffffff1916148061052657507f0e89341c000000000000000000000000000000000000000000000000000000007bffffffffffffffffffffffffffffffffffffffffffffffffffffffff1916827bffffffffffffffffffffffffffffffffffffffffffffffffffffffff1916145b80610536575061053582611225565b5b9050919050565b60606105488261128f565b9050919050565b600061055b6006611374565b905090565b60011515600960009054906101000a900473ffffffffffffffffffffffffffffffffffffffff1673ffffffffffffffffffffffffffffffffffffffff166328060c166105aa611382565b6040518263ffffffff1660e01b81526004016105c69190613583565b60206040518083038186803b1580156105de57600080fd5b505afa1580156105f2573d6000803e3d6000fd5b505050506040513d601f19601f820116820180604052508101906106169190612f37565b151514610658576040517f08c379a000000000000000000000000000000000000000000000000000000000815260040161064f906137d1565b60405180910390fd5b610660611382565b73ffffffffffffffffffffffffffffffffffffffff168573ffffffffffffffffffffffffffffffffffffffff1614806106a657506106a5856106a0611382565b610ed7565b5b6106e5576040517f08c379a00000000000000000000000000000000000000000000000000000000081526004016106dc906138b1565b60405180910390fd5b6106f2858585858561138a565b5050505050565b60011515600960009054906101000a900473ffffffffffffffffffffffffffffffffffffffff1673ffffffffffffffffffffffffffffffffffffffff166328060c16610743611382565b6040518263ffffffff1660e01b815260040161075f9190613583565b60206040518083038186803b15801561077757600080fd5b505afa15801561078b573d6000803e3d6000fd5b505050506040513d601f19601f820116820180604052508101906107af9190612f37565b1515146107f1576040517f08c379a00000000000000000000000000000000000000000000000000000000081526004016107e8906137d1565b60405180910390fd5b6107fb6006611374565b81111561083d576040517f08c379a0000000000000000000000000000000000000000000000000000000008152600401610834906138d1565b60405180910390fd5b60011515600960009054906101000a900473ffffffffffffffffffffffffffffffffffffffff1673ffffffffffffffffffffffffffffffffffffffff16631fa36a49610887611382565b600860008681526020019081526020016000206040518363ffffffff1660e01b81526004016108b7929190613690565b60206040518083038186803b1580156108cf57600080fd5b505afa1580156108e3573d6000803e3d6000fd5b505050506040513d601f19601f820116820180604052508101906109079190612f37565b151514610949576040517f08c379a000000000000000000000000000000000000000000000000000000000815260040161094090613871565b60405180910390fd5b61096582826001604051806020016040528060008152506116ac565b5050565b606081518351146109af576040517f08c379a00000000000000000000000000000000000000000000000000000000081526004016109a690613971565b60405180910390fd5b6000835167ffffffffffffffff8111156109cc576109cb613dee565b5b6040519080825280602002602001820160405280156109fa5781602001602082028036833780820191505090505b50905060005b8451811015610a7757610a47858281518110610a1f57610a1e613dbf565b5b6020026020010151858381518110610a3a57610a39613dbf565b5b6020026020010151610392565b828281518110610a5a57610a59613dbf565b5b60200260200101818152505080610a7090613d18565b9050610a00565b508091505092915050565b60606000610a906006611374565b67ffffffffffffffff811115610aa957610aa8613dee565b5b604051908082528060200260200182016040528015610ad75781602001602082028036833780820191505090505b50905060005b610ae76006611374565b811015610b4f5783828281518110610b0257610b01613dbf565b5b602002602001019073ffffffffffffffffffffffffffffffffffffffff16908173ffffffffffffffffffffffffffffffffffffffff16815250508080610b4790613d18565b915050610add565b50610baa816007805480602002602001604051908101604052809291908181526020018280548015610ba057602002820191906000526020600020905b815481526020019060010190808311610b8c575b5050505050610969565b915050919050565b610bba611382565b73ffffffffffffffffffffffffffffffffffffffff168373ffffffffffffffffffffffffffffffffffffffff161480610c005750610bff83610bfa611382565b610ed7565b5b610c3f576040517f08c379a0000000000000000000000000000000000000000000000000000000008152600401610c3690613791565b60405180910390fd5b610c4a83838361185d565b505050565b610c57611b2c565b610c616000611baa565b565b6000600960009054906101000a900473ffffffffffffffffffffffffffffffffffffffff1673ffffffffffffffffffffffffffffffffffffffff16639e60f6cc846040518263ffffffff1660e01b8152600401610cc0919061374f565b60206040518083038186803b158015610cd857600080fd5b505afa158015610cec573d6000803e3d6000fd5b505050506040513d601f19601f82011682018060405250810190610d109190612f37565b50600960009054906101000a900473ffffffffffffffffffffffffffffffffffffffff1673ffffffffffffffffffffffffffffffffffffffff1663b8884e51610d57611382565b856040518363ffffffff1660e01b8152600401610d75929190613660565b60006040518083038186803b158015610d8d57600080fd5b505afa158015610da1573d6000803e3d6000fd5b50505050610daf6006611c70565b6000610dbb6006611374565b9050600781908060018154018082558091505060019003906000526020600020016000909190919091505583600860008381526020019081526020016000209080519060200190610e0d929190612851565b50610e188184611c86565b803373ffffffffffffffffffffffffffffffffffffffff167f278b0fd0170e87df8d6e9c94b47d3ff7382de693c547e6089b53f9972c53238942604051610e5f91906139d1565b60405180910390a38091505092915050565b600960009054906101000a900473ffffffffffffffffffffffffffffffffffffffff1681565b6000600560009054906101000a900473ffffffffffffffffffffffffffffffffffffffff16905090565b610ed3610ecc611382565b8383611cf2565b5050565b6000600160008473ffffffffffffffffffffffffffffffffffffffff1673ffffffffffffffffffffffffffffffffffffffff16815260200190815260200160002060008373ffffffffffffffffffffffffffffffffffffffff1673ffffffffffffffffffffffffffffffffffffffff16815260200190815260200160002060009054906101000a900460ff16905092915050565b60011515600960009054906101000a900473ffffffffffffffffffffffffffffffffffffffff1673ffffffffffffffffffffffffffffffffffffffff166328060c16610fb5611382565b6040518263ffffffff1660e01b8152600401610fd19190613583565b60206040518083038186803b158015610fe957600080fd5b505afa158015610ffd573d6000803e3d6000fd5b505050506040513d601f19601f820116820180604052508101906110219190612f37565b151514611063576040517f08c379a000000000000000000000000000000000000000000000000000000000815260040161105a906137d1565b60405180910390fd5b61106b611382565b73ffffffffffffffffffffffffffffffffffffffff168573ffffffffffffffffffffffffffffffffffffffff1614806110b157506110b0856110ab611382565b610ed7565b5b6110f0576040517f08c379a00000000000000000000000000000000000000000000000000000000081526004016110e790613831565b60405180910390fd5b6110fd8585858585611e5f565b5050505050565b61110c611b2c565b600073ffffffffffffffffffffffffffffffffffffffff168173ffffffffffffffffffffffffffffffffffffffff16141561117c576040517f08c379a0000000000000000000000000000000000000000000000000000000008152600401611173906137f1565b60405180910390fd5b61118581611baa565b50565b611190611382565b73ffffffffffffffffffffffffffffffffffffffff168373ffffffffffffffffffffffffffffffffffffffff1614806111d657506111d5836111d0611382565b610ed7565b5b611215576040517f08c379a000000000000000000000000000000000000000000000000000000000815260040161120c90613791565b60405180910390fd5b6112208383836120fb565b505050565b60007f01ffc9a7000000000000000000000000000000000000000000000000000000007bffffffffffffffffffffffffffffffffffffffffffffffffffffffff1916827bffffffffffffffffffffffffffffffffffffffffffffffffffffffff1916149050919050565b606060006004600084815260200190815260200160002080546112b190613cb5565b80601f01602080910402602001604051908101604052809291908181526020018280546112dd90613cb5565b801561132a5780601f106112ff5761010080835404028352916020019161132a565b820191906000526020600020905b81548152906001019060200180831161130d57829003601f168201915b5050505050905060008151116113485761134383612342565b61136c565b60038160405160200161135c92919061355f565b6040516020818303038152906040525b915050919050565b600081600001549050919050565b600033905090565b81518351146113ce576040517f08c379a00000000000000000000000000000000000000000000000000000000081526004016113c590613991565b60405180910390fd5b600073ffffffffffffffffffffffffffffffffffffffff168473ffffffffffffffffffffffffffffffffffffffff16141561143e576040517f08c379a000000000000000000000000000000000000000000000000000000000815260040161143590613891565b60405180910390fd5b6000611448611382565b90506114588187878787876123d6565b60005b845181101561160957600085828151811061147957611478613dbf565b5b60200260200101519050600085838151811061149857611497613dbf565b5b60200260200101519050600080600084815260200190815260200160002060008b73ffffffffffffffffffffffffffffffffffffffff1673ffffffffffffffffffffffffffffffffffffffff16815260200190815260200160002054905081811015611539576040517f08c379a000000000000000000000000000000000000000000000000000000000815260040161153090613911565b60405180910390fd5b81810360008085815260200190815260200160002060008c73ffffffffffffffffffffffffffffffffffffffff1673ffffffffffffffffffffffffffffffffffffffff168152602001908152602001600020819055508160008085815260200190815260200160002060008b73ffffffffffffffffffffffffffffffffffffffff1673ffffffffffffffffffffffffffffffffffffffff16815260200190815260200160002060008282546115ee9190613b85565b925050819055505050508061160290613d18565b905061145b565b508473ffffffffffffffffffffffffffffffffffffffff168673ffffffffffffffffffffffffffffffffffffffff168273ffffffffffffffffffffffffffffffffffffffff167f4a39dc06d4c0dbc64b70af90fd698a233a518aa5d07e595d983b8c0526c8f7fb87876040516116809291906136e2565b60405180910390a46116968187878787876123de565b6116a48187878787876123e6565b505050505050565b600073ffffffffffffffffffffffffffffffffffffffff168473ffffffffffffffffffffffffffffffffffffffff16141561171c576040517f08c379a0000000000000000000000000000000000000000000000000000000008152600401611713906139b1565b60405180910390fd5b6000611726611382565b90506000611733856125cd565b90506000611740856125cd565b9050611751836000898585896123d6565b8460008088815260200190815260200160002060008973ffffffffffffffffffffffffffffffffffffffff1673ffffffffffffffffffffffffffffffffffffffff16815260200190815260200160002060008282546117b09190613b85565b925050819055508673ffffffffffffffffffffffffffffffffffffffff16600073ffffffffffffffffffffffffffffffffffffffff168473ffffffffffffffffffffffffffffffffffffffff167fc3d58168c5ae7397731d063d5bbf3d657854427343f4c083240f7aacaa2d0f62898960405161182e9291906139ec565b60405180910390a4611845836000898585896123de565b61185483600089898989612647565b50505050505050565b600073ffffffffffffffffffffffffffffffffffffffff168373ffffffffffffffffffffffffffffffffffffffff1614156118cd576040517f08c379a00000000000000000000000000000000000000000000000000000000081526004016118c4906138f1565b60405180910390fd5b8051825114611911576040517f08c379a000000000000000000000000000000000000000000000000000000000815260040161190890613991565b60405180910390fd5b600061191b611382565b905061193b818560008686604051806020016040528060008152506123d6565b60005b8351811015611a8857600084828151811061195c5761195b613dbf565b5b60200260200101519050600084838151811061197b5761197a613dbf565b5b60200260200101519050600080600084815260200190815260200160002060008973ffffffffffffffffffffffffffffffffffffffff1673ffffffffffffffffffffffffffffffffffffffff16815260200190815260200160002054905081811015611a1c576040517f08c379a0000000000000000000000000000000000000000000000000000000008152600401611a1390613811565b60405180910390fd5b81810360008085815260200190815260200160002060008a73ffffffffffffffffffffffffffffffffffffffff1673ffffffffffffffffffffffffffffffffffffffff168152602001908152602001600020819055505050508080611a8090613d18565b91505061193e565b50600073ffffffffffffffffffffffffffffffffffffffff168473ffffffffffffffffffffffffffffffffffffffff168273ffffffffffffffffffffffffffffffffffffffff167f4a39dc06d4c0dbc64b70af90fd698a233a518aa5d07e595d983b8c0526c8f7fb8686604051611b009291906136e2565b60405180910390a4611b26818560008686604051806020016040528060008152506123de565b50505050565b611b34611382565b73ffffffffffffffffffffffffffffffffffffffff16611b52610e97565b73ffffffffffffffffffffffffffffffffffffffff1614611ba8576040517f08c379a0000000000000000000000000000000000000000000000000000000008152600401611b9f90613931565b60405180910390fd5b565b6000600560009054906101000a900473ffffffffffffffffffffffffffffffffffffffff16905081600560006101000a81548173ffffffffffffffffffffffffffffffffffffffff021916908373ffffffffffffffffffffffffffffffffffffffff1602179055508173ffffffffffffffffffffffffffffffffffffffff168173ffffffffffffffffffffffffffffffffffffffff167f8be0079c531659141344cd1fd0a4f28419497f9722a3daafe3b4186f6b6457e060405160405180910390a35050565b6001816000016000828254019250508190555050565b80600460008481526020019081526020016000209080519060200190611cad929190612851565b50817f6bb7ff708619ba0610cba295a58592e0451dee2622938c8755667688daf3529b611cd98461053d565b604051611ce6919061374f565b60405180910390a25050565b8173ffffffffffffffffffffffffffffffffffffffff168373ffffffffffffffffffffffffffffffffffffffff161415611d61576040517f08c379a0000000000000000000000000000000000000000000000000000000008152600401611d5890613951565b60405180910390fd5b80600160008573ffffffffffffffffffffffffffffffffffffffff1673ffffffffffffffffffffffffffffffffffffffff16815260200190815260200160002060008473ffffffffffffffffffffffffffffffffffffffff1673ffffffffffffffffffffffffffffffffffffffff16815260200190815260200160002060006101000a81548160ff0219169083151502179055508173ffffffffffffffffffffffffffffffffffffffff168373ffffffffffffffffffffffffffffffffffffffff167f17307eab39ab6107e8899845ad3d59bd9653f200f220920489ca2b5937696c3183604051611e529190613719565b60405180910390a3505050565b600073ffffffffffffffffffffffffffffffffffffffff168473ffffffffffffffffffffffffffffffffffffffff161415611ecf576040517f08c379a0000000000000000000000000000000000000000000000000000000008152600401611ec690613891565b60405180910390fd5b6000611ed9611382565b90506000611ee6856125cd565b90506000611ef3856125cd565b9050611f038389898585896123d6565b600080600088815260200190815260200160002060008a73ffffffffffffffffffffffffffffffffffffffff1673ffffffffffffffffffffffffffffffffffffffff16815260200190815260200160002054905085811015611f9a576040517f08c379a0000000000000000000000000000000000000000000000000000000008152600401611f9190613911565b60405180910390fd5b85810360008089815260200190815260200160002060008b73ffffffffffffffffffffffffffffffffffffffff1673ffffffffffffffffffffffffffffffffffffffff168152602001908152602001600020819055508560008089815260200190815260200160002060008a73ffffffffffffffffffffffffffffffffffffffff1673ffffffffffffffffffffffffffffffffffffffff168152602001908152602001600020600082825461204f9190613b85565b925050819055508773ffffffffffffffffffffffffffffffffffffffff168973ffffffffffffffffffffffffffffffffffffffff168573ffffffffffffffffffffffffffffffffffffffff167fc3d58168c5ae7397731d063d5bbf3d657854427343f4c083240f7aacaa2d0f628a8a6040516120cc9291906139ec565b60405180910390a46120e2848a8a86868a6123de565b6120f0848a8a8a8a8a612647565b505050505050505050565b600073ffffffffffffffffffffffffffffffffffffffff168373ffffffffffffffffffffffffffffffffffffffff16141561216b576040517f08c379a0000000000000000000000000000000000000000000000000000000008152600401612162906138f1565b60405180910390fd5b6000612175611382565b90506000612182846125cd565b9050600061218f846125cd565b90506121af838760008585604051806020016040528060008152506123d6565b600080600087815260200190815260200160002060008873ffffffffffffffffffffffffffffffffffffffff1673ffffffffffffffffffffffffffffffffffffffff16815260200190815260200160002054905084811015612246576040517f08c379a000000000000000000000000000000000000000000000000000000000815260040161223d90613811565b60405180910390fd5b84810360008088815260200190815260200160002060008973ffffffffffffffffffffffffffffffffffffffff1673ffffffffffffffffffffffffffffffffffffffff16815260200190815260200160002081905550600073ffffffffffffffffffffffffffffffffffffffff168773ffffffffffffffffffffffffffffffffffffffff168573ffffffffffffffffffffffffffffffffffffffff167fc3d58168c5ae7397731d063d5bbf3d657854427343f4c083240f7aacaa2d0f6289896040516123139291906139ec565b60405180910390a4612339848860008686604051806020016040528060008152506123de565b50505050505050565b60606002805461235190613cb5565b80601f016020809104026020016040519081016040528092919081815260200182805461237d90613cb5565b80156123ca5780601f1061239f576101008083540402835291602001916123ca565b820191906000526020600020905b8154815290600101906020018083116123ad57829003601f168201915b50505050509050919050565b505050505050565b505050505050565b6124058473ffffffffffffffffffffffffffffffffffffffff1661282e565b156125c5578373ffffffffffffffffffffffffffffffffffffffff1663bc197c8187878686866040518663ffffffff1660e01b815260040161244b95949392919061359e565b602060405180830381600087803b15801561246557600080fd5b505af192505050801561249657506040513d601f19601f820116820180604052508101906124939190612f91565b60015b61253c576124a2613e1d565b806308c379a014156124ff57506124b76143e1565b806124c25750612501565b806040517f08c379a00000000000000000000000000000000000000000000000000000000081526004016124f6919061374f565b60405180910390fd5b505b6040517f08c379a000000000000000000000000000000000000000000000000000000000815260040161253390613771565b60405180910390fd5b63bc197c8160e01b7bffffffffffffffffffffffffffffffffffffffffffffffffffffffff1916817bffffffffffffffffffffffffffffffffffffffffffffffffffffffff1916146125c3576040517f08c379a00000000000000000000000000000000000000000000000000000000081526004016125ba906137b1565b60405180910390fd5b505b505050505050565b60606000600167ffffffffffffffff8111156125ec576125eb613dee565b5b60405190808252806020026020018201604052801561261a5781602001602082028036833780820191505090505b509050828160008151811061263257612631613dbf565b5b60200260200101818152505080915050919050565b6126668473ffffffffffffffffffffffffffffffffffffffff1661282e565b15612826578373ffffffffffffffffffffffffffffffffffffffff1663f23a6e6187878686866040518663ffffffff1660e01b81526004016126ac959493929190613606565b602060405180830381600087803b1580156126c657600080fd5b505af19250505080156126f757506040513d601f19601f820116820180604052508101906126f49190612f91565b60015b61279d57612703613e1d565b806308c379a0141561276057506127186143e1565b806127235750612762565b806040517f08c379a0000000000000000000000000000000000000000000000000000000008152600401612757919061374f565b60405180910390fd5b505b6040517f08c379a000000000000000000000000000000000000000000000000000000000815260040161279490613771565b60405180910390fd5b63f23a6e6160e01b7bffffffffffffffffffffffffffffffffffffffffffffffffffffffff1916817bffffffffffffffffffffffffffffffffffffffffffffffffffffffff191614612824576040517f08c379a000000000000000000000000000000000000000000000000000000000815260040161281b906137b1565b60405180910390fd5b505b505050505050565b6000808273ffffffffffffffffffffffffffffffffffffffff163b119050919050565b82805461285d90613cb5565b90600052602060002090601f01602090048101928261287f57600085556128c6565b82601f1061289857805160ff19168380011785556128c6565b828001600101855582156128c6579182015b828111156128c55782518255916020019190600101906128aa565b5b5090506128d391906128d7565b5090565b5b808211156128f05760008160009055506001016128d8565b5090565b600061290761290284613a3a565b613a15565b9050808382526020820190508285602086028201111561292a57612929613e44565b5b60005b8581101561295a57816129408882612a58565b84526020840193506020830192505060018101905061292d565b5050509392505050565b600061297761297284613a66565b613a15565b9050808382526020820190508285602086028201111561299a57612999613e44565b5b60005b858110156129ca57816129b08882612b79565b84526020840193506020830192505060018101905061299d565b5050509392505050565b60006129e76129e284613a92565b613a15565b905082815260208101848484011115612a0357612a02613e49565b5b612a0e848285613c73565b509392505050565b6000612a29612a2484613ac3565b613a15565b905082815260208101848484011115612a4557612a44613e49565b5b612a50848285613c73565b509392505050565b600081359050612a6781614477565b92915050565b600082601f830112612a8257612a81613e3f565b5b8135612a928482602086016128f4565b91505092915050565b600082601f830112612ab057612aaf613e3f565b5b8135612ac0848260208601612964565b91505092915050565b600081359050612ad88161448e565b92915050565b600081519050612aed8161448e565b92915050565b600081359050612b02816144a5565b92915050565b600081519050612b17816144a5565b92915050565b600082601f830112612b3257612b31613e3f565b5b8135612b428482602086016129d4565b91505092915050565b600082601f830112612b6057612b5f613e3f565b5b8135612b70848260208601612a16565b91505092915050565b600081359050612b88816144bc565b92915050565b600060208284031215612ba457612ba3613e53565b5b6000612bb284828501612a58565b91505092915050565b60008060408385031215612bd257612bd1613e53565b5b6000612be085828601612a58565b9250506020612bf185828601612a58565b9150509250929050565b600080600080600060a08688031215612c1757612c16613e53565b5b6000612c2588828901612a58565b9550506020612c3688828901612a58565b945050604086013567ffffffffffffffff811115612c5757612c56613e4e565b5b612c6388828901612a9b565b935050606086013567ffffffffffffffff811115612c8457612c83613e4e565b5b612c9088828901612a9b565b925050608086013567ffffffffffffffff811115612cb157612cb0613e4e565b5b612cbd88828901612b1d565b9150509295509295909350565b600080600080600060a08688031215612ce657612ce5613e53565b5b6000612cf488828901612a58565b9550506020612d0588828901612a58565b9450506040612d1688828901612b79565b9350506060612d2788828901612b79565b925050608086013567ffffffffffffffff811115612d4857612d47613e4e565b5b612d5488828901612b1d565b9150509295509295909350565b600080600060608486031215612d7a57612d79613e53565b5b6000612d8886828701612a58565b935050602084013567ffffffffffffffff811115612da957612da8613e4e565b5b612db586828701612a9b565b925050604084013567ffffffffffffffff811115612dd657612dd5613e4e565b5b612de286828701612a9b565b9150509250925092565b60008060408385031215612e0357612e02613e53565b5b6000612e1185828601612a58565b9250506020612e2285828601612ac9565b9150509250929050565b60008060408385031215612e4357612e42613e53565b5b6000612e5185828601612a58565b9250506020612e6285828601612b79565b9150509250929050565b600080600060608486031215612e8557612e84613e53565b5b6000612e9386828701612a58565b9350506020612ea486828701612b79565b9250506040612eb586828701612b79565b9150509250925092565b60008060408385031215612ed657612ed5613e53565b5b600083013567ffffffffffffffff811115612ef457612ef3613e4e565b5b612f0085828601612a6d565b925050602083013567ffffffffffffffff811115612f2157612f20613e4e565b5b612f2d85828601612a9b565b9150509250929050565b600060208284031215612f4d57612f4c613e53565b5b6000612f5b84828501612ade565b91505092915050565b600060208284031215612f7a57612f79613e53565b5b6000612f8884828501612af3565b91505092915050565b600060208284031215612fa757612fa6613e53565b5b6000612fb584828501612b08565b91505092915050565b60008060408385031215612fd557612fd4613e53565b5b600083013567ffffffffffffffff811115612ff357612ff2613e4e565b5b612fff85828601612b4b565b925050602083013567ffffffffffffffff8111156130205761301f613e4e565b5b61302c85828601612b4b565b9150509250929050565b60006020828403121561304c5761304b613e53565b5b600061305a84828501612b79565b91505092915050565b600061306f8383613541565b60208301905092915050565b61308481613bdb565b82525050565b600061309582613b19565b61309f8185613b47565b93506130aa83613af4565b8060005b838110156130db5781516130c28882613063565b97506130cd83613b3a565b9250506001810190506130ae565b5085935050505092915050565b6130f181613bed565b82525050565b600061310282613b24565b61310c8185613b58565b935061311c818560208601613c82565b61312581613e58565b840191505092915050565b61313981613c4f565b82525050565b600061314a82613b2f565b6131548185613b69565b9350613164818560208601613c82565b61316d81613e58565b840191505092915050565b600061318382613b2f565b61318d8185613b7a565b935061319d818560208601613c82565b80840191505092915050565b600081546131b681613cb5565b6131c08186613b69565b945060018216600081146131db57600181146131ed57613220565b60ff1983168652602086019350613220565b6131f685613b04565b60005b83811015613218578154818901526001820191506020810190506131f9565b808801955050505b50505092915050565b6000815461323681613cb5565b6132408186613b7a565b9450600182166000811461325b576001811461326c5761329f565b60ff1983168652818601935061329f565b61327585613b04565b60005b8381101561329757815481890152600182019150602081019050613278565b838801955050505b50505092915050565b60006132b5603483613b69565b91506132c082613e76565b604082019050919050565b60006132d8602f83613b69565b91506132e382613ec5565b604082019050919050565b60006132fb602883613b69565b915061330682613f14565b604082019050919050565b600061331e601c83613b69565b915061332982613f63565b602082019050919050565b6000613341602683613b69565b915061334c82613f8c565b604082019050919050565b6000613364602483613b69565b915061336f82613fdb565b604082019050919050565b6000613387602983613b69565b91506133928261402a565b604082019050919050565b60006133aa602a83613b69565b91506133b582614079565b604082019050919050565b60006133cd602d83613b69565b91506133d8826140c8565b604082019050919050565b60006133f0602583613b69565b91506133fb82614117565b604082019050919050565b6000613413603283613b69565b915061341e82614166565b604082019050919050565b6000613436601583613b69565b9150613441826141b5565b602082019050919050565b6000613459602383613b69565b9150613464826141de565b604082019050919050565b600061347c602a83613b69565b91506134878261422d565b604082019050919050565b600061349f602083613b69565b91506134aa8261427c565b602082019050919050565b60006134c2602983613b69565b91506134cd826142a5565b604082019050919050565b60006134e5602983613b69565b91506134f0826142f4565b604082019050919050565b6000613508602883613b69565b915061351382614343565b604082019050919050565b600061352b602183613b69565b915061353682614392565b604082019050919050565b61354a81613c45565b82525050565b61355981613c45565b82525050565b600061356b8285613229565b91506135778284613178565b91508190509392505050565b6000602082019050613598600083018461307b565b92915050565b600060a0820190506135b3600083018861307b565b6135c0602083018761307b565b81810360408301526135d2818661308a565b905081810360608301526135e6818561308a565b905081810360808301526135fa81846130f7565b90509695505050505050565b600060a08201905061361b600083018861307b565b613628602083018761307b565b6136356040830186613550565b6136426060830185613550565b818103608083015261365481846130f7565b90509695505050505050565b6000604082019050613675600083018561307b565b8181036020830152613687818461313f565b90509392505050565b60006040820190506136a5600083018561307b565b81810360208301526136b781846131a9565b90509392505050565b600060208201905081810360008301526136da818461308a565b905092915050565b600060408201905081810360008301526136fc818561308a565b90508181036020830152613710818461308a565b90509392505050565b600060208201905061372e60008301846130e8565b92915050565b60006020820190506137496000830184613130565b92915050565b60006020820190508181036000830152613769818461313f565b905092915050565b6000602082019050818103600083015261378a816132a8565b9050919050565b600060208201905081810360008301526137aa816132cb565b9050919050565b600060208201905081810360008301526137ca816132ee565b9050919050565b600060208201905081810360008301526137ea81613311565b9050919050565b6000602082019050818103600083015261380a81613334565b9050919050565b6000602082019050818103600083015261382a81613357565b9050919050565b6000602082019050818103600083015261384a8161337a565b9050919050565b6000602082019050818103600083015261386a8161339d565b9050919050565b6000602082019050818103600083015261388a816133c0565b9050919050565b600060208201905081810360008301526138aa816133e3565b9050919050565b600060208201905081810360008301526138ca81613406565b9050919050565b600060208201905081810360008301526138ea81613429565b9050919050565b6000602082019050818103600083015261390a8161344c565b9050919050565b6000602082019050818103600083015261392a8161346f565b9050919050565b6000602082019050818103600083015261394a81613492565b9050919050565b6000602082019050818103600083015261396a816134b5565b9050919050565b6000602082019050818103600083015261398a816134d8565b9050919050565b600060208201905081810360008301526139aa816134fb565b9050919050565b600060208201905081810360008301526139ca8161351e565b9050919050565b60006020820190506139e66000830184613550565b92915050565b6000604082019050613a016000830185613550565b613a0e6020830184613550565b9392505050565b6000613a1f613a30565b9050613a2b8282613ce7565b919050565b6000604051905090565b600067ffffffffffffffff821115613a5557613a54613dee565b5b602082029050602081019050919050565b600067ffffffffffffffff821115613a8157613a80613dee565b5b602082029050602081019050919050565b600067ffffffffffffffff821115613aad57613aac613dee565b5b613ab682613e58565b9050602081019050919050565b600067ffffffffffffffff821115613ade57613add613dee565b5b613ae782613e58565b9050602081019050919050565b6000819050602082019050919050565b60008190508160005260206000209050919050565b600081519050919050565b600081519050919050565b600081519050919050565b6000602082019050919050565b600082825260208201905092915050565b600082825260208201905092915050565b600082825260208201905092915050565b600081905092915050565b6000613b9082613c45565b9150613b9b83613c45565b9250827fffffffffffffffffffffffffffffffffffffffffffffffffffffffffffffffff03821115613bd057613bcf613d61565b5b828201905092915050565b6000613be682613c25565b9050919050565b60008115159050919050565b60007fffffffff0000000000000000000000000000000000000000000000000000000082169050919050565b600073ffffffffffffffffffffffffffffffffffffffff82169050919050565b6000819050919050565b6000613c5a82613c61565b9050919050565b6000613c6c82613c25565b9050919050565b82818337600083830152505050565b60005b83811015613ca0578082015181840152602081019050613c85565b83811115613caf576000848401525b50505050565b60006002820490506001821680613ccd57607f821691505b60208210811415613ce157613ce0613d90565b5b50919050565b613cf082613e58565b810181811067ffffffffffffffff82111715613d0f57613d0e613dee565b5b80604052505050565b6000613d2382613c45565b91507fffffffffffffffffffffffffffffffffffffffffffffffffffffffffffffffff821415613d5657613d55613d61565b5b600182019050919050565b7f4e487b7100000000000000000000000000000000000000000000000000000000600052601160045260246000fd5b7f4e487b7100000000000000000000000000000000000000000000000000000000600052602260045260246000fd5b7f4e487b7100000000000000000000000000000000000000000000000000000000600052603260045260246000fd5b7f4e487b7100000000000000000000000000000000000000000000000000000000600052604160045260246000fd5b600060033d1115613e3c5760046000803e613e39600051613e69565b90505b90565b600080fd5b600080fd5b600080fd5b600080fd5b600080fd5b6000601f19601f8301169050919050565b60008160e01c9050919050565b7f455243313135353a207472616e7366657220746f206e6f6e204552433131353560008201527f526563656976657220696d706c656d656e746572000000000000000000000000602082015250565b7f455243313135353a2063616c6c6572206973206e6f7420746f6b656e206f776e60008201527f6572206e6f7220617070726f7665640000000000000000000000000000000000602082015250565b7f455243313135353a204552433131353552656365697665722072656a6563746560008201527f6420746f6b656e73000000000000000000000000000000000000000000000000602082015250565b7f4e6f7420616e20617070726f7665642063726564656e7469616c657200000000600082015250565b7f4f776e61626c653a206e6577206f776e657220697320746865207a65726f206160008201527f6464726573730000000000000000000000000000000000000000000000000000602082015250565b7f455243313135353a206275726e20616d6f756e7420657863656564732062616c60008201527f616e636500000000000000000000000000000000000000000000000000000000602082015250565b7f455243313135353a2063616c6c6572206973206e6f74206f776e6572206e6f7260008201527f20617070726f7665640000000000000000000000000000000000000000000000602082015250565b7f455243313135353a2061646472657373207a65726f206973206e6f742061207660008201527f616c6964206f776e657200000000000000000000000000000000000000000000602082015250565b7f446f6e2774206861766520636c656172616e636520666f72207468697320637260008201527f6564656e7469616c207479706500000000000000000000000000000000000000602082015250565b7f455243313135353a207472616e7366657220746f20746865207a65726f20616460008201527f6472657373000000000000000000000000000000000000000000000000000000602082015250565b7f455243313135353a207472616e736665722063616c6c6572206973206e6f742060008201527f6f776e6572206e6f7220617070726f7665640000000000000000000000000000602082015250565b7f496e76616c69642063726564656e7469616c2049440000000000000000000000600082015250565b7f455243313135353a206275726e2066726f6d20746865207a65726f206164647260008201527f6573730000000000000000000000000000000000000000000000000000000000602082015250565b7f455243313135353a20696e73756666696369656e742062616c616e636520666f60008201527f72207472616e7366657200000000000000000000000000000000000000000000602082015250565b7f4f776e61626c653a2063616c6c6572206973206e6f7420746865206f776e6572600082015250565b7f455243313135353a2073657474696e6720617070726f76616c2073746174757360008201527f20666f722073656c660000000000000000000000000000000000000000000000602082015250565b7f455243313135353a206163636f756e747320616e6420696473206c656e67746860008201527f206d69736d617463680000000000000000000000000000000000000000000000602082015250565b7f455243313135353a2069647320616e6420616d6f756e7473206c656e6774682060008201527f6d69736d61746368000000000000000000000000000000000000000000000000602082015250565b7f455243313135353a206d696e7420746f20746865207a65726f2061646472657360008201527f7300000000000000000000000000000000000000000000000000000000000000602082015250565b600060443d10156143f157614474565b6143f9613a30565b60043d036004823e80513d602482011167ffffffffffffffff82111715614421575050614474565b808201805167ffffffffffffffff81111561443f5750505050614474565b80602083010160043d03850181111561445c575050505050614474565b61446b82602001850186613ce7565b82955050505050505b90565b61448081613bdb565b811461448b57600080fd5b50565b61449781613bed565b81146144a257600080fd5b50565b6144ae81613bf9565b81146144b957600080fd5b50565b6144c581613c45565b81146144d057600080fd5b5056fea2646970667358221220b285c81a4b3dfe206ec1a55f2bc47ee7df1b682b5f9a353162ec733202157bc764736f6c63430008060033",
  "immutableReferences": {},
  "source": "// SPDX-License-Identifier: UNLICENSED\r\npragma solidity ^0.8.0;\r\n\r\n// FOR ABI VERIFICATION, first flatten contract\r\n// npm run flatten\r\n\r\n// import \"hardhat/console.sol\";\r\nimport \"@openzeppelin/contracts/access/Ownable.sol\";\r\nimport \"@openzeppelin/contracts/token/ERC1155/ERC1155.sol\";\r\nimport \"@openzeppelin/contracts/token/ERC1155/extensions/ERC1155Burnable.sol\";\r\nimport \"@openzeppelin/contracts/token/ERC1155/extensions/ERC1155URIStorage.sol\";\r\n//import \"@openzeppelin/contracts/token/ERC1155/extensions/IERC1155Receiver.sol\";\r\nimport \"@openzeppelin/contracts/utils/Counters.sol\";\r\nimport \"./SkillsClearance.sol\";\r\n\r\n// NOTE:\r\n// Should we use IERC1155MetadataURI to get URI of given ID? Conventional ERC1155 returns\r\n// the same URI with `{id}` for clients to replace manually with whatever token ID.\r\n// Akin to https://github.com/OpenZeppelin/openzeppelin-contracts/blob/master/contracts/token/ERC721/ERC721.sol#L93\r\n// `function tokenURI(uint256 tokenId)`\r\n\r\n// NOTE:\r\n// Right now, uri() returns same URI with `{id}`. When replaced, it returns JSON metadata of that ID (for token).\r\n// To get the image of that token, we need another call to the actual image after getting that JSON metadata,\r\n// since the metadata contains the image link. For Skills Wallet v1, image isn't really important. But in the future,\r\n// we may have to keep a separate mapping of hashes to either JSON metadata or images, and return both concurrently\r\n// on some function call (e.g. uri(uint256 tokenId) will return both links))\r\n\r\n// NOTE:\r\n// Solution to the uri with images and data could be by overiding the uri to give the id or hash of an ipfs\r\n\r\n// NOTE:\r\n// Static analyzer: slither contracts/SkillsWallet.sol --solc-remaps @openzeppelin=node_modules/@openzeppelin\r\n\r\n// TODO: Implement ERC1155Receiver to add custom hooks on receiving ERC1155.\r\n\r\n//TODO:\r\n// Make sure string length is bounded\r\n// URIStorage with ipfs hashes\r\n\r\n//TODO:\r\n//Testing:\r\n//1. Test New Admin Feature\r\n//2. Test New clearance Feature\r\n//3. Test New URI storage feature\r\n//4. Add Events\r\n\r\ncontract SkillsWallet is ERC1155, ERC1155Burnable, ERC1155URIStorage, Ownable {\r\n    using Counters for Counters.Counter;\r\n    //ERC-1155 Token Counters\r\n    Counters.Counter private _tokenIds;\r\n\r\n    uint256[] private _tokenIdArray;\r\n\r\n    mapping(uint256 => string) private _credentialIdType; //The credential type for a specific credential ID\r\n\r\n    SkillsClearance public clearanceContract;\r\n\r\n    //Constructor\r\n    constructor(string memory _uri, SkillsClearance _clearanceContract)\r\n        ERC1155(_uri)\r\n    {\r\n        _setBaseURI(_uri);\r\n        clearanceContract = _clearanceContract;\r\n    }\r\n\r\n    // Events\r\n    event Create(\r\n        address indexed credentialer,\r\n        uint256 indexed credentialId,\r\n        uint256 time\r\n    );\r\n\r\n    //Event for Adding a credentialer\r\n    //Event for removing a credentialer\r\n    //Event for Adding Head\r\n    //Event for Removing Head\r\n\r\n    // Override\r\n    function safeTransferFrom(\r\n        address from,\r\n        address to,\r\n        uint256 id,\r\n        uint256 amount,\r\n        bytes memory data\r\n    ) public virtual override {\r\n        require(\r\n            clearanceContract.isCredentialer(_msgSender()) == true,\r\n            \"Not an approved credentialer\"\r\n        );\r\n        require(\r\n            from == _msgSender() || isApprovedForAll(from, _msgSender()),\r\n            \"ERC1155: caller is not owner nor approved\"\r\n        );\r\n        _safeTransferFrom(from, to, id, amount, data);\r\n    }\r\n\r\n    function safeBatchTransferFrom(\r\n        address from,\r\n        address to,\r\n        uint256[] memory ids,\r\n        uint256[] memory amounts,\r\n        bytes memory data\r\n    ) public virtual override {\r\n        require(\r\n            clearanceContract.isCredentialer(_msgSender()) == true,\r\n            \"Not an approved credentialer\"\r\n        );\r\n        require(\r\n            from == _msgSender() || isApprovedForAll(from, _msgSender()),\r\n            \"ERC1155: transfer caller is not owner nor approved\"\r\n        );\r\n        _safeBatchTransferFrom(from, to, ids, amounts, data);\r\n    }\r\n\r\n    function uri(uint256 _tokenId)\r\n        public\r\n        view\r\n        override(ERC1155, ERC1155URIStorage)\r\n        returns (string memory)\r\n    {\r\n        return ERC1155URIStorage.uri(_tokenId);\r\n    }\r\n\r\n    function createCredential(string memory _type, string memory _uri)\r\n        public\r\n        returns (uint256)\r\n    {\r\n        clearanceContract.isValidType(_type);\r\n        clearanceContract.isClearedHead(_msgSender(), _type);\r\n        _tokenIds.increment();\r\n        uint256 newCredId = _tokenIds.current();\r\n        _tokenIdArray.push(newCredId);\r\n        _credentialIdType[newCredId] = _type;\r\n        _setURI(newCredId, _uri);\r\n        emit Create(msg.sender, newCredId, block.timestamp);\r\n        return newCredId;\r\n    }\r\n\r\n    function issueCredential(address receiver, uint256 credId) public {\r\n        require(\r\n            clearanceContract.isCredentialer(_msgSender()) == true,\r\n            \"Not an approved credentialer\"\r\n        );\r\n        require(credId <= _tokenIds.current(), \"Invalid credential ID\");\r\n        require(\r\n            clearanceContract.hasClearance(\r\n                _msgSender(),\r\n                _credentialIdType[credId]\r\n            ) == true,\r\n            \"Don't have clearance for this credential type\"\r\n        );\r\n        _mint(receiver, credId, 1, \"\");\r\n    }\r\n\r\n    function getUserTokens(address user)\r\n        external\r\n        view\r\n        returns (uint256[] memory userTokens)\r\n    {\r\n        // Get number of credentials owned by a learner\r\n        address[] memory accountArray = new address[](_tokenIds.current());\r\n        for (uint256 i = 0; i < _tokenIds.current(); i++) {\r\n            accountArray[i] = user; // no push for memory; since we know the size, alloc & write\r\n        }\r\n        return balanceOfBatch(accountArray, _tokenIdArray);\r\n    }\r\n\r\n    function tokenId() public view returns (uint256) {\r\n        return _tokenIds.current();\r\n    }\r\n}\r\n",
  "sourcePath": "D:\\IBlock\\truffle\\contracts\\SkillsWallet.sol",
  "compiler": {
    "name": "solc",
    "version": "0.8.6+commit.11564f7e.Emscripten.clang"
  },
  "schemaVersion": "3.4.10",
  "updatedAt": "2022-10-23T20:55:18.986Z",
  "devdoc": {
    "kind": "dev",
    "methods": {
      "balanceOf(address,uint256)": {
        "details": "See {IERC1155-balanceOf}. Requirements: - `account` cannot be the zero address."
      },
      "balanceOfBatch(address[],uint256[])": {
        "details": "See {IERC1155-balanceOfBatch}. Requirements: - `accounts` and `ids` must have the same length."
      },
      "isApprovedForAll(address,address)": {
        "details": "See {IERC1155-isApprovedForAll}."
      },
      "owner()": {
        "details": "Returns the address of the current owner."
      },
      "renounceOwnership()": {
        "details": "Leaves the contract without owner. It will not be possible to call `onlyOwner` functions anymore. Can only be called by the current owner. NOTE: Renouncing ownership will leave the contract without an owner, thereby removing any functionality that is only available to the owner."
      },
      "safeBatchTransferFrom(address,address,uint256[],uint256[],bytes)": {
        "details": "See {IERC1155-safeBatchTransferFrom}."
      },
      "safeTransferFrom(address,address,uint256,uint256,bytes)": {
        "details": "See {IERC1155-safeTransferFrom}."
      },
      "setApprovalForAll(address,bool)": {
        "details": "See {IERC1155-setApprovalForAll}."
      },
      "supportsInterface(bytes4)": {
        "details": "See {IERC165-supportsInterface}."
      },
      "transferOwnership(address)": {
        "details": "Transfers ownership of the contract to a new account (`newOwner`). Can only be called by the current owner."
      }
    },
    "version": 1
  },
  "userdoc": {
    "kind": "user",
    "methods": {},
    "version": 1
  }
}