{
  "contractName": "SkillsWallet",
  "abi": [
    {
      "inputs": [
        {
          "internalType": "string",
          "name": "initUri",
          "type": "string"
        },
        {
          "internalType": "address",
          "name": "initialCredentialer",
          "type": "address"
        }
      ],
      "stateMutability": "nonpayable",
      "type": "constructor"
    },
    {
      "anonymous": false,
      "inputs": [
        {
          "indexed": true,
          "internalType": "address",
          "name": "account",
          "type": "address"
        },
        {
          "indexed": true,
          "internalType": "address",
          "name": "operator",
          "type": "address"
        },
        {
          "indexed": false,
          "internalType": "bool",
          "name": "approved",
          "type": "bool"
        }
      ],
      "name": "ApprovalForAll",
      "type": "event"
    },
    {
      "anonymous": false,
      "inputs": [
        {
          "indexed": true,
          "internalType": "address",
          "name": "previousOwner",
          "type": "address"
        },
        {
          "indexed": true,
          "internalType": "address",
          "name": "newOwner",
          "type": "address"
        }
      ],
      "name": "OwnershipTransferred",
      "type": "event"
    },
    {
      "anonymous": false,
      "inputs": [
        {
          "indexed": true,
          "internalType": "address",
          "name": "operator",
          "type": "address"
        },
        {
          "indexed": true,
          "internalType": "address",
          "name": "from",
          "type": "address"
        },
        {
          "indexed": true,
          "internalType": "address",
          "name": "to",
          "type": "address"
        },
        {
          "indexed": false,
          "internalType": "uint256[]",
          "name": "ids",
          "type": "uint256[]"
        },
        {
          "indexed": false,
          "internalType": "uint256[]",
          "name": "values",
          "type": "uint256[]"
        }
      ],
      "name": "TransferBatch",
      "type": "event"
    },
    {
      "anonymous": false,
      "inputs": [
        {
          "indexed": true,
          "internalType": "address",
          "name": "operator",
          "type": "address"
        },
        {
          "indexed": true,
          "internalType": "address",
          "name": "from",
          "type": "address"
        },
        {
          "indexed": true,
          "internalType": "address",
          "name": "to",
          "type": "address"
        },
        {
          "indexed": false,
          "internalType": "uint256",
          "name": "id",
          "type": "uint256"
        },
        {
          "indexed": false,
          "internalType": "uint256",
          "name": "value",
          "type": "uint256"
        }
      ],
      "name": "TransferSingle",
      "type": "event"
    },
    {
      "anonymous": false,
      "inputs": [
        {
          "indexed": false,
          "internalType": "string",
          "name": "value",
          "type": "string"
        },
        {
          "indexed": true,
          "internalType": "uint256",
          "name": "id",
          "type": "uint256"
        }
      ],
      "name": "URI",
      "type": "event"
    },
    {
      "inputs": [
        {
          "internalType": "address",
          "name": "account",
          "type": "address"
        },
        {
          "internalType": "uint256",
          "name": "id",
          "type": "uint256"
        }
      ],
      "name": "balanceOf",
      "outputs": [
        {
          "internalType": "uint256",
          "name": "",
          "type": "uint256"
        }
      ],
      "stateMutability": "view",
      "type": "function"
    },
    {
      "inputs": [
        {
          "internalType": "address[]",
          "name": "accounts",
          "type": "address[]"
        },
        {
          "internalType": "uint256[]",
          "name": "ids",
          "type": "uint256[]"
        }
      ],
      "name": "balanceOfBatch",
      "outputs": [
        {
          "internalType": "uint256[]",
          "name": "",
          "type": "uint256[]"
        }
      ],
      "stateMutability": "view",
      "type": "function"
    },
    {
      "inputs": [
        {
          "internalType": "address",
          "name": "account",
          "type": "address"
        },
        {
          "internalType": "uint256",
          "name": "id",
          "type": "uint256"
        },
        {
          "internalType": "uint256",
          "name": "value",
          "type": "uint256"
        }
      ],
      "name": "burn",
      "outputs": [],
      "stateMutability": "nonpayable",
      "type": "function"
    },
    {
      "inputs": [
        {
          "internalType": "address",
          "name": "account",
          "type": "address"
        },
        {
          "internalType": "uint256[]",
          "name": "ids",
          "type": "uint256[]"
        },
        {
          "internalType": "uint256[]",
          "name": "values",
          "type": "uint256[]"
        }
      ],
      "name": "burnBatch",
      "outputs": [],
      "stateMutability": "nonpayable",
      "type": "function"
    },
    {
      "inputs": [
        {
          "internalType": "address",
          "name": "account",
          "type": "address"
        },
        {
          "internalType": "address",
          "name": "operator",
          "type": "address"
        }
      ],
      "name": "isApprovedForAll",
      "outputs": [
        {
          "internalType": "bool",
          "name": "",
          "type": "bool"
        }
      ],
      "stateMutability": "view",
      "type": "function"
    },
    {
      "inputs": [],
      "name": "owner",
      "outputs": [
        {
          "internalType": "address",
          "name": "",
          "type": "address"
        }
      ],
      "stateMutability": "view",
      "type": "function"
    },
    {
      "inputs": [],
      "name": "renounceOwnership",
      "outputs": [],
      "stateMutability": "nonpayable",
      "type": "function"
    },
    {
      "inputs": [
        {
          "internalType": "address",
          "name": "operator",
          "type": "address"
        },
        {
          "internalType": "bool",
          "name": "approved",
          "type": "bool"
        }
      ],
      "name": "setApprovalForAll",
      "outputs": [],
      "stateMutability": "nonpayable",
      "type": "function"
    },
    {
      "inputs": [
        {
          "internalType": "bytes4",
          "name": "interfaceId",
          "type": "bytes4"
        }
      ],
      "name": "supportsInterface",
      "outputs": [
        {
          "internalType": "bool",
          "name": "",
          "type": "bool"
        }
      ],
      "stateMutability": "view",
      "type": "function"
    },
    {
      "inputs": [
        {
          "internalType": "address",
          "name": "newOwner",
          "type": "address"
        }
      ],
      "name": "transferOwnership",
      "outputs": [],
      "stateMutability": "nonpayable",
      "type": "function"
    },
    {
      "inputs": [
        {
          "internalType": "uint256",
          "name": "id",
          "type": "uint256"
        }
      ],
      "name": "uri",
      "outputs": [
        {
          "internalType": "string",
          "name": "",
          "type": "string"
        }
      ],
      "stateMutability": "view",
      "type": "function"
    },
    {
      "inputs": [
        {
          "internalType": "address",
          "name": "from",
          "type": "address"
        },
        {
          "internalType": "address",
          "name": "to",
          "type": "address"
        },
        {
          "internalType": "uint256",
          "name": "id",
          "type": "uint256"
        },
        {
          "internalType": "uint256",
          "name": "amount",
          "type": "uint256"
        },
        {
          "internalType": "bytes",
          "name": "data",
          "type": "bytes"
        }
      ],
      "name": "safeTransferFrom",
      "outputs": [],
      "stateMutability": "nonpayable",
      "type": "function"
    },
    {
      "inputs": [
        {
          "internalType": "address",
          "name": "from",
          "type": "address"
        },
        {
          "internalType": "address",
          "name": "to",
          "type": "address"
        },
        {
          "internalType": "uint256[]",
          "name": "ids",
          "type": "uint256[]"
        },
        {
          "internalType": "uint256[]",
          "name": "amounts",
          "type": "uint256[]"
        },
        {
          "internalType": "bytes",
          "name": "data",
          "type": "bytes"
        }
      ],
      "name": "safeBatchTransferFrom",
      "outputs": [],
      "stateMutability": "nonpayable",
      "type": "function"
    },
    {
      "inputs": [
        {
          "internalType": "uint256",
          "name": "amount",
          "type": "uint256"
        },
        {
          "internalType": "string",
          "name": "hash",
          "type": "string"
        }
      ],
      "name": "createCredential",
      "outputs": [
        {
          "internalType": "uint256",
          "name": "",
          "type": "uint256"
        }
      ],
      "stateMutability": "nonpayable",
      "type": "function"
    },
    {
      "inputs": [
        {
          "internalType": "address",
          "name": "credentialer",
          "type": "address"
        }
      ],
      "name": "addCredentialer",
      "outputs": [],
      "stateMutability": "nonpayable",
      "type": "function"
    },
    {
      "inputs": [
        {
          "internalType": "address",
          "name": "credentialer",
          "type": "address"
        }
      ],
      "name": "removeCredentialer",
      "outputs": [],
      "stateMutability": "nonpayable",
      "type": "function"
    },
    {
      "inputs": [],
      "name": "getCredentialerCount",
      "outputs": [
        {
          "internalType": "uint256",
          "name": "",
          "type": "uint256"
        }
      ],
      "stateMutability": "view",
      "type": "function"
    },
    {
      "inputs": [
        {
          "internalType": "address",
          "name": "_user",
          "type": "address"
        }
      ],
      "name": "fetchUserTokens",
      "outputs": [
        {
          "internalType": "uint256[]",
          "name": "ownerTokens",
          "type": "uint256[]"
        }
      ],
      "stateMutability": "view",
      "type": "function"
    }
  ],
  "bytecode": "0x60806040523480156200001157600080fd5b506040516200439938038062004399833981810160405281019062000037919062000321565b604051806020016040528060008152506200005881620000f260201b60201c565b50620000796200006d6200010e60201b60201c565b6200011660201b60201c565b6001600660008373ffffffffffffffffffffffffffffffffffffffff1673ffffffffffffffffffffffffffffffffffffffff16815260200190815260200160002060006101000a81548160ff0219169083151502179055508160099080519060200190620000e9929190620001dc565b50505062000559565b80600290805190602001906200010a929190620001dc565b5050565b600033905090565b6000600360009054906101000a900473ffffffffffffffffffffffffffffffffffffffff16905081600360006101000a81548173ffffffffffffffffffffffffffffffffffffffff021916908373ffffffffffffffffffffffffffffffffffffffff1602179055508173ffffffffffffffffffffffffffffffffffffffff168173ffffffffffffffffffffffffffffffffffffffff167f8be0079c531659141344cd1fd0a4f28419497f9722a3daafe3b4186f6b6457e060405160405180910390a35050565b828054620001ea9062000450565b90600052602060002090601f0160209004810192826200020e57600085556200025a565b82601f106200022957805160ff19168380011785556200025a565b828001600101855582156200025a579182015b82811115620002595782518255916020019190600101906200023c565b5b5090506200026991906200026d565b5090565b5b80821115620002885760008160009055506001016200026e565b5090565b6000620002a36200029d84620003b0565b62000387565b905082815260208101848484011115620002c257620002c16200051f565b5b620002cf8482856200041a565b509392505050565b600081519050620002e8816200053f565b92915050565b600082601f8301126200030657620003056200051a565b5b8151620003188482602086016200028c565b91505092915050565b600080604083850312156200033b576200033a62000529565b5b600083015167ffffffffffffffff8111156200035c576200035b62000524565b5b6200036a85828601620002ee565b92505060206200037d85828601620002d7565b9150509250929050565b600062000393620003a6565b9050620003a1828262000486565b919050565b6000604051905090565b600067ffffffffffffffff821115620003ce57620003cd620004eb565b5b620003d9826200052e565b9050602081019050919050565b6000620003f382620003fa565b9050919050565b600073ffffffffffffffffffffffffffffffffffffffff82169050919050565b60005b838110156200043a5780820151818401526020810190506200041d565b838111156200044a576000848401525b50505050565b600060028204905060018216806200046957607f821691505b6020821081141562000480576200047f620004bc565b5b50919050565b62000491826200052e565b810181811067ffffffffffffffff82111715620004b357620004b2620004eb565b5b80604052505050565b7f4e487b7100000000000000000000000000000000000000000000000000000000600052602260045260246000fd5b7f4e487b7100000000000000000000000000000000000000000000000000000000600052604160045260246000fd5b600080fd5b600080fd5b600080fd5b600080fd5b6000601f19601f8301169050919050565b6200054a81620003e6565b81146200055657600080fd5b50565b613e3080620005696000396000f3fe608060405234801561001057600080fd5b50600436106101155760003560e01c8063715018a6116100a2578063e985e9c511610071578063e985e9c5146102dc578063f242432a1461030c578063f2fde38b14610328578063f4156ed014610344578063f5298aca1461037457610115565b8063715018a61461027a5780638da5cb5b146102845780639b046888146102a2578063a22cb465146102c057610115565b806344b79dae116100e957806344b79dae146101c65780634875bbba146101f65780634e1273f4146102125780636b20c4541461024257806371500c5e1461025e57610115565b8062fdd58e1461011a57806301ffc9a71461014a5780630e89341c1461017a5780632eb2c2d6146101aa575b600080fd5b610134600480360381019061012f9190612a3b565b610390565b6040516101419190613393565b60405180910390f35b610164600480360381019061015f9190612b46565b610459565b6040516101719190613156565b60405180910390f35b610194600480360381019061018f9190612ba0565b61053b565b6040516101a19190613171565b60405180910390f35b6101c460048036038101906101bf919061280a565b610579565b005b6101e060048036038101906101db919061279d565b6106ad565b6040516101ed91906130fd565b60405180910390f35b610210600480360381019061020b919061279d565b61082b565b005b61022c60048036038101906102279190612ace565b610931565b60405161023991906130fd565b60405180910390f35b61025c60048036038101906102579190612970565b610a4a565b005b6102786004803603810190610273919061279d565b610ae7565b005b610282610bed565b005b61028c610c75565b6040516102999190613020565b60405180910390f35b6102aa610c9f565b6040516102b79190613393565b60405180910390f35b6102da60048036038101906102d591906129fb565b610ca9565b005b6102f660048036038101906102f191906127ca565b610cbf565b6040516103039190613156565b60405180910390f35b610326600480360381019061032191906128d9565b610d53565b005b610342600480360381019061033d919061279d565b610e87565b005b61035e60048036038101906103599190612bcd565b610f7f565b60405161036b9190613393565b60405180910390f35b61038e60048036038101906103899190612a7b565b6110a2565b005b60008073ffffffffffffffffffffffffffffffffffffffff168373ffffffffffffffffffffffffffffffffffffffff161415610401576040517f08c379a00000000000000000000000000000000000000000000000000000000081526004016103f8906131d3565b60405180910390fd5b60008083815260200190815260200160002060008473ffffffffffffffffffffffffffffffffffffffff1673ffffffffffffffffffffffffffffffffffffffff16815260200190815260200160002054905092915050565b60007fd9b67a26000000000000000000000000000000000000000000000000000000007bffffffffffffffffffffffffffffffffffffffffffffffffffffffff1916827bffffffffffffffffffffffffffffffffffffffffffffffffffffffff1916148061052457507f0e89341c000000000000000000000000000000000000000000000000000000007bffffffffffffffffffffffffffffffffffffffffffffffffffffffff1916827bffffffffffffffffffffffffffffffffffffffffffffffffffffffff1916145b8061053457506105338261113f565b5b9050919050565b6060600960086000848152602001908152602001600020604051602001610563929190612ffc565b6040516020818303038152906040529050919050565b60011515600660003373ffffffffffffffffffffffffffffffffffffffff1673ffffffffffffffffffffffffffffffffffffffff16815260200190815260200160002060009054906101000a900460ff1615151461060c576040517f08c379a000000000000000000000000000000000000000000000000000000000815260040161060390613253565b60405180910390fd5b6106146111a9565b73ffffffffffffffffffffffffffffffffffffffff168573ffffffffffffffffffffffffffffffffffffffff16148061065a5750610659856106546111a9565b610cbf565b5b610699576040517f08c379a000000000000000000000000000000000000000000000000000000000815260040161069090613293565b60405180910390fd5b6106a685858585856111b1565b5050505050565b606060006106bb60046114c5565b905060008167ffffffffffffffff8111156106d9576106d86137b6565b5b6040519080825280602002602001820160405280156107075781602001602082028036833780820191505090505b50905060008267ffffffffffffffff811115610726576107256137b6565b5b6040519080825280602002602001820160405280156107545781602001602082028036833780820191505090505b50905060005b838110156107c3578582828151811061077657610775613787565b5b602002602001019073ffffffffffffffffffffffffffffffffffffffff16908173ffffffffffffffffffffffffffffffffffffffff168152505080806107bb906136e0565b91505061075a565b5061081e81600580548060200260200160405190810160405280929190818152602001828054801561081457602002820191906000526020600020905b815481526020019060010190808311610800575b5050505050610931565b9150819350505050919050565b60011515600660003373ffffffffffffffffffffffffffffffffffffffff1673ffffffffffffffffffffffffffffffffffffffff16815260200190815260200160002060009054906101000a900460ff161515146108be576040517f08c379a00000000000000000000000000000000000000000000000000000000081526004016108b590613253565b60405180910390fd5b6001600660008373ffffffffffffffffffffffffffffffffffffffff1673ffffffffffffffffffffffffffffffffffffffff16815260200190815260200160002060006101000a81548160ff02191690831515021790555060076000815480929190610929906136e0565b919050555050565b60608151835114610977576040517f08c379a000000000000000000000000000000000000000000000000000000000815260040161096e90613333565b60405180910390fd5b6000835167ffffffffffffffff811115610994576109936137b6565b5b6040519080825280602002602001820160405280156109c25781602001602082028036833780820191505090505b50905060005b8451811015610a3f57610a0f8582815181106109e7576109e6613787565b5b6020026020010151858381518110610a0257610a01613787565b5b6020026020010151610390565b828281518110610a2257610a21613787565b5b60200260200101818152505080610a38906136e0565b90506109c8565b508091505092915050565b610a526111a9565b73ffffffffffffffffffffffffffffffffffffffff168373ffffffffffffffffffffffffffffffffffffffff161480610a985750610a9783610a926111a9565b610cbf565b5b610ad7576040517f08c379a0000000000000000000000000000000000000000000000000000000008152600401610ace90613233565b60405180910390fd5b610ae28383836114d3565b505050565b60011515600660003373ffffffffffffffffffffffffffffffffffffffff1673ffffffffffffffffffffffffffffffffffffffff16815260200190815260200160002060009054906101000a900460ff16151514610b7a576040517f08c379a0000000000000000000000000000000000000000000000000000000008152600401610b7190613253565b60405180910390fd5b6000600660008373ffffffffffffffffffffffffffffffffffffffff1673ffffffffffffffffffffffffffffffffffffffff16815260200190815260200160002060006101000a81548160ff02191690831515021790555060076000815480929190610be590613653565b919050555050565b610bf56111a9565b73ffffffffffffffffffffffffffffffffffffffff16610c13610c75565b73ffffffffffffffffffffffffffffffffffffffff1614610c69576040517f08c379a0000000000000000000000000000000000000000000000000000000008152600401610c60906132f3565b60405180910390fd5b610c736000611784565b565b6000600360009054906101000a900473ffffffffffffffffffffffffffffffffffffffff16905090565b6000600754905090565b610cbb610cb46111a9565b838361184a565b5050565b6000600160008473ffffffffffffffffffffffffffffffffffffffff1673ffffffffffffffffffffffffffffffffffffffff16815260200190815260200160002060008373ffffffffffffffffffffffffffffffffffffffff1673ffffffffffffffffffffffffffffffffffffffff16815260200190815260200160002060009054906101000a900460ff16905092915050565b60011515600660003373ffffffffffffffffffffffffffffffffffffffff1673ffffffffffffffffffffffffffffffffffffffff16815260200190815260200160002060009054906101000a900460ff16151514610de6576040517f08c379a0000000000000000000000000000000000000000000000000000000008152600401610ddd90613253565b60405180910390fd5b610dee6111a9565b73ffffffffffffffffffffffffffffffffffffffff168573ffffffffffffffffffffffffffffffffffffffff161480610e345750610e3385610e2e6111a9565b610cbf565b5b610e73576040517f08c379a0000000000000000000000000000000000000000000000000000000008152600401610e6a90613233565b60405180910390fd5b610e8085858585856119b7565b5050505050565b610e8f6111a9565b73ffffffffffffffffffffffffffffffffffffffff16610ead610c75565b73ffffffffffffffffffffffffffffffffffffffff1614610f03576040517f08c379a0000000000000000000000000000000000000000000000000000000008152600401610efa906132f3565b60405180910390fd5b600073ffffffffffffffffffffffffffffffffffffffff168173ffffffffffffffffffffffffffffffffffffffff161415610f73576040517f08c379a0000000000000000000000000000000000000000000000000000000008152600401610f6a906131f3565b60405180910390fd5b610f7c81611784565b50565b600060011515600660003373ffffffffffffffffffffffffffffffffffffffff1673ffffffffffffffffffffffffffffffffffffffff16815260200190815260200160002060009054906101000a900460ff16151514611014576040517f08c379a000000000000000000000000000000000000000000000000000000000815260040161100b90613253565b60405180910390fd5b61101e6004611c39565b600061102a60046114c5565b9050600581908060018154018082558091505060019003906000526020600020016000909190919091505561107033828660405180602001604052806000815250611c4f565b82600860008381526020019081526020016000209080519060200190611097929190612475565b508091505092915050565b6110aa6111a9565b73ffffffffffffffffffffffffffffffffffffffff168373ffffffffffffffffffffffffffffffffffffffff1614806110f057506110ef836110ea6111a9565b610cbf565b5b61112f576040517f08c379a000000000000000000000000000000000000000000000000000000000815260040161112690613233565b60405180910390fd5b61113a838383611de5565b505050565b60007f01ffc9a7000000000000000000000000000000000000000000000000000000007bffffffffffffffffffffffffffffffffffffffffffffffffffffffff1916827bffffffffffffffffffffffffffffffffffffffffffffffffffffffff1916149050919050565b600033905090565b81518351146111f5576040517f08c379a00000000000000000000000000000000000000000000000000000000081526004016111ec90613353565b60405180910390fd5b600073ffffffffffffffffffffffffffffffffffffffff168473ffffffffffffffffffffffffffffffffffffffff161415611265576040517f08c379a000000000000000000000000000000000000000000000000000000000815260040161125c90613273565b60405180910390fd5b600061126f6111a9565b905061127f818787878787612002565b60005b84518110156114305760008582815181106112a05761129f613787565b5b6020026020010151905060008583815181106112bf576112be613787565b5b60200260200101519050600080600084815260200190815260200160002060008b73ffffffffffffffffffffffffffffffffffffffff1673ffffffffffffffffffffffffffffffffffffffff16815260200190815260200160002054905081811015611360576040517f08c379a0000000000000000000000000000000000000000000000000000000008152600401611357906132d3565b60405180910390fd5b81810360008085815260200190815260200160002060008c73ffffffffffffffffffffffffffffffffffffffff1673ffffffffffffffffffffffffffffffffffffffff168152602001908152602001600020819055508160008085815260200190815260200160002060008b73ffffffffffffffffffffffffffffffffffffffff1673ffffffffffffffffffffffffffffffffffffffff16815260200190815260200160002060008282546114159190613547565b9250508190555050505080611429906136e0565b9050611282565b508473ffffffffffffffffffffffffffffffffffffffff168673ffffffffffffffffffffffffffffffffffffffff168273ffffffffffffffffffffffffffffffffffffffff167f4a39dc06d4c0dbc64b70af90fd698a233a518aa5d07e595d983b8c0526c8f7fb87876040516114a792919061311f565b60405180910390a46114bd81878787878761200a565b505050505050565b600081600001549050919050565b600073ffffffffffffffffffffffffffffffffffffffff168373ffffffffffffffffffffffffffffffffffffffff161415611543576040517f08c379a000000000000000000000000000000000000000000000000000000000815260040161153a906132b3565b60405180910390fd5b8051825114611587576040517f08c379a000000000000000000000000000000000000000000000000000000000815260040161157e90613353565b60405180910390fd5b60006115916111a9565b90506115b181856000868660405180602001604052806000815250612002565b60005b83518110156116fe5760008482815181106115d2576115d1613787565b5b6020026020010151905060008483815181106115f1576115f0613787565b5b60200260200101519050600080600084815260200190815260200160002060008973ffffffffffffffffffffffffffffffffffffffff1673ffffffffffffffffffffffffffffffffffffffff16815260200190815260200160002054905081811015611692576040517f08c379a000000000000000000000000000000000000000000000000000000000815260040161168990613213565b60405180910390fd5b81810360008085815260200190815260200160002060008a73ffffffffffffffffffffffffffffffffffffffff1673ffffffffffffffffffffffffffffffffffffffff1681526020019081526020016000208190555050505080806116f6906136e0565b9150506115b4565b50600073ffffffffffffffffffffffffffffffffffffffff168473ffffffffffffffffffffffffffffffffffffffff168273ffffffffffffffffffffffffffffffffffffffff167f4a39dc06d4c0dbc64b70af90fd698a233a518aa5d07e595d983b8c0526c8f7fb868660405161177692919061311f565b60405180910390a450505050565b6000600360009054906101000a900473ffffffffffffffffffffffffffffffffffffffff16905081600360006101000a81548173ffffffffffffffffffffffffffffffffffffffff021916908373ffffffffffffffffffffffffffffffffffffffff1602179055508173ffffffffffffffffffffffffffffffffffffffff168173ffffffffffffffffffffffffffffffffffffffff167f8be0079c531659141344cd1fd0a4f28419497f9722a3daafe3b4186f6b6457e060405160405180910390a35050565b8173ffffffffffffffffffffffffffffffffffffffff168373ffffffffffffffffffffffffffffffffffffffff1614156118b9576040517f08c379a00000000000000000000000000000000000000000000000000000000081526004016118b090613313565b60405180910390fd5b80600160008573ffffffffffffffffffffffffffffffffffffffff1673ffffffffffffffffffffffffffffffffffffffff16815260200190815260200160002060008473ffffffffffffffffffffffffffffffffffffffff1673ffffffffffffffffffffffffffffffffffffffff16815260200190815260200160002060006101000a81548160ff0219169083151502179055508173ffffffffffffffffffffffffffffffffffffffff168373ffffffffffffffffffffffffffffffffffffffff167f17307eab39ab6107e8899845ad3d59bd9653f200f220920489ca2b5937696c31836040516119aa9190613156565b60405180910390a3505050565b600073ffffffffffffffffffffffffffffffffffffffff168473ffffffffffffffffffffffffffffffffffffffff161415611a27576040517f08c379a0000000000000000000000000000000000000000000000000000000008152600401611a1e90613273565b60405180910390fd5b6000611a316111a9565b9050611a51818787611a42886121f1565b611a4b886121f1565b87612002565b600080600086815260200190815260200160002060008873ffffffffffffffffffffffffffffffffffffffff1673ffffffffffffffffffffffffffffffffffffffff16815260200190815260200160002054905083811015611ae8576040517f08c379a0000000000000000000000000000000000000000000000000000000008152600401611adf906132d3565b60405180910390fd5b83810360008087815260200190815260200160002060008973ffffffffffffffffffffffffffffffffffffffff1673ffffffffffffffffffffffffffffffffffffffff168152602001908152602001600020819055508360008087815260200190815260200160002060008873ffffffffffffffffffffffffffffffffffffffff1673ffffffffffffffffffffffffffffffffffffffff1681526020019081526020016000206000828254611b9d9190613547565b925050819055508573ffffffffffffffffffffffffffffffffffffffff168773ffffffffffffffffffffffffffffffffffffffff168373ffffffffffffffffffffffffffffffffffffffff167fc3d58168c5ae7397731d063d5bbf3d657854427343f4c083240f7aacaa2d0f628888604051611c1a9291906133ae565b60405180910390a4611c3082888888888861226b565b50505050505050565b6001816000016000828254019250508190555050565b600073ffffffffffffffffffffffffffffffffffffffff168473ffffffffffffffffffffffffffffffffffffffff161415611cbf576040517f08c379a0000000000000000000000000000000000000000000000000000000008152600401611cb690613373565b60405180910390fd5b6000611cc96111a9565b9050611cea81600087611cdb886121f1565b611ce4886121f1565b87612002565b8260008086815260200190815260200160002060008773ffffffffffffffffffffffffffffffffffffffff1673ffffffffffffffffffffffffffffffffffffffff1681526020019081526020016000206000828254611d499190613547565b925050819055508473ffffffffffffffffffffffffffffffffffffffff16600073ffffffffffffffffffffffffffffffffffffffff168273ffffffffffffffffffffffffffffffffffffffff167fc3d58168c5ae7397731d063d5bbf3d657854427343f4c083240f7aacaa2d0f628787604051611dc79291906133ae565b60405180910390a4611dde8160008787878761226b565b5050505050565b600073ffffffffffffffffffffffffffffffffffffffff168373ffffffffffffffffffffffffffffffffffffffff161415611e55576040517f08c379a0000000000000000000000000000000000000000000000000000000008152600401611e4c906132b3565b60405180910390fd5b6000611e5f6111a9565b9050611e8f81856000611e71876121f1565b611e7a876121f1565b60405180602001604052806000815250612002565b600080600085815260200190815260200160002060008673ffffffffffffffffffffffffffffffffffffffff1673ffffffffffffffffffffffffffffffffffffffff16815260200190815260200160002054905082811015611f26576040517f08c379a0000000000000000000000000000000000000000000000000000000008152600401611f1d90613213565b60405180910390fd5b82810360008086815260200190815260200160002060008773ffffffffffffffffffffffffffffffffffffffff1673ffffffffffffffffffffffffffffffffffffffff16815260200190815260200160002081905550600073ffffffffffffffffffffffffffffffffffffffff168573ffffffffffffffffffffffffffffffffffffffff168373ffffffffffffffffffffffffffffffffffffffff167fc3d58168c5ae7397731d063d5bbf3d657854427343f4c083240f7aacaa2d0f628787604051611ff39291906133ae565b60405180910390a45050505050565b505050505050565b6120298473ffffffffffffffffffffffffffffffffffffffff16612452565b156121e9578373ffffffffffffffffffffffffffffffffffffffff1663bc197c8187878686866040518663ffffffff1660e01b815260040161206f95949392919061303b565b602060405180830381600087803b15801561208957600080fd5b505af19250505080156120ba57506040513d601f19601f820116820180604052508101906120b79190612b73565b60015b612160576120c66137e5565b806308c379a0141561212357506120db613d08565b806120e65750612125565b806040517f08c379a000000000000000000000000000000000000000000000000000000000815260040161211a9190613171565b60405180910390fd5b505b6040517f08c379a000000000000000000000000000000000000000000000000000000000815260040161215790613193565b60405180910390fd5b63bc197c8160e01b7bffffffffffffffffffffffffffffffffffffffffffffffffffffffff1916817bffffffffffffffffffffffffffffffffffffffffffffffffffffffff1916146121e7576040517f08c379a00000000000000000000000000000000000000000000000000000000081526004016121de906131b3565b60405180910390fd5b505b505050505050565b60606000600167ffffffffffffffff8111156122105761220f6137b6565b5b60405190808252806020026020018201604052801561223e5781602001602082028036833780820191505090505b509050828160008151811061225657612255613787565b5b60200260200101818152505080915050919050565b61228a8473ffffffffffffffffffffffffffffffffffffffff16612452565b1561244a578373ffffffffffffffffffffffffffffffffffffffff1663f23a6e6187878686866040518663ffffffff1660e01b81526004016122d09594939291906130a3565b602060405180830381600087803b1580156122ea57600080fd5b505af192505050801561231b57506040513d601f19601f820116820180604052508101906123189190612b73565b60015b6123c1576123276137e5565b806308c379a01415612384575061233c613d08565b806123475750612386565b806040517f08c379a000000000000000000000000000000000000000000000000000000000815260040161237b9190613171565b60405180910390fd5b505b6040517f08c379a00000000000000000000000000000000000000000000000000000000081526004016123b890613193565b60405180910390fd5b63f23a6e6160e01b7bffffffffffffffffffffffffffffffffffffffffffffffffffffffff1916817bffffffffffffffffffffffffffffffffffffffffffffffffffffffff191614612448576040517f08c379a000000000000000000000000000000000000000000000000000000000815260040161243f906131b3565b60405180910390fd5b505b505050505050565b6000808273ffffffffffffffffffffffffffffffffffffffff163b119050919050565b8280546124819061367d565b90600052602060002090601f0160209004810192826124a357600085556124ea565b82601f106124bc57805160ff19168380011785556124ea565b828001600101855582156124ea579182015b828111156124e95782518255916020019190600101906124ce565b5b5090506124f791906124fb565b5090565b5b808211156125145760008160009055506001016124fc565b5090565b600061252b612526846133fc565b6133d7565b9050808382526020820190508285602086028201111561254e5761254d61380c565b5b60005b8581101561257e5781612564888261267c565b845260208401935060208301925050600181019050612551565b5050509392505050565b600061259b61259684613428565b6133d7565b905080838252602082019050828560208602820111156125be576125bd61380c565b5b60005b858110156125ee57816125d48882612788565b8452602084019350602083019250506001810190506125c1565b5050509392505050565b600061260b61260684613454565b6133d7565b90508281526020810184848401111561262757612626613811565b5b612632848285613611565b509392505050565b600061264d61264884613485565b6133d7565b90508281526020810184848401111561266957612668613811565b5b612674848285613611565b509392505050565b60008135905061268b81613d9e565b92915050565b600082601f8301126126a6576126a5613807565b5b81356126b6848260208601612518565b91505092915050565b600082601f8301126126d4576126d3613807565b5b81356126e4848260208601612588565b91505092915050565b6000813590506126fc81613db5565b92915050565b60008135905061271181613dcc565b92915050565b60008151905061272681613dcc565b92915050565b600082601f83011261274157612740613807565b5b81356127518482602086016125f8565b91505092915050565b600082601f83011261276f5761276e613807565b5b813561277f84826020860161263a565b91505092915050565b60008135905061279781613de3565b92915050565b6000602082840312156127b3576127b261381b565b5b60006127c18482850161267c565b91505092915050565b600080604083850312156127e1576127e061381b565b5b60006127ef8582860161267c565b92505060206128008582860161267c565b9150509250929050565b600080600080600060a086880312156128265761282561381b565b5b60006128348882890161267c565b95505060206128458882890161267c565b945050604086013567ffffffffffffffff81111561286657612865613816565b5b612872888289016126bf565b935050606086013567ffffffffffffffff81111561289357612892613816565b5b61289f888289016126bf565b925050608086013567ffffffffffffffff8111156128c0576128bf613816565b5b6128cc8882890161272c565b9150509295509295909350565b600080600080600060a086880312156128f5576128f461381b565b5b60006129038882890161267c565b95505060206129148882890161267c565b945050604061292588828901612788565b935050606061293688828901612788565b925050608086013567ffffffffffffffff81111561295757612956613816565b5b6129638882890161272c565b9150509295509295909350565b6000806000606084860312156129895761298861381b565b5b60006129978682870161267c565b935050602084013567ffffffffffffffff8111156129b8576129b7613816565b5b6129c4868287016126bf565b925050604084013567ffffffffffffffff8111156129e5576129e4613816565b5b6129f1868287016126bf565b9150509250925092565b60008060408385031215612a1257612a1161381b565b5b6000612a208582860161267c565b9250506020612a31858286016126ed565b9150509250929050565b60008060408385031215612a5257612a5161381b565b5b6000612a608582860161267c565b9250506020612a7185828601612788565b9150509250929050565b600080600060608486031215612a9457612a9361381b565b5b6000612aa28682870161267c565b9350506020612ab386828701612788565b9250506040612ac486828701612788565b9150509250925092565b60008060408385031215612ae557612ae461381b565b5b600083013567ffffffffffffffff811115612b0357612b02613816565b5b612b0f85828601612691565b925050602083013567ffffffffffffffff811115612b3057612b2f613816565b5b612b3c858286016126bf565b9150509250929050565b600060208284031215612b5c57612b5b61381b565b5b6000612b6a84828501612702565b91505092915050565b600060208284031215612b8957612b8861381b565b5b6000612b9784828501612717565b91505092915050565b600060208284031215612bb657612bb561381b565b5b6000612bc484828501612788565b91505092915050565b60008060408385031215612be457612be361381b565b5b6000612bf285828601612788565b925050602083013567ffffffffffffffff811115612c1357612c12613816565b5b612c1f8582860161275a565b9150509250929050565b6000612c358383612fde565b60208301905092915050565b612c4a8161359d565b82525050565b6000612c5b826134db565b612c658185613509565b9350612c70836134b6565b8060005b83811015612ca1578151612c888882612c29565b9750612c93836134fc565b925050600181019050612c74565b5085935050505092915050565b612cb7816135af565b82525050565b6000612cc8826134e6565b612cd2818561351a565b9350612ce2818560208601613620565b612ceb81613820565b840191505092915050565b6000612d01826134f1565b612d0b818561352b565b9350612d1b818560208601613620565b612d2481613820565b840191505092915050565b60008154612d3c8161367d565b612d46818661353c565b94506001821660008114612d615760018114612d7257612da5565b60ff19831686528186019350612da5565b612d7b856134c6565b60005b83811015612d9d57815481890152600182019150602081019050612d7e565b838801955050505b50505092915050565b6000612dbb60348361352b565b9150612dc68261383e565b604082019050919050565b6000612dde60288361352b565b9150612de98261388d565b604082019050919050565b6000612e01602b8361352b565b9150612e0c826138dc565b604082019050919050565b6000612e2460268361352b565b9150612e2f8261392b565b604082019050919050565b6000612e4760248361352b565b9150612e528261397a565b604082019050919050565b6000612e6a60298361352b565b9150612e75826139c9565b604082019050919050565b6000612e8d60218361352b565b9150612e9882613a18565b604082019050919050565b6000612eb060258361352b565b9150612ebb82613a67565b604082019050919050565b6000612ed360328361352b565b9150612ede82613ab6565b604082019050919050565b6000612ef660238361352b565b9150612f0182613b05565b604082019050919050565b6000612f19602a8361352b565b9150612f2482613b54565b604082019050919050565b6000612f3c60208361352b565b9150612f4782613ba3565b602082019050919050565b6000612f5f60298361352b565b9150612f6a82613bcc565b604082019050919050565b6000612f8260298361352b565b9150612f8d82613c1b565b604082019050919050565b6000612fa560288361352b565b9150612fb082613c6a565b604082019050919050565b6000612fc860218361352b565b9150612fd382613cb9565b604082019050919050565b612fe781613607565b82525050565b612ff681613607565b82525050565b60006130088285612d2f565b91506130148284612d2f565b91508190509392505050565b60006020820190506130356000830184612c41565b92915050565b600060a0820190506130506000830188612c41565b61305d6020830187612c41565b818103604083015261306f8186612c50565b905081810360608301526130838185612c50565b905081810360808301526130978184612cbd565b90509695505050505050565b600060a0820190506130b86000830188612c41565b6130c56020830187612c41565b6130d26040830186612fed565b6130df6060830185612fed565b81810360808301526130f18184612cbd565b90509695505050505050565b600060208201905081810360008301526131178184612c50565b905092915050565b600060408201905081810360008301526131398185612c50565b9050818103602083015261314d8184612c50565b90509392505050565b600060208201905061316b6000830184612cae565b92915050565b6000602082019050818103600083015261318b8184612cf6565b905092915050565b600060208201905081810360008301526131ac81612dae565b9050919050565b600060208201905081810360008301526131cc81612dd1565b9050919050565b600060208201905081810360008301526131ec81612df4565b9050919050565b6000602082019050818103600083015261320c81612e17565b9050919050565b6000602082019050818103600083015261322c81612e3a565b9050919050565b6000602082019050818103600083015261324c81612e5d565b9050919050565b6000602082019050818103600083015261326c81612e80565b9050919050565b6000602082019050818103600083015261328c81612ea3565b9050919050565b600060208201905081810360008301526132ac81612ec6565b9050919050565b600060208201905081810360008301526132cc81612ee9565b9050919050565b600060208201905081810360008301526132ec81612f0c565b9050919050565b6000602082019050818103600083015261330c81612f2f565b9050919050565b6000602082019050818103600083015261332c81612f52565b9050919050565b6000602082019050818103600083015261334c81612f75565b9050919050565b6000602082019050818103600083015261336c81612f98565b9050919050565b6000602082019050818103600083015261338c81612fbb565b9050919050565b60006020820190506133a86000830184612fed565b92915050565b60006040820190506133c36000830185612fed565b6133d06020830184612fed565b9392505050565b60006133e16133f2565b90506133ed82826136af565b919050565b6000604051905090565b600067ffffffffffffffff821115613417576134166137b6565b5b602082029050602081019050919050565b600067ffffffffffffffff821115613443576134426137b6565b5b602082029050602081019050919050565b600067ffffffffffffffff82111561346f5761346e6137b6565b5b61347882613820565b9050602081019050919050565b600067ffffffffffffffff8211156134a05761349f6137b6565b5b6134a982613820565b9050602081019050919050565b6000819050602082019050919050565b60008190508160005260206000209050919050565b600081519050919050565b600081519050919050565b600081519050919050565b6000602082019050919050565b600082825260208201905092915050565b600082825260208201905092915050565b600082825260208201905092915050565b600081905092915050565b600061355282613607565b915061355d83613607565b9250827fffffffffffffffffffffffffffffffffffffffffffffffffffffffffffffffff0382111561359257613591613729565b5b828201905092915050565b60006135a8826135e7565b9050919050565b60008115159050919050565b60007fffffffff0000000000000000000000000000000000000000000000000000000082169050919050565b600073ffffffffffffffffffffffffffffffffffffffff82169050919050565b6000819050919050565b82818337600083830152505050565b60005b8381101561363e578082015181840152602081019050613623565b8381111561364d576000848401525b50505050565b600061365e82613607565b9150600082141561367257613671613729565b5b600182039050919050565b6000600282049050600182168061369557607f821691505b602082108114156136a9576136a8613758565b5b50919050565b6136b882613820565b810181811067ffffffffffffffff821117156136d7576136d66137b6565b5b80604052505050565b60006136eb82613607565b91507fffffffffffffffffffffffffffffffffffffffffffffffffffffffffffffffff82141561371e5761371d613729565b5b600182019050919050565b7f4e487b7100000000000000000000000000000000000000000000000000000000600052601160045260246000fd5b7f4e487b7100000000000000000000000000000000000000000000000000000000600052602260045260246000fd5b7f4e487b7100000000000000000000000000000000000000000000000000000000600052603260045260246000fd5b7f4e487b7100000000000000000000000000000000000000000000000000000000600052604160045260246000fd5b600060033d11156138045760046000803e613801600051613831565b90505b90565b600080fd5b600080fd5b600080fd5b600080fd5b600080fd5b6000601f19601f8301169050919050565b60008160e01c9050919050565b7f455243313135353a207472616e7366657220746f206e6f6e204552433131353560008201527f526563656976657220696d706c656d656e746572000000000000000000000000602082015250565b7f455243313135353a204552433131353552656365697665722072656a6563746560008201527f6420746f6b656e73000000000000000000000000000000000000000000000000602082015250565b7f455243313135353a2062616c616e636520717565727920666f7220746865207a60008201527f65726f2061646472657373000000000000000000000000000000000000000000602082015250565b7f4f776e61626c653a206e6577206f776e657220697320746865207a65726f206160008201527f6464726573730000000000000000000000000000000000000000000000000000602082015250565b7f455243313135353a206275726e20616d6f756e7420657863656564732062616c60008201527f616e636500000000000000000000000000000000000000000000000000000000602082015250565b7f455243313135353a2063616c6c6572206973206e6f74206f776e6572206e6f7260008201527f20617070726f7665640000000000000000000000000000000000000000000000602082015250565b7f4e6f74206120617070726f7665642063726564656e7469616c2063726561746f60008201527f7200000000000000000000000000000000000000000000000000000000000000602082015250565b7f455243313135353a207472616e7366657220746f20746865207a65726f20616460008201527f6472657373000000000000000000000000000000000000000000000000000000602082015250565b7f455243313135353a207472616e736665722063616c6c6572206973206e6f742060008201527f6f776e6572206e6f7220617070726f7665640000000000000000000000000000602082015250565b7f455243313135353a206275726e2066726f6d20746865207a65726f206164647260008201527f6573730000000000000000000000000000000000000000000000000000000000602082015250565b7f455243313135353a20696e73756666696369656e742062616c616e636520666f60008201527f72207472616e7366657200000000000000000000000000000000000000000000602082015250565b7f4f776e61626c653a2063616c6c6572206973206e6f7420746865206f776e6572600082015250565b7f455243313135353a2073657474696e6720617070726f76616c2073746174757360008201527f20666f722073656c660000000000000000000000000000000000000000000000602082015250565b7f455243313135353a206163636f756e747320616e6420696473206c656e67746860008201527f206d69736d617463680000000000000000000000000000000000000000000000602082015250565b7f455243313135353a2069647320616e6420616d6f756e7473206c656e6774682060008201527f6d69736d61746368000000000000000000000000000000000000000000000000602082015250565b7f455243313135353a206d696e7420746f20746865207a65726f2061646472657360008201527f7300000000000000000000000000000000000000000000000000000000000000602082015250565b600060443d1015613d1857613d9b565b613d206133f2565b60043d036004823e80513d602482011167ffffffffffffffff82111715613d48575050613d9b565b808201805167ffffffffffffffff811115613d665750505050613d9b565b80602083010160043d038501811115613d83575050505050613d9b565b613d92826020018501866136af565b82955050505050505b90565b613da78161359d565b8114613db257600080fd5b50565b613dbe816135af565b8114613dc957600080fd5b50565b613dd5816135bb565b8114613de057600080fd5b50565b613dec81613607565b8114613df757600080fd5b5056fea26469706673582212201ddc30955dd574b623b493c908125c7893420395a4e30a24cd94cc72bde2a5d864736f6c63430008060033",
  "immutableReferences": {},
  "source": "pragma solidity >=0.4.22 <0.9.0;\r\n\r\nimport \"@openzeppelin/contracts/utils/Counters.sol\";\r\nimport \"@openzeppelin/contracts/token/ERC1155/ERC1155.sol\";\r\nimport \"@openzeppelin/contracts/token/ERC1155/extensions/ERC1155Burnable.sol\";\r\nimport \"@openzeppelin/contracts/access/Ownable.sol\";\r\n\r\n// ERC721URIStorage is used to store the IPFS links in the token URI\r\n// ERC721Enumerable is used to enumerate over all credentials a learner owns\r\ncontract SkillsWallet is ERC1155,ERC1155Burnable, Ownable  { \r\n\r\n    using Counters for Counters.Counter; \r\n    Counters.Counter private _tokenIds;\r\n    uint256[] _tokenIdArray; //For easy balance of Batch use\r\n    //Accounts that can mint new credentials\r\n     mapping(address => bool) private credentialers;\r\n    uint256 private credentialerCount;\r\n    //Hashes for IPFS location of Skills metadata\r\n    mapping(uint256 => string) private _hashes;\r\n    string private _uri;\r\n\r\n    constructor(string memory initUri, address initialCredentialer) ERC1155(\"\"){\r\n        credentialers[initialCredentialer] = true;\r\n        _uri = initUri;\r\n    }\r\n\r\n    //Modifiers\r\n\r\n    modifier onlyCredentialer(){\r\n        require(credentialers[msg.sender]==true, \"Not a approved credential creator\");\r\n        _;\r\n    }\r\n\r\n    //Override functions\r\n     function uri(uint256 id) public view virtual override returns (string memory) {\r\n        return string(abi.encodePacked(_uri, _hashes[id]));\r\n    }\r\n\r\n    function safeTransferFrom(\r\n        address from,\r\n        address to,\r\n        uint256 id,\r\n        uint256 amount,\r\n        bytes memory data\r\n    ) onlyCredentialer public virtual override {\r\n        require(\r\n            from == _msgSender() || isApprovedForAll(from, _msgSender()),\r\n            \"ERC1155: caller is not owner nor approved\"\r\n        );\r\n        _safeTransferFrom(from, to, id, amount, data);\r\n    }\r\n\r\n    function safeBatchTransferFrom(\r\n        address from,\r\n        address to,\r\n        uint256[] memory ids,\r\n        uint256[] memory amounts,\r\n        bytes memory data\r\n    ) onlyCredentialer public virtual override {\r\n        require(\r\n            from == _msgSender() || isApprovedForAll(from, _msgSender()),\r\n            \"ERC1155: transfer caller is not owner nor approved\"\r\n        );\r\n        _safeBatchTransferFrom(from, to, ids, amounts, data);\r\n    }\r\n\r\n    //Contract Functions\r\n\r\n    function createCredential(uint256 amount, string memory hash) public onlyCredentialer returns (uint256) {\r\n        _tokenIds.increment();\r\n        uint256 newItemId = _tokenIds.current();\r\n        _tokenIdArray.push(newItemId);\r\n        //Mint a credential\r\n        _mint(msg.sender, newItemId, amount,\"\");\r\n        _hashes[newItemId] = hash;\r\n        return newItemId;\r\n    }\r\n\r\n    function addCredentialer(address credentialer) onlyCredentialer public {\r\n        // New credentialer is now authorized to call smart contract functions\r\n        credentialers[credentialer] = true;\r\n        credentialerCount++;\r\n    }\r\n\r\n    function removeCredentialer(address credentialer) onlyCredentialer public {\r\n        // Credentialer is no longer authorized to call smart contract functions\r\n        credentialers[credentialer] = false;\r\n        credentialerCount--;\r\n    }\r\n\r\n    function getCredentialerCount() public view returns(uint256) {\r\n        return credentialerCount;\r\n    }\r\n\r\n    function fetchUserTokens(address _user) external view returns(uint256[] memory ownerTokens) {\r\n        // Get number of credentials owned by a learner\r\n        uint256 currentTokenId = _tokenIds.current();\r\n        uint256[] memory result = new uint256[](currentTokenId);\r\n        address[] memory accountArray = new address[](currentTokenId);\r\n        for(uint256 i = 0;i<currentTokenId;i++){\r\n            accountArray[i]=_user;\r\n        }\r\n        result = balanceOfBatch(accountArray,_tokenIdArray);\r\n        return result;\r\n    }\r\n}",
  "sourcePath": "C:\\Users\\sutanto4\\Desktop\\IBlockSp22\\sp22_NFT_marketplace\\truffle\\contracts\\ERC1155SkillsWallet.sol",
  "compiler": {
    "name": "solc",
    "version": "0.8.6+commit.11564f7e.Emscripten.clang"
  },
  "schemaVersion": "3.4.3",
  "updatedAt": "2022-04-21T13:07:55.642Z",
  "devdoc": {
    "kind": "dev",
    "methods": {
      "balanceOf(address,uint256)": {
        "details": "See {IERC1155-balanceOf}. Requirements: - `account` cannot be the zero address."
      },
      "balanceOfBatch(address[],uint256[])": {
        "details": "See {IERC1155-balanceOfBatch}. Requirements: - `accounts` and `ids` must have the same length."
      },
      "isApprovedForAll(address,address)": {
        "details": "See {IERC1155-isApprovedForAll}."
      },
      "owner()": {
        "details": "Returns the address of the current owner."
      },
      "renounceOwnership()": {
        "details": "Leaves the contract without owner. It will not be possible to call `onlyOwner` functions anymore. Can only be called by the current owner. NOTE: Renouncing ownership will leave the contract without an owner, thereby removing any functionality that is only available to the owner."
      },
      "safeBatchTransferFrom(address,address,uint256[],uint256[],bytes)": {
        "details": "See {IERC1155-safeBatchTransferFrom}."
      },
      "safeTransferFrom(address,address,uint256,uint256,bytes)": {
        "details": "See {IERC1155-safeTransferFrom}."
      },
      "setApprovalForAll(address,bool)": {
        "details": "See {IERC1155-setApprovalForAll}."
      },
      "supportsInterface(bytes4)": {
        "details": "See {IERC165-supportsInterface}."
      },
      "transferOwnership(address)": {
        "details": "Transfers ownership of the contract to a new account (`newOwner`). Can only be called by the current owner."
      }
    },
    "version": 1
  },
  "userdoc": {
    "kind": "user",
    "methods": {},
    "version": 1
  }
}