{
  "contractName": "SkillsClearance",
  "abi": [
    {
      "inputs": [
        {
          "internalType": "address",
          "name": "credentialer",
          "type": "address"
        }
      ],
      "stateMutability": "nonpayable",
      "type": "constructor"
    },
    {
      "anonymous": false,
      "inputs": [
        {
          "indexed": true,
          "internalType": "address",
          "name": "credentialer",
          "type": "address"
        },
        {
          "indexed": true,
          "internalType": "address",
          "name": "adder",
          "type": "address"
        },
        {
          "indexed": false,
          "internalType": "uint256",
          "name": "time",
          "type": "uint256"
        }
      ],
      "name": "AddCredentialer",
      "type": "event"
    },
    {
      "anonymous": false,
      "inputs": [
        {
          "indexed": true,
          "internalType": "address",
          "name": "credentialer",
          "type": "address"
        },
        {
          "indexed": true,
          "internalType": "string",
          "name": "credentialType",
          "type": "string"
        },
        {
          "indexed": false,
          "internalType": "bytes32",
          "name": "clearanceHash",
          "type": "bytes32"
        },
        {
          "indexed": true,
          "internalType": "address",
          "name": "adder",
          "type": "address"
        },
        {
          "indexed": false,
          "internalType": "uint256",
          "name": "time",
          "type": "uint256"
        }
      ],
      "name": "AddCredentialerClearance",
      "type": "event"
    },
    {
      "anonymous": false,
      "inputs": [
        {
          "indexed": true,
          "internalType": "address",
          "name": "head",
          "type": "address"
        },
        {
          "indexed": true,
          "internalType": "address",
          "name": "adder",
          "type": "address"
        },
        {
          "indexed": false,
          "internalType": "uint256",
          "name": "time",
          "type": "uint256"
        }
      ],
      "name": "AddHead",
      "type": "event"
    },
    {
      "anonymous": false,
      "inputs": [
        {
          "indexed": true,
          "internalType": "address",
          "name": "head",
          "type": "address"
        },
        {
          "indexed": true,
          "internalType": "string",
          "name": "credentialType",
          "type": "string"
        },
        {
          "indexed": true,
          "internalType": "address",
          "name": "adder",
          "type": "address"
        },
        {
          "indexed": false,
          "internalType": "uint256",
          "name": "time",
          "type": "uint256"
        }
      ],
      "name": "AddHeadClearance",
      "type": "event"
    },
    {
      "anonymous": false,
      "inputs": [
        {
          "indexed": true,
          "internalType": "string",
          "name": "credentialType",
          "type": "string"
        },
        {
          "indexed": false,
          "internalType": "bytes32",
          "name": "typeHash",
          "type": "bytes32"
        },
        {
          "indexed": false,
          "internalType": "uint256",
          "name": "time",
          "type": "uint256"
        }
      ],
      "name": "CreateCredentialType",
      "type": "event"
    },
    {
      "anonymous": false,
      "inputs": [
        {
          "indexed": true,
          "internalType": "string",
          "name": "credentialType",
          "type": "string"
        },
        {
          "indexed": false,
          "internalType": "bytes32",
          "name": "typeHash",
          "type": "bytes32"
        },
        {
          "indexed": false,
          "internalType": "uint256",
          "name": "time",
          "type": "uint256"
        }
      ],
      "name": "RemoveCredentialType",
      "type": "event"
    },
    {
      "anonymous": false,
      "inputs": [
        {
          "indexed": true,
          "internalType": "address",
          "name": "credentialer",
          "type": "address"
        },
        {
          "indexed": true,
          "internalType": "address",
          "name": "remover",
          "type": "address"
        },
        {
          "indexed": false,
          "internalType": "uint256",
          "name": "time",
          "type": "uint256"
        }
      ],
      "name": "RemoveCredentialer",
      "type": "event"
    },
    {
      "anonymous": false,
      "inputs": [
        {
          "indexed": true,
          "internalType": "address",
          "name": "credentialer",
          "type": "address"
        },
        {
          "indexed": true,
          "internalType": "string",
          "name": "credentialType",
          "type": "string"
        },
        {
          "indexed": false,
          "internalType": "bytes32",
          "name": "clearanceHash",
          "type": "bytes32"
        },
        {
          "indexed": true,
          "internalType": "address",
          "name": "remover",
          "type": "address"
        },
        {
          "indexed": false,
          "internalType": "uint256",
          "name": "time",
          "type": "uint256"
        }
      ],
      "name": "RemoveCredentialerClearance",
      "type": "event"
    },
    {
      "anonymous": false,
      "inputs": [
        {
          "indexed": true,
          "internalType": "address",
          "name": "head",
          "type": "address"
        },
        {
          "indexed": true,
          "internalType": "address",
          "name": "remover",
          "type": "address"
        },
        {
          "indexed": false,
          "internalType": "uint256",
          "name": "time",
          "type": "uint256"
        }
      ],
      "name": "RemoveHead",
      "type": "event"
    },
    {
      "anonymous": false,
      "inputs": [
        {
          "indexed": true,
          "internalType": "address",
          "name": "head",
          "type": "address"
        },
        {
          "indexed": true,
          "internalType": "string",
          "name": "credentialType",
          "type": "string"
        },
        {
          "indexed": true,
          "internalType": "address",
          "name": "remove",
          "type": "address"
        },
        {
          "indexed": false,
          "internalType": "uint256",
          "name": "time",
          "type": "uint256"
        }
      ],
      "name": "RemoveHeadClearance",
      "type": "event"
    },
    {
      "inputs": [
        {
          "internalType": "address",
          "name": "_newAdmin",
          "type": "address"
        }
      ],
      "name": "switchAdmin",
      "outputs": [],
      "stateMutability": "nonpayable",
      "type": "function"
    },
    {
      "inputs": [
        {
          "internalType": "address",
          "name": "_credentialer",
          "type": "address"
        },
        {
          "internalType": "string",
          "name": "_type",
          "type": "string"
        }
      ],
      "name": "addCredentialerClearance",
      "outputs": [],
      "stateMutability": "nonpayable",
      "type": "function"
    },
    {
      "inputs": [
        {
          "internalType": "address",
          "name": "_credentialer",
          "type": "address"
        },
        {
          "internalType": "string",
          "name": "_type",
          "type": "string"
        }
      ],
      "name": "addHeadClearance",
      "outputs": [],
      "stateMutability": "nonpayable",
      "type": "function"
    },
    {
      "inputs": [
        {
          "internalType": "address",
          "name": "_credentialer",
          "type": "address"
        },
        {
          "internalType": "string",
          "name": "_type",
          "type": "string"
        }
      ],
      "name": "addCredentialer",
      "outputs": [],
      "stateMutability": "nonpayable",
      "type": "function"
    },
    {
      "inputs": [
        {
          "internalType": "address",
          "name": "_head",
          "type": "address"
        },
        {
          "internalType": "string",
          "name": "_type",
          "type": "string"
        }
      ],
      "name": "addHead",
      "outputs": [],
      "stateMutability": "nonpayable",
      "type": "function"
    },
    {
      "inputs": [
        {
          "internalType": "address",
          "name": "_head",
          "type": "address"
        }
      ],
      "name": "removeHead",
      "outputs": [],
      "stateMutability": "nonpayable",
      "type": "function"
    },
    {
      "inputs": [
        {
          "internalType": "address",
          "name": "_credentialer",
          "type": "address"
        }
      ],
      "name": "removeCredentialer",
      "outputs": [],
      "stateMutability": "nonpayable",
      "type": "function"
    },
    {
      "inputs": [
        {
          "internalType": "address",
          "name": "_credentialer",
          "type": "address"
        },
        {
          "internalType": "string",
          "name": "_type",
          "type": "string"
        }
      ],
      "name": "removeCredentialerClearance",
      "outputs": [],
      "stateMutability": "nonpayable",
      "type": "function"
    },
    {
      "inputs": [
        {
          "internalType": "string",
          "name": "_credentialType",
          "type": "string"
        }
      ],
      "name": "createCredentialType",
      "outputs": [],
      "stateMutability": "nonpayable",
      "type": "function"
    },
    {
      "inputs": [
        {
          "internalType": "string",
          "name": "_credentialType",
          "type": "string"
        }
      ],
      "name": "removeCredentialType",
      "outputs": [],
      "stateMutability": "nonpayable",
      "type": "function"
    },
    {
      "inputs": [
        {
          "internalType": "address",
          "name": "addr",
          "type": "address"
        }
      ],
      "name": "isCredentialer",
      "outputs": [
        {
          "internalType": "bool",
          "name": "",
          "type": "bool"
        }
      ],
      "stateMutability": "view",
      "type": "function"
    },
    {
      "inputs": [
        {
          "internalType": "address",
          "name": "addr",
          "type": "address"
        }
      ],
      "name": "isHead",
      "outputs": [
        {
          "internalType": "bool",
          "name": "",
          "type": "bool"
        }
      ],
      "stateMutability": "view",
      "type": "function"
    },
    {
      "inputs": [
        {
          "internalType": "string",
          "name": "_type",
          "type": "string"
        }
      ],
      "name": "isValidType",
      "outputs": [
        {
          "internalType": "bool",
          "name": "",
          "type": "bool"
        }
      ],
      "stateMutability": "view",
      "type": "function"
    },
    {
      "inputs": [
        {
          "internalType": "address",
          "name": "addr",
          "type": "address"
        },
        {
          "internalType": "string",
          "name": "_type",
          "type": "string"
        }
      ],
      "name": "hasClearance",
      "outputs": [
        {
          "internalType": "bool",
          "name": "",
          "type": "bool"
        }
      ],
      "stateMutability": "view",
      "type": "function"
    },
    {
      "inputs": [
        {
          "internalType": "address",
          "name": "_head",
          "type": "address"
        },
        {
          "internalType": "string",
          "name": "_credentialType",
          "type": "string"
        }
      ],
      "name": "isClearedHead",
      "outputs": [],
      "stateMutability": "view",
      "type": "function"
    }
  ],
  "bytecode": "0x60806040523480156200001157600080fd5b5060405162002f5a38038062002f5a8339818101604052810190620000379190620001a2565b62000052816003620000b660201b62001c7b1790919060201c565b506200006e816001620000b660201b62001c7b1790919060201c565b50806000806101000a81548173ffffffffffffffffffffffffffffffffffffffff021916908373ffffffffffffffffffffffffffffffffffffffff1602179055505062000227565b6000620000e6836000018373ffffffffffffffffffffffffffffffffffffffff1660001b620000ee60201b60201c565b905092915050565b60006200010283836200016860201b60201c565b6200015d57826000018290806001815401808255809150506001900390600052602060002001600090919091909150558260000180549050836001016000848152602001908152602001600020819055506001905062000162565b600090505b92915050565b600080836001016000848152602001908152602001600020541415905092915050565b6000815190506200019c816200020d565b92915050565b600060208284031215620001bb57620001ba62000208565b5b6000620001cb848285016200018b565b91505092915050565b6000620001e182620001e8565b9050919050565b600073ffffffffffffffffffffffffffffffffffffffff82169050919050565b600080fd5b6200021881620001d4565b81146200022457600080fd5b50565b612d2380620002376000396000f3fe608060405234801561001057600080fd5b50600436106100f55760003560e01c80636a691fd111610097578063ab4d071611610066578063ab4d07161461027e578063b8884e511461029a578063d5966086146102b6578063f514e1d1146102d2576100f5565b80636a691fd1146101fa57806371500c5e14610216578063732617bb146102325780639e60f6cc1461024e576100f5565b806328060c16116100d357806328060c161461016257806358faaf3a146101925780635c3d46a7146101c2578063662929e6146101de576100f5565b80630959dccc146100fa57806311844914146101165780631fa36a4914610132575b600080fd5b610114600480360381019061010f919061200d565b6102ee565b005b610130600480360381019061012b919061200d565b6108cf565b005b61014c6004803603810190610147919061200d565b610b4f565b60405161015991906123a9565b60405180910390f35b61017c60048036038101906101779190611fe0565b610c20565b60405161018991906123a9565b60405180910390f35b6101ac60048036038101906101a79190611fe0565b610c3d565b6040516101b991906123a9565b60405180910390f35b6101dc60048036038101906101d7919061200d565b610c5a565b005b6101f860048036038101906101f39190611fe0565b611047565b005b610214600480360381019061020f9190612069565b611159565b005b610230600480360381019061022b9190611fe0565b611281565b005b61024c60048036038101906102479190611fe0565b6115e5565b005b61026860048036038101906102639190612069565b611710565b60405161027591906123a9565b60405180910390f35b6102986004803603810190610293919061200d565b61179c565b005b6102b460048036038101906102af919061200d565b61189f565b005b6102d060048036038101906102cb9190612069565b611a0b565b005b6102ec60048036038101906102e7919061200d565b611b33565b005b60011515610306336001611cab90919063ffffffff16565b151514610348576040517f08c379a000000000000000000000000000000000000000000000000000000000815260040161033f9061246d565b60405180910390fd5b8060011515610387826040516020016103619190612392565b60405160208183030381529060405280519060200120600a611cdb90919063ffffffff16565b1515146103c9576040517f08c379a00000000000000000000000000000000000000000000000000000000081526004016103c0906124ed565b60405180910390fd5b60006001600960008673ffffffffffffffffffffffffffffffffffffffff1673ffffffffffffffffffffffffffffffffffffffff1681526020019081526020016000208054905061041a91906126bb565b1161045a576040517f08c379a00000000000000000000000000000000000000000000000000000000081526004016104519061252d565b60405180910390fd5b60008260405160200161046d9190612392565b60405160208183030381529060405280519060200120905060008054906101000a900473ffffffffffffffffffffffffffffffffffffffff1673ffffffffffffffffffffffffffffffffffffffff163373ffffffffffffffffffffffffffffffffffffffff16146105bb57600081336040516020016104ed929190612366565b6040516020818303038152906040528051906020012090506001151561051d826005611cdb90919063ffffffff16565b15151461055f576040517f08c379a00000000000000000000000000000000000000000000000000000000081526004016105569061244d565b60405180910390fd5b60001515610577866001611cab90919063ffffffff16565b1515146105b9576040517f08c379a00000000000000000000000000000000000000000000000000000000081526004016105b09061258d565b60405180910390fd5b505b600081856040516020016105d0929190612366565b60405160208183030381529060405280519060200120905060011515610600826005611cdb90919063ffffffff16565b151514610642576040517f08c379a0000000000000000000000000000000000000000000000000000000008152600401610639906124cd565b60405180910390fd5b610656816005611cf290919063ffffffff16565b5060005b82600960008873ffffffffffffffffffffffffffffffffffffffff1673ffffffffffffffffffffffffffffffffffffffff16815260200190815260200160002082815481106106ac576106ab612889565b5b9060005260206000200154146106d0576001816106c99190612665565b905061065a565b6000600960008873ffffffffffffffffffffffffffffffffffffffff1673ffffffffffffffffffffffffffffffffffffffff168152602001908152602001600020805490509050600960008873ffffffffffffffffffffffffffffffffffffffff1673ffffffffffffffffffffffffffffffffffffffff16815260200190815260200160002060018261076391906126bb565b8154811061077457610773612889565b5b9060005260206000200154600960008973ffffffffffffffffffffffffffffffffffffffff1673ffffffffffffffffffffffffffffffffffffffff16815260200190815260200160002083815481106107d0576107cf612889565b5b9060005260206000200181905550600960008873ffffffffffffffffffffffffffffffffffffffff1673ffffffffffffffffffffffffffffffffffffffff16815260200190815260200160002060018261082a91906126bb565b8154811061083b5761083a612889565b5b90600052602060002001600090553373ffffffffffffffffffffffffffffffffffffffff168660405161086e9190612392565b60405180910390208873ffffffffffffffffffffffffffffffffffffffff167f6a05bd00a7eee1f21cdd883d2d77f6cfed58a4d35efecdb05135341c3ede22cb86426040516108be9291906123c4565b60405180910390a450505050505050565b600115153373ffffffffffffffffffffffffffffffffffffffff1660008054906101000a900473ffffffffffffffffffffffffffffffffffffffff1673ffffffffffffffffffffffffffffffffffffffff1614151514610964576040517f08c379a000000000000000000000000000000000000000000000000000000000815260040161095b9061250d565b60405180910390fd5b80600115156109a38260405160200161097d9190612392565b60405160208183030381529060405280519060200120600a611cdb90919063ffffffff16565b1515146109e5576040517f08c379a00000000000000000000000000000000000000000000000000000000081526004016109dc906124ed565b60405180910390fd5b600015156109f38484610b4f565b15151415610a0657610a058383610c5a565b5b600082604051602001610a199190612392565b60405160208183030381529060405280519060200120905060008185604051602001610a46929190612366565b60405160208183030381529060405280519060200120905060001515610a76826007611cdb90919063ffffffff16565b151514610ab8576040517f08c379a0000000000000000000000000000000000000000000000000000000008152600401610aaf9061240d565b60405180910390fd5b610acc816007611d0990919063ffffffff16565b503373ffffffffffffffffffffffffffffffffffffffff1684604051610af29190612392565b60405180910390208673ffffffffffffffffffffffffffffffffffffffff167f632b7831ffbd627fb2f13761756cee825cb62087c4c2e6df83d006e92f96fd3642604051610b4091906125cd565b60405180910390a45050505050565b60008082604051602001610b639190612392565b60405160208183030381529060405280519060200120905060011515610b9382600a611cdb90919063ffffffff16565b151514610bd5576040517f08c379a0000000000000000000000000000000000000000000000000000000008152600401610bcc906125ad565b60405180910390fd5b60008185604051602001610bea929190612366565b604051602081830303815290604052805190602001209050610c16816005611cdb90919063ffffffff16565b9250505092915050565b6000610c36826003611cab90919063ffffffff16565b9050919050565b6000610c53826001611cab90919063ffffffff16565b9050919050565b60011515610c72336001611cab90919063ffffffff16565b151514610cb4576040517f08c379a0000000000000000000000000000000000000000000000000000000008152600401610cab9061246d565b60405180910390fd5b8060011515610cf382604051602001610ccd9190612392565b60405160208183030381529060405280519060200120600a611cdb90919063ffffffff16565b151514610d35576040517f08c379a0000000000000000000000000000000000000000000000000000000008152600401610d2c906124ed565b60405180910390fd5b6003600960008573ffffffffffffffffffffffffffffffffffffffff1673ffffffffffffffffffffffffffffffffffffffff1681526020019081526020016000208054905010610dba576040517f08c379a0000000000000000000000000000000000000000000000000000000008152600401610db19061256d565b60405180910390fd5b600082604051602001610dcd9190612392565b60405160208183030381529060405280519060200120905060008054906101000a900473ffffffffffffffffffffffffffffffffffffffff1673ffffffffffffffffffffffffffffffffffffffff163373ffffffffffffffffffffffffffffffffffffffff1614610ec15760008133604051602001610e4d929190612366565b60405160208183030381529060405280519060200120905060011515610e7d826005611cdb90919063ffffffff16565b151514610ebf576040517f08c379a0000000000000000000000000000000000000000000000000000000008152600401610eb69061244d565b60405180910390fd5b505b60008185604051602001610ed6929190612366565b60405160208183030381529060405280519060200120905060001515610f06826005611cdb90919063ffffffff16565b151514610f48576040517f08c379a0000000000000000000000000000000000000000000000000000000008152600401610f3f906124ad565b60405180910390fd5b610f5c816005611d0990919063ffffffff16565b50600960008673ffffffffffffffffffffffffffffffffffffffff1673ffffffffffffffffffffffffffffffffffffffff1681526020019081526020016000208290806001815401808255809150506001900390600052602060002001600090919091909150553373ffffffffffffffffffffffffffffffffffffffff1684604051610fe89190612392565b60405180910390208673ffffffffffffffffffffffffffffffffffffffff167f6dc8715a092ac7dd90c612d86412dd1e40ca87b70c4b871315c99eabb171366884426040516110389291906123c4565b60405180910390a45050505050565b600115153373ffffffffffffffffffffffffffffffffffffffff1660008054906101000a900473ffffffffffffffffffffffffffffffffffffffff1673ffffffffffffffffffffffffffffffffffffffff16141515146110dc576040517f08c379a00000000000000000000000000000000000000000000000000000000081526004016110d39061250d565b60405180910390fd5b6110f0816001611d2090919063ffffffff16565b503373ffffffffffffffffffffffffffffffffffffffff168173ffffffffffffffffffffffffffffffffffffffff167f6943fd533c90124869675b5560d56845f593b65d349b7b798efa3eea40f9d5be4260405161114e91906125cd565b60405180910390a350565b600115153373ffffffffffffffffffffffffffffffffffffffff1660008054906101000a900473ffffffffffffffffffffffffffffffffffffffff1673ffffffffffffffffffffffffffffffffffffffff16141515146111ee576040517f08c379a00000000000000000000000000000000000000000000000000000000081526004016111e59061250d565b60405180910390fd5b6000816040516020016112019190612392565b60405160208183030381529060405280519060200120905061122d81600a611d0990919063ffffffff16565b508160405161123c9190612392565b60405180910390207f876d853dfea8b1efac58c63995ae645b63abf1ff12786f4ef57283097ad2568c82426040516112759291906123c4565b60405180910390a25050565b600115153373ffffffffffffffffffffffffffffffffffffffff1660008054906101000a900473ffffffffffffffffffffffffffffffffffffffff1673ffffffffffffffffffffffffffffffffffffffff1614151514611316576040517f08c379a000000000000000000000000000000000000000000000000000000000815260040161130d9061250d565b60405180910390fd5b6001151561132e336003611cab90919063ffffffff16565b151514611370576040517f08c379a00000000000000000000000000000000000000000000000000000000081526004016113679061242d565b60405180910390fd5b6000600161137e6003611d50565b61138891906126bb565b116113c8576040517f08c379a00000000000000000000000000000000000000000000000000000000081526004016113bf906123ed565b60405180910390fd5b6113dc816003611d2090919063ffffffff16565b5060005b600960008373ffffffffffffffffffffffffffffffffffffffff1673ffffffffffffffffffffffffffffffffffffffff16815260200190815260200160002080549050811015611507576000600960008473ffffffffffffffffffffffffffffffffffffffff1673ffffffffffffffffffffffffffffffffffffffff168152602001908152602001600020828154811061147d5761147c612889565b5b9060005260206000200154604051602001611498919061234b565b604051602081830303815290604052805190602001209050600081846040516020016114c5929190612366565b6040516020818303038152906040528051906020012090506114f1816005611cf290919063ffffffff16565b50505080806114ff906127b4565b9150506113e0565b50600960008273ffffffffffffffffffffffffffffffffffffffff1673ffffffffffffffffffffffffffffffffffffffff16815260200190815260200160002060006115539190611f1d565b6001151561156b826001611cab90919063ffffffff16565b1515141561157d5761157c81611047565b5b3373ffffffffffffffffffffffffffffffffffffffff168173ffffffffffffffffffffffffffffffffffffffff167f671da7e552c68f74ff992e2725855177a04d0b2aa481747b798dcefcafea4e92426040516115da91906125cd565b60405180910390a350565b600115153373ffffffffffffffffffffffffffffffffffffffff1660008054906101000a900473ffffffffffffffffffffffffffffffffffffffff1673ffffffffffffffffffffffffffffffffffffffff161415151461167a576040517f08c379a00000000000000000000000000000000000000000000000000000000081526004016116719061250d565b60405180910390fd5b61168e816003611cab90919063ffffffff16565b6116cd576040517f08c379a00000000000000000000000000000000000000000000000000000000081526004016116c49061254d565b60405180910390fd5b806000806101000a81548173ffffffffffffffffffffffffffffffffffffffff021916908373ffffffffffffffffffffffffffffffffffffffff16021790555050565b600080826040516020016117249190612392565b6040516020818303038152906040528051906020012090506001151561175482600a611cdb90919063ffffffff16565b151514611796576040517f08c379a000000000000000000000000000000000000000000000000000000000815260040161178d906124ed565b60405180910390fd5b50919050565b600115156117b4336001611cab90919063ffffffff16565b1515146117f6576040517f08c379a00000000000000000000000000000000000000000000000000000000081526004016117ed9061246d565b60405180910390fd5b6118008282610c5a565b60001515611818836003611cab90919063ffffffff16565b1515141561183657611834826003611c7b90919063ffffffff16565b505b3373ffffffffffffffffffffffffffffffffffffffff168273ffffffffffffffffffffffffffffffffffffffff167f65ae70f422f076542df7c601b4bd8c1f90f68d4090e89bd672b09d4eca0816b94260405161189391906125cd565b60405180910390a35050565b600115156118b7836001611cab90919063ffffffff16565b1515146118f9576040517f08c379a00000000000000000000000000000000000000000000000000000000081526004016118f09061246d565b60405180910390fd5b60008160405160200161190c9190612392565b6040516020818303038152906040528051906020012090506001151561193c82600a611cdb90919063ffffffff16565b15151461197e576040517f08c379a0000000000000000000000000000000000000000000000000000000008152600401611975906125ad565b60405180910390fd5b60008184604051602001611993929190612366565b604051602081830303815290604052805190602001209050600115156119c3826007611cdb90919063ffffffff16565b151514611a05576040517f08c379a00000000000000000000000000000000000000000000000000000000081526004016119fc9061248d565b60405180910390fd5b50505050565b600115153373ffffffffffffffffffffffffffffffffffffffff1660008054906101000a900473ffffffffffffffffffffffffffffffffffffffff1673ffffffffffffffffffffffffffffffffffffffff1614151514611aa0576040517f08c379a0000000000000000000000000000000000000000000000000000000008152600401611a979061250d565b60405180910390fd5b600081604051602001611ab39190612392565b604051602081830303815290604052805190602001209050611adf81600a611cf290919063ffffffff16565b5081604051611aee9190612392565b60405180910390207f7744f4116cf6dcdcecb4473ee1f5bac72d4a7674d033bbfb862bad11d2fccf708242604051611b279291906123c4565b60405180910390a25050565b600115153373ffffffffffffffffffffffffffffffffffffffff1660008054906101000a900473ffffffffffffffffffffffffffffffffffffffff1673ffffffffffffffffffffffffffffffffffffffff1614151514611bc8576040517f08c379a0000000000000000000000000000000000000000000000000000000008152600401611bbf9061250d565b60405180910390fd5b60001515611be0836003611cab90919063ffffffff16565b15151415611bf357611bf2828261179c565b5b611c07826001611c7b90919063ffffffff16565b50611c1282826108cf565b3373ffffffffffffffffffffffffffffffffffffffff168273ffffffffffffffffffffffffffffffffffffffff167fd92e3fdfd23d3401cdcd4b6ac23dd1caf26b345b70b1f0eb2b5e0ce9a36a52cb42604051611c6f91906125cd565b60405180910390a35050565b6000611ca3836000018373ffffffffffffffffffffffffffffffffffffffff1660001b611d65565b905092915050565b6000611cd3836000018373ffffffffffffffffffffffffffffffffffffffff1660001b611dd5565b905092915050565b6000611cea8360000183611dd5565b905092915050565b6000611d018360000183611df8565b905092915050565b6000611d188360000183611d65565b905092915050565b6000611d48836000018373ffffffffffffffffffffffffffffffffffffffff1660001b611df8565b905092915050565b6000611d5e82600001611f0c565b9050919050565b6000611d718383611dd5565b611dca578260000182908060018154018082558091505060019003906000526020600020016000909190919091505582600001805490508360010160008481526020019081526020016000208190555060019050611dcf565b600090505b92915050565b600080836001016000848152602001908152602001600020541415905092915050565b60008083600101600084815260200190815260200160002054905060008114611f00576000600182611e2a91906126bb565b9050600060018660000180549050611e4291906126bb565b9050818114611eb1576000866000018281548110611e6357611e62612889565b5b9060005260206000200154905080876000018481548110611e8757611e86612889565b5b90600052602060002001819055508387600101600083815260200190815260200160002081905550505b85600001805480611ec557611ec461285a565b5b600190038181906000526020600020016000905590558560010160008681526020019081526020016000206000905560019350505050611f06565b60009150505b92915050565b600081600001805490509050919050565b5080546000825590600052602060002090810190611f3b9190611f3e565b50565b5b80821115611f57576000816000905550600101611f3f565b5090565b6000611f6e611f698461260d565b6125e8565b905082815260208101848484011115611f8a57611f896128ec565b5b611f95848285612741565b509392505050565b600081359050611fac81612cd6565b92915050565b600082601f830112611fc757611fc66128e7565b5b8135611fd7848260208601611f5b565b91505092915050565b600060208284031215611ff657611ff56128f6565b5b600061200484828501611f9d565b91505092915050565b60008060408385031215612024576120236128f6565b5b600061203285828601611f9d565b925050602083013567ffffffffffffffff811115612053576120526128f1565b5b61205f85828601611fb2565b9150509250929050565b60006020828403121561207f5761207e6128f6565b5b600082013567ffffffffffffffff81111561209d5761209c6128f1565b5b6120a984828501611fb2565b91505092915050565b6120c36120be826126ef565b6127fd565b82525050565b6120d281612701565b82525050565b6120e18161270d565b82525050565b6120f86120f38261270d565b61280f565b82525050565b60006121098261263e565b612113818561265a565b9350612123818560208601612750565b80840191505092915050565b600061213c602683612649565b915061214782612919565b604082019050919050565b600061215f601f83612649565b915061216a82612968565b602082019050919050565b6000612182601b83612649565b915061218d82612991565b602082019050919050565b60006121a5602283612649565b91506121b0826129ba565b604082019050919050565b60006121c8601483612649565b91506121d382612a09565b602082019050919050565b60006121eb602d83612649565b91506121f682612a32565b604082019050919050565b600061220e602783612649565b915061221982612a81565b604082019050919050565b6000612231602883612649565b915061223c82612ad0565b604082019050919050565b6000612254601783612649565b915061225f82612b1f565b602082019050919050565b6000612277601683612649565b915061228282612b48565b602082019050919050565b600061229a602c83612649565b91506122a582612b71565b604082019050919050565b60006122bd602283612649565b91506122c882612bc0565b604082019050919050565b60006122e0602883612649565b91506122eb82612c0f565b604082019050919050565b6000612303602783612649565b915061230e82612c5e565b604082019050919050565b6000612326601b83612649565b915061233182612cad565b602082019050919050565b61234581612737565b82525050565b600061235782846120e7565b60208201915081905092915050565b600061237282856120e7565b60208201915061238282846120b2565b6014820191508190509392505050565b600061239e82846120fe565b915081905092915050565b60006020820190506123be60008301846120c9565b92915050565b60006040820190506123d960008301856120d8565b6123e6602083018461233c565b9392505050565b600060208201905081810360008301526124068161212f565b9050919050565b6000602082019050818103600083015261242681612152565b9050919050565b6000602082019050818103600083015261244681612175565b9050919050565b6000602082019050818103600083015261246681612198565b9050919050565b60006020820190508181036000830152612486816121bb565b9050919050565b600060208201905081810360008301526124a6816121de565b9050919050565b600060208201905081810360008301526124c681612201565b9050919050565b600060208201905081810360008301526124e681612224565b9050919050565b6000602082019050818103600083015261250681612247565b9050919050565b600060208201905081810360008301526125268161226a565b9050919050565b600060208201905081810360008301526125468161228d565b9050919050565b60006020820190508181036000830152612566816122b0565b9050919050565b60006020820190508181036000830152612586816122d3565b9050919050565b600060208201905081810360008301526125a6816122f6565b9050919050565b600060208201905081810360008301526125c681612319565b9050919050565b60006020820190506125e2600083018461233c565b92915050565b60006125f2612603565b90506125fe8282612783565b919050565b6000604051905090565b600067ffffffffffffffff821115612628576126276128b8565b5b612631826128fb565b9050602081019050919050565b600081519050919050565b600082825260208201905092915050565b600081905092915050565b600061267082612737565b915061267b83612737565b9250827fffffffffffffffffffffffffffffffffffffffffffffffffffffffffffffffff038211156126b0576126af61282b565b5b828201905092915050565b60006126c682612737565b91506126d183612737565b9250828210156126e4576126e361282b565b5b828203905092915050565b60006126fa82612717565b9050919050565b60008115159050919050565b6000819050919050565b600073ffffffffffffffffffffffffffffffffffffffff82169050919050565b6000819050919050565b82818337600083830152505050565b60005b8381101561276e578082015181840152602081019050612753565b8381111561277d576000848401525b50505050565b61278c826128fb565b810181811067ffffffffffffffff821117156127ab576127aa6128b8565b5b80604052505050565b60006127bf82612737565b91507fffffffffffffffffffffffffffffffffffffffffffffffffffffffffffffffff8214156127f2576127f161282b565b5b600182019050919050565b600061280882612819565b9050919050565b6000819050919050565b60006128248261290c565b9050919050565b7f4e487b7100000000000000000000000000000000000000000000000000000000600052601160045260246000fd5b7f4e487b7100000000000000000000000000000000000000000000000000000000600052603160045260246000fd5b7f4e487b7100000000000000000000000000000000000000000000000000000000600052603260045260246000fd5b7f4e487b7100000000000000000000000000000000000000000000000000000000600052604160045260246000fd5b600080fd5b600080fd5b600080fd5b600080fd5b6000601f19601f8301169050919050565b60008160601b9050919050565b7f4174206c65617374206f6e652063726564656e7469616c65722068617320746f60008201527f2065786973740000000000000000000000000000000000000000000000000000602082015250565b7f4865616420616c726561647920686173207468697320636c656172616e636500600082015250565b7f43726564656e7469616c657220646f6573206e6f742065786973740000000000600082015250565b7f4e6f7420636c656172656420746f206d6f646966792063757272656e7420747960008201527f7065000000000000000000000000000000000000000000000000000000000000602082015250565b7f4e6f7420616e20617070726f7665642068656164000000000000000000000000600082015250565b7f446f6e2774206861766520636c656172616e636520666f72207468697320637260008201527f6564656e7469616c207479706500000000000000000000000000000000000000602082015250565b7f43726564656e7469616c657220616c726561647920686173207468697320636c60008201527f656172616e636500000000000000000000000000000000000000000000000000602082015250565b7f43726564656e7469616c657220646f65736e277420686176652074686973206360008201527f6c656172616e6365000000000000000000000000000000000000000000000000602082015250565b7f496e76616c69642063726564656e7469616c2074797065000000000000000000600082015250565b7f4e6f742074686520636f6e74726163742061646d696e00000000000000000000600082015250565b7f4174206c65617374206f6e6520636c656172616e636520666f7220656163682060008201527f63726564656e7469616c65720000000000000000000000000000000000000000602082015250565b7f4e65772041646d696e2068617320746f20626520612063726564656e7469616c60008201527f6572000000000000000000000000000000000000000000000000000000000000602082015250565b7f4d6178696d756d206f66203320636c656172616e63657320706572206372656460008201527f656e7469616c6572000000000000000000000000000000000000000000000000602082015250565b7f43616e2774206d6f6469667920636c656172616e6365206f6620612066656c6c60008201527f6f77206865616400000000000000000000000000000000000000000000000000602082015250565b7f4e6f7420612076616c69642063726564656e7469616c20747970650000000000600082015250565b612cdf816126ef565b8114612cea57600080fd5b5056fea2646970667358221220057a8e8d304eecf848481da9dfb8914f343a3d07b8667fea0d02e491564d41e564736f6c63430008060033",
  "immutableReferences": {},
  "source": "// SPDX-License-Identifier: UNLICENSED\r\npragma solidity ^0.8.0;\r\n\r\n// FOR ABI VERIFICATION, first flatten contract\r\n// npm run flatten\r\n\r\n// import \"hardhat/console.sol\";\r\nimport \"@openzeppelin/contracts/utils/structs/EnumerableSet.sol\";\r\n\r\n//TODO:\r\n//Testing:\r\n//1. Test New Admin Feature\r\n//2. Test New clearance Feature\r\n//3. Test New URI storage feature\r\n//4. Add Events\r\n\r\n//Skillswallet should only be responsible for mint, create, and query\r\n//The types of each skill probably should be kept in skillswallet\r\n\r\n//Skills Clearance does all the clearance structure\r\ncontract SkillsClearance {\r\n    using EnumerableSet for EnumerableSet.AddressSet;\r\n    using EnumerableSet for EnumerableSet.Bytes32Set;\r\n\r\n    //Roles\r\n    address private admin;\r\n\r\n    EnumerableSet.AddressSet private _heads;\r\n\r\n    EnumerableSet.AddressSet private _credentialers; // accounts with authority to mint credentials\r\n\r\n    //Clearance Bindings\r\n    EnumerableSet.Bytes32Set private _credentialerClearance; //Key is hash of type and address\r\n\r\n    EnumerableSet.Bytes32Set private _headsClearance;\r\n\r\n    mapping(address => bytes32[]) private _credentialerClearances;\r\n\r\n    //Type Bindings\r\n    EnumerableSet.Bytes32Set private _credentialTypes; //Typecheck if real\r\n\r\n    //Constructor\r\n    constructor(address credentialer) {\r\n        _credentialers.add(credentialer);\r\n        _heads.add(credentialer);\r\n        admin = credentialer;\r\n    }\r\n\r\n    // Events\r\n    event AddHead(address indexed head, address indexed adder, uint256 time);\r\n\r\n    event RemoveHead(\r\n        address indexed head,\r\n        address indexed remover,\r\n        uint256 time\r\n    );\r\n\r\n    event AddCredentialer(\r\n        address indexed credentialer,\r\n        address indexed adder,\r\n        uint256 time\r\n    );\r\n\r\n    event AddCredentialerClearance(\r\n        address indexed credentialer,\r\n        string indexed credentialType,\r\n        bytes32 clearanceHash,\r\n        address indexed adder,\r\n        uint256 time\r\n    );\r\n\r\n    event AddHeadClearance(\r\n        address indexed head,\r\n        string indexed credentialType,\r\n        address indexed adder,\r\n        uint256 time\r\n    );\r\n\r\n    event CreateCredentialType(\r\n        string indexed credentialType,\r\n        bytes32 typeHash,\r\n        uint256 time\r\n    );\r\n\r\n    event RemoveCredentialer(\r\n        address indexed credentialer,\r\n        address indexed remover,\r\n        uint256 time\r\n    );\r\n\r\n    event RemoveCredentialerClearance(\r\n        address indexed credentialer,\r\n        string indexed credentialType,\r\n        bytes32 clearanceHash,\r\n        address indexed remover,\r\n        uint256 time\r\n    );\r\n\r\n    event RemoveHeadClearance(\r\n        address indexed head,\r\n        string indexed credentialType,\r\n        address indexed remove,\r\n        uint256 time\r\n    );\r\n\r\n    event RemoveCredentialType(\r\n        string indexed credentialType,\r\n        bytes32 typeHash,\r\n        uint256 time\r\n    );\r\n\r\n    //Event for Adding a credentialer\r\n    //Event for removing a credentialer\r\n    //Event for Adding Head\r\n    //Event for Removing Head\r\n\r\n    // Modifiers\r\n    modifier onlyAdmin() {\r\n        require((admin == msg.sender) == true, \"Not the contract admin\");\r\n        _;\r\n    }\r\n\r\n    modifier onlyHead() {\r\n        require(_heads.contains(msg.sender) == true, \"Not an approved head\");\r\n        _;\r\n    }\r\n\r\n    modifier onlyCredentialer() {\r\n        require(\r\n            _credentialers.contains(msg.sender) == true,\r\n            \"Not an approved credentialer\"\r\n        );\r\n        _;\r\n    }\r\n\r\n    modifier typeValidator(string memory _type) {\r\n        require(\r\n            _credentialTypes.contains(keccak256(abi.encodePacked(_type))) ==\r\n                true,\r\n            \"Invalid credential type\"\r\n        );\r\n        _;\r\n    }\r\n    modifier onlyCleared(string memory _credentialType) {\r\n        bytes32 typeHash = keccak256(abi.encodePacked(_credentialType));\r\n        require(\r\n            _credentialTypes.contains(typeHash) == true,\r\n            \"Not a valid credential type\"\r\n        );\r\n        bytes32 clearanceHash = keccak256(\r\n            abi.encodePacked(typeHash, msg.sender)\r\n        );\r\n        require(\r\n            _credentialerClearance.contains(clearanceHash) == true,\r\n            \"Don't have clearance for this credential type\"\r\n        );\r\n        _;\r\n    }\r\n\r\n    modifier onlyClearedHead(string memory _credentialType) {\r\n        require(_heads.contains(msg.sender) == true, \"Not an approved head\");\r\n        bytes32 typeHash = keccak256(abi.encodePacked(_credentialType));\r\n        require(\r\n            _credentialTypes.contains(typeHash) == true,\r\n            \"Not a valid credential type\"\r\n        );\r\n        bytes32 clearanceHash = keccak256(\r\n            abi.encodePacked(typeHash, msg.sender)\r\n        );\r\n        require(\r\n            _headsClearance.contains(clearanceHash) == true,\r\n            \"Don't have clearance for this credential type\"\r\n        );\r\n        _;\r\n    }\r\n\r\n    //Admin Layer Functions\r\n\r\n    function switchAdmin(address _newAdmin) public onlyAdmin {\r\n        require(\r\n            _credentialers.contains(_newAdmin),\r\n            \"New Admin has to be a credentialer\"\r\n        );\r\n        admin = _newAdmin;\r\n    }\r\n\r\n    function addCredentialerClearance(\r\n        address _credentialer,\r\n        string memory _type\r\n    ) public onlyHead typeValidator(_type) {\r\n        require(\r\n            _credentialerClearances[_credentialer].length < 3,\r\n            \"Maximum of 3 clearances per credentialer\"\r\n        );\r\n        bytes32 typeHash = keccak256(abi.encodePacked(_type));\r\n        if (msg.sender != admin) {\r\n            bytes32 senderClearanceHash = keccak256(\r\n                abi.encodePacked(typeHash, msg.sender)\r\n            );\r\n            require(\r\n                _credentialerClearance.contains(senderClearanceHash) == true,\r\n                \"Not cleared to modify current type\"\r\n            );\r\n        }\r\n\r\n        bytes32 clearanceHash = keccak256(\r\n            abi.encodePacked(typeHash, _credentialer)\r\n        );\r\n\r\n        require(\r\n            _credentialerClearance.contains(clearanceHash) == false,\r\n            \"Credentialer already has this clearance\"\r\n        );\r\n        _credentialerClearance.add(clearanceHash);\r\n        _credentialerClearances[_credentialer].push(typeHash);\r\n        emit AddCredentialerClearance(\r\n            _credentialer,\r\n            _type,\r\n            clearanceHash,\r\n            msg.sender,\r\n            block.timestamp\r\n        );\r\n    }\r\n\r\n    function addHeadClearance(address _credentialer, string memory _type)\r\n        public\r\n        onlyAdmin\r\n        typeValidator(_type)\r\n    {\r\n        if (hasClearance(_credentialer, _type) == false) {\r\n            addCredentialerClearance(_credentialer, _type);\r\n        }\r\n        bytes32 typeHash = keccak256(abi.encodePacked(_type));\r\n        bytes32 clearanceHash = keccak256(\r\n            abi.encodePacked(typeHash, _credentialer)\r\n        );\r\n\r\n        require(\r\n            _headsClearance.contains(clearanceHash) == false,\r\n            \"Head already has this clearance\"\r\n        );\r\n        _headsClearance.add(clearanceHash);\r\n        emit AddHeadClearance(\r\n            _credentialer,\r\n            _type,\r\n            msg.sender,\r\n            block.timestamp\r\n        );\r\n    }\r\n\r\n    function addCredentialer(address _credentialer, string memory _type)\r\n        public\r\n        onlyHead\r\n    {\r\n        // New credentialer is now authorized to call smart contract functions\r\n        addCredentialerClearance(_credentialer, _type);\r\n        if (_credentialers.contains(_credentialer) == false) {\r\n            _credentialers.add(_credentialer);\r\n        }\r\n        emit AddCredentialer(_credentialer, msg.sender, block.timestamp);\r\n    }\r\n\r\n    function addHead(address _head, string memory _type) public onlyAdmin {\r\n        if (_credentialers.contains(_head) == false) {\r\n            addCredentialer(_head, _type);\r\n        }\r\n        _heads.add(_head);\r\n        addHeadClearance(_head, _type);\r\n        emit AddHead(_head, msg.sender, block.timestamp);\r\n    }\r\n\r\n    //Credentialer Layer\r\n\r\n    function removeHead(address _head) public onlyAdmin {\r\n        _heads.remove(_head);\r\n        emit RemoveHead(_head, msg.sender, block.timestamp);\r\n    }\r\n\r\n    function removeCredentialer(address _credentialer) public onlyAdmin {\r\n        require(\r\n            _credentialers.contains(msg.sender) == true,\r\n            \"Credentialer does not exist\"\r\n        );\r\n        require(\r\n            _credentialers.length() - 1 > 0,\r\n            \"At least one credentialer has to exist\"\r\n        );\r\n        _credentialers.remove(_credentialer);\r\n        for (\r\n            uint256 i = 0;\r\n            i < _credentialerClearances[_credentialer].length;\r\n            i++\r\n        ) {\r\n            bytes32 typeHash = keccak256(\r\n                abi.encodePacked(_credentialerClearances[_credentialer][i])\r\n            );\r\n            bytes32 clearanceHash = keccak256(\r\n                abi.encodePacked(typeHash, _credentialer)\r\n            );\r\n            _credentialerClearance.remove(clearanceHash);\r\n        }\r\n        delete _credentialerClearances[_credentialer];\r\n        if (_heads.contains(_credentialer) == true) removeHead(_credentialer);\r\n        emit RemoveCredentialer(_credentialer, msg.sender, block.timestamp);\r\n    }\r\n\r\n    function removeCredentialerClearance(\r\n        address _credentialer,\r\n        string memory _type\r\n    ) public onlyHead typeValidator(_type) {\r\n        require(\r\n            _credentialerClearances[_credentialer].length - 1 > 0,\r\n            \"At least one clearance for each credentialer\"\r\n        );\r\n        bytes32 typeHash = keccak256(abi.encodePacked(_type));\r\n        if (msg.sender != admin) {\r\n            bytes32 senderClearanceHash = keccak256(\r\n                abi.encodePacked(typeHash, msg.sender)\r\n            );\r\n            require(\r\n                _credentialerClearance.contains(senderClearanceHash) == true,\r\n                \"Not cleared to modify current type\"\r\n            );\r\n            require(\r\n                _heads.contains(_credentialer) == false,\r\n                \"Can't modify clearance of a fellow head\"\r\n            );\r\n        }\r\n\r\n        bytes32 clearanceHash = keccak256(\r\n            abi.encodePacked(typeHash, _credentialer)\r\n        );\r\n\r\n        require(\r\n            _credentialerClearance.contains(clearanceHash) == true,\r\n            \"Credentialer doesn't have this clearance\"\r\n        );\r\n\r\n        _credentialerClearance.remove(clearanceHash);\r\n        uint256 index = 0;\r\n        while (_credentialerClearances[_credentialer][index] != typeHash)\r\n            index += 1;\r\n        uint256 len = _credentialerClearances[_credentialer].length;\r\n        _credentialerClearances[_credentialer][index] = _credentialerClearances[\r\n            _credentialer\r\n        ][len - 1];\r\n        delete _credentialerClearances[_credentialer][len - 1];\r\n        emit RemoveCredentialerClearance(\r\n            _credentialer,\r\n            _type,\r\n            clearanceHash,\r\n            msg.sender,\r\n            block.timestamp\r\n        );\r\n    }\r\n\r\n    //Credential types\r\n\r\n    function createCredentialType(string memory _credentialType)\r\n        public\r\n        onlyAdmin\r\n    {\r\n        bytes32 typeHash = keccak256(abi.encodePacked(_credentialType)); //might have to be storage here\r\n        _credentialTypes.add(typeHash);\r\n        emit CreateCredentialType(_credentialType, typeHash, block.timestamp);\r\n    }\r\n\r\n    function removeCredentialType(string memory _credentialType)\r\n        public\r\n        onlyAdmin\r\n    {\r\n        bytes32 typeHash = keccak256(abi.encodePacked(_credentialType)); //might have to be storage here\r\n        _credentialTypes.remove(typeHash);\r\n        emit RemoveCredentialType(_credentialType, typeHash, block.timestamp);\r\n    }\r\n\r\n    //Utility\r\n    function isCredentialer(address addr) public view returns (bool) {\r\n        return _credentialers.contains(addr);\r\n    }\r\n\r\n    function isHead(address addr) public view returns (bool) {\r\n        return _heads.contains(addr);\r\n    }\r\n\r\n    function isValidType(string memory _type) public view returns (bool) {\r\n        bytes32 typeHash = keccak256(abi.encodePacked(_type));\r\n        require(\r\n            _credentialTypes.contains(typeHash) == true,\r\n            \"Invalid credential type\"\r\n        );\r\n    }\r\n\r\n    function hasClearance(address addr, string memory _type)\r\n        public\r\n        view\r\n        returns (bool)\r\n    {\r\n        bytes32 typeHash = keccak256(abi.encodePacked(_type));\r\n        require(\r\n            _credentialTypes.contains(typeHash) == true,\r\n            \"Not a valid credential type\"\r\n        );\r\n        bytes32 clearanceHash = keccak256(abi.encodePacked(typeHash, addr));\r\n        return _credentialerClearance.contains(clearanceHash);\r\n    }\r\n\r\n    function isClearedHead(address _head, string memory _credentialType)\r\n        public\r\n        view\r\n    {\r\n        require(_heads.contains(_head) == true, \"Not an approved head\");\r\n        bytes32 typeHash = keccak256(abi.encodePacked(_credentialType));\r\n        require(\r\n            _credentialTypes.contains(typeHash) == true,\r\n            \"Not a valid credential type\"\r\n        );\r\n        bytes32 clearanceHash = keccak256(abi.encodePacked(typeHash, _head));\r\n        require(\r\n            _headsClearance.contains(clearanceHash) == true,\r\n            \"Don't have clearance for this credential type\"\r\n        );\r\n    }\r\n}\r\n",
  "sourcePath": "D:\\IBlock\\truffle\\contracts\\SkillsClearance.sol",
  "compiler": {
    "name": "solc",
    "version": "0.8.6+commit.11564f7e.Emscripten.clang"
  },
  "schemaVersion": "3.4.10",
  "updatedAt": "2022-10-23T20:55:19.121Z",
  "devdoc": {
    "kind": "dev",
    "methods": {},
    "version": 1
  },
  "userdoc": {
    "kind": "user",
    "methods": {},
    "version": 1
  }
}