{
  "contractName": "SkillsWallet",
  "abi": [
    {
      "inputs": [
        {
          "internalType": "string",
          "name": "_uri",
          "type": "string"
        },
        {
          "internalType": "address",
          "name": "credentialer",
          "type": "address"
        }
      ],
      "stateMutability": "nonpayable",
      "type": "constructor"
    },
    {
      "anonymous": false,
      "inputs": [
        {
          "indexed": true,
          "internalType": "address",
          "name": "account",
          "type": "address"
        },
        {
          "indexed": true,
          "internalType": "address",
          "name": "operator",
          "type": "address"
        },
        {
          "indexed": false,
          "internalType": "bool",
          "name": "approved",
          "type": "bool"
        }
      ],
      "name": "ApprovalForAll",
      "type": "event"
    },
    {
      "anonymous": false,
      "inputs": [
        {
          "indexed": true,
          "internalType": "address",
          "name": "credentialer",
          "type": "address"
        },
        {
          "indexed": true,
          "internalType": "uint256",
          "name": "credentialId",
          "type": "uint256"
        },
        {
          "indexed": false,
          "internalType": "uint256",
          "name": "time",
          "type": "uint256"
        }
      ],
      "name": "Create",
      "type": "event"
    },
    {
      "anonymous": false,
      "inputs": [
        {
          "indexed": true,
          "internalType": "address",
          "name": "previousOwner",
          "type": "address"
        },
        {
          "indexed": true,
          "internalType": "address",
          "name": "newOwner",
          "type": "address"
        }
      ],
      "name": "OwnershipTransferred",
      "type": "event"
    },
    {
      "anonymous": false,
      "inputs": [
        {
          "indexed": true,
          "internalType": "address",
          "name": "operator",
          "type": "address"
        },
        {
          "indexed": true,
          "internalType": "address",
          "name": "from",
          "type": "address"
        },
        {
          "indexed": true,
          "internalType": "address",
          "name": "to",
          "type": "address"
        },
        {
          "indexed": false,
          "internalType": "uint256[]",
          "name": "ids",
          "type": "uint256[]"
        },
        {
          "indexed": false,
          "internalType": "uint256[]",
          "name": "values",
          "type": "uint256[]"
        }
      ],
      "name": "TransferBatch",
      "type": "event"
    },
    {
      "anonymous": false,
      "inputs": [
        {
          "indexed": true,
          "internalType": "address",
          "name": "operator",
          "type": "address"
        },
        {
          "indexed": true,
          "internalType": "address",
          "name": "from",
          "type": "address"
        },
        {
          "indexed": true,
          "internalType": "address",
          "name": "to",
          "type": "address"
        },
        {
          "indexed": false,
          "internalType": "uint256",
          "name": "id",
          "type": "uint256"
        },
        {
          "indexed": false,
          "internalType": "uint256",
          "name": "value",
          "type": "uint256"
        }
      ],
      "name": "TransferSingle",
      "type": "event"
    },
    {
      "anonymous": false,
      "inputs": [
        {
          "indexed": false,
          "internalType": "string",
          "name": "value",
          "type": "string"
        },
        {
          "indexed": true,
          "internalType": "uint256",
          "name": "id",
          "type": "uint256"
        }
      ],
      "name": "URI",
      "type": "event"
    },
    {
      "inputs": [
        {
          "internalType": "address",
          "name": "account",
          "type": "address"
        },
        {
          "internalType": "uint256",
          "name": "id",
          "type": "uint256"
        }
      ],
      "name": "balanceOf",
      "outputs": [
        {
          "internalType": "uint256",
          "name": "",
          "type": "uint256"
        }
      ],
      "stateMutability": "view",
      "type": "function"
    },
    {
      "inputs": [
        {
          "internalType": "address[]",
          "name": "accounts",
          "type": "address[]"
        },
        {
          "internalType": "uint256[]",
          "name": "ids",
          "type": "uint256[]"
        }
      ],
      "name": "balanceOfBatch",
      "outputs": [
        {
          "internalType": "uint256[]",
          "name": "",
          "type": "uint256[]"
        }
      ],
      "stateMutability": "view",
      "type": "function"
    },
    {
      "inputs": [
        {
          "internalType": "address",
          "name": "account",
          "type": "address"
        },
        {
          "internalType": "uint256",
          "name": "id",
          "type": "uint256"
        },
        {
          "internalType": "uint256",
          "name": "value",
          "type": "uint256"
        }
      ],
      "name": "burn",
      "outputs": [],
      "stateMutability": "nonpayable",
      "type": "function"
    },
    {
      "inputs": [
        {
          "internalType": "address",
          "name": "account",
          "type": "address"
        },
        {
          "internalType": "uint256[]",
          "name": "ids",
          "type": "uint256[]"
        },
        {
          "internalType": "uint256[]",
          "name": "values",
          "type": "uint256[]"
        }
      ],
      "name": "burnBatch",
      "outputs": [],
      "stateMutability": "nonpayable",
      "type": "function"
    },
    {
      "inputs": [
        {
          "internalType": "address",
          "name": "account",
          "type": "address"
        },
        {
          "internalType": "address",
          "name": "operator",
          "type": "address"
        }
      ],
      "name": "isApprovedForAll",
      "outputs": [
        {
          "internalType": "bool",
          "name": "",
          "type": "bool"
        }
      ],
      "stateMutability": "view",
      "type": "function"
    },
    {
      "inputs": [],
      "name": "owner",
      "outputs": [
        {
          "internalType": "address",
          "name": "",
          "type": "address"
        }
      ],
      "stateMutability": "view",
      "type": "function"
    },
    {
      "inputs": [],
      "name": "renounceOwnership",
      "outputs": [],
      "stateMutability": "nonpayable",
      "type": "function"
    },
    {
      "inputs": [
        {
          "internalType": "address",
          "name": "operator",
          "type": "address"
        },
        {
          "internalType": "bool",
          "name": "approved",
          "type": "bool"
        }
      ],
      "name": "setApprovalForAll",
      "outputs": [],
      "stateMutability": "nonpayable",
      "type": "function"
    },
    {
      "inputs": [
        {
          "internalType": "bytes4",
          "name": "interfaceId",
          "type": "bytes4"
        }
      ],
      "name": "supportsInterface",
      "outputs": [
        {
          "internalType": "bool",
          "name": "",
          "type": "bool"
        }
      ],
      "stateMutability": "view",
      "type": "function"
    },
    {
      "inputs": [
        {
          "internalType": "address",
          "name": "newOwner",
          "type": "address"
        }
      ],
      "name": "transferOwnership",
      "outputs": [],
      "stateMutability": "nonpayable",
      "type": "function"
    },
    {
      "inputs": [
        {
          "internalType": "address",
          "name": "from",
          "type": "address"
        },
        {
          "internalType": "address",
          "name": "to",
          "type": "address"
        },
        {
          "internalType": "uint256",
          "name": "id",
          "type": "uint256"
        },
        {
          "internalType": "uint256",
          "name": "amount",
          "type": "uint256"
        },
        {
          "internalType": "bytes",
          "name": "data",
          "type": "bytes"
        }
      ],
      "name": "safeTransferFrom",
      "outputs": [],
      "stateMutability": "nonpayable",
      "type": "function"
    },
    {
      "inputs": [
        {
          "internalType": "address",
          "name": "from",
          "type": "address"
        },
        {
          "internalType": "address",
          "name": "to",
          "type": "address"
        },
        {
          "internalType": "uint256[]",
          "name": "ids",
          "type": "uint256[]"
        },
        {
          "internalType": "uint256[]",
          "name": "amounts",
          "type": "uint256[]"
        },
        {
          "internalType": "bytes",
          "name": "data",
          "type": "bytes"
        }
      ],
      "name": "safeBatchTransferFrom",
      "outputs": [],
      "stateMutability": "nonpayable",
      "type": "function"
    },
    {
      "inputs": [
        {
          "internalType": "uint256",
          "name": "_tokenId",
          "type": "uint256"
        }
      ],
      "name": "uri",
      "outputs": [
        {
          "internalType": "string",
          "name": "",
          "type": "string"
        }
      ],
      "stateMutability": "view",
      "type": "function"
    },
    {
      "inputs": [
        {
          "internalType": "address",
          "name": "_newAdmin",
          "type": "address"
        }
      ],
      "name": "switchAdmin",
      "outputs": [],
      "stateMutability": "nonpayable",
      "type": "function"
    },
    {
      "inputs": [
        {
          "internalType": "address",
          "name": "_credentialer",
          "type": "address"
        },
        {
          "internalType": "string",
          "name": "_type",
          "type": "string"
        }
      ],
      "name": "addCredentialerClearance",
      "outputs": [],
      "stateMutability": "nonpayable",
      "type": "function"
    },
    {
      "inputs": [
        {
          "internalType": "address",
          "name": "_credentialer",
          "type": "address"
        },
        {
          "internalType": "string",
          "name": "_type",
          "type": "string"
        }
      ],
      "name": "addCredentialer",
      "outputs": [],
      "stateMutability": "nonpayable",
      "type": "function"
    },
    {
      "inputs": [
        {
          "internalType": "address",
          "name": "_head",
          "type": "address"
        },
        {
          "internalType": "string",
          "name": "_type",
          "type": "string"
        }
      ],
      "name": "addHead",
      "outputs": [],
      "stateMutability": "nonpayable",
      "type": "function"
    },
    {
      "inputs": [
        {
          "internalType": "address",
          "name": "_head",
          "type": "address"
        }
      ],
      "name": "removeHead",
      "outputs": [],
      "stateMutability": "nonpayable",
      "type": "function"
    },
    {
      "inputs": [
        {
          "internalType": "address",
          "name": "_credentialer",
          "type": "address"
        }
      ],
      "name": "removeCredentialer",
      "outputs": [],
      "stateMutability": "nonpayable",
      "type": "function"
    },
    {
      "inputs": [
        {
          "internalType": "string",
          "name": "_credentialType",
          "type": "string"
        }
      ],
      "name": "createCredentialType",
      "outputs": [],
      "stateMutability": "nonpayable",
      "type": "function"
    },
    {
      "inputs": [
        {
          "internalType": "string",
          "name": "_credentialType",
          "type": "string"
        }
      ],
      "name": "removeCredentialType",
      "outputs": [],
      "stateMutability": "nonpayable",
      "type": "function"
    },
    {
      "inputs": [
        {
          "internalType": "string",
          "name": "_type",
          "type": "string"
        },
        {
          "internalType": "string",
          "name": "_uri",
          "type": "string"
        }
      ],
      "name": "createCredential",
      "outputs": [
        {
          "internalType": "uint256",
          "name": "",
          "type": "uint256"
        }
      ],
      "stateMutability": "nonpayable",
      "type": "function"
    },
    {
      "inputs": [
        {
          "internalType": "address",
          "name": "receiver",
          "type": "address"
        },
        {
          "internalType": "uint256",
          "name": "credId",
          "type": "uint256"
        }
      ],
      "name": "issueCredential",
      "outputs": [],
      "stateMutability": "nonpayable",
      "type": "function"
    },
    {
      "inputs": [
        {
          "internalType": "address",
          "name": "addr",
          "type": "address"
        }
      ],
      "name": "isCredentialer",
      "outputs": [
        {
          "internalType": "bool",
          "name": "",
          "type": "bool"
        }
      ],
      "stateMutability": "view",
      "type": "function"
    },
    {
      "inputs": [],
      "name": "getCredentialerCount",
      "outputs": [
        {
          "internalType": "uint256",
          "name": "",
          "type": "uint256"
        }
      ],
      "stateMutability": "view",
      "type": "function"
    },
    {
      "inputs": [
        {
          "internalType": "address",
          "name": "addr",
          "type": "address"
        }
      ],
      "name": "isHead",
      "outputs": [
        {
          "internalType": "bool",
          "name": "",
          "type": "bool"
        }
      ],
      "stateMutability": "view",
      "type": "function"
    },
    {
      "inputs": [
        {
          "internalType": "address",
          "name": "addr",
          "type": "address"
        },
        {
          "internalType": "string",
          "name": "_type",
          "type": "string"
        }
      ],
      "name": "hasClearance",
      "outputs": [
        {
          "internalType": "bool",
          "name": "",
          "type": "bool"
        }
      ],
      "stateMutability": "view",
      "type": "function"
    },
    {
      "inputs": [
        {
          "internalType": "address",
          "name": "user",
          "type": "address"
        }
      ],
      "name": "getUserTokens",
      "outputs": [
        {
          "internalType": "uint256[]",
          "name": "userTokens",
          "type": "uint256[]"
        }
      ],
      "stateMutability": "view",
      "type": "function"
    },
    {
      "inputs": [],
      "name": "tokenId",
      "outputs": [
        {
          "internalType": "uint256",
          "name": "",
          "type": "uint256"
        }
      ],
      "stateMutability": "view",
      "type": "function"
    }
  ],
  "bytecode": "0x608060405260405180602001604052806000815250600390805190602001906200002b929190620002ff565b503480156200003957600080fd5b50604051620061a9380380620061a983398181016040528101906200005f919062000444565b8162000071816200012460201b60201c565b5062000092620000866200014060201b60201c565b6200014860201b60201c565b620000a3826200020e60201b60201c565b620000be81600b6200022a60201b62001fe31790919060201c565b50620000da8160096200022a60201b62001fe31790919060201c565b5080600860006101000a81548173ffffffffffffffffffffffffffffffffffffffff021916908373ffffffffffffffffffffffffffffffffffffffff16021790555050506200067c565b80600290805190602001906200013c929190620002ff565b5050565b600033905090565b6000600560009054906101000a900473ffffffffffffffffffffffffffffffffffffffff16905081600560006101000a81548173ffffffffffffffffffffffffffffffffffffffff021916908373ffffffffffffffffffffffffffffffffffffffff1602179055508173ffffffffffffffffffffffffffffffffffffffff168173ffffffffffffffffffffffffffffffffffffffff167f8be0079c531659141344cd1fd0a4f28419497f9722a3daafe3b4186f6b6457e060405160405180910390a35050565b806003908051906020019062000226929190620002ff565b5050565b60006200025a836000018373ffffffffffffffffffffffffffffffffffffffff1660001b6200026260201b60201c565b905092915050565b6000620002768383620002dc60201b60201c565b620002d1578260000182908060018154018082558091505060019003906000526020600020016000909190919091505582600001805490508360010160008481526020019081526020016000208190555060019050620002d6565b600090505b92915050565b600080836001016000848152602001908152602001600020541415905092915050565b8280546200030d9062000573565b90600052602060002090601f0160209004810192826200033157600085556200037d565b82601f106200034c57805160ff19168380011785556200037d565b828001600101855582156200037d579182015b828111156200037c5782518255916020019190600101906200035f565b5b5090506200038c919062000390565b5090565b5b80821115620003ab57600081600090555060010162000391565b5090565b6000620003c6620003c084620004d3565b620004aa565b905082815260208101848484011115620003e557620003e462000642565b5b620003f28482856200053d565b509392505050565b6000815190506200040b8162000662565b92915050565b600082601f8301126200042957620004286200063d565b5b81516200043b848260208601620003af565b91505092915050565b600080604083850312156200045e576200045d6200064c565b5b600083015167ffffffffffffffff8111156200047f576200047e62000647565b5b6200048d8582860162000411565b9250506020620004a085828601620003fa565b9150509250929050565b6000620004b6620004c9565b9050620004c48282620005a9565b919050565b6000604051905090565b600067ffffffffffffffff821115620004f157620004f06200060e565b5b620004fc8262000651565b9050602081019050919050565b600062000516826200051d565b9050919050565b600073ffffffffffffffffffffffffffffffffffffffff82169050919050565b60005b838110156200055d57808201518184015260208101905062000540565b838111156200056d576000848401525b50505050565b600060028204905060018216806200058c57607f821691505b60208210811415620005a357620005a2620005df565b5b50919050565b620005b48262000651565b810181811067ffffffffffffffff82111715620005d657620005d56200060e565b5b80604052505050565b7f4e487b7100000000000000000000000000000000000000000000000000000000600052602260045260246000fd5b7f4e487b7100000000000000000000000000000000000000000000000000000000600052604160045260246000fd5b600080fd5b600080fd5b600080fd5b600080fd5b6000601f19601f8301169050919050565b6200066d8162000509565b81146200067957600080fd5b50565b615b1d806200068c6000396000f3fe608060405234801561001057600080fd5b50600436106101ce5760003560e01c80636b20c45411610104578063a22cb465116100a2578063f242432a11610071578063f242432a1461054b578063f2fde38b14610567578063f514e1d114610583578063f5298aca1461059f576101ce565b8063a22cb465146104c7578063ab4d0716146104e3578063d5966086146104ff578063e985e9c51461051b576101ce565b80637199a82f116100de5780637199a82f1461043f578063732617bb1461046f5780638da5cb5b1461048b5780639b046888146104a9576101ce565b80636b20c454146103fd57806371500c5e14610419578063715018a614610435576101ce565b8063396b233f1161017157806358faaf3a1161014b57806358faaf3a146103795780635c3d46a7146103a9578063662929e6146103c55780636a691fd1146103e1576101ce565b8063396b233f146102fd5780634e1273f414610319578063519dc8d214610349576101ce565b806317d70f7c116101ad57806317d70f7c146102635780631fa36a491461028157806328060c16146102b15780632eb2c2d6146102e1576101ce565b8062fdd58e146101d357806301ffc9a7146102035780630e89341c14610233575b600080fd5b6101ed60048036038101906101e89190613f11565b6105bb565b6040516101fa9190614d09565b60405180910390f35b61021d6004803603810190610218919061401c565b610684565b60405161022a919061492c565b60405180910390f35b61024d60048036038101906102489190614137565b610766565b60405161025a9190614947565b60405180910390f35b61026b610778565b6040516102789190614d09565b60405180910390f35b61029b60048036038101906102969190613eb5565b610789565b6040516102a8919061492c565b60405180910390f35b6102cb60048036038101906102c69190613c17565b61085a565b6040516102d8919061492c565b60405180910390f35b6102fb60048036038101906102f69190613c84565b610877565b005b61031760048036038101906103129190613f11565b610979565b005b610333600480360381019061032e9190613fa4565b610b6d565b60405161034091906148d3565b60405180910390f35b610363600480360381019061035e9190613c17565b610c86565b60405161037091906148d3565b60405180910390f35b610393600480360381019061038e9190613c17565b610db6565b6040516103a0919061492c565b60405180910390f35b6103c360048036038101906103be9190613eb5565b610dd3565b005b6103df60048036038101906103da9190613c17565b61115a565b005b6103fb60048036038101906103f69190614076565b611210565b005b61041760048036038101906104129190613dea565b6112f2565b005b610433600480360381019061042e9190613c17565b61138f565b005b61043d611661565b005b610459600480360381019061045491906140bf565b611675565b6040516104669190614d09565b60405180910390f35b61048960048036038101906104849190613c17565b61193d565b005b610493611a72565b6040516104a091906147f6565b60405180910390f35b6104b1611a9c565b6040516104be9190614d09565b60405180910390f35b6104e160048036038101906104dc9190613e75565b611aad565b005b6104fd60048036038101906104f89190613eb5565b611ac3565b005b61051960048036038101906105149190614076565b611b47565b005b61053560048036038101906105309190613c44565b611c29565b604051610542919061492c565b60405180910390f35b61056560048036038101906105609190613d53565b611cbd565b005b610581600480360381019061057c9190613c17565b611dbf565b005b61059d60048036038101906105989190613eb5565b611e43565b005b6105b960048036038101906105b49190613f51565b611f46565b005b60008073ffffffffffffffffffffffffffffffffffffffff168373ffffffffffffffffffffffffffffffffffffffff16141561062c576040517f08c379a000000000000000000000000000000000000000000000000000000000815260040161062390614aa9565b60405180910390fd5b60008083815260200190815260200160002060008473ffffffffffffffffffffffffffffffffffffffff1673ffffffffffffffffffffffffffffffffffffffff16815260200190815260200160002054905092915050565b60007fd9b67a26000000000000000000000000000000000000000000000000000000007bffffffffffffffffffffffffffffffffffffffffffffffffffffffff1916827bffffffffffffffffffffffffffffffffffffffffffffffffffffffff1916148061074f57507f0e89341c000000000000000000000000000000000000000000000000000000007bffffffffffffffffffffffffffffffffffffffffffffffffffffffff1916827bffffffffffffffffffffffffffffffffffffffffffffffffffffffff1916145b8061075f575061075e82612013565b5b9050919050565b60606107718261207d565b9050919050565b60006107846006612162565b905090565b6000808260405160200161079d91906147a4565b604051602081830303815290604052805190602001209050600115156107cd82601061217090919063ffffffff16565b15151461080f576040517f08c379a000000000000000000000000000000000000000000000000000000000815260040161080690614ca9565b60405180910390fd5b60008185604051602001610824929190614778565b60405160208183030381529060405280519060200120905061085081600d61217090919063ffffffff16565b9250505092915050565b600061087082600b61218790919063ffffffff16565b9050919050565b600115156108966108866121b7565b600b61218790919063ffffffff16565b1515146108d8576040517f08c379a00000000000000000000000000000000000000000000000000000000081526004016108cf906149e9565b60405180910390fd5b6108e06121b7565b73ffffffffffffffffffffffffffffffffffffffff168573ffffffffffffffffffffffffffffffffffffffff1614806109265750610925856109206121b7565b611c29565b5b610965576040517f08c379a000000000000000000000000000000000000000000000000000000000815260040161095c90614b49565b60405180910390fd5b61097285858585856121bf565b5050505050565b600115156109986109886121b7565b600b61218790919063ffffffff16565b1515146109da576040517f08c379a00000000000000000000000000000000000000000000000000000000081526004016109d1906149e9565b60405180910390fd5b6109e46006612162565b811115610a26576040517f08c379a0000000000000000000000000000000000000000000000000000000008152600401610a1d90614b89565b60405180910390fd5b600060126000838152602001908152602001600020604051602001610a4b91906147bb565b60405160208183030381529060405280519060200120905060011515610a7b82601061217090919063ffffffff16565b151514610abd576040517f08c379a0000000000000000000000000000000000000000000000000000000008152600401610ab490614ca9565b60405180910390fd5b600081610ac86121b7565b604051602001610ad9929190614778565b60405160208183030381529060405280519060200120905060011515610b0982600d61217090919063ffffffff16565b151514610b4b576040517f08c379a0000000000000000000000000000000000000000000000000000000008152600401610b4290614ae9565b60405180910390fd5b610b6784846001604051806020016040528060008152506124e1565b50505050565b60608151835114610bb3576040517f08c379a0000000000000000000000000000000000000000000000000000000008152600401610baa90614c89565b60405180910390fd5b6000835167ffffffffffffffff811115610bd057610bcf61519d565b5b604051908082528060200260200182016040528015610bfe5781602001602082028036833780820191505090505b50905060005b8451811015610c7b57610c4b858281518110610c2357610c2261516e565b5b6020026020010151858381518110610c3e57610c3d61516e565b5b60200260200101516105bb565b828281518110610c5e57610c5d61516e565b5b60200260200101818152505080610c749061506a565b9050610c04565b508091505092915050565b60606000610c946006612162565b67ffffffffffffffff811115610cad57610cac61519d565b5b604051908082528060200260200182016040528015610cdb5781602001602082028036833780820191505090505b50905060005b610ceb6006612162565b811015610d535783828281518110610d0657610d0561516e565b5b602002602001019073ffffffffffffffffffffffffffffffffffffffff16908173ffffffffffffffffffffffffffffffffffffffff16815250508080610d4b9061506a565b915050610ce1565b50610dae816007805480602002602001604051908101604052809291908181526020018280548015610da457602002820191906000526020600020905b815481526020019060010190808311610d90575b5050505050610b6d565b915050919050565b6000610dcc82600961218790919063ffffffff16565b9050919050565b60011515610df2610de26121b7565b600961218790919063ffffffff16565b151514610e34576040517f08c379a0000000000000000000000000000000000000000000000000000000008152600401610e2b90614ac9565b60405180910390fd5b8060011515610e7382604051602001610e4d91906147a4565b60405160208183030381529060405280519060200120601061217090919063ffffffff16565b151514610eb5576040517f08c379a0000000000000000000000000000000000000000000000000000000008152600401610eac90614b69565b60405180910390fd5b6003600f60008573ffffffffffffffffffffffffffffffffffffffff1673ffffffffffffffffffffffffffffffffffffffff1681526020019081526020016000208054905010610f3a576040517f08c379a0000000000000000000000000000000000000000000000000000000008152600401610f3190614c49565b60405180910390fd5b600082604051602001610f4d91906147a4565b604051602081830303815290604052805190602001209050600860009054906101000a900473ffffffffffffffffffffffffffffffffffffffff1673ffffffffffffffffffffffffffffffffffffffff16610fa66121b7565b73ffffffffffffffffffffffffffffffffffffffff161461105157600081610fcc6121b7565b604051602001610fdd929190614778565b6040516020818303038152906040528051906020012090506001151561100d82600d61217090919063ffffffff16565b15151461104f576040517f08c379a000000000000000000000000000000000000000000000000000000000815260040161104690614a89565b60405180910390fd5b505b60008185604051602001611066929190614778565b6040516020818303038152906040528051906020012090506000151561109682600d61217090919063ffffffff16565b1515146110d8576040517f08c379a00000000000000000000000000000000000000000000000000000000081526004016110cf90614b09565b60405180910390fd5b6110ec81600d61269290919063ffffffff16565b50600f60008673ffffffffffffffffffffffffffffffffffffffff1673ffffffffffffffffffffffffffffffffffffffff1681526020019081526020016000208290806001815401808255809150506001900390600052602060002001600090919091909150555050505050565b600115156111666121b7565b73ffffffffffffffffffffffffffffffffffffffff16600860009054906101000a900473ffffffffffffffffffffffffffffffffffffffff1673ffffffffffffffffffffffffffffffffffffffff16141515146111f8576040517f08c379a00000000000000000000000000000000000000000000000000000000081526004016111ef90614ba9565b60405180910390fd5b61120c8160096126a990919063ffffffff16565b5050565b6001151561121c6121b7565b73ffffffffffffffffffffffffffffffffffffffff16600860009054906101000a900473ffffffffffffffffffffffffffffffffffffffff1673ffffffffffffffffffffffffffffffffffffffff16141515146112ae576040517f08c379a00000000000000000000000000000000000000000000000000000000081526004016112a590614ba9565b60405180910390fd5b6000816040516020016112c191906147a4565b6040516020818303038152906040528051906020012090506112ed81601061269290919063ffffffff16565b505050565b6112fa6121b7565b73ffffffffffffffffffffffffffffffffffffffff168373ffffffffffffffffffffffffffffffffffffffff161480611340575061133f8361133a6121b7565b611c29565b5b61137f576040517f08c379a000000000000000000000000000000000000000000000000000000000815260040161137690614989565b60405180910390fd5b61138a8383836126d9565b505050565b600115156113ae61139e6121b7565b600961218790919063ffffffff16565b1515146113f0576040517f08c379a00000000000000000000000000000000000000000000000000000000081526004016113e790614ac9565b60405180910390fd5b6001151561140f6113ff6121b7565b600b61218790919063ffffffff16565b151514611451576040517f08c379a000000000000000000000000000000000000000000000000000000000815260040161144890614a49565b60405180910390fd5b6000600161145f600b6129a8565b6114699190614f13565b116114a9576040517f08c379a00000000000000000000000000000000000000000000000000000000081526004016114a0906149c9565b60405180910390fd5b6114bd81600b6126a990919063ffffffff16565b5060005b600f60008373ffffffffffffffffffffffffffffffffffffffff1673ffffffffffffffffffffffffffffffffffffffff168152602001908152602001600020805490508110156115e8576000600f60008473ffffffffffffffffffffffffffffffffffffffff1673ffffffffffffffffffffffffffffffffffffffff168152602001908152602001600020828154811061155e5761155d61516e565b5b9060005260206000200154604051602001611579919061475d565b604051602081830303815290604052805190602001209050600081846040516020016115a6929190614778565b6040516020818303038152906040528051906020012090506115d281600d6129bd90919063ffffffff16565b50505080806115e09061506a565b9150506114c1565b50600f60008273ffffffffffffffffffffffffffffffffffffffff1673ffffffffffffffffffffffffffffffffffffffff168152602001908152602001600020600061163491906138b1565b6001151561164c82600961218790919063ffffffff16565b1515141561165e5761165d8161115a565b5b50565b6116696129d4565b6116736000612a52565b565b6000600115156116966116866121b7565b600961218790919063ffffffff16565b1515146116d8576040517f08c379a00000000000000000000000000000000000000000000000000000000081526004016116cf90614ac9565b60405180910390fd5b8260011515611717826040516020016116f191906147a4565b60405160208183030381529060405280519060200120601061217090919063ffffffff16565b151514611759576040517f08c379a000000000000000000000000000000000000000000000000000000000815260040161175090614b69565b60405180910390fd5b8360008160405160200161176d91906147a4565b6040516020818303038152906040528051906020012090506001151561179d82601061217090919063ffffffff16565b1515146117df576040517f08c379a00000000000000000000000000000000000000000000000000000000081526004016117d690614ca9565b60405180910390fd5b6000816117ea6121b7565b6040516020016117fb929190614778565b6040516020818303038152906040528051906020012090506001151561182b82600d61217090919063ffffffff16565b15151461186d576040517f08c379a000000000000000000000000000000000000000000000000000000000815260040161186490614ae9565b60405180910390fd5b6118776006612b18565b60006118836006612162565b90506007819080600181540180825580915050600190039060005260206000200160009091909190915055876012600083815260200190815260200160002090805190602001906118d59291906138d2565b506118e08188612b2e565b803373ffffffffffffffffffffffffffffffffffffffff167f278b0fd0170e87df8d6e9c94b47d3ff7382de693c547e6089b53f9972c532389426040516119279190614d09565b60405180910390a3809550505050505092915050565b600115156119496121b7565b73ffffffffffffffffffffffffffffffffffffffff16600860009054906101000a900473ffffffffffffffffffffffffffffffffffffffff1673ffffffffffffffffffffffffffffffffffffffff16141515146119db576040517f08c379a00000000000000000000000000000000000000000000000000000000081526004016119d290614ba9565b60405180910390fd5b6119ef81600b61218790919063ffffffff16565b611a2e576040517f08c379a0000000000000000000000000000000000000000000000000000000008152600401611a2590614c29565b60405180910390fd5b80600860006101000a81548173ffffffffffffffffffffffffffffffffffffffff021916908373ffffffffffffffffffffffffffffffffffffffff16021790555050565b6000600560009054906101000a900473ffffffffffffffffffffffffffffffffffffffff16905090565b6000611aa8600b6129a8565b905090565b611abf611ab86121b7565b8383612b9a565b5050565b60011515611ae2611ad26121b7565b600961218790919063ffffffff16565b151514611b24576040517f08c379a0000000000000000000000000000000000000000000000000000000008152600401611b1b90614ac9565b60405180910390fd5b611b2e8282610dd3565b611b4282600b611fe390919063ffffffff16565b505050565b60011515611b536121b7565b73ffffffffffffffffffffffffffffffffffffffff16600860009054906101000a900473ffffffffffffffffffffffffffffffffffffffff1673ffffffffffffffffffffffffffffffffffffffff1614151514611be5576040517f08c379a0000000000000000000000000000000000000000000000000000000008152600401611bdc90614ba9565b60405180910390fd5b600081604051602001611bf891906147a4565b604051602081830303815290604052805190602001209050611c248160106129bd90919063ffffffff16565b505050565b6000600160008473ffffffffffffffffffffffffffffffffffffffff1673ffffffffffffffffffffffffffffffffffffffff16815260200190815260200160002060008373ffffffffffffffffffffffffffffffffffffffff1673ffffffffffffffffffffffffffffffffffffffff16815260200190815260200160002060009054906101000a900460ff16905092915050565b60011515611cdc611ccc6121b7565b600b61218790919063ffffffff16565b151514611d1e576040517f08c379a0000000000000000000000000000000000000000000000000000000008152600401611d15906149e9565b60405180910390fd5b611d266121b7565b73ffffffffffffffffffffffffffffffffffffffff168573ffffffffffffffffffffffffffffffffffffffff161480611d6c5750611d6b85611d666121b7565b611c29565b5b611dab576040517f08c379a0000000000000000000000000000000000000000000000000000000008152600401611da290614a69565b60405180910390fd5b611db88585858585612d07565b5050505050565b611dc76129d4565b600073ffffffffffffffffffffffffffffffffffffffff168173ffffffffffffffffffffffffffffffffffffffff161415611e37576040517f08c379a0000000000000000000000000000000000000000000000000000000008152600401611e2e90614a09565b60405180910390fd5b611e4081612a52565b50565b60011515611e4f6121b7565b73ffffffffffffffffffffffffffffffffffffffff16600860009054906101000a900473ffffffffffffffffffffffffffffffffffffffff1673ffffffffffffffffffffffffffffffffffffffff1614151514611ee1576040517f08c379a0000000000000000000000000000000000000000000000000000000008152600401611ed890614ba9565b60405180910390fd5b60001515611ef983600b61218790919063ffffffff16565b15151415611f0c57611f0b8282611ac3565b5b611f20826009611fe390919063ffffffff16565b5060001515611f2f8383610789565b15151415611f4257611f418282610dd3565b5b5050565b611f4e6121b7565b73ffffffffffffffffffffffffffffffffffffffff168373ffffffffffffffffffffffffffffffffffffffff161480611f945750611f9383611f8e6121b7565b611c29565b5b611fd3576040517f08c379a0000000000000000000000000000000000000000000000000000000008152600401611fca90614989565b60405180910390fd5b611fde838383612fa3565b505050565b600061200b836000018373ffffffffffffffffffffffffffffffffffffffff1660001b6131ea565b905092915050565b60007f01ffc9a7000000000000000000000000000000000000000000000000000000007bffffffffffffffffffffffffffffffffffffffffffffffffffffffff1916827bffffffffffffffffffffffffffffffffffffffffffffffffffffffff1916149050919050565b6060600060046000848152602001908152602001600020805461209f90615007565b80601f01602080910402602001604051908101604052809291908181526020018280546120cb90615007565b80156121185780601f106120ed57610100808354040283529160200191612118565b820191906000526020600020905b8154815290600101906020018083116120fb57829003601f168201915b505050505090506000815111612136576121318361325a565b61215a565b60038160405160200161214a9291906147d2565b6040516020818303038152906040525b915050919050565b600081600001549050919050565b600061217f83600001836132ee565b905092915050565b60006121af836000018373ffffffffffffffffffffffffffffffffffffffff1660001b6132ee565b905092915050565b600033905090565b8151835114612203576040517f08c379a00000000000000000000000000000000000000000000000000000000081526004016121fa90614cc9565b60405180910390fd5b600073ffffffffffffffffffffffffffffffffffffffff168473ffffffffffffffffffffffffffffffffffffffff161415612273576040517f08c379a000000000000000000000000000000000000000000000000000000000815260040161226a90614b29565b60405180910390fd5b600061227d6121b7565b905061228d818787878787613311565b60005b845181101561243e5760008582815181106122ae576122ad61516e565b5b6020026020010151905060008583815181106122cd576122cc61516e565b5b60200260200101519050600080600084815260200190815260200160002060008b73ffffffffffffffffffffffffffffffffffffffff1673ffffffffffffffffffffffffffffffffffffffff1681526020019081526020016000205490508181101561236e576040517f08c379a000000000000000000000000000000000000000000000000000000000815260040161236590614be9565b60405180910390fd5b81810360008085815260200190815260200160002060008c73ffffffffffffffffffffffffffffffffffffffff1673ffffffffffffffffffffffffffffffffffffffff168152602001908152602001600020819055508160008085815260200190815260200160002060008b73ffffffffffffffffffffffffffffffffffffffff1673ffffffffffffffffffffffffffffffffffffffff16815260200190815260200160002060008282546124239190614ebd565b92505081905550505050806124379061506a565b9050612290565b508473ffffffffffffffffffffffffffffffffffffffff168673ffffffffffffffffffffffffffffffffffffffff168273ffffffffffffffffffffffffffffffffffffffff167f4a39dc06d4c0dbc64b70af90fd698a233a518aa5d07e595d983b8c0526c8f7fb87876040516124b59291906148f5565b60405180910390a46124cb818787878787613319565b6124d9818787878787613321565b505050505050565b600073ffffffffffffffffffffffffffffffffffffffff168473ffffffffffffffffffffffffffffffffffffffff161415612551576040517f08c379a000000000000000000000000000000000000000000000000000000000815260040161254890614ce9565b60405180910390fd5b600061255b6121b7565b9050600061256885613508565b9050600061257585613508565b905061258683600089858589613311565b8460008088815260200190815260200160002060008973ffffffffffffffffffffffffffffffffffffffff1673ffffffffffffffffffffffffffffffffffffffff16815260200190815260200160002060008282546125e59190614ebd565b925050819055508673ffffffffffffffffffffffffffffffffffffffff16600073ffffffffffffffffffffffffffffffffffffffff168473ffffffffffffffffffffffffffffffffffffffff167fc3d58168c5ae7397731d063d5bbf3d657854427343f4c083240f7aacaa2d0f628989604051612663929190614d24565b60405180910390a461267a83600089858589613319565b61268983600089898989613582565b50505050505050565b60006126a183600001836131ea565b905092915050565b60006126d1836000018373ffffffffffffffffffffffffffffffffffffffff1660001b613769565b905092915050565b600073ffffffffffffffffffffffffffffffffffffffff168373ffffffffffffffffffffffffffffffffffffffff161415612749576040517f08c379a000000000000000000000000000000000000000000000000000000000815260040161274090614bc9565b60405180910390fd5b805182511461278d576040517f08c379a000000000000000000000000000000000000000000000000000000000815260040161278490614cc9565b60405180910390fd5b60006127976121b7565b90506127b781856000868660405180602001604052806000815250613311565b60005b83518110156129045760008482815181106127d8576127d761516e565b5b6020026020010151905060008483815181106127f7576127f661516e565b5b60200260200101519050600080600084815260200190815260200160002060008973ffffffffffffffffffffffffffffffffffffffff1673ffffffffffffffffffffffffffffffffffffffff16815260200190815260200160002054905081811015612898576040517f08c379a000000000000000000000000000000000000000000000000000000000815260040161288f90614a29565b60405180910390fd5b81810360008085815260200190815260200160002060008a73ffffffffffffffffffffffffffffffffffffffff1673ffffffffffffffffffffffffffffffffffffffff1681526020019081526020016000208190555050505080806128fc9061506a565b9150506127ba565b50600073ffffffffffffffffffffffffffffffffffffffff168473ffffffffffffffffffffffffffffffffffffffff168273ffffffffffffffffffffffffffffffffffffffff167f4a39dc06d4c0dbc64b70af90fd698a233a518aa5d07e595d983b8c0526c8f7fb868660405161297c9291906148f5565b60405180910390a46129a281856000868660405180602001604052806000815250613319565b50505050565b60006129b68260000161387d565b9050919050565b60006129cc8360000183613769565b905092915050565b6129dc6121b7565b73ffffffffffffffffffffffffffffffffffffffff166129fa611a72565b73ffffffffffffffffffffffffffffffffffffffff1614612a50576040517f08c379a0000000000000000000000000000000000000000000000000000000008152600401612a4790614c09565b60405180910390fd5b565b6000600560009054906101000a900473ffffffffffffffffffffffffffffffffffffffff16905081600560006101000a81548173ffffffffffffffffffffffffffffffffffffffff021916908373ffffffffffffffffffffffffffffffffffffffff1602179055508173ffffffffffffffffffffffffffffffffffffffff168173ffffffffffffffffffffffffffffffffffffffff167f8be0079c531659141344cd1fd0a4f28419497f9722a3daafe3b4186f6b6457e060405160405180910390a35050565b6001816000016000828254019250508190555050565b80600460008481526020019081526020016000209080519060200190612b559291906138d2565b50817f6bb7ff708619ba0610cba295a58592e0451dee2622938c8755667688daf3529b612b8184610766565b604051612b8e9190614947565b60405180910390a25050565b8173ffffffffffffffffffffffffffffffffffffffff168373ffffffffffffffffffffffffffffffffffffffff161415612c09576040517f08c379a0000000000000000000000000000000000000000000000000000000008152600401612c0090614c69565b60405180910390fd5b80600160008573ffffffffffffffffffffffffffffffffffffffff1673ffffffffffffffffffffffffffffffffffffffff16815260200190815260200160002060008473ffffffffffffffffffffffffffffffffffffffff1673ffffffffffffffffffffffffffffffffffffffff16815260200190815260200160002060006101000a81548160ff0219169083151502179055508173ffffffffffffffffffffffffffffffffffffffff168373ffffffffffffffffffffffffffffffffffffffff167f17307eab39ab6107e8899845ad3d59bd9653f200f220920489ca2b5937696c3183604051612cfa919061492c565b60405180910390a3505050565b600073ffffffffffffffffffffffffffffffffffffffff168473ffffffffffffffffffffffffffffffffffffffff161415612d77576040517f08c379a0000000000000000000000000000000000000000000000000000000008152600401612d6e90614b29565b60405180910390fd5b6000612d816121b7565b90506000612d8e85613508565b90506000612d9b85613508565b9050612dab838989858589613311565b600080600088815260200190815260200160002060008a73ffffffffffffffffffffffffffffffffffffffff1673ffffffffffffffffffffffffffffffffffffffff16815260200190815260200160002054905085811015612e42576040517f08c379a0000000000000000000000000000000000000000000000000000000008152600401612e3990614be9565b60405180910390fd5b85810360008089815260200190815260200160002060008b73ffffffffffffffffffffffffffffffffffffffff1673ffffffffffffffffffffffffffffffffffffffff168152602001908152602001600020819055508560008089815260200190815260200160002060008a73ffffffffffffffffffffffffffffffffffffffff1673ffffffffffffffffffffffffffffffffffffffff1681526020019081526020016000206000828254612ef79190614ebd565b925050819055508773ffffffffffffffffffffffffffffffffffffffff168973ffffffffffffffffffffffffffffffffffffffff168573ffffffffffffffffffffffffffffffffffffffff167fc3d58168c5ae7397731d063d5bbf3d657854427343f4c083240f7aacaa2d0f628a8a604051612f74929190614d24565b60405180910390a4612f8a848a8a86868a613319565b612f98848a8a8a8a8a613582565b505050505050505050565b600073ffffffffffffffffffffffffffffffffffffffff168373ffffffffffffffffffffffffffffffffffffffff161415613013576040517f08c379a000000000000000000000000000000000000000000000000000000000815260040161300a90614bc9565b60405180910390fd5b600061301d6121b7565b9050600061302a84613508565b9050600061303784613508565b905061305783876000858560405180602001604052806000815250613311565b600080600087815260200190815260200160002060008873ffffffffffffffffffffffffffffffffffffffff1673ffffffffffffffffffffffffffffffffffffffff168152602001908152602001600020549050848110156130ee576040517f08c379a00000000000000000000000000000000000000000000000000000000081526004016130e590614a29565b60405180910390fd5b84810360008088815260200190815260200160002060008973ffffffffffffffffffffffffffffffffffffffff1673ffffffffffffffffffffffffffffffffffffffff16815260200190815260200160002081905550600073ffffffffffffffffffffffffffffffffffffffff168773ffffffffffffffffffffffffffffffffffffffff168573ffffffffffffffffffffffffffffffffffffffff167fc3d58168c5ae7397731d063d5bbf3d657854427343f4c083240f7aacaa2d0f6289896040516131bb929190614d24565b60405180910390a46131e184886000868660405180602001604052806000815250613319565b50505050505050565b60006131f683836132ee565b61324f578260000182908060018154018082558091505060019003906000526020600020016000909190919091505582600001805490508360010160008481526020019081526020016000208190555060019050613254565b600090505b92915050565b60606002805461326990615007565b80601f016020809104026020016040519081016040528092919081815260200182805461329590615007565b80156132e25780601f106132b7576101008083540402835291602001916132e2565b820191906000526020600020905b8154815290600101906020018083116132c557829003601f168201915b50505050509050919050565b600080836001016000848152602001908152602001600020541415905092915050565b505050505050565b505050505050565b6133408473ffffffffffffffffffffffffffffffffffffffff1661388e565b15613500578373ffffffffffffffffffffffffffffffffffffffff1663bc197c8187878686866040518663ffffffff1660e01b8152600401613386959493929190614811565b602060405180830381600087803b1580156133a057600080fd5b505af19250505080156133d157506040513d601f19601f820116820180604052508101906133ce9190614049565b60015b613477576133dd6151cc565b806308c379a0141561343a57506133f26159f5565b806133fd575061343c565b806040517f08c379a00000000000000000000000000000000000000000000000000000000081526004016134319190614947565b60405180910390fd5b505b6040517f08c379a000000000000000000000000000000000000000000000000000000000815260040161346e90614969565b60405180910390fd5b63bc197c8160e01b7bffffffffffffffffffffffffffffffffffffffffffffffffffffffff1916817bffffffffffffffffffffffffffffffffffffffffffffffffffffffff1916146134fe576040517f08c379a00000000000000000000000000000000000000000000000000000000081526004016134f5906149a9565b60405180910390fd5b505b505050505050565b60606000600167ffffffffffffffff8111156135275761352661519d565b5b6040519080825280602002602001820160405280156135555781602001602082028036833780820191505090505b509050828160008151811061356d5761356c61516e565b5b60200260200101818152505080915050919050565b6135a18473ffffffffffffffffffffffffffffffffffffffff1661388e565b15613761578373ffffffffffffffffffffffffffffffffffffffff1663f23a6e6187878686866040518663ffffffff1660e01b81526004016135e7959493929190614879565b602060405180830381600087803b15801561360157600080fd5b505af192505050801561363257506040513d601f19601f8201168201806040525081019061362f9190614049565b60015b6136d85761363e6151cc565b806308c379a0141561369b57506136536159f5565b8061365e575061369d565b806040517f08c379a00000000000000000000000000000000000000000000000000000000081526004016136929190614947565b60405180910390fd5b505b6040517f08c379a00000000000000000000000000000000000000000000000000000000081526004016136cf90614969565b60405180910390fd5b63f23a6e6160e01b7bffffffffffffffffffffffffffffffffffffffffffffffffffffffff1916817bffffffffffffffffffffffffffffffffffffffffffffffffffffffff19161461375f576040517f08c379a0000000000000000000000000000000000000000000000000000000008152600401613756906149a9565b60405180910390fd5b505b505050505050565b6000808360010160008481526020019081526020016000205490506000811461387157600060018261379b9190614f13565b90506000600186600001805490506137b39190614f13565b90508181146138225760008660000182815481106137d4576137d361516e565b5b90600052602060002001549050808760000184815481106137f8576137f761516e565b5b90600052602060002001819055508387600101600083815260200190815260200160002081905550505b856000018054806138365761383561513f565b5b600190038181906000526020600020016000905590558560010160008681526020019081526020016000206000905560019350505050613877565b60009150505b92915050565b600081600001805490509050919050565b6000808273ffffffffffffffffffffffffffffffffffffffff163b119050919050565b50805460008255906000526020600020908101906138cf9190613958565b50565b8280546138de90615007565b90600052602060002090601f0160209004810192826139005760008555613947565b82601f1061391957805160ff1916838001178555613947565b82800160010185558215613947579182015b8281111561394657825182559160200191906001019061392b565b5b5090506139549190613975565b5090565b5b80821115613971576000816000905550600101613959565b5090565b5b8082111561398e576000816000905550600101613976565b5090565b60006139a56139a084614d72565b614d4d565b905080838252602082019050828560208602820111156139c8576139c76151f3565b5b60005b858110156139f857816139de8882613af6565b8452602084019350602083019250506001810190506139cb565b5050509392505050565b6000613a15613a1084614d9e565b614d4d565b90508083825260208201905082856020860282011115613a3857613a376151f3565b5b60005b85811015613a685781613a4e8882613c02565b845260208401935060208301925050600181019050613a3b565b5050509392505050565b6000613a85613a8084614dca565b614d4d565b905082815260208101848484011115613aa157613aa06151f8565b5b613aac848285614fc5565b509392505050565b6000613ac7613ac284614dfb565b614d4d565b905082815260208101848484011115613ae357613ae26151f8565b5b613aee848285614fc5565b509392505050565b600081359050613b0581615a8b565b92915050565b600082601f830112613b2057613b1f6151ee565b5b8135613b30848260208601613992565b91505092915050565b600082601f830112613b4e57613b4d6151ee565b5b8135613b5e848260208601613a02565b91505092915050565b600081359050613b7681615aa2565b92915050565b600081359050613b8b81615ab9565b92915050565b600081519050613ba081615ab9565b92915050565b600082601f830112613bbb57613bba6151ee565b5b8135613bcb848260208601613a72565b91505092915050565b600082601f830112613be957613be86151ee565b5b8135613bf9848260208601613ab4565b91505092915050565b600081359050613c1181615ad0565b92915050565b600060208284031215613c2d57613c2c615202565b5b6000613c3b84828501613af6565b91505092915050565b60008060408385031215613c5b57613c5a615202565b5b6000613c6985828601613af6565b9250506020613c7a85828601613af6565b9150509250929050565b600080600080600060a08688031215613ca057613c9f615202565b5b6000613cae88828901613af6565b9550506020613cbf88828901613af6565b945050604086013567ffffffffffffffff811115613ce057613cdf6151fd565b5b613cec88828901613b39565b935050606086013567ffffffffffffffff811115613d0d57613d0c6151fd565b5b613d1988828901613b39565b925050608086013567ffffffffffffffff811115613d3a57613d396151fd565b5b613d4688828901613ba6565b9150509295509295909350565b600080600080600060a08688031215613d6f57613d6e615202565b5b6000613d7d88828901613af6565b9550506020613d8e88828901613af6565b9450506040613d9f88828901613c02565b9350506060613db088828901613c02565b925050608086013567ffffffffffffffff811115613dd157613dd06151fd565b5b613ddd88828901613ba6565b9150509295509295909350565b600080600060608486031215613e0357613e02615202565b5b6000613e1186828701613af6565b935050602084013567ffffffffffffffff811115613e3257613e316151fd565b5b613e3e86828701613b39565b925050604084013567ffffffffffffffff811115613e5f57613e5e6151fd565b5b613e6b86828701613b39565b9150509250925092565b60008060408385031215613e8c57613e8b615202565b5b6000613e9a85828601613af6565b9250506020613eab85828601613b67565b9150509250929050565b60008060408385031215613ecc57613ecb615202565b5b6000613eda85828601613af6565b925050602083013567ffffffffffffffff811115613efb57613efa6151fd565b5b613f0785828601613bd4565b9150509250929050565b60008060408385031215613f2857613f27615202565b5b6000613f3685828601613af6565b9250506020613f4785828601613c02565b9150509250929050565b600080600060608486031215613f6a57613f69615202565b5b6000613f7886828701613af6565b9350506020613f8986828701613c02565b9250506040613f9a86828701613c02565b9150509250925092565b60008060408385031215613fbb57613fba615202565b5b600083013567ffffffffffffffff811115613fd957613fd86151fd565b5b613fe585828601613b0b565b925050602083013567ffffffffffffffff811115614006576140056151fd565b5b61401285828601613b39565b9150509250929050565b60006020828403121561403257614031615202565b5b600061404084828501613b7c565b91505092915050565b60006020828403121561405f5761405e615202565b5b600061406d84828501613b91565b91505092915050565b60006020828403121561408c5761408b615202565b5b600082013567ffffffffffffffff8111156140aa576140a96151fd565b5b6140b684828501613bd4565b91505092915050565b600080604083850312156140d6576140d5615202565b5b600083013567ffffffffffffffff8111156140f4576140f36151fd565b5b61410085828601613bd4565b925050602083013567ffffffffffffffff811115614121576141206151fd565b5b61412d85828601613bd4565b9150509250929050565b60006020828403121561414d5761414c615202565b5b600061415b84828501613c02565b91505092915050565b6000614170838361473f565b60208301905092915050565b61418581614f47565b82525050565b61419c61419782614f47565b6150b3565b82525050565b60006141ad82614e51565b6141b78185614e7f565b93506141c283614e2c565b8060005b838110156141f35781516141da8882614164565b97506141e583614e72565b9250506001810190506141c6565b5085935050505092915050565b61420981614f59565b82525050565b61422061421b82614f65565b6150c5565b82525050565b600061423182614e5c565b61423b8185614e90565b935061424b818560208601614fd4565b61425481615207565b840191505092915050565b600061426a82614e67565b6142748185614ea1565b9350614284818560208601614fd4565b61428d81615207565b840191505092915050565b60006142a382614e67565b6142ad8185614eb2565b93506142bd818560208601614fd4565b80840191505092915050565b600081546142d681615007565b6142e08186614eb2565b945060018216600081146142fb576001811461430c5761433f565b60ff1983168652818601935061433f565b61431585614e3c565b60005b8381101561433757815481890152600182019150602081019050614318565b838801955050505b50505092915050565b6000614355603483614ea1565b915061436082615232565b604082019050919050565b6000614378602f83614ea1565b915061438382615281565b604082019050919050565b600061439b602883614ea1565b91506143a6826152d0565b604082019050919050565b60006143be602683614ea1565b91506143c98261531f565b604082019050919050565b60006143e1601c83614ea1565b91506143ec8261536e565b602082019050919050565b6000614404602683614ea1565b915061440f82615397565b604082019050919050565b6000614427602483614ea1565b9150614432826153e6565b604082019050919050565b600061444a601b83614ea1565b915061445582615435565b602082019050919050565b600061446d602983614ea1565b91506144788261545e565b604082019050919050565b6000614490602283614ea1565b915061449b826154ad565b604082019050919050565b60006144b3602a83614ea1565b91506144be826154fc565b604082019050919050565b60006144d6601483614ea1565b91506144e18261554b565b602082019050919050565b60006144f9602d83614ea1565b915061450482615574565b604082019050919050565b600061451c602783614ea1565b9150614527826155c3565b604082019050919050565b600061453f602583614ea1565b915061454a82615612565b604082019050919050565b6000614562603283614ea1565b915061456d82615661565b604082019050919050565b6000614585601783614ea1565b9150614590826156b0565b602082019050919050565b60006145a8601583614ea1565b91506145b3826156d9565b602082019050919050565b60006145cb601683614ea1565b91506145d682615702565b602082019050919050565b60006145ee602383614ea1565b91506145f98261572b565b604082019050919050565b6000614611602a83614ea1565b915061461c8261577a565b604082019050919050565b6000614634602083614ea1565b915061463f826157c9565b602082019050919050565b6000614657602283614ea1565b9150614662826157f2565b604082019050919050565b600061467a602883614ea1565b915061468582615841565b604082019050919050565b600061469d602983614ea1565b91506146a882615890565b604082019050919050565b60006146c0602983614ea1565b91506146cb826158df565b604082019050919050565b60006146e3601b83614ea1565b91506146ee8261592e565b602082019050919050565b6000614706602883614ea1565b915061471182615957565b604082019050919050565b6000614729602183614ea1565b9150614734826159a6565b604082019050919050565b61474881614fbb565b82525050565b61475781614fbb565b82525050565b6000614769828461420f565b60208201915081905092915050565b6000614784828561420f565b602082019150614794828461418b565b6014820191508190509392505050565b60006147b08284614298565b915081905092915050565b60006147c782846142c9565b915081905092915050565b60006147de82856142c9565b91506147ea8284614298565b91508190509392505050565b600060208201905061480b600083018461417c565b92915050565b600060a082019050614826600083018861417c565b614833602083018761417c565b818103604083015261484581866141a2565b9050818103606083015261485981856141a2565b9050818103608083015261486d8184614226565b90509695505050505050565b600060a08201905061488e600083018861417c565b61489b602083018761417c565b6148a8604083018661474e565b6148b5606083018561474e565b81810360808301526148c78184614226565b90509695505050505050565b600060208201905081810360008301526148ed81846141a2565b905092915050565b6000604082019050818103600083015261490f81856141a2565b9050818103602083015261492381846141a2565b90509392505050565b60006020820190506149416000830184614200565b92915050565b60006020820190508181036000830152614961818461425f565b905092915050565b6000602082019050818103600083015261498281614348565b9050919050565b600060208201905081810360008301526149a28161436b565b9050919050565b600060208201905081810360008301526149c28161438e565b9050919050565b600060208201905081810360008301526149e2816143b1565b9050919050565b60006020820190508181036000830152614a02816143d4565b9050919050565b60006020820190508181036000830152614a22816143f7565b9050919050565b60006020820190508181036000830152614a428161441a565b9050919050565b60006020820190508181036000830152614a628161443d565b9050919050565b60006020820190508181036000830152614a8281614460565b9050919050565b60006020820190508181036000830152614aa281614483565b9050919050565b60006020820190508181036000830152614ac2816144a6565b9050919050565b60006020820190508181036000830152614ae2816144c9565b9050919050565b60006020820190508181036000830152614b02816144ec565b9050919050565b60006020820190508181036000830152614b228161450f565b9050919050565b60006020820190508181036000830152614b4281614532565b9050919050565b60006020820190508181036000830152614b6281614555565b9050919050565b60006020820190508181036000830152614b8281614578565b9050919050565b60006020820190508181036000830152614ba28161459b565b9050919050565b60006020820190508181036000830152614bc2816145be565b9050919050565b60006020820190508181036000830152614be2816145e1565b9050919050565b60006020820190508181036000830152614c0281614604565b9050919050565b60006020820190508181036000830152614c2281614627565b9050919050565b60006020820190508181036000830152614c428161464a565b9050919050565b60006020820190508181036000830152614c628161466d565b9050919050565b60006020820190508181036000830152614c8281614690565b9050919050565b60006020820190508181036000830152614ca2816146b3565b9050919050565b60006020820190508181036000830152614cc2816146d6565b9050919050565b60006020820190508181036000830152614ce2816146f9565b9050919050565b60006020820190508181036000830152614d028161471c565b9050919050565b6000602082019050614d1e600083018461474e565b92915050565b6000604082019050614d39600083018561474e565b614d46602083018461474e565b9392505050565b6000614d57614d68565b9050614d638282615039565b919050565b6000604051905090565b600067ffffffffffffffff821115614d8d57614d8c61519d565b5b602082029050602081019050919050565b600067ffffffffffffffff821115614db957614db861519d565b5b602082029050602081019050919050565b600067ffffffffffffffff821115614de557614de461519d565b5b614dee82615207565b9050602081019050919050565b600067ffffffffffffffff821115614e1657614e1561519d565b5b614e1f82615207565b9050602081019050919050565b6000819050602082019050919050565b60008190508160005260206000209050919050565b600081519050919050565b600081519050919050565b600081519050919050565b6000602082019050919050565b600082825260208201905092915050565b600082825260208201905092915050565b600082825260208201905092915050565b600081905092915050565b6000614ec882614fbb565b9150614ed383614fbb565b9250827fffffffffffffffffffffffffffffffffffffffffffffffffffffffffffffffff03821115614f0857614f076150e1565b5b828201905092915050565b6000614f1e82614fbb565b9150614f2983614fbb565b925082821015614f3c57614f3b6150e1565b5b828203905092915050565b6000614f5282614f9b565b9050919050565b60008115159050919050565b6000819050919050565b60007fffffffff0000000000000000000000000000000000000000000000000000000082169050919050565b600073ffffffffffffffffffffffffffffffffffffffff82169050919050565b6000819050919050565b82818337600083830152505050565b60005b83811015614ff2578082015181840152602081019050614fd7565b83811115615001576000848401525b50505050565b6000600282049050600182168061501f57607f821691505b6020821081141561503357615032615110565b5b50919050565b61504282615207565b810181811067ffffffffffffffff821117156150615761506061519d565b5b80604052505050565b600061507582614fbb565b91507fffffffffffffffffffffffffffffffffffffffffffffffffffffffffffffffff8214156150a8576150a76150e1565b5b600182019050919050565b60006150be826150cf565b9050919050565b6000819050919050565b60006150da82615218565b9050919050565b7f4e487b7100000000000000000000000000000000000000000000000000000000600052601160045260246000fd5b7f4e487b7100000000000000000000000000000000000000000000000000000000600052602260045260246000fd5b7f4e487b7100000000000000000000000000000000000000000000000000000000600052603160045260246000fd5b7f4e487b7100000000000000000000000000000000000000000000000000000000600052603260045260246000fd5b7f4e487b7100000000000000000000000000000000000000000000000000000000600052604160045260246000fd5b600060033d11156151eb5760046000803e6151e8600051615225565b90505b90565b600080fd5b600080fd5b600080fd5b600080fd5b600080fd5b6000601f19601f8301169050919050565b60008160601b9050919050565b60008160e01c9050919050565b7f455243313135353a207472616e7366657220746f206e6f6e204552433131353560008201527f526563656976657220696d706c656d656e746572000000000000000000000000602082015250565b7f455243313135353a2063616c6c6572206973206e6f7420746f6b656e206f776e60008201527f6572206e6f7220617070726f7665640000000000000000000000000000000000602082015250565b7f455243313135353a204552433131353552656365697665722072656a6563746560008201527f6420746f6b656e73000000000000000000000000000000000000000000000000602082015250565b7f4174206c65617374206f6e652063726564656e7469616c65722068617320746f60008201527f2065786973740000000000000000000000000000000000000000000000000000602082015250565b7f4e6f7420616e20617070726f7665642063726564656e7469616c657200000000600082015250565b7f4f776e61626c653a206e6577206f776e657220697320746865207a65726f206160008201527f6464726573730000000000000000000000000000000000000000000000000000602082015250565b7f455243313135353a206275726e20616d6f756e7420657863656564732062616c60008201527f616e636500000000000000000000000000000000000000000000000000000000602082015250565b7f43726564656e7469616c657220646f6573206e6f742065786973740000000000600082015250565b7f455243313135353a2063616c6c6572206973206e6f74206f776e6572206e6f7260008201527f20617070726f7665640000000000000000000000000000000000000000000000602082015250565b7f4e6f7420636c656172656420746f206d6f646966792063757272656e7420747960008201527f7065000000000000000000000000000000000000000000000000000000000000602082015250565b7f455243313135353a2061646472657373207a65726f206973206e6f742061207660008201527f616c6964206f776e657200000000000000000000000000000000000000000000602082015250565b7f4e6f7420616e20617070726f7665642068656164000000000000000000000000600082015250565b7f446f6e2774206861766520636c656172616e636520666f72207468697320637260008201527f6564656e7469616c207479706500000000000000000000000000000000000000602082015250565b7f43726564656e7469616c657220616c726561647920686173207468697320636c60008201527f656172616e636500000000000000000000000000000000000000000000000000602082015250565b7f455243313135353a207472616e7366657220746f20746865207a65726f20616460008201527f6472657373000000000000000000000000000000000000000000000000000000602082015250565b7f455243313135353a207472616e736665722063616c6c6572206973206e6f742060008201527f6f776e6572206e6f7220617070726f7665640000000000000000000000000000602082015250565b7f496e76616c69642063726564656e7469616c2074797065000000000000000000600082015250565b7f496e76616c69642063726564656e7469616c2049440000000000000000000000600082015250565b7f4e6f742074686520636f6e74726163742061646d696e00000000000000000000600082015250565b7f455243313135353a206275726e2066726f6d20746865207a65726f206164647260008201527f6573730000000000000000000000000000000000000000000000000000000000602082015250565b7f455243313135353a20696e73756666696369656e742062616c616e636520666f60008201527f72207472616e7366657200000000000000000000000000000000000000000000602082015250565b7f4f776e61626c653a2063616c6c6572206973206e6f7420746865206f776e6572600082015250565b7f4e65772041646d696e2068617320746f20626520612063726564656e7469616c60008201527f6572000000000000000000000000000000000000000000000000000000000000602082015250565b7f4d6178696d756d206f66203320636c656172616e63657320706572206372656460008201527f656e7469616c6572000000000000000000000000000000000000000000000000602082015250565b7f455243313135353a2073657474696e6720617070726f76616c2073746174757360008201527f20666f722073656c660000000000000000000000000000000000000000000000602082015250565b7f455243313135353a206163636f756e747320616e6420696473206c656e67746860008201527f206d69736d617463680000000000000000000000000000000000000000000000602082015250565b7f4e6f7420612076616c69642063726564656e7469616c20747970650000000000600082015250565b7f455243313135353a2069647320616e6420616d6f756e7473206c656e6774682060008201527f6d69736d61746368000000000000000000000000000000000000000000000000602082015250565b7f455243313135353a206d696e7420746f20746865207a65726f2061646472657360008201527f7300000000000000000000000000000000000000000000000000000000000000602082015250565b600060443d1015615a0557615a88565b615a0d614d68565b60043d036004823e80513d602482011167ffffffffffffffff82111715615a35575050615a88565b808201805167ffffffffffffffff811115615a535750505050615a88565b80602083010160043d038501811115615a70575050505050615a88565b615a7f82602001850186615039565b82955050505050505b90565b615a9481614f47565b8114615a9f57600080fd5b50565b615aab81614f59565b8114615ab657600080fd5b50565b615ac281614f6f565b8114615acd57600080fd5b50565b615ad981614fbb565b8114615ae457600080fd5b5056fea264697066735822122009379de06f337ff789089589b221d57558fd62e87c189a9390dbf57ba4b12ded64736f6c63430008060033",
  "immutableReferences": {},
  "source": "// SPDX-License-Identifier: UNLICENSED\r\npragma solidity ^0.8.0;\r\n\r\n// FOR ABI VERIFICATION, first flatten contract\r\n// npm run flatten\r\n\r\n// import \"hardhat/console.sol\";\r\nimport \"@openzeppelin/contracts/access/Ownable.sol\";\r\nimport \"@openzeppelin/contracts/token/ERC1155/ERC1155.sol\";\r\nimport \"@openzeppelin/contracts/token/ERC1155/extensions/ERC1155Burnable.sol\";\r\nimport \"@openzeppelin/contracts/token/ERC1155/extensions/ERC1155URIStorage.sol\";\r\n// import \"@openzeppelin/contracts/token/ERC1155/extensions/IERC1155Receiver.sol\";\r\nimport \"@openzeppelin/contracts/utils/Counters.sol\";\r\nimport \"@openzeppelin/contracts/utils/structs/EnumerableSet.sol\";\r\n\r\n// NOTE:\r\n// Should we use IERC1155MetadataURI to get URI of given ID? Conventional ERC1155 returns\r\n// the same URI with `{id}` for clients to replace manually with whatever token ID.\r\n// Akin to https://github.com/OpenZeppelin/openzeppelin-contracts/blob/master/contracts/token/ERC721/ERC721.sol#L93\r\n// `function tokenURI(uint256 tokenId)`\r\n\r\n// NOTE:\r\n// Right now, uri() returns same URI with `{id}`. When replaced, it returns JSON metadata of that ID (for token).\r\n// To get the image of that token, we need another call to the actual image after getting that JSON metadata,\r\n// since the metadata contains the image link. For Skills Wallet v1, image isn't really important. But in the future,\r\n// we may have to keep a separate mapping of hashes to either JSON metadata or images, and return both concurrently\r\n// on some function call (e.g. uri(uint256 tokenId) will return both links))\r\n\r\n// NOTE:\r\n// Solution to the uri with images and data could be by overiding the uri to give the id or hash of an ipfs\r\n\r\n// NOTE:\r\n// Static analyzer: slither contracts/SkillsWallet.sol --solc-remaps @openzeppelin=node_modules/@openzeppelin\r\n\r\n// TODO: Implement ERC1155Receiver to add custom hooks on receiving ERC1155.\r\n\r\n//TODO:\r\n// Make sure string length is bounded\r\n// URIStorage with ipfs hashes\r\n\r\n//TODO:\r\n//Testing:\r\n//1. Test New Admin Feature\r\n//2. Test New clearance Feature\r\n//3. Test New URI storage feature\r\n//4. Add Events\r\n\r\ncontract SkillsWallet is ERC1155, ERC1155Burnable, ERC1155URIStorage, Ownable {\r\n    using Counters for Counters.Counter;\r\n    using EnumerableSet for EnumerableSet.AddressSet;\r\n    using EnumerableSet for EnumerableSet.Bytes32Set;\r\n\r\n    //ERC-1155 Token Counters\r\n    Counters.Counter private _tokenIds;\r\n\r\n    uint256[] private _tokenIdArray;\r\n\r\n    //Roles\r\n    address private admin;\r\n\r\n    EnumerableSet.AddressSet private _heads;\r\n\r\n    EnumerableSet.AddressSet private _credentialers; // accounts with authority to mint credentials\r\n\r\n    //Clearance Bindings\r\n    EnumerableSet.Bytes32Set private _credentialerClearance; //Key is hash of type and address\r\n\r\n    mapping(address => bytes32[]) private _credentialerClearances;\r\n\r\n    //Type Bindings\r\n    EnumerableSet.Bytes32Set private _credentialTypes; //Typecheck if real\r\n\r\n    mapping(uint256 => string) private _credentialIdType; //The credential type for a specific credential ID\r\n\r\n    //Constructor\r\n    constructor(string memory _uri, address credentialer) ERC1155(_uri) {\r\n        _setBaseURI(_uri);\r\n        _credentialers.add(credentialer);\r\n        _heads.add(credentialer);\r\n        admin = credentialer;\r\n    }\r\n\r\n    // Events\r\n    event Create(\r\n        address indexed credentialer,\r\n        uint256 indexed credentialId,\r\n        uint256 time\r\n    );\r\n\r\n    //Event for Adding a credentialer\r\n    //Event for removing a credentialer\r\n    //Event for Adding Head\r\n    //Event for Removing Head\r\n\r\n    // Modifiers\r\n    modifier onlyAdmin() {\r\n        require((admin == _msgSender()) == true, \"Not the contract admin\");\r\n        _;\r\n    }\r\n\r\n    modifier onlyHead() {\r\n        require(_heads.contains(_msgSender()) == true, \"Not an approved head\");\r\n        _;\r\n    }\r\n\r\n    modifier onlyCredentialer() {\r\n        require(\r\n            _credentialers.contains(_msgSender()) == true,\r\n            \"Not an approved credentialer\"\r\n        );\r\n        _;\r\n    }\r\n\r\n    modifier typeValidator(string memory _type) {\r\n        require(\r\n            _credentialTypes.contains(keccak256(abi.encodePacked(_type))) ==\r\n                true,\r\n            \"Invalid credential type\"\r\n        );\r\n        _;\r\n    }\r\n    modifier onlyCleared(string memory _credentialType) {\r\n        bytes32 typeHash = keccak256(abi.encodePacked(_credentialType));\r\n        require(\r\n            _credentialTypes.contains(typeHash) == true,\r\n            \"Not a valid credential type\"\r\n        );\r\n        bytes32 clearanceHash = keccak256(\r\n            abi.encodePacked(typeHash, _msgSender())\r\n        );\r\n        require(\r\n            _credentialerClearance.contains(clearanceHash) == true,\r\n            \"Don't have clearance for this credential type\"\r\n        );\r\n        _;\r\n    }\r\n\r\n    // Override\r\n    function safeTransferFrom(\r\n        address from,\r\n        address to,\r\n        uint256 id,\r\n        uint256 amount,\r\n        bytes memory data\r\n    ) public virtual override onlyCredentialer {\r\n        require(\r\n            from == _msgSender() || isApprovedForAll(from, _msgSender()),\r\n            \"ERC1155: caller is not owner nor approved\"\r\n        );\r\n        _safeTransferFrom(from, to, id, amount, data);\r\n    }\r\n\r\n    function safeBatchTransferFrom(\r\n        address from,\r\n        address to,\r\n        uint256[] memory ids,\r\n        uint256[] memory amounts,\r\n        bytes memory data\r\n    ) public virtual override onlyCredentialer {\r\n        require(\r\n            from == _msgSender() || isApprovedForAll(from, _msgSender()),\r\n            \"ERC1155: transfer caller is not owner nor approved\"\r\n        );\r\n        _safeBatchTransferFrom(from, to, ids, amounts, data);\r\n    }\r\n\r\n    function uri(uint256 _tokenId)\r\n        public\r\n        view\r\n        override(ERC1155, ERC1155URIStorage)\r\n        returns (string memory)\r\n    {\r\n        return ERC1155URIStorage.uri(_tokenId);\r\n    }\r\n\r\n    //Admin Layer Functions\r\n\r\n    function switchAdmin(address _newAdmin) public onlyAdmin {\r\n        require(\r\n            _credentialers.contains(_newAdmin),\r\n            \"New Admin has to be a credentialer\"\r\n        );\r\n        admin = _newAdmin;\r\n    }\r\n\r\n    function addCredentialerClearance(\r\n        address _credentialer,\r\n        string memory _type\r\n    ) public onlyHead typeValidator(_type) {\r\n        require(\r\n            _credentialerClearances[_credentialer].length < 3,\r\n            \"Maximum of 3 clearances per credentialer\"\r\n        );\r\n        bytes32 typeHash = keccak256(abi.encodePacked(_type));\r\n        if (_msgSender() != admin) {\r\n            bytes32 senderClearanceHash = keccak256(\r\n                abi.encodePacked(typeHash, _msgSender())\r\n            );\r\n            require(\r\n                _credentialerClearance.contains(senderClearanceHash) == true,\r\n                \"Not cleared to modify current type\"\r\n            );\r\n        }\r\n\r\n        bytes32 clearanceHash = keccak256(\r\n            abi.encodePacked(typeHash, _credentialer)\r\n        );\r\n\r\n        require(\r\n            _credentialerClearance.contains(clearanceHash) == false,\r\n            \"Credentialer already has this clearance\"\r\n        );\r\n        _credentialerClearance.add(clearanceHash);\r\n        _credentialerClearances[_credentialer].push(typeHash);\r\n    }\r\n\r\n    function addCredentialer(address _credentialer, string memory _type)\r\n        public\r\n        onlyHead\r\n    {\r\n        // New credentialer is now authorized to call smart contract functions\r\n        addCredentialerClearance(_credentialer, _type);\r\n        _credentialers.add(_credentialer);\r\n    }\r\n\r\n    function addHead(address _head, string memory _type) public onlyAdmin {\r\n        if (_credentialers.contains(_head) == false) {\r\n            addCredentialer(_head, _type);\r\n        }\r\n        _heads.add(_head);\r\n        if (hasClearance(_head, _type) == false) {\r\n            addCredentialerClearance(_head, _type);\r\n        }\r\n    }\r\n\r\n    //Credentialer Layer\r\n\r\n    function removeHead(address _head) public onlyAdmin {\r\n        _heads.remove(_head);\r\n    }\r\n\r\n    function removeCredentialer(address _credentialer) public onlyHead {\r\n        require(\r\n            _credentialers.contains(_msgSender()) == true,\r\n            \"Credentialer does not exist\"\r\n        );\r\n        require(\r\n            _credentialers.length() - 1 > 0,\r\n            \"At least one credentialer has to exist\"\r\n        );\r\n        _credentialers.remove(_credentialer);\r\n        for (\r\n            uint256 i = 0;\r\n            i < _credentialerClearances[_credentialer].length;\r\n            i++\r\n        ) {\r\n            bytes32 typeHash = keccak256(\r\n                abi.encodePacked(_credentialerClearances[_credentialer][i])\r\n            );\r\n            bytes32 clearanceHash = keccak256(\r\n                abi.encodePacked(typeHash, _credentialer)\r\n            );\r\n            _credentialerClearance.remove(clearanceHash);\r\n        }\r\n        delete _credentialerClearances[_credentialer];\r\n        if (_heads.contains(_credentialer) == true) removeHead(_credentialer);\r\n    }\r\n\r\n    /*function removeCredentialerClearance(\r\n        address _credentialer,\r\n        string memory _type\r\n    ) public onlyHead typeValidator(_type) {\r\n        require(\r\n            _credentialerClearances[_credentialer].length - 1 > 0,\r\n            \"At least one clearance for each credentialer\"\r\n        );\r\n        bytes32 typeHash = keccak256(abi.encodePacked(_type));\r\n        if (_msgSender() != admin) {\r\n            bytes32 senderClearanceHash = keccak256(\r\n                abi.encodePacked(typeHash, _msgSender())\r\n            );\r\n            require(\r\n                _credentialerClearance.contains(senderClearanceHash) == true,\r\n                \"Not cleared to modify current type\"\r\n            );\r\n        }\r\n\r\n        bytes32 clearanceHash = keccak256(\r\n            abi.encodePacked(typeHash, _credentialer)\r\n        );\r\n\r\n        require(\r\n            _credentialerClearance.contains(clearanceHash) == true,\r\n            \"Credentialer doesn't have this clearance\"\r\n        );\r\n\r\n        _credentialerClearance.remove(clearanceHash);\r\n        uint256 index = 0;\r\n        while (_credentialerClearances[_credentialer][index] != typeHash)\r\n            index += 1;\r\n        uint256 len = _credentialerClearances[_credentialer].length;\r\n        _credentialerClearances[_credentialer][index] = _credentialerClearances[\r\n            _credentialer\r\n        ][len - 1];\r\n        delete _credentialerClearances[_credentialer][len - 1];\r\n    }*/\r\n\r\n    //Credential types\r\n\r\n    function createCredentialType(string memory _credentialType)\r\n        public\r\n        onlyAdmin\r\n    {\r\n        bytes32 typeHash = keccak256(abi.encodePacked(_credentialType)); //might have to be storage here\r\n        _credentialTypes.add(typeHash);\r\n    }\r\n\r\n    function removeCredentialType(string memory _credentialType)\r\n        public\r\n        onlyAdmin\r\n    {\r\n        bytes32 typeHash = keccak256(abi.encodePacked(_credentialType)); //might have to be storage here\r\n        _credentialTypes.remove(typeHash);\r\n    }\r\n\r\n    function createCredential(string memory _type, string memory _uri)\r\n        public\r\n        onlyHead\r\n        typeValidator(_type)\r\n        onlyCleared(_type)\r\n        returns (uint256)\r\n    {\r\n        _tokenIds.increment();\r\n        uint256 newCredId = _tokenIds.current();\r\n        _tokenIdArray.push(newCredId);\r\n        _credentialIdType[newCredId] = _type;\r\n        _setURI(newCredId, _uri);\r\n        emit Create(msg.sender, newCredId, block.timestamp);\r\n        return newCredId;\r\n    }\r\n\r\n    function issueCredential(address receiver, uint256 credId)\r\n        public\r\n        onlyCredentialer\r\n    {\r\n        require(credId <= _tokenIds.current(), \"Invalid credential ID\");\r\n\r\n        bytes32 typeHash = keccak256(\r\n            abi.encodePacked(_credentialIdType[credId])\r\n        );\r\n        require(\r\n            _credentialTypes.contains(typeHash) == true,\r\n            \"Not a valid credential type\"\r\n        );\r\n        bytes32 clearanceHash = keccak256(\r\n            abi.encodePacked(typeHash, _msgSender())\r\n        );\r\n        require(\r\n            _credentialerClearance.contains(clearanceHash) == true,\r\n            \"Don't have clearance for this credential type\"\r\n        );\r\n        _mint(receiver, credId, 1, \"\");\r\n    }\r\n\r\n    //Utility\r\n    function isCredentialer(address addr) public view returns (bool) {\r\n        return _credentialers.contains(addr);\r\n    }\r\n\r\n    function getCredentialerCount() public view returns (uint256) {\r\n        return _credentialers.length();\r\n    }\r\n\r\n    function isHead(address addr) public view returns (bool) {\r\n        return _heads.contains(addr);\r\n    }\r\n\r\n    function hasClearance(address addr, string memory _type)\r\n        public\r\n        view\r\n        returns (bool)\r\n    {\r\n        bytes32 typeHash = keccak256(abi.encodePacked(_type));\r\n        require(\r\n            _credentialTypes.contains(typeHash) == true,\r\n            \"Not a valid credential type\"\r\n        );\r\n        bytes32 clearanceHash = keccak256(abi.encodePacked(typeHash, addr));\r\n        return _credentialerClearance.contains(clearanceHash);\r\n    }\r\n\r\n    function getUserTokens(address user)\r\n        external\r\n        view\r\n        returns (uint256[] memory userTokens)\r\n    {\r\n        // Get number of credentials owned by a learner\r\n        address[] memory accountArray = new address[](_tokenIds.current());\r\n        for (uint256 i = 0; i < _tokenIds.current(); i++) {\r\n            accountArray[i] = user; // no push for memory; since we know the size, alloc & write\r\n        }\r\n        return balanceOfBatch(accountArray, _tokenIdArray);\r\n    }\r\n\r\n    function tokenId() public view returns (uint256) {\r\n        return _tokenIds.current();\r\n    }\r\n}\r\n",
  "sourcePath": "D:\\IBlock\\truffle\\contracts\\SkillsWallet.sol",
  "compiler": {
    "name": "solc",
    "version": "0.8.6+commit.11564f7e.Emscripten.clang"
  },
  "schemaVersion": "3.4.10",
  "updatedAt": "2022-10-20T23:58:33.932Z",
  "devdoc": {
    "kind": "dev",
    "methods": {
      "balanceOf(address,uint256)": {
        "details": "See {IERC1155-balanceOf}. Requirements: - `account` cannot be the zero address."
      },
      "balanceOfBatch(address[],uint256[])": {
        "details": "See {IERC1155-balanceOfBatch}. Requirements: - `accounts` and `ids` must have the same length."
      },
      "isApprovedForAll(address,address)": {
        "details": "See {IERC1155-isApprovedForAll}."
      },
      "owner()": {
        "details": "Returns the address of the current owner."
      },
      "renounceOwnership()": {
        "details": "Leaves the contract without owner. It will not be possible to call `onlyOwner` functions anymore. Can only be called by the current owner. NOTE: Renouncing ownership will leave the contract without an owner, thereby removing any functionality that is only available to the owner."
      },
      "safeBatchTransferFrom(address,address,uint256[],uint256[],bytes)": {
        "details": "See {IERC1155-safeBatchTransferFrom}."
      },
      "safeTransferFrom(address,address,uint256,uint256,bytes)": {
        "details": "See {IERC1155-safeTransferFrom}."
      },
      "setApprovalForAll(address,bool)": {
        "details": "See {IERC1155-setApprovalForAll}."
      },
      "supportsInterface(bytes4)": {
        "details": "See {IERC165-supportsInterface}."
      },
      "transferOwnership(address)": {
        "details": "Transfers ownership of the contract to a new account (`newOwner`). Can only be called by the current owner."
      }
    },
    "version": 1
  },
  "userdoc": {
    "kind": "user",
    "methods": {},
    "version": 1
  }
}