{
  "address": "0x384859d3CB50f012FFF98d17650d21728bd33D92",
  "abi": [
    {
      "inputs": [
        {
          "internalType": "string",
          "name": "uri",
          "type": "string"
        },
        {
          "internalType": "address",
          "name": "credentialer",
          "type": "address"
        }
      ],
      "stateMutability": "nonpayable",
      "type": "constructor"
    },
    {
      "anonymous": false,
      "inputs": [
        {
          "indexed": true,
          "internalType": "address",
          "name": "account",
          "type": "address"
        },
        {
          "indexed": true,
          "internalType": "address",
          "name": "operator",
          "type": "address"
        },
        {
          "indexed": false,
          "internalType": "bool",
          "name": "approved",
          "type": "bool"
        }
      ],
      "name": "ApprovalForAll",
      "type": "event"
    },
    {
      "anonymous": false,
      "inputs": [
        {
          "indexed": true,
          "internalType": "address",
          "name": "credentialer",
          "type": "address"
        },
        {
          "indexed": true,
          "internalType": "uint256",
          "name": "credentialId",
          "type": "uint256"
        },
        {
          "indexed": false,
          "internalType": "uint256",
          "name": "time",
          "type": "uint256"
        }
      ],
      "name": "Create",
      "type": "event"
    },
    {
      "anonymous": false,
      "inputs": [
        {
          "indexed": true,
          "internalType": "address",
          "name": "previousOwner",
          "type": "address"
        },
        {
          "indexed": true,
          "internalType": "address",
          "name": "newOwner",
          "type": "address"
        }
      ],
      "name": "OwnershipTransferred",
      "type": "event"
    },
    {
      "anonymous": false,
      "inputs": [
        {
          "indexed": true,
          "internalType": "address",
          "name": "operator",
          "type": "address"
        },
        {
          "indexed": true,
          "internalType": "address",
          "name": "from",
          "type": "address"
        },
        {
          "indexed": true,
          "internalType": "address",
          "name": "to",
          "type": "address"
        },
        {
          "indexed": false,
          "internalType": "uint256[]",
          "name": "ids",
          "type": "uint256[]"
        },
        {
          "indexed": false,
          "internalType": "uint256[]",
          "name": "values",
          "type": "uint256[]"
        }
      ],
      "name": "TransferBatch",
      "type": "event"
    },
    {
      "anonymous": false,
      "inputs": [
        {
          "indexed": true,
          "internalType": "address",
          "name": "operator",
          "type": "address"
        },
        {
          "indexed": true,
          "internalType": "address",
          "name": "from",
          "type": "address"
        },
        {
          "indexed": true,
          "internalType": "address",
          "name": "to",
          "type": "address"
        },
        {
          "indexed": false,
          "internalType": "uint256",
          "name": "id",
          "type": "uint256"
        },
        {
          "indexed": false,
          "internalType": "uint256",
          "name": "value",
          "type": "uint256"
        }
      ],
      "name": "TransferSingle",
      "type": "event"
    },
    {
      "anonymous": false,
      "inputs": [
        {
          "indexed": false,
          "internalType": "string",
          "name": "value",
          "type": "string"
        },
        {
          "indexed": true,
          "internalType": "uint256",
          "name": "id",
          "type": "uint256"
        }
      ],
      "name": "URI",
      "type": "event"
    },
    {
      "inputs": [
        {
          "internalType": "address",
          "name": "credentialer",
          "type": "address"
        }
      ],
      "name": "addCredentialer",
      "outputs": [],
      "stateMutability": "nonpayable",
      "type": "function"
    },
    {
      "inputs": [
        {
          "internalType": "address",
          "name": "account",
          "type": "address"
        },
        {
          "internalType": "uint256",
          "name": "id",
          "type": "uint256"
        }
      ],
      "name": "balanceOf",
      "outputs": [
        {
          "internalType": "uint256",
          "name": "",
          "type": "uint256"
        }
      ],
      "stateMutability": "view",
      "type": "function"
    },
    {
      "inputs": [
        {
          "internalType": "address[]",
          "name": "accounts",
          "type": "address[]"
        },
        {
          "internalType": "uint256[]",
          "name": "ids",
          "type": "uint256[]"
        }
      ],
      "name": "balanceOfBatch",
      "outputs": [
        {
          "internalType": "uint256[]",
          "name": "",
          "type": "uint256[]"
        }
      ],
      "stateMutability": "view",
      "type": "function"
    },
    {
      "inputs": [
        {
          "internalType": "address",
          "name": "account",
          "type": "address"
        },
        {
          "internalType": "uint256",
          "name": "id",
          "type": "uint256"
        },
        {
          "internalType": "uint256",
          "name": "value",
          "type": "uint256"
        }
      ],
      "name": "burn",
      "outputs": [],
      "stateMutability": "nonpayable",
      "type": "function"
    },
    {
      "inputs": [
        {
          "internalType": "address",
          "name": "account",
          "type": "address"
        },
        {
          "internalType": "uint256[]",
          "name": "ids",
          "type": "uint256[]"
        },
        {
          "internalType": "uint256[]",
          "name": "values",
          "type": "uint256[]"
        }
      ],
      "name": "burnBatch",
      "outputs": [],
      "stateMutability": "nonpayable",
      "type": "function"
    },
    {
      "inputs": [],
      "name": "createCredential",
      "outputs": [
        {
          "internalType": "uint256",
          "name": "",
          "type": "uint256"
        }
      ],
      "stateMutability": "nonpayable",
      "type": "function"
    },
    {
      "inputs": [],
      "name": "getCredentialerCount",
      "outputs": [
        {
          "internalType": "uint256",
          "name": "",
          "type": "uint256"
        }
      ],
      "stateMutability": "view",
      "type": "function"
    },
    {
      "inputs": [
        {
          "internalType": "address",
          "name": "user",
          "type": "address"
        }
      ],
      "name": "getUserTokens",
      "outputs": [
        {
          "internalType": "uint256[]",
          "name": "userTokens",
          "type": "uint256[]"
        }
      ],
      "stateMutability": "view",
      "type": "function"
    },
    {
      "inputs": [
        {
          "internalType": "address",
          "name": "account",
          "type": "address"
        },
        {
          "internalType": "address",
          "name": "operator",
          "type": "address"
        }
      ],
      "name": "isApprovedForAll",
      "outputs": [
        {
          "internalType": "bool",
          "name": "",
          "type": "bool"
        }
      ],
      "stateMutability": "view",
      "type": "function"
    },
    {
      "inputs": [
        {
          "internalType": "address",
          "name": "addr",
          "type": "address"
        }
      ],
      "name": "isCredentialer",
      "outputs": [
        {
          "internalType": "bool",
          "name": "",
          "type": "bool"
        }
      ],
      "stateMutability": "view",
      "type": "function"
    },
    {
      "inputs": [
        {
          "internalType": "address",
          "name": "receiver",
          "type": "address"
        },
        {
          "internalType": "uint256",
          "name": "credId",
          "type": "uint256"
        }
      ],
      "name": "issueCredential",
      "outputs": [],
      "stateMutability": "nonpayable",
      "type": "function"
    },
    {
      "inputs": [],
      "name": "owner",
      "outputs": [
        {
          "internalType": "address",
          "name": "",
          "type": "address"
        }
      ],
      "stateMutability": "view",
      "type": "function"
    },
    {
      "inputs": [
        {
          "internalType": "address",
          "name": "credentialer",
          "type": "address"
        }
      ],
      "name": "removeCredentialer",
      "outputs": [],
      "stateMutability": "nonpayable",
      "type": "function"
    },
    {
      "inputs": [],
      "name": "renounceOwnership",
      "outputs": [],
      "stateMutability": "nonpayable",
      "type": "function"
    },
    {
      "inputs": [
        {
          "internalType": "address",
          "name": "from",
          "type": "address"
        },
        {
          "internalType": "address",
          "name": "to",
          "type": "address"
        },
        {
          "internalType": "uint256[]",
          "name": "ids",
          "type": "uint256[]"
        },
        {
          "internalType": "uint256[]",
          "name": "amounts",
          "type": "uint256[]"
        },
        {
          "internalType": "bytes",
          "name": "data",
          "type": "bytes"
        }
      ],
      "name": "safeBatchTransferFrom",
      "outputs": [],
      "stateMutability": "nonpayable",
      "type": "function"
    },
    {
      "inputs": [
        {
          "internalType": "address",
          "name": "from",
          "type": "address"
        },
        {
          "internalType": "address",
          "name": "to",
          "type": "address"
        },
        {
          "internalType": "uint256",
          "name": "id",
          "type": "uint256"
        },
        {
          "internalType": "uint256",
          "name": "amount",
          "type": "uint256"
        },
        {
          "internalType": "bytes",
          "name": "data",
          "type": "bytes"
        }
      ],
      "name": "safeTransferFrom",
      "outputs": [],
      "stateMutability": "nonpayable",
      "type": "function"
    },
    {
      "inputs": [
        {
          "internalType": "address",
          "name": "operator",
          "type": "address"
        },
        {
          "internalType": "bool",
          "name": "approved",
          "type": "bool"
        }
      ],
      "name": "setApprovalForAll",
      "outputs": [],
      "stateMutability": "nonpayable",
      "type": "function"
    },
    {
      "inputs": [
        {
          "internalType": "bytes4",
          "name": "interfaceId",
          "type": "bytes4"
        }
      ],
      "name": "supportsInterface",
      "outputs": [
        {
          "internalType": "bool",
          "name": "",
          "type": "bool"
        }
      ],
      "stateMutability": "view",
      "type": "function"
    },
    {
      "inputs": [],
      "name": "tokenId",
      "outputs": [
        {
          "internalType": "uint256",
          "name": "",
          "type": "uint256"
        }
      ],
      "stateMutability": "view",
      "type": "function"
    },
    {
      "inputs": [
        {
          "internalType": "address",
          "name": "newOwner",
          "type": "address"
        }
      ],
      "name": "transferOwnership",
      "outputs": [],
      "stateMutability": "nonpayable",
      "type": "function"
    },
    {
      "inputs": [
        {
          "internalType": "uint256",
          "name": "",
          "type": "uint256"
        }
      ],
      "name": "uri",
      "outputs": [
        {
          "internalType": "string",
          "name": "",
          "type": "string"
        }
      ],
      "stateMutability": "view",
      "type": "function"
    }
  ],
  "transactionHash": "0x3b371158d68195458be0ad0d3169225b2d80312cdb84f67a83ff8fb034e7a438",
  "args": [
    "https://random_uri",
    "0xD6142AA031B333f5233762e59926a8fb189c54Fc"
  ],
  "numDeployments": 1,
  "solcInputHash": "947adf9a6ba30bac6f5688d48f60bb03",
  "bytecode": "0x60806040523480156200001157600080fd5b506040516200268438038062002684833981016040819052620000349162000210565b81620000408162000070565b506200004c3362000089565b62000067816005620000db60201b62000d191790919060201c565b5050506200034e565b8051620000859060029060208401906200014d565b5050565b600380546001600160a01b038381166001600160a01b0319831681179093556040519116919082907f8be0079c531659141344cd1fd0a4f28419497f9722a3daafe3b4186f6b6457e090600090a35050565b6000620000f2836001600160a01b038416620000fb565b90505b92915050565b60008181526001830160205260408120546200014457508154600181810184556000848152602080822090930184905584548482528286019093526040902091909155620000f5565b506000620000f5565b8280546200015b90620002fb565b90600052602060002090601f0160209004810192826200017f5760008555620001ca565b82601f106200019a57805160ff1916838001178555620001ca565b82800160010185558215620001ca579182015b82811115620001ca578251825591602001919060010190620001ad565b50620001d8929150620001dc565b5090565b5b80821115620001d85760008155600101620001dd565b80516001600160a01b03811681146200020b57600080fd5b919050565b6000806040838503121562000223578182fd5b82516001600160401b03808211156200023a578384fd5b818501915085601f8301126200024e578384fd5b81518181111562000263576200026362000338565b604051601f8201601f19908116603f011681019083821181831017156200028e576200028e62000338565b81604052828152602093508884848701011115620002aa578687fd5b8691505b82821015620002cd5784820184015181830185015290830190620002ae565b82821115620002de57868484830101525b9550620002f0915050858201620001f3565b925050509250929050565b600181811c908216806200031057607f821691505b602082108114156200033257634e487b7160e01b600052602260045260246000fd5b50919050565b634e487b7160e01b600052604160045260246000fd5b612326806200035e6000396000f3fe608060405234801561001057600080fd5b50600436106101365760003560e01c80636b20c454116100b8578063a22cb4651161007c578063a22cb4651461027e578063b033594e14610291578063e985e9c514610299578063f242432a146102d5578063f2fde38b146102e8578063f5298aca146102fb57600080fd5b80636b20c4541461022d57806371500c5e14610240578063715018a6146102535780638da5cb5b1461025b5780639b0468881461027657600080fd5b80632eb2c2d6116100ff5780632eb2c2d6146101bf578063396b233f146101d45780634875bbba146101e75780634e1273f4146101fa578063519dc8d21461021a57600080fd5b8062fdd58e1461013b57806301ffc9a7146101615780630e89341c1461018457806317d70f7c146101a457806328060c16146101ac575b600080fd5b61014e610149366004611c14565b61030e565b6040519081526020015b60405180910390f35b61017461016f366004611d3a565b6103a8565b6040519015158152602001610158565b610197610192366004611d72565b6103f8565b6040516101589190611ef3565b61014e61048c565b6101746101ba366004611a14565b61049c565b6101d26101cd366004611a60565b6104a9565b005b6101d26101e2366004611c14565b61056e565b6101d26101f5366004611a14565b610602565b61020d610208366004611c6f565b610637565b6040516101589190611eb2565b61020d610228366004611a14565b610799565b6101d261023b366004611b69565b6108b2565b6101d261024e366004611a14565b6108fa565b6101d2610a65565b6003546040516001600160a01b039091168152602001610158565b61014e610acb565b6101d261028c366004611bda565b610ad7565b61014e610ae2565b6101746102a7366004611a2e565b6001600160a01b03918216600090815260016020908152604080832093909416825291909152205460ff1690565b6101d26102e3366004611b06565b610b9c565b6101d26102f6366004611a14565b610c0b565b6101d2610309366004611c3d565b610cd6565b60006001600160a01b03831661037f5760405162461bcd60e51b815260206004820152602b60248201527f455243313135353a2062616c616e636520717565727920666f7220746865207a60448201526a65726f206164647265737360a81b60648201526084015b60405180910390fd5b506000818152602081815260408083206001600160a01b03861684529091529020545b92915050565b60006001600160e01b03198216636cdb3d1360e11b14806103d957506001600160e01b031982166303a24d0760e21b145b806103a257506301ffc9a760e01b6001600160e01b03198316146103a2565b6060600280546104079061218a565b80601f01602080910402602001604051908101604052809291908181526020018280546104339061218a565b80156104805780601f1061045557610100808354040283529160200191610480565b820191906000526020600020905b81548152906001019060200180831161046357829003601f168201915b50505050509050919050565b600061049760045490565b905090565b60006103a2600583610d2e565b6104b6335b600590610d2e565b15156001146104d75760405162461bcd60e51b8152600401610376906120ad565b6001600160a01b0385163314806104f357506104f385336102a7565b61055a5760405162461bcd60e51b815260206004820152603260248201527f455243313135353a207472616e736665722063616c6c6572206973206e6f74206044820152711bdddb995c881b9bdc88185c1c1c9bdd995960721b6064820152608401610376565b6105678585858585610d50565b5050505050565b610577336104ae565b15156001146105985760405162461bcd60e51b8152600401610376906120ad565b6004548111156105e25760405162461bcd60e51b8152602060048201526015602482015274125b9d985b1a590818dc9959195b9d1a585b081251605a1b6044820152606401610376565b6105fe8282600160405180602001604052806000815250610f08565b5050565b61060b336104ae565b151560011461062c5760405162461bcd60e51b8152600401610376906120ad565b6105fe600582610d19565b6060815183511461069c5760405162461bcd60e51b815260206004820152602960248201527f455243313135353a206163636f756e747320616e6420696473206c656e677468604482015268040dad2e6dac2e8c6d60bb1b6064820152608401610376565b6000835167ffffffffffffffff8111156106c657634e487b7160e01b600052604160045260246000fd5b6040519080825280602002602001820160405280156106ef578160200160208202803683370190505b50905060005b84518110156107915761075685828151811061072157634e487b7160e01b600052603260045260246000fd5b602002602001015185838151811061074957634e487b7160e01b600052603260045260246000fd5b602002602001015161030e565b82828151811061077657634e487b7160e01b600052603260045260246000fd5b602090810291909101015261078a816121f2565b90506106f5565b509392505050565b606060006107a660045490565b67ffffffffffffffff8111156107cc57634e487b7160e01b600052604160045260246000fd5b6040519080825280602002602001820160405280156107f5578160200160208202803683370190505b50905060005b600454811015610850578382828151811061082657634e487b7160e01b600052603260045260246000fd5b6001600160a01b039092166020928302919091019091015280610848816121f2565b9150506107fb565b506108ab8160078054806020026020016040519081016040528092919081815260200182805480156108a157602002820191906000526020600020905b81548152602001906001019080831161088d575b5050505050610637565b9392505050565b6001600160a01b0383163314806108ce57506108ce83336102a7565b6108ea5760405162461bcd60e51b815260040161037690611f92565b6108f5838383611012565b505050565b610903336104ae565b15156001146109245760405162461bcd60e51b8152600401610376906120ad565b336001600160a01b038216141561098c5760405162461bcd60e51b815260206004820152602660248201527f43726564656e7469616c6572732063616e6e6f742072656d6f7665207468656d60448201526573656c76657360d01b6064820152608401610376565b610995336104ae565b15156001146109e65760405162461bcd60e51b815260206004820152601b60248201527f43726564656e7469616c657220646f6573206e6f7420657869737400000000006044820152606401610376565b600060016109f460056111aa565b6109fe9190612173565b11610a5a5760405162461bcd60e51b815260206004820152602660248201527f4174206c65617374206f6e652063726564656e7469616c65722068617320746f60448201526508195e1a5cdd60d21b6064820152608401610376565b6105fe6005826111b4565b6003546001600160a01b03163314610abf5760405162461bcd60e51b815260206004820181905260248201527f4f776e61626c653a2063616c6c6572206973206e6f7420746865206f776e65726044820152606401610376565b610ac960006111c9565b565b600061049760056111aa565b6105fe33838361121b565b6000610aed336104ae565b1515600114610b0e5760405162461bcd60e51b8152600401610376906120ad565b610b1c600480546001019055565b6000610b2760045490565b600780546001810182556000919091527fa66cc928b5edb82af9bd49922954155ab7b0942694bea4ce44661d9a8736c68801819055604051428152909150819033907f278b0fd0170e87df8d6e9c94b47d3ff7382de693c547e6089b53f9972c5323899060200160405180910390a390505b90565b610ba5336104ae565b1515600114610bc65760405162461bcd60e51b8152600401610376906120ad565b6001600160a01b038516331480610be25750610be285336102a7565b610bfe5760405162461bcd60e51b815260040161037690611f92565b61056785858585856112fc565b6003546001600160a01b03163314610c655760405162461bcd60e51b815260206004820181905260248201527f4f776e61626c653a2063616c6c6572206973206e6f7420746865206f776e65726044820152606401610376565b6001600160a01b038116610cca5760405162461bcd60e51b815260206004820152602660248201527f4f776e61626c653a206e6577206f776e657220697320746865207a65726f206160448201526564647265737360d01b6064820152608401610376565b610cd3816111c9565b50565b6001600160a01b038316331480610cf25750610cf283336102a7565b610d0e5760405162461bcd60e51b815260040161037690611f92565b6108f5838383611419565b60006108ab836001600160a01b03841661151b565b6001600160a01b038116600090815260018301602052604081205415156108ab565b8151835114610d715760405162461bcd60e51b8152600401610376906120ef565b6001600160a01b038416610d975760405162461bcd60e51b815260040161037690611fdb565b3360005b8451811015610e9a576000858281518110610dc657634e487b7160e01b600052603260045260246000fd5b602002602001015190506000858381518110610df257634e487b7160e01b600052603260045260246000fd5b602090810291909101810151600084815280835260408082206001600160a01b038e168352909352919091205490915081811015610e425760405162461bcd60e51b815260040161037690612063565b6000838152602081815260408083206001600160a01b038e8116855292528083208585039055908b16825281208054849290610e7f90849061215b565b9250508190555050505080610e93906121f2565b9050610d9b565b50846001600160a01b0316866001600160a01b0316826001600160a01b03167f4a39dc06d4c0dbc64b70af90fd698a233a518aa5d07e595d983b8c0526c8f7fb8787604051610eea929190611ec5565b60405180910390a4610f0081878787878761156a565b505050505050565b6001600160a01b038416610f685760405162461bcd60e51b815260206004820152602160248201527f455243313135353a206d696e7420746f20746865207a65726f206164647265736044820152607360f81b6064820152608401610376565b33610f8281600087610f79886116d5565b610567886116d5565b6000848152602081815260408083206001600160a01b038916845290915281208054859290610fb290849061215b565b909155505060408051858152602081018590526001600160a01b0380881692600092918516917fc3d58168c5ae7397731d063d5bbf3d657854427343f4c083240f7aacaa2d0f62910160405180910390a46105678160008787878761172e565b6001600160a01b0383166110385760405162461bcd60e51b815260040161037690612020565b80518251146110595760405162461bcd60e51b8152600401610376906120ef565b604080516020810190915260009081905233905b835181101561114b57600084828151811061109857634e487b7160e01b600052603260045260246000fd5b6020026020010151905060008483815181106110c457634e487b7160e01b600052603260045260246000fd5b602090810291909101810151600084815280835260408082206001600160a01b038c1683529093529190912054909150818110156111145760405162461bcd60e51b815260040161037690611f4e565b6000928352602083815260408085206001600160a01b038b1686529091529092209103905580611143816121f2565b91505061106d565b5060006001600160a01b0316846001600160a01b0316826001600160a01b03167f4a39dc06d4c0dbc64b70af90fd698a233a518aa5d07e595d983b8c0526c8f7fb868660405161119c929190611ec5565b60405180910390a450505050565b60006103a2825490565b60006108ab836001600160a01b0384166117f8565b600380546001600160a01b038381166001600160a01b0319831681179093556040519116919082907f8be0079c531659141344cd1fd0a4f28419497f9722a3daafe3b4186f6b6457e090600090a35050565b816001600160a01b0316836001600160a01b0316141561128f5760405162461bcd60e51b815260206004820152602960248201527f455243313135353a2073657474696e6720617070726f76616c20737461747573604482015268103337b91039b2b63360b91b6064820152608401610376565b6001600160a01b03838116600081815260016020908152604080832094871680845294825291829020805460ff191686151590811790915591519182527f17307eab39ab6107e8899845ad3d59bd9653f200f220920489ca2b5937696c31910160405180910390a3505050565b6001600160a01b0384166113225760405162461bcd60e51b815260040161037690611fdb565b33611332818787610f79886116d5565b6000848152602081815260408083206001600160a01b038a168452909152902054838110156113735760405162461bcd60e51b815260040161037690612063565b6000858152602081815260408083206001600160a01b038b81168552925280832087850390559088168252812080548692906113b090849061215b565b909155505060408051868152602081018690526001600160a01b03808916928a821692918616917fc3d58168c5ae7397731d063d5bbf3d657854427343f4c083240f7aacaa2d0f62910160405180910390a461141082888888888861172e565b50505050505050565b6001600160a01b03831661143f5760405162461bcd60e51b815260040161037690612020565b3361146f81856000611450876116d5565b611459876116d5565b5050604080516020810190915260009052505050565b6000838152602081815260408083206001600160a01b0388168452909152902054828110156114b05760405162461bcd60e51b815260040161037690611f4e565b6000848152602081815260408083206001600160a01b03898116808652918452828520888703905582518981529384018890529092908616917fc3d58168c5ae7397731d063d5bbf3d657854427343f4c083240f7aacaa2d0f62910160405180910390a45050505050565b6000818152600183016020526040812054611562575081546001818101845560008481526020808220909301849055845484825282860190935260409020919091556103a2565b5060006103a2565b6001600160a01b0384163b15610f005760405163bc197c8160e01b81526001600160a01b0385169063bc197c81906115ae9089908990889088908890600401611e0f565b602060405180830381600087803b1580156115c857600080fd5b505af19250505080156115f8575060408051601f3d908101601f191682019092526115f591810190611d56565b60015b6116a557611604612239565b806308c379a0141561163e5750611619612250565b806116245750611640565b8060405162461bcd60e51b81526004016103769190611ef3565b505b60405162461bcd60e51b815260206004820152603460248201527f455243313135353a207472616e7366657220746f206e6f6e20455243313135356044820152732932b1b2b4bb32b91034b6b83632b6b2b73a32b960611b6064820152608401610376565b6001600160e01b0319811663bc197c8160e01b146114105760405162461bcd60e51b815260040161037690611f06565b6040805160018082528183019092526060916000919060208083019080368337019050509050828160008151811061171d57634e487b7160e01b600052603260045260246000fd5b602090810291909101015292915050565b6001600160a01b0384163b15610f005760405163f23a6e6160e01b81526001600160a01b0385169063f23a6e61906117729089908990889088908890600401611e6d565b602060405180830381600087803b15801561178c57600080fd5b505af19250505080156117bc575060408051601f3d908101601f191682019092526117b991810190611d56565b60015b6117c857611604612239565b6001600160e01b0319811663f23a6e6160e01b146114105760405162461bcd60e51b815260040161037690611f06565b6000818152600183016020526040812054801561190b57600061181c600183612173565b855490915060009061183090600190612173565b90508181146118b157600086600001828154811061185e57634e487b7160e01b600052603260045260246000fd5b906000526020600020015490508087600001848154811061188f57634e487b7160e01b600052603260045260246000fd5b6000918252602080832090910192909255918252600188019052604090208390555b85548690806118d057634e487b7160e01b600052603160045260246000fd5b6001900381819060005260206000200160009055905585600101600086815260200190815260200160002060009055600193505050506103a2565b60009150506103a2565b80356001600160a01b038116811461192c57600080fd5b919050565b600082601f830112611941578081fd5b8135602061194e82612137565b60405161195b82826121c5565b8381528281019150858301600585901b8701840188101561197a578586fd5b855b858110156119985781358452928401929084019060010161197c565b5090979650505050505050565b600082601f8301126119b5578081fd5b813567ffffffffffffffff8111156119cf576119cf612223565b6040516119e6601f8301601f1916602001826121c5565b8181528460208386010111156119fa578283fd5b816020850160208301379081016020019190915292915050565b600060208284031215611a25578081fd5b6108ab82611915565b60008060408385031215611a40578081fd5b611a4983611915565b9150611a5760208401611915565b90509250929050565b600080600080600060a08688031215611a77578081fd5b611a8086611915565b9450611a8e60208701611915565b9350604086013567ffffffffffffffff80821115611aaa578283fd5b611ab689838a01611931565b94506060880135915080821115611acb578283fd5b611ad789838a01611931565b93506080880135915080821115611aec578283fd5b50611af9888289016119a5565b9150509295509295909350565b600080600080600060a08688031215611b1d578081fd5b611b2686611915565b9450611b3460208701611915565b93506040860135925060608601359150608086013567ffffffffffffffff811115611b5d578182fd5b611af9888289016119a5565b600080600060608486031215611b7d578283fd5b611b8684611915565b9250602084013567ffffffffffffffff80821115611ba2578384fd5b611bae87838801611931565b93506040860135915080821115611bc3578283fd5b50611bd086828701611931565b9150509250925092565b60008060408385031215611bec578182fd5b611bf583611915565b915060208301358015158114611c09578182fd5b809150509250929050565b60008060408385031215611c26578182fd5b611c2f83611915565b946020939093013593505050565b600080600060608486031215611c51578283fd5b611c5a84611915565b95602085013595506040909401359392505050565b60008060408385031215611c81578182fd5b823567ffffffffffffffff80821115611c98578384fd5b818501915085601f830112611cab578384fd5b81356020611cb882612137565b604051611cc582826121c5565b8381528281019150858301600585901b870184018b1015611ce4578889fd5b8896505b84871015611d0d57611cf981611915565b835260019690960195918301918301611ce8565b5096505086013592505080821115611d23578283fd5b50611d3085828601611931565b9150509250929050565b600060208284031215611d4b578081fd5b81356108ab816122da565b600060208284031215611d67578081fd5b81516108ab816122da565b600060208284031215611d83578081fd5b5035919050565b6000815180845260208085019450808401835b83811015611db957815187529582019590820190600101611d9d565b509495945050505050565b60008151808452815b81811015611de957602081850181015186830182015201611dcd565b81811115611dfa5782602083870101525b50601f01601f19169290920160200192915050565b6001600160a01b0386811682528516602082015260a060408201819052600090611e3b90830186611d8a565b8281036060840152611e4d8186611d8a565b90508281036080840152611e618185611dc4565b98975050505050505050565b6001600160a01b03868116825285166020820152604081018490526060810183905260a060808201819052600090611ea790830184611dc4565b979650505050505050565b6020815260006108ab6020830184611d8a565b604081526000611ed86040830185611d8a565b8281036020840152611eea8185611d8a565b95945050505050565b6020815260006108ab6020830184611dc4565b60208082526028908201527f455243313135353a204552433131353552656365697665722072656a656374656040820152676420746f6b656e7360c01b606082015260800190565b60208082526024908201527f455243313135353a206275726e20616d6f756e7420657863656564732062616c604082015263616e636560e01b606082015260800190565b60208082526029908201527f455243313135353a2063616c6c6572206973206e6f74206f776e6572206e6f7260408201526808185c1c1c9bdd995960ba1b606082015260800190565b60208082526025908201527f455243313135353a207472616e7366657220746f20746865207a65726f206164604082015264647265737360d81b606082015260800190565b60208082526023908201527f455243313135353a206275726e2066726f6d20746865207a65726f206164647260408201526265737360e81b606082015260800190565b6020808252602a908201527f455243313135353a20696e73756666696369656e742062616c616e636520666f60408201526939103a3930b739b332b960b11b606082015260800190565b60208082526022908201527f4e6f7420616e20617070726f7665642063726564656e7469616c20637265617460408201526137b960f11b606082015260800190565b60208082526028908201527f455243313135353a2069647320616e6420616d6f756e7473206c656e677468206040820152670dad2e6dac2e8c6d60c31b606082015260800190565b600067ffffffffffffffff82111561215157612151612223565b5060051b60200190565b6000821982111561216e5761216e61220d565b500190565b6000828210156121855761218561220d565b500390565b600181811c9082168061219e57607f821691505b602082108114156121bf57634e487b7160e01b600052602260045260246000fd5b50919050565b601f8201601f1916810167ffffffffffffffff811182821017156121eb576121eb612223565b6040525050565b60006000198214156122065761220661220d565b5060010190565b634e487b7160e01b600052601160045260246000fd5b634e487b7160e01b600052604160045260246000fd5b600060033d1115610b9957600481823e5160e01c90565b600060443d101561225e5790565b6040516003193d81016004833e81513d67ffffffffffffffff816024840111818411171561228e57505050505090565b82850191508151818111156122a65750505050505090565b843d87010160208285010111156122c05750505050505090565b6122cf602082860101876121c5565b509095945050505050565b6001600160e01b031981168114610cd357600080fdfea26469706673582212209e605865c5e02ae5133d3a52ab6bfdbe0d97e93cbeb6187913d8270e0f32d10664736f6c63430008040033",
  "devdoc": {
    "kind": "dev",
    "methods": {
      "balanceOf(address,uint256)": {
        "details": "See {IERC1155-balanceOf}. Requirements: - `account` cannot be the zero address."
      },
      "balanceOfBatch(address[],uint256[])": {
        "details": "See {IERC1155-balanceOfBatch}. Requirements: - `accounts` and `ids` must have the same length."
      },
      "isApprovedForAll(address,address)": {
        "details": "See {IERC1155-isApprovedForAll}."
      },
      "owner()": {
        "details": "Returns the address of the current owner."
      },
      "renounceOwnership()": {
        "details": "Leaves the contract without owner. It will not be possible to call `onlyOwner` functions anymore. Can only be called by the current owner. NOTE: Renouncing ownership will leave the contract without an owner, thereby removing any functionality that is only available to the owner."
      },
      "safeBatchTransferFrom(address,address,uint256[],uint256[],bytes)": {
        "details": "See {IERC1155-safeBatchTransferFrom}."
      },
      "safeTransferFrom(address,address,uint256,uint256,bytes)": {
        "details": "See {IERC1155-safeTransferFrom}."
      },
      "setApprovalForAll(address,bool)": {
        "details": "See {IERC1155-setApprovalForAll}."
      },
      "supportsInterface(bytes4)": {
        "details": "See {IERC165-supportsInterface}."
      },
      "transferOwnership(address)": {
        "details": "Transfers ownership of the contract to a new account (`newOwner`). Can only be called by the current owner."
      },
      "uri(uint256)": {
        "details": "See {IERC1155MetadataURI-uri}. This implementation returns the same URI for *all* token types. It relies on the token type ID substitution mechanism https://eips.ethereum.org/EIPS/eip-1155#metadata[defined in the EIP]. Clients calling this function must replace the `\\{id\\}` substring with the actual token type ID."
      }
    },
    "version": 1
  },
  "userdoc": {
    "kind": "user",
    "methods": {},
    "version": 1
  },
  "storageLayout": {
    "storage": [
      {
        "astId": 130,
        "contract": "contracts/SkillsWallet.sol:SkillsWallet",
        "label": "_balances",
        "offset": 0,
        "slot": "0",
        "type": "t_mapping(t_uint256,t_mapping(t_address,t_uint256))"
      },
      {
        "astId": 136,
        "contract": "contracts/SkillsWallet.sol:SkillsWallet",
        "label": "_operatorApprovals",
        "offset": 0,
        "slot": "1",
        "type": "t_mapping(t_address,t_mapping(t_address,t_bool))"
      },
      {
        "astId": 138,
        "contract": "contracts/SkillsWallet.sol:SkillsWallet",
        "label": "_uri",
        "offset": 0,
        "slot": "2",
        "type": "t_string_storage"
      },
      {
        "astId": 7,
        "contract": "contracts/SkillsWallet.sol:SkillsWallet",
        "label": "_owner",
        "offset": 0,
        "slot": "3",
        "type": "t_address"
      },
      {
        "astId": 3916,
        "contract": "contracts/SkillsWallet.sol:SkillsWallet",
        "label": "_tokenIds",
        "offset": 0,
        "slot": "4",
        "type": "t_struct(Counter)2925_storage"
      },
      {
        "astId": 3919,
        "contract": "contracts/SkillsWallet.sol:SkillsWallet",
        "label": "_credentialers",
        "offset": 0,
        "slot": "5",
        "type": "t_struct(AddressSet)3544_storage"
      },
      {
        "astId": 3922,
        "contract": "contracts/SkillsWallet.sol:SkillsWallet",
        "label": "_tokenIdArray",
        "offset": 0,
        "slot": "7",
        "type": "t_array(t_uint256)dyn_storage"
      }
    ],
    "types": {
      "t_address": {
        "encoding": "inplace",
        "label": "address",
        "numberOfBytes": "20"
      },
      "t_array(t_bytes32)dyn_storage": {
        "base": "t_bytes32",
        "encoding": "dynamic_array",
        "label": "bytes32[]",
        "numberOfBytes": "32"
      },
      "t_array(t_uint256)dyn_storage": {
        "base": "t_uint256",
        "encoding": "dynamic_array",
        "label": "uint256[]",
        "numberOfBytes": "32"
      },
      "t_bool": {
        "encoding": "inplace",
        "label": "bool",
        "numberOfBytes": "1"
      },
      "t_bytes32": {
        "encoding": "inplace",
        "label": "bytes32",
        "numberOfBytes": "32"
      },
      "t_mapping(t_address,t_bool)": {
        "encoding": "mapping",
        "key": "t_address",
        "label": "mapping(address => bool)",
        "numberOfBytes": "32",
        "value": "t_bool"
      },
      "t_mapping(t_address,t_mapping(t_address,t_bool))": {
        "encoding": "mapping",
        "key": "t_address",
        "label": "mapping(address => mapping(address => bool))",
        "numberOfBytes": "32",
        "value": "t_mapping(t_address,t_bool)"
      },
      "t_mapping(t_address,t_uint256)": {
        "encoding": "mapping",
        "key": "t_address",
        "label": "mapping(address => uint256)",
        "numberOfBytes": "32",
        "value": "t_uint256"
      },
      "t_mapping(t_bytes32,t_uint256)": {
        "encoding": "mapping",
        "key": "t_bytes32",
        "label": "mapping(bytes32 => uint256)",
        "numberOfBytes": "32",
        "value": "t_uint256"
      },
      "t_mapping(t_uint256,t_mapping(t_address,t_uint256))": {
        "encoding": "mapping",
        "key": "t_uint256",
        "label": "mapping(uint256 => mapping(address => uint256))",
        "numberOfBytes": "32",
        "value": "t_mapping(t_address,t_uint256)"
      },
      "t_string_storage": {
        "encoding": "bytes",
        "label": "string",
        "numberOfBytes": "32"
      },
      "t_struct(AddressSet)3544_storage": {
        "encoding": "inplace",
        "label": "struct EnumerableSet.AddressSet",
        "members": [
          {
            "astId": 3543,
            "contract": "contracts/SkillsWallet.sol:SkillsWallet",
            "label": "_inner",
            "offset": 0,
            "slot": "0",
            "type": "t_struct(Set)3243_storage"
          }
        ],
        "numberOfBytes": "64"
      },
      "t_struct(Counter)2925_storage": {
        "encoding": "inplace",
        "label": "struct Counters.Counter",
        "members": [
          {
            "astId": 2924,
            "contract": "contracts/SkillsWallet.sol:SkillsWallet",
            "label": "_value",
            "offset": 0,
            "slot": "0",
            "type": "t_uint256"
          }
        ],
        "numberOfBytes": "32"
      },
      "t_struct(Set)3243_storage": {
        "encoding": "inplace",
        "label": "struct EnumerableSet.Set",
        "members": [
          {
            "astId": 3238,
            "contract": "contracts/SkillsWallet.sol:SkillsWallet",
            "label": "_values",
            "offset": 0,
            "slot": "0",
            "type": "t_array(t_bytes32)dyn_storage"
          },
          {
            "astId": 3242,
            "contract": "contracts/SkillsWallet.sol:SkillsWallet",
            "label": "_indexes",
            "offset": 0,
            "slot": "1",
            "type": "t_mapping(t_bytes32,t_uint256)"
          }
        ],
        "numberOfBytes": "64"
      },
      "t_uint256": {
        "encoding": "inplace",
        "label": "uint256",
        "numberOfBytes": "32"
      }
    }
  }
}