{
  "contractName": "Admin",
  "abi": [
    {
      "inputs": [
        {
          "internalType": "address",
          "name": "_firstAdmin",
          "type": "address"
        }
      ],
      "stateMutability": "nonpayable",
      "type": "constructor"
    },
    {
      "anonymous": false,
      "inputs": [
        {
          "indexed": true,
          "internalType": "address",
          "name": "previousOwner",
          "type": "address"
        },
        {
          "indexed": true,
          "internalType": "address",
          "name": "newOwner",
          "type": "address"
        }
      ],
      "name": "OwnershipTransferred",
      "type": "event"
    },
    {
      "inputs": [],
      "name": "isOwner",
      "outputs": [
        {
          "internalType": "bool",
          "name": "",
          "type": "bool"
        }
      ],
      "stateMutability": "view",
      "type": "function",
      "constant": true
    },
    {
      "inputs": [],
      "name": "owner",
      "outputs": [
        {
          "internalType": "address",
          "name": "",
          "type": "address"
        }
      ],
      "stateMutability": "view",
      "type": "function",
      "constant": true
    },
    {
      "inputs": [],
      "name": "renounceOwnership",
      "outputs": [],
      "stateMutability": "nonpayable",
      "type": "function"
    },
    {
      "inputs": [
        {
          "internalType": "address",
          "name": "newOwner",
          "type": "address"
        }
      ],
      "name": "transferOwnership",
      "outputs": [],
      "stateMutability": "nonpayable",
      "type": "function"
    },
    {
      "inputs": [
        {
          "internalType": "address",
          "name": "_address",
          "type": "address"
        }
      ],
      "name": "isAdmin",
      "outputs": [
        {
          "internalType": "bool",
          "name": "",
          "type": "bool"
        }
      ],
      "stateMutability": "view",
      "type": "function",
      "constant": true
    },
    {
      "inputs": [
        {
          "internalType": "address",
          "name": "_person",
          "type": "address"
        }
      ],
      "name": "isBlacklisted",
      "outputs": [
        {
          "internalType": "bool",
          "name": "",
          "type": "bool"
        }
      ],
      "stateMutability": "view",
      "type": "function",
      "constant": true
    },
    {
      "inputs": [
        {
          "internalType": "address",
          "name": "_newAdmin",
          "type": "address"
        }
      ],
      "name": "addAdmin",
      "outputs": [],
      "stateMutability": "nonpayable",
      "type": "function"
    },
    {
      "inputs": [
        {
          "internalType": "address",
          "name": "_badAdmin",
          "type": "address"
        }
      ],
      "name": "removeAdmin",
      "outputs": [],
      "stateMutability": "nonpayable",
      "type": "function"
    },
    {
      "inputs": [],
      "name": "getAdminCount",
      "outputs": [
        {
          "internalType": "uint256",
          "name": "",
          "type": "uint256"
        }
      ],
      "stateMutability": "view",
      "type": "function",
      "constant": true
    },
    {
      "inputs": [
        {
          "internalType": "address",
          "name": "_criminal",
          "type": "address"
        }
      ],
      "name": "addToBlacklist",
      "outputs": [],
      "stateMutability": "nonpayable",
      "type": "function"
    },
    {
      "inputs": [
        {
          "internalType": "address",
          "name": "_parolee",
          "type": "address"
        }
      ],
      "name": "removeFromBlacklist",
      "outputs": [],
      "stateMutability": "nonpayable",
      "type": "function"
    },
    {
      "inputs": [
        {
          "internalType": "bytes32",
          "name": "_studentId",
          "type": "bytes32"
        }
      ],
      "name": "pairStudentIdAddress",
      "outputs": [],
      "stateMutability": "nonpayable",
      "type": "function"
    },
    {
      "inputs": [
        {
          "internalType": "bytes32",
          "name": "_studentId",
          "type": "bytes32"
        }
      ],
      "name": "studentIdToAddress",
      "outputs": [
        {
          "internalType": "address[]",
          "name": "",
          "type": "address[]"
        }
      ],
      "stateMutability": "view",
      "type": "function",
      "constant": true
    },
    {
      "inputs": [
        {
          "internalType": "address",
          "name": "_address",
          "type": "address"
        }
      ],
      "name": "addressToStudentId",
      "outputs": [
        {
          "internalType": "bytes32",
          "name": "studentId",
          "type": "bytes32"
        }
      ],
      "stateMutability": "view",
      "type": "function",
      "constant": true
    }
  ],
  "bytecode": "0x60806040523480156200001157600080fd5b506040516200105b3803806200105b833981810160405281019062000037919062000227565b336000806101000a81548173ffffffffffffffffffffffffffffffffffffffff021916908373ffffffffffffffffffffffffffffffffffffffff16021790555060008054906101000a900473ffffffffffffffffffffffffffffffffffffffff1673ffffffffffffffffffffffffffffffffffffffff16600073ffffffffffffffffffffffffffffffffffffffff167f8be0079c531659141344cd1fd0a4f28419497f9722a3daafe3b4186f6b6457e060405160405180910390a360018060008373ffffffffffffffffffffffffffffffffffffffff1673ffffffffffffffffffffffffffffffffffffffff16815260200190815260200160002060006101000a81548160ff02191690831515021790555060018060003373ffffffffffffffffffffffffffffffffffffffff1673ffffffffffffffffffffffffffffffffffffffff16815260200190815260200160002060006101000a81548160ff02191690831515021790555060026000815480929190620001b59062000297565b91905055503373ffffffffffffffffffffffffffffffffffffffff168173ffffffffffffffffffffffffffffffffffffffff1614620002095760026000815480929190620002039062000297565b91905055505b5062000333565b600081519050620002218162000319565b92915050565b60006020828403121562000240576200023f62000314565b5b6000620002508482850162000210565b91505092915050565b600062000266826200026d565b9050919050565b600073ffffffffffffffffffffffffffffffffffffffff82169050919050565b6000819050919050565b6000620002a4826200028d565b91507fffffffffffffffffffffffffffffffffffffffffffffffffffffffffffffffff821415620002da57620002d9620002e5565b5b600182019050919050565b7f4e487b7100000000000000000000000000000000000000000000000000000000600052601160045260246000fd5b600080fd5b620003248162000259565b81146200033057600080fd5b50565b610d1880620003436000396000f3fe608060405234801561001057600080fd5b50600436106100ea5760003560e01c8063715018a61161008c5780638da5cb5b116100665780638da5cb5b146102335780638f32d59b14610251578063f2fde38b1461026f578063fe575a871461028b576100ea565b8063715018a6146101db57806386c34415146101e55780638b7bf3eb14610215576100ea565b806344337ea1116100c857806344337ea11461015757806346a9da7914610173578063537df3b6146101a357806370480275146101bf576100ea565b80631785f53c146100ef57806324d7806c1461010b5780632d6915a11461013b575b600080fd5b610109600480360381019061010491906109d9565b6102bb565b005b610125600480360381019061012091906109d9565b610380565b6040516101329190610b31565b60405180910390f35b61015560048036038101906101509190610a06565b6103d6565b005b610171600480360381019061016c91906109d9565b610491565b005b61018d60048036038101906101889190610a06565b610511565b60405161019a9190610b0f565b60405180910390f35b6101bd60048036038101906101b891906109d9565b6105b2565b005b6101d960048036038101906101d491906109d9565b61061f565b005b6101e36106a3565b005b6101ff60048036038101906101fa91906109d9565b610772565b60405161020c9190610b4c565b60405180910390f35b61021d6107bb565b60405161022a9190610b67565b60405180910390f35b61023b6107c5565b6040516102489190610af4565b60405180910390f35b6102596107ee565b6040516102669190610b31565b60405180910390f35b610289600480360381019061028491906109d9565b610845565b005b6102a560048036038101906102a091906109d9565b610862565b6040516102b29190610b31565b60405180910390f35b6102c432610380565b6102cd57600080fd5b6102d56107c5565b73ffffffffffffffffffffffffffffffffffffffff168173ffffffffffffffffffffffffffffffffffffffff16141561030d57600080fd5b6000600160008373ffffffffffffffffffffffffffffffffffffffff1673ffffffffffffffffffffffffffffffffffffffff16815260200190815260200160002060006101000a81548160ff0219169083151502179055506002600081548092919061037890610c0d565b919050555050565b6000600160008373ffffffffffffffffffffffffffffffffffffffff1673ffffffffffffffffffffffffffffffffffffffff16815260200190815260200160002060009054906101000a900460ff169050919050565b80600560003273ffffffffffffffffffffffffffffffffffffffff1673ffffffffffffffffffffffffffffffffffffffff1681526020019081526020016000208190555060046000828152602001908152602001600020329080600181540180825580915050600190039060005260206000200160009091909190916101000a81548173ffffffffffffffffffffffffffffffffffffffff021916908373ffffffffffffffffffffffffffffffffffffffff16021790555050565b61049a32610380565b6104a357600080fd5b6104ac81610380565b156104b657600080fd5b6001600360008373ffffffffffffffffffffffffffffffffffffffff1673ffffffffffffffffffffffffffffffffffffffff16815260200190815260200160002060006101000a81548160ff02191690831515021790555050565b6060600460008381526020019081526020016000208054806020026020016040519081016040528092919081815260200182805480156105a657602002820191906000526020600020905b8160009054906101000a900473ffffffffffffffffffffffffffffffffffffffff1673ffffffffffffffffffffffffffffffffffffffff168152602001906001019080831161055c575b50505050509050919050565b6105bb32610380565b6105c457600080fd5b6000600360008373ffffffffffffffffffffffffffffffffffffffff1673ffffffffffffffffffffffffffffffffffffffff16815260200190815260200160002060006101000a81548160ff02191690831515021790555050565b61062832610380565b61063157600080fd5b60018060008373ffffffffffffffffffffffffffffffffffffffff1673ffffffffffffffffffffffffffffffffffffffff16815260200190815260200160002060006101000a81548160ff0219169083151502179055506002600081548092919061069b90610c37565b919050555050565b6106ab6107ee565b6106b457600080fd5b600073ffffffffffffffffffffffffffffffffffffffff1660008054906101000a900473ffffffffffffffffffffffffffffffffffffffff1673ffffffffffffffffffffffffffffffffffffffff167f8be0079c531659141344cd1fd0a4f28419497f9722a3daafe3b4186f6b6457e060405160405180910390a360008060006101000a81548173ffffffffffffffffffffffffffffffffffffffff021916908373ffffffffffffffffffffffffffffffffffffffff160217905550565b6000600560008373ffffffffffffffffffffffffffffffffffffffff1673ffffffffffffffffffffffffffffffffffffffff168152602001908152602001600020549050919050565b6000600254905090565b60008060009054906101000a900473ffffffffffffffffffffffffffffffffffffffff16905090565b60008060009054906101000a900473ffffffffffffffffffffffffffffffffffffffff1673ffffffffffffffffffffffffffffffffffffffff163373ffffffffffffffffffffffffffffffffffffffff1614905090565b61084d6107ee565b61085657600080fd5b61085f816108b8565b50565b6000600360008373ffffffffffffffffffffffffffffffffffffffff1673ffffffffffffffffffffffffffffffffffffffff16815260200190815260200160002060009054906101000a900460ff169050919050565b600073ffffffffffffffffffffffffffffffffffffffff168173ffffffffffffffffffffffffffffffffffffffff1614156108f257600080fd5b8073ffffffffffffffffffffffffffffffffffffffff1660008054906101000a900473ffffffffffffffffffffffffffffffffffffffff1673ffffffffffffffffffffffffffffffffffffffff167f8be0079c531659141344cd1fd0a4f28419497f9722a3daafe3b4186f6b6457e060405160405180910390a3806000806101000a81548173ffffffffffffffffffffffffffffffffffffffff021916908373ffffffffffffffffffffffffffffffffffffffff16021790555050565b6000813590506109be81610cb4565b92915050565b6000813590506109d381610ccb565b92915050565b6000602082840312156109ef576109ee610caf565b5b60006109fd848285016109af565b91505092915050565b600060208284031215610a1c57610a1b610caf565b5b6000610a2a848285016109c4565b91505092915050565b6000610a3f8383610a4b565b60208301905092915050565b610a5481610bbb565b82525050565b610a6381610bbb565b82525050565b6000610a7482610b92565b610a7e8185610baa565b9350610a8983610b82565b8060005b83811015610aba578151610aa18882610a33565b9750610aac83610b9d565b925050600181019050610a8d565b5085935050505092915050565b610ad081610bcd565b82525050565b610adf81610bd9565b82525050565b610aee81610c03565b82525050565b6000602082019050610b096000830184610a5a565b92915050565b60006020820190508181036000830152610b298184610a69565b905092915050565b6000602082019050610b466000830184610ac7565b92915050565b6000602082019050610b616000830184610ad6565b92915050565b6000602082019050610b7c6000830184610ae5565b92915050565b6000819050602082019050919050565b600081519050919050565b6000602082019050919050565b600082825260208201905092915050565b6000610bc682610be3565b9050919050565b60008115159050919050565b6000819050919050565b600073ffffffffffffffffffffffffffffffffffffffff82169050919050565b6000819050919050565b6000610c1882610c03565b91506000821415610c2c57610c2b610c80565b5b600182039050919050565b6000610c4282610c03565b91507fffffffffffffffffffffffffffffffffffffffffffffffffffffffffffffffff821415610c7557610c74610c80565b5b600182019050919050565b7f4e487b7100000000000000000000000000000000000000000000000000000000600052601160045260246000fd5b600080fd5b610cbd81610bbb565b8114610cc857600080fd5b50565b610cd481610bd9565b8114610cdf57600080fd5b5056fea26469706673582212203caf8e8952217a22df3a9811289d4d462e48b844b00d5909bb02266f3381ee6264736f6c63430008060033",
  "immutableReferences": {},
  "source": "pragma solidity ^0.8.6;\r\n// SPDX-License-Identifier: UNLICENSED\r\n\r\n// commenting this out because already wrapped into compilation from truffle? - TODO confirm\r\nimport \"./Libraries.sol\";\r\nimport \"./Ownership.sol\";\r\n\r\n\r\ncontract Admin is Ownable{\r\n\r\n    // tracking admins and blacklisted folks\r\n    mapping(address => bool) admins;\r\n    uint256 adminCount;\r\n    mapping(address => bool) blacklist;\r\n\r\n    // tracking all student IDs and addresses\r\n    mapping (bytes32 => address[]) studentId_to_addresses; // TODO - rm this data structure and functions if unnecessary\r\n    mapping(address => bytes32) address_to_studentId;\r\n\r\n    modifier requiresAdmin {\r\n        require(isAdmin(tx.origin));\r\n        _;\r\n    }\r\n\r\n    constructor (address _firstAdmin) {\r\n        admins[_firstAdmin] = true; \r\n        admins[msg.sender] = true;\r\n        adminCount++;                           // increment admin count for the first admin\r\n        if (_firstAdmin != msg.sender){\r\n            adminCount++;                       // increment admin count if the first admin and contract owner are diff\r\n        }\r\n    }\r\n \r\n    function isAdmin(address _address) public view returns(bool) { \r\n        return admins[_address]; \r\n    }\r\n     \r\n    function isBlacklisted(address _person) public view returns(bool) {\r\n        return blacklist[_person];\r\n    }\r\n     \r\n    function addAdmin(address _newAdmin) requiresAdmin public {\r\n        admins[_newAdmin] = true;                   // Adds new admin to mapping =\r\n        adminCount++;                               // Increment adminCount\r\n    }\r\n \r\n    function removeAdmin(address _badAdmin) requiresAdmin public {\r\n        require(_badAdmin != owner());\r\n        admins[_badAdmin] = false;                   // Sets _badAdmin to false in mapping \r\n        adminCount--;                               // Decrement adminCount\r\n    }\r\n\r\n    function getAdminCount() public view returns(uint256) {\r\n        return adminCount;\r\n    }\r\n\r\n    // note that admins can not be blacklisted - j remove them as admin, and then blacklist them\r\n    function addToBlacklist(address _criminal) requiresAdmin public {\r\n        require(!isAdmin(_criminal));\r\n        blacklist[_criminal] = true;\r\n    }\r\n\r\n    function removeFromBlacklist(address _parolee) requiresAdmin public {\r\n        blacklist[_parolee] = false;\r\n    }\r\n    \r\n    function pairStudentIdAddress (bytes32 _studentId) public {\r\n        address_to_studentId[tx.origin] = _studentId;   // associate this address with this student\r\n        \r\n        // // if this student doesnn't already have an account, set tx.origin as its account\r\n        // if (studentId_to_addresses[_studentId].length == 0){\r\n        //     studentId_to_addresses[_studentId] = [tx.origin];\r\n        //     return;\r\n        // }\r\n\r\n        // // otherwise push \r\n\r\n        // Directly push tx.origin\r\n        studentId_to_addresses[_studentId].push(tx.origin);\r\n    }\r\n\r\n    function studentIdToAddress (bytes32 _studentId) public view returns (address[] memory){\r\n        return studentId_to_addresses[_studentId];\r\n    }\r\n\r\n    function addressToStudentId (address _address) public view returns (bytes32 studentId){\r\n        return address_to_studentId[_address];\r\n    }\r\n}\r\n",
  "sourcePath": "C:\\Users\\Freddy\\Desktop\\iBlock-core\\truffle\\contracts\\Admin.sol",
  "compiler": {
    "name": "solc",
    "version": "0.8.6+commit.11564f7e.Emscripten.clang"
  },
  "schemaVersion": "3.4.3",
  "updatedAt": "2022-01-02T22:54:04.293Z",
  "networkType": "ethereum",
  "devdoc": {
    "kind": "dev",
    "methods": {
      "isOwner()": {
        "returns": {
          "_0": "true if `msg.sender` is the owner of the contract."
        }
      },
      "owner()": {
        "returns": {
          "_0": "the address of the owner."
        }
      },
      "renounceOwnership()": {
        "details": "Allows the current owner to relinquish control of the contract."
      },
      "transferOwnership(address)": {
        "details": "Allows the current owner to transfer control of the contract to a newOwner.",
        "params": {
          "newOwner": "The address to transfer ownership to."
        }
      }
    },
    "version": 1
  },
  "userdoc": {
    "kind": "user",
    "methods": {
      "renounceOwnership()": {
        "notice": "Renouncing to ownership will leave the contract without an owner. It will not be possible to call the functions with the `onlyOwner` modifier anymore."
      }
    },
    "version": 1
  }
}