{
  "contractName": "ERCMerchCoin",
  "abi": [
    {
      "inputs": [
        {
          "internalType": "uint256",
          "name": "initialSupply",
          "type": "uint256"
        },
        {
          "internalType": "address",
          "name": "_adminContractAddress",
          "type": "address"
        }
      ],
      "stateMutability": "nonpayable",
      "type": "constructor"
    },
    {
      "anonymous": false,
      "inputs": [
        {
          "indexed": true,
          "internalType": "address",
          "name": "owner",
          "type": "address"
        },
        {
          "indexed": true,
          "internalType": "address",
          "name": "spender",
          "type": "address"
        },
        {
          "indexed": false,
          "internalType": "uint256",
          "name": "value",
          "type": "uint256"
        }
      ],
      "name": "Approval",
      "type": "event"
    },
    {
      "anonymous": false,
      "inputs": [
        {
          "indexed": true,
          "internalType": "address",
          "name": "from",
          "type": "address"
        },
        {
          "indexed": true,
          "internalType": "address",
          "name": "to",
          "type": "address"
        },
        {
          "indexed": false,
          "internalType": "uint256",
          "name": "value",
          "type": "uint256"
        }
      ],
      "name": "Transfer",
      "type": "event"
    },
    {
      "inputs": [
        {
          "internalType": "address",
          "name": "owner",
          "type": "address"
        },
        {
          "internalType": "address",
          "name": "spender",
          "type": "address"
        }
      ],
      "name": "allowance",
      "outputs": [
        {
          "internalType": "uint256",
          "name": "",
          "type": "uint256"
        }
      ],
      "stateMutability": "view",
      "type": "function"
    },
    {
      "inputs": [
        {
          "internalType": "address",
          "name": "account",
          "type": "address"
        }
      ],
      "name": "balanceOf",
      "outputs": [
        {
          "internalType": "uint256",
          "name": "",
          "type": "uint256"
        }
      ],
      "stateMutability": "view",
      "type": "function"
    },
    {
      "inputs": [],
      "name": "decimals",
      "outputs": [
        {
          "internalType": "uint8",
          "name": "",
          "type": "uint8"
        }
      ],
      "stateMutability": "view",
      "type": "function"
    },
    {
      "inputs": [
        {
          "internalType": "address",
          "name": "spender",
          "type": "address"
        },
        {
          "internalType": "uint256",
          "name": "subtractedValue",
          "type": "uint256"
        }
      ],
      "name": "decreaseAllowance",
      "outputs": [
        {
          "internalType": "bool",
          "name": "",
          "type": "bool"
        }
      ],
      "stateMutability": "nonpayable",
      "type": "function"
    },
    {
      "inputs": [
        {
          "internalType": "address",
          "name": "spender",
          "type": "address"
        },
        {
          "internalType": "uint256",
          "name": "addedValue",
          "type": "uint256"
        }
      ],
      "name": "increaseAllowance",
      "outputs": [
        {
          "internalType": "bool",
          "name": "",
          "type": "bool"
        }
      ],
      "stateMutability": "nonpayable",
      "type": "function"
    },
    {
      "inputs": [],
      "name": "name",
      "outputs": [
        {
          "internalType": "string",
          "name": "",
          "type": "string"
        }
      ],
      "stateMutability": "view",
      "type": "function"
    },
    {
      "inputs": [],
      "name": "symbol",
      "outputs": [
        {
          "internalType": "string",
          "name": "",
          "type": "string"
        }
      ],
      "stateMutability": "view",
      "type": "function"
    },
    {
      "inputs": [],
      "name": "totalSupply",
      "outputs": [
        {
          "internalType": "uint256",
          "name": "",
          "type": "uint256"
        }
      ],
      "stateMutability": "view",
      "type": "function"
    },
    {
      "inputs": [
        {
          "internalType": "address",
          "name": "_address",
          "type": "address"
        }
      ],
      "name": "getUserType",
      "outputs": [
        {
          "internalType": "uint8",
          "name": "",
          "type": "uint8"
        }
      ],
      "stateMutability": "view",
      "type": "function"
    },
    {
      "inputs": [
        {
          "internalType": "address",
          "name": "_address",
          "type": "address"
        },
        {
          "internalType": "enum ERCMerchCoin.Users",
          "name": "_type",
          "type": "uint8"
        }
      ],
      "name": "setUserType",
      "outputs": [],
      "stateMutability": "nonpayable",
      "type": "function"
    },
    {
      "inputs": [
        {
          "internalType": "address",
          "name": "_new_admin",
          "type": "address"
        }
      ],
      "name": "makeMerchAdmin",
      "outputs": [],
      "stateMutability": "nonpayable",
      "type": "function"
    },
    {
      "inputs": [
        {
          "internalType": "address",
          "name": "_new_prof",
          "type": "address"
        }
      ],
      "name": "makeProf",
      "outputs": [],
      "stateMutability": "nonpayable",
      "type": "function"
    },
    {
      "inputs": [
        {
          "internalType": "address",
          "name": "_new_student",
          "type": "address"
        }
      ],
      "name": "makeStudent",
      "outputs": [],
      "stateMutability": "nonpayable",
      "type": "function"
    },
    {
      "inputs": [
        {
          "internalType": "address",
          "name": "recipient",
          "type": "address"
        },
        {
          "internalType": "uint256",
          "name": "amount",
          "type": "uint256"
        }
      ],
      "name": "transfer",
      "outputs": [
        {
          "internalType": "bool",
          "name": "",
          "type": "bool"
        }
      ],
      "stateMutability": "nonpayable",
      "type": "function"
    },
    {
      "inputs": [
        {
          "internalType": "address",
          "name": "sender",
          "type": "address"
        },
        {
          "internalType": "address",
          "name": "recipient",
          "type": "address"
        },
        {
          "internalType": "uint256",
          "name": "amount",
          "type": "uint256"
        }
      ],
      "name": "transferFrom",
      "outputs": [
        {
          "internalType": "bool",
          "name": "",
          "type": "bool"
        }
      ],
      "stateMutability": "nonpayable",
      "type": "function"
    },
    {
      "inputs": [
        {
          "internalType": "address",
          "name": "spender",
          "type": "address"
        },
        {
          "internalType": "uint256",
          "name": "amount",
          "type": "uint256"
        }
      ],
      "name": "approve",
      "outputs": [
        {
          "internalType": "bool",
          "name": "",
          "type": "bool"
        }
      ],
      "stateMutability": "nonpayable",
      "type": "function"
    },
    {
      "inputs": [
        {
          "internalType": "uint256",
          "name": "_value",
          "type": "uint256"
        }
      ],
      "name": "mint",
      "outputs": [],
      "stateMutability": "nonpayable",
      "type": "function"
    },
    {
      "inputs": [
        {
          "internalType": "address",
          "name": "_recipient",
          "type": "address"
        },
        {
          "internalType": "uint256",
          "name": "_value",
          "type": "uint256"
        }
      ],
      "name": "mintFor",
      "outputs": [],
      "stateMutability": "nonpayable",
      "type": "function"
    },
    {
      "inputs": [
        {
          "internalType": "address",
          "name": "_victim",
          "type": "address"
        },
        {
          "internalType": "uint256",
          "name": "_value",
          "type": "uint256"
        }
      ],
      "name": "confiscate",
      "outputs": [],
      "stateMutability": "nonpayable",
      "type": "function"
    }
  ],
  "bytecode": "0x60806040523480156200001157600080fd5b5060405162002aa438038062002aa483398181016040528101906200003791906200044b565b6040518060400160405280600981526020017f4d65726368436f696e00000000000000000000000000000000000000000000008152506040518060400160405280600381526020017f4d434f00000000000000000000000000000000000000000000000000000000008152508160039080519060200190620000bb9291906200036d565b508060049080519060200190620000d49291906200036d565b50505062000125620000eb620001d960201b60201c565b620000fb620001e160201b60201c565b60ff16600a6200010c9190620005d2565b846200011991906200070f565b620001ea60201b60201c565b6002600560003373ffffffffffffffffffffffffffffffffffffffff1673ffffffffffffffffffffffffffffffffffffffff16815260200190815260200160002060006101000a81548160ff021916908360028111156200018b576200018a62000813565b5b021790555080600660006101000a81548173ffffffffffffffffffffffffffffffffffffffff021916908373ffffffffffffffffffffffffffffffffffffffff1602179055505050620008e0565b600033905090565b60006012905090565b600073ffffffffffffffffffffffffffffffffffffffff168273ffffffffffffffffffffffffffffffffffffffff1614156200025d576040517f08c379a00000000000000000000000000000000000000000000000000000000081526004016200025490620004ca565b60405180910390fd5b62000271600083836200036360201b60201c565b80600260008282546200028591906200051a565b92505081905550806000808473ffffffffffffffffffffffffffffffffffffffff1673ffffffffffffffffffffffffffffffffffffffff1681526020019081526020016000206000828254620002dc91906200051a565b925050819055508173ffffffffffffffffffffffffffffffffffffffff16600073ffffffffffffffffffffffffffffffffffffffff167fddf252ad1be2c89b69c2b068fc378daa952ba7f163c4a11628f55a4df523b3ef83604051620003439190620004ec565b60405180910390a36200035f600083836200036860201b60201c565b5050565b505050565b505050565b8280546200037b90620007ae565b90600052602060002090601f0160209004810192826200039f5760008555620003eb565b82601f10620003ba57805160ff1916838001178555620003eb565b82800160010185558215620003eb579182015b82811115620003ea578251825591602001919060010190620003cd565b5b509050620003fa9190620003fe565b5090565b5b8082111562000419576000816000905550600101620003ff565b5090565b6000815190506200042e81620008ac565b92915050565b6000815190506200044581620008c6565b92915050565b6000806040838503121562000465576200046462000871565b5b6000620004758582860162000434565b925050602062000488858286016200041d565b9150509250929050565b6000620004a1601f8362000509565b9150620004ae8262000883565b602082019050919050565b620004c481620007a4565b82525050565b60006020820190508181036000830152620004e58162000492565b9050919050565b6000602082019050620005036000830184620004b9565b92915050565b600082825260208201905092915050565b60006200052782620007a4565b91506200053483620007a4565b9250827fffffffffffffffffffffffffffffffffffffffffffffffffffffffffffffffff038211156200056c576200056b620007e4565b5b828201905092915050565b6000808291508390505b6001851115620005c957808604811115620005a157620005a0620007e4565b5b6001851615620005b15780820291505b8081029050620005c18562000876565b945062000581565b94509492505050565b6000620005df82620007a4565b9150620005ec83620007a4565b92506200061b7fffffffffffffffffffffffffffffffffffffffffffffffffffffffffffffffff848462000623565b905092915050565b60008262000635576001905062000708565b8162000645576000905062000708565b81600181146200065e576002811462000669576200069f565b600191505062000708565b60ff8411156200067e576200067d620007e4565b5b8360020a915084821115620006985762000697620007e4565b5b5062000708565b5060208310610133831016604e8410600b8410161715620006d95782820a905083811115620006d357620006d2620007e4565b5b62000708565b620006e8848484600162000577565b92509050818404811115620007025762000701620007e4565b5b81810290505b9392505050565b60006200071c82620007a4565b91506200072983620007a4565b9250817fffffffffffffffffffffffffffffffffffffffffffffffffffffffffffffffff0483118215151615620007655762000764620007e4565b5b828202905092915050565b60006200077d8262000784565b9050919050565b600073ffffffffffffffffffffffffffffffffffffffff82169050919050565b6000819050919050565b60006002820490506001821680620007c757607f821691505b60208210811415620007de57620007dd62000842565b5b50919050565b7f4e487b7100000000000000000000000000000000000000000000000000000000600052601160045260246000fd5b7f4e487b7100000000000000000000000000000000000000000000000000000000600052602160045260246000fd5b7f4e487b7100000000000000000000000000000000000000000000000000000000600052602260045260246000fd5b600080fd5b60008160011c9050919050565b7f45524332303a206d696e7420746f20746865207a65726f206164647265737300600082015250565b620008b78162000770565b8114620008c357600080fd5b50565b620008d181620007a4565b8114620008dd57600080fd5b50565b6121b480620008f06000396000f3fe608060405234801561001057600080fd5b50600436106101215760003560e01c806370a08231116100ad578063a457c2d711610071578063a457c2d71461031a578063a9059cbb1461034a578063da1919b31461037a578063dd62ed3e14610396578063f1659136146103c657610121565b806370a08231146102645780637c2d07d7146102945780638b3f863f146102b057806395d89b41146102e0578063a0712d68146102fe57610121565b806318160ddd116100f457806318160ddd146101ac57806323b872dd146101ca578063313ce567146101fa578063395093511461021857806347298f821461024857610121565b806306fdde031461012657806307df06ab1461014457806308a978e614610160578063095ea7b31461017c575b600080fd5b61012e6103e2565b60405161013b9190611ab5565b60405180910390f35b61015e60048036038101906101599190611769565b610474565b005b61017a60048036038101906101759190611829565b6105d6565b005b61019660048036038101906101919190611869565b610641565b6040516101a39190611a9a565b60405180910390f35b6101b46106db565b6040516101c19190611c17565b60405180910390f35b6101e460048036038101906101df91906117d6565b6106e5565b6040516101f19190611a9a565b60405180910390f35b6102026107e6565b60405161020f9190611c32565b60405180910390f35b610232600480360381019061022d9190611869565b6107ef565b60405161023f9190611a9a565b60405180910390f35b610262600480360381019061025d9190611869565b61089b565b005b61027e60048036038101906102799190611769565b610925565b60405161028b9190611c17565b60405180910390f35b6102ae60048036038101906102a99190611769565b61096d565b005b6102ca60048036038101906102c59190611769565b610a54565b6040516102d79190611c32565b60405180910390f35b6102e8610abc565b6040516102f59190611ab5565b60405180910390f35b610318600480360381019061031391906118a9565b610b4e565b005b610334600480360381019061032f9190611869565b610bde565b6040516103419190611a9a565b60405180910390f35b610364600480360381019061035f9190611869565b610cc9565b6040516103719190611a9a565b60405180910390f35b610394600480360381019061038f9190611869565b610d63565b005b6103b060048036038101906103ab9190611796565b610e27565b6040516103bd9190611c17565b60405180910390f35b6103e060048036038101906103db9190611769565b610eae565b005b6060600380546103f190611d7b565b80601f016020809104026020016040519081016040528092919081815260200182805461041d90611d7b565b801561046a5780601f1061043f5761010080835404028352916020019161046a565b820191906000526020600020905b81548152906001019060200180831161044d57829003601f168201915b5050505050905090565b6001600281111561048857610487611ddc565b5b600560003373ffffffffffffffffffffffffffffffffffffffff1673ffffffffffffffffffffffffffffffffffffffff16815260200190815260200160002060009054906101000a900460ff1660028111156104e7576104e6611ddc565b5b1480610562575060028081111561050157610500611ddc565b5b600560003373ffffffffffffffffffffffffffffffffffffffff1673ffffffffffffffffffffffffffffffffffffffff16815260200190815260200160002060009054906101000a900460ff1660028111156105605761055f611ddc565b5b145b61056b57600080fd5b6001600560008373ffffffffffffffffffffffffffffffffffffffff1673ffffffffffffffffffffffffffffffffffffffff16815260200190815260200160002060006101000a81548160ff021916908360028111156105ce576105cd611ddc565b5b021790555050565b80600560008473ffffffffffffffffffffffffffffffffffffffff1673ffffffffffffffffffffffffffffffffffffffff16815260200190815260200160002060006101000a81548160ff0219169083600281111561063857610637611ddc565b5b02179055505050565b600060028081111561065657610655611ddc565b5b600560003373ffffffffffffffffffffffffffffffffffffffff1673ffffffffffffffffffffffffffffffffffffffff16815260200190815260200160002060009054906101000a900460ff1660028111156106b5576106b4611ddc565b5b146106bf57600080fd5b6106d16106ca610f95565b8484610f9d565b6001905092915050565b6000600254905090565b60006002808111156106fa576106f9611ddc565b5b600560003373ffffffffffffffffffffffffffffffffffffffff1673ffffffffffffffffffffffffffffffffffffffff16815260200190815260200160002060009054906101000a900460ff16600281111561075957610758611ddc565b5b1461076357600080fd5b61076e848484611168565b60006107818561077c610f95565b610e27565b9050828110156107c6576040517f08c379a00000000000000000000000000000000000000000000000000000000081526004016107bd90611b57565b60405180910390fd5b6107da856107d2610f95565b858403610f9d565b60019150509392505050565b60006012905090565b60006108916107fc610f95565b84846001600061080a610f95565b73ffffffffffffffffffffffffffffffffffffffff1673ffffffffffffffffffffffffffffffffffffffff16815260200190815260200160002060008873ffffffffffffffffffffffffffffffffffffffff1673ffffffffffffffffffffffffffffffffffffffff1681526020019081526020016000205461088c9190611c69565b610f9d565b6001905092915050565b6002808111156108ae576108ad611ddc565b5b600560003373ffffffffffffffffffffffffffffffffffffffff1673ffffffffffffffffffffffffffffffffffffffff16815260200190815260200160002060009054906101000a900460ff16600281111561090d5761090c611ddc565b5b1461091757600080fd5b61092182826113e9565b5050565b60008060008373ffffffffffffffffffffffffffffffffffffffff1673ffffffffffffffffffffffffffffffffffffffff168152602001908152602001600020549050919050565b6002808111156109805761097f611ddc565b5b600560003373ffffffffffffffffffffffffffffffffffffffff1673ffffffffffffffffffffffffffffffffffffffff16815260200190815260200160002060009054906101000a900460ff1660028111156109df576109de611ddc565b5b146109e957600080fd5b6000600560008373ffffffffffffffffffffffffffffffffffffffff1673ffffffffffffffffffffffffffffffffffffffff16815260200190815260200160002060006101000a81548160ff02191690836002811115610a4c57610a4b611ddc565b5b021790555050565b6000600560008373ffffffffffffffffffffffffffffffffffffffff1673ffffffffffffffffffffffffffffffffffffffff16815260200190815260200160002060009054906101000a900460ff166002811115610ab557610ab4611ddc565b5b9050919050565b606060048054610acb90611d7b565b80601f0160208091040260200160405190810160405280929190818152602001828054610af790611d7b565b8015610b445780601f10610b1957610100808354040283529160200191610b44565b820191906000526020600020905b815481529060010190602001808311610b2757829003601f168201915b5050505050905090565b600280811115610b6157610b60611ddc565b5b600560003373ffffffffffffffffffffffffffffffffffffffff1673ffffffffffffffffffffffffffffffffffffffff16815260200190815260200160002060009054906101000a900460ff166002811115610bc057610bbf611ddc565b5b14610bca57600080fd5b610bdb610bd5610f95565b826115c0565b50565b60008060016000610bed610f95565b73ffffffffffffffffffffffffffffffffffffffff1673ffffffffffffffffffffffffffffffffffffffff16815260200190815260200160002060008573ffffffffffffffffffffffffffffffffffffffff1673ffffffffffffffffffffffffffffffffffffffff16815260200190815260200160002054905082811015610caa576040517f08c379a0000000000000000000000000000000000000000000000000000000008152600401610ca190611bd7565b60405180910390fd5b610cbe610cb5610f95565b85858403610f9d565b600191505092915050565b6000600280811115610cde57610cdd611ddc565b5b600560003373ffffffffffffffffffffffffffffffffffffffff1673ffffffffffffffffffffffffffffffffffffffff16815260200190815260200160002060009054906101000a900460ff166002811115610d3d57610d3c611ddc565b5b14610d4757600080fd5b610d59610d52610f95565b8484611168565b6001905092915050565b600280811115610d7657610d75611ddc565b5b600560003373ffffffffffffffffffffffffffffffffffffffff1673ffffffffffffffffffffffffffffffffffffffff16815260200190815260200160002060009054906101000a900460ff166002811115610dd557610dd4611ddc565b5b14610ddf57600080fd5b600073ffffffffffffffffffffffffffffffffffffffff168273ffffffffffffffffffffffffffffffffffffffff161415610e1957600080fd5b610e2382826115c0565b5050565b6000600160008473ffffffffffffffffffffffffffffffffffffffff1673ffffffffffffffffffffffffffffffffffffffff16815260200190815260200160002060008373ffffffffffffffffffffffffffffffffffffffff1673ffffffffffffffffffffffffffffffffffffffff16815260200190815260200160002054905092915050565b600280811115610ec157610ec0611ddc565b5b600560003373ffffffffffffffffffffffffffffffffffffffff1673ffffffffffffffffffffffffffffffffffffffff16815260200190815260200160002060009054906101000a900460ff166002811115610f2057610f1f611ddc565b5b14610f2a57600080fd5b6002600560008373ffffffffffffffffffffffffffffffffffffffff1673ffffffffffffffffffffffffffffffffffffffff16815260200190815260200160002060006101000a81548160ff02191690836002811115610f8d57610f8c611ddc565b5b021790555050565b600033905090565b600073ffffffffffffffffffffffffffffffffffffffff168373ffffffffffffffffffffffffffffffffffffffff16141561100d576040517f08c379a000000000000000000000000000000000000000000000000000000000815260040161100490611bb7565b60405180910390fd5b600073ffffffffffffffffffffffffffffffffffffffff168273ffffffffffffffffffffffffffffffffffffffff16141561107d576040517f08c379a000000000000000000000000000000000000000000000000000000000815260040161107490611b17565b60405180910390fd5b80600160008573ffffffffffffffffffffffffffffffffffffffff1673ffffffffffffffffffffffffffffffffffffffff16815260200190815260200160002060008473ffffffffffffffffffffffffffffffffffffffff1673ffffffffffffffffffffffffffffffffffffffff168152602001908152602001600020819055508173ffffffffffffffffffffffffffffffffffffffff168373ffffffffffffffffffffffffffffffffffffffff167f8c5be1e5ebec7d5bd14f71427d1e84f3dd0314c0f7b2291e5b200ac8c7c3b9258360405161115b9190611c17565b60405180910390a3505050565b600073ffffffffffffffffffffffffffffffffffffffff168373ffffffffffffffffffffffffffffffffffffffff1614156111d8576040517f08c379a00000000000000000000000000000000000000000000000000000000081526004016111cf90611b97565b60405180910390fd5b600073ffffffffffffffffffffffffffffffffffffffff168273ffffffffffffffffffffffffffffffffffffffff161415611248576040517f08c379a000000000000000000000000000000000000000000000000000000000815260040161123f90611ad7565b60405180910390fd5b611253838383611720565b60008060008573ffffffffffffffffffffffffffffffffffffffff1673ffffffffffffffffffffffffffffffffffffffff168152602001908152602001600020549050818110156112d9576040517f08c379a00000000000000000000000000000000000000000000000000000000081526004016112d090611b37565b60405180910390fd5b8181036000808673ffffffffffffffffffffffffffffffffffffffff1673ffffffffffffffffffffffffffffffffffffffff16815260200190815260200160002081905550816000808573ffffffffffffffffffffffffffffffffffffffff1673ffffffffffffffffffffffffffffffffffffffff168152602001908152602001600020600082825461136c9190611c69565b925050819055508273ffffffffffffffffffffffffffffffffffffffff168473ffffffffffffffffffffffffffffffffffffffff167fddf252ad1be2c89b69c2b068fc378daa952ba7f163c4a11628f55a4df523b3ef846040516113d09190611c17565b60405180910390a36113e3848484611725565b50505050565b600073ffffffffffffffffffffffffffffffffffffffff168273ffffffffffffffffffffffffffffffffffffffff161415611459576040517f08c379a000000000000000000000000000000000000000000000000000000000815260040161145090611b77565b60405180910390fd5b61146582600083611720565b60008060008473ffffffffffffffffffffffffffffffffffffffff1673ffffffffffffffffffffffffffffffffffffffff168152602001908152602001600020549050818110156114eb576040517f08c379a00000000000000000000000000000000000000000000000000000000081526004016114e290611af7565b60405180910390fd5b8181036000808573ffffffffffffffffffffffffffffffffffffffff1673ffffffffffffffffffffffffffffffffffffffff1681526020019081526020016000208190555081600260008282546115429190611cbf565b92505081905550600073ffffffffffffffffffffffffffffffffffffffff168373ffffffffffffffffffffffffffffffffffffffff167fddf252ad1be2c89b69c2b068fc378daa952ba7f163c4a11628f55a4df523b3ef846040516115a79190611c17565b60405180910390a36115bb83600084611725565b505050565b600073ffffffffffffffffffffffffffffffffffffffff168273ffffffffffffffffffffffffffffffffffffffff161415611630576040517f08c379a000000000000000000000000000000000000000000000000000000000815260040161162790611bf7565b60405180910390fd5b61163c60008383611720565b806002600082825461164e9190611c69565b92505081905550806000808473ffffffffffffffffffffffffffffffffffffffff1673ffffffffffffffffffffffffffffffffffffffff16815260200190815260200160002060008282546116a39190611c69565b925050819055508173ffffffffffffffffffffffffffffffffffffffff16600073ffffffffffffffffffffffffffffffffffffffff167fddf252ad1be2c89b69c2b068fc378daa952ba7f163c4a11628f55a4df523b3ef836040516117089190611c17565b60405180910390a361171c60008383611725565b5050565b505050565b505050565b60008135905061173981612140565b92915050565b60008135905061174e81612157565b92915050565b60008135905061176381612167565b92915050565b60006020828403121561177f5761177e611e3a565b5b600061178d8482850161172a565b91505092915050565b600080604083850312156117ad576117ac611e3a565b5b60006117bb8582860161172a565b92505060206117cc8582860161172a565b9150509250929050565b6000806000606084860312156117ef576117ee611e3a565b5b60006117fd8682870161172a565b935050602061180e8682870161172a565b925050604061181f86828701611754565b9150509250925092565b600080604083850312156118405761183f611e3a565b5b600061184e8582860161172a565b925050602061185f8582860161173f565b9150509250929050565b600080604083850312156118805761187f611e3a565b5b600061188e8582860161172a565b925050602061189f85828601611754565b9150509250929050565b6000602082840312156118bf576118be611e3a565b5b60006118cd84828501611754565b91505092915050565b6118df81611d05565b82525050565b60006118f082611c4d565b6118fa8185611c58565b935061190a818560208601611d48565b61191381611e3f565b840191505092915050565b600061192b602383611c58565b915061193682611e50565b604082019050919050565b600061194e602283611c58565b915061195982611e9f565b604082019050919050565b6000611971602283611c58565b915061197c82611eee565b604082019050919050565b6000611994602683611c58565b915061199f82611f3d565b604082019050919050565b60006119b7602883611c58565b91506119c282611f8c565b604082019050919050565b60006119da602183611c58565b91506119e582611fdb565b604082019050919050565b60006119fd602583611c58565b9150611a088261202a565b604082019050919050565b6000611a20602483611c58565b9150611a2b82612079565b604082019050919050565b6000611a43602583611c58565b9150611a4e826120c8565b604082019050919050565b6000611a66601f83611c58565b9150611a7182612117565b602082019050919050565b611a8581611d31565b82525050565b611a9481611d3b565b82525050565b6000602082019050611aaf60008301846118d6565b92915050565b60006020820190508181036000830152611acf81846118e5565b905092915050565b60006020820190508181036000830152611af08161191e565b9050919050565b60006020820190508181036000830152611b1081611941565b9050919050565b60006020820190508181036000830152611b3081611964565b9050919050565b60006020820190508181036000830152611b5081611987565b9050919050565b60006020820190508181036000830152611b70816119aa565b9050919050565b60006020820190508181036000830152611b90816119cd565b9050919050565b60006020820190508181036000830152611bb0816119f0565b9050919050565b60006020820190508181036000830152611bd081611a13565b9050919050565b60006020820190508181036000830152611bf081611a36565b9050919050565b60006020820190508181036000830152611c1081611a59565b9050919050565b6000602082019050611c2c6000830184611a7c565b92915050565b6000602082019050611c476000830184611a8b565b92915050565b600081519050919050565b600082825260208201905092915050565b6000611c7482611d31565b9150611c7f83611d31565b9250827fffffffffffffffffffffffffffffffffffffffffffffffffffffffffffffffff03821115611cb457611cb3611dad565b5b828201905092915050565b6000611cca82611d31565b9150611cd583611d31565b925082821015611ce857611ce7611dad565b5b828203905092915050565b6000611cfe82611d11565b9050919050565b60008115159050919050565b600073ffffffffffffffffffffffffffffffffffffffff82169050919050565b6000819050919050565b600060ff82169050919050565b60005b83811015611d66578082015181840152602081019050611d4b565b83811115611d75576000848401525b50505050565b60006002820490506001821680611d9357607f821691505b60208210811415611da757611da6611e0b565b5b50919050565b7f4e487b7100000000000000000000000000000000000000000000000000000000600052601160045260246000fd5b7f4e487b7100000000000000000000000000000000000000000000000000000000600052602160045260246000fd5b7f4e487b7100000000000000000000000000000000000000000000000000000000600052602260045260246000fd5b600080fd5b6000601f19601f8301169050919050565b7f45524332303a207472616e7366657220746f20746865207a65726f206164647260008201527f6573730000000000000000000000000000000000000000000000000000000000602082015250565b7f45524332303a206275726e20616d6f756e7420657863656564732062616c616e60008201527f6365000000000000000000000000000000000000000000000000000000000000602082015250565b7f45524332303a20617070726f766520746f20746865207a65726f20616464726560008201527f7373000000000000000000000000000000000000000000000000000000000000602082015250565b7f45524332303a207472616e7366657220616d6f756e742065786365656473206260008201527f616c616e63650000000000000000000000000000000000000000000000000000602082015250565b7f45524332303a207472616e7366657220616d6f756e742065786365656473206160008201527f6c6c6f77616e6365000000000000000000000000000000000000000000000000602082015250565b7f45524332303a206275726e2066726f6d20746865207a65726f2061646472657360008201527f7300000000000000000000000000000000000000000000000000000000000000602082015250565b7f45524332303a207472616e736665722066726f6d20746865207a65726f20616460008201527f6472657373000000000000000000000000000000000000000000000000000000602082015250565b7f45524332303a20617070726f76652066726f6d20746865207a65726f2061646460008201527f7265737300000000000000000000000000000000000000000000000000000000602082015250565b7f45524332303a2064656372656173656420616c6c6f77616e63652062656c6f7760008201527f207a65726f000000000000000000000000000000000000000000000000000000602082015250565b7f45524332303a206d696e7420746f20746865207a65726f206164647265737300600082015250565b61214981611cf3565b811461215457600080fd5b50565b6003811061216457600080fd5b50565b61217081611d31565b811461217b57600080fd5b5056fea2646970667358221220520b97d61bc4f80789ba0d1950d598b2c25c014b7c3ce3749d5795e541a5b2dc64736f6c63430008060033",
  "immutableReferences": {},
  "source": "// SPDX-License-Identifier: MIT\r\npragma solidity ^0.8.6;\r\n\r\nimport \"./Libraries.sol\";\r\nimport \"./Ownership.sol\";\r\nimport \"@openzeppelin/contracts/utils/Context.sol\";\r\nimport \"@openzeppelin/contracts/token/ERC20/ERC20.sol\";\r\n\r\n/**\r\n * @title ERCMerchCoin\r\n * @dev ERC20 Rendition of MerchCoin\r\n * TODO Make Untransferable from party to party\r\n */\r\n\r\n contract ERCMerchCoin is Context, ERC20 {\r\n\r\n    //Binding to Admin check functions\r\n    using Accessibility for address;\r\n    using UtilFunctions for string;\r\n    //User Groups and Setters\r\n    enum Users {student, prof, merchAdmin}          // order matters, bc 0 is default in mapping (student)\r\n    mapping (address => Users) userType;\r\n    address adminContractAddress;\r\n\r\n    function getUserType(address _address) public view returns (uint8){\r\n        return uint8(userType[_address]);\r\n    }\r\n\r\n    function setUserType(address _address, Users _type) public { //onlyMerchAdmin - TODO add back\r\n        userType[_address] = _type;\r\n    }\r\n\r\n    modifier onlyMerchAdmin () {\r\n        require(userType[msg.sender]==Users.merchAdmin);\r\n        _;\r\n    }\r\n\r\n    modifier onlyProf () {\r\n        require(userType[msg.sender]==Users.prof);\r\n        _;\r\n    }\r\n    \r\n    modifier onlyStudent () {\r\n        require(userType[msg.sender]==Users.student);\r\n        _;\r\n    }\r\n\r\n    modifier nonStudent () {\r\n        require ((userType[msg.sender]==Users.prof) || (userType[msg.sender]==Users.merchAdmin));\r\n        _;\r\n    }\r\n\r\n    function makeMerchAdmin (address _new_admin) public onlyMerchAdmin {\r\n        userType[_new_admin] = Users.merchAdmin;\r\n    }\r\n\r\n    function makeProf (address _new_prof) public nonStudent {\r\n        userType[_new_prof] = Users.prof;\r\n    }\r\n\r\n    function makeStudent (address _new_student) public onlyMerchAdmin {\r\n        userType[_new_student] = Users.student;\r\n    }\r\n\r\n    /**\r\n     * @dev Constructor that gives _msgSender() all of existing tokens.\r\n     */\r\n    constructor (uint256 initialSupply,address _adminContractAddress) public ERC20(\"MerchCoin\", \"MCO\") {\r\n        _mint(_msgSender(), initialSupply * (10 ** uint256(decimals())));\r\n        userType[msg.sender] = Users.merchAdmin;\r\n        adminContractAddress = _adminContractAddress;\r\n    }\r\n\r\n     /**\r\n     * @dev See {IERC20-transfer}.\r\n     *\r\n     * Requirements:\r\n     *\r\n     * - `recipient` cannot be the zero address.\r\n     * - the caller must have a balance of at least `amount`.\r\n     */\r\n\r\n    function transfer(address recipient, uint256 amount) public override onlyMerchAdmin returns (bool) {\r\n        _transfer(_msgSender(), recipient, amount);\r\n        return true;\r\n    }\r\n\r\n    /**\r\n     * @dev See {IERC20-transferFrom}.\r\n     *\r\n     * Emits an {Approval} event indicating the updated allowance. This is not\r\n     * required by the EIP. See the note at the beginning of {ERC20}.\r\n     *\r\n     * Requirements:\r\n     *\r\n     * - `sender` and `recipient` cannot be the zero address.\r\n     * - `sender` must have a balance of at least `amount`.\r\n     * - the caller must have allowance for ``sender``'s tokens of at least\r\n     * `amount`.\r\n     */\r\n\r\n    function transferFrom(\r\n        address sender,\r\n        address recipient,\r\n        uint256 amount\r\n    ) onlyMerchAdmin public override  returns (bool) {\r\n        _transfer(sender, recipient, amount);\r\n\r\n        uint256 currentAllowance = allowance(sender,_msgSender());\r\n        require(currentAllowance >= amount, \"ERC20: transfer amount exceeds allowance\");\r\n        unchecked {\r\n            _approve(sender, _msgSender(), currentAllowance - amount);\r\n        }\r\n\r\n        return true;\r\n    }\r\n\r\n    /**\r\n     * @dev See {IERC20-approve}.\r\n     *\r\n     * Requirements:\r\n     *\r\n     * - `spender` cannot be the zero address.\r\n     */\r\n    function approve(address spender, uint256 amount) onlyMerchAdmin public override  returns (bool) {\r\n        _approve(_msgSender(), spender, amount);\r\n        return true;\r\n    }\r\n    \r\n    /**\r\n     * Mint new tokens for self\r\n     *\r\n     * Create '_value' new tokens for msg.sender\r\n     * \r\n     * msg.sender must be an admin\r\n     * @param _value the amount to mint   \r\n     */\r\n    function mint(uint256 _value) onlyMerchAdmin public{\r\n        _mint(_msgSender(), _value);\r\n\r\n    }\r\n\r\n    /**\r\n     * Mint new tokens for someone else\r\n     *\r\n     * Create '_value' new tokens for '_recipient'\r\n     * \r\n     * msg.sender must be an admin\r\n     * @param _value the amount to mint \r\n     * @param _recipient the address to receive new coins  \r\n     */\r\n     function mintFor (address _recipient, uint256 _value) onlyMerchAdmin public{\r\n        require(_recipient != address(0x0));    // make sure 0x0 address doesn't get new coins\r\n        _mint(_recipient,_value);        // give fresh coins to a specific account\r\n    }\r\n\r\n    /**\r\n     * Allow admins to confiscate any number of tokens from any non-admin\r\n     * @param _victim denotes address to lose the token; must not be admin\r\n     * @param _value amount to be confiscated\r\n     * msg.sender must be admin \r\n     * tokens will just be burnt\r\n     */\r\n    function confiscate(address _victim, uint256 _value) onlyMerchAdmin public {\r\n        _burn(_victim,_value);               // remove that many coins from victim\r\n    }\r\n}",
  "sourcePath": "C:\\Users\\Freddy\\Desktop\\iBlock-core\\truffle\\contracts\\MerchCoin.sol",
  "compiler": {
    "name": "solc",
    "version": "0.8.6+commit.11564f7e.Emscripten.clang"
  },
  "schemaVersion": "3.4.3",
  "updatedAt": "2022-01-02T22:52:41.080Z",
  "devdoc": {
    "details": "ERC20 Rendition of MerchCoin TODO Make Untransferable from party to party",
    "kind": "dev",
    "methods": {
      "allowance(address,address)": {
        "details": "See {IERC20-allowance}."
      },
      "approve(address,uint256)": {
        "details": "See {IERC20-approve}. Requirements: - `spender` cannot be the zero address."
      },
      "balanceOf(address)": {
        "details": "See {IERC20-balanceOf}."
      },
      "confiscate(address,uint256)": {
        "params": {
          "_value": "amount to be confiscated msg.sender must be admin  tokens will just be burnt",
          "_victim": "denotes address to lose the token; must not be admin"
        }
      },
      "constructor": {
        "details": "Constructor that gives _msgSender() all of existing tokens."
      },
      "decimals()": {
        "details": "Returns the number of decimals used to get its user representation. For example, if `decimals` equals `2`, a balance of `505` tokens should be displayed to a user as `5.05` (`505 / 10 ** 2`). Tokens usually opt for a value of 18, imitating the relationship between Ether and Wei. This is the value {ERC20} uses, unless this function is overridden; NOTE: This information is only used for _display_ purposes: it in no way affects any of the arithmetic of the contract, including {IERC20-balanceOf} and {IERC20-transfer}."
      },
      "decreaseAllowance(address,uint256)": {
        "details": "Atomically decreases the allowance granted to `spender` by the caller. This is an alternative to {approve} that can be used as a mitigation for problems described in {IERC20-approve}. Emits an {Approval} event indicating the updated allowance. Requirements: - `spender` cannot be the zero address. - `spender` must have allowance for the caller of at least `subtractedValue`."
      },
      "increaseAllowance(address,uint256)": {
        "details": "Atomically increases the allowance granted to `spender` by the caller. This is an alternative to {approve} that can be used as a mitigation for problems described in {IERC20-approve}. Emits an {Approval} event indicating the updated allowance. Requirements: - `spender` cannot be the zero address."
      },
      "mint(uint256)": {
        "params": {
          "_value": "the amount to mint   "
        }
      },
      "mintFor(address,uint256)": {
        "params": {
          "_recipient": "the address to receive new coins  ",
          "_value": "the amount to mint "
        }
      },
      "name()": {
        "details": "Returns the name of the token."
      },
      "symbol()": {
        "details": "Returns the symbol of the token, usually a shorter version of the name."
      },
      "totalSupply()": {
        "details": "See {IERC20-totalSupply}."
      },
      "transfer(address,uint256)": {
        "details": "See {IERC20-transfer}. Requirements: - `recipient` cannot be the zero address. - the caller must have a balance of at least `amount`."
      },
      "transferFrom(address,address,uint256)": {
        "details": "See {IERC20-transferFrom}. Emits an {Approval} event indicating the updated allowance. This is not required by the EIP. See the note at the beginning of {ERC20}. Requirements: - `sender` and `recipient` cannot be the zero address. - `sender` must have a balance of at least `amount`. - the caller must have allowance for ``sender``'s tokens of at least `amount`."
      }
    },
    "title": "ERCMerchCoin",
    "version": 1
  },
  "userdoc": {
    "kind": "user",
    "methods": {
      "confiscate(address,uint256)": {
        "notice": "Allow admins to confiscate any number of tokens from any non-admin"
      },
      "mint(uint256)": {
        "notice": "Mint new tokens for self Create '_value' new tokens for msg.sender  msg.sender must be an admin"
      },
      "mintFor(address,uint256)": {
        "notice": "Mint new tokens for someone else Create '_value' new tokens for '_recipient'  msg.sender must be an admin"
      }
    },
    "version": 1
  }
}