{
  "contractName": "Marketplace",
  "abi": [
    {
      "inputs": [
        {
          "internalType": "address",
          "name": "_merchCoinAddress",
          "type": "address"
        },
        {
          "internalType": "address",
          "name": "_adminContract",
          "type": "address"
        },
        {
          "internalType": "address",
          "name": "_DLab",
          "type": "address"
        }
      ],
      "stateMutability": "nonpayable",
      "type": "constructor"
    },
    {
      "anonymous": false,
      "inputs": [
        {
          "indexed": false,
          "internalType": "uint256",
          "name": "item_id",
          "type": "uint256"
        },
        {
          "indexed": false,
          "internalType": "uint256",
          "name": "inventory_level",
          "type": "uint256"
        },
        {
          "indexed": false,
          "internalType": "uint8",
          "name": "location",
          "type": "uint8"
        },
        {
          "indexed": false,
          "internalType": "uint256",
          "name": "reorder_amount",
          "type": "uint256"
        }
      ],
      "name": "LowInventory",
      "type": "event"
    },
    {
      "anonymous": false,
      "inputs": [
        {
          "indexed": true,
          "internalType": "address",
          "name": "previousOwner",
          "type": "address"
        },
        {
          "indexed": true,
          "internalType": "address",
          "name": "newOwner",
          "type": "address"
        }
      ],
      "name": "OwnershipTransferred",
      "type": "event"
    },
    {
      "anonymous": false,
      "inputs": [
        {
          "components": [
            {
              "internalType": "uint256",
              "name": "tokens_paid",
              "type": "uint256"
            },
            {
              "internalType": "address",
              "name": "student_chain_address",
              "type": "address"
            },
            {
              "internalType": "uint256[]",
              "name": "itemOrderIds",
              "type": "uint256[]"
            },
            {
              "internalType": "bool",
              "name": "picking_up_in_person",
              "type": "bool"
            },
            {
              "internalType": "string",
              "name": "shipping_address",
              "type": "string"
            },
            {
              "internalType": "uint256",
              "name": "time_ordered",
              "type": "uint256"
            },
            {
              "internalType": "enum Marketplace.Statuses",
              "name": "current_status",
              "type": "uint8"
            }
          ],
          "indexed": false,
          "internalType": "struct Marketplace.bigOrder",
          "name": "order",
          "type": "tuple"
        }
      ],
      "name": "WarehouseOrder",
      "type": "event"
    },
    {
      "inputs": [
        {
          "internalType": "address",
          "name": "",
          "type": "address"
        }
      ],
      "name": "address_to_running_cost",
      "outputs": [
        {
          "internalType": "uint256",
          "name": "",
          "type": "uint256"
        }
      ],
      "stateMutability": "view",
      "type": "function"
    },
    {
      "inputs": [],
      "name": "isOwner",
      "outputs": [
        {
          "internalType": "bool",
          "name": "",
          "type": "bool"
        }
      ],
      "stateMutability": "view",
      "type": "function"
    },
    {
      "inputs": [
        {
          "internalType": "uint256",
          "name": "",
          "type": "uint256"
        }
      ],
      "name": "itemOrderId_to_itemOrder",
      "outputs": [
        {
          "internalType": "uint256",
          "name": "item_id",
          "type": "uint256"
        },
        {
          "internalType": "address",
          "name": "student_chain_address",
          "type": "address"
        },
        {
          "internalType": "uint256",
          "name": "item_tokens_paid",
          "type": "uint256"
        }
      ],
      "stateMutability": "view",
      "type": "function"
    },
    {
      "inputs": [
        {
          "internalType": "uint256",
          "name": "",
          "type": "uint256"
        }
      ],
      "name": "item_ids_to_items",
      "outputs": [
        {
          "internalType": "bytes32",
          "name": "name",
          "type": "bytes32"
        },
        {
          "internalType": "uint256",
          "name": "price",
          "type": "uint256"
        }
      ],
      "stateMutability": "view",
      "type": "function"
    },
    {
      "inputs": [
        {
          "internalType": "uint256",
          "name": "",
          "type": "uint256"
        }
      ],
      "name": "locations",
      "outputs": [
        {
          "internalType": "bytes32",
          "name": "",
          "type": "bytes32"
        }
      ],
      "stateMutability": "view",
      "type": "function"
    },
    {
      "inputs": [],
      "name": "low_inventory_limit",
      "outputs": [
        {
          "internalType": "uint8",
          "name": "",
          "type": "uint8"
        }
      ],
      "stateMutability": "view",
      "type": "function"
    },
    {
      "inputs": [],
      "name": "next_bigOrder_id",
      "outputs": [
        {
          "internalType": "uint256",
          "name": "",
          "type": "uint256"
        }
      ],
      "stateMutability": "view",
      "type": "function"
    },
    {
      "inputs": [],
      "name": "next_itemOrder_id",
      "outputs": [
        {
          "internalType": "uint256",
          "name": "",
          "type": "uint256"
        }
      ],
      "stateMutability": "view",
      "type": "function"
    },
    {
      "inputs": [],
      "name": "next_item_id",
      "outputs": [
        {
          "internalType": "uint256",
          "name": "",
          "type": "uint256"
        }
      ],
      "stateMutability": "view",
      "type": "function"
    },
    {
      "inputs": [],
      "name": "owner",
      "outputs": [
        {
          "internalType": "address",
          "name": "",
          "type": "address"
        }
      ],
      "stateMutability": "view",
      "type": "function"
    },
    {
      "inputs": [],
      "name": "renounceOwnership",
      "outputs": [],
      "stateMutability": "nonpayable",
      "type": "function"
    },
    {
      "inputs": [],
      "name": "reorder_amount",
      "outputs": [
        {
          "internalType": "uint8",
          "name": "",
          "type": "uint8"
        }
      ],
      "stateMutability": "view",
      "type": "function"
    },
    {
      "inputs": [
        {
          "internalType": "address",
          "name": "",
          "type": "address"
        },
        {
          "internalType": "uint256",
          "name": "",
          "type": "uint256"
        }
      ],
      "name": "running_address_to_itemOrderIds",
      "outputs": [
        {
          "internalType": "uint256",
          "name": "",
          "type": "uint256"
        }
      ],
      "stateMutability": "view",
      "type": "function"
    },
    {
      "inputs": [],
      "name": "testBytes32",
      "outputs": [
        {
          "internalType": "bytes32",
          "name": "",
          "type": "bytes32"
        }
      ],
      "stateMutability": "view",
      "type": "function"
    },
    {
      "inputs": [],
      "name": "testInt",
      "outputs": [
        {
          "internalType": "uint256",
          "name": "",
          "type": "uint256"
        }
      ],
      "stateMutability": "view",
      "type": "function"
    },
    {
      "inputs": [
        {
          "internalType": "uint256",
          "name": "",
          "type": "uint256"
        }
      ],
      "name": "testStringArray",
      "outputs": [
        {
          "internalType": "string",
          "name": "",
          "type": "string"
        }
      ],
      "stateMutability": "view",
      "type": "function"
    },
    {
      "inputs": [
        {
          "internalType": "address",
          "name": "newOwner",
          "type": "address"
        }
      ],
      "name": "transferOwnership",
      "outputs": [],
      "stateMutability": "nonpayable",
      "type": "function"
    },
    {
      "inputs": [],
      "name": "getLocations",
      "outputs": [
        {
          "internalType": "bytes32[]",
          "name": "",
          "type": "bytes32[]"
        }
      ],
      "stateMutability": "view",
      "type": "function"
    },
    {
      "inputs": [],
      "name": "getTestNestedArray",
      "outputs": [
        {
          "internalType": "uint256[][5]",
          "name": "",
          "type": "uint256[][5]"
        }
      ],
      "stateMutability": "view",
      "type": "function"
    },
    {
      "inputs": [
        {
          "internalType": "uint256",
          "name": "_newInt",
          "type": "uint256"
        },
        {
          "internalType": "bytes32",
          "name": "_newBytes32",
          "type": "bytes32"
        },
        {
          "internalType": "string[]",
          "name": "_newStringArray",
          "type": "string[]"
        },
        {
          "internalType": "uint256[][5]",
          "name": "_newNestedArray",
          "type": "uint256[][5]"
        }
      ],
      "name": "testSimpleWrite",
      "outputs": [],
      "stateMutability": "nonpayable",
      "type": "function"
    },
    {
      "inputs": [
        {
          "internalType": "bytes32",
          "name": "_new_location",
          "type": "bytes32"
        }
      ],
      "name": "addLocation",
      "outputs": [],
      "stateMutability": "nonpayable",
      "type": "function"
    },
    {
      "inputs": [
        {
          "internalType": "uint256",
          "name": "_location_id",
          "type": "uint256"
        }
      ],
      "name": "deleteLocation",
      "outputs": [],
      "stateMutability": "nonpayable",
      "type": "function"
    },
    {
      "inputs": [
        {
          "internalType": "bytes32",
          "name": "_new_phrase",
          "type": "bytes32"
        },
        {
          "internalType": "uint8",
          "name": "_location_id",
          "type": "uint8"
        }
      ],
      "name": "changeLocationPhrase",
      "outputs": [],
      "stateMutability": "nonpayable",
      "type": "function"
    },
    {
      "inputs": [
        {
          "internalType": "address",
          "name": "_new_address",
          "type": "address"
        }
      ],
      "name": "setMerchCoinAddress",
      "outputs": [],
      "stateMutability": "nonpayable",
      "type": "function"
    },
    {
      "inputs": [
        {
          "internalType": "address",
          "name": "_address",
          "type": "address"
        }
      ],
      "name": "getUserType",
      "outputs": [
        {
          "internalType": "uint256",
          "name": "",
          "type": "uint256"
        }
      ],
      "stateMutability": "nonpayable",
      "type": "function"
    },
    {
      "inputs": [
        {
          "internalType": "uint8",
          "name": "_new_limit",
          "type": "uint8"
        }
      ],
      "name": "setLowInventoryLimit",
      "outputs": [],
      "stateMutability": "nonpayable",
      "type": "function"
    },
    {
      "inputs": [
        {
          "internalType": "uint8",
          "name": "_new_amount",
          "type": "uint8"
        }
      ],
      "name": "setReorderAmount",
      "outputs": [],
      "stateMutability": "nonpayable",
      "type": "function"
    },
    {
      "inputs": [
        {
          "internalType": "uint256",
          "name": "_item_id",
          "type": "uint256"
        }
      ],
      "name": "getItemFromId",
      "outputs": [
        {
          "components": [
            {
              "internalType": "bytes32",
              "name": "name",
              "type": "bytes32"
            },
            {
              "internalType": "uint256",
              "name": "price",
              "type": "uint256"
            },
            {
              "internalType": "string[]",
              "name": "urls",
              "type": "string[]"
            },
            {
              "internalType": "uint256[][5]",
              "name": "quant_by_size_and_location",
              "type": "uint256[][5]"
            }
          ],
          "internalType": "struct Marketplace.Item",
          "name": "",
          "type": "tuple"
        }
      ],
      "stateMutability": "view",
      "type": "function"
    },
    {
      "inputs": [
        {
          "internalType": "bytes32",
          "name": "_net_id",
          "type": "bytes32"
        }
      ],
      "name": "getBigOrderIdsFromNetId",
      "outputs": [
        {
          "internalType": "uint256[]",
          "name": "",
          "type": "uint256[]"
        }
      ],
      "stateMutability": "view",
      "type": "function"
    },
    {
      "inputs": [
        {
          "internalType": "uint256",
          "name": "_big_order_id",
          "type": "uint256"
        }
      ],
      "name": "getBigOrderFromBigOrderId",
      "outputs": [
        {
          "components": [
            {
              "internalType": "uint256",
              "name": "tokens_paid",
              "type": "uint256"
            },
            {
              "internalType": "address",
              "name": "student_chain_address",
              "type": "address"
            },
            {
              "internalType": "uint256[]",
              "name": "itemOrderIds",
              "type": "uint256[]"
            },
            {
              "internalType": "bool",
              "name": "picking_up_in_person",
              "type": "bool"
            },
            {
              "internalType": "string",
              "name": "shipping_address",
              "type": "string"
            },
            {
              "internalType": "uint256",
              "name": "time_ordered",
              "type": "uint256"
            },
            {
              "internalType": "enum Marketplace.Statuses",
              "name": "current_status",
              "type": "uint8"
            }
          ],
          "internalType": "struct Marketplace.bigOrder",
          "name": "",
          "type": "tuple"
        }
      ],
      "stateMutability": "view",
      "type": "function"
    },
    {
      "inputs": [
        {
          "internalType": "uint256",
          "name": "_itemOrderId",
          "type": "uint256"
        }
      ],
      "name": "getItemOrderFromItemOrderId",
      "outputs": [
        {
          "components": [
            {
              "internalType": "uint256",
              "name": "item_id",
              "type": "uint256"
            },
            {
              "internalType": "address",
              "name": "student_chain_address",
              "type": "address"
            },
            {
              "internalType": "uint256[5]",
              "name": "item_quantities_ordered_by_size",
              "type": "uint256[5]"
            },
            {
              "internalType": "uint256",
              "name": "item_tokens_paid",
              "type": "uint256"
            }
          ],
          "internalType": "struct Marketplace.itemOrder",
          "name": "",
          "type": "tuple"
        }
      ],
      "stateMutability": "view",
      "type": "function"
    },
    {
      "inputs": [
        {
          "internalType": "address",
          "name": "_address",
          "type": "address"
        }
      ],
      "name": "getItemOrderIdsFromRunningAddress",
      "outputs": [
        {
          "internalType": "uint256[]",
          "name": "",
          "type": "uint256[]"
        }
      ],
      "stateMutability": "view",
      "type": "function"
    },
    {
      "inputs": [
        {
          "internalType": "address",
          "name": "_address",
          "type": "address"
        }
      ],
      "name": "getRunningCostFromAddress",
      "outputs": [
        {
          "internalType": "uint256",
          "name": "",
          "type": "uint256"
        }
      ],
      "stateMutability": "view",
      "type": "function"
    },
    {
      "inputs": [
        {
          "internalType": "bytes32",
          "name": "_name",
          "type": "bytes32"
        },
        {
          "internalType": "uint256",
          "name": "_price",
          "type": "uint256"
        },
        {
          "internalType": "string[]",
          "name": "_urls",
          "type": "string[]"
        },
        {
          "internalType": "uint256[][5]",
          "name": "_stock_by_size_and_location",
          "type": "uint256[][5]"
        }
      ],
      "name": "createItem",
      "outputs": [],
      "stateMutability": "nonpayable",
      "type": "function"
    },
    {
      "inputs": [
        {
          "internalType": "uint256",
          "name": "_big_order_id",
          "type": "uint256"
        },
        {
          "internalType": "enum Marketplace.Statuses",
          "name": "_new_status",
          "type": "uint8"
        }
      ],
      "name": "updateStatus",
      "outputs": [],
      "stateMutability": "nonpayable",
      "type": "function"
    },
    {
      "inputs": [
        {
          "internalType": "uint256",
          "name": "_item_id",
          "type": "uint256"
        },
        {
          "internalType": "bytes32",
          "name": "_new_name",
          "type": "bytes32"
        },
        {
          "internalType": "uint256",
          "name": "_new_price",
          "type": "uint256"
        },
        {
          "internalType": "string[]",
          "name": "_new_urls",
          "type": "string[]"
        },
        {
          "internalType": "uint256[][5]",
          "name": "_new_stocks_by_sizes_and_location",
          "type": "uint256[][5]"
        }
      ],
      "name": "updateItemDetails",
      "outputs": [],
      "stateMutability": "nonpayable",
      "type": "function"
    },
    {
      "inputs": [
        {
          "internalType": "bytes32",
          "name": "_netId",
          "type": "bytes32"
        }
      ],
      "name": "netIdToBigOrderIds",
      "outputs": [
        {
          "internalType": "uint256[]",
          "name": "",
          "type": "uint256[]"
        }
      ],
      "stateMutability": "nonpayable",
      "type": "function"
    },
    {
      "inputs": [
        {
          "internalType": "uint256",
          "name": "_big_order_id",
          "type": "uint256"
        }
      ],
      "name": "BigOrderIdToBigOrder",
      "outputs": [
        {
          "components": [
            {
              "internalType": "uint256",
              "name": "tokens_paid",
              "type": "uint256"
            },
            {
              "internalType": "address",
              "name": "student_chain_address",
              "type": "address"
            },
            {
              "internalType": "uint256[]",
              "name": "itemOrderIds",
              "type": "uint256[]"
            },
            {
              "internalType": "bool",
              "name": "picking_up_in_person",
              "type": "bool"
            },
            {
              "internalType": "string",
              "name": "shipping_address",
              "type": "string"
            },
            {
              "internalType": "uint256",
              "name": "time_ordered",
              "type": "uint256"
            },
            {
              "internalType": "enum Marketplace.Statuses",
              "name": "current_status",
              "type": "uint8"
            }
          ],
          "internalType": "struct Marketplace.bigOrder",
          "name": "",
          "type": "tuple"
        }
      ],
      "stateMutability": "view",
      "type": "function"
    },
    {
      "inputs": [
        {
          "internalType": "uint256",
          "name": "_itemOrderId",
          "type": "uint256"
        }
      ],
      "name": "itemOrderIdToItemOrder",
      "outputs": [
        {
          "components": [
            {
              "internalType": "uint256",
              "name": "item_id",
              "type": "uint256"
            },
            {
              "internalType": "address",
              "name": "student_chain_address",
              "type": "address"
            },
            {
              "internalType": "uint256[5]",
              "name": "item_quantities_ordered_by_size",
              "type": "uint256[5]"
            },
            {
              "internalType": "uint256",
              "name": "item_tokens_paid",
              "type": "uint256"
            }
          ],
          "internalType": "struct Marketplace.itemOrder",
          "name": "",
          "type": "tuple"
        }
      ],
      "stateMutability": "view",
      "type": "function"
    },
    {
      "inputs": [
        {
          "internalType": "uint256",
          "name": "_item_id",
          "type": "uint256"
        },
        {
          "internalType": "uint256[5]",
          "name": "_item_quantities_ordered_by_size",
          "type": "uint256[5]"
        }
      ],
      "name": "createItemOrder",
      "outputs": [],
      "stateMutability": "nonpayable",
      "type": "function"
    },
    {
      "inputs": [
        {
          "internalType": "bool",
          "name": "_picking_up_in_person",
          "type": "bool"
        },
        {
          "internalType": "string",
          "name": "_shipping_address",
          "type": "string"
        }
      ],
      "name": "createBigOrder",
      "outputs": [],
      "stateMutability": "nonpayable",
      "type": "function"
    },
    {
      "inputs": [
        {
          "internalType": "uint256",
          "name": "_big_order_id",
          "type": "uint256"
        },
        {
          "internalType": "uint256[][5][]",
          "name": "_quantity_by_itemOrder_size_and_location",
          "type": "uint256[][5][]"
        }
      ],
      "name": "orderSubmitted",
      "outputs": [],
      "stateMutability": "nonpayable",
      "type": "function"
    }
  ],
  "bytecode": "0x608060405260146002557f6f726967696e616c20546573740000000000000000000000000000000000000060035560405180602001604052806040518060400160405280600481526020017f6d616e79000000000000000000000000000000000000000000000000000000008152508152506004906001620000839291906200035d565b506040518060a001604052806040518060200160405280600060ff1681525081526020016040518060200160405280600060ff1681525081526020016040518060200160405280600060ff1681525081526020016040518060200160405280600060ff1681525081526020016040518060200160405280600060ff16815250815250600590600562000117929190620003c4565b50600060145560006015553480156200012f57600080fd5b506040516200632d3803806200632d8339818101604052810190620001559190620005f0565b336000806101000a81548173ffffffffffffffffffffffffffffffffffffffff021916908373ffffffffffffffffffffffffffffffffffffffff16021790555060008054906101000a900473ffffffffffffffffffffffffffffffffffffffff1673ffffffffffffffffffffffffffffffffffffffff16600073ffffffffffffffffffffffffffffffffffffffff167f8be0079c531659141344cd1fd0a4f28419497f9722a3daafe3b4186f6b6457e060405160405180910390a382600a60006101000a81548173ffffffffffffffffffffffffffffffffffffffff021916908373ffffffffffffffffffffffffffffffffffffffff16021790555080600b60006101000a81548173ffffffffffffffffffffffffffffffffffffffff021916908373ffffffffffffffffffffffffffffffffffffffff16021790555081600c60006101000a81548173ffffffffffffffffffffffffffffffffffffffff021916908373ffffffffffffffffffffffffffffffffffffffff1602179055506014600c60146101000a81548160ff021916908360ff1602179055506064600c60156101000a81548160ff021916908360ff16021790555060017f4f726967696e616c204c6f636174696f6e000000000000000000000000000000908060018154018082558091505060019003906000526020600020016000909190919091505550505062000704565b828054828255906000526020600020908101928215620003b1579160200282015b82811115620003b05782518290805190602001906200039f92919062000419565b50916020019190600101906200037e565b5b509050620003c09190620004aa565b5090565b826005810192821562000406579160200282015b828111156200040557825182906001620003f4929190620004d2565b5091602001919060010190620003d8565b5b50905062000415919062000529565b5090565b828054620004279062000680565b90600052602060002090601f0160209004810192826200044b576000855562000497565b82601f106200046657805160ff191683800117855562000497565b8280016001018555821562000497579182015b828111156200049657825182559160200191906001019062000479565b5b509050620004a6919062000551565b5090565b5b80821115620004ce5760008181620004c4919062000570565b50600101620004ab565b5090565b82805482825590600052602060002090810192821562000516579160200282015b8281111562000515578251829060ff16905591602001919060010190620004f3565b5b50905062000525919062000551565b5090565b5b808211156200054d5760008181620005439190620005b6565b506001016200052a565b5090565b5b808211156200056c57600081600090555060010162000552565b5090565b5080546200057e9062000680565b6000825580601f10620005925750620005b3565b601f016020900490600052602060002090810190620005b2919062000551565b5b50565b5080546000825590600052602060002090810190620005d6919062000551565b50565b600081519050620005ea81620006ea565b92915050565b6000806000606084860312156200060c576200060b620006e5565b5b60006200061c86828701620005d9565b93505060206200062f86828701620005d9565b92505060406200064286828701620005d9565b9150509250925092565b6000620006598262000660565b9050919050565b600073ffffffffffffffffffffffffffffffffffffffff82169050919050565b600060028204905060018216806200069957607f821691505b60208210811415620006b057620006af620006b6565b5b50919050565b7f4e487b7100000000000000000000000000000000000000000000000000000000600052602260045260246000fd5b600080fd5b620006f5816200064c565b81146200070157600080fd5b50565b615c1980620007146000396000f3fe608060405234801561001057600080fd5b506004361061025d5760003560e01c80637ca3940311610146578063ab63616f116100c3578063cf9847c011610087578063cf9847c01461076f578063f21a1f801461079f578063f2fde38b146107cf578063f7cfaab5146107eb578063fb75371014610807578063ff81c323146108235761025d565b8063ab63616f146106a5578063afb5b73a146106c3578063b548b3c3146106f3578063b9e0db3514610723578063be796f92146107535761025d565b80638f32d59b1161010a5780638f32d59b1461060157806390c51c931461061f5780639395ee1b1461063b578063a7a5a8f414610657578063a8760234146106755761025d565b80637ca39403146105375780637eaf6af0146105675780637fc70c22146105835780638b3f863f146105b35780638da5cb5b146105e35761025d565b80632cc14fa1116101df57806344e9fd33116101a357806344e9fd33146104795780634d123e131461049557806350554625146104b1578063610efd6d146104e15780636a81d53b14610511578063715018a61461052d5761025d565b80632cc14fa1146103af578063314642a9146103df578063350c10ff146103fb5780633a1b3d311461042d57806340c9fe4c146104495761025d565b80630b5cc562116102265780630b5cc5621461030857806319d4210a146103265780631c5426e9146103445780631d184233146103755780631f278918146103935761025d565b8062e5561d14610262578063025173b51461028057806302b4dfce1461029e578063031ca3a0146102ce57806308cd3725146102ec575b600080fd5b61026a610841565b6040516102779190615057565b60405180910390f35b610288610847565b6040516102959190615057565b60405180910390f35b6102b860048036038101906102b39190614235565b61084d565b6040516102c5919061503b565b60405180910390f35b6102d6610929565b6040516102e39190614e0e565b60405180910390f35b6103066004803603810190610301919061409b565b6109bb565b005b6103106113ff565b60405161031d91906150ee565b60405180910390f35b61032e611412565b60405161033b9190615057565b60405180910390f35b61035e60048036038101906103599190614235565b611418565b60405161036c929190614eaa565b60405180910390f35b61037d61143c565b60405161038a9190614e8f565b60405180910390f35b6103ad60048036038101906103a8919061449c565b611442565b005b6103c960048036038101906103c49190614235565b6114f1565b6040516103d69190614ff7565b60405180910390f35b6103f960048036038101906103f49190614262565b6116c8565b005b61041560048036038101906104109190614235565b611ce8565b60405161042493929190615072565b60405180910390f35b6104476004803603810190610442919061445c565b611d32565b005b610463600480360381019061045e9190614001565b611dbf565b6040516104709190615057565b60405180910390f35b610493600480360381019061048e91906140f7565b611e08565b005b6104af60048036038101906104aa919061449c565b611f16565b005b6104cb60048036038101906104c691906140f7565b611fc5565b6040516104d89190614e52565b60405180910390f35b6104fb60048036038101906104f69190614001565b6121c8565b6040516105089190614e52565b60405180910390f35b61052b60048036038101906105269190614151565b61225f565b005b610535612360565b005b610551600480360381019061054c9190614235565b61242f565b60405161055e9190614fd5565b60405180910390f35b610581600480360381019061057c91906142c2565b6125d6565b005b61059d600480360381019061059891906140f7565b6128aa565b6040516105aa9190614e52565b60405180910390f35b6105cd60048036038101906105c89190614001565b612915565b6040516105da9190615057565b60405180910390f35b6105eb612a50565b6040516105f89190614d85565b60405180910390f35b610609612a79565b6040516106169190614e74565b60405180910390f35b61063960048036038101906106349190614302565b612ad0565b005b610655600480360381019061065091906143a6565b612c2b565b005b61065f612e7a565b60405161066c91906150ee565b60405180910390f35b61068f600480360381019061068a9190614235565b612e8d565b60405161069c9190614ed3565b60405180910390f35b6106ad612f39565b6040516106ba9190614e30565b60405180910390f35b6106dd60048036038101906106d8919061402e565b612f91565b6040516106ea9190615057565b60405180910390f35b61070d60048036038101906107089190614235565b612fc2565b60405161071a9190614ff7565b60405180910390f35b61073d60048036038101906107389190614235565b613199565b60405161074a9190614e8f565b60405180910390f35b61076d600480360381019061076891906141f5565b6131bd565b005b61078960048036038101906107849190614001565b61328c565b6040516107969190615057565b60405180910390f35b6107b960048036038101906107b49190614235565b6132a4565b6040516107c6919061503b565b60405180910390f35b6107e960048036038101906107e49190614001565b613380565b005b61080560048036038101906108009190614235565b61339d565b005b610821600480360381019061081c9190614001565b6134bf565b005b61082b61354e565b6040516108389190615057565b60405180910390f35b60025481565b60155481565b610855613790565b60116000838152602001908152602001600020604051806080016040529081600082015481526020016001820160009054906101000a900473ffffffffffffffffffffffffffffffffffffffff1673ffffffffffffffffffffffffffffffffffffffff1673ffffffffffffffffffffffffffffffffffffffff1681526020016002820160058060200260405190810160405280929190826005801561090f576020028201915b8154815260200190600101908083116108fb575b505050505081526020016007820154815250509050919050565b6109316137d4565b60058080602002604051908101604052809291906000905b828210156109b25783820180548060200260200160405190810160405280929190818152602001828054801561099e57602002820191906000526020600020905b81548152602001906001019080831161098a575b505050505081526020019060010190610949565b50505050905090565b6000600c60009054906101000a900473ffffffffffffffffffffffffffffffffffffffff1673ffffffffffffffffffffffffffffffffffffffff1673__Accessibility_________________________63b1ca19e29091326040518363ffffffff1660e01b8152600401610a30929190614da0565b60206040518083038186803b158015610a4857600080fd5b505af4158015610a5c573d6000803e3d6000fd5b505050506040513d601f19601f82011682018060405250810190610a809190614124565b9050600073ffffffffffffffffffffffffffffffffffffffff1660106000601554815260200190815260200160002060010160009054906101000a900473ffffffffffffffffffffffffffffffffffffffff1673ffffffffffffffffffffffffffffffffffffffff1614610b29576040517f08c379a0000000000000000000000000000000000000000000000000000000008152600401610b2090614f55565b60405180910390fd5b610b7232601260003273ffffffffffffffffffffffffffffffffffffffff1673ffffffffffffffffffffffffffffffffffffffff16815260200190815260200160002054613554565b610bb1576040517f08c379a0000000000000000000000000000000000000000000000000000000008152600401610ba890614f75565b60405180910390fd5b60005b601360003273ffffffffffffffffffffffffffffffffffffffff1673ffffffffffffffffffffffffffffffffffffffff1681526020019081526020016000208054905081101561103f57600060116000601360003273ffffffffffffffffffffffffffffffffffffffff1673ffffffffffffffffffffffffffffffffffffffff1681526020019081526020016000208481548110610c5557610c546158dd565b5b90600052602060002001548152602001908152602001600020604051806080016040529081600082015481526020016001820160009054906101000a900473ffffffffffffffffffffffffffffffffffffffff1673ffffffffffffffffffffffffffffffffffffffff1673ffffffffffffffffffffffffffffffffffffffff16815260200160028201600580602002604051908101604052809291908260058015610d15576020028201915b815481526020019060010190808311610d01575b5050505050815260200160078201548152505090506000600d600083600001518152602001908152602001600020604051806080016040529081600082015481526020016001820154815260200160028201805480602002602001604051908101604052809291908181526020016000905b82821015610e33578382906000526020600020018054610da690615712565b80601f0160208091040260200160405190810160405280929190818152602001828054610dd290615712565b8015610e1f5780601f10610df457610100808354040283529160200191610e1f565b820191906000526020600020905b815481529060010190602001808311610e0257829003601f168201915b505050505081526020019060010190610d87565b50505050815260200160038201600580602002604051908101604052809291906000905b82821015610ec057838201805480602002602001604051908101604052809291908181526020018280548015610eac57602002820191906000526020600020905b815481526020019060010190808311610e98575b505050505081526020019060010190610e57565b5050505081525050905060005b826040015150600581101561102b576000805b83606001518360058110610ef757610ef66158dd565b5b602002015151811015610f585783606001518360058110610f1b57610f1a6158dd565b5b60200201518181518110610f3257610f316158dd565b5b602002602001015182610f459190615481565b915080610f51906157dd565b9050610ee0565b508084604001518360058110610f7157610f706158dd565b5b6020020151111561101957601360003273ffffffffffffffffffffffffffffffffffffffff1673ffffffffffffffffffffffffffffffffffffffff1681526020019081526020016000208054905060146000828254610fd09190615531565b925050819055506000611018576040517f08c379a000000000000000000000000000000000000000000000000000000000815260040161100f90614ef5565b60405180910390fd5b5b5080611024906157dd565b9050610ecd565b50505080611038906157dd565b9050610bb4565b506040518060e00160405280601260003273ffffffffffffffffffffffffffffffffffffffff1673ffffffffffffffffffffffffffffffffffffffff1681526020019081526020016000205481526020013273ffffffffffffffffffffffffffffffffffffffff168152602001601360003273ffffffffffffffffffffffffffffffffffffffff1673ffffffffffffffffffffffffffffffffffffffff16815260200190815260200160002080548060200260200160405190810160405280929190818152602001828054801561113557602002820191906000526020600020905b815481526020019060010190808311611121575b505050505081526020018415158152602001838152602001428152602001600060038111156111675761116661587f565b5b8152506010600060155481526020019081526020016000206000820151816000015560208201518160010160006101000a81548173ffffffffffffffffffffffffffffffffffffffff021916908373ffffffffffffffffffffffffffffffffffffffff16021790555060408201518160020190805190602001906111ec9291906137fb565b5060608201518160030160006101000a81548160ff0219169083151502179055506080820151816004019080519060200190611229929190613848565b5060a0820151816005015560c08201518160060160006101000a81548160ff0219169083600381111561125f5761125e61587f565b5b02179055509050506000601260003273ffffffffffffffffffffffffffffffffffffffff1673ffffffffffffffffffffffffffffffffffffffff168152602001908152602001600020819055506000600167ffffffffffffffff8111156112c9576112c861590c565b5b6040519080825280602002602001820160405280156112f75781602001602082028036833780820191505090505b50905080601360003273ffffffffffffffffffffffffffffffffffffffff1673ffffffffffffffffffffffffffffffffffffffff168152602001908152602001600020908051906020019061134d9291906137fb565b50600f600083815260200190815260200160002060155490806001815401808255809150506001900390600052602060002001600090919091909150556015600081548092919061139d906157dd565b91905055507fa9537f0c8de86847f7289eef90c90d6af32bccd577dc902de07ed6693c1158aa6010600060016015546113d69190615531565b81526020019081526020016000206040516113f19190615019565b60405180910390a150505050565b600c60159054906101000a900460ff1681565b60145481565b600d6020528060005260406000206000915090508060000154908060010154905082565b60035481565b600261144d33612915565b1461148d576040517f08c379a000000000000000000000000000000000000000000000000000000000815260040161148490614f95565b60405180910390fd5b60008160ff16116114d3576040517f08c379a00000000000000000000000000000000000000000000000000000000081526004016114ca90614fb5565b60405180910390fd5b80600c60146101000a81548160ff021916908360ff16021790555050565b6114f96138ce565b601060008381526020019081526020016000206040518060e0016040529081600082015481526020016001820160009054906101000a900473ffffffffffffffffffffffffffffffffffffffff1673ffffffffffffffffffffffffffffffffffffffff1673ffffffffffffffffffffffffffffffffffffffff168152602001600282018054806020026020016040519081016040528092919081815260200182805480156115c657602002820191906000526020600020905b8154815260200190600101908083116115b2575b505050505081526020016003820160009054906101000a900460ff161515151581526020016004820180546115fa90615712565b80601f016020809104026020016040519081016040528092919081815260200182805461162690615712565b80156116735780601f1061164857610100808354040283529160200191611673565b820191906000526020600020905b81548152906001019060200180831161165657829003601f168201915b50505050508152602001600582015481526020016006820160009054906101000a900460ff1660038111156116ab576116aa61587f565b5b60038111156116bd576116bc61587f565b5b815250509050919050565b60006010600085815260200190815260200160002060020180548060200260200160405190810160405280929190818152602001828054801561172a57602002820191906000526020600020905b815481526020019060010190808311611716575b5050505050905060005b8151811015611bab576000600d60006011600086868151811061175a576117596158dd565b5b60200260200101518152602001908152602001600020600001548152602001908152602001600020604051806080016040529081600082015481526020016001820154815260200160028201805480602002602001604051908101604052809291908181526020016000905b828210156118725783829060005260206000200180546117e590615712565b80601f016020809104026020016040519081016040528092919081815260200182805461181190615712565b801561185e5780601f106118335761010080835404028352916020019161185e565b820191906000526020600020905b81548152906001019060200180831161184157829003601f168201915b5050505050815260200190600101906117c6565b50505050815260200160038201600580602002604051908101604052809291906000905b828210156118ff578382018054806020026020016040519081016040528092919081815260200182805480156118eb57602002820191906000526020600020905b8154815260200190600101908083116118d7575b505050505081526020019060010190611896565b50505050815250509050600085858481811061191e5761191d6158dd565b5b90506020028101906119309190615109565b6119399061561b565b905060005b6005811015611b075760005b82826005811061195d5761195c6158dd565b5b6020020151518160ff161015611af557600084606001518360058110611986576119856158dd565b5b60200201518260ff16815181106119a05761199f6158dd565b5b602002602001015190508383600581106119bd576119bc6158dd565b5b60200201518260ff16815181106119d7576119d66158dd565b5b6020026020010151856060015184600581106119f6576119f56158dd565b5b60200201518360ff1681518110611a1057611a0f6158dd565b5b60200260200101818151611a249190615531565b91508181525050600c60149054906101000a900460ff1660ff168111611ae3577f836acf3b82a1ace3cfd19af1b7d59f1c048fd4e09fe9be5db9ce8311f60bcf50878781518110611a7857611a776158dd565b5b602002602001015186606001518560058110611a9757611a966158dd565b5b60200201518460ff1681518110611ab157611ab06158dd565b5b602002602001015184600c60159054906101000a900460ff16604051611ada94939291906150a9565b60405180910390a15b5080611aee90615826565b905061194a565b5080611b00906157dd565b905061193e565b5081600d600060116000888881518110611b2457611b236158dd565b5b6020026020010151815260200190815260200160002060000154815260200190815260200160002060008201518160000155602082015181600101556040820151816002019080519060200190611b7c929190613935565b50606082015181600301906005611b94929190613995565b50905050505080611ba4906157dd565b9050611734565b50600a60009054906101000a900473ffffffffffffffffffffffffffffffffffffffff1673ffffffffffffffffffffffffffffffffffffffff1673__Accessibility_________________________6315dacbea90916010600088815260200190815260200160002060010160009054906101000a900473ffffffffffffffffffffffffffffffffffffffff16600b60009054906101000a900473ffffffffffffffffffffffffffffffffffffffff16601060008a8152602001908152602001600020600001546040518563ffffffff1660e01b8152600401611c919493929190614dc9565b60206040518083038186803b158015611ca957600080fd5b505af4158015611cbd573d6000803e3d6000fd5b505050506040513d601f19601f82011682018060405250810190611ce1919061406e565b5050505050565b60116020528060005260406000206000915090508060000154908060010160009054906101000a900473ffffffffffffffffffffffffffffffffffffffff16908060070154905083565b6002611d3d33612915565b14611d7d576040517f08c379a0000000000000000000000000000000000000000000000000000000008152600401611d7490614f95565b60405180910390fd5b806010600084815260200190815260200160002060060160006101000a81548160ff02191690836003811115611db657611db561587f565b5b02179055505050565b6000601260008373ffffffffffffffffffffffffffffffffffffffff1673ffffffffffffffffffffffffffffffffffffffff168152602001908152602001600020549050919050565b6002611e1333612915565b14611e53576040517f08c379a0000000000000000000000000000000000000000000000000000000008152600401611e4a90614f95565b60405180910390fd5b600181908060018154018082558091505060019003906000526020600020016000909190919091505560005b600e54811015611f12576000600d6000838152602001908152602001600020905060005b600560ff16811015611eff57816003018160058110611ec557611ec46158dd565b5b016000908060018154018082558091505060019003906000526020600020016000909190919091505580611ef8906157dd565b9050611ea3565b505080611f0b906157dd565b9050611e7f565b5050565b6002611f2133612915565b14611f61576040517f08c379a0000000000000000000000000000000000000000000000000000000008152600401611f5890614f95565b60405180910390fd5b60008160ff1611611fa7576040517f08c379a0000000000000000000000000000000000000000000000000000000008152600401611f9e90614f35565b60405180910390fd5b80600c60156101000a81548160ff021916908360ff16021790555050565b6060600c60009054906101000a900473ffffffffffffffffffffffffffffffffffffffff1673ffffffffffffffffffffffffffffffffffffffff1673__Accessibility_________________________63910067459091336040518363ffffffff1660e01b815260040161203a929190614da0565b60206040518083038186803b15801561205257600080fd5b505af4158015612066573d6000803e3d6000fd5b505050506040513d601f19601f8201168201806040525081019061208a919061406e565b80612156575081600c60009054906101000a900473ffffffffffffffffffffffffffffffffffffffff1673ffffffffffffffffffffffffffffffffffffffff1673__Accessibility_________________________63b1ca19e29091336040518363ffffffff1660e01b8152600401612104929190614da0565b60206040518083038186803b15801561211c57600080fd5b505af4158015612130573d6000803e3d6000fd5b505050506040513d601f19601f820116820180604052508101906121549190614124565b145b61215f57600080fd5b600f60008381526020019081526020016000208054806020026020016040519081016040528092919081815260200182805480156121bc57602002820191906000526020600020905b8154815260200190600101908083116121a8575b50505050509050919050565b6060601360008373ffffffffffffffffffffffffffffffffffffffff1673ffffffffffffffffffffffffffffffffffffffff16815260200190815260200160002080548060200260200160405190810160405280929190818152602001828054801561225357602002820191906000526020600020905b81548152602001906001019080831161223f575b50505050509050919050565b600261226a33612915565b146122aa576040517f08c379a00000000000000000000000000000000000000000000000000000000081526004016122a190614f95565b60405180910390fd5b60405180608001604052808681526020018581526020018484906122ce9190615630565b8152602001826122dd9061561b565b815250600d6000600e54815260200190815260200160002060008201518160000155602082015181600101556040820151816002019080519060200190612325929190613935565b5060608201518160030190600561233d929190613995565b50905050600e6000815480929190612354906157dd565b91905055505050505050565b612368612a79565b61237157600080fd5b600073ffffffffffffffffffffffffffffffffffffffff1660008054906101000a900473ffffffffffffffffffffffffffffffffffffffff1673ffffffffffffffffffffffffffffffffffffffff167f8be0079c531659141344cd1fd0a4f28419497f9722a3daafe3b4186f6b6457e060405160405180910390a360008060006101000a81548173ffffffffffffffffffffffffffffffffffffffff021916908373ffffffffffffffffffffffffffffffffffffffff160217905550565b6124376139e8565b600d6000838152602001908152602001600020604051806080016040529081600082015481526020016001820154815260200160028201805480602002602001604051908101604052809291908181526020016000905b8282101561253a5783829060005260206000200180546124ad90615712565b80601f01602080910402602001604051908101604052809291908181526020018280546124d990615712565b80156125265780601f106124fb57610100808354040283529160200191612526565b820191906000526020600020905b81548152906001019060200180831161250957829003601f168201915b50505050508152602001906001019061248e565b50505050815260200160038201600580602002604051908101604052809291906000905b828210156125c7578382018054806020026020016040519081016040528092919081815260200182805480156125b357602002820191906000526020600020905b81548152602001906001019080831161259f575b50505050508152602001906001019061255e565b50505050815250509050919050565b600080600d600085815260200190815260200160002060010154905060005b60058110156126415781848260058110612612576126116158dd565b5b602002013561262191906154d7565b8361262c9190615481565b92508080612639906157dd565b9150506125f5565b506126963283601260003273ffffffffffffffffffffffffffffffffffffffff1673ffffffffffffffffffffffffffffffffffffffff168152602001908152602001600020546126919190615481565b613554565b6126d5576040517f08c379a00000000000000000000000000000000000000000000000000000000081526004016126cc90614f75565b60405180910390fd5b81601260003273ffffffffffffffffffffffffffffffffffffffff1673ffffffffffffffffffffffffffffffffffffffff16815260200190815260200160002060008282546127249190615481565b9250508190555060405180608001604052808581526020013273ffffffffffffffffffffffffffffffffffffffff168152602001846005806020026040519081016040528092919082600560200280828437600081840152601f19601f8201169050808301925050505050508152602001838152506011600060145481526020019081526020016000206000820151816000015560208201518160010160006101000a81548173ffffffffffffffffffffffffffffffffffffffff021916908373ffffffffffffffffffffffffffffffffffffffff160217905550604082015181600201906005612816929190613a19565b5060608201518160070155905050601360003273ffffffffffffffffffffffffffffffffffffffff1673ffffffffffffffffffffffffffffffffffffffff16815260200190815260200160002060145490806001815401808255809150506001900390600052602060002001600090919091909150556014600081548092919061289f906157dd565b919050555050505050565b6060600f600083815260200190815260200160002080548060200260200160405190810160405280929190818152602001828054801561290957602002820191906000526020600020905b8154815260200190600101908083116128f5575b50505050509050919050565b600080826040516024016129299190614d85565b6040516020818303038152906040527f8b3f863f000000000000000000000000000000000000000000000000000000007bffffffffffffffffffffffffffffffffffffffffffffffffffffffff19166020820180517bffffffffffffffffffffffffffffffffffffffffffffffffffffffff83818316178352505050509050600080600a60009054906101000a900473ffffffffffffffffffffffffffffffffffffffff1673ffffffffffffffffffffffffffffffffffffffff16836040516129f29190614d6e565b6000604051808303816000865af19150503d8060008114612a2f576040519150601f19603f3d011682016040523d82523d6000602084013e612a34565b606091505b509150915080612a4390615645565b60001c9350505050919050565b60008060009054906101000a900473ffffffffffffffffffffffffffffffffffffffff16905090565b60008060009054906101000a900473ffffffffffffffffffffffffffffffffffffffff1673ffffffffffffffffffffffffffffffffffffffff163373ffffffffffffffffffffffffffffffffffffffff1614905090565b846002819055508360038190555060005b83839050811015612b5057838382818110612aff57612afe6158dd565b5b9050602002810190612b119190615194565b60048381548110612b2557612b246158dd565b5b906000526020600020019190612b3c929190613a59565b508080612b48906157dd565b915050612ae1565b5060005b6005811015612c235760005b828260058110612b7357612b726158dd565b5b602002810190612b839190615131565b9050811015612c0f57828260058110612b9f57612b9e6158dd565b5b602002810190612baf9190615131565b82818110612bc057612bbf6158dd565b5b9050602002013560058360058110612bdb57612bda6158dd565b5b018281548110612bee57612bed6158dd565b5b90600052602060002001819055508080612c07906157dd565b915050612b60565b508080612c1b906157dd565b915050612b54565b505050505050565b6002612c3633612915565b14612c76576040517f08c379a0000000000000000000000000000000000000000000000000000000008152600401612c6d90614f95565b60405180910390fd5b6000801b8514158015612c9f575084600d60008881526020019081526020016000206000015414155b15612cc05784600d6000888152602001908152602001600020600001819055505b60008414158015612ce7575083600d60008881526020019081526020016000206001015414155b15612d085783600d6000888152602001908152602001600020600101819055505b60008383905014612dcb57600d60008781526020019081526020016000206002016000612d359190613adf565b60005b83839050811015612dc957600d6000888152602001908152602001600020600201848483818110612d6c57612d6b6158dd565b5b9050602002810190612d7e9190615194565b90918060018154018082558091505060019003906000526020600020016000909192909192909192909192509190612db7929190613a59565b5080612dc2906157dd565b9050612d38565b505b6000600514612e7257600d60008781526020019081526020016000206003016000612df69190613b00565b60005b600560ff16811015612e7057818160058110612e1857612e176158dd565b5b602002810190612e289190615131565b600d60008a81526020019081526020016000206003018360058110612e5057612e4f6158dd565b5b019190612e5e929190613b13565b5080612e69906157dd565b9050612df9565b505b505050505050565b600c60149054906101000a900460ff1681565b60048181548110612e9d57600080fd5b906000526020600020016000915090508054612eb890615712565b80601f0160208091040260200160405190810160405280929190818152602001828054612ee490615712565b8015612f315780601f10612f0657610100808354040283529160200191612f31565b820191906000526020600020905b815481529060010190602001808311612f1457829003601f168201915b505050505081565b60606001805480602002602001604051908101604052809291908181526020018280548015612f8757602002820191906000526020600020905b815481526020019060010190808311612f73575b5050505050905090565b60136020528160005260406000208181548110612fad57600080fd5b90600052602060002001600091509150505481565b612fca6138ce565b601060008381526020019081526020016000206040518060e0016040529081600082015481526020016001820160009054906101000a900473ffffffffffffffffffffffffffffffffffffffff1673ffffffffffffffffffffffffffffffffffffffff1673ffffffffffffffffffffffffffffffffffffffff1681526020016002820180548060200260200160405190810160405280929190818152602001828054801561309757602002820191906000526020600020905b815481526020019060010190808311613083575b505050505081526020016003820160009054906101000a900460ff161515151581526020016004820180546130cb90615712565b80601f01602080910402602001604051908101604052809291908181526020018280546130f790615712565b80156131445780601f1061311957610100808354040283529160200191613144565b820191906000526020600020905b81548152906001019060200180831161312757829003601f168201915b50505050508152602001600582015481526020016006820160009054906101000a900460ff16600381111561317c5761317b61587f565b5b600381111561318e5761318d61587f565b5b815250509050919050565b600181815481106131a957600080fd5b906000526020600020016000915090505481565b60026131c833612915565b14613208576040517f08c379a00000000000000000000000000000000000000000000000000000000081526004016131ff90614f95565b60405180910390fd5b6001805490508160ff16108015613223575060008160ff1610155b613262576040517f08c379a000000000000000000000000000000000000000000000000000000000815260040161325990614f15565b60405180910390fd5b8160018260ff168154811061327a576132796158dd565b5b90600052602060002001819055505050565b60126020528060005260406000206000915090505481565b6132ac613790565b60116000838152602001908152602001600020604051806080016040529081600082015481526020016001820160009054906101000a900473ffffffffffffffffffffffffffffffffffffffff1673ffffffffffffffffffffffffffffffffffffffff1673ffffffffffffffffffffffffffffffffffffffff16815260200160028201600580602002604051908101604052809291908260058015613366576020028201915b815481526020019060010190808311613352575b505050505081526020016007820154815250509050919050565b613388612a79565b61339157600080fd5b61339a81613699565b50565b60026133a833612915565b146133e8576040517f08c379a00000000000000000000000000000000000000000000000000000000081526004016133df90614f95565b60405180910390fd5b7f44656c65746564000000000000000000000000000000000000000000000000006001828154811061341d5761341c6158dd565b5b906000526020600020018190555060005b600e548110156134bb576000600d6000838152602001908152602001600020905060005b600560ff168110156134a8576000826003018260058110613476576134756158dd565b5b018581548110613489576134886158dd565b5b9060005260206000200181905550806134a1906157dd565b9050613452565b5050806134b4906157dd565b905061342e565b5050565b60026134ca33612915565b1461350a576040517f08c379a000000000000000000000000000000000000000000000000000000000815260040161350190614f95565b60405180910390fd5b80600a60006101000a81548173ffffffffffffffffffffffffffffffffffffffff021916908373ffffffffffffffffffffffffffffffffffffffff16021790555050565b600e5481565b600080836040516024016135689190614d85565b6040516020818303038152906040527f70a08231000000000000000000000000000000000000000000000000000000007bffffffffffffffffffffffffffffffffffffffffffffffffffffffff19166020820180517bffffffffffffffffffffffffffffffffffffffffffffffffffffffff83818316178352505050509050600080600a60009054906101000a900473ffffffffffffffffffffffffffffffffffffffff1673ffffffffffffffffffffffffffffffffffffffff16836040516136319190614d6e565b6000604051808303816000865af19150503d806000811461366e576040519150601f19603f3d011682016040523d82523d6000602084013e613673565b606091505b509150915060008161368490615645565b9050858160001c101594505050505092915050565b600073ffffffffffffffffffffffffffffffffffffffff168173ffffffffffffffffffffffffffffffffffffffff1614156136d357600080fd5b8073ffffffffffffffffffffffffffffffffffffffff1660008054906101000a900473ffffffffffffffffffffffffffffffffffffffff1673ffffffffffffffffffffffffffffffffffffffff167f8be0079c531659141344cd1fd0a4f28419497f9722a3daafe3b4186f6b6457e060405160405180910390a3806000806101000a81548173ffffffffffffffffffffffffffffffffffffffff021916908373ffffffffffffffffffffffffffffffffffffffff16021790555050565b604051806080016040528060008152602001600073ffffffffffffffffffffffffffffffffffffffff1681526020016137c7613b60565b8152602001600081525090565b6040518060a001604052806005905b60608152602001906001900390816137e35790505090565b828054828255906000526020600020908101928215613837579160200282015b8281111561383657825182559160200191906001019061381b565b5b5090506138449190613b82565b5090565b82805461385490615712565b90600052602060002090601f01602090048101928261387657600085556138bd565b82601f1061388f57805160ff19168380011785556138bd565b828001600101855582156138bd579182015b828111156138bc5782518255916020019190600101906138a1565b5b5090506138ca9190613b82565b5090565b6040518060e0016040528060008152602001600073ffffffffffffffffffffffffffffffffffffffff1681526020016060815260200160001515815260200160608152602001600081526020016000600381111561392f5761392e61587f565b5b81525090565b828054828255906000526020600020908101928215613984579160200282015b82811115613983578251829080519060200190613973929190613848565b5091602001919060010190613955565b5b5090506139919190613b9f565b5090565b82600581019282156139d7579160200282015b828111156139d65782518290805190602001906139c69291906137fb565b50916020019190600101906139a8565b5b5090506139e49190613bc3565b5090565b6040518060800160405280600080191681526020016000815260200160608152602001613a136137d4565b81525090565b8260058101928215613a48579160200282015b82811115613a47578251825591602001919060010190613a2c565b5b509050613a559190613b82565b5090565b828054613a6590615712565b90600052602060002090601f016020900481019282613a875760008555613ace565b82601f10613aa057803560ff1916838001178555613ace565b82800160010185558215613ace579182015b82811115613acd578235825591602001919060010190613ab2565b5b509050613adb9190613b82565b5090565b5080546000825590600052602060002090810190613afd9190613b9f565b50565b508060050190613b109190613bc3565b50565b828054828255906000526020600020908101928215613b4f579160200282015b82811115613b4e578235825591602001919060010190613b33565b5b509050613b5c9190613b82565b5090565b6040518060a00160405280600590602082028036833780820191505090505090565b5b80821115613b9b576000816000905550600101613b83565b5090565b5b80821115613bbf5760008181613bb69190613be7565b50600101613ba0565b5090565b5b80821115613be35760008181613bda9190613c27565b50600101613bc4565b5090565b508054613bf390615712565b6000825580601f10613c055750613c24565b601f016020900490600052602060002090810190613c239190613b82565b5b50565b5080546000825590600052602060002090810190613c459190613b82565b50565b6000613c5b613c568461521c565b6151f7565b90508082856020860282011115613c7557613c74615977565b5b60005b85811015613cc357813567ffffffffffffffff811115613c9b57613c9a615968565b5b808601613ca88982613f12565b85526020850194506020840193505050600181019050613c78565b5050509392505050565b6000613ce0613cdb84615242565b6151f7565b90508083825260208201905082856020860282011115613d0357613d02615977565b5b60005b85811015613d5157813567ffffffffffffffff811115613d2957613d28615968565b5b808601613d368982613fa9565b85526020850194506020840193505050600181019050613d06565b5050509392505050565b6000613d6e613d698461526e565b6151f7565b90508083825260208201905082856020860282011115613d9157613d90615977565b5b60005b85811015613dc15781613da78882613fd7565b845260208401935060208301925050600181019050613d94565b5050509392505050565b6000613dde613dd98461529a565b6151f7565b905082815260208101848484011115613dfa57613df9615981565b5b613e058482856156d0565b509392505050565b600081359050613e1c81615b60565b92915050565b60008083601f840112613e3857613e37615968565b5b8235905067ffffffffffffffff811115613e5557613e54615963565b5b602083019150836020820283011115613e7157613e70615977565b5b9250929050565b600081905082602060050282011115613e9457613e93615977565b5b92915050565b60008083601f840112613eb057613eaf615968565b5b8235905067ffffffffffffffff811115613ecd57613ecc615963565b5b602083019150836020820283011115613ee957613ee8615977565b5b9250929050565b600081905082602060050282011115613f0c57613f0b615977565b5b92915050565b600082601f830112613f2757613f26615968565b5b8135613f37848260208601613d5b565b91505092915050565b600081359050613f4f81615b77565b92915050565b600081519050613f6481615b77565b92915050565b600081359050613f7981615b8e565b92915050565b600081519050613f8e81615b8e565b92915050565b600081359050613fa381615ba5565b92915050565b600082601f830112613fbe57613fbd615968565b5b8135613fce848260208601613dcb565b91505092915050565b600081359050613fe681615bb5565b92915050565b600081359050613ffb81615bcc565b92915050565b6000602082840312156140175761401661598b565b5b600061402584828501613e0d565b91505092915050565b600080604083850312156140455761404461598b565b5b600061405385828601613e0d565b925050602061406485828601613fd7565b9150509250929050565b6000602082840312156140845761408361598b565b5b600061409284828501613f55565b91505092915050565b600080604083850312156140b2576140b161598b565b5b60006140c085828601613f40565b925050602083013567ffffffffffffffff8111156140e1576140e0615986565b5b6140ed85828601613fa9565b9150509250929050565b60006020828403121561410d5761410c61598b565b5b600061411b84828501613f6a565b91505092915050565b60006020828403121561413a5761413961598b565b5b600061414884828501613f7f565b91505092915050565b60008060008060006080868803121561416d5761416c61598b565b5b600061417b88828901613f6a565b955050602061418c88828901613fd7565b945050604086013567ffffffffffffffff8111156141ad576141ac615986565b5b6141b988828901613e9a565b9350935050606086013567ffffffffffffffff8111156141dc576141db615986565b5b6141e888828901613e78565b9150509295509295909350565b6000806040838503121561420c5761420b61598b565b5b600061421a85828601613f6a565b925050602061422b85828601613fec565b9150509250929050565b60006020828403121561424b5761424a61598b565b5b600061425984828501613fd7565b91505092915050565b60008060006040848603121561427b5761427a61598b565b5b600061428986828701613fd7565b935050602084013567ffffffffffffffff8111156142aa576142a9615986565b5b6142b686828701613e22565b92509250509250925092565b60008060c083850312156142d9576142d861598b565b5b60006142e785828601613fd7565b92505060206142f885828601613ef0565b9150509250929050565b60008060008060006080868803121561431e5761431d61598b565b5b600061432c88828901613fd7565b955050602061433d88828901613f6a565b945050604086013567ffffffffffffffff81111561435e5761435d615986565b5b61436a88828901613e9a565b9350935050606086013567ffffffffffffffff81111561438d5761438c615986565b5b61439988828901613e78565b9150509295509295909350565b60008060008060008060a087890312156143c3576143c261598b565b5b60006143d189828a01613fd7565b96505060206143e289828a01613f6a565b95505060406143f389828a01613fd7565b945050606087013567ffffffffffffffff81111561441457614413615986565b5b61442089828a01613e9a565b9350935050608087013567ffffffffffffffff81111561444357614442615986565b5b61444f89828a01613e78565b9150509295509295509295565b600080604083850312156144735761447261598b565b5b600061448185828601613fd7565b925050602061449285828601613f94565b9150509250929050565b6000602082840312156144b2576144b161598b565b5b60006144c084828501613fec565b91505092915050565b60006144d58383614762565b905092915050565b60006144e983836148a1565b60208301905092915050565b600061450183836148ff565b905092915050565b60006145158383614d23565b60208301905092915050565b61452a816155a9565b82525050565b614539816155a9565b82525050565b614548816155a9565b82525050565b600061455982615349565b61456381856153ef565b935083602082028501614575856152cb565b8060005b858110156145b1578484038952815161459285826144c9565b945061459d836153a1565b925060208a01995050600181019050614579565b50829750879550505050505092915050565b60006145ce82615349565b6145d881856153fa565b9350836020820285016145ea856152cb565b8060005b85811015614626578484038952815161460785826144c9565b9450614612836153a1565b925060208a019950506001810190506145ee565b50829750879550505050505092915050565b600061464382615354565b61464d8185615405565b9350614658836152d5565b8060005b8381101561468957815161467088826144dd565b975061467b836153ae565b92505060018101905061465c565b5085935050505092915050565b60006146a18261535f565b6146ab8185615416565b9350836020820285016146bd856152e5565b8060005b858110156146f957848403895281516146da85826144f5565b94506146e5836153bb565b925060208a019950506001810190506146c1565b50829750879550505050505092915050565b6147148161536a565b61471e8184615427565b9250614729826152f5565b8060005b8381101561475a5781516147418782614509565b965061474c836153c8565b92505060018101905061472d565b505050505050565b600061476d82615375565b6147778185615432565b9350614782836152ff565b8060005b838110156147b357815161479a8882614509565b97506147a5836153d5565b925050600181019050614786565b5085935050505092915050565b60006147cb82615375565b6147d58185615443565b93506147e0836152ff565b8060005b838110156148115781516147f88882614509565b9750614803836153d5565b9250506001810190506147e4565b5085935050505092915050565b600061482982615380565b6148338185615432565b935061483e8361530f565b8060005b838110156148765761485382615950565b61485d8882614509565b9750614868836153e2565b925050600181019050614842565b5085935050505092915050565b61488c816155bb565b82525050565b61489b816155bb565b82525050565b6148aa816155c7565b82525050565b6148b9816155c7565b82525050565b60006148ca8261538b565b6148d48185615454565b93506148e48185602086016156df565b80840191505092915050565b6148f9816156ac565b82525050565b600061490a82615396565b614914818561545f565b93506149248185602086016156df565b61492d81615990565b840191505092915050565b600061494382615396565b61494d8185615470565b935061495d8185602086016156df565b61496681615990565b840191505092915050565b6000815461497e81615712565b614988818661545f565b945060018216600081146149a357600181146149b5576149e8565b60ff19831686526020860193506149e8565b6149be85615334565b60005b838110156149e0578154818901526001820191506020810190506149c1565b808801955050505b50505092915050565b60006149fe601083615470565b9150614a09826159bb565b602082019050919050565b6000614a21601383615470565b9150614a2c826159e4565b602082019050919050565b6000614a44602583615470565b9150614a4f82615a0d565b604082019050919050565b6000614a67602783615470565b9150614a7282615a5c565b604082019050919050565b6000614a8a601983615470565b9150614a9582615aab565b602082019050919050565b6000614aad601283615470565b9150614ab882615ad4565b602082019050919050565b6000614ad0602483615470565b9150614adb82615afd565b604082019050919050565b6000608083016000830151614afe60008601826148a1565b506020830151614b116020860182614d23565b5060408301518482036040860152614b298282614696565b91505060608301518482036060860152614b43828261454e565b9150508091505092915050565b600060e083016000830151614b686000860182614d23565b506020830151614b7b6020860182614521565b5060408301518482036040860152614b938282614762565b9150506060830151614ba86060860182614883565b5060808301518482036080860152614bc082826148ff565b91505060a0830151614bd560a0860182614d23565b5060c0830151614be860c08601826148f0565b508091505092915050565b600060e083016000808401549050614c0a81615792565b614c176000870182614d23565b5060018401549050614c2881615744565b614c356020870182614521565b50600284018583036040870152614c4c838261481e565b92505060038401549050614c5f8161575e565b614c6c6060870182614883565b50600484018583036080870152614c838382614971565b92505060058401549050614c9681615792565b614ca360a0870182614d23565b5060068401549050614cb481615778565b614cc160c08701826148f0565b50819250505092915050565b61010082016000820151614ce46000850182614d23565b506020820151614cf76020850182614521565b506040820151614d0a604085018261470b565b506060820151614d1d60e0850182614d23565b50505050565b614d2c81615604565b82525050565b614d3b81615604565b82525050565b614d4a81615604565b82525050565b614d59816156be565b82525050565b614d688161560e565b82525050565b6000614d7a82846148bf565b915081905092915050565b6000602082019050614d9a6000830184614530565b92915050565b6000604082019050614db5600083018561453f565b614dc2602083018461453f565b9392505050565b6000608082019050614dde600083018761453f565b614deb602083018661453f565b614df8604083018561453f565b614e056060830184614d41565b95945050505050565b60006020820190508181036000830152614e2881846145c3565b905092915050565b60006020820190508181036000830152614e4a8184614638565b905092915050565b60006020820190508181036000830152614e6c81846147c0565b905092915050565b6000602082019050614e896000830184614892565b92915050565b6000602082019050614ea460008301846148b0565b92915050565b6000604082019050614ebf60008301856148b0565b614ecc6020830184614d32565b9392505050565b60006020820190508181036000830152614eed8184614938565b905092915050565b60006020820190508181036000830152614f0e816149f1565b9050919050565b60006020820190508181036000830152614f2e81614a14565b9050919050565b60006020820190508181036000830152614f4e81614a37565b9050919050565b60006020820190508181036000830152614f6e81614a5a565b9050919050565b60006020820190508181036000830152614f8e81614a7d565b9050919050565b60006020820190508181036000830152614fae81614aa0565b9050919050565b60006020820190508181036000830152614fce81614ac3565b9050919050565b60006020820190508181036000830152614fef8184614ae6565b905092915050565b600060208201905081810360008301526150118184614b50565b905092915050565b600060208201905081810360008301526150338184614bf3565b905092915050565b6000610100820190506150516000830184614ccd565b92915050565b600060208201905061506c6000830184614d32565b92915050565b60006060820190506150876000830186614d32565b6150946020830185614530565b6150a16040830184614d32565b949350505050565b60006080820190506150be6000830187614d32565b6150cb6020830186614d32565b6150d86040830185614d5f565b6150e56060830184614d50565b95945050505050565b60006020820190506151036000830184614d5f565b92915050565b60008235600160a00383360303811261512557615124615972565b5b80830191505092915050565b6000808335600160200384360303811261514e5761514d615972565b5b80840192508235915067ffffffffffffffff8211156151705761516f61596d565b5b60208301925060208202360383131561518c5761518b61597c565b5b509250929050565b600080833560016020038436030381126151b1576151b0615972565b5b80840192508235915067ffffffffffffffff8211156151d3576151d261596d565b5b6020830192506001820236038313156151ef576151ee61597c565b5b509250929050565b6000615201615212565b905061520d82826157ac565b919050565b6000604051905090565b600067ffffffffffffffff8211156152375761523661590c565b5b602082029050919050565b600067ffffffffffffffff82111561525d5761525c61590c565b5b602082029050602081019050919050565b600067ffffffffffffffff8211156152895761528861590c565b5b602082029050602081019050919050565b600067ffffffffffffffff8211156152b5576152b461590c565b5b6152be82615990565b9050602081019050919050565b6000819050919050565b6000819050602082019050919050565b6000819050602082019050919050565b6000819050919050565b6000819050602082019050919050565b60008190508160005260206000209050919050565b6000819050602082019050919050565b60008190508160005260206000209050919050565b600060059050919050565b600081519050919050565b600081519050919050565b600060059050919050565b600081519050919050565b600081549050919050565b600081519050919050565b600081519050919050565b6000602082019050919050565b6000602082019050919050565b6000602082019050919050565b6000602082019050919050565b6000602082019050919050565b6000600182019050919050565b600081905092915050565b600081905092915050565b600082825260208201905092915050565b600082825260208201905092915050565b600081905092915050565b600082825260208201905092915050565b600082825260208201905092915050565b600081905092915050565b600082825260208201905092915050565b600082825260208201905092915050565b600061548c82615604565b915061549783615604565b9250827fffffffffffffffffffffffffffffffffffffffffffffffffffffffffffffffff038211156154cc576154cb615850565b5b828201905092915050565b60006154e282615604565b91506154ed83615604565b9250817fffffffffffffffffffffffffffffffffffffffffffffffffffffffffffffffff048311821515161561552657615525615850565b5b828202905092915050565b600061553c82615604565b915061554783615604565b92508282101561555a57615559615850565b5b828203905092915050565b600073ffffffffffffffffffffffffffffffffffffffff82169050919050565b600060ff82169050919050565b600060ff82169050919050565b6000819050919050565b60006155b4826155e4565b9050919050565b60008115159050919050565b6000819050919050565b60008190506155df82615b4c565b919050565b600073ffffffffffffffffffffffffffffffffffffffff82169050919050565b6000819050919050565b600060ff82169050919050565b600061562936600584613c48565b9050919050565b600061563d368484613ccd565b905092915050565b60006156508261538b565b8261565a84615324565b90506156658161593b565b925060208210156156a5576156a07fffffffffffffffffffffffffffffffffffffffffffffffffffffffffffffffff836020036008026159a1565b831692505b5050919050565b60006156b7826155d1565b9050919050565b60006156c98261560e565b9050919050565b82818337600083830152505050565b60005b838110156156fd5780820151818401526020810190506156e2565b8381111561570c576000848401525b50505050565b6000600282049050600182168061572a57607f821691505b6020821081141561573e5761573d6158ae565b5b50919050565b6000615757615752836159ae565b615565565b9050919050565b600061577161576c836159ae565b615585565b9050919050565b600061578b615786836159ae565b615592565b9050919050565b60006157a56157a0836159ae565b61559f565b9050919050565b6157b582615990565b810181811067ffffffffffffffff821117156157d4576157d361590c565b5b80604052505050565b60006157e882615604565b91507fffffffffffffffffffffffffffffffffffffffffffffffffffffffffffffffff82141561581b5761581a615850565b5b600182019050919050565b60006158318261560e565b915060ff82141561584557615844615850565b5b600182019050919050565b7f4e487b7100000000000000000000000000000000000000000000000000000000600052601160045260246000fd5b7f4e487b7100000000000000000000000000000000000000000000000000000000600052602160045260246000fd5b7f4e487b7100000000000000000000000000000000000000000000000000000000600052602260045260246000fd5b7f4e487b7100000000000000000000000000000000000000000000000000000000600052603260045260246000fd5b7f4e487b7100000000000000000000000000000000000000000000000000000000600052604160045260246000fd5b600061594782516155c7565b80915050919050565b600061595c8254615792565b9050919050565b600080fd5b600080fd5b600080fd5b600080fd5b600080fd5b600080fd5b600080fd5b600080fd5b600080fd5b6000601f19601f8301169050919050565b600082821b905092915050565b60008160001c9050919050565b7f4e6f7420656e6f7567682073746f636b00000000000000000000000000000000600082015250565b7f696e76616c6964206c6f636174696f6e20696400000000000000000000000000600082015250565b7f4e65772072656f7264657220616d6f756e742073686f756c6420626520706f7360008201527f6974697665000000000000000000000000000000000000000000000000000000602082015250565b7f74686973206e6578745f6269674f726465725f696420697320616c726561647960008201527f20696e2075736500000000000000000000000000000000000000000000000000602082015250565b7f63616e206e6f74206166666f72642074686973206f7264657200000000000000600082015250565b7f6d757374206265204d6572636841646d696e0000000000000000000000000000600082015250565b7f696e76616c6964206e6577206c696d6974202d206d75737420626520706f736960008201527f7469766500000000000000000000000000000000000000000000000000000000602082015250565b60048110615b5d57615b5c61587f565b5b50565b615b69816155a9565b8114615b7457600080fd5b50565b615b80816155bb565b8114615b8b57600080fd5b50565b615b97816155c7565b8114615ba257600080fd5b50565b60048110615bb257600080fd5b50565b615bbe81615604565b8114615bc957600080fd5b50565b615bd58161560e565b8114615be057600080fd5b5056fea2646970667358221220b95e519d4d82e5a092807d29df6d60d8ad0214b3ae2d4654d6719312f333e23564736f6c63430008060033",
  "immutableReferences": {},
  "source": "/*\r\n    TODO:\r\n        - fix this error: \"Copying nested calldata dynamic arrays to storage is not implemented in the old code generator\"\r\n        - DONE: get rid of the studentID OR blocktime stuff and just map student ids to a list of uints that are BigOrderIds, use the bigOrderId to access BigOrder directly\r\n        - DONE: create LowInventory Event \r\n        - DONE: monitor inventory levels and emit LowInventory event whenever necessary\r\n        - DONE: creating 3 user groups (admin (diff from GiesCoin admin), profs, students) with correct permissions\r\n        - DONE: modifier based on above groups^\r\n        - DONE: how to track which warehouse inventory is located in within the item data structure (2d arrays!!)\r\n        - create WarehouseOrder event (to pass order details to UPS, FedEx, etc when a student successfully orders)\r\n            - semidone, not sure if we can just emit a bigOrder datatype, might have to deconstruct:\r\n            - we'll figure out in frontend which location to ship from, so we need some safe way for only our \r\n                server script to update the contract back with which location things were actually sent from and\r\n                DONE: only then to subtract the inventory\r\n                DONE: need to change a lot in createBigOrder as a result - bigOrder shouldn't change inventory itself now\r\n        - DONE: which addy should we send the coins to when students paid - DLab global var\r\n        - DONE: update updateItemDetails function to accept as input which warehouse this item resides at\r\n        - DONE: separate MerchCoin ERC20 contract\r\n        - DONE: remove all interaction with GiesCoin\r\n        - Add error messages in require statements\r\n\r\n        required server scripts (in Python using web3.py):\r\n        1. Order inventory from MarComm when it is low (and send to correct location)\r\n            listen for event LowInventory\r\n            send email to MarComm with required information to place order\r\n                check with Jake if Univ has email automation API/service\r\n        2. Pass a student's order into shipper fulfillment software\r\n            listen for event WarehouseOrder (see BigOrder struct for data details)\r\n            Determine which location we should be taking inventory from (talk to Jake about how to decide)\r\n            Pass correct order details into the shipping provider software\r\n*/\r\n\r\n\r\n// Marketplace\r\n// Contract to handle marketplace\r\n\r\npragma solidity ^0.8.6;\r\n// SPDX-License-Identifier: UNLICENSED\r\n\r\nimport \"./Libraries.sol\";\r\nimport \"./Ownership.sol\";\r\n\r\ncontract Marketplace is Ownable { \r\n    // Used to check permissions\r\n    using Accessibility for address;\r\n    using UtilFunctions for bytes32;\r\n\r\n    // enum Size {XXS, XS, S, M, L, XL, XXL, XXXL}\r\n    enum Size {XS, S, M, L, XL}         // to keep the data more slim\r\n    uint8 constant size_size = 5;                // state var for the above\r\n    enum Statuses {Ordered, Prepared, Shipped, Delivered}\r\n\r\n    bytes32[] public locations;\r\n\r\n    function getLocations() public view returns (bytes32[] memory){\r\n        return locations;\r\n    }\r\n\r\n    uint256 public testInt = 20;\r\n    bytes32 public testBytes32 = bytes32(\"original Test\");\r\n    string[] public testStringArray = [\"many\"];\r\n    uint256[][size_size] testNestedArray = [[0],[0],[0],[0],[0]];\r\n    function getTestNestedArray () public view returns (uint256[][size_size] memory){\r\n        return testNestedArray;\r\n    }\r\n    \r\n    function testSimpleWrite(uint256 _newInt, bytes32 _newBytes32, string[] calldata _newStringArray, uint256[][size_size] calldata _newNestedArray) public {\r\n        testInt = _newInt;\r\n        testBytes32 = _newBytes32;\r\n        for (uint i = 0; i<_newStringArray.length; i++){\r\n            testStringArray[i] = _newStringArray[i];\r\n        }\r\n        for (uint i = 0; i<_newNestedArray.length; i++){\r\n            for (uint j = 0; j<_newNestedArray[i].length; j++){\r\n                testNestedArray[i][j] = _newNestedArray[i][j];\r\n            }\r\n        }\r\n    }\r\n\r\n\r\n    function addLocation (bytes32 _new_location) public onlyMerchAdmin {\r\n        locations.push(_new_location);\r\n        // go through every size in every item, set inventory for new location as 0\r\n        // expensive!!\r\n        for (uint temp_itemId = 0; temp_itemId < next_item_id; ++temp_itemId){\r\n            Item storage item = item_ids_to_items[temp_itemId];\r\n            for (uint i = 0; i<size_size; ++i){\r\n                item.quant_by_size_and_location[i].push(0);\r\n            }\r\n        } \r\n    }    \r\n     \r\n    function deleteLocation (uint256 _location_id) public onlyMerchAdmin {\r\n        \r\n        // set location to string \"Deleted\" in hex (bytes32)\r\n        locations[_location_id] = bytes32(\"Deleted\");\r\n\r\n        // go through every size in every item and set inventory for this location to 0\r\n        // expensive!!\r\n        for (uint temp_itemId = 0; temp_itemId < next_item_id; ++temp_itemId){\r\n            Item storage item = item_ids_to_items[temp_itemId];\r\n            for (uint i = 0; i < size_size; ++i){\r\n                item.quant_by_size_and_location[i][_location_id] = 0;\r\n            }\r\n        } \r\n    }\r\n\r\n    function changeLocationPhrase (bytes32 _new_phrase, uint8 _location_id) public onlyMerchAdmin {\r\n        require((_location_id < locations.length) && (_location_id>=0),\"invalid location id\");    // range check the _location_id\r\n        locations[_location_id] = _new_phrase;                                  // reset location bytes32\r\n    }\r\n\r\n    address merchCoin;                      // address for the MerchCoin ERC20 token\r\n    function setMerchCoinAddress (address _new_address) public onlyMerchAdmin {\r\n        merchCoin = _new_address;\r\n    }\r\n\r\n    address DLab;           // Disruption Lab's address, for transfering Gies Coin post-purchase\r\n                // this same address should be used for any backend scripts\r\n\r\n   \r\n    enum Users {student, prof, merchAdmin}\r\n\r\n    function getUserType (address _address) public returns (uint256) {\r\n\r\n        // talk to MerchCoin ERC20 contract\r\n        bytes memory payload = abi.encodeWithSignature(\"getUserType(address)\", _address);\r\n        (bool success, bytes memory returnData) = address(merchCoin).call(payload);\r\n        return uint256(bytes32(returnData));\r\n    }\r\n\r\n    modifier onlyMerchAdmin () {\r\n        require(getUserType(msg.sender) == 2, \"must be MerchAdmin\");\r\n        _;\r\n    }\r\n\r\n\r\n    address adminContractAddress;      // the actual base admin contract address\r\n\r\n\r\n    uint8 public low_inventory_limit;       // defining the safe stock level\r\n    uint8 public reorder_amount;            // amount to order after dropping below safe stock level\r\n\r\n    function setLowInventoryLimit(uint8 _new_limit) public onlyMerchAdmin {\r\n        require(_new_limit>0,\"invalid new limit - must be positive\");\r\n        low_inventory_limit = _new_limit;\r\n    }\r\n \r\n    function setReorderAmount(uint8 _new_amount) public onlyMerchAdmin  {\r\n        require(_new_amount>0 , \"New reorder amount should be positive\" );\r\n        reorder_amount = _new_amount;\r\n    }\r\n\r\n    event LowInventory(uint256 item_id, uint256 inventory_level, uint8 location, uint256 reorder_amount);\r\n    event WarehouseOrder(bigOrder order);\r\n\r\n\r\n\r\n    // data structures for order details\r\n    mapping(uint256 => Item) public item_ids_to_items;\r\n    uint256 public next_item_id;\r\n\r\n    // multiple mappings to handle nested orders bc solidity ...oof\r\n    mapping (bytes32 => uint256 []) netId_to_bigOrderIds;\r\n    mapping(uint256 => bigOrder) bigOrderId_to_bigOrder;\r\n    mapping(uint256 => itemOrder) public itemOrderId_to_itemOrder; // was private\r\n    mapping(address => uint256) public address_to_running_cost; // was private\r\n    mapping(address => uint256 []) public running_address_to_itemOrderIds;  // was private\r\n    // uint256 private latest_order_id = 0;\r\n    \r\n    uint256 public next_itemOrder_id = 0;\r\n    uint256 public next_bigOrder_id = 0; \r\n    \r\n    \r\n    /// BEGIN GETTERS FOR TESTING PURPOSES - INCOMPLETE (TODO) to remove before deploying\r\n    \r\n    function getItemFromId(uint256 _item_id) public view returns (Item memory){\r\n        return item_ids_to_items[_item_id];\r\n    }\r\n    \r\n    function getBigOrderIdsFromNetId(bytes32 _net_id) public view returns (uint256[] memory){\r\n        return netId_to_bigOrderIds[_net_id];\r\n    }\r\n    \r\n    function getBigOrderFromBigOrderId(uint256 _big_order_id) public view returns (bigOrder memory){\r\n        return bigOrderId_to_bigOrder[_big_order_id];\r\n    }\r\n    \r\n    function getItemOrderFromItemOrderId(uint256 _itemOrderId) public view returns (itemOrder memory) {\r\n        return itemOrderId_to_itemOrder[_itemOrderId];\r\n    }\r\n    \r\n    function getItemOrderIdsFromRunningAddress(address _address) public view returns (uint256 [] memory) {\r\n        return running_address_to_itemOrderIds[_address];\r\n    }\r\n    \r\n    function getRunningCostFromAddress(address _address) public view returns (uint256){\r\n        return address_to_running_cost[_address];\r\n    }\r\n        \r\n    \r\n    \r\n    constructor (\r\n        address _merchCoinAddress,\r\n        address _adminContract,\r\n        address _DLab\r\n    ) {\r\n        merchCoin = _merchCoinAddress;      // address of MerchCoin ERC20 variant\r\n        DLab = _DLab;                       // address of Disruption Lab's account, immutable post deploy\r\n        adminContractAddress = _adminContract; // address of base Admin contract for entire system\r\n        low_inventory_limit = 20;           // arbitrary values for initialization, can be modded\r\n        reorder_amount = 100;               // arbitrary values for initialization, can be modded\r\n        locations.push(bytes32(\"Original Location\"));\r\n    }\r\n\r\n\r\n    // should also figure out some way to add this contract as an approved spender for every student when they login?\r\n    // INCOMPLETE - but lk idek if this is necessary - we can j use tx.origin and get away with it??\r\n\r\n    // Struct to store each item\r\n    struct Item {\r\n        bytes32 name;\r\n        uint256 price;\r\n        string [] urls;             // urls to images of the item\r\n        uint256 [][size_size] quant_by_size_and_location;    // 2d array, first dimension is the size (indez is value in Sizes enum),\r\n                                                    // second dimension is the location, using index in locations[]\r\n    }\r\n\r\n    \r\n    struct itemOrder{\r\n        uint256 item_id;\r\n        address student_chain_address;\r\n        uint256[size_size] item_quantities_ordered_by_size;      // the index in this array is the size (by Sizes enum)\r\n        uint256 item_tokens_paid;\r\n    }\r\n\r\n    struct bigOrder {\r\n        uint256 tokens_paid;\r\n        address student_chain_address;\r\n        uint256[] itemOrderIds;\r\n        bool picking_up_in_person;\r\n        string shipping_address;\r\n        uint256 time_ordered;\r\n        Statuses current_status;\r\n    }\r\n    \r\n    function createItem (\r\n        bytes32 _name,\r\n        uint256 _price,\r\n        string[] calldata _urls,\r\n        uint256[][size_size] calldata _stock_by_size_and_location        // first dimension is location\r\n    ) public onlyMerchAdmin {\r\n\r\n        item_ids_to_items[next_item_id] = Item(\r\n            _name,\r\n            _price,\r\n            _urls,\r\n            _stock_by_size_and_location\r\n        );\r\n        next_item_id++;\r\n    }\r\n\r\n    function updateStatus (\r\n        uint256 _big_order_id, \r\n        Statuses _new_status\r\n    ) \r\n        public onlyMerchAdmin \r\n    {\r\n        bigOrderId_to_bigOrder[_big_order_id].current_status = _new_status;\r\n    }\r\n    \r\n\r\n    function updateItemDetails (\r\n        uint256 _item_id,\r\n        bytes32 _new_name,\r\n        uint256 _new_price,\r\n        string[] calldata _new_urls,\r\n        uint256[][size_size] calldata _new_stocks_by_sizes_and_location\r\n        ) public onlyMerchAdmin\r\n    {\r\n        if ((_new_name!=bytes32(0x0)) && (item_ids_to_items[_item_id].name != _new_name)){\r\n            item_ids_to_items[_item_id].name = _new_name;\r\n        }\r\n        if ((_new_price!=uint256(0)) && (item_ids_to_items[_item_id].price != _new_price)){\r\n            item_ids_to_items[_item_id].price = _new_price;\r\n        }\r\n        if (_new_urls.length != 0) {\r\n            delete item_ids_to_items[_item_id].urls;\r\n\r\n            for (uint i = 0; i < _new_urls.length; ++i) {\r\n                item_ids_to_items[_item_id].urls.push(_new_urls[i]);\r\n            }\r\n        }\r\n        \r\n        if (_new_stocks_by_sizes_and_location.length != 0){\r\n            delete item_ids_to_items[_item_id].quant_by_size_and_location;\r\n\r\n            for (uint i = 0; i < size_size; ++i) {\r\n                item_ids_to_items[_item_id].quant_by_size_and_location[i] = _new_stocks_by_sizes_and_location[i];\r\n            }\r\n\r\n        }\r\n        \r\n    }\r\n\r\n    function netIdToBigOrderIds (bytes32 _netId) public returns (uint256[] memory) {\r\n        require( adminContractAddress.isAdmin(msg.sender) || adminContractAddress.addressToStudentId(msg.sender) == _netId);\r\n        return netId_to_bigOrderIds[_netId];\r\n    }\r\n\r\n    function BigOrderIdToBigOrder (uint256 _big_order_id) public view returns (bigOrder memory) {\r\n        return bigOrderId_to_bigOrder[_big_order_id];\r\n    }\r\n\r\n    function itemOrderIdToItemOrder(uint256 _itemOrderId) public view returns (itemOrder memory) {\r\n        return itemOrderId_to_itemOrder[_itemOrderId];\r\n    }\r\n    \r\n\r\n    // frontend can optionally check this, but we need to do it anyway within purchase in case someone bad tries buying\r\n    function canAfford (address _buyer, uint256 _total_cost) internal returns (bool) { \r\n        // talk to merchCoin smart contract\r\n        bytes memory payload = abi.encodeWithSignature(\"balanceOf(address)\", _buyer);\r\n        (bool success, bytes memory returnData) = address(merchCoin).call(payload);\r\n        bytes32 balance32 = bytes32(returnData);\r\n        // uint256 balance = balance32.bytesToUint();\r\n        return (uint256(balance32)>=_total_cost);\r\n    }\r\n\r\n    function createItemOrder (\r\n        uint256 _item_id,\r\n        uint256[size_size] calldata _item_quantities_ordered_by_size\r\n    ) public {\r\n\r\n        // calculate cost\r\n        uint256 running_price = 0;\r\n        uint256 price =  item_ids_to_items[_item_id].price;\r\n        for (uint i = 0; i< _item_quantities_ordered_by_size.length; i++){\r\n            running_price += _item_quantities_ordered_by_size[i] * price;\r\n        }\r\n\r\n        // check if can afford (using the address_to_running_cost value + new one)\r\n        // moved this up here from createBigOrder bc why wouldn't we just check here\r\n        require(canAfford(tx.origin,address_to_running_cost[tx.origin]+running_price),\"can not afford this order\");\r\n\r\n        // add cost to address_to_running_cost mapping\r\n        address_to_running_cost[tx.origin] += running_price;\r\n\r\n        // wrap into itemOrder object and add to itemOrder mapping\r\n        itemOrderId_to_itemOrder[next_itemOrder_id] = itemOrder(\r\n            _item_id,\r\n            tx.origin,\r\n            _item_quantities_ordered_by_size,\r\n            running_price\r\n        );\r\n\r\n        running_address_to_itemOrderIds[tx.origin].push(next_itemOrder_id);\r\n        \r\n        // increment next_itemOrder_id\r\n        next_itemOrder_id++;\r\n\r\n    }\r\n\r\n\r\n    /**\r\n     * expected behavior: creation of BigOrder, increment bigOrderId, emit WarehouseOrder, reset running_address_to_x mappings\r\n        DOES NOT: actually charge the user, or decrease inventory - done in orderSubmitted instead\r\n     */\r\n    function createBigOrder (\r\n        bool _picking_up_in_person,\r\n        string memory _shipping_address\r\n    ) public {\r\n\r\n        // figure out student_id from address\r\n        bytes32 netId = adminContractAddress.addressToStudentId(tx.origin);\r\n\r\n        // require that next_bigOrder_id isn't already in use\r\n        require(bigOrderId_to_bigOrder[next_bigOrder_id].student_chain_address == address(0x0), \"this next_bigOrder_id is already in use\");\r\n\r\n        // check if can afford (using the address_to_running_cost value + new one)\r\n        require(canAfford(tx.origin,address_to_running_cost[tx.origin]),\"can not afford this order\");\r\n\r\n        \r\n\r\n        // OBJECTIVE: Check that there is enough inventory for entire big order\r\n\r\n        // 1. Iterate through each itemOrder in bigOrder\r\n        // 2. Iterate through each Size in the itemOrder\r\n        // 3. Check the respective quantities (summed across locations) for that size in inventory (Item struct)\r\n            // and check that there is enough in stock, otherwise revert entire transaction with explanation\r\n\r\n        // NOTE:\r\n        // item_ids_to_items[tempItemOrder.item_id] gets the corresponding Item object        \r\n\r\n        // for every itemOrder in this bigOrder\r\n        for (uint i = 0; i < running_address_to_itemOrderIds[tx.origin].length; ++i) {\r\n            itemOrder memory tempItemOrder= itemOrderId_to_itemOrder[running_address_to_itemOrderIds[tx.origin][i]];\r\n            Item memory temp_item = item_ids_to_items[tempItemOrder.item_id];\r\n\r\n            // for every size ordered for this item\r\n            for (uint j = 0; j < tempItemOrder.item_quantities_ordered_by_size.length; ++j) {\r\n                // for (uint k = 0; k < temp_item.quant_by_size_and_location.length; ++k) { \r\n                    uint256 inventory_for_size = 0;\r\n                    // sum across all locations for this size in inventory\r\n                    for (uint l = 0; l < temp_item.quant_by_size_and_location[j].length; ++l){\r\n                        inventory_for_size += temp_item.quant_by_size_and_location[j][l];\r\n                    }\r\n                    // if (tempItemOrder.item_sizes_ordered[j] == temp_item.sizes[k]) {\r\n                        if (tempItemOrder.item_quantities_ordered_by_size[j] > inventory_for_size) {\r\n                            next_itemOrder_id -= running_address_to_itemOrderIds[tx.origin].length;\r\n                            require(false, \"Not enough stock\");\r\n                        }\r\n                    // }\r\n                // }\r\n            }\r\n\r\n        }\r\n\r\n        // Create bigOrder instance\r\n        bigOrderId_to_bigOrder[next_bigOrder_id] = bigOrder(\r\n            address_to_running_cost[tx.origin],         // tokens_paid\r\n            tx.origin,                                  // student_chain_address\r\n            running_address_to_itemOrderIds[tx.origin], // itemOrderIds\r\n            _picking_up_in_person,\r\n            _shipping_address,\r\n            block.timestamp,                            // time_ordered\r\n            Statuses.Ordered\r\n        );\r\n\r\n        // reset address_to_running_cost to 0\r\n        address_to_running_cost[tx.origin] = 0;\r\n\r\n        // reset running_address_to_itemOrderIds to empty array\r\n        uint256[] memory empty_array = new uint256[](1);\r\n        running_address_to_itemOrderIds[tx.origin] = empty_array;\r\n\r\n        \r\n        netId_to_bigOrderIds[netId].push(next_bigOrder_id);\r\n\r\n\r\n        next_bigOrder_id++;         // increment next_bigOrder_id\r\n\r\n        emit WarehouseOrder(bigOrderId_to_bigOrder[next_bigOrder_id-1]);\r\n        \r\n    }\r\n\r\n    /**\r\n     * @param _quantity_by_itemOrder_size_and_location is a 3d array. Outermost level corresponds to the itemOrders, in the same order as they are in the bigOrder\r\n            * the second level corresponds to the sizes, where index is value in Sizes enum\r\n            * and the third level corresponds to the quantity from each location\r\n     * @param _big_order_id is to identify the bigOrder that was fulfilled\r\n     * expected behavior: reduce inventory and charge the user \r\n     */\r\n\r\n    function orderSubmitted (\r\n        uint256 _big_order_id,\r\n        uint256 [] [size_size] [] calldata _quantity_by_itemOrder_size_and_location\r\n        ) public {\r\n        // require(msg.sender == DLab, \"must use server script with DLab address to call this function\");        // TODO - add this line back - only our backend scripts can send this transaction\r\n        uint256 [] memory _itemOrdersIds = bigOrderId_to_bigOrder[_big_order_id].itemOrderIds;\r\n\r\n        // at this point, assuming everything correctly matches\r\n\r\n        // the following code correctly reduces inventory based on the amount\r\n        for (uint i = 0; i < _itemOrdersIds.length; ++i) {\r\n\r\n            Item memory temp_item = item_ids_to_items[itemOrderId_to_itemOrder[_itemOrdersIds[i]].item_id];\r\n\r\n            uint256 [][size_size] memory _size_and_quant_ordered = _quantity_by_itemOrder_size_and_location[i];\r\n\r\n            for (uint j = 0; j < _size_and_quant_ordered.length; ++j) {\r\n                for (uint8 k = 0; k < _size_and_quant_ordered[j].length; ++k) { \r\n                    // decrement inventory for that size at that location (Orders and Items should have identical structure/ordering for location and quantity)\r\n                    uint256 inventory = temp_item.quant_by_size_and_location[j][k];\r\n                    temp_item.quant_by_size_and_location[j][k] -= _size_and_quant_ordered[j][k];\r\n                    if (inventory <= low_inventory_limit){\r\n                        emit LowInventory(_itemOrdersIds[i], temp_item.quant_by_size_and_location[j][k], k, reorder_amount);\r\n                    }\r\n                }\r\n            }\r\n            \r\n        item_ids_to_items[itemOrderId_to_itemOrder[_itemOrdersIds[i]].item_id] = temp_item;\r\n            \r\n        }\r\n\r\n        // transfer correct amount from user's account to DLab's account\r\n        merchCoin.transferFrom(bigOrderId_to_bigOrder[_big_order_id].student_chain_address , DLab, bigOrderId_to_bigOrder[_big_order_id].tokens_paid);\r\n    }\r\n    \r\n\r\n    /* OLD VERSION, before new requirements \r\n    function createBigOrder (\r\n        bool _picking_up_in_person,\r\n        string memory _shipping_address\r\n    ) public {\r\n\r\n        // figure out student_id from address\r\n        bytes32 netId = adminContractAddress.addressTonetId(tx.origin);\r\n        uint256 blocktime = block.timestamp;\r\n        bytes32 key = (netId | bytes32(blocktime)); // bitwise OR of the blocktime in Hex with the netId\r\n            // string-ish data in bytes32 uses the front and appends a bunch of 0s\r\n            // uints converted to bytes use the end and prepend a bunch of 0s\r\n            // this key generation method will work as long as they are less than 32 bytes combined\r\n\r\n        // require that student_id+blocktime key isn't already there\r\n        require(bigOrderId_to_bigOrder[key].student_chain_address == address(0x0));\r\n\r\n        // check if can afford (using the address_to_running_cost value + new one)\r\n        require(canAfford(tx.origin,address_to_running_cost[tx.origin]));\r\n\r\n        // subtract address_to_running_cost value from senders bank account\r\n        // payments are being sent into the admincontract itself\r\n        adminContractAddress.transferFrom(tx.origin , adminContractAddress,address_to_running_cost[tx.origin]);\r\n\r\n\r\n        // Create bigOrder instance\r\n        bigOrderId_to_bigOrder[key] = bigOrder(\r\n            address_to_running_cost[tx.origin],         // tokens_paid\r\n            tx.origin,                                  // student_chain_address\r\n            running_address_to_itemOrderIds[tx.origin], // itemOrderIds\r\n            _picking_up_in_person,\r\n            _shipping_address,\r\n            blocktime,                            // time_ordered\r\n            Statuses.Ordered\r\n        );\r\n\r\n        // should iterate again through all child itemOrders and reduce the stock for sizes\r\n            // why in here, rather than in createItemOrder?? - BC only here are the transactions actually going through\r\n            // (btw which is why the running_address_to_itemOrderIds and address_to_running_cost mappings exist)\r\n            // we should only change stock after the complete transaction has been confirmed\r\n        \r\n        // OBJECTIVE: Check and update the stock for each item ordered\r\n\r\n        // 1. Iterate through each itemOrder in bigOrder\r\n        // 2. Iterate through each Size in the itemOrder\r\n        // 3. Check the respective quantities in the Item object and make sure its allowed\r\n\r\n        // 4. Do it all again to actually change the stock\r\n\r\n        // NOTE:\r\n        // item_ids_to_items[temp.item_id] will get the respective Item object\r\n        \r\n        \r\n        for (uint i = 0; i < running_address_to_itemOrderIds[tx.origin].length; ++i) {\r\n            itemOrder memory temp = itemOrderId_to_itemOrder[running_address_to_itemOrderIds[tx.origin][i]];\r\n            Item memory temp_item = item_ids_to_items[temp.item_id];\r\n\r\n            for (uint j = 0; j < temp.item_sizes_ordered.length; ++j) {\r\n                for (uint k = 0; k < temp_item.sizes.length; ++k) { \r\n                    if (temp.item_sizes_ordered[j] == temp_item.sizes[k]) {\r\n                        if (temp.item_quantities_ordered[j] > temp_item.stocks[k]) {\r\n                            next_itemOrder_id -= running_address_to_itemOrderIds[tx.origin].length;\r\n                            require(false, \"Not enough stock\");\r\n                        }\r\n                    }\r\n                }\r\n            }\r\n        }\r\n\r\n        for (uint i = 0; i < running_address_to_itemOrderIds[tx.origin].length; ++i) {\r\n            itemOrder memory temp = itemOrderId_to_itemOrder[running_address_to_itemOrderIds[tx.origin][i]];\r\n            Item memory temp_item = item_ids_to_items[temp.item_id];\r\n\r\n            for (uint j = 0; j < temp.item_sizes_ordered.length; ++j) {\r\n                for (uint k = 0; k < temp_item.sizes.length; ++k) { \r\n                    if (temp.item_sizes_ordered[j] == temp_item.sizes[k]) {\r\n                        temp_item.stocks[k] -= temp.item_quantities_ordered[j];\r\n                    }\r\n                }\r\n            }\r\n\r\n            itemOrderId_to_itemOrder[running_address_to_itemOrderIds[tx.origin][i]] = temp;\r\n            item_ids_to_items[temp.item_id] = temp_item;\r\n        }\r\n\r\n\r\n        // increment next_itemOrder_id - why are we doing this here?\r\n        // ANSWER: We shouldn't be doing this here, it's j buggin\r\n        // next_itemOrder_id++;\r\n\r\n        // reset address_to_running_cost to 0\r\n        address_to_running_cost[tx.origin] = 0;\r\n\r\n        // reset running_address_to_itemOrderIds to empty array\r\n        uint256[] memory empty_array = new uint256[](1);\r\n        running_address_to_itemOrderIds[tx.origin] = empty_array;\r\n         \r\n        // // push this blocktime into netId => blocktime []\r\n        //  if (netId_to_bigOrderIds[netId].length == 0){ // if currently empty, populate it with this ID\r\n        //     netId_to_bigOrderIds[netId] = [blocktime]; // not empty anymore ^\r\n        // }\r\n        // else{\r\n        //     // otherwise push \r\n        netId_to_bigOrderIds[netId].push(blocktime);\r\n        // }\r\n        \r\n    }\r\n    */\r\n\r\n    /**  OLD DATA STRUCTURE FOR ORDERS\r\n        // did not work because complex data structures containing mappings can't be I/O for public functions\r\n    // Struct to store each order\r\n    struct Order { \r\n        bytes32 student_net_id;\r\n        uint256 tokens_paid;\r\n        address student_chain_address;\r\n        OrderItem [] items_ordered;\r\n        bool picking_up_in_person;\r\n        bytes32 shipping_address;\r\n        bytes32 date_ordered;\r\n        Statuses current_status;\r\n    }\r\n    \r\n    \r\n    //  * goes with above struct, keep them together! for readability\r\n    //  * required because an order might have multiple items, each in multiple sizes/quantities\r\n    //  * this OrderItem struct handles only a single item, and the Order struct contains an array of OrderItems\r\n     \r\n    struct OrderItem {\r\n        bytes32 itemId;\r\n        mapping(bytes32 => uint256) size_to_quantity_ordered;\r\n    }\r\n    \r\n    constructor(address _ERC20Contract, address _adminContractAddress) {\r\n        ERC20Contract = _ERC20Contract;\r\n        adminContractAddress = _adminContractAddress;\r\n    }\r\n\r\n    // TODO: Only admin or student who placed the order should be able to do this\r\n    function getOrderDetailsFromOrderId(uint256 _order_id) onlyAdminOrSender(_order_id) public returns (Order memory) {\r\n        return order_ids_to_orders[_order_id];\r\n    }\r\n\r\n    function purchase(\r\n            bytes32 memory _student_net_id,\r\n            address _student_address,\r\n            bool _picking_up_in_person,\r\n            bytes32 memory _shipping_address,\r\n            bytes32 memory _date_ordered,\r\n            OrderItem[] calldata _items_ordered\r\n        ) public {\r\n        \r\n        // total the cost and subtract that out\r\n        uint256 totalCost = 0;\r\n        for (uint256 i = 0; i<_items_ordered.length; i++){\r\n            OrderItem memory tempItem = _items_ordered[i];\r\n            uint256 _target_item = tempItem.itemId;\r\n            uint256 _unit_price = item_ids_to_items[_target_item].price;\r\n            uint256 _quantity = 0;\r\n            for (uint256 j = Statuses.XXS; j <= Statuses.XXXL; j++) {\r\n                _quantity += tempItem.size_to_quantity_ordered[j];\r\n            }\r\n            totalCost += _quantity * _unit_price;\r\n        }\r\n\r\n        // Make sure the user has enough credits to buy the item\r\n        // require( something to check their current balance);\r\n\r\n        // adding the order to the record\r\n        // mapping(bytes32 => uint256) size_to_quantity_ordered;\r\n        // size_to_quantity_ordered[_size] = _quantity;\r\n        order_ids_to_orders[latest_order_id] = Order(\r\n            _student_net_id,\r\n            totalCost, \r\n            msg.sender, \r\n            _items_ordered, \r\n            _picking_up_in_person,\r\n            _shipping_address,\r\n            _date_ordered,\r\n            Statuses.Ordered\r\n        );\r\n        latest_order_id++;\r\n    }\r\n    */\r\n\r\n}\r\n",
  "sourcePath": "C:\\Users\\Freddy\\Desktop\\iBlock-core\\truffle\\contracts\\Marketplace.sol",
  "compiler": {
    "name": "solc",
    "version": "0.8.6+commit.11564f7e.Emscripten.clang"
  },
  "schemaVersion": "3.4.3",
  "updatedAt": "2022-01-02T22:53:46.436Z",
  "devdoc": {
    "kind": "dev",
    "methods": {
      "isOwner()": {
        "returns": {
          "_0": "true if `msg.sender` is the owner of the contract."
        }
      },
      "orderSubmitted(uint256,uint256[][5][])": {
        "params": {
          "_big_order_id": "is to identify the bigOrder that was fulfilled expected behavior: reduce inventory and charge the user ",
          "_quantity_by_itemOrder_size_and_location": "is a 3d array. Outermost level corresponds to the itemOrders, in the same order as they are in the bigOrder the second level corresponds to the sizes, where index is value in Sizes enum and the third level corresponds to the quantity from each location"
        }
      },
      "owner()": {
        "returns": {
          "_0": "the address of the owner."
        }
      },
      "renounceOwnership()": {
        "details": "Allows the current owner to relinquish control of the contract."
      },
      "transferOwnership(address)": {
        "details": "Allows the current owner to transfer control of the contract to a newOwner.",
        "params": {
          "newOwner": "The address to transfer ownership to."
        }
      }
    },
    "version": 1
  },
  "userdoc": {
    "kind": "user",
    "methods": {
      "createBigOrder(bool,string)": {
        "notice": "expected behavior: creation of BigOrder, increment bigOrderId, emit WarehouseOrder, reset running_address_to_x mappings DOES NOT: actually charge the user, or decrease inventory - done in orderSubmitted instead"
      },
      "getItemFromId(uint256)": {
        "notice": "BEGIN GETTERS FOR TESTING PURPOSES - INCOMPLETE (TODO) to remove before deploying"
      },
      "renounceOwnership()": {
        "notice": "Renouncing to ownership will leave the contract without an owner. It will not be possible to call the functions with the `onlyOwner` modifier anymore."
      }
    },
    "version": 1
  }
}