{
  "_format": "hh-sol-artifact-1",
  "contractName": "Faucet",
  "sourceName": "contracts/Faucet.sol",
  "abi": [
    {
      "inputs": [
        {
          "internalType": "address",
          "name": "_tokenAddress",
          "type": "address"
        },
        {
          "internalType": "uint256",
          "name": "_mintAmount",
          "type": "uint256"
        }
      ],
      "stateMutability": "nonpayable",
      "type": "constructor"
    },
    {
      "anonymous": false,
      "inputs": [
        {
          "indexed": true,
          "internalType": "address",
          "name": "to",
          "type": "address"
        }
      ],
      "name": "Drip",
      "type": "event"
    },
    {
      "anonymous": false,
      "inputs": [
        {
          "indexed": true,
          "internalType": "address",
          "name": "previousOwner",
          "type": "address"
        },
        {
          "indexed": true,
          "internalType": "address",
          "name": "newOwner",
          "type": "address"
        }
      ],
      "name": "OwnershipTransferred",
      "type": "event"
    },
    {
      "inputs": [],
      "name": "drip",
      "outputs": [],
      "stateMutability": "nonpayable",
      "type": "function"
    },
    {
      "inputs": [],
      "name": "owner",
      "outputs": [
        {
          "internalType": "address",
          "name": "",
          "type": "address"
        }
      ],
      "stateMutability": "view",
      "type": "function"
    },
    {
      "inputs": [],
      "name": "renounceOwnership",
      "outputs": [],
      "stateMutability": "nonpayable",
      "type": "function"
    },
    {
      "inputs": [
        {
          "internalType": "address",
          "name": "newOwner",
          "type": "address"
        }
      ],
      "name": "transferOwnership",
      "outputs": [],
      "stateMutability": "nonpayable",
      "type": "function"
    }
  ],
  "bytecode": "0x60806040526107086004553480156200001757600080fd5b506040516200106e3803806200106e83398181016040528101906200003d91906200027c565b6200005d620000516200016b60201b60201c565b6200017360201b60201c565b81600160006101000a81548173ffffffffffffffffffffffffffffffffffffffff021916908373ffffffffffffffffffffffffffffffffffffffff160217905550600160009054906101000a900473ffffffffffffffffffffffffffffffffffffffff1673ffffffffffffffffffffffffffffffffffffffff1663313ce5676040518163ffffffff1660e01b815260040160206040518083038186803b1580156200010757600080fd5b505afa1580156200011c573d6000803e3d6000fd5b505050506040513d601f19601f82011682018060405250810190620001429190620002c3565b600a62000150919062000350565b816200015d91906200048d565b6002819055505050620005c8565b600033905090565b60008060009054906101000a900473ffffffffffffffffffffffffffffffffffffffff169050816000806101000a81548173ffffffffffffffffffffffffffffffffffffffff021916908373ffffffffffffffffffffffffffffffffffffffff1602179055508173ffffffffffffffffffffffffffffffffffffffff168173ffffffffffffffffffffffffffffffffffffffff167f8be0079c531659141344cd1fd0a4f28419497f9722a3daafe3b4186f6b6457e060405160405180910390a35050565b60008151905062000248816200057a565b92915050565b6000815190506200025f8162000594565b92915050565b6000815190506200027681620005ae565b92915050565b6000806040838503121562000296576200029562000568565b5b6000620002a68582860162000237565b9250506020620002b9858286016200024e565b9150509250929050565b600060208284031215620002dc57620002db62000568565b5b6000620002ec8482850162000265565b91505092915050565b6000808291508390505b600185111562000347578086048111156200031f576200031e62000539565b5b60018516156200032f5780820291505b80810290506200033f856200056d565b9450620002ff565b94509492505050565b60006200035d8262000522565b91506200036a836200052c565b9250620003997fffffffffffffffffffffffffffffffffffffffffffffffffffffffffffffffff8484620003a1565b905092915050565b600082620003b3576001905062000486565b81620003c3576000905062000486565b8160018114620003dc5760028114620003e7576200041d565b600191505062000486565b60ff841115620003fc57620003fb62000539565b5b8360020a91508482111562000416576200041562000539565b5b5062000486565b5060208310610133831016604e8410600b8410161715620004575782820a90508381111562000451576200045062000539565b5b62000486565b620004668484846001620002f5565b9250905081840481111562000480576200047f62000539565b5b81810290505b9392505050565b60006200049a8262000522565b9150620004a78362000522565b9250817fffffffffffffffffffffffffffffffffffffffffffffffffffffffffffffffff0483118215151615620004e357620004e262000539565b5b828202905092915050565b6000620004fb8262000502565b9050919050565b600073ffffffffffffffffffffffffffffffffffffffff82169050919050565b6000819050919050565b600060ff82169050919050565b7f4e487b7100000000000000000000000000000000000000000000000000000000600052601160045260246000fd5b600080fd5b60008160011c9050919050565b6200058581620004ee565b81146200059157600080fd5b50565b6200059f8162000522565b8114620005ab57600080fd5b50565b620005b9816200052c565b8114620005c557600080fd5b50565b610a9680620005d86000396000f3fe608060405234801561001057600080fd5b506004361061004c5760003560e01c8063715018a6146100515780638da5cb5b1461005b5780639f678cca14610079578063f2fde38b14610083575b600080fd5b61005961009f565b005b610063610127565b60405161007091906107a0565b60405180910390f35b610081610150565b005b61009d600480360381019061009891906106b3565b610379565b005b6100a7610471565b73ffffffffffffffffffffffffffffffffffffffff166100c5610127565b73ffffffffffffffffffffffffffffffffffffffff161461011b576040517f08c379a000000000000000000000000000000000000000000000000000000000815260040161011290610884565b60405180910390fd5b6101256000610479565b565b60008060009054906101000a900473ffffffffffffffffffffffffffffffffffffffff16905090565b6004544261015e91906108c0565b600560003373ffffffffffffffffffffffffffffffffffffffff1673ffffffffffffffffffffffffffffffffffffffff1681526020019081526020016000205411156101df576040517f08c379a00000000000000000000000000000000000000000000000000000000081526004016101d690610864565b60405180910390fd5b61021e6040518060400160405280601181526020017f4661756365742073656e6465723a2025730000000000000000000000000000008152503361053d565b61025f6040518060400160405280601681526020017f466175636574206d696e7420616d6f756e743a202573000000000000000000008152506002546105d9565b600160009054906101000a900473ffffffffffffffffffffffffffffffffffffffff1673ffffffffffffffffffffffffffffffffffffffff166340c10f19336002546040518363ffffffff1660e01b81526004016102be9291906107bb565b600060405180830381600087803b1580156102d857600080fd5b505af11580156102ec573d6000803e3d6000fd5b5050505042600560003373ffffffffffffffffffffffffffffffffffffffff1673ffffffffffffffffffffffffffffffffffffffff168152602001908152602001600020819055503373ffffffffffffffffffffffffffffffffffffffff167f9a6488909505f07c33edf1a9bfa9c43fc342a86748cabdccbfcec5a3e3ab8d9b60405160405180910390a2565b610381610471565b73ffffffffffffffffffffffffffffffffffffffff1661039f610127565b73ffffffffffffffffffffffffffffffffffffffff16146103f5576040517f08c379a00000000000000000000000000000000000000000000000000000000081526004016103ec90610884565b60405180910390fd5b600073ffffffffffffffffffffffffffffffffffffffff168173ffffffffffffffffffffffffffffffffffffffff161415610465576040517f08c379a000000000000000000000000000000000000000000000000000000000815260040161045c90610844565b60405180910390fd5b61046e81610479565b50565b600033905090565b60008060009054906101000a900473ffffffffffffffffffffffffffffffffffffffff169050816000806101000a81548173ffffffffffffffffffffffffffffffffffffffff021916908373ffffffffffffffffffffffffffffffffffffffff1602179055508173ffffffffffffffffffffffffffffffffffffffff168173ffffffffffffffffffffffffffffffffffffffff167f8be0079c531659141344cd1fd0a4f28419497f9722a3daafe3b4186f6b6457e060405160405180910390a35050565b6105d582826040516024016105539291906107e4565b6040516020818303038152906040527f319af333000000000000000000000000000000000000000000000000000000007bffffffffffffffffffffffffffffffffffffffffffffffffffffffff19166020820180517bffffffffffffffffffffffffffffffffffffffffffffffffffffffff8381831617835250505050610675565b5050565b61067182826040516024016105ef929190610814565b6040516020818303038152906040527f9710a9d0000000000000000000000000000000000000000000000000000000007bffffffffffffffffffffffffffffffffffffffffffffffffffffffff19166020820180517bffffffffffffffffffffffffffffffffffffffffffffffffffffffff8381831617835250505050610675565b5050565b60008151905060006a636f6e736f6c652e6c6f679050602083016000808483855afa5050505050565b6000813590506106ad81610a49565b92915050565b6000602082840312156106c9576106c8610992565b5b60006106d78482850161069e565b91505092915050565b6106e9816108f4565b82525050565b60006106fa826108a4565b61070481856108af565b9350610714818560208601610930565b61071d81610997565b840191505092915050565b60006107356026836108af565b9150610740826109a8565b604082019050919050565b6000610758600d836108af565b9150610763826109f7565b602082019050919050565b600061077b6020836108af565b915061078682610a20565b602082019050919050565b61079a81610926565b82525050565b60006020820190506107b560008301846106e0565b92915050565b60006040820190506107d060008301856106e0565b6107dd6020830184610791565b9392505050565b600060408201905081810360008301526107fe81856106ef565b905061080d60208301846106e0565b9392505050565b6000604082019050818103600083015261082e81856106ef565b905061083d6020830184610791565b9392505050565b6000602082019050818103600083015261085d81610728565b9050919050565b6000602082019050818103600083015261087d8161074b565b9050919050565b6000602082019050818103600083015261089d8161076e565b9050919050565b600081519050919050565b600082825260208201905092915050565b60006108cb82610926565b91506108d683610926565b9250828210156108e9576108e8610963565b5b828203905092915050565b60006108ff82610906565b9050919050565b600073ffffffffffffffffffffffffffffffffffffffff82169050919050565b6000819050919050565b60005b8381101561094e578082015181840152602081019050610933565b8381111561095d576000848401525b50505050565b7f4e487b7100000000000000000000000000000000000000000000000000000000600052601160045260246000fd5b600080fd5b6000601f19601f8301169050919050565b7f4f776e61626c653a206e6577206f776e657220697320746865207a65726f206160008201527f6464726573730000000000000000000000000000000000000000000000000000602082015250565b7f445249505f434f4f4c444f574e00000000000000000000000000000000000000600082015250565b7f4f776e61626c653a2063616c6c6572206973206e6f7420746865206f776e6572600082015250565b610a52816108f4565b8114610a5d57600080fd5b5056fea2646970667358221220a341aceae5a2d3bc541298ffa63747597cd2d3eac17d4da4214568c87289121d64736f6c63430008060033",
  "linkReferences": {},
  "deployedLinkReferences": {}
}