{
  "_format": "hh-sol-artifact-1",
  "contractName": "GiesCoin",
  "sourceName": "contracts/GiesCoin.sol",
  "abi": [
    {
      "inputs": [
        {
          "internalType": "uint256",
          "name": "initialSupply",
          "type": "uint256"
        },
        {
          "internalType": "address",
          "name": "_adminContractAddress",
          "type": "address"
        }
      ],
      "stateMutability": "nonpayable",
      "type": "constructor"
    },
    {
      "anonymous": false,
      "inputs": [
        {
          "indexed": true,
          "internalType": "address",
          "name": "owner",
          "type": "address"
        },
        {
          "indexed": true,
          "internalType": "address",
          "name": "spender",
          "type": "address"
        },
        {
          "indexed": false,
          "internalType": "uint256",
          "name": "value",
          "type": "uint256"
        }
      ],
      "name": "Approval",
      "type": "event"
    },
    {
      "anonymous": false,
      "inputs": [
        {
          "indexed": true,
          "internalType": "address",
          "name": "from",
          "type": "address"
        },
        {
          "indexed": true,
          "internalType": "address",
          "name": "to",
          "type": "address"
        },
        {
          "indexed": false,
          "internalType": "uint256",
          "name": "value",
          "type": "uint256"
        }
      ],
      "name": "Transfer",
      "type": "event"
    },
    {
      "inputs": [
        {
          "internalType": "address",
          "name": "owner",
          "type": "address"
        },
        {
          "internalType": "address",
          "name": "spender",
          "type": "address"
        }
      ],
      "name": "allowance",
      "outputs": [
        {
          "internalType": "uint256",
          "name": "",
          "type": "uint256"
        }
      ],
      "stateMutability": "view",
      "type": "function"
    },
    {
      "inputs": [
        {
          "internalType": "address",
          "name": "spender",
          "type": "address"
        },
        {
          "internalType": "uint256",
          "name": "amount",
          "type": "uint256"
        }
      ],
      "name": "approve",
      "outputs": [
        {
          "internalType": "bool",
          "name": "",
          "type": "bool"
        }
      ],
      "stateMutability": "nonpayable",
      "type": "function"
    },
    {
      "inputs": [
        {
          "internalType": "address",
          "name": "account",
          "type": "address"
        }
      ],
      "name": "balanceOf",
      "outputs": [
        {
          "internalType": "uint256",
          "name": "",
          "type": "uint256"
        }
      ],
      "stateMutability": "view",
      "type": "function"
    },
    {
      "inputs": [
        {
          "internalType": "address",
          "name": "_victim",
          "type": "address"
        },
        {
          "internalType": "uint256",
          "name": "_value",
          "type": "uint256"
        }
      ],
      "name": "confiscate",
      "outputs": [],
      "stateMutability": "nonpayable",
      "type": "function"
    },
    {
      "inputs": [],
      "name": "decimals",
      "outputs": [
        {
          "internalType": "uint8",
          "name": "",
          "type": "uint8"
        }
      ],
      "stateMutability": "view",
      "type": "function"
    },
    {
      "inputs": [
        {
          "internalType": "address",
          "name": "spender",
          "type": "address"
        },
        {
          "internalType": "uint256",
          "name": "subtractedValue",
          "type": "uint256"
        }
      ],
      "name": "decreaseAllowance",
      "outputs": [
        {
          "internalType": "bool",
          "name": "",
          "type": "bool"
        }
      ],
      "stateMutability": "nonpayable",
      "type": "function"
    },
    {
      "inputs": [
        {
          "internalType": "address",
          "name": "spender",
          "type": "address"
        },
        {
          "internalType": "uint256",
          "name": "addedValue",
          "type": "uint256"
        }
      ],
      "name": "increaseAllowance",
      "outputs": [
        {
          "internalType": "bool",
          "name": "",
          "type": "bool"
        }
      ],
      "stateMutability": "nonpayable",
      "type": "function"
    },
    {
      "inputs": [
        {
          "internalType": "uint256",
          "name": "_value",
          "type": "uint256"
        }
      ],
      "name": "mint",
      "outputs": [],
      "stateMutability": "nonpayable",
      "type": "function"
    },
    {
      "inputs": [
        {
          "internalType": "address",
          "name": "_recipient",
          "type": "address"
        },
        {
          "internalType": "uint256",
          "name": "_value",
          "type": "uint256"
        }
      ],
      "name": "mintFor",
      "outputs": [],
      "stateMutability": "nonpayable",
      "type": "function"
    },
    {
      "inputs": [],
      "name": "name",
      "outputs": [
        {
          "internalType": "string",
          "name": "",
          "type": "string"
        }
      ],
      "stateMutability": "view",
      "type": "function"
    },
    {
      "inputs": [],
      "name": "symbol",
      "outputs": [
        {
          "internalType": "string",
          "name": "",
          "type": "string"
        }
      ],
      "stateMutability": "view",
      "type": "function"
    },
    {
      "inputs": [],
      "name": "totalSupply",
      "outputs": [
        {
          "internalType": "uint256",
          "name": "",
          "type": "uint256"
        }
      ],
      "stateMutability": "view",
      "type": "function"
    },
    {
      "inputs": [
        {
          "internalType": "address",
          "name": "recipient",
          "type": "address"
        },
        {
          "internalType": "uint256",
          "name": "amount",
          "type": "uint256"
        }
      ],
      "name": "transfer",
      "outputs": [
        {
          "internalType": "bool",
          "name": "",
          "type": "bool"
        }
      ],
      "stateMutability": "nonpayable",
      "type": "function"
    },
    {
      "inputs": [
        {
          "internalType": "address",
          "name": "sender",
          "type": "address"
        },
        {
          "internalType": "address",
          "name": "recipient",
          "type": "address"
        },
        {
          "internalType": "uint256",
          "name": "amount",
          "type": "uint256"
        }
      ],
      "name": "transferFrom",
      "outputs": [
        {
          "internalType": "bool",
          "name": "",
          "type": "bool"
        }
      ],
      "stateMutability": "nonpayable",
      "type": "function"
    }
  ],
  "bytecode": "0x60806040523480156200001157600080fd5b506040516200263a3803806200263a8339818101604052810190620000379190620003e0565b6040518060400160405280600981526020017f4769657320436f696e00000000000000000000000000000000000000000000008152506040518060400160405280600381526020017f47434f00000000000000000000000000000000000000000000000000000000008152508160039080519060200190620000bb92919062000302565b508060049080519060200190620000d492919062000302565b50505062000125620000eb6200016e60201b60201c565b620000fb6200017660201b60201c565b60ff16600a6200010c919062000567565b84620001199190620006a4565b6200017f60201b60201c565b80600560006101000a81548173ffffffffffffffffffffffffffffffffffffffff021916908373ffffffffffffffffffffffffffffffffffffffff160217905550505062000846565b600033905090565b60006012905090565b600073ffffffffffffffffffffffffffffffffffffffff168273ffffffffffffffffffffffffffffffffffffffff161415620001f2576040517f08c379a0000000000000000000000000000000000000000000000000000000008152600401620001e9906200045f565b60405180910390fd5b6200020660008383620002f860201b60201c565b80600260008282546200021a9190620004af565b92505081905550806000808473ffffffffffffffffffffffffffffffffffffffff1673ffffffffffffffffffffffffffffffffffffffff1681526020019081526020016000206000828254620002719190620004af565b925050819055508173ffffffffffffffffffffffffffffffffffffffff16600073ffffffffffffffffffffffffffffffffffffffff167fddf252ad1be2c89b69c2b068fc378daa952ba7f163c4a11628f55a4df523b3ef83604051620002d8919062000481565b60405180910390a3620002f460008383620002fd60201b60201c565b5050565b505050565b505050565b828054620003109062000743565b90600052602060002090601f01602090048101928262000334576000855562000380565b82601f106200034f57805160ff191683800117855562000380565b8280016001018555821562000380579182015b828111156200037f57825182559160200191906001019062000362565b5b5090506200038f919062000393565b5090565b5b80821115620003ae57600081600090555060010162000394565b5090565b600081519050620003c38162000812565b92915050565b600081519050620003da816200082c565b92915050565b60008060408385031215620003fa57620003f9620007d7565b5b60006200040a85828601620003c9565b92505060206200041d85828601620003b2565b9150509250929050565b600062000436601f836200049e565b91506200044382620007e9565b602082019050919050565b620004598162000739565b82525050565b600060208201905081810360008301526200047a8162000427565b9050919050565b60006020820190506200049860008301846200044e565b92915050565b600082825260208201905092915050565b6000620004bc8262000739565b9150620004c98362000739565b9250827fffffffffffffffffffffffffffffffffffffffffffffffffffffffffffffffff0382111562000501576200050062000779565b5b828201905092915050565b6000808291508390505b60018511156200055e5780860481111562000536576200053562000779565b5b6001851615620005465780820291505b80810290506200055685620007dc565b945062000516565b94509492505050565b6000620005748262000739565b9150620005818362000739565b9250620005b07fffffffffffffffffffffffffffffffffffffffffffffffffffffffffffffffff8484620005b8565b905092915050565b600082620005ca57600190506200069d565b81620005da57600090506200069d565b8160018114620005f35760028114620005fe5762000634565b60019150506200069d565b60ff84111562000613576200061262000779565b5b8360020a9150848211156200062d576200062c62000779565b5b506200069d565b5060208310610133831016604e8410600b84101617156200066e5782820a90508381111562000668576200066762000779565b5b6200069d565b6200067d84848460016200050c565b9250905081840481111562000697576200069662000779565b5b81810290505b9392505050565b6000620006b18262000739565b9150620006be8362000739565b9250817fffffffffffffffffffffffffffffffffffffffffffffffffffffffffffffffff0483118215151615620006fa57620006f962000779565b5b828202905092915050565b6000620007128262000719565b9050919050565b600073ffffffffffffffffffffffffffffffffffffffff82169050919050565b6000819050919050565b600060028204905060018216806200075c57607f821691505b60208210811415620007735762000772620007a8565b5b50919050565b7f4e487b7100000000000000000000000000000000000000000000000000000000600052601160045260246000fd5b7f4e487b7100000000000000000000000000000000000000000000000000000000600052602260045260246000fd5b600080fd5b60008160011c9050919050565b7f45524332303a206d696e7420746f20746865207a65726f206164647265737300600082015250565b6200081d8162000705565b81146200082957600080fd5b50565b620008378162000739565b81146200084357600080fd5b50565b611de480620008566000396000f3fe608060405234801561001057600080fd5b50600436106100ea5760003560e01c806370a082311161008c578063a457c2d711610066578063a457c2d71461025f578063a9059cbb1461028f578063da1919b3146102bf578063dd62ed3e146102db576100ea565b806370a08231146101f557806395d89b4114610225578063a0712d6814610243576100ea565b806323b872dd116100c857806323b872dd1461015b578063313ce5671461018b57806339509351146101a957806347298f82146101d9576100ea565b806306fdde03146100ef578063095ea7b31461010d57806318160ddd1461013d575b600080fd5b6100f761030b565b604051610104919061170d565b60405180910390f35b6101276004803603810190610122919061146a565b61039d565b60405161013491906116f2565b60405180910390f35b6101456103bb565b604051610152919061186f565b60405180910390f35b61017560048036038101906101709190611417565b6103c5565b60405161018291906116f2565b60405180910390f35b6101936104bd565b6040516101a0919061188a565b60405180910390f35b6101c360048036038101906101be919061146a565b6104c6565b6040516101d091906116f2565b60405180910390f35b6101f360048036038101906101ee919061146a565b610572565b005b61020f600480360381019061020a91906113aa565b610636565b60405161021c919061186f565b60405180910390f35b61022d61067e565b60405161023a919061170d565b60405180910390f35b61025d600480360381019061025891906114d7565b610710565b005b6102796004803603810190610274919061146a565b6107da565b60405161028691906116f2565b60405180910390f35b6102a960048036038101906102a4919061146a565b6108c5565b6040516102b691906116f2565b60405180910390f35b6102d960048036038101906102d4919061146a565b610a51565b005b6102f560048036038101906102f091906113d7565b610b4f565b604051610302919061186f565b60405180910390f35b60606003805461031a906119d3565b80601f0160208091040260200160405190810160405280929190818152602001828054610346906119d3565b80156103935780601f1061036857610100808354040283529160200191610393565b820191906000526020600020905b81548152906001019060200180831161037657829003601f168201915b5050505050905090565b60006103b16103aa610bd6565b8484610bde565b6001905092915050565b6000600254905090565b60006103d2848484610da9565b6000600160008673ffffffffffffffffffffffffffffffffffffffff1673ffffffffffffffffffffffffffffffffffffffff168152602001908152602001600020600061041d610bd6565b73ffffffffffffffffffffffffffffffffffffffff1673ffffffffffffffffffffffffffffffffffffffff1681526020019081526020016000205490508281101561049d576040517f08c379a0000000000000000000000000000000000000000000000000000000008152600401610494906117af565b60405180910390fd5b6104b1856104a9610bd6565b858403610bde565b60019150509392505050565b60006012905090565b60006105686104d3610bd6565b8484600160006104e1610bd6565b73ffffffffffffffffffffffffffffffffffffffff1673ffffffffffffffffffffffffffffffffffffffff16815260200190815260200160002060008873ffffffffffffffffffffffffffffffffffffffff1673ffffffffffffffffffffffffffffffffffffffff1681526020019081526020016000205461056391906118c1565b610bde565b6001905092915050565b33600560009054906101000a900473ffffffffffffffffffffffffffffffffffffffff1673ffffffffffffffffffffffffffffffffffffffff166324d7806c826040518263ffffffff1660e01b81526004016105ce91906116d7565b60206040518083038186803b1580156105e657600080fd5b505afa1580156105fa573d6000803e3d6000fd5b505050506040513d601f19601f8201168201806040525081019061061e91906114aa565b61062757600080fd5b610631838361102a565b505050565b60008060008373ffffffffffffffffffffffffffffffffffffffff1673ffffffffffffffffffffffffffffffffffffffff168152602001908152602001600020549050919050565b60606004805461068d906119d3565b80601f01602080910402602001604051908101604052809291908181526020018280546106b9906119d3565b80156107065780601f106106db57610100808354040283529160200191610706565b820191906000526020600020905b8154815290600101906020018083116106e957829003601f168201915b5050505050905090565b33600560009054906101000a900473ffffffffffffffffffffffffffffffffffffffff1673ffffffffffffffffffffffffffffffffffffffff166324d7806c826040518263ffffffff1660e01b815260040161076c91906116d7565b60206040518083038186803b15801561078457600080fd5b505afa158015610798573d6000803e3d6000fd5b505050506040513d601f19601f820116820180604052508101906107bc91906114aa565b6107c557600080fd5b6107d66107d0610bd6565b83611201565b5050565b600080600160006107e9610bd6565b73ffffffffffffffffffffffffffffffffffffffff1673ffffffffffffffffffffffffffffffffffffffff16815260200190815260200160002060008573ffffffffffffffffffffffffffffffffffffffff1673ffffffffffffffffffffffffffffffffffffffff168152602001908152602001600020549050828110156108a6576040517f08c379a000000000000000000000000000000000000000000000000000000000815260040161089d9061182f565b60405180910390fd5b6108ba6108b1610bd6565b85858403610bde565b600191505092915050565b60003383600560009054906101000a900473ffffffffffffffffffffffffffffffffffffffff1673ffffffffffffffffffffffffffffffffffffffff1663fe575a87836040518263ffffffff1660e01b815260040161092491906116d7565b60206040518083038186803b15801561093c57600080fd5b505afa158015610950573d6000803e3d6000fd5b505050506040513d601f19601f8201168201806040525081019061097491906114aa565b1561097e57600080fd5b600560009054906101000a900473ffffffffffffffffffffffffffffffffffffffff1673ffffffffffffffffffffffffffffffffffffffff1663fe575a87826040518263ffffffff1660e01b81526004016109d991906116d7565b60206040518083038186803b1580156109f157600080fd5b505afa158015610a05573d6000803e3d6000fd5b505050506040513d601f19601f82011682018060405250810190610a2991906114aa565b15610a3357600080fd5b610a45610a3e610bd6565b8686610da9565b60019250505092915050565b33600560009054906101000a900473ffffffffffffffffffffffffffffffffffffffff1673ffffffffffffffffffffffffffffffffffffffff166324d7806c826040518263ffffffff1660e01b8152600401610aad91906116d7565b60206040518083038186803b158015610ac557600080fd5b505afa158015610ad9573d6000803e3d6000fd5b505050506040513d601f19601f82011682018060405250810190610afd91906114aa565b610b0657600080fd5b600073ffffffffffffffffffffffffffffffffffffffff168373ffffffffffffffffffffffffffffffffffffffff161415610b4057600080fd5b610b4a8383611201565b505050565b6000600160008473ffffffffffffffffffffffffffffffffffffffff1673ffffffffffffffffffffffffffffffffffffffff16815260200190815260200160002060008373ffffffffffffffffffffffffffffffffffffffff1673ffffffffffffffffffffffffffffffffffffffff16815260200190815260200160002054905092915050565b600033905090565b600073ffffffffffffffffffffffffffffffffffffffff168373ffffffffffffffffffffffffffffffffffffffff161415610c4e576040517f08c379a0000000000000000000000000000000000000000000000000000000008152600401610c459061180f565b60405180910390fd5b600073ffffffffffffffffffffffffffffffffffffffff168273ffffffffffffffffffffffffffffffffffffffff161415610cbe576040517f08c379a0000000000000000000000000000000000000000000000000000000008152600401610cb59061176f565b60405180910390fd5b80600160008573ffffffffffffffffffffffffffffffffffffffff1673ffffffffffffffffffffffffffffffffffffffff16815260200190815260200160002060008473ffffffffffffffffffffffffffffffffffffffff1673ffffffffffffffffffffffffffffffffffffffff168152602001908152602001600020819055508173ffffffffffffffffffffffffffffffffffffffff168373ffffffffffffffffffffffffffffffffffffffff167f8c5be1e5ebec7d5bd14f71427d1e84f3dd0314c0f7b2291e5b200ac8c7c3b92583604051610d9c919061186f565b60405180910390a3505050565b600073ffffffffffffffffffffffffffffffffffffffff168373ffffffffffffffffffffffffffffffffffffffff161415610e19576040517f08c379a0000000000000000000000000000000000000000000000000000000008152600401610e10906117ef565b60405180910390fd5b600073ffffffffffffffffffffffffffffffffffffffff168273ffffffffffffffffffffffffffffffffffffffff161415610e89576040517f08c379a0000000000000000000000000000000000000000000000000000000008152600401610e809061172f565b60405180910390fd5b610e94838383611361565b60008060008573ffffffffffffffffffffffffffffffffffffffff1673ffffffffffffffffffffffffffffffffffffffff16815260200190815260200160002054905081811015610f1a576040517f08c379a0000000000000000000000000000000000000000000000000000000008152600401610f119061178f565b60405180910390fd5b8181036000808673ffffffffffffffffffffffffffffffffffffffff1673ffffffffffffffffffffffffffffffffffffffff16815260200190815260200160002081905550816000808573ffffffffffffffffffffffffffffffffffffffff1673ffffffffffffffffffffffffffffffffffffffff1681526020019081526020016000206000828254610fad91906118c1565b925050819055508273ffffffffffffffffffffffffffffffffffffffff168473ffffffffffffffffffffffffffffffffffffffff167fddf252ad1be2c89b69c2b068fc378daa952ba7f163c4a11628f55a4df523b3ef84604051611011919061186f565b60405180910390a3611024848484611366565b50505050565b600073ffffffffffffffffffffffffffffffffffffffff168273ffffffffffffffffffffffffffffffffffffffff16141561109a576040517f08c379a0000000000000000000000000000000000000000000000000000000008152600401611091906117cf565b60405180910390fd5b6110a682600083611361565b60008060008473ffffffffffffffffffffffffffffffffffffffff1673ffffffffffffffffffffffffffffffffffffffff1681526020019081526020016000205490508181101561112c576040517f08c379a00000000000000000000000000000000000000000000000000000000081526004016111239061174f565b60405180910390fd5b8181036000808573ffffffffffffffffffffffffffffffffffffffff1673ffffffffffffffffffffffffffffffffffffffff1681526020019081526020016000208190555081600260008282546111839190611917565b92505081905550600073ffffffffffffffffffffffffffffffffffffffff168373ffffffffffffffffffffffffffffffffffffffff167fddf252ad1be2c89b69c2b068fc378daa952ba7f163c4a11628f55a4df523b3ef846040516111e8919061186f565b60405180910390a36111fc83600084611366565b505050565b600073ffffffffffffffffffffffffffffffffffffffff168273ffffffffffffffffffffffffffffffffffffffff161415611271576040517f08c379a00000000000000000000000000000000000000000000000000000000081526004016112689061184f565b60405180910390fd5b61127d60008383611361565b806002600082825461128f91906118c1565b92505081905550806000808473ffffffffffffffffffffffffffffffffffffffff1673ffffffffffffffffffffffffffffffffffffffff16815260200190815260200160002060008282546112e491906118c1565b925050819055508173ffffffffffffffffffffffffffffffffffffffff16600073ffffffffffffffffffffffffffffffffffffffff167fddf252ad1be2c89b69c2b068fc378daa952ba7f163c4a11628f55a4df523b3ef83604051611349919061186f565b60405180910390a361135d60008383611366565b5050565b505050565b505050565b60008135905061137a81611d69565b92915050565b60008151905061138f81611d80565b92915050565b6000813590506113a481611d97565b92915050565b6000602082840312156113c0576113bf611a63565b5b60006113ce8482850161136b565b91505092915050565b600080604083850312156113ee576113ed611a63565b5b60006113fc8582860161136b565b925050602061140d8582860161136b565b9150509250929050565b6000806000606084860312156114305761142f611a63565b5b600061143e8682870161136b565b935050602061144f8682870161136b565b925050604061146086828701611395565b9150509250925092565b6000806040838503121561148157611480611a63565b5b600061148f8582860161136b565b92505060206114a085828601611395565b9150509250929050565b6000602082840312156114c0576114bf611a63565b5b60006114ce84828501611380565b91505092915050565b6000602082840312156114ed576114ec611a63565b5b60006114fb84828501611395565b91505092915050565b61150d8161194b565b82525050565b61151c8161195d565b82525050565b600061152d826118a5565b61153781856118b0565b93506115478185602086016119a0565b61155081611a68565b840191505092915050565b60006115686023836118b0565b915061157382611a79565b604082019050919050565b600061158b6022836118b0565b915061159682611ac8565b604082019050919050565b60006115ae6022836118b0565b91506115b982611b17565b604082019050919050565b60006115d16026836118b0565b91506115dc82611b66565b604082019050919050565b60006115f46028836118b0565b91506115ff82611bb5565b604082019050919050565b60006116176021836118b0565b915061162282611c04565b604082019050919050565b600061163a6025836118b0565b915061164582611c53565b604082019050919050565b600061165d6024836118b0565b915061166882611ca2565b604082019050919050565b60006116806025836118b0565b915061168b82611cf1565b604082019050919050565b60006116a3601f836118b0565b91506116ae82611d40565b602082019050919050565b6116c281611989565b82525050565b6116d181611993565b82525050565b60006020820190506116ec6000830184611504565b92915050565b60006020820190506117076000830184611513565b92915050565b600060208201905081810360008301526117278184611522565b905092915050565b600060208201905081810360008301526117488161155b565b9050919050565b600060208201905081810360008301526117688161157e565b9050919050565b60006020820190508181036000830152611788816115a1565b9050919050565b600060208201905081810360008301526117a8816115c4565b9050919050565b600060208201905081810360008301526117c8816115e7565b9050919050565b600060208201905081810360008301526117e88161160a565b9050919050565b600060208201905081810360008301526118088161162d565b9050919050565b6000602082019050818103600083015261182881611650565b9050919050565b6000602082019050818103600083015261184881611673565b9050919050565b6000602082019050818103600083015261186881611696565b9050919050565b600060208201905061188460008301846116b9565b92915050565b600060208201905061189f60008301846116c8565b92915050565b600081519050919050565b600082825260208201905092915050565b60006118cc82611989565b91506118d783611989565b9250827fffffffffffffffffffffffffffffffffffffffffffffffffffffffffffffffff0382111561190c5761190b611a05565b5b828201905092915050565b600061192282611989565b915061192d83611989565b9250828210156119405761193f611a05565b5b828203905092915050565b600061195682611969565b9050919050565b60008115159050919050565b600073ffffffffffffffffffffffffffffffffffffffff82169050919050565b6000819050919050565b600060ff82169050919050565b60005b838110156119be5780820151818401526020810190506119a3565b838111156119cd576000848401525b50505050565b600060028204905060018216806119eb57607f821691505b602082108114156119ff576119fe611a34565b5b50919050565b7f4e487b7100000000000000000000000000000000000000000000000000000000600052601160045260246000fd5b7f4e487b7100000000000000000000000000000000000000000000000000000000600052602260045260246000fd5b600080fd5b6000601f19601f8301169050919050565b7f45524332303a207472616e7366657220746f20746865207a65726f206164647260008201527f6573730000000000000000000000000000000000000000000000000000000000602082015250565b7f45524332303a206275726e20616d6f756e7420657863656564732062616c616e60008201527f6365000000000000000000000000000000000000000000000000000000000000602082015250565b7f45524332303a20617070726f766520746f20746865207a65726f20616464726560008201527f7373000000000000000000000000000000000000000000000000000000000000602082015250565b7f45524332303a207472616e7366657220616d6f756e742065786365656473206260008201527f616c616e63650000000000000000000000000000000000000000000000000000602082015250565b7f45524332303a207472616e7366657220616d6f756e742065786365656473206160008201527f6c6c6f77616e6365000000000000000000000000000000000000000000000000602082015250565b7f45524332303a206275726e2066726f6d20746865207a65726f2061646472657360008201527f7300000000000000000000000000000000000000000000000000000000000000602082015250565b7f45524332303a207472616e736665722066726f6d20746865207a65726f20616460008201527f6472657373000000000000000000000000000000000000000000000000000000602082015250565b7f45524332303a20617070726f76652066726f6d20746865207a65726f2061646460008201527f7265737300000000000000000000000000000000000000000000000000000000602082015250565b7f45524332303a2064656372656173656420616c6c6f77616e63652062656c6f7760008201527f207a65726f000000000000000000000000000000000000000000000000000000602082015250565b7f45524332303a206d696e7420746f20746865207a65726f206164647265737300600082015250565b611d728161194b565b8114611d7d57600080fd5b50565b611d898161195d565b8114611d9457600080fd5b50565b611da081611989565b8114611dab57600080fd5b5056fea2646970667358221220dbaa9f9e0edaceec5e2f093542032b8d9fb70993b9074b7b12e5f3a87c0f8bac64736f6c63430008060033",
  "linkReferences": {},
  "deployedLinkReferences": {}
}