{
  "_format": "hh-sol-artifact-1",
  "contractName": "SampleToken",
  "sourceName": "contracts/SampleToken.sol",
  "abi": [
    {
      "inputs": [
        {
          "internalType": "string",
          "name": "_name",
          "type": "string"
        },
        {
          "internalType": "string",
          "name": "_symbol",
          "type": "string"
        },
        {
          "internalType": "uint256",
          "name": "_initialSupply",
          "type": "uint256"
        }
      ],
      "stateMutability": "nonpayable",
      "type": "constructor"
    },
    {
      "anonymous": false,
      "inputs": [
        {
          "indexed": true,
          "internalType": "address",
          "name": "owner",
          "type": "address"
        },
        {
          "indexed": true,
          "internalType": "address",
          "name": "spender",
          "type": "address"
        },
        {
          "indexed": false,
          "internalType": "uint256",
          "name": "value",
          "type": "uint256"
        }
      ],
      "name": "Approval",
      "type": "event"
    },
    {
      "anonymous": false,
      "inputs": [
        {
          "indexed": true,
          "internalType": "address",
          "name": "previousOwner",
          "type": "address"
        },
        {
          "indexed": true,
          "internalType": "address",
          "name": "newOwner",
          "type": "address"
        }
      ],
      "name": "OwnershipTransferred",
      "type": "event"
    },
    {
      "anonymous": false,
      "inputs": [
        {
          "indexed": false,
          "internalType": "address",
          "name": "account",
          "type": "address"
        }
      ],
      "name": "Paused",
      "type": "event"
    },
    {
      "anonymous": false,
      "inputs": [
        {
          "indexed": true,
          "internalType": "bytes32",
          "name": "role",
          "type": "bytes32"
        },
        {
          "indexed": true,
          "internalType": "bytes32",
          "name": "previousAdminRole",
          "type": "bytes32"
        },
        {
          "indexed": true,
          "internalType": "bytes32",
          "name": "newAdminRole",
          "type": "bytes32"
        }
      ],
      "name": "RoleAdminChanged",
      "type": "event"
    },
    {
      "anonymous": false,
      "inputs": [
        {
          "indexed": true,
          "internalType": "bytes32",
          "name": "role",
          "type": "bytes32"
        },
        {
          "indexed": true,
          "internalType": "address",
          "name": "account",
          "type": "address"
        },
        {
          "indexed": true,
          "internalType": "address",
          "name": "sender",
          "type": "address"
        }
      ],
      "name": "RoleGranted",
      "type": "event"
    },
    {
      "anonymous": false,
      "inputs": [
        {
          "indexed": true,
          "internalType": "bytes32",
          "name": "role",
          "type": "bytes32"
        },
        {
          "indexed": true,
          "internalType": "address",
          "name": "account",
          "type": "address"
        },
        {
          "indexed": true,
          "internalType": "address",
          "name": "sender",
          "type": "address"
        }
      ],
      "name": "RoleRevoked",
      "type": "event"
    },
    {
      "anonymous": false,
      "inputs": [
        {
          "indexed": true,
          "internalType": "address",
          "name": "from",
          "type": "address"
        },
        {
          "indexed": true,
          "internalType": "address",
          "name": "to",
          "type": "address"
        },
        {
          "indexed": false,
          "internalType": "uint256",
          "name": "value",
          "type": "uint256"
        }
      ],
      "name": "Transfer",
      "type": "event"
    },
    {
      "anonymous": false,
      "inputs": [
        {
          "indexed": false,
          "internalType": "address",
          "name": "account",
          "type": "address"
        }
      ],
      "name": "Unpaused",
      "type": "event"
    },
    {
      "inputs": [],
      "name": "DEFAULT_ADMIN_ROLE",
      "outputs": [
        {
          "internalType": "bytes32",
          "name": "",
          "type": "bytes32"
        }
      ],
      "stateMutability": "view",
      "type": "function"
    },
    {
      "inputs": [],
      "name": "DOMAIN_SEPARATOR",
      "outputs": [
        {
          "internalType": "bytes32",
          "name": "",
          "type": "bytes32"
        }
      ],
      "stateMutability": "view",
      "type": "function"
    },
    {
      "inputs": [],
      "name": "MINTER_ROLE",
      "outputs": [
        {
          "internalType": "bytes32",
          "name": "",
          "type": "bytes32"
        }
      ],
      "stateMutability": "view",
      "type": "function"
    },
    {
      "inputs": [],
      "name": "PAUSER_ROLE",
      "outputs": [
        {
          "internalType": "bytes32",
          "name": "",
          "type": "bytes32"
        }
      ],
      "stateMutability": "view",
      "type": "function"
    },
    {
      "inputs": [
        {
          "internalType": "address",
          "name": "owner",
          "type": "address"
        },
        {
          "internalType": "address",
          "name": "spender",
          "type": "address"
        }
      ],
      "name": "allowance",
      "outputs": [
        {
          "internalType": "uint256",
          "name": "",
          "type": "uint256"
        }
      ],
      "stateMutability": "view",
      "type": "function"
    },
    {
      "inputs": [
        {
          "internalType": "address",
          "name": "spender",
          "type": "address"
        },
        {
          "internalType": "uint256",
          "name": "amount",
          "type": "uint256"
        }
      ],
      "name": "approve",
      "outputs": [
        {
          "internalType": "bool",
          "name": "",
          "type": "bool"
        }
      ],
      "stateMutability": "nonpayable",
      "type": "function"
    },
    {
      "inputs": [
        {
          "internalType": "string",
          "name": "_id",
          "type": "string"
        }
      ],
      "name": "associateAddress",
      "outputs": [],
      "stateMutability": "nonpayable",
      "type": "function"
    },
    {
      "inputs": [
        {
          "internalType": "address",
          "name": "account",
          "type": "address"
        }
      ],
      "name": "balanceOf",
      "outputs": [
        {
          "internalType": "uint256",
          "name": "",
          "type": "uint256"
        }
      ],
      "stateMutability": "view",
      "type": "function"
    },
    {
      "inputs": [
        {
          "internalType": "uint256",
          "name": "amount",
          "type": "uint256"
        }
      ],
      "name": "burn",
      "outputs": [],
      "stateMutability": "nonpayable",
      "type": "function"
    },
    {
      "inputs": [
        {
          "internalType": "address",
          "name": "account",
          "type": "address"
        },
        {
          "internalType": "uint256",
          "name": "amount",
          "type": "uint256"
        }
      ],
      "name": "burnFrom",
      "outputs": [],
      "stateMutability": "nonpayable",
      "type": "function"
    },
    {
      "inputs": [],
      "name": "decimals",
      "outputs": [
        {
          "internalType": "uint8",
          "name": "",
          "type": "uint8"
        }
      ],
      "stateMutability": "pure",
      "type": "function"
    },
    {
      "inputs": [
        {
          "internalType": "address",
          "name": "spender",
          "type": "address"
        },
        {
          "internalType": "uint256",
          "name": "subtractedValue",
          "type": "uint256"
        }
      ],
      "name": "decreaseAllowance",
      "outputs": [
        {
          "internalType": "bool",
          "name": "",
          "type": "bool"
        }
      ],
      "stateMutability": "nonpayable",
      "type": "function"
    },
    {
      "inputs": [
        {
          "internalType": "string",
          "name": "_id",
          "type": "string"
        }
      ],
      "name": "getAssociatedById",
      "outputs": [
        {
          "internalType": "address[]",
          "name": "",
          "type": "address[]"
        }
      ],
      "stateMutability": "view",
      "type": "function"
    },
    {
      "inputs": [
        {
          "internalType": "address",
          "name": "_addr",
          "type": "address"
        }
      ],
      "name": "getAssociatedId",
      "outputs": [
        {
          "internalType": "string",
          "name": "",
          "type": "string"
        }
      ],
      "stateMutability": "view",
      "type": "function"
    },
    {
      "inputs": [
        {
          "internalType": "bytes32",
          "name": "role",
          "type": "bytes32"
        }
      ],
      "name": "getRoleAdmin",
      "outputs": [
        {
          "internalType": "bytes32",
          "name": "",
          "type": "bytes32"
        }
      ],
      "stateMutability": "view",
      "type": "function"
    },
    {
      "inputs": [
        {
          "internalType": "bytes32",
          "name": "role",
          "type": "bytes32"
        },
        {
          "internalType": "uint256",
          "name": "index",
          "type": "uint256"
        }
      ],
      "name": "getRoleMember",
      "outputs": [
        {
          "internalType": "address",
          "name": "",
          "type": "address"
        }
      ],
      "stateMutability": "view",
      "type": "function"
    },
    {
      "inputs": [
        {
          "internalType": "bytes32",
          "name": "role",
          "type": "bytes32"
        }
      ],
      "name": "getRoleMemberCount",
      "outputs": [
        {
          "internalType": "uint256",
          "name": "",
          "type": "uint256"
        }
      ],
      "stateMutability": "view",
      "type": "function"
    },
    {
      "inputs": [
        {
          "internalType": "bytes32",
          "name": "role",
          "type": "bytes32"
        },
        {
          "internalType": "address",
          "name": "account",
          "type": "address"
        }
      ],
      "name": "grantRole",
      "outputs": [],
      "stateMutability": "nonpayable",
      "type": "function"
    },
    {
      "inputs": [
        {
          "internalType": "bytes32",
          "name": "role",
          "type": "bytes32"
        },
        {
          "internalType": "address",
          "name": "account",
          "type": "address"
        }
      ],
      "name": "hasRole",
      "outputs": [
        {
          "internalType": "bool",
          "name": "",
          "type": "bool"
        }
      ],
      "stateMutability": "view",
      "type": "function"
    },
    {
      "inputs": [
        {
          "internalType": "address",
          "name": "spender",
          "type": "address"
        },
        {
          "internalType": "uint256",
          "name": "addedValue",
          "type": "uint256"
        }
      ],
      "name": "increaseAllowance",
      "outputs": [
        {
          "internalType": "bool",
          "name": "",
          "type": "bool"
        }
      ],
      "stateMutability": "nonpayable",
      "type": "function"
    },
    {
      "inputs": [
        {
          "internalType": "address",
          "name": "_addr",
          "type": "address"
        }
      ],
      "name": "isAddressAssociated",
      "outputs": [
        {
          "internalType": "bool",
          "name": "",
          "type": "bool"
        }
      ],
      "stateMutability": "view",
      "type": "function"
    },
    {
      "inputs": [
        {
          "internalType": "string",
          "name": "_id",
          "type": "string"
        }
      ],
      "name": "isIdAssociated",
      "outputs": [
        {
          "internalType": "bool",
          "name": "",
          "type": "bool"
        }
      ],
      "stateMutability": "view",
      "type": "function"
    },
    {
      "inputs": [
        {
          "internalType": "address",
          "name": "to",
          "type": "address"
        },
        {
          "internalType": "uint256",
          "name": "amount",
          "type": "uint256"
        }
      ],
      "name": "mint",
      "outputs": [],
      "stateMutability": "nonpayable",
      "type": "function"
    },
    {
      "inputs": [],
      "name": "name",
      "outputs": [
        {
          "internalType": "string",
          "name": "",
          "type": "string"
        }
      ],
      "stateMutability": "view",
      "type": "function"
    },
    {
      "inputs": [
        {
          "internalType": "address",
          "name": "owner",
          "type": "address"
        }
      ],
      "name": "nonces",
      "outputs": [
        {
          "internalType": "uint256",
          "name": "",
          "type": "uint256"
        }
      ],
      "stateMutability": "view",
      "type": "function"
    },
    {
      "inputs": [],
      "name": "owner",
      "outputs": [
        {
          "internalType": "address",
          "name": "",
          "type": "address"
        }
      ],
      "stateMutability": "view",
      "type": "function"
    },
    {
      "inputs": [],
      "name": "pause",
      "outputs": [],
      "stateMutability": "nonpayable",
      "type": "function"
    },
    {
      "inputs": [],
      "name": "paused",
      "outputs": [
        {
          "internalType": "bool",
          "name": "",
          "type": "bool"
        }
      ],
      "stateMutability": "view",
      "type": "function"
    },
    {
      "inputs": [
        {
          "internalType": "address",
          "name": "owner",
          "type": "address"
        },
        {
          "internalType": "address",
          "name": "spender",
          "type": "address"
        },
        {
          "internalType": "uint256",
          "name": "value",
          "type": "uint256"
        },
        {
          "internalType": "uint256",
          "name": "deadline",
          "type": "uint256"
        },
        {
          "internalType": "uint8",
          "name": "v",
          "type": "uint8"
        },
        {
          "internalType": "bytes32",
          "name": "r",
          "type": "bytes32"
        },
        {
          "internalType": "bytes32",
          "name": "s",
          "type": "bytes32"
        }
      ],
      "name": "permit",
      "outputs": [],
      "stateMutability": "nonpayable",
      "type": "function"
    },
    {
      "inputs": [],
      "name": "renounceOwnership",
      "outputs": [],
      "stateMutability": "nonpayable",
      "type": "function"
    },
    {
      "inputs": [
        {
          "internalType": "bytes32",
          "name": "role",
          "type": "bytes32"
        },
        {
          "internalType": "address",
          "name": "account",
          "type": "address"
        }
      ],
      "name": "renounceRole",
      "outputs": [],
      "stateMutability": "nonpayable",
      "type": "function"
    },
    {
      "inputs": [
        {
          "internalType": "bytes32",
          "name": "role",
          "type": "bytes32"
        },
        {
          "internalType": "address",
          "name": "account",
          "type": "address"
        }
      ],
      "name": "revokeRole",
      "outputs": [],
      "stateMutability": "nonpayable",
      "type": "function"
    },
    {
      "inputs": [
        {
          "internalType": "address",
          "name": "_addr",
          "type": "address"
        }
      ],
      "name": "setAsMinter",
      "outputs": [],
      "stateMutability": "nonpayable",
      "type": "function"
    },
    {
      "inputs": [
        {
          "internalType": "bytes4",
          "name": "interfaceId",
          "type": "bytes4"
        }
      ],
      "name": "supportsInterface",
      "outputs": [
        {
          "internalType": "bool",
          "name": "",
          "type": "bool"
        }
      ],
      "stateMutability": "view",
      "type": "function"
    },
    {
      "inputs": [],
      "name": "symbol",
      "outputs": [
        {
          "internalType": "string",
          "name": "",
          "type": "string"
        }
      ],
      "stateMutability": "view",
      "type": "function"
    },
    {
      "inputs": [],
      "name": "totalSupply",
      "outputs": [
        {
          "internalType": "uint256",
          "name": "",
          "type": "uint256"
        }
      ],
      "stateMutability": "view",
      "type": "function"
    },
    {
      "inputs": [
        {
          "internalType": "address",
          "name": "recipient",
          "type": "address"
        },
        {
          "internalType": "uint256",
          "name": "amount",
          "type": "uint256"
        }
      ],
      "name": "transfer",
      "outputs": [
        {
          "internalType": "bool",
          "name": "",
          "type": "bool"
        }
      ],
      "stateMutability": "nonpayable",
      "type": "function"
    },
    {
      "inputs": [
        {
          "internalType": "address",
          "name": "sender",
          "type": "address"
        },
        {
          "internalType": "address",
          "name": "recipient",
          "type": "address"
        },
        {
          "internalType": "uint256",
          "name": "amount",
          "type": "uint256"
        }
      ],
      "name": "transferFrom",
      "outputs": [
        {
          "internalType": "bool",
          "name": "",
          "type": "bool"
        }
      ],
      "stateMutability": "nonpayable",
      "type": "function"
    },
    {
      "inputs": [
        {
          "internalType": "address",
          "name": "newOwner",
          "type": "address"
        }
      ],
      "name": "transferOwnership",
      "outputs": [],
      "stateMutability": "nonpayable",
      "type": "function"
    },
    {
      "inputs": [],
      "name": "unpause",
      "outputs": [],
      "stateMutability": "nonpayable",
      "type": "function"
    },
    {
      "inputs": [],
      "name": "version",
      "outputs": [
        {
          "internalType": "string",
          "name": "",
          "type": "string"
        }
      ],
      "stateMutability": "pure",
      "type": "function"
    },
    {
      "inputs": [],
      "name": "versionRecipient",
      "outputs": [
        {
          "internalType": "string",
          "name": "",
          "type": "string"
        }
      ],
      "stateMutability": "pure",
      "type": "function"
    }
  ],
  "bytecode": "0x6101606040527f6e71edae12b1b97f4d1f60370fef10105fa2faae0126114a169c64845d6126c9610140908152503480156200003a57600080fd5b50604051620061ac380380620061ac833981810160405281019062000060919062000b12565b82806040518060400160405280600181526020017f3100000000000000000000000000000000000000000000000000000000000000815250858581818160059080519060200190620000b4929190620009cd565b508060069080519060200190620000cd929190620009cd565b5050506000600760006101000a81548160ff0219169083151502179055506200010f6000801b620001036200031860201b60201c565b6200032060201b60201c565b620001507f9f2df0fed2c77648de5860a4cc508cd0818c85b8b8a1ab4ceeef8d981c8956a6620001446200031860201b60201c565b6200032060201b60201c565b620001917f65d7a28e3265b37a6474929f336521b332c1681b933f6cb9f3376673440d862a620001856200031860201b60201c565b6200032060201b60201c565b505060008280519060200120905060008280519060200120905060007f8b73c3c69bb8fe3d512ecc4cf759cc79239f7b179b0ffacaa9a75d522b39400f90508260e081815250508161010081815250504660a08181525050620001fc8184846200033660201b60201c565b608081815250503073ffffffffffffffffffffffffffffffffffffffff1660c08173ffffffffffffffffffffffffffffffffffffffff1660601b81525050806101208181525050505050505050620002696200025d6200031860201b60201c565b6200037260201b60201c565b620002b46200027d6200031860201b60201c565b6200028d6200043860201b60201c565b600a6200029b919062000e93565b83620002a8919062000fd0565b6200044160201b60201c565b6200030f6040518060400160405280601d81526020017f436f6e747261637420636f6e7374727563746f722063616c6c65723a20000000815250620002fe6200031860201b60201c565b620005bb60201b620019e91760201c565b50505062001279565b600033905090565b6200033282826200066160201b60201c565b5050565b600083838346306040516020016200035395949392919062000c6e565b6040516020818303038152906040528051906020012090509392505050565b6000600960009054906101000a900473ffffffffffffffffffffffffffffffffffffffff16905081600960006101000a81548173ffffffffffffffffffffffffffffffffffffffff021916908373ffffffffffffffffffffffffffffffffffffffff1602179055508173ffffffffffffffffffffffffffffffffffffffff168173ffffffffffffffffffffffffffffffffffffffff167f8be0079c531659141344cd1fd0a4f28419497f9722a3daafe3b4186f6b6457e060405160405180910390a35050565b60006002905090565b600073ffffffffffffffffffffffffffffffffffffffff168273ffffffffffffffffffffffffffffffffffffffff161415620004b4576040517f08c379a0000000000000000000000000000000000000000000000000000000008152600401620004ab9062000cff565b60405180910390fd5b620004c860008383620006a960201b60201c565b8060046000828254620004dc919062000ddb565b9250508190555080600260008473ffffffffffffffffffffffffffffffffffffffff1673ffffffffffffffffffffffffffffffffffffffff168152602001908152602001600020600082825462000534919062000ddb565b925050819055508173ffffffffffffffffffffffffffffffffffffffff16600073ffffffffffffffffffffffffffffffffffffffff167fddf252ad1be2c89b69c2b068fc378daa952ba7f163c4a11628f55a4df523b3ef836040516200059b919062000d43565b60405180910390a3620005b760008383620006c660201b60201c565b5050565b6200065d8282604051602401620005d492919062000ccb565b6040516020818303038152906040527f319af333000000000000000000000000000000000000000000000000000000007bffffffffffffffffffffffffffffffffffffffffffffffffffffffff19166020820180517bffffffffffffffffffffffffffffffffffffffffffffffffffffffff8381831617835250505050620006cb60201b60201c565b5050565b620006788282620006f460201b62001a851760201c565b620006a48160016000858152602001908152602001600020620007e560201b62001b651790919060201c565b505050565b620006c18383836200081d60201b62001b951760201c565b505050565b505050565b60008151905060006a636f6e736f6c652e6c6f679050602083016000808483855afa5050505050565b6200070682826200083a60201b60201c565b620007e157600160008084815260200190815260200160002060000160008373ffffffffffffffffffffffffffffffffffffffff1673ffffffffffffffffffffffffffffffffffffffff16815260200190815260200160002060006101000a81548160ff021916908315150217905550620007866200031860201b60201c565b73ffffffffffffffffffffffffffffffffffffffff168173ffffffffffffffffffffffffffffffffffffffff16837f2f8788117e7eff1d82e926ec794901d17c78024a50270940304540a733656f0d60405160405180910390a45b5050565b600062000815836000018373ffffffffffffffffffffffffffffffffffffffff1660001b620008a460201b60201c565b905092915050565b620008358383836200091e60201b62001ba51760201c565b505050565b600080600084815260200190815260200160002060000160008373ffffffffffffffffffffffffffffffffffffffff1673ffffffffffffffffffffffffffffffffffffffff16815260200190815260200160002060009054906101000a900460ff16905092915050565b6000620008b883836200098e60201b60201c565b6200091357826000018290806001815401808255809150506001900390600052602060002001600090919091909150558260000180549050836001016000848152602001908152602001600020819055506001905062000918565b600090505b92915050565b62000936838383620009b160201b62001bfd1760201c565b62000946620009b660201b60201c565b1562000989576040517f08c379a0000000000000000000000000000000000000000000000000000000008152600401620009809062000d21565b60405180910390fd5b505050565b600080836001016000848152602001908152602001600020541415905092915050565b505050565b6000600760009054906101000a900460ff16905090565b828054620009db90620010bc565b90600052602060002090601f016020900481019282620009ff576000855562000a4b565b82601f1062000a1a57805160ff191683800117855562000a4b565b8280016001018555821562000a4b579182015b8281111562000a4a57825182559160200191906001019062000a2d565b5b50905062000a5a919062000a5e565b5090565b5b8082111562000a7957600081600090555060010162000a5f565b5090565b600062000a9462000a8e8462000d89565b62000d60565b90508281526020810184848401111562000ab35762000ab2620011ba565b5b62000ac084828562001086565b509392505050565b600082601f83011262000ae05762000adf620011b5565b5b815162000af284826020860162000a7d565b91505092915050565b60008151905062000b0c816200125f565b92915050565b60008060006060848603121562000b2e5762000b2d620011c4565b5b600084015167ffffffffffffffff81111562000b4f5762000b4e620011bf565b5b62000b5d8682870162000ac8565b935050602084015167ffffffffffffffff81111562000b815762000b80620011bf565b5b62000b8f8682870162000ac8565b925050604062000ba28682870162000afb565b9150509250925092565b62000bb78162001031565b82525050565b62000bc88162001045565b82525050565b600062000bdb8262000dbf565b62000be7818562000dca565b935062000bf981856020860162001086565b62000c0481620011c9565b840191505092915050565b600062000c1e601f8362000dca565b915062000c2b82620011e7565b602082019050919050565b600062000c45602a8362000dca565b915062000c528262001210565b604082019050919050565b62000c68816200106f565b82525050565b600060a08201905062000c85600083018862000bbd565b62000c94602083018762000bbd565b62000ca3604083018662000bbd565b62000cb2606083018562000c5d565b62000cc1608083018462000bac565b9695505050505050565b6000604082019050818103600083015262000ce7818562000bce565b905062000cf8602083018462000bac565b9392505050565b6000602082019050818103600083015262000d1a8162000c0f565b9050919050565b6000602082019050818103600083015262000d3c8162000c36565b9050919050565b600060208201905062000d5a600083018462000c5d565b92915050565b600062000d6c62000d7f565b905062000d7a8282620010f2565b919050565b6000604051905090565b600067ffffffffffffffff82111562000da75762000da662001186565b5b62000db282620011c9565b9050602081019050919050565b600081519050919050565b600082825260208201905092915050565b600062000de8826200106f565b915062000df5836200106f565b9250827fffffffffffffffffffffffffffffffffffffffffffffffffffffffffffffffff0382111562000e2d5762000e2c62001128565b5b828201905092915050565b6000808291508390505b600185111562000e8a5780860481111562000e625762000e6162001128565b5b600185161562000e725780820291505b808102905062000e8285620011da565b945062000e42565b94509492505050565b600062000ea0826200106f565b915062000ead8362001079565b925062000edc7fffffffffffffffffffffffffffffffffffffffffffffffffffffffffffffffff848462000ee4565b905092915050565b60008262000ef6576001905062000fc9565b8162000f06576000905062000fc9565b816001811462000f1f576002811462000f2a5762000f60565b600191505062000fc9565b60ff84111562000f3f5762000f3e62001128565b5b8360020a91508482111562000f595762000f5862001128565b5b5062000fc9565b5060208310610133831016604e8410600b841016171562000f9a5782820a90508381111562000f945762000f9362001128565b5b62000fc9565b62000fa9848484600162000e38565b9250905081840481111562000fc35762000fc262001128565b5b81810290505b9392505050565b600062000fdd826200106f565b915062000fea836200106f565b9250817fffffffffffffffffffffffffffffffffffffffffffffffffffffffffffffffff048311821515161562001026576200102562001128565b5b828202905092915050565b60006200103e826200104f565b9050919050565b6000819050919050565b600073ffffffffffffffffffffffffffffffffffffffff82169050919050565b6000819050919050565b600060ff82169050919050565b60005b83811015620010a657808201518184015260208101905062001089565b83811115620010b6576000848401525b50505050565b60006002820490506001821680620010d557607f821691505b60208210811415620010ec57620010eb62001157565b5b50919050565b620010fd82620011c9565b810181811067ffffffffffffffff821117156200111f576200111e62001186565b5b80604052505050565b7f4e487b7100000000000000000000000000000000000000000000000000000000600052601160045260246000fd5b7f4e487b7100000000000000000000000000000000000000000000000000000000600052602260045260246000fd5b7f4e487b7100000000000000000000000000000000000000000000000000000000600052604160045260246000fd5b600080fd5b600080fd5b600080fd5b600080fd5b6000601f19601f8301169050919050565b60008160011c9050919050565b7f45524332303a206d696e7420746f20746865207a65726f206164647265737300600082015250565b7f45524332305061757361626c653a20746f6b656e207472616e7366657220776860008201527f696c652070617573656400000000000000000000000000000000000000000000602082015250565b6200126a816200106f565b81146200127657600080fd5b50565b60805160a05160c05160601c60e051610100516101205161014051614ed5620012d760003960006116d1015260006123b3015260006123f5015260006123d4015260006123090152600061235f015260006123880152614ed56000f3fe608060405234801561001057600080fd5b506004361061025e5760003560e01c8063715018a611610146578063a217fddf116100c3578063d539139311610087578063d539139314610771578063d547741f1461078f578063db1611a6146107ab578063dd62ed3e146107c7578063e63ab1e9146107f7578063f2fde38b146108155761025e565b8063a217fddf146106a7578063a457c2d7146106c5578063a9059cbb146106f5578063ca15c87314610725578063d505accf146107555761025e565b80638da5cb5b1161010a5780638da5cb5b146105db5780639010d07c146105f957806391d148541461062957806395d89b4114610659578063961e52a5146106775761025e565b8063715018a61461054b57806379cc6790146105555780637ecebe00146105715780638456cb59146105a157806388aef8fb146105ab5761025e565b8063313ce567116101df57806340c10f19116101a357806340c10f191461048957806342966c68146104a5578063486ff0cd146104c157806354fd4d50146104df5780635c975abb146104fd57806370a082311461051b5761025e565b8063313ce567146103f75780633644e5151461041557806336568abe14610433578063395093511461044f5780633f4ba83a1461047f5761025e565b806318160ddd1161022657806318160ddd1461032d57806323b872dd1461034b578063248a9ca31461037b5780632f2ff15d146103ab5780632f760039146103c75761025e565b806301ffc9a71461026357806303b269cc1461029357806306fdde03146102af57806308f8343a146102cd578063095ea7b3146102fd575b600080fd5b61027d6004803603810190610278919061361f565b610831565b60405161028a9190613d15565b60405180910390f35b6102ad60048036038101906102a8919061364c565b6108ab565b005b6102b7610b03565b6040516102c49190613e44565b60405180910390f35b6102e760048036038101906102e291906133d0565b610b95565b6040516102f49190613d15565b60405180910390f35b61031760048036038101906103129190613532565b610bed565b6040516103249190613d15565b60405180910390f35b610335610c0b565b6040516103429190614216565b60405180910390f35b6103656004803603810190610360919061343d565b610c15565b6040516103729190613d15565b60405180910390f35b61039560048036038101906103909190613572565b610d0d565b6040516103a29190613d30565b60405180910390f35b6103c560048036038101906103c0919061359f565b610d2c565b005b6103e160048036038101906103dc919061364c565b610d55565b6040516103ee9190613cf3565b60405180910390f35b6103ff610e01565b60405161040c9190614231565b60405180910390f35b61041d610e0a565b60405161042a9190613d30565b60405180910390f35b61044d6004803603810190610448919061359f565b610e19565b005b61046960048036038101906104649190613532565b610e9c565b6040516104769190613d15565b60405180910390f35b610487610f48565b005b6104a3600480360381019061049e9190613532565b610fc2565b005b6104bf60048036038101906104ba9190613695565b611040565b005b6104c9611054565b6040516104d69190613e44565b60405180910390f35b6104e7611091565b6040516104f49190613e44565b60405180910390f35b6105056110ce565b6040516105129190613d15565b60405180910390f35b610535600480360381019061053091906133d0565b6110e5565b6040516105429190614216565b60405180910390f35b61055361112e565b005b61056f600480360381019061056a9190613532565b6111b6565b005b61058b600480360381019061058691906133d0565b611231565b6040516105989190614216565b60405180910390f35b6105a9611281565b005b6105c560048036038101906105c0919061364c565b6112fb565b6040516105d29190613d15565b60405180910390f35b6105e3611330565b6040516105f09190613cd8565b60405180910390f35b610613600480360381019061060e91906135df565b61135a565b6040516106209190613cd8565b60405180910390f35b610643600480360381019061063e919061359f565b611389565b6040516106509190613d15565b60405180910390f35b6106616113f3565b60405161066e9190613e44565b60405180910390f35b610691600480360381019061068c91906133d0565b611485565b60405161069e9190613e44565b60405180910390f35b6106af611556565b6040516106bc9190613d30565b60405180910390f35b6106df60048036038101906106da9190613532565b61155d565b6040516106ec9190613d15565b60405180910390f35b61070f600480360381019061070a9190613532565b611648565b60405161071c9190613d15565b60405180910390f35b61073f600480360381019061073a9190613572565b611666565b60405161074c9190614216565b60405180910390f35b61076f600480360381019061076a9190613490565b61168a565b005b6107796117cc565b6040516107869190613d30565b60405180910390f35b6107a960048036038101906107a4919061359f565b6117f0565b005b6107c560048036038101906107c091906133d0565b611819565b005b6107e160048036038101906107dc91906133fd565b611846565b6040516107ee9190614216565b60405180910390f35b6107ff6118cd565b60405161080c9190613d30565b60405180910390f35b61082f600480360381019061082a91906133d0565b6118f1565b005b60007f5a05180f000000000000000000000000000000000000000000000000000000007bffffffffffffffffffffffffffffffffffffffffffffffffffffffff1916827bffffffffffffffffffffffffffffffffffffffffffffffffffffffff191614806108a457506108a382611c02565b5b9050919050565b6108b3611c7c565b73ffffffffffffffffffffffffffffffffffffffff166108d1611330565b73ffffffffffffffffffffffffffffffffffffffff1614610927576040517f08c379a000000000000000000000000000000000000000000000000000000000815260040161091e906140b6565b60405180910390fd5b60008151141561096c576040517f08c379a000000000000000000000000000000000000000000000000000000000815260040161096390614036565b60405180910390fd5b80600a6000610979611c7c565b73ffffffffffffffffffffffffffffffffffffffff1673ffffffffffffffffffffffffffffffffffffffff16815260200190815260200160002090805190602001906109c6929190613254565b50600b816040516109d79190613c50565b90815260200160405180910390206109ed611c7c565b9080600181540180825580915050600190039060005260206000200160009091909190916101000a81548173ffffffffffffffffffffffffffffffffffffffff021916908373ffffffffffffffffffffffffffffffffffffffff1602179055506001600c82604051610a5f9190613c50565b908152602001604051809103902060006101000a81548160ff021916908315150217905550600d81604051610a949190613c50565b908152602001604051809103902060009054906101000a900460ff16610ac957610ac8610abf611c7c565b620186a0611c84565b5b6001600d82604051610adb9190613c50565b908152602001604051809103902060006101000a81548160ff02191690831515021790555050565b606060058054610b12906144dd565b80601f0160208091040260200160405190810160405280929190818152602001828054610b3e906144dd565b8015610b8b5780601f10610b6057610100808354040283529160200191610b8b565b820191906000526020600020905b815481529060010190602001808311610b6e57829003601f168201915b5050505050905090565b600080600a60008473ffffffffffffffffffffffffffffffffffffffff1673ffffffffffffffffffffffffffffffffffffffff1681526020019081526020016000208054610be2906144dd565b905014159050919050565b6000610c01610bfa611c7c565b8484611de5565b6001905092915050565b6000600454905090565b6000610c22848484611fb0565b6000600360008673ffffffffffffffffffffffffffffffffffffffff1673ffffffffffffffffffffffffffffffffffffffff1681526020019081526020016000206000610c6d611c7c565b73ffffffffffffffffffffffffffffffffffffffff1673ffffffffffffffffffffffffffffffffffffffff16815260200190815260200160002054905082811015610ced576040517f08c379a0000000000000000000000000000000000000000000000000000000008152600401610ce490614096565b60405180910390fd5b610d0185610cf9611c7c565b858403611de5565b60019150509392505050565b6000806000838152602001908152602001600020600101549050919050565b610d3582610d0d565b610d4681610d41611c7c565b612234565b610d5083836122d1565b505050565b6060600b82604051610d679190613c50565b9081526020016040518091039020805480602002602001604051908101604052809291908181526020018280548015610df557602002820191906000526020600020905b8160009054906101000a900473ffffffffffffffffffffffffffffffffffffffff1673ffffffffffffffffffffffffffffffffffffffff1681526020019060010190808311610dab575b50505050509050919050565b60006002905090565b6000610e14612305565b905090565b610e21611c7c565b73ffffffffffffffffffffffffffffffffffffffff168173ffffffffffffffffffffffffffffffffffffffff1614610e8e576040517f08c379a0000000000000000000000000000000000000000000000000000000008152600401610e85906141b6565b60405180910390fd5b610e98828261241f565b5050565b6000610f3e610ea9611c7c565b848460036000610eb7611c7c565b73ffffffffffffffffffffffffffffffffffffffff1673ffffffffffffffffffffffffffffffffffffffff16815260200190815260200160002060008873ffffffffffffffffffffffffffffffffffffffff1673ffffffffffffffffffffffffffffffffffffffff16815260200190815260200160002054610f399190614302565b611de5565b6001905092915050565b610f797f65d7a28e3265b37a6474929f336521b332c1681b933f6cb9f3376673440d862a610f74611c7c565b611389565b610fb8576040517f08c379a0000000000000000000000000000000000000000000000000000000008152600401610faf90613f56565b60405180910390fd5b610fc0612453565b565b610ff37f9f2df0fed2c77648de5860a4cc508cd0818c85b8b8a1ab4ceeef8d981c8956a6610fee611c7c565b611389565b611032576040517f08c379a0000000000000000000000000000000000000000000000000000000008152600401611029906140d6565b60405180910390fd5b61103c8282611c84565b5050565b61105161104b611c7c565b826124f5565b50565b60606040518060400160405280600181526020017f3100000000000000000000000000000000000000000000000000000000000000815250905090565b60606040518060400160405280600181526020017f3100000000000000000000000000000000000000000000000000000000000000815250905090565b6000600760009054906101000a900460ff16905090565b6000600260008373ffffffffffffffffffffffffffffffffffffffff1673ffffffffffffffffffffffffffffffffffffffff168152602001908152602001600020549050919050565b611136611c7c565b73ffffffffffffffffffffffffffffffffffffffff16611154611330565b73ffffffffffffffffffffffffffffffffffffffff16146111aa576040517f08c379a00000000000000000000000000000000000000000000000000000000081526004016111a1906140b6565b60405180910390fd5b6111b460006126ce565b565b60006111c9836111c4611c7c565b611846565b90508181101561120e576040517f08c379a0000000000000000000000000000000000000000000000000000000008152600401611205906140f6565b60405180910390fd5b6112228361121a611c7c565b848403611de5565b61122c83836124f5565b505050565b600061127a600860008473ffffffffffffffffffffffffffffffffffffffff1673ffffffffffffffffffffffffffffffffffffffff168152602001908152602001600020612794565b9050919050565b6112b27f65d7a28e3265b37a6474929f336521b332c1681b933f6cb9f3376673440d862a6112ad611c7c565b611389565b6112f1576040517f08c379a00000000000000000000000000000000000000000000000000000000081526004016112e890614176565b60405180910390fd5b6112f96127a2565b565b6000600c8260405161130d9190613c50565b908152602001604051809103902060009054906101000a900460ff169050919050565b6000600960009054906101000a900473ffffffffffffffffffffffffffffffffffffffff16905090565b6000611381826001600086815260200190815260200160002061284590919063ffffffff16565b905092915050565b600080600084815260200190815260200160002060000160008373ffffffffffffffffffffffffffffffffffffffff1673ffffffffffffffffffffffffffffffffffffffff16815260200190815260200160002060009054906101000a900460ff16905092915050565b606060068054611402906144dd565b80601f016020809104026020016040519081016040528092919081815260200182805461142e906144dd565b801561147b5780601f106114505761010080835404028352916020019161147b565b820191906000526020600020905b81548152906001019060200180831161145e57829003601f168201915b5050505050905090565b6060600a60008373ffffffffffffffffffffffffffffffffffffffff1673ffffffffffffffffffffffffffffffffffffffff16815260200190815260200160002080546114d1906144dd565b80601f01602080910402602001604051908101604052809291908181526020018280546114fd906144dd565b801561154a5780601f1061151f5761010080835404028352916020019161154a565b820191906000526020600020905b81548152906001019060200180831161152d57829003601f168201915b50505050509050919050565b6000801b81565b6000806003600061156c611c7c565b73ffffffffffffffffffffffffffffffffffffffff1673ffffffffffffffffffffffffffffffffffffffff16815260200190815260200160002060008573ffffffffffffffffffffffffffffffffffffffff1673ffffffffffffffffffffffffffffffffffffffff16815260200190815260200160002054905082811015611629576040517f08c379a000000000000000000000000000000000000000000000000000000000815260040161162090614196565b60405180910390fd5b61163d611634611c7c565b85858403611de5565b600191505092915050565b600061165c611655611c7c565b8484611fb0565b6001905092915050565b60006116836001600084815260200190815260200160002061285f565b9050919050565b834211156116cd576040517f08c379a00000000000000000000000000000000000000000000000000000000081526004016116c490613fb6565b60405180910390fd5b60007f00000000000000000000000000000000000000000000000000000000000000008888886116fc8c612874565b8960405160200161171296959493929190613d4b565b6040516020818303038152906040528051906020012090506000611735826128d2565b90506000611745828787876128ec565b90508973ffffffffffffffffffffffffffffffffffffffff168173ffffffffffffffffffffffffffffffffffffffff16146117b5576040517f08c379a00000000000000000000000000000000000000000000000000000000081526004016117ac90614076565b60405180910390fd5b6117c08a8a8a611de5565b50505050505050505050565b7f9f2df0fed2c77648de5860a4cc508cd0818c85b8b8a1ab4ceeef8d981c8956a681565b6117f982610d0d565b61180a81611805611c7c565b612234565b611814838361241f565b505050565b6118437f9f2df0fed2c77648de5860a4cc508cd0818c85b8b8a1ab4ceeef8d981c8956a682610d2c565b50565b6000600360008473ffffffffffffffffffffffffffffffffffffffff1673ffffffffffffffffffffffffffffffffffffffff16815260200190815260200160002060008373ffffffffffffffffffffffffffffffffffffffff1673ffffffffffffffffffffffffffffffffffffffff16815260200190815260200160002054905092915050565b7f65d7a28e3265b37a6474929f336521b332c1681b933f6cb9f3376673440d862a81565b6118f9611c7c565b73ffffffffffffffffffffffffffffffffffffffff16611917611330565b73ffffffffffffffffffffffffffffffffffffffff161461196d576040517f08c379a0000000000000000000000000000000000000000000000000000000008152600401611964906140b6565b60405180910390fd5b600073ffffffffffffffffffffffffffffffffffffffff168173ffffffffffffffffffffffffffffffffffffffff1614156119dd576040517f08c379a00000000000000000000000000000000000000000000000000000000081526004016119d490613f76565b60405180910390fd5b6119e6816126ce565b50565b611a8182826040516024016119ff929190613e66565b6040516020818303038152906040527f319af333000000000000000000000000000000000000000000000000000000007bffffffffffffffffffffffffffffffffffffffffffffffffffffffff19166020820180517bffffffffffffffffffffffffffffffffffffffffffffffffffffffff8381831617835250505050612917565b5050565b611a8f8282611389565b611b6157600160008084815260200190815260200160002060000160008373ffffffffffffffffffffffffffffffffffffffff1673ffffffffffffffffffffffffffffffffffffffff16815260200190815260200160002060006101000a81548160ff021916908315150217905550611b06611c7c565b73ffffffffffffffffffffffffffffffffffffffff168173ffffffffffffffffffffffffffffffffffffffff16837f2f8788117e7eff1d82e926ec794901d17c78024a50270940304540a733656f0d60405160405180910390a45b5050565b6000611b8d836000018373ffffffffffffffffffffffffffffffffffffffff1660001b612940565b905092915050565b611ba0838383611ba5565b505050565b611bb0838383611bfd565b611bb86110ce565b15611bf8576040517f08c379a0000000000000000000000000000000000000000000000000000000008152600401611bef906141f6565b60405180910390fd5b505050565b505050565b60007f7965db0b000000000000000000000000000000000000000000000000000000007bffffffffffffffffffffffffffffffffffffffffffffffffffffffff1916827bffffffffffffffffffffffffffffffffffffffffffffffffffffffff19161480611c755750611c74826129b0565b5b9050919050565b600033905090565b600073ffffffffffffffffffffffffffffffffffffffff168273ffffffffffffffffffffffffffffffffffffffff161415611cf4576040517f08c379a0000000000000000000000000000000000000000000000000000000008152600401611ceb906141d6565b60405180910390fd5b611d0060008383612a1a565b8060046000828254611d129190614302565b9250508190555080600260008473ffffffffffffffffffffffffffffffffffffffff1673ffffffffffffffffffffffffffffffffffffffff1681526020019081526020016000206000828254611d689190614302565b925050819055508173ffffffffffffffffffffffffffffffffffffffff16600073ffffffffffffffffffffffffffffffffffffffff167fddf252ad1be2c89b69c2b068fc378daa952ba7f163c4a11628f55a4df523b3ef83604051611dcd9190614216565b60405180910390a3611de160008383612a2a565b5050565b600073ffffffffffffffffffffffffffffffffffffffff168373ffffffffffffffffffffffffffffffffffffffff161415611e55576040517f08c379a0000000000000000000000000000000000000000000000000000000008152600401611e4c90614156565b60405180910390fd5b600073ffffffffffffffffffffffffffffffffffffffff168273ffffffffffffffffffffffffffffffffffffffff161415611ec5576040517f08c379a0000000000000000000000000000000000000000000000000000000008152600401611ebc90613f96565b60405180910390fd5b80600360008573ffffffffffffffffffffffffffffffffffffffff1673ffffffffffffffffffffffffffffffffffffffff16815260200190815260200160002060008473ffffffffffffffffffffffffffffffffffffffff1673ffffffffffffffffffffffffffffffffffffffff168152602001908152602001600020819055508173ffffffffffffffffffffffffffffffffffffffff168373ffffffffffffffffffffffffffffffffffffffff167f8c5be1e5ebec7d5bd14f71427d1e84f3dd0314c0f7b2291e5b200ac8c7c3b92583604051611fa39190614216565b60405180910390a3505050565b600073ffffffffffffffffffffffffffffffffffffffff168373ffffffffffffffffffffffffffffffffffffffff161415612020576040517f08c379a000000000000000000000000000000000000000000000000000000000815260040161201790614136565b60405180910390fd5b600073ffffffffffffffffffffffffffffffffffffffff168273ffffffffffffffffffffffffffffffffffffffff161415612090576040517f08c379a000000000000000000000000000000000000000000000000000000000815260040161208790613ed6565b60405180910390fd5b61209b838383612a1a565b6000600260008573ffffffffffffffffffffffffffffffffffffffff1673ffffffffffffffffffffffffffffffffffffffff16815260200190815260200160002054905081811015612122576040517f08c379a000000000000000000000000000000000000000000000000000000000815260040161211990613fd6565b60405180910390fd5b818103600260008673ffffffffffffffffffffffffffffffffffffffff1673ffffffffffffffffffffffffffffffffffffffff1681526020019081526020016000208190555081600260008573ffffffffffffffffffffffffffffffffffffffff1673ffffffffffffffffffffffffffffffffffffffff16815260200190815260200160002060008282546121b79190614302565b925050819055508273ffffffffffffffffffffffffffffffffffffffff168473ffffffffffffffffffffffffffffffffffffffff167fddf252ad1be2c89b69c2b068fc378daa952ba7f163c4a11628f55a4df523b3ef8460405161221b9190614216565b60405180910390a361222e848484612a2a565b50505050565b61223e8282611389565b6122cd576122638173ffffffffffffffffffffffffffffffffffffffff166014612a2f565b6122718360001c6020612a2f565b604051602001612282929190613c9e565b6040516020818303038152906040526040517f08c379a00000000000000000000000000000000000000000000000000000000081526004016122c49190613e44565b60405180910390fd5b5050565b6122db8282611a85565b6123008160016000858152602001908152602001600020611b6590919063ffffffff16565b505050565b60007f000000000000000000000000000000000000000000000000000000000000000073ffffffffffffffffffffffffffffffffffffffff163073ffffffffffffffffffffffffffffffffffffffff1614801561238157507f000000000000000000000000000000000000000000000000000000000000000046145b156123ae577f0000000000000000000000000000000000000000000000000000000000000000905061241c565b6124197f00000000000000000000000000000000000000000000000000000000000000007f00000000000000000000000000000000000000000000000000000000000000007f0000000000000000000000000000000000000000000000000000000000000000612c6b565b90505b90565b6124298282612ca5565b61244e8160016000858152602001908152602001600020612d8690919063ffffffff16565b505050565b61245b6110ce565b61249a576040517f08c379a000000000000000000000000000000000000000000000000000000000815260040161249190613ef6565b60405180910390fd5b6000600760006101000a81548160ff0219169083151502179055507f5db9ee0a495bf2e6ff9c91a7834c1ba4fdd244a5e8aa4e537bd38aeae4b073aa6124de611c7c565b6040516124eb9190613cd8565b60405180910390a1565b600073ffffffffffffffffffffffffffffffffffffffff168273ffffffffffffffffffffffffffffffffffffffff161415612565576040517f08c379a000000000000000000000000000000000000000000000000000000000815260040161255c90614116565b60405180910390fd5b61257182600083612a1a565b6000600260008473ffffffffffffffffffffffffffffffffffffffff1673ffffffffffffffffffffffffffffffffffffffff168152602001908152602001600020549050818110156125f8576040517f08c379a00000000000000000000000000000000000000000000000000000000081526004016125ef90613f16565b60405180910390fd5b818103600260008573ffffffffffffffffffffffffffffffffffffffff1673ffffffffffffffffffffffffffffffffffffffff16815260200190815260200160002081905550816004600082825461265091906143b2565b92505081905550600073ffffffffffffffffffffffffffffffffffffffff168373ffffffffffffffffffffffffffffffffffffffff167fddf252ad1be2c89b69c2b068fc378daa952ba7f163c4a11628f55a4df523b3ef846040516126b59190614216565b60405180910390a36126c983600084612a2a565b505050565b6000600960009054906101000a900473ffffffffffffffffffffffffffffffffffffffff16905081600960006101000a81548173ffffffffffffffffffffffffffffffffffffffff021916908373ffffffffffffffffffffffffffffffffffffffff1602179055508173ffffffffffffffffffffffffffffffffffffffff168173ffffffffffffffffffffffffffffffffffffffff167f8be0079c531659141344cd1fd0a4f28419497f9722a3daafe3b4186f6b6457e060405160405180910390a35050565b600081600001549050919050565b6127aa6110ce565b156127ea576040517f08c379a00000000000000000000000000000000000000000000000000000000081526004016127e190614016565b60405180910390fd5b6001600760006101000a81548160ff0219169083151502179055507f62e78cea01bee320cd4e420270b5ea74000d11b0c9f74754ebdbfc544b05a25861282e611c7c565b60405161283b9190613cd8565b60405180910390a1565b60006128548360000183612db6565b60001c905092915050565b600061286d82600001612de1565b9050919050565b600080600860008473ffffffffffffffffffffffffffffffffffffffff1673ffffffffffffffffffffffffffffffffffffffff16815260200190815260200160002090506128c181612794565b91506128cc81612df2565b50919050565b60006128e56128df612305565b83612e08565b9050919050565b60008060006128fd87878787612e3b565b9150915061290a81612f48565b8192505050949350505050565b60008151905060006a636f6e736f6c652e6c6f679050602083016000808483855afa5050505050565b600061294c838361311d565b6129a55782600001829080600181540180825580915050600190039060005260206000200160009091909190915055826000018054905083600101600084815260200190815260200160002081905550600190506129aa565b600090505b92915050565b60007f01ffc9a7000000000000000000000000000000000000000000000000000000007bffffffffffffffffffffffffffffffffffffffffffffffffffffffff1916827bffffffffffffffffffffffffffffffffffffffffffffffffffffffff1916149050919050565b612a25838383611b95565b505050565b505050565b606060006002836002612a429190614358565b612a4c9190614302565b67ffffffffffffffff811115612a6557612a64614635565b5b6040519080825280601f01601f191660200182016040528015612a975781602001600182028036833780820191505090505b5090507f300000000000000000000000000000000000000000000000000000000000000081600081518110612acf57612ace614606565b5b60200101907effffffffffffffffffffffffffffffffffffffffffffffffffffffffffffff1916908160001a9053507f780000000000000000000000000000000000000000000000000000000000000081600181518110612b3357612b32614606565b5b60200101907effffffffffffffffffffffffffffffffffffffffffffffffffffffffffffff1916908160001a90535060006001846002612b739190614358565b612b7d9190614302565b90505b6001811115612c1d577f3031323334353637383961626364656600000000000000000000000000000000600f861660108110612bbf57612bbe614606565b5b1a60f81b828281518110612bd657612bd5614606565b5b60200101907effffffffffffffffffffffffffffffffffffffffffffffffffffffffffffff1916908160001a905350600485901c945080612c16906144b3565b9050612b80565b5060008414612c61576040517f08c379a0000000000000000000000000000000000000000000000000000000008152600401612c5890613eb6565b60405180910390fd5b8091505092915050565b60008383834630604051602001612c86959493929190613dac565b6040516020818303038152906040528051906020012090509392505050565b612caf8282611389565b15612d8257600080600084815260200190815260200160002060000160008373ffffffffffffffffffffffffffffffffffffffff1673ffffffffffffffffffffffffffffffffffffffff16815260200190815260200160002060006101000a81548160ff021916908315150217905550612d27611c7c565b73ffffffffffffffffffffffffffffffffffffffff168173ffffffffffffffffffffffffffffffffffffffff16837ff6391f5c32d9c69d2a47ea670b442974b53935d1edc7fd64eb21e047a839171b60405160405180910390a45b5050565b6000612dae836000018373ffffffffffffffffffffffffffffffffffffffff1660001b613140565b905092915050565b6000826000018281548110612dce57612dcd614606565b5b9060005260206000200154905092915050565b600081600001805490509050919050565b6001816000016000828254019250508190555050565b60008282604051602001612e1d929190613c67565b60405160208183030381529060405280519060200120905092915050565b6000807f7fffffffffffffffffffffffffffffff5d576e7357a4501ddfe92f46681b20a08360001c1115612e76576000600391509150612f3f565b601b8560ff1614158015612e8e5750601c8560ff1614155b15612ea0576000600491509150612f3f565b600060018787878760405160008152602001604052604051612ec59493929190613dff565b6020604051602081039080840390855afa158015612ee7573d6000803e3d6000fd5b505050602060405103519050600073ffffffffffffffffffffffffffffffffffffffff168173ffffffffffffffffffffffffffffffffffffffff161415612f3657600060019250925050612f3f565b80600092509250505b94509492505050565b60006004811115612f5c57612f5b614579565b5b816004811115612f6f57612f6e614579565b5b1415612f7a5761311a565b60016004811115612f8e57612f8d614579565b5b816004811115612fa157612fa0614579565b5b1415612fe2576040517f08c379a0000000000000000000000000000000000000000000000000000000008152600401612fd990613e96565b60405180910390fd5b60026004811115612ff657612ff5614579565b5b81600481111561300957613008614579565b5b141561304a576040517f08c379a000000000000000000000000000000000000000000000000000000000815260040161304190613f36565b60405180910390fd5b6003600481111561305e5761305d614579565b5b81600481111561307157613070614579565b5b14156130b2576040517f08c379a00000000000000000000000000000000000000000000000000000000081526004016130a990613ff6565b60405180910390fd5b6004808111156130c5576130c4614579565b5b8160048111156130d8576130d7614579565b5b1415613119576040517f08c379a000000000000000000000000000000000000000000000000000000000815260040161311090614056565b60405180910390fd5b5b50565b600080836001016000848152602001908152602001600020541415905092915050565b6000808360010160008481526020019081526020016000205490506000811461324857600060018261317291906143b2565b905060006001866000018054905061318a91906143b2565b90508181146131f95760008660000182815481106131ab576131aa614606565b5b90600052602060002001549050808760000184815481106131cf576131ce614606565b5b90600052602060002001819055508387600101600083815260200190815260200160002081905550505b8560000180548061320d5761320c6145d7565b5b60019003818190600052602060002001600090559055856001016000868152602001908152602001600020600090556001935050505061324e565b60009150505b92915050565b828054613260906144dd565b90600052602060002090601f01602090048101928261328257600085556132c9565b82601f1061329b57805160ff19168380011785556132c9565b828001600101855582156132c9579182015b828111156132c85782518255916020019190600101906132ad565b5b5090506132d691906132da565b5090565b5b808211156132f35760008160009055506001016132db565b5090565b600061330a61330584614271565b61424c565b90508281526020810184848401111561332657613325614669565b5b613331848285614471565b509392505050565b60008135905061334881614e2c565b92915050565b60008135905061335d81614e43565b92915050565b60008135905061337281614e5a565b92915050565b600082601f83011261338d5761338c614664565b5b813561339d8482602086016132f7565b91505092915050565b6000813590506133b581614e71565b92915050565b6000813590506133ca81614e88565b92915050565b6000602082840312156133e6576133e5614673565b5b60006133f484828501613339565b91505092915050565b6000806040838503121561341457613413614673565b5b600061342285828601613339565b925050602061343385828601613339565b9150509250929050565b60008060006060848603121561345657613455614673565b5b600061346486828701613339565b935050602061347586828701613339565b9250506040613486868287016133a6565b9150509250925092565b600080600080600080600060e0888a0312156134af576134ae614673565b5b60006134bd8a828b01613339565b97505060206134ce8a828b01613339565b96505060406134df8a828b016133a6565b95505060606134f08a828b016133a6565b94505060806135018a828b016133bb565b93505060a06135128a828b0161334e565b92505060c06135238a828b0161334e565b91505092959891949750929550565b6000806040838503121561354957613548614673565b5b600061355785828601613339565b9250506020613568858286016133a6565b9150509250929050565b60006020828403121561358857613587614673565b5b60006135968482850161334e565b91505092915050565b600080604083850312156135b6576135b5614673565b5b60006135c48582860161334e565b92505060206135d585828601613339565b9150509250929050565b600080604083850312156135f6576135f5614673565b5b60006136048582860161334e565b9250506020613615858286016133a6565b9150509250929050565b60006020828403121561363557613634614673565b5b600061364384828501613363565b91505092915050565b60006020828403121561366257613661614673565b5b600082013567ffffffffffffffff8111156136805761367f61466e565b5b61368c84828501613378565b91505092915050565b6000602082840312156136ab576136aa614673565b5b60006136b9848285016133a6565b91505092915050565b60006136ce83836136da565b60208301905092915050565b6136e3816143e6565b82525050565b6136f2816143e6565b82525050565b6000613703826142b2565b61370d81856142d5565b9350613718836142a2565b8060005b8381101561374957815161373088826136c2565b975061373b836142c8565b92505060018101905061371c565b5085935050505092915050565b61375f816143f8565b82525050565b61376e81614404565b82525050565b61378561378082614404565b614540565b82525050565b6000613796826142bd565b6137a081856142e6565b93506137b0818560208601614480565b6137b981614678565b840191505092915050565b60006137cf826142bd565b6137d981856142f7565b93506137e9818560208601614480565b80840191505092915050565b60006138026018836142e6565b915061380d82614689565b602082019050919050565b60006138256020836142e6565b9150613830826146b2565b602082019050919050565b60006138486023836142e6565b9150613853826146db565b604082019050919050565b600061386b6014836142e6565b91506138768261472a565b602082019050919050565b600061388e6022836142e6565b915061389982614753565b604082019050919050565b60006138b1601f836142e6565b91506138bc826147a2565b602082019050919050565b60006138d46039836142e6565b91506138df826147cb565b604082019050919050565b60006138f76026836142e6565b91506139028261481a565b604082019050919050565b600061391a6022836142e6565b915061392582614869565b604082019050919050565b600061393d6002836142f7565b9150613948826148b8565b600282019050919050565b6000613960601d836142e6565b915061396b826148e1565b602082019050919050565b60006139836026836142e6565b915061398e8261490a565b604082019050919050565b60006139a66022836142e6565b91506139b182614959565b604082019050919050565b60006139c96010836142e6565b91506139d4826149a8565b602082019050919050565b60006139ec6011836142e6565b91506139f7826149d1565b602082019050919050565b6000613a0f6022836142e6565b9150613a1a826149fa565b604082019050919050565b6000613a32601e836142e6565b9150613a3d82614a49565b602082019050919050565b6000613a556028836142e6565b9150613a6082614a72565b604082019050919050565b6000613a786020836142e6565b9150613a8382614ac1565b602082019050919050565b6000613a9b6036836142e6565b9150613aa682614aea565b604082019050919050565b6000613abe6024836142e6565b9150613ac982614b39565b604082019050919050565b6000613ae16021836142e6565b9150613aec82614b88565b604082019050919050565b6000613b046025836142e6565b9150613b0f82614bd7565b604082019050919050565b6000613b276024836142e6565b9150613b3282614c26565b604082019050919050565b6000613b4a6037836142e6565b9150613b5582614c75565b604082019050919050565b6000613b6d6017836142f7565b9150613b7882614cc4565b601782019050919050565b6000613b906025836142e6565b9150613b9b82614ced565b604082019050919050565b6000613bb36011836142f7565b9150613bbe82614d3c565b601182019050919050565b6000613bd6602f836142e6565b9150613be182614d65565b604082019050919050565b6000613bf9601f836142e6565b9150613c0482614db4565b602082019050919050565b6000613c1c602a836142e6565b9150613c2782614ddd565b604082019050919050565b613c3b8161445a565b82525050565b613c4a81614464565b82525050565b6000613c5c82846137c4565b915081905092915050565b6000613c7282613930565b9150613c7e8285613774565b602082019150613c8e8284613774565b6020820191508190509392505050565b6000613ca982613b60565b9150613cb582856137c4565b9150613cc082613ba6565b9150613ccc82846137c4565b91508190509392505050565b6000602082019050613ced60008301846136e9565b92915050565b60006020820190508181036000830152613d0d81846136f8565b905092915050565b6000602082019050613d2a6000830184613756565b92915050565b6000602082019050613d456000830184613765565b92915050565b600060c082019050613d606000830189613765565b613d6d60208301886136e9565b613d7a60408301876136e9565b613d876060830186613c32565b613d946080830185613c32565b613da160a0830184613c32565b979650505050505050565b600060a082019050613dc16000830188613765565b613dce6020830187613765565b613ddb6040830186613765565b613de86060830185613c32565b613df560808301846136e9565b9695505050505050565b6000608082019050613e146000830187613765565b613e216020830186613c41565b613e2e6040830185613765565b613e3b6060830184613765565b95945050505050565b60006020820190508181036000830152613e5e818461378b565b905092915050565b60006040820190508181036000830152613e80818561378b565b9050613e8f60208301846136e9565b9392505050565b60006020820190508181036000830152613eaf816137f5565b9050919050565b60006020820190508181036000830152613ecf81613818565b9050919050565b60006020820190508181036000830152613eef8161383b565b9050919050565b60006020820190508181036000830152613f0f8161385e565b9050919050565b60006020820190508181036000830152613f2f81613881565b9050919050565b60006020820190508181036000830152613f4f816138a4565b9050919050565b60006020820190508181036000830152613f6f816138c7565b9050919050565b60006020820190508181036000830152613f8f816138ea565b9050919050565b60006020820190508181036000830152613faf8161390d565b9050919050565b60006020820190508181036000830152613fcf81613953565b9050919050565b60006020820190508181036000830152613fef81613976565b9050919050565b6000602082019050818103600083015261400f81613999565b9050919050565b6000602082019050818103600083015261402f816139bc565b9050919050565b6000602082019050818103600083015261404f816139df565b9050919050565b6000602082019050818103600083015261406f81613a02565b9050919050565b6000602082019050818103600083015261408f81613a25565b9050919050565b600060208201905081810360008301526140af81613a48565b9050919050565b600060208201905081810360008301526140cf81613a6b565b9050919050565b600060208201905081810360008301526140ef81613a8e565b9050919050565b6000602082019050818103600083015261410f81613ab1565b9050919050565b6000602082019050818103600083015261412f81613ad4565b9050919050565b6000602082019050818103600083015261414f81613af7565b9050919050565b6000602082019050818103600083015261416f81613b1a565b9050919050565b6000602082019050818103600083015261418f81613b3d565b9050919050565b600060208201905081810360008301526141af81613b83565b9050919050565b600060208201905081810360008301526141cf81613bc9565b9050919050565b600060208201905081810360008301526141ef81613bec565b9050919050565b6000602082019050818103600083015261420f81613c0f565b9050919050565b600060208201905061422b6000830184613c32565b92915050565b60006020820190506142466000830184613c41565b92915050565b6000614256614267565b9050614262828261450f565b919050565b6000604051905090565b600067ffffffffffffffff82111561428c5761428b614635565b5b61429582614678565b9050602081019050919050565b6000819050602082019050919050565b600081519050919050565b600081519050919050565b6000602082019050919050565b600082825260208201905092915050565b600082825260208201905092915050565b600081905092915050565b600061430d8261445a565b91506143188361445a565b9250827fffffffffffffffffffffffffffffffffffffffffffffffffffffffffffffffff0382111561434d5761434c61454a565b5b828201905092915050565b60006143638261445a565b915061436e8361445a565b9250817fffffffffffffffffffffffffffffffffffffffffffffffffffffffffffffffff04831182151516156143a7576143a661454a565b5b828202905092915050565b60006143bd8261445a565b91506143c88361445a565b9250828210156143db576143da61454a565b5b828203905092915050565b60006143f18261443a565b9050919050565b60008115159050919050565b6000819050919050565b60007fffffffff0000000000000000000000000000000000000000000000000000000082169050919050565b600073ffffffffffffffffffffffffffffffffffffffff82169050919050565b6000819050919050565b600060ff82169050919050565b82818337600083830152505050565b60005b8381101561449e578082015181840152602081019050614483565b838111156144ad576000848401525b50505050565b60006144be8261445a565b915060008214156144d2576144d161454a565b5b600182039050919050565b600060028204905060018216806144f557607f821691505b60208210811415614509576145086145a8565b5b50919050565b61451882614678565b810181811067ffffffffffffffff8211171561453757614536614635565b5b80604052505050565b6000819050919050565b7f4e487b7100000000000000000000000000000000000000000000000000000000600052601160045260246000fd5b7f4e487b7100000000000000000000000000000000000000000000000000000000600052602160045260246000fd5b7f4e487b7100000000000000000000000000000000000000000000000000000000600052602260045260246000fd5b7f4e487b7100000000000000000000000000000000000000000000000000000000600052603160045260246000fd5b7f4e487b7100000000000000000000000000000000000000000000000000000000600052603260045260246000fd5b7f4e487b7100000000000000000000000000000000000000000000000000000000600052604160045260246000fd5b600080fd5b600080fd5b600080fd5b600080fd5b6000601f19601f8301169050919050565b7f45434453413a20696e76616c6964207369676e61747572650000000000000000600082015250565b7f537472696e67733a20686578206c656e67746820696e73756666696369656e74600082015250565b7f45524332303a207472616e7366657220746f20746865207a65726f206164647260008201527f6573730000000000000000000000000000000000000000000000000000000000602082015250565b7f5061757361626c653a206e6f7420706175736564000000000000000000000000600082015250565b7f45524332303a206275726e20616d6f756e7420657863656564732062616c616e60008201527f6365000000000000000000000000000000000000000000000000000000000000602082015250565b7f45434453413a20696e76616c6964207369676e6174757265206c656e67746800600082015250565b7f45524332305072657365744d696e7465725061757365723a206d75737420686160008201527f76652070617573657220726f6c6520746f20756e706175736500000000000000602082015250565b7f4f776e61626c653a206e6577206f776e657220697320746865207a65726f206160008201527f6464726573730000000000000000000000000000000000000000000000000000602082015250565b7f45524332303a20617070726f766520746f20746865207a65726f20616464726560008201527f7373000000000000000000000000000000000000000000000000000000000000602082015250565b7f1901000000000000000000000000000000000000000000000000000000000000600082015250565b7f45524332305065726d69743a206578706972656420646561646c696e65000000600082015250565b7f45524332303a207472616e7366657220616d6f756e742065786365656473206260008201527f616c616e63650000000000000000000000000000000000000000000000000000602082015250565b7f45434453413a20696e76616c6964207369676e6174757265202773272076616c60008201527f7565000000000000000000000000000000000000000000000000000000000000602082015250565b7f5061757361626c653a2070617573656400000000000000000000000000000000600082015250565b7f49442063616e277420626520656d707479000000000000000000000000000000600082015250565b7f45434453413a20696e76616c6964207369676e6174757265202776272076616c60008201527f7565000000000000000000000000000000000000000000000000000000000000602082015250565b7f45524332305065726d69743a20696e76616c6964207369676e61747572650000600082015250565b7f45524332303a207472616e7366657220616d6f756e742065786365656473206160008201527f6c6c6f77616e6365000000000000000000000000000000000000000000000000602082015250565b7f4f776e61626c653a2063616c6c6572206973206e6f7420746865206f776e6572600082015250565b7f45524332305072657365744d696e7465725061757365723a206d75737420686160008201527f7665206d696e74657220726f6c6520746f206d696e7400000000000000000000602082015250565b7f45524332303a206275726e20616d6f756e74206578636565647320616c6c6f7760008201527f616e636500000000000000000000000000000000000000000000000000000000602082015250565b7f45524332303a206275726e2066726f6d20746865207a65726f2061646472657360008201527f7300000000000000000000000000000000000000000000000000000000000000602082015250565b7f45524332303a207472616e736665722066726f6d20746865207a65726f20616460008201527f6472657373000000000000000000000000000000000000000000000000000000602082015250565b7f45524332303a20617070726f76652066726f6d20746865207a65726f2061646460008201527f7265737300000000000000000000000000000000000000000000000000000000602082015250565b7f45524332305072657365744d696e7465725061757365723a206d75737420686160008201527f76652070617573657220726f6c6520746f207061757365000000000000000000602082015250565b7f416363657373436f6e74726f6c3a206163636f756e7420000000000000000000600082015250565b7f45524332303a2064656372656173656420616c6c6f77616e63652062656c6f7760008201527f207a65726f000000000000000000000000000000000000000000000000000000602082015250565b7f206973206d697373696e6720726f6c6520000000000000000000000000000000600082015250565b7f416363657373436f6e74726f6c3a2063616e206f6e6c792072656e6f756e636560008201527f20726f6c657320666f722073656c660000000000000000000000000000000000602082015250565b7f45524332303a206d696e7420746f20746865207a65726f206164647265737300600082015250565b7f45524332305061757361626c653a20746f6b656e207472616e7366657220776860008201527f696c652070617573656400000000000000000000000000000000000000000000602082015250565b614e35816143e6565b8114614e4057600080fd5b50565b614e4c81614404565b8114614e5757600080fd5b50565b614e638161440e565b8114614e6e57600080fd5b50565b614e7a8161445a565b8114614e8557600080fd5b50565b614e9181614464565b8114614e9c57600080fd5b5056fea26469706673582212200e7a40d9ada7a4059ee4b35a792d79b46cdb6ac5487ca4b866f0cf2b5aec7c3964736f6c63430008060033",
  "linkReferences": {},
  "deployedLinkReferences": {}
}