{
  "contractName": "ERC1155Market",
  "abi": [
    {
      "inputs": [
        {
          "internalType": "contract IERC20",
          "name": "_mcoToken",
          "type": "address"
        },
        {
          "internalType": "contract IERC20",
          "name": "_gcoToken",
          "type": "address"
        }
      ],
      "stateMutability": "nonpayable",
      "type": "constructor"
    },
    {
      "anonymous": false,
      "inputs": [
        {
          "indexed": true,
          "internalType": "uint256",
          "name": "itemId",
          "type": "uint256"
        },
        {
          "indexed": true,
          "internalType": "address",
          "name": "nftContract",
          "type": "address"
        },
        {
          "indexed": true,
          "internalType": "uint256",
          "name": "tokenId",
          "type": "uint256"
        },
        {
          "indexed": false,
          "internalType": "address",
          "name": "seller",
          "type": "address"
        },
        {
          "indexed": false,
          "internalType": "address",
          "name": "owner",
          "type": "address"
        },
        {
          "indexed": false,
          "internalType": "uint256",
          "name": "royalty",
          "type": "uint256"
        }
      ],
      "name": "MarketItemCreated",
      "type": "event"
    },
    {
      "anonymous": false,
      "inputs": [
        {
          "indexed": true,
          "internalType": "uint256",
          "name": "itemId",
          "type": "uint256"
        },
        {
          "indexed": true,
          "internalType": "address",
          "name": "nftContract",
          "type": "address"
        },
        {
          "indexed": true,
          "internalType": "uint256",
          "name": "tokenId",
          "type": "uint256"
        },
        {
          "indexed": false,
          "internalType": "address",
          "name": "seller",
          "type": "address"
        },
        {
          "indexed": false,
          "internalType": "address",
          "name": "owner",
          "type": "address"
        },
        {
          "indexed": false,
          "internalType": "uint256",
          "name": "royalty",
          "type": "uint256"
        },
        {
          "indexed": false,
          "internalType": "uint256",
          "name": "quantity",
          "type": "uint256"
        }
      ],
      "name": "MarketItemMultiCreated",
      "type": "event"
    },
    {
      "anonymous": false,
      "inputs": [
        {
          "indexed": true,
          "internalType": "uint256",
          "name": "itemId",
          "type": "uint256"
        },
        {
          "indexed": true,
          "internalType": "address",
          "name": "nftContract",
          "type": "address"
        },
        {
          "indexed": true,
          "internalType": "uint256",
          "name": "tokenId",
          "type": "uint256"
        },
        {
          "indexed": false,
          "internalType": "address",
          "name": "lister",
          "type": "address"
        },
        {
          "indexed": false,
          "internalType": "uint256",
          "name": "price",
          "type": "uint256"
        },
        {
          "indexed": false,
          "internalType": "string",
          "name": "transactionToken",
          "type": "string"
        }
      ],
      "name": "MarketListingCancelled",
      "type": "event"
    },
    {
      "anonymous": false,
      "inputs": [
        {
          "indexed": true,
          "internalType": "uint256",
          "name": "itemId",
          "type": "uint256"
        },
        {
          "indexed": true,
          "internalType": "address",
          "name": "nftContract",
          "type": "address"
        },
        {
          "indexed": true,
          "internalType": "uint256",
          "name": "tokenId",
          "type": "uint256"
        },
        {
          "indexed": false,
          "internalType": "address",
          "name": "lister",
          "type": "address"
        },
        {
          "indexed": false,
          "internalType": "uint256",
          "name": "price",
          "type": "uint256"
        },
        {
          "indexed": false,
          "internalType": "string",
          "name": "transactionToken",
          "type": "string"
        }
      ],
      "name": "MarketListingCreated",
      "type": "event"
    },
    {
      "anonymous": false,
      "inputs": [
        {
          "indexed": true,
          "internalType": "uint256",
          "name": "itemId",
          "type": "uint256"
        },
        {
          "indexed": true,
          "internalType": "address",
          "name": "nftContract",
          "type": "address"
        },
        {
          "indexed": true,
          "internalType": "uint256",
          "name": "tokenId",
          "type": "uint256"
        },
        {
          "indexed": false,
          "internalType": "address",
          "name": "lister",
          "type": "address"
        },
        {
          "indexed": false,
          "internalType": "uint256",
          "name": "price",
          "type": "uint256"
        },
        {
          "indexed": false,
          "internalType": "string",
          "name": "transactionToken",
          "type": "string"
        },
        {
          "indexed": false,
          "internalType": "uint256",
          "name": "quantity",
          "type": "uint256"
        }
      ],
      "name": "MarketMultiListingCreated",
      "type": "event"
    },
    {
      "anonymous": false,
      "inputs": [
        {
          "indexed": true,
          "internalType": "uint256",
          "name": "itemId",
          "type": "uint256"
        },
        {
          "indexed": true,
          "internalType": "address",
          "name": "nftContract",
          "type": "address"
        },
        {
          "indexed": true,
          "internalType": "uint256",
          "name": "tokenId",
          "type": "uint256"
        },
        {
          "indexed": false,
          "internalType": "address",
          "name": "seller",
          "type": "address"
        },
        {
          "indexed": false,
          "internalType": "address",
          "name": "buyer",
          "type": "address"
        },
        {
          "indexed": false,
          "internalType": "uint256",
          "name": "price",
          "type": "uint256"
        },
        {
          "indexed": false,
          "internalType": "uint256",
          "name": "royalty",
          "type": "uint256"
        },
        {
          "indexed": false,
          "internalType": "string",
          "name": "transactionToken",
          "type": "string"
        }
      ],
      "name": "MarketSaleCreated",
      "type": "event"
    },
    {
      "anonymous": false,
      "inputs": [
        {
          "indexed": false,
          "internalType": "address",
          "name": "_senderAddress",
          "type": "address"
        },
        {
          "indexed": false,
          "internalType": "address",
          "name": "_destAddress",
          "type": "address"
        },
        {
          "indexed": false,
          "internalType": "uint256",
          "name": "_amount",
          "type": "uint256"
        }
      ],
      "name": "TransferSent",
      "type": "event"
    },
    {
      "inputs": [
        {
          "internalType": "address",
          "name": "",
          "type": "address"
        },
        {
          "internalType": "address",
          "name": "",
          "type": "address"
        },
        {
          "internalType": "uint256[]",
          "name": "",
          "type": "uint256[]"
        },
        {
          "internalType": "uint256[]",
          "name": "",
          "type": "uint256[]"
        },
        {
          "internalType": "bytes",
          "name": "",
          "type": "bytes"
        }
      ],
      "name": "onERC1155BatchReceived",
      "outputs": [
        {
          "internalType": "bytes4",
          "name": "",
          "type": "bytes4"
        }
      ],
      "stateMutability": "nonpayable",
      "type": "function"
    },
    {
      "inputs": [
        {
          "internalType": "address",
          "name": "",
          "type": "address"
        },
        {
          "internalType": "address",
          "name": "",
          "type": "address"
        },
        {
          "internalType": "uint256",
          "name": "",
          "type": "uint256"
        },
        {
          "internalType": "uint256",
          "name": "",
          "type": "uint256"
        },
        {
          "internalType": "bytes",
          "name": "",
          "type": "bytes"
        }
      ],
      "name": "onERC1155Received",
      "outputs": [
        {
          "internalType": "bytes4",
          "name": "",
          "type": "bytes4"
        }
      ],
      "stateMutability": "nonpayable",
      "type": "function"
    },
    {
      "inputs": [
        {
          "internalType": "bytes4",
          "name": "interfaceId",
          "type": "bytes4"
        }
      ],
      "name": "supportsInterface",
      "outputs": [
        {
          "internalType": "bool",
          "name": "",
          "type": "bool"
        }
      ],
      "stateMutability": "view",
      "type": "function",
      "constant": true
    },
    {
      "inputs": [],
      "name": "getListingPrice",
      "outputs": [
        {
          "internalType": "uint256",
          "name": "",
          "type": "uint256"
        }
      ],
      "stateMutability": "view",
      "type": "function",
      "constant": true
    },
    {
      "inputs": [
        {
          "internalType": "address",
          "name": "nftContract",
          "type": "address"
        },
        {
          "internalType": "uint256",
          "name": "tokenId",
          "type": "uint256"
        },
        {
          "internalType": "uint256",
          "name": "category",
          "type": "uint256"
        },
        {
          "internalType": "uint256",
          "name": "royalty",
          "type": "uint256"
        }
      ],
      "name": "createMarketItem",
      "outputs": [],
      "stateMutability": "nonpayable",
      "type": "function"
    },
    {
      "inputs": [
        {
          "internalType": "address",
          "name": "nftContract",
          "type": "address"
        },
        {
          "internalType": "uint256",
          "name": "tokenId",
          "type": "uint256"
        },
        {
          "internalType": "uint256",
          "name": "category",
          "type": "uint256"
        },
        {
          "internalType": "uint256",
          "name": "royalty",
          "type": "uint256"
        },
        {
          "internalType": "uint256",
          "name": "quantity",
          "type": "uint256"
        }
      ],
      "name": "createMultiMarketItem",
      "outputs": [],
      "stateMutability": "nonpayable",
      "type": "function"
    },
    {
      "inputs": [
        {
          "internalType": "uint256",
          "name": "itemId",
          "type": "uint256"
        },
        {
          "internalType": "uint256",
          "name": "price",
          "type": "uint256"
        },
        {
          "internalType": "bool",
          "name": "useGco",
          "type": "bool"
        }
      ],
      "name": "createMarketListing",
      "outputs": [],
      "stateMutability": "nonpayable",
      "type": "function"
    },
    {
      "inputs": [
        {
          "internalType": "uint256",
          "name": "itemId",
          "type": "uint256"
        },
        {
          "internalType": "uint256",
          "name": "price",
          "type": "uint256"
        },
        {
          "internalType": "bool",
          "name": "useGco",
          "type": "bool"
        },
        {
          "internalType": "uint256",
          "name": "quantity",
          "type": "uint256"
        }
      ],
      "name": "createMultiMarketListing",
      "outputs": [],
      "stateMutability": "nonpayable",
      "type": "function"
    },
    {
      "inputs": [
        {
          "internalType": "uint256",
          "name": "itemId",
          "type": "uint256"
        }
      ],
      "name": "cancelMarketListing",
      "outputs": [],
      "stateMutability": "nonpayable",
      "type": "function"
    },
    {
      "inputs": [
        {
          "internalType": "address",
          "name": "nftContract",
          "type": "address"
        },
        {
          "internalType": "uint256",
          "name": "itemId",
          "type": "uint256"
        }
      ],
      "name": "createMarketSale",
      "outputs": [],
      "stateMutability": "nonpayable",
      "type": "function"
    },
    {
      "inputs": [],
      "name": "fetchMarketItems",
      "outputs": [
        {
          "components": [
            {
              "internalType": "uint256",
              "name": "itemId",
              "type": "uint256"
            },
            {
              "internalType": "address",
              "name": "nftContract",
              "type": "address"
            },
            {
              "internalType": "uint256",
              "name": "tokenId",
              "type": "uint256"
            },
            {
              "internalType": "uint256",
              "name": "currentPrice",
              "type": "uint256"
            },
            {
              "internalType": "enum ERC1155Market.ItemCategories",
              "name": "category",
              "type": "uint8"
            },
            {
              "internalType": "bool",
              "name": "listed",
              "type": "bool"
            },
            {
              "internalType": "address",
              "name": "creator",
              "type": "address"
            },
            {
              "internalType": "address",
              "name": "currentOwner",
              "type": "address"
            },
            {
              "internalType": "uint256",
              "name": "royalty",
              "type": "uint256"
            },
            {
              "internalType": "bool",
              "name": "useGco",
              "type": "bool"
            }
          ],
          "internalType": "struct ERC1155Market.MarketItem[]",
          "name": "",
          "type": "tuple[]"
        }
      ],
      "stateMutability": "view",
      "type": "function",
      "constant": true
    },
    {
      "inputs": [],
      "name": "fetchMyNFTs",
      "outputs": [
        {
          "components": [
            {
              "internalType": "uint256",
              "name": "itemId",
              "type": "uint256"
            },
            {
              "internalType": "address",
              "name": "nftContract",
              "type": "address"
            },
            {
              "internalType": "uint256",
              "name": "tokenId",
              "type": "uint256"
            },
            {
              "internalType": "uint256",
              "name": "currentPrice",
              "type": "uint256"
            },
            {
              "internalType": "enum ERC1155Market.ItemCategories",
              "name": "category",
              "type": "uint8"
            },
            {
              "internalType": "bool",
              "name": "listed",
              "type": "bool"
            },
            {
              "internalType": "address",
              "name": "creator",
              "type": "address"
            },
            {
              "internalType": "address",
              "name": "currentOwner",
              "type": "address"
            },
            {
              "internalType": "uint256",
              "name": "royalty",
              "type": "uint256"
            },
            {
              "internalType": "bool",
              "name": "useGco",
              "type": "bool"
            }
          ],
          "internalType": "struct ERC1155Market.MarketItem[]",
          "name": "",
          "type": "tuple[]"
        }
      ],
      "stateMutability": "view",
      "type": "function",
      "constant": true
    },
    {
      "inputs": [],
      "name": "fetchItemsCreated",
      "outputs": [
        {
          "components": [
            {
              "internalType": "uint256",
              "name": "itemId",
              "type": "uint256"
            },
            {
              "internalType": "address",
              "name": "nftContract",
              "type": "address"
            },
            {
              "internalType": "uint256",
              "name": "tokenId",
              "type": "uint256"
            },
            {
              "internalType": "uint256",
              "name": "currentPrice",
              "type": "uint256"
            },
            {
              "internalType": "enum ERC1155Market.ItemCategories",
              "name": "category",
              "type": "uint8"
            },
            {
              "internalType": "bool",
              "name": "listed",
              "type": "bool"
            },
            {
              "internalType": "address",
              "name": "creator",
              "type": "address"
            },
            {
              "internalType": "address",
              "name": "currentOwner",
              "type": "address"
            },
            {
              "internalType": "uint256",
              "name": "royalty",
              "type": "uint256"
            },
            {
              "internalType": "bool",
              "name": "useGco",
              "type": "bool"
            }
          ],
          "internalType": "struct ERC1155Market.MarketItem[]",
          "name": "",
          "type": "tuple[]"
        }
      ],
      "stateMutability": "view",
      "type": "function",
      "constant": true
    }
  ],
  "bytecode": "0x60806040526658d15e176280006006553480156200001c57600080fd5b506040516200487c3803806200487c83398181016040528101906200004291906200012c565b600160008190555033600560006101000a81548173ffffffffffffffffffffffffffffffffffffffff021916908373ffffffffffffffffffffffffffffffffffffffff16021790555081600160006101000a81548173ffffffffffffffffffffffffffffffffffffffff021916908373ffffffffffffffffffffffffffffffffffffffff16021790555080600260006101000a81548173ffffffffffffffffffffffffffffffffffffffff021916908373ffffffffffffffffffffffffffffffffffffffff1602179055505050620001da565b6000815190506200012681620001c0565b92915050565b60008060408385031215620001465762000145620001bb565b5b6000620001568582860162000115565b9250506020620001698582860162000115565b9150509250929050565b600062000180826200019b565b9050919050565b6000620001948262000173565b9050919050565b600073ffffffffffffffffffffffffffffffffffffffff82169050919050565b600080fd5b620001cb8162000187565b8114620001d757600080fd5b50565b61469280620001ea6000396000f3fe608060405234801561001057600080fd5b50600436106100cf5760003560e01c8063a0cf6cbb1161008c578063c23b139e11610066578063c23b139e146101fe578063e51b5f831461021a578063f064c32e14610236578063f23a6e6114610254576100cf565b8063a0cf6cbb14610196578063b85a51de146101b2578063bc197c81146101ce576100cf565b806301ffc9a7146100d4578063020be559146101045780630f08efe01461012057806312e855851461013e578063202e37401461015c578063599ba2341461017a575b600080fd5b6100ee60048036038101906100e991906135e1565b610284565b6040516100fb9190613dde565b60405180910390f35b61011e60048036038101906101199190613668565b6102fe565b005b6101286107c4565b6040516101359190613dbc565b60405180910390f35b610146610a54565b6040516101539190613f34565b60405180910390f35b610164610a5e565b6040516101719190613dbc565b60405180910390f35b610194600480360381019061018f91906134d2565b610e0d565b005b6101b060048036038101906101ab919061360e565b6111e0565b005b6101cc60048036038101906101c791906136bb565b61168d565b005b6101e860048036038101906101e3919061332c565b611ce6565b6040516101f59190613df9565b60405180910390f35b61021860048036038101906102139190613492565b611cfb565b005b610234600480360381019061022f9190613539565b6127ff565b005b61023e612c1b565b60405161024b9190613dbc565b60405180910390f35b61026e600480360381019061026991906133fb565b612fca565b60405161027b9190613df9565b60405180910390f35b60007f4e2312e0000000000000000000000000000000000000000000000000000000007bffffffffffffffffffffffffffffffffffffffffffffffffffffffff1916827bffffffffffffffffffffffffffffffffffffffffffffffffffffffff191614806102f757506102f682612fdf565b5b9050919050565b826103096003613049565b811115801561032d5750806007600083815260200190815260200160002060000154145b61036c576040517f08c379a000000000000000000000000000000000000000000000000000000000815260040161036390613e94565b60405180910390fd5b600260005414156103b2576040517f08c379a00000000000000000000000000000000000000000000000000000000081526004016103a990613ef4565b60405180910390fd5b6002600081905550600083116103fd576040517f08c379a00000000000000000000000000000000000000000000000000000000081526004016103f490613f14565b60405180910390fd5b60006007600086815260200190815260200160002060020154905060006007600087815260200190815260200160002060010160009054906101000a900473ffffffffffffffffffffffffffffffffffffffff16905060018173ffffffffffffffffffffffffffffffffffffffff1662fdd58e33856040518363ffffffff1660e01b815260040161048f929190613c87565b60206040518083038186803b1580156104a757600080fd5b505afa1580156104bb573d6000803e3d6000fd5b505050506040513d601f19601f820116820180604052508101906104df919061363b565b1015610520576040517f08c379a000000000000000000000000000000000000000000000000000000000815260040161051790613eb4565b60405180910390fd5b600260009054906101000a900473ffffffffffffffffffffffffffffffffffffffff1673ffffffffffffffffffffffffffffffffffffffff166323b872dd33306006546040518463ffffffff1660e01b815260040161058193929190613aab565b602060405180830381600087803b15801561059b57600080fd5b505af11580156105af573d6000803e3d6000fd5b505050506040513d601f19601f820116820180604052508101906105d391906135b4565b50831561060e5760016007600088815260200190815260200160002060070160006101000a81548160ff02191690831515021790555061063e565b60006007600088815260200190815260200160002060070160006101000a81548160ff0219169083151502179055505b8460076000888152602001908152602001600020600301819055508073ffffffffffffffffffffffffffffffffffffffff1663f242432a33308560016040518563ffffffff1660e01b81526004016106999493929190613ae2565b600060405180830381600087803b1580156106b357600080fd5b505af11580156106c7573d6000803e3d6000fd5b5050505060016007600088815260200190815260200160002060040160016101000a81548160ff0219169083151502179055506107046004613057565b831561076157818173ffffffffffffffffffffffffffffffffffffffff16877fccc5f53ee184a9b140a54ccde6f4fe6278fcdf0dfa4de965ab714965bedf53103389604051610754929190613d36565b60405180910390a46107b4565b818173ffffffffffffffffffffffffffffffffffffffff16877fccc5f53ee184a9b140a54ccde6f4fe6278fcdf0dfa4de965ab714965bedf531033896040516107ab929190613cb0565b60405180910390a45b5050600160008190555050505050565b606060006107d26003613049565b90506000808267ffffffffffffffff8111156107f1576107f061435b565b5b60405190808252806020026020018201604052801561082a57816020015b6108176130f5565b81526020019060019003908161080f5790505b50905060005b83811015610a4a576000600182610847919061402c565b905060006007600083815260200190815260200160002090508060405180610140016040529081600082015481526020016001820160009054906101000a900473ffffffffffffffffffffffffffffffffffffffff1673ffffffffffffffffffffffffffffffffffffffff1673ffffffffffffffffffffffffffffffffffffffff16815260200160028201548152602001600382015481526020016004820160009054906101000a900460ff166004811115610906576109056142fd565b5b6004811115610918576109176142fd565b5b81526020016004820160019054906101000a900460ff161515151581526020016004820160029054906101000a900473ffffffffffffffffffffffffffffffffffffffff1673ffffffffffffffffffffffffffffffffffffffff1673ffffffffffffffffffffffffffffffffffffffff1681526020016005820160009054906101000a900473ffffffffffffffffffffffffffffffffffffffff1673ffffffffffffffffffffffffffffffffffffffff1673ffffffffffffffffffffffffffffffffffffffff168152602001600682015481526020016007820160009054906101000a900460ff161515151581525050848681518110610a1b57610a1a61432c565b5b6020026020010181905250600185610a33919061402c565b945050508080610a4290614256565b915050610830565b5080935050505090565b6000600654905090565b60606000610a6c6003613049565b905060008060005b83811015610b15573373ffffffffffffffffffffffffffffffffffffffff1660076000600184610aa4919061402c565b815260200190815260200160002060050160009054906101000a900473ffffffffffffffffffffffffffffffffffffffff1673ffffffffffffffffffffffffffffffffffffffff161415610b0257600183610aff919061402c565b92505b8080610b0d90614256565b915050610a74565b5060008267ffffffffffffffff811115610b3257610b3161435b565b5b604051908082528060200260200182016040528015610b6b57816020015b610b586130f5565b815260200190600190039081610b505790505b50905060005b84811015610e02573373ffffffffffffffffffffffffffffffffffffffff1660076000600184610ba1919061402c565b815260200190815260200160002060050160009054906101000a900473ffffffffffffffffffffffffffffffffffffffff1673ffffffffffffffffffffffffffffffffffffffff161415610def576000600182610bfe919061402c565b905060006007600083815260200190815260200160002090508060405180610140016040529081600082015481526020016001820160009054906101000a900473ffffffffffffffffffffffffffffffffffffffff1673ffffffffffffffffffffffffffffffffffffffff1673ffffffffffffffffffffffffffffffffffffffff16815260200160028201548152602001600382015481526020016004820160009054906101000a900460ff166004811115610cbd57610cbc6142fd565b5b6004811115610ccf57610cce6142fd565b5b81526020016004820160019054906101000a900460ff161515151581526020016004820160029054906101000a900473ffffffffffffffffffffffffffffffffffffffff1673ffffffffffffffffffffffffffffffffffffffff1673ffffffffffffffffffffffffffffffffffffffff1681526020016005820160009054906101000a900473ffffffffffffffffffffffffffffffffffffffff1673ffffffffffffffffffffffffffffffffffffffff1673ffffffffffffffffffffffffffffffffffffffff168152602001600682015481526020016007820160009054906101000a900460ff161515151581525050848681518110610dd257610dd161432c565b5b6020026020010181905250600185610dea919061402c565b945050505b8080610dfa90614256565b915050610b71565b508094505050505090565b838360018273ffffffffffffffffffffffffffffffffffffffff1662fdd58e33846040518363ffffffff1660e01b8152600401610e4b929190613c87565b60206040518083038186803b158015610e6357600080fd5b505afa158015610e77573d6000803e3d6000fd5b505050506040513d601f19601f82011682018060405250810190610e9b919061363b565b1015610edc576040517f08c379a0000000000000000000000000000000000000000000000000000000008152600401610ed390613e74565b60405180910390fd5b60026000541415610f22576040517f08c379a0000000000000000000000000000000000000000000000000000000008152600401610f1990613ef4565b60405180910390fd5b6002600081905550610f346003613057565b6000610f406003613049565b90506040518061014001604052808281526020018873ffffffffffffffffffffffffffffffffffffffff16815260200187815260200160008152602001866004811115610f9057610f8f6142fd565b5b6004811115610fa257610fa16142fd565b5b81526020016000151581526020013373ffffffffffffffffffffffffffffffffffffffff1681526020013373ffffffffffffffffffffffffffffffffffffffff16815260200185815260200160011515815250600760008381526020019081526020016000206000820151816000015560208201518160010160006101000a81548173ffffffffffffffffffffffffffffffffffffffff021916908373ffffffffffffffffffffffffffffffffffffffff160217905550604082015181600201556060820151816003015560808201518160040160006101000a81548160ff02191690836004811115611098576110976142fd565b5b021790555060a08201518160040160016101000a81548160ff02191690831515021790555060c08201518160040160026101000a81548173ffffffffffffffffffffffffffffffffffffffff021916908373ffffffffffffffffffffffffffffffffffffffff16021790555060e08201518160050160006101000a81548173ffffffffffffffffffffffffffffffffffffffff021916908373ffffffffffffffffffffffffffffffffffffffff16021790555061010082015181600601556101208201518160070160006101000a81548160ff021916908315150217905550905050858773ffffffffffffffffffffffffffffffffffffffff16827f2ad024d53a0dc50c130967f8d4941927ee087ea31394cebb2b9599d3706c9c00600033896040516111c793929190613aab565b60405180910390a4506001600081905550505050505050565b806111eb6003613049565b811115801561120f5750806007600083815260200190815260200160002060000154145b61124e576040517f08c379a000000000000000000000000000000000000000000000000000000000815260040161124590613e94565b60405180910390fd5b81600115156007600083815260200190815260200160002060040160019054906101000a900460ff161515146112b9576040517f08c379a00000000000000000000000000000000000000000000000000000000081526004016112b090613e54565b60405180910390fd5b600260005414156112ff576040517f08c379a00000000000000000000000000000000000000000000000000000000081526004016112f690613ef4565b60405180910390fd5b600260008190555060006007600085815260200190815260200160002060020154905060006007600086815260200190815260200160002060010160009054906101000a900473ffffffffffffffffffffffffffffffffffffffff16905060018173ffffffffffffffffffffffffffffffffffffffff1662fdd58e33856040518363ffffffff1660e01b8152600401611399929190613c87565b60206040518083038186803b1580156113b157600080fd5b505afa1580156113c5573d6000803e3d6000fd5b505050506040513d601f19601f820116820180604052508101906113e9919061363b565b101561142a576040517f08c379a000000000000000000000000000000000000000000000000000000000815260040161142190613ed4565b60405180910390fd5b600260009054906101000a900473ffffffffffffffffffffffffffffffffffffffff1673ffffffffffffffffffffffffffffffffffffffff166323b872dd30336006546040518463ffffffff1660e01b815260040161148b93929190613aab565b602060405180830381600087803b1580156114a557600080fd5b505af11580156114b9573d6000803e3d6000fd5b505050506040513d601f19601f820116820180604052508101906114dd91906135b4565b508073ffffffffffffffffffffffffffffffffffffffff1663f242432a30338560016040518563ffffffff1660e01b815260040161151e9493929190613ae2565b600060405180830381600087803b15801561153857600080fd5b505af115801561154c573d6000803e3d6000fd5b5050505060006007600087815260200190815260200160002060040160016101000a81548160ff02191690831515021790555060006007600087815260200190815260200160002060030154905060006007600088815260200190815260200160002060070160009054906101000a900460ff1690506115cc600461306d565b801561162957838373ffffffffffffffffffffffffffffffffffffffff16887fda0675e100ef805b171eae6494d9c3bff0e514f13f8091659d13a1418ec37e5d338660405161161c929190613d36565b60405180910390a461167c565b838373ffffffffffffffffffffffffffffffffffffffff16887fda0675e100ef805b171eae6494d9c3bff0e514f13f8091659d13a1418ec37e5d3386604051611673929190613cb0565b60405180910390a45b505050506001600081905550505050565b836116986003613049565b81111580156116bc5750806007600083815260200190815260200160002060000154145b6116fb576040517f08c379a00000000000000000000000000000000000000000000000000000000081526004016116f290613e94565b60405180910390fd5b60026000541415611741576040517f08c379a000000000000000000000000000000000000000000000000000000000815260040161173890613ef4565b60405180910390fd5b60026000819055506000841161178c576040517f08c379a000000000000000000000000000000000000000000000000000000000815260040161178390613f14565b60405180910390fd5b60006007600087815260200190815260200160002060020154905060006007600088815260200190815260200160002060010160009054906101000a900473ffffffffffffffffffffffffffffffffffffffff169050838173ffffffffffffffffffffffffffffffffffffffff1662fdd58e33856040518363ffffffff1660e01b815260040161181d929190613c87565b60206040518083038186803b15801561183557600080fd5b505afa158015611849573d6000803e3d6000fd5b505050506040513d601f19601f8201168201806040525081019061186d919061363b565b10156118ae576040517f08c379a00000000000000000000000000000000000000000000000000000000081526004016118a590613eb4565b60405180910390fd5b600260009054906101000a900473ffffffffffffffffffffffffffffffffffffffff1673ffffffffffffffffffffffffffffffffffffffff166323b872dd3330876006546118fc91906140b3565b6040518463ffffffff1660e01b815260040161191a93929190613aab565b602060405180830381600087803b15801561193457600080fd5b505af1158015611948573d6000803e3d6000fd5b505050506040513d601f19601f8201168201806040525081019061196c91906135b4565b50600087905060008186101561198b578589611988919061410d565b90505b6000808a90505b8383116119fd57600283856119a7919061402c565b6119b19190614082565b915085600760008481526020019081526020016000206002015414156119e8578190506001826119e1919061410d565b93506119f8565b6001826119f5919061402c565b92505b611992565b60008890505b866007600084815260200190815260200160002060020154148015611a285750600081115b15611bab573373ffffffffffffffffffffffffffffffffffffffff166007600084815260200190815260200160002060050160009054906101000a900473ffffffffffffffffffffffffffffffffffffffff1673ffffffffffffffffffffffffffffffffffffffff16148015611ac55750600015156007600084815260200190815260200160002060040160019054906101000a900460ff161515145b15611b97578915611b045760016007600084815260200190815260200160002060070160006101000a81548160ff021916908315150217905550611b34565b60006007600084815260200190815260200160002060070160006101000a81548160ff0219169083151502179055505b8a600760008481526020019081526020016000206003018190555060016007600084815260200190815260200160002060040160016101000a81548160ff021916908315150217905550611b886004613057565b8080611b93906141fb565b9150505b600182611ba4919061402c565b9150611a03565b8573ffffffffffffffffffffffffffffffffffffffff1663f242432a33308a8d6040518563ffffffff1660e01b8152600401611bea9493929190613c2f565b600060405180830381600087803b158015611c0457600080fd5b505af1158015611c18573d6000803e3d6000fd5b505050508915611c7b57868673ffffffffffffffffffffffffffffffffffffffff168d7f276cf1e6f58e7ccec967c58ed893ba2db52f96923e8a80905bfeee909a72e0f6338f8e604051611c6e93929190613d72565b60405180910390a4611cd0565b868673ffffffffffffffffffffffffffffffffffffffff168d7f276cf1e6f58e7ccec967c58ed893ba2db52f96923e8a80905bfeee909a72e0f6338f8e604051611cc793929190613cec565b60405180910390a45b5050505050505060016000819055505050505050565b600063bc197c8160e01b905095945050505050565b80611d066003613049565b8111158015611d2a5750806007600083815260200190815260200160002060000154145b611d69576040517f08c379a0000000000000000000000000000000000000000000000000000000008152600401611d6090613e94565b60405180910390fd5b81600115156007600083815260200190815260200160002060040160019054906101000a900460ff16151514611dd4576040517f08c379a0000000000000000000000000000000000000000000000000000000008152600401611dcb90613e54565b60405180910390fd5b60026000541415611e1a576040517f08c379a0000000000000000000000000000000000000000000000000000000008152600401611e1190613ef4565b60405180910390fd5b600260008190555060006007600085815260200190815260200160002060030154905060006007600086815260200190815260200160002060020154905060006007600087815260200190815260200160002060050160009054906101000a900473ffffffffffffffffffffffffffffffffffffffff16905060006007600088815260200190815260200160002060060154905060006007600089815260200190815260200160002060040160029054906101000a900473ffffffffffffffffffffffffffffffffffffffff1690506000600760008a815260200190815260200160002060070160009054906101000a900460ff1690506000600260009054906101000a900473ffffffffffffffffffffffffffffffffffffffff1673ffffffffffffffffffffffffffffffffffffffff166370a08231336040518263ffffffff1660e01b8152600401611f6e9190613a90565b60206040518083038186803b158015611f8657600080fd5b505afa158015611f9a573d6000803e3d6000fd5b505050506040513d601f19601f82011682018060405250810190611fbe919061363b565b9050811561207857600260009054906101000a900473ffffffffffffffffffffffffffffffffffffffff1673ffffffffffffffffffffffffffffffffffffffff166370a08231336040518263ffffffff1660e01b81526004016120219190613a90565b60206040518083038186803b15801561203957600080fd5b505afa15801561204d573d6000803e3d6000fd5b505050506040513d601f19601f82011682018060405250810190612071919061363b565b9050612126565b600160009054906101000a900473ffffffffffffffffffffffffffffffffffffffff1673ffffffffffffffffffffffffffffffffffffffff166370a08231336040518263ffffffff1660e01b81526004016120d39190613a90565b60206040518083038186803b1580156120eb57600080fd5b505afa1580156120ff573d6000803e3d6000fd5b505050506040513d601f19601f82011682018060405250810190612123919061363b565b90505b86811015612169576040517f08c379a000000000000000000000000000000000000000000000000000000000815260040161216090613e14565b60405180910390fd5b600087111561263257600061219c60fa61218e6127108b6130c990919063ffffffff16565b6130df90919063ffffffff16565b905060006121d160646121c388858d6121b5919061410d565b6130df90919063ffffffff16565b6130c990919063ffffffff16565b9050831561240657600260009054906101000a900473ffffffffffffffffffffffffffffffffffffffff1673ffffffffffffffffffffffffffffffffffffffff166323b872dd33308c6040518463ffffffff1660e01b815260040161223893929190613aab565b602060405180830381600087803b15801561225257600080fd5b505af1158015612266573d6000803e3d6000fd5b505050506040513d601f19601f8201168201806040525081019061228a91906135b4565b50600260009054906101000a900473ffffffffffffffffffffffffffffffffffffffff1673ffffffffffffffffffffffffffffffffffffffff1663a9059cbb86836040518363ffffffff1660e01b81526004016122e8929190613c87565b602060405180830381600087803b15801561230257600080fd5b505af1158015612316573d6000803e3d6000fd5b505050506040513d601f19601f8201168201806040525081019061233a91906135b4565b50600260009054906101000a900473ffffffffffffffffffffffffffffffffffffffff1673ffffffffffffffffffffffffffffffffffffffff1663a9059cbb8883858d612387919061410d565b612391919061410d565b6040518363ffffffff1660e01b81526004016123ae929190613c87565b602060405180830381600087803b1580156123c857600080fd5b505af11580156123dc573d6000803e3d6000fd5b505050506040513d601f19601f8201168201806040525081019061240091906135b4565b5061262f565b600160009054906101000a900473ffffffffffffffffffffffffffffffffffffffff1673ffffffffffffffffffffffffffffffffffffffff166323b872dd33308c6040518463ffffffff1660e01b815260040161246593929190613aab565b602060405180830381600087803b15801561247f57600080fd5b505af1158015612493573d6000803e3d6000fd5b505050506040513d601f19601f820116820180604052508101906124b791906135b4565b50600160009054906101000a900473ffffffffffffffffffffffffffffffffffffffff1673ffffffffffffffffffffffffffffffffffffffff1663a9059cbb86836040518363ffffffff1660e01b8152600401612515929190613c87565b602060405180830381600087803b15801561252f57600080fd5b505af1158015612543573d6000803e3d6000fd5b505050506040513d601f19601f8201168201806040525081019061256791906135b4565b50600160009054906101000a900473ffffffffffffffffffffffffffffffffffffffff1673ffffffffffffffffffffffffffffffffffffffff1663a9059cbb8883858d6125b4919061410d565b6125be919061410d565b6040518363ffffffff1660e01b81526004016125db929190613c87565b602060405180830381600087803b1580156125f557600080fd5b505af1158015612609573d6000803e3d6000fd5b505050506040513d601f19601f8201168201806040525081019061262d91906135b4565b505b50505b8a73ffffffffffffffffffffffffffffffffffffffff1663f242432a30338960016040518563ffffffff1660e01b81526004016126729493929190613ae2565b600060405180830381600087803b15801561268c57600080fd5b505af11580156126a0573d6000803e3d6000fd5b505050506000600760008c815260200190815260200160002060040160016101000a81548160ff02191690831515021790555033600760008c815260200190815260200160002060050160006101000a81548173ffffffffffffffffffffffffffffffffffffffff021916908373ffffffffffffffffffffffffffffffffffffffff160217905550612732600461306d565b811561279357858b73ffffffffffffffffffffffffffffffffffffffff168b7f96b74af4bff411ec4390f5aab309e301b812855ab74090d4207fb595779d3b9388338c8a6040516127869493929190613bd7565b60405180910390a46127ea565b858b73ffffffffffffffffffffffffffffffffffffffff168b7f96b74af4bff411ec4390f5aab309e301b812855ab74090d4207fb595779d3b9388338c8a6040516127e19493929190613b7f565b60405180910390a45b50505050505050600160008190555050505050565b848460018273ffffffffffffffffffffffffffffffffffffffff1662fdd58e33846040518363ffffffff1660e01b815260040161283d929190613c87565b60206040518083038186803b15801561285557600080fd5b505afa158015612869573d6000803e3d6000fd5b505050506040513d601f19601f8201168201806040525081019061288d919061363b565b10156128ce576040517f08c379a00000000000000000000000000000000000000000000000000000000081526004016128c590613e74565b60405180910390fd5b60026000541415612914576040517f08c379a000000000000000000000000000000000000000000000000000000000815260040161290b90613ef4565b60405180910390fd5b600260008190555060006129286003613049565b905060006129366003613049565b905060005b85811015612ba45761294d6003613057565b6129576003613049565b91506040518061014001604052808381526020018b73ffffffffffffffffffffffffffffffffffffffff1681526020018a8152602001600081526020018960048111156129a7576129a66142fd565b5b60048111156129b9576129b86142fd565b5b81526020016000151581526020013373ffffffffffffffffffffffffffffffffffffffff1681526020013373ffffffffffffffffffffffffffffffffffffffff16815260200188815260200160011515815250600760008481526020019081526020016000206000820151816000015560208201518160010160006101000a81548173ffffffffffffffffffffffffffffffffffffffff021916908373ffffffffffffffffffffffffffffffffffffffff160217905550604082015181600201556060820151816003015560808201518160040160006101000a81548160ff02191690836004811115612aaf57612aae6142fd565b5b021790555060a08201518160040160016101000a81548160ff02191690831515021790555060c08201518160040160026101000a81548173ffffffffffffffffffffffffffffffffffffffff021916908373ffffffffffffffffffffffffffffffffffffffff16021790555060e08201518160050160006101000a81548173ffffffffffffffffffffffffffffffffffffffff021916908373ffffffffffffffffffffffffffffffffffffffff16021790555061010082015181600601556101208201518160070160006101000a81548160ff0219169083151502179055509050508080612b9c90614256565b91505061293b565b50878973ffffffffffffffffffffffffffffffffffffffff16600184612bca919061402c565b7fce6956b70d17a5a9b596ad8873cafc400255d82fc6c7267df66eb0d088bbb8e26000338b8b604051612c009493929190613b3a565b60405180910390a45050600160008190555050505050505050565b60606000612c296003613049565b905060008060005b83811015612cd2573373ffffffffffffffffffffffffffffffffffffffff1660076000600184612c61919061402c565b815260200190815260200160002060040160029054906101000a900473ffffffffffffffffffffffffffffffffffffffff1673ffffffffffffffffffffffffffffffffffffffff161415612cbf57600183612cbc919061402c565b92505b8080612cca90614256565b915050612c31565b5060008267ffffffffffffffff811115612cef57612cee61435b565b5b604051908082528060200260200182016040528015612d2857816020015b612d156130f5565b815260200190600190039081612d0d5790505b50905060005b84811015612fbf573373ffffffffffffffffffffffffffffffffffffffff1660076000600184612d5e919061402c565b815260200190815260200160002060040160029054906101000a900473ffffffffffffffffffffffffffffffffffffffff1673ffffffffffffffffffffffffffffffffffffffff161415612fac576000600182612dbb919061402c565b905060006007600083815260200190815260200160002090508060405180610140016040529081600082015481526020016001820160009054906101000a900473ffffffffffffffffffffffffffffffffffffffff1673ffffffffffffffffffffffffffffffffffffffff1673ffffffffffffffffffffffffffffffffffffffff16815260200160028201548152602001600382015481526020016004820160009054906101000a900460ff166004811115612e7a57612e796142fd565b5b6004811115612e8c57612e8b6142fd565b5b81526020016004820160019054906101000a900460ff161515151581526020016004820160029054906101000a900473ffffffffffffffffffffffffffffffffffffffff1673ffffffffffffffffffffffffffffffffffffffff1673ffffffffffffffffffffffffffffffffffffffff1681526020016005820160009054906101000a900473ffffffffffffffffffffffffffffffffffffffff1673ffffffffffffffffffffffffffffffffffffffff1673ffffffffffffffffffffffffffffffffffffffff168152602001600682015481526020016007820160009054906101000a900460ff161515151581525050848681518110612f8f57612f8e61432c565b5b6020026020010181905250600185612fa7919061402c565b945050505b8080612fb790614256565b915050612d2e565b508094505050505090565b600063f23a6e6160e01b905095945050505050565b60007f01ffc9a7000000000000000000000000000000000000000000000000000000007bffffffffffffffffffffffffffffffffffffffffffffffffffffffff1916827bffffffffffffffffffffffffffffffffffffffffffffffffffffffff1916149050919050565b600081600001549050919050565b6001816000016000828254019250508190555050565b600081600001549050600081116130b9576040517f08c379a00000000000000000000000000000000000000000000000000000000081526004016130b090613e34565b60405180910390fd5b6001810382600001819055505050565b600081836130d79190614082565b905092915050565b600081836130ed91906140b3565b905092915050565b60405180610140016040528060008152602001600073ffffffffffffffffffffffffffffffffffffffff168152602001600081526020016000815260200160006004811115613147576131466142fd565b5b8152602001600015158152602001600073ffffffffffffffffffffffffffffffffffffffff168152602001600073ffffffffffffffffffffffffffffffffffffffff168152602001600081526020016000151581525090565b60006131b36131ae84613f74565b613f4f565b905080838252602082019050828560208602820111156131d6576131d561438f565b5b60005b8581101561320657816131ec8882613302565b8452602084019350602083019250506001810190506131d9565b5050509392505050565b600061322361321e84613fa0565b613f4f565b90508281526020810184848401111561323f5761323e614394565b5b61324a8482856141ec565b509392505050565b60008135905061326181614600565b92915050565b600082601f83011261327c5761327b61438a565b5b813561328c8482602086016131a0565b91505092915050565b6000813590506132a481614617565b92915050565b6000815190506132b981614617565b92915050565b6000813590506132ce8161462e565b92915050565b600082601f8301126132e9576132e861438a565b5b81356132f9848260208601613210565b91505092915050565b60008135905061331181614645565b92915050565b60008151905061332681614645565b92915050565b600080600080600060a086880312156133485761334761439e565b5b600061335688828901613252565b955050602061336788828901613252565b945050604086013567ffffffffffffffff81111561338857613387614399565b5b61339488828901613267565b935050606086013567ffffffffffffffff8111156133b5576133b4614399565b5b6133c188828901613267565b925050608086013567ffffffffffffffff8111156133e2576133e1614399565b5b6133ee888289016132d4565b9150509295509295909350565b600080600080600060a086880312156134175761341661439e565b5b600061342588828901613252565b955050602061343688828901613252565b945050604061344788828901613302565b935050606061345888828901613302565b925050608086013567ffffffffffffffff81111561347957613478614399565b5b613485888289016132d4565b9150509295509295909350565b600080604083850312156134a9576134a861439e565b5b60006134b785828601613252565b92505060206134c885828601613302565b9150509250929050565b600080600080608085870312156134ec576134eb61439e565b5b60006134fa87828801613252565b945050602061350b87828801613302565b935050604061351c87828801613302565b925050606061352d87828801613302565b91505092959194509250565b600080600080600060a086880312156135555761355461439e565b5b600061356388828901613252565b955050602061357488828901613302565b945050604061358588828901613302565b935050606061359688828901613302565b92505060806135a788828901613302565b9150509295509295909350565b6000602082840312156135ca576135c961439e565b5b60006135d8848285016132aa565b91505092915050565b6000602082840312156135f7576135f661439e565b5b6000613605848285016132bf565b91505092915050565b6000602082840312156136245761362361439e565b5b600061363284828501613302565b91505092915050565b6000602082840312156136515761365061439e565b5b600061365f84828501613317565b91505092915050565b6000806000606084860312156136815761368061439e565b5b600061368f86828701613302565b93505060206136a086828701613302565b92505060406136b186828701613295565b9150509250925092565b600080600080608085870312156136d5576136d461439e565b5b60006136e387828801613302565b94505060206136f487828801613302565b935050604061370587828801613295565b925050606061371687828801613302565b91505092959194509250565b600061372e83836139a6565b6101408301905092915050565b61374481614141565b82525050565b61375381614141565b82525050565b600061376482613fe1565b61376e8185613ff9565b935061377983613fd1565b8060005b838110156137aa5781516137918882613722565b975061379c83613fec565b92505060018101905061377d565b5085935050505092915050565b6137c081614153565b82525050565b6137cf81614153565b82525050565b6137de8161415f565b82525050565b6137ed816141c8565b82525050565b6137fc816141da565b82525050565b600061380f60038361401b565b915061381a826143b4565b602082019050919050565b6000613832602b8361401b565b915061383d826143dd565b604082019050919050565b6000613855601b8361401b565b91506138608261442c565b602082019050919050565b600061387860038361401b565b915061388382614455565b602082019050919050565b600061389b601b8361401b565b91506138a68261447e565b602082019050919050565b60006138be60228361401b565b91506138c9826144a7565b604082019050919050565b60006138e160138361401b565b91506138ec826144f6565b602082019050919050565b600061390460008361400a565b915061390f8261451f565b600082019050919050565b600061392760178361401b565b915061393282614522565b602082019050919050565b600061394a60218361401b565b91506139558261454b565b604082019050919050565b600061396d601f8361401b565b91506139788261459a565b602082019050919050565b6000613990601c8361401b565b915061399b826145c3565b602082019050919050565b610140820160008201516139bd6000850182613a72565b5060208201516139d0602085018261373b565b5060408201516139e36040850182613a72565b5060608201516139f66060850182613a72565b506080820151613a0960808501826137e4565b5060a0820151613a1c60a08501826137b7565b5060c0820151613a2f60c085018261373b565b5060e0820151613a4260e085018261373b565b50610100820151613a57610100850182613a72565b50610120820151613a6c6101208501826137b7565b50505050565b613a7b816141be565b82525050565b613a8a816141be565b82525050565b6000602082019050613aa5600083018461374a565b92915050565b6000606082019050613ac0600083018661374a565b613acd602083018561374a565b613ada6040830184613a81565b949350505050565b600060a082019050613af7600083018761374a565b613b04602083018661374a565b613b116040830185613a81565b613b1e60608301846137f3565b8181036080830152613b2f816138f7565b905095945050505050565b6000608082019050613b4f600083018761374a565b613b5c602083018661374a565b613b696040830185613a81565b613b766060830184613a81565b95945050505050565b600060a082019050613b94600083018761374a565b613ba1602083018661374a565b613bae6040830185613a81565b613bbb6060830184613a81565b8181036080830152613bcc81613802565b905095945050505050565b600060a082019050613bec600083018761374a565b613bf9602083018661374a565b613c066040830185613a81565b613c136060830184613a81565b8181036080830152613c248161386b565b905095945050505050565b600060a082019050613c44600083018761374a565b613c51602083018661374a565b613c5e6040830185613a81565b613c6b6060830184613a81565b8181036080830152613c7c816138f7565b905095945050505050565b6000604082019050613c9c600083018561374a565b613ca96020830184613a81565b9392505050565b6000606082019050613cc5600083018561374a565b613cd26020830184613a81565b8181036040830152613ce381613802565b90509392505050565b6000608082019050613d01600083018661374a565b613d0e6020830185613a81565b8181036040830152613d1f81613802565b9050613d2e6060830184613a81565b949350505050565b6000606082019050613d4b600083018561374a565b613d586020830184613a81565b8181036040830152613d698161386b565b90509392505050565b6000608082019050613d87600083018661374a565b613d946020830185613a81565b8181036040830152613da58161386b565b9050613db46060830184613a81565b949350505050565b60006020820190508181036000830152613dd68184613759565b905092915050565b6000602082019050613df360008301846137c6565b92915050565b6000602082019050613e0e60008301846137d5565b92915050565b60006020820190508181036000830152613e2d81613825565b9050919050565b60006020820190508181036000830152613e4d81613848565b9050919050565b60006020820190508181036000830152613e6d8161388e565b9050919050565b60006020820190508181036000830152613e8d816138b1565b9050919050565b60006020820190508181036000830152613ead816138d4565b9050919050565b60006020820190508181036000830152613ecd8161391a565b9050919050565b60006020820190508181036000830152613eed8161393d565b9050919050565b60006020820190508181036000830152613f0d81613960565b9050919050565b60006020820190508181036000830152613f2d81613983565b9050919050565b6000602082019050613f496000830184613a81565b92915050565b6000613f59613f6a565b9050613f658282614225565b919050565b6000604051905090565b600067ffffffffffffffff821115613f8f57613f8e61435b565b5b602082029050602081019050919050565b600067ffffffffffffffff821115613fbb57613fba61435b565b5b613fc4826143a3565b9050602081019050919050565b6000819050602082019050919050565b600081519050919050565b6000602082019050919050565b600082825260208201905092915050565b600082825260208201905092915050565b600082825260208201905092915050565b6000614037826141be565b9150614042836141be565b9250827fffffffffffffffffffffffffffffffffffffffffffffffffffffffffffffffff038211156140775761407661429f565b5b828201905092915050565b600061408d826141be565b9150614098836141be565b9250826140a8576140a76142ce565b5b828204905092915050565b60006140be826141be565b91506140c9836141be565b9250817fffffffffffffffffffffffffffffffffffffffffffffffffffffffffffffffff04831182151516156141025761410161429f565b5b828202905092915050565b6000614118826141be565b9150614123836141be565b9250828210156141365761413561429f565b5b828203905092915050565b600061414c8261419e565b9050919050565b60008115159050919050565b60007fffffffff0000000000000000000000000000000000000000000000000000000082169050919050565b6000819050614199826145ec565b919050565b600073ffffffffffffffffffffffffffffffffffffffff82169050919050565b6000819050919050565b60006141d38261418b565b9050919050565b60006141e5826141be565b9050919050565b82818337600083830152505050565b6000614206826141be565b9150600082141561421a5761421961429f565b5b600182039050919050565b61422e826143a3565b810181811067ffffffffffffffff8211171561424d5761424c61435b565b5b80604052505050565b6000614261826141be565b91507fffffffffffffffffffffffffffffffffffffffffffffffffffffffffffffffff8214156142945761429361429f565b5b600182019050919050565b7f4e487b7100000000000000000000000000000000000000000000000000000000600052601160045260246000fd5b7f4e487b7100000000000000000000000000000000000000000000000000000000600052601260045260246000fd5b7f4e487b7100000000000000000000000000000000000000000000000000000000600052602160045260246000fd5b7f4e487b7100000000000000000000000000000000000000000000000000000000600052603260045260246000fd5b7f4e487b7100000000000000000000000000000000000000000000000000000000600052604160045260246000fd5b600080fd5b600080fd5b600080fd5b600080fd5b600080fd5b6000601f19601f8301169050919050565b7f4d434f0000000000000000000000000000000000000000000000000000000000600082015250565b7f496e73756666696369656e742066756e647320746f20636f6d706c657465207460008201527f6865207075726368617365000000000000000000000000000000000000000000602082015250565b7f436f756e7465723a2064656372656d656e74206f766572666c6f770000000000600082015250565b7f47434f0000000000000000000000000000000000000000000000000000000000600082015250565b7f4974656d206e6f742063757272656e746c7920666f722073616c650000000000600082015250565b7f6c6973746572206973206e6f74206f776e6572206f66204e465420616e796d6f60008201527f7265000000000000000000000000000000000000000000000000000000000000602082015250565b7f636f756c64206e6f742066696e64206974656d00000000000000000000000000600082015250565b50565b7f6f6e6c79206f776e65722063616e206c697374204e4654000000000000000000600082015250565b7f6f6e6c79206f776e65722063616e2063616e63656c204e4654206c697374696e60008201527f6700000000000000000000000000000000000000000000000000000000000000602082015250565b7f5265656e7472616e637947756172643a207265656e7472616e742063616c6c00600082015250565b7f5072696365206d757374206265206174206c6561737420312077656900000000600082015250565b600581106145fd576145fc6142fd565b5b50565b61460981614141565b811461461457600080fd5b50565b61462081614153565b811461462b57600080fd5b50565b6146378161415f565b811461464257600080fd5b50565b61464e816141be565b811461465957600080fd5b5056fea2646970667358221220f9fdbdace1a8448930f9cd24d1ba7d720c4331028ccb588510086be9a052e7bd64736f6c63430008060033",
  "immutableReferences": {},
  "source": "// SPDX-License-Identifier: MIT OR Apache-2.0\r\npragma solidity ^0.8.6;\r\n\r\nimport \"../node_modules/@openzeppelin/contracts/token/ERC1155/utils/ERC1155Holder.sol\";\r\nimport \"../node_modules/@openzeppelin/contracts/token/ERC1155/ERC1155.sol\";\r\nimport \"../node_modules/@openzeppelin/contracts/utils/Counters.sol\";\r\nimport \"../node_modules/@openzeppelin/contracts/token/ERC20/IERC20.sol\";\r\nimport \"../node_modules/@openzeppelin/contracts/security/ReentrancyGuard.sol\";\r\nimport \"../node_modules/@openzeppelin/contracts/utils/math/SafeMath.sol\";\r\n\r\n/**\r\n * @title NFTMarket\r\n * @dev NFT Marketplace Smart Contract for ownership\r\n * TODO Make Reselling Functionality\r\n */\r\n\r\ncontract ERC1155Market is ReentrancyGuard,ERC1155Holder{\r\n\r\n    //ERC 20 Transfer\r\n    IERC20 private mcoToken;\r\n    IERC20 private gcoToken;\r\n\r\n    event TransferSent(address _senderAddress, address _destAddress, uint256 _amount);\r\n\r\n    //Marketplace Code\r\n    using Counters for Counters.Counter;\r\n    Counters.Counter private _itemIds;\r\n    Counters.Counter private _itemsListed;\r\n\r\n    using SafeMath for uint256;\r\n    address owner;\r\n    uint256 listingPrice = 0.025 ether;\r\n    enum ItemCategories{ART, MUSIC, COLLECTIBLE, SKILL, OTHER} \r\n    /*string[] collections;\r\n    mapping(string=>uint256) collectionNameToID;*/\r\n\r\n    constructor(IERC20 _mcoToken, IERC20 _gcoToken) {\r\n        owner = address(msg.sender);//Tentatively change to beneficiary\r\n        /*collections.push(\"Independent\");\r\n        collectionNameToID[\"Independent\"] = 1;//collections is -1 from the id*/\r\n        mcoToken = _mcoToken;\r\n        gcoToken = _gcoToken;\r\n    }\r\n    \r\n    function getListingPrice() public view returns (uint256) {\r\n    return listingPrice;\r\n  }\r\n\r\n\r\n    struct MarketItem {\r\n        uint itemId;//Make it a one-to-one mapping with nftContract and tokenID\r\n        address nftContract;\r\n        uint256 tokenId;\r\n        uint256 currentPrice;\r\n        ItemCategories category;\r\n        bool listed;\r\n        address creator;\r\n        address currentOwner;\r\n        uint royalty;\r\n        bool useGco;\r\n    }\r\n\r\n    mapping(uint256 => MarketItem) private idToMarketItem;\r\n\r\n    event MarketItemCreated (\r\n        uint indexed itemId,\r\n        address indexed nftContract,\r\n        uint256 indexed tokenId,\r\n        address seller,\r\n        address owner,\r\n        uint royalty\r\n    );\r\n\r\n    event MarketItemMultiCreated (\r\n      uint indexed itemId,\r\n      address indexed nftContract,\r\n      uint256 indexed tokenId,\r\n      address seller,\r\n      address owner,\r\n      uint royalty,\r\n      uint quantity\r\n  );\r\n\r\n    event MarketListingCreated (\r\n        uint indexed itemId,\r\n        address indexed nftContract,\r\n        uint256 indexed tokenId,\r\n        address lister,\r\n        uint256 price,\r\n        string transactionToken\r\n    );\r\n\r\n    event MarketMultiListingCreated (\r\n      uint indexed itemId,\r\n      address indexed nftContract,\r\n      uint256 indexed tokenId,\r\n      address lister,\r\n      uint256 price,\r\n      string transactionToken,\r\n      uint quantity\r\n  );\r\n\r\n    event MarketListingCancelled (\r\n        uint indexed itemId,\r\n        address indexed nftContract,\r\n        uint256 indexed tokenId,\r\n        address lister,\r\n        uint256 price,\r\n        string transactionToken\r\n    );\r\n\r\n\r\n    event MarketSaleCreated (\r\n          uint indexed itemId,\r\n          address indexed nftContract,\r\n          uint256 indexed tokenId,\r\n          address seller,\r\n          address buyer,\r\n          uint256 price,\r\n          uint royalty,\r\n          string transactionToken\r\n      );\r\n\r\n\r\n//we waant to create a modifier to check if the caller is the item owner\r\n    modifier onlyItemOwner (address tokenAddress, uint256 tokenId) {\r\n        require(IERC1155(tokenAddress).balanceOf(msg.sender,tokenId) >=1 , \"lister is not owner of NFT anymore\" );\r\n        _;\r\n    }\r\n\r\n    //modifier which checks if the item actuall does exist\r\n    modifier itemExists(uint256 id){\r\n        require(id <= _itemIds.current() && idToMarketItem[id].itemId == id, \"could not find item\");\r\n        _;\r\n    }\r\n\r\n    modifier isForSale(uint256 id) {\r\n        require(idToMarketItem[id].listed == true, \"Item not currently for sale\");\r\n        _;\r\n    }\r\n\r\n    /* Places an item for sale on the marketplace */\r\n  /*function getCollectionId(string collectionName) public view returns(uint256){\r\n    return (collectionNameToID[collectionName]);\r\n  }*/\r\n\r\n/*\r\n  Create Market Item--\r\n  Function: Creates new NFT struct and makes 1-1 mapping to an itemId in the market;\r\n  -- Considerations: \r\n    - Keep it like this where every single minted nft in blockchain is a struct item in contract too\r\n    - Only enter the market contract once want to bring up for listing?-- Downside, need to interface with respective nft contracts\r\n */\r\nfunction createMarketItem(address nftContract, uint256 tokenId, uint category, uint royalty) onlyItemOwner(nftContract, tokenId) public nonReentrant {\r\n    _itemIds.increment();\r\n    uint256 itemId = _itemIds.current();\r\n    \r\n\r\n    //One-to-one mapping itemId to item\r\n    idToMarketItem[itemId] =  MarketItem(itemId, nftContract, tokenId,0,ItemCategories(category), false, address(msg.sender),address(msg.sender),royalty,true);\r\n\r\n    \r\n    //Log creation of Market Item\r\n    emit MarketItemCreated(itemId,nftContract,tokenId,address(0),msg.sender,royalty);\r\n  }\r\n\r\n\r\n  function createMultiMarketItem(address nftContract, uint256 tokenId, uint category, uint royalty, uint quantity) onlyItemOwner(nftContract, tokenId) public nonReentrant {\r\n    uint firstItemId = _itemIds.current();\r\n    uint256 itemId = _itemIds.current();\r\n    for (uint i = 0; i < quantity; i++) {\r\n        _itemIds.increment();\r\n        itemId = _itemIds.current();\r\n        idToMarketItem[itemId] =  MarketItem(itemId, nftContract, tokenId,0,ItemCategories(category), false, address(msg.sender),address(msg.sender),royalty,true);\r\n    }\r\n    //Log creation of Market Item\r\n    emit MarketItemMultiCreated(firstItemId+1,nftContract,tokenId,address(0),msg.sender,royalty,quantity);\r\n  }\r\n\r\n  /*\r\n  Create Market Listing--\r\n  Function: Transfers ownership of NFT to market and pay listing price\r\n  -- Considerations: \r\n    - Should listing price be fixed amount or a percentage\r\n */\r\n\r\n  function createMarketListing(uint256 itemId, uint256 price, bool useGco) public itemExists(itemId) nonReentrant {\r\n    require(price > 0, \"Price must be at least 1 wei\");\r\n    uint256 tokenId = idToMarketItem[itemId].tokenId;\r\n    address nftContract = idToMarketItem[itemId].nftContract;\r\n    require(IERC1155(nftContract).balanceOf(msg.sender,tokenId) >=1 , \"only owner can list NFT\" );\r\n    //Creator transfers listing price in merchcoin and ownership to the smart contract\r\n    gcoToken.transferFrom(address(msg.sender),address(this),listingPrice);\r\n    if(useGco){\r\n      idToMarketItem[itemId].useGco = true;\r\n    }else{\r\n      idToMarketItem[itemId].useGco = false;\r\n    }\r\n    //Change Current listed price\r\n    idToMarketItem[itemId].currentPrice = price;\r\n\r\n    //Transfer nft ownership to marketplace contract\r\n    IERC1155(nftContract).safeTransferFrom(address(msg.sender), address(this), tokenId,1,\"\");\r\n\r\n    //Change the status to listed\r\n    idToMarketItem[itemId].listed = true;\r\n    _itemsListed.increment();\r\n    //Log creation of Market Listing\r\n    if(useGco){\r\n      emit MarketListingCreated(itemId,nftContract,tokenId,msg.sender,price,'GCO');\r\n    }else{\r\n      emit MarketListingCreated(itemId,nftContract,tokenId,msg.sender,price,'MCO');\r\n    }\r\n  }\r\n\r\n  function createMultiMarketListing(uint256 itemId, uint256 price, bool useGco, uint quantity) public itemExists(itemId) nonReentrant {\r\n    // Might just be for erc1155, meaning that we could either search by tokenId or make sure that its the first item id and iterate from there\r\n    require(price > 0, \"Price must be at least 1 wei\");\r\n    uint256 tokenId = idToMarketItem[itemId].tokenId;\r\n    address nftContract = idToMarketItem[itemId].nftContract;\r\n    require(IERC1155(nftContract).balanceOf(msg.sender,tokenId) >=quantity , \"only owner can list NFT\" );\r\n    //Creator transfers listing price in merchcoin and ownership to the smart contract\r\n    gcoToken.transferFrom(address(msg.sender),address(this),listingPrice*quantity);\r\n\r\n    //In case the itemId passed in isn't the first one on the marketplace\r\n    uint upperBound = itemId;\r\n    uint lowerBound = 0;\r\n    if(quantity<upperBound) lowerBound = itemId - quantity;\r\n    uint mid = 0;\r\n    uint firstItemId = itemId;\r\n    while(lowerBound<=upperBound){\r\n      mid = (upperBound + lowerBound)/2;\r\n      if(idToMarketItem[mid].tokenId==tokenId){\r\n        firstItemId = mid;\r\n        upperBound = mid-1;\r\n      }else lowerBound = mid+1;\r\n    }\r\n\r\n    uint cnt = quantity;\r\n    while(idToMarketItem[firstItemId].tokenId == tokenId && cnt>0){\r\n      //Only Items under msgsender ownership is listed\r\n     if(idToMarketItem[firstItemId].currentOwner == address(msg.sender) && idToMarketItem[firstItemId].listed == false){\r\n      if(useGco){\r\n        idToMarketItem[firstItemId].useGco = true;\r\n      }else{\r\n        idToMarketItem[firstItemId].useGco = false;\r\n      }\r\n      //Change Current listed price\r\n      idToMarketItem[firstItemId].currentPrice = price;  \r\n      idToMarketItem[firstItemId].listed = true;\r\n       //Change the status to listed\r\n      _itemsListed.increment();\r\n      cnt--;\r\n     }\r\n      firstItemId+=1;\r\n    }\r\n    //Transfer nft ownership to marketplace contract\r\n    IERC1155(nftContract).safeTransferFrom(address(msg.sender), address(this), tokenId,quantity,\"\");\r\n\r\n   \r\n    //Log creation of Market Listing\r\n    if(useGco){\r\n      emit MarketMultiListingCreated(itemId,nftContract,tokenId,msg.sender,price,'GCO', quantity);\r\n    }else{\r\n      emit MarketMultiListingCreated(itemId,nftContract,tokenId,msg.sender,price,'MCO', quantity);\r\n    }\r\n  }\r\n\r\n  //Cancel market listing\r\n  function cancelMarketListing(uint256 itemId) public itemExists(itemId) isForSale(itemId) nonReentrant {\r\n    uint256 tokenId = idToMarketItem[itemId].tokenId;\r\n    address nftContract = idToMarketItem[itemId].nftContract;\r\n    require(IERC1155(nftContract).balanceOf(msg.sender,tokenId) >=1 , \"only owner can cancel NFT listing\" );\r\n    //Creator transfers listing price in merchcoin and ownership to the smart contract\r\n    gcoToken.transferFrom(address(this),address(msg.sender),listingPrice);\r\n\r\n    //Transfer nft ownership to marketplace contract\r\n    IERC1155(nftContract).safeTransferFrom(address(this), address(msg.sender), tokenId,1,\"\");\r\n\r\n    //Change the status to listed\r\n    idToMarketItem[itemId].listed = false;\r\n    uint256 price = idToMarketItem[itemId].currentPrice; \r\n    bool useGco = idToMarketItem[itemId].useGco;\r\n    _itemsListed.decrement();\r\n    //Log creation of Market Listing\r\n    if(useGco){\r\n      emit MarketListingCancelled(itemId,nftContract,tokenId,msg.sender,price,'GCO');\r\n    }else{\r\n      emit MarketListingCancelled(itemId,nftContract,tokenId,msg.sender,price,'MCO');\r\n    }\r\n  }\r\n\r\n\r\n\r\n  /*\r\n  Create Market Sale--\r\n  Function: \r\n  When someone buys the item, \r\n  1) transfers item price to the seller\r\n  2) transfers ownership to buyer,\r\n  3) transfers listing price to the admin beneficiary\r\n */\r\n\r\n   function createMarketSale(address nftContract, uint256 itemId) itemExists(itemId) isForSale(itemId) public nonReentrant {\r\n    uint256 price = idToMarketItem[itemId].currentPrice;\r\n    uint tokenId = idToMarketItem[itemId].tokenId;\r\n    address lister = idToMarketItem[itemId].currentOwner;\r\n    uint royalty = idToMarketItem[itemId].royalty;\r\n    address creator = idToMarketItem[itemId].creator;\r\n    bool useGco = idToMarketItem[itemId].useGco;\r\n\r\n    //Balance\r\n    uint256 erc20balance = gcoToken.balanceOf(address(msg.sender)); \r\n    if(useGco)erc20balance = gcoToken.balanceOf(address(msg.sender)); \r\n    else erc20balance = mcoToken.balanceOf(address(msg.sender)); \r\n    \r\n    require(erc20balance >= price, \"Insufficient funds to complete the purchase\");\r\n\r\n    if (price > 0) {\r\n      uint256 fee = (price.div(10000)).mul(250);\r\n      uint creatorRoyalty = (price-fee).mul(royalty).div(100);\r\n      \r\n      if(useGco){\r\n        gcoToken.transferFrom(address(msg.sender), address(this), price);\r\n\r\n        // Contract pays seller\r\n        gcoToken.transfer(address(creator), creatorRoyalty);\r\n        gcoToken.transfer(address(lister), price - fee - creatorRoyalty);\r\n      }else{\r\n          // Buyer pays contract\r\n        mcoToken.transferFrom(address(msg.sender), address(this), price);\r\n\r\n        // Contract pays seller\r\n        mcoToken.transfer(address(creator), creatorRoyalty);\r\n        mcoToken.transfer(address(lister), price - fee - creatorRoyalty);\r\n      }\r\n      \r\n    }\r\n\r\n    // Transfer ownership from contract to buyer\r\n    IERC1155(nftContract).safeTransferFrom(address(this), address(msg.sender), tokenId, 1, \"\");\r\n\r\n    // Increase the sale index for the saleHistory array of the item\r\n    idToMarketItem[itemId].listed = false;\r\n    idToMarketItem[itemId].currentOwner = address(msg.sender);\r\n    _itemsListed.decrement();\r\n\r\n    if(useGco){\r\n      emit MarketSaleCreated(itemId, nftContract, tokenId, lister, msg.sender, price, royalty,'GCO');\r\n    }else{\r\n      emit MarketSaleCreated(itemId, nftContract, tokenId, lister, msg.sender, price, royalty,'MCO');\r\n    }\r\n}\r\n\r\n  /* \r\n  Returns all market items \r\n  --Classification of listed and unlisted will be handled in frontend\r\n  */\r\n  function fetchMarketItems() public view returns (MarketItem[] memory) {\r\n    uint itemCount = _itemIds.current();\r\n    uint currentIndex = 0;\r\n\r\n    MarketItem[] memory items = new MarketItem[](itemCount);\r\n    for (uint i = 0; i < itemCount; i++) {\r\n        uint currentId = i + 1;\r\n        MarketItem storage currentItem = idToMarketItem[currentId];\r\n        items[currentIndex] = currentItem;\r\n        currentIndex += 1;\r\n    }\r\n    return items;\r\n  }\r\n\r\n  /* \r\n  fetchMyNFTs\r\n  -- Returns only items that a user has purchased \r\n  */\r\n  function fetchMyNFTs() public view returns (MarketItem[] memory) {\r\n    uint totalItemCount = _itemIds.current();\r\n    uint itemCount = 0;\r\n    uint currentIndex = 0;\r\n\r\n    for (uint i = 0; i < totalItemCount; i++) {\r\n      if (idToMarketItem[i + 1].currentOwner == msg.sender) {\r\n        itemCount += 1;\r\n      }\r\n    }\r\n\r\n    MarketItem[] memory items = new MarketItem[](itemCount);\r\n    for (uint i = 0; i < totalItemCount; i++) {\r\n      if (idToMarketItem[i + 1].currentOwner == msg.sender) {\r\n        uint currentId = i + 1;\r\n        MarketItem storage currentItem = idToMarketItem[currentId];\r\n        items[currentIndex] = currentItem;\r\n        currentIndex += 1;\r\n      }\r\n    }\r\n    return items;\r\n  }\r\n\r\n\r\n  /* Returns items a user has created */\r\n  function fetchItemsCreated() public view returns (MarketItem[] memory) {\r\n    uint totalItemCount = _itemIds.current();\r\n    uint itemCount = 0;\r\n    uint currentIndex = 0;\r\n\r\n    for (uint i = 0; i < totalItemCount; i++) {\r\n      if (idToMarketItem[i + 1].creator == msg.sender) {\r\n        itemCount += 1;\r\n      }\r\n    }\r\n\r\n    MarketItem[] memory items = new MarketItem[](itemCount);\r\n    for (uint i = 0; i < totalItemCount; i++) {\r\n      if (idToMarketItem[i + 1].creator == msg.sender) {\r\n        uint currentId = i + 1;\r\n        MarketItem storage currentItem = idToMarketItem[currentId];\r\n        items[currentIndex] = currentItem;\r\n        currentIndex += 1;\r\n      }\r\n    }\r\n    return items;\r\n  }\r\n\r\n}",
  "sourcePath": "C:\\Users\\sutanto4\\Desktop\\IBlockSp22\\sp22_NFT_marketplace\\truffle\\contracts\\ERC1155Market.sol",
  "compiler": {
    "name": "solc",
    "version": "0.8.6+commit.11564f7e.Emscripten.clang"
  },
  "schemaVersion": "3.4.3",
  "updatedAt": "2022-04-21T13:11:06.728Z",
  "networkType": "ethereum",
  "devdoc": {
    "details": "NFT Marketplace Smart Contract for ownership TODO Make Reselling Functionality",
    "kind": "dev",
    "methods": {
      "supportsInterface(bytes4)": {
        "details": "See {IERC165-supportsInterface}."
      }
    },
    "title": "NFTMarket",
    "version": 1
  },
  "userdoc": {
    "kind": "user",
    "methods": {},
    "version": 1
  }
}