{
  "contractName": "ERC1155Market",
  "abi": [
    {
      "inputs": [
        {
          "internalType": "contract IERC20",
          "name": "_mcoToken",
          "type": "address"
        },
        {
          "internalType": "contract IERC20",
          "name": "_gcoToken",
          "type": "address"
        }
      ],
      "stateMutability": "nonpayable",
      "type": "constructor"
    },
    {
      "anonymous": false,
      "inputs": [
        {
          "indexed": true,
          "internalType": "uint256",
          "name": "itemId",
          "type": "uint256"
        },
        {
          "indexed": true,
          "internalType": "address",
          "name": "nftContract",
          "type": "address"
        },
        {
          "indexed": true,
          "internalType": "uint256",
          "name": "tokenId",
          "type": "uint256"
        },
        {
          "indexed": false,
          "internalType": "address",
          "name": "seller",
          "type": "address"
        },
        {
          "indexed": false,
          "internalType": "address",
          "name": "owner",
          "type": "address"
        },
        {
          "indexed": false,
          "internalType": "uint256",
          "name": "royalty",
          "type": "uint256"
        }
      ],
      "name": "MarketItemCreated",
      "type": "event"
    },
    {
      "anonymous": false,
      "inputs": [
        {
          "indexed": true,
          "internalType": "uint256",
          "name": "itemId",
          "type": "uint256"
        },
        {
          "indexed": true,
          "internalType": "address",
          "name": "nftContract",
          "type": "address"
        },
        {
          "indexed": true,
          "internalType": "uint256",
          "name": "tokenId",
          "type": "uint256"
        },
        {
          "indexed": false,
          "internalType": "address",
          "name": "lister",
          "type": "address"
        },
        {
          "indexed": false,
          "internalType": "uint256",
          "name": "price",
          "type": "uint256"
        },
        {
          "indexed": false,
          "internalType": "string",
          "name": "transactionToken",
          "type": "string"
        }
      ],
      "name": "MarketListingCancelled",
      "type": "event"
    },
    {
      "anonymous": false,
      "inputs": [
        {
          "indexed": true,
          "internalType": "uint256",
          "name": "itemId",
          "type": "uint256"
        },
        {
          "indexed": true,
          "internalType": "address",
          "name": "nftContract",
          "type": "address"
        },
        {
          "indexed": true,
          "internalType": "uint256",
          "name": "tokenId",
          "type": "uint256"
        },
        {
          "indexed": false,
          "internalType": "address",
          "name": "lister",
          "type": "address"
        },
        {
          "indexed": false,
          "internalType": "uint256",
          "name": "price",
          "type": "uint256"
        },
        {
          "indexed": false,
          "internalType": "string",
          "name": "transactionToken",
          "type": "string"
        }
      ],
      "name": "MarketListingCreated",
      "type": "event"
    },
    {
      "anonymous": false,
      "inputs": [
        {
          "indexed": true,
          "internalType": "uint256",
          "name": "itemId",
          "type": "uint256"
        },
        {
          "indexed": true,
          "internalType": "address",
          "name": "nftContract",
          "type": "address"
        },
        {
          "indexed": true,
          "internalType": "uint256",
          "name": "tokenId",
          "type": "uint256"
        },
        {
          "indexed": false,
          "internalType": "address",
          "name": "seller",
          "type": "address"
        },
        {
          "indexed": false,
          "internalType": "address",
          "name": "buyer",
          "type": "address"
        },
        {
          "indexed": false,
          "internalType": "uint256",
          "name": "price",
          "type": "uint256"
        },
        {
          "indexed": false,
          "internalType": "uint256",
          "name": "royalty",
          "type": "uint256"
        },
        {
          "indexed": false,
          "internalType": "string",
          "name": "transactionToken",
          "type": "string"
        }
      ],
      "name": "MarketSaleCreated",
      "type": "event"
    },
    {
      "anonymous": false,
      "inputs": [
        {
          "indexed": false,
          "internalType": "address",
          "name": "_senderAddress",
          "type": "address"
        },
        {
          "indexed": false,
          "internalType": "address",
          "name": "_destAddress",
          "type": "address"
        },
        {
          "indexed": false,
          "internalType": "uint256",
          "name": "_amount",
          "type": "uint256"
        }
      ],
      "name": "TransferSent",
      "type": "event"
    },
    {
      "inputs": [
        {
          "internalType": "address",
          "name": "",
          "type": "address"
        },
        {
          "internalType": "address",
          "name": "",
          "type": "address"
        },
        {
          "internalType": "uint256[]",
          "name": "",
          "type": "uint256[]"
        },
        {
          "internalType": "uint256[]",
          "name": "",
          "type": "uint256[]"
        },
        {
          "internalType": "bytes",
          "name": "",
          "type": "bytes"
        }
      ],
      "name": "onERC1155BatchReceived",
      "outputs": [
        {
          "internalType": "bytes4",
          "name": "",
          "type": "bytes4"
        }
      ],
      "stateMutability": "nonpayable",
      "type": "function"
    },
    {
      "inputs": [
        {
          "internalType": "address",
          "name": "",
          "type": "address"
        },
        {
          "internalType": "address",
          "name": "",
          "type": "address"
        },
        {
          "internalType": "uint256",
          "name": "",
          "type": "uint256"
        },
        {
          "internalType": "uint256",
          "name": "",
          "type": "uint256"
        },
        {
          "internalType": "bytes",
          "name": "",
          "type": "bytes"
        }
      ],
      "name": "onERC1155Received",
      "outputs": [
        {
          "internalType": "bytes4",
          "name": "",
          "type": "bytes4"
        }
      ],
      "stateMutability": "nonpayable",
      "type": "function"
    },
    {
      "inputs": [
        {
          "internalType": "bytes4",
          "name": "interfaceId",
          "type": "bytes4"
        }
      ],
      "name": "supportsInterface",
      "outputs": [
        {
          "internalType": "bool",
          "name": "",
          "type": "bool"
        }
      ],
      "stateMutability": "view",
      "type": "function",
      "constant": true
    },
    {
      "inputs": [],
      "name": "getListingPrice",
      "outputs": [
        {
          "internalType": "uint256",
          "name": "",
          "type": "uint256"
        }
      ],
      "stateMutability": "view",
      "type": "function",
      "constant": true
    },
    {
      "inputs": [
        {
          "internalType": "address",
          "name": "nftContract",
          "type": "address"
        },
        {
          "internalType": "uint256",
          "name": "tokenId",
          "type": "uint256"
        },
        {
          "internalType": "uint256",
          "name": "category",
          "type": "uint256"
        },
        {
          "internalType": "uint256",
          "name": "royalty",
          "type": "uint256"
        }
      ],
      "name": "createMarketItem",
      "outputs": [],
      "stateMutability": "nonpayable",
      "type": "function"
    },
    {
      "inputs": [
        {
          "internalType": "uint256",
          "name": "itemId",
          "type": "uint256"
        },
        {
          "internalType": "uint256",
          "name": "price",
          "type": "uint256"
        },
        {
          "internalType": "bool",
          "name": "useGco",
          "type": "bool"
        }
      ],
      "name": "createMarketListing",
      "outputs": [],
      "stateMutability": "nonpayable",
      "type": "function"
    },
    {
      "inputs": [
        {
          "internalType": "uint256",
          "name": "itemId",
          "type": "uint256"
        }
      ],
      "name": "cancelMarketListing",
      "outputs": [],
      "stateMutability": "nonpayable",
      "type": "function"
    },
    {
      "inputs": [
        {
          "internalType": "address",
          "name": "nftContract",
          "type": "address"
        },
        {
          "internalType": "uint256",
          "name": "itemId",
          "type": "uint256"
        }
      ],
      "name": "createMarketSale",
      "outputs": [],
      "stateMutability": "nonpayable",
      "type": "function"
    },
    {
      "inputs": [],
      "name": "fetchMarketItems",
      "outputs": [
        {
          "components": [
            {
              "internalType": "uint256",
              "name": "itemId",
              "type": "uint256"
            },
            {
              "internalType": "address",
              "name": "nftContract",
              "type": "address"
            },
            {
              "internalType": "uint256",
              "name": "tokenId",
              "type": "uint256"
            },
            {
              "internalType": "uint256",
              "name": "currentPrice",
              "type": "uint256"
            },
            {
              "internalType": "enum ERC1155Market.ItemCategories",
              "name": "category",
              "type": "uint8"
            },
            {
              "internalType": "bool",
              "name": "listed",
              "type": "bool"
            },
            {
              "internalType": "address",
              "name": "creator",
              "type": "address"
            },
            {
              "internalType": "address",
              "name": "currentOwner",
              "type": "address"
            },
            {
              "internalType": "uint256",
              "name": "royalty",
              "type": "uint256"
            },
            {
              "internalType": "bool",
              "name": "useGco",
              "type": "bool"
            }
          ],
          "internalType": "struct ERC1155Market.MarketItem[]",
          "name": "",
          "type": "tuple[]"
        }
      ],
      "stateMutability": "view",
      "type": "function",
      "constant": true
    },
    {
      "inputs": [],
      "name": "fetchMyNFTs",
      "outputs": [
        {
          "components": [
            {
              "internalType": "uint256",
              "name": "itemId",
              "type": "uint256"
            },
            {
              "internalType": "address",
              "name": "nftContract",
              "type": "address"
            },
            {
              "internalType": "uint256",
              "name": "tokenId",
              "type": "uint256"
            },
            {
              "internalType": "uint256",
              "name": "currentPrice",
              "type": "uint256"
            },
            {
              "internalType": "enum ERC1155Market.ItemCategories",
              "name": "category",
              "type": "uint8"
            },
            {
              "internalType": "bool",
              "name": "listed",
              "type": "bool"
            },
            {
              "internalType": "address",
              "name": "creator",
              "type": "address"
            },
            {
              "internalType": "address",
              "name": "currentOwner",
              "type": "address"
            },
            {
              "internalType": "uint256",
              "name": "royalty",
              "type": "uint256"
            },
            {
              "internalType": "bool",
              "name": "useGco",
              "type": "bool"
            }
          ],
          "internalType": "struct ERC1155Market.MarketItem[]",
          "name": "",
          "type": "tuple[]"
        }
      ],
      "stateMutability": "view",
      "type": "function",
      "constant": true
    },
    {
      "inputs": [],
      "name": "fetchItemsCreated",
      "outputs": [
        {
          "components": [
            {
              "internalType": "uint256",
              "name": "itemId",
              "type": "uint256"
            },
            {
              "internalType": "address",
              "name": "nftContract",
              "type": "address"
            },
            {
              "internalType": "uint256",
              "name": "tokenId",
              "type": "uint256"
            },
            {
              "internalType": "uint256",
              "name": "currentPrice",
              "type": "uint256"
            },
            {
              "internalType": "enum ERC1155Market.ItemCategories",
              "name": "category",
              "type": "uint8"
            },
            {
              "internalType": "bool",
              "name": "listed",
              "type": "bool"
            },
            {
              "internalType": "address",
              "name": "creator",
              "type": "address"
            },
            {
              "internalType": "address",
              "name": "currentOwner",
              "type": "address"
            },
            {
              "internalType": "uint256",
              "name": "royalty",
              "type": "uint256"
            },
            {
              "internalType": "bool",
              "name": "useGco",
              "type": "bool"
            }
          ],
          "internalType": "struct ERC1155Market.MarketItem[]",
          "name": "",
          "type": "tuple[]"
        }
      ],
      "stateMutability": "view",
      "type": "function",
      "constant": true
    }
  ],
  "bytecode": "0x60806040526658d15e176280006006553480156200001c57600080fd5b5060405162003b6c38038062003b6c83398181016040528101906200004291906200012c565b600160008190555033600560006101000a81548173ffffffffffffffffffffffffffffffffffffffff021916908373ffffffffffffffffffffffffffffffffffffffff16021790555081600160006101000a81548173ffffffffffffffffffffffffffffffffffffffff021916908373ffffffffffffffffffffffffffffffffffffffff16021790555080600260006101000a81548173ffffffffffffffffffffffffffffffffffffffff021916908373ffffffffffffffffffffffffffffffffffffffff1602179055505050620001da565b6000815190506200012681620001c0565b92915050565b60008060408385031215620001465762000145620001bb565b5b6000620001568582860162000115565b9250506020620001698582860162000115565b9150509250929050565b600062000180826200019b565b9050919050565b6000620001948262000173565b9050919050565b600073ffffffffffffffffffffffffffffffffffffffff82169050919050565b600080fd5b620001cb8162000187565b8114620001d757600080fd5b50565b61398280620001ea6000396000f3fe608060405234801561001057600080fd5b50600436106100a95760003560e01c8063599ba23411610071578063599ba23414610154578063a0cf6cbb14610170578063bc197c811461018c578063c23b139e146101bc578063f064c32e146101d8578063f23a6e61146101f6576100a9565b806301ffc9a7146100ae578063020be559146100de5780630f08efe0146100fa57806312e8558514610118578063202e374014610136575b600080fd5b6100c860048036038101906100c39190612a93565b610226565b6040516100d591906130f8565b60405180910390f35b6100f860048036038101906100f39190612b1a565b6102a0565b005b610102610766565b60405161010f91906130d6565b60405180910390f35b6101206109f6565b60405161012d919061324e565b60405180910390f35b61013e610a00565b60405161014b91906130d6565b60405180910390f35b61016e600480360381019061016991906129ff565b610daf565b005b61018a60048036038101906101859190612ac0565b611182565b005b6101a660048036038101906101a19190612859565b61162f565b6040516101b39190613113565b60405180910390f35b6101d660048036038101906101d191906129bf565b611644565b005b6101e0612148565b6040516101ed91906130d6565b60405180910390f35b610210600480360381019061020b9190612928565b6124f7565b60405161021d9190613113565b60405180910390f35b60007f4e2312e0000000000000000000000000000000000000000000000000000000007bffffffffffffffffffffffffffffffffffffffffffffffffffffffff1916827bffffffffffffffffffffffffffffffffffffffffffffffffffffffff1916148061029957506102988261250c565b5b9050919050565b826102ab6003612576565b81111580156102cf5750806007600083815260200190815260200160002060000154145b61030e576040517f08c379a0000000000000000000000000000000000000000000000000000000008152600401610305906131ae565b60405180910390fd5b60026000541415610354576040517f08c379a000000000000000000000000000000000000000000000000000000000815260040161034b9061320e565b60405180910390fd5b60026000819055506000831161039f576040517f08c379a00000000000000000000000000000000000000000000000000000000081526004016103969061322e565b60405180910390fd5b60006007600086815260200190815260200160002060020154905060006007600087815260200190815260200160002060010160009054906101000a900473ffffffffffffffffffffffffffffffffffffffff16905060018173ffffffffffffffffffffffffffffffffffffffff1662fdd58e33856040518363ffffffff1660e01b8152600401610431929190613035565b60206040518083038186803b15801561044957600080fd5b505afa15801561045d573d6000803e3d6000fd5b505050506040513d601f19601f820116820180604052508101906104819190612aed565b10156104c2576040517f08c379a00000000000000000000000000000000000000000000000000000000081526004016104b9906131ce565b60405180910390fd5b600260009054906101000a900473ffffffffffffffffffffffffffffffffffffffff1673ffffffffffffffffffffffffffffffffffffffff166323b872dd33306006546040518463ffffffff1660e01b815260040161052393929190612ef6565b602060405180830381600087803b15801561053d57600080fd5b505af1158015610551573d6000803e3d6000fd5b505050506040513d601f19601f820116820180604052508101906105759190612a66565b5083156105b05760016007600088815260200190815260200160002060070160006101000a81548160ff0219169083151502179055506105e0565b60006007600088815260200190815260200160002060070160006101000a81548160ff0219169083151502179055505b8460076000888152602001908152602001600020600301819055508073ffffffffffffffffffffffffffffffffffffffff1663f242432a33308560016040518563ffffffff1660e01b815260040161063b9493929190612f2d565b600060405180830381600087803b15801561065557600080fd5b505af1158015610669573d6000803e3d6000fd5b5050505060016007600088815260200190815260200160002060040160016101000a81548160ff0219169083151502179055506106a66004612584565b831561070357818173ffffffffffffffffffffffffffffffffffffffff16877fccc5f53ee184a9b140a54ccde6f4fe6278fcdf0dfa4de965ab714965bedf531033896040516106f692919061309a565b60405180910390a4610756565b818173ffffffffffffffffffffffffffffffffffffffff16877fccc5f53ee184a9b140a54ccde6f4fe6278fcdf0dfa4de965ab714965bedf5310338960405161074d92919061305e565b60405180910390a45b5050600160008190555050505050565b606060006107746003612576565b90506000808267ffffffffffffffff8111156107935761079261364b565b5b6040519080825280602002602001820160405280156107cc57816020015b6107b9612622565b8152602001906001900390816107b15790505b50905060005b838110156109ec5760006001826107e99190613346565b905060006007600083815260200190815260200160002090508060405180610140016040529081600082015481526020016001820160009054906101000a900473ffffffffffffffffffffffffffffffffffffffff1673ffffffffffffffffffffffffffffffffffffffff1673ffffffffffffffffffffffffffffffffffffffff16815260200160028201548152602001600382015481526020016004820160009054906101000a900460ff1660048111156108a8576108a76135ed565b5b60048111156108ba576108b96135ed565b5b81526020016004820160019054906101000a900460ff161515151581526020016004820160029054906101000a900473ffffffffffffffffffffffffffffffffffffffff1673ffffffffffffffffffffffffffffffffffffffff1673ffffffffffffffffffffffffffffffffffffffff1681526020016005820160009054906101000a900473ffffffffffffffffffffffffffffffffffffffff1673ffffffffffffffffffffffffffffffffffffffff1673ffffffffffffffffffffffffffffffffffffffff168152602001600682015481526020016007820160009054906101000a900460ff1615151515815250508486815181106109bd576109bc61361c565b5b60200260200101819052506001856109d59190613346565b9450505080806109e490613546565b9150506107d2565b5080935050505090565b6000600654905090565b60606000610a0e6003612576565b905060008060005b83811015610ab7573373ffffffffffffffffffffffffffffffffffffffff1660076000600184610a469190613346565b815260200190815260200160002060050160009054906101000a900473ffffffffffffffffffffffffffffffffffffffff1673ffffffffffffffffffffffffffffffffffffffff161415610aa457600183610aa19190613346565b92505b8080610aaf90613546565b915050610a16565b5060008267ffffffffffffffff811115610ad457610ad361364b565b5b604051908082528060200260200182016040528015610b0d57816020015b610afa612622565b815260200190600190039081610af25790505b50905060005b84811015610da4573373ffffffffffffffffffffffffffffffffffffffff1660076000600184610b439190613346565b815260200190815260200160002060050160009054906101000a900473ffffffffffffffffffffffffffffffffffffffff1673ffffffffffffffffffffffffffffffffffffffff161415610d91576000600182610ba09190613346565b905060006007600083815260200190815260200160002090508060405180610140016040529081600082015481526020016001820160009054906101000a900473ffffffffffffffffffffffffffffffffffffffff1673ffffffffffffffffffffffffffffffffffffffff1673ffffffffffffffffffffffffffffffffffffffff16815260200160028201548152602001600382015481526020016004820160009054906101000a900460ff166004811115610c5f57610c5e6135ed565b5b6004811115610c7157610c706135ed565b5b81526020016004820160019054906101000a900460ff161515151581526020016004820160029054906101000a900473ffffffffffffffffffffffffffffffffffffffff1673ffffffffffffffffffffffffffffffffffffffff1673ffffffffffffffffffffffffffffffffffffffff1681526020016005820160009054906101000a900473ffffffffffffffffffffffffffffffffffffffff1673ffffffffffffffffffffffffffffffffffffffff1673ffffffffffffffffffffffffffffffffffffffff168152602001600682015481526020016007820160009054906101000a900460ff161515151581525050848681518110610d7457610d7361361c565b5b6020026020010181905250600185610d8c9190613346565b945050505b8080610d9c90613546565b915050610b13565b508094505050505090565b838360018273ffffffffffffffffffffffffffffffffffffffff1662fdd58e33846040518363ffffffff1660e01b8152600401610ded929190613035565b60206040518083038186803b158015610e0557600080fd5b505afa158015610e19573d6000803e3d6000fd5b505050506040513d601f19601f82011682018060405250810190610e3d9190612aed565b1015610e7e576040517f08c379a0000000000000000000000000000000000000000000000000000000008152600401610e759061318e565b60405180910390fd5b60026000541415610ec4576040517f08c379a0000000000000000000000000000000000000000000000000000000008152600401610ebb9061320e565b60405180910390fd5b6002600081905550610ed66003612584565b6000610ee26003612576565b90506040518061014001604052808281526020018873ffffffffffffffffffffffffffffffffffffffff16815260200187815260200160008152602001866004811115610f3257610f316135ed565b5b6004811115610f4457610f436135ed565b5b81526020016000151581526020013373ffffffffffffffffffffffffffffffffffffffff1681526020013373ffffffffffffffffffffffffffffffffffffffff16815260200185815260200160011515815250600760008381526020019081526020016000206000820151816000015560208201518160010160006101000a81548173ffffffffffffffffffffffffffffffffffffffff021916908373ffffffffffffffffffffffffffffffffffffffff160217905550604082015181600201556060820151816003015560808201518160040160006101000a81548160ff0219169083600481111561103a576110396135ed565b5b021790555060a08201518160040160016101000a81548160ff02191690831515021790555060c08201518160040160026101000a81548173ffffffffffffffffffffffffffffffffffffffff021916908373ffffffffffffffffffffffffffffffffffffffff16021790555060e08201518160050160006101000a81548173ffffffffffffffffffffffffffffffffffffffff021916908373ffffffffffffffffffffffffffffffffffffffff16021790555061010082015181600601556101208201518160070160006101000a81548160ff021916908315150217905550905050858773ffffffffffffffffffffffffffffffffffffffff16827f2ad024d53a0dc50c130967f8d4941927ee087ea31394cebb2b9599d3706c9c006000338960405161116993929190612ef6565b60405180910390a4506001600081905550505050505050565b8061118d6003612576565b81111580156111b15750806007600083815260200190815260200160002060000154145b6111f0576040517f08c379a00000000000000000000000000000000000000000000000000000000081526004016111e7906131ae565b60405180910390fd5b81600115156007600083815260200190815260200160002060040160019054906101000a900460ff1615151461125b576040517f08c379a00000000000000000000000000000000000000000000000000000000081526004016112529061316e565b60405180910390fd5b600260005414156112a1576040517f08c379a00000000000000000000000000000000000000000000000000000000081526004016112989061320e565b60405180910390fd5b600260008190555060006007600085815260200190815260200160002060020154905060006007600086815260200190815260200160002060010160009054906101000a900473ffffffffffffffffffffffffffffffffffffffff16905060018173ffffffffffffffffffffffffffffffffffffffff1662fdd58e33856040518363ffffffff1660e01b815260040161133b929190613035565b60206040518083038186803b15801561135357600080fd5b505afa158015611367573d6000803e3d6000fd5b505050506040513d601f19601f8201168201806040525081019061138b9190612aed565b10156113cc576040517f08c379a00000000000000000000000000000000000000000000000000000000081526004016113c3906131ee565b60405180910390fd5b600260009054906101000a900473ffffffffffffffffffffffffffffffffffffffff1673ffffffffffffffffffffffffffffffffffffffff166323b872dd30336006546040518463ffffffff1660e01b815260040161142d93929190612ef6565b602060405180830381600087803b15801561144757600080fd5b505af115801561145b573d6000803e3d6000fd5b505050506040513d601f19601f8201168201806040525081019061147f9190612a66565b508073ffffffffffffffffffffffffffffffffffffffff1663f242432a30338560016040518563ffffffff1660e01b81526004016114c09493929190612f2d565b600060405180830381600087803b1580156114da57600080fd5b505af11580156114ee573d6000803e3d6000fd5b5050505060006007600087815260200190815260200160002060040160016101000a81548160ff02191690831515021790555060006007600087815260200190815260200160002060030154905060006007600088815260200190815260200160002060070160009054906101000a900460ff16905061156e600461259a565b80156115cb57838373ffffffffffffffffffffffffffffffffffffffff16887fda0675e100ef805b171eae6494d9c3bff0e514f13f8091659d13a1418ec37e5d33866040516115be92919061309a565b60405180910390a461161e565b838373ffffffffffffffffffffffffffffffffffffffff16887fda0675e100ef805b171eae6494d9c3bff0e514f13f8091659d13a1418ec37e5d338660405161161592919061305e565b60405180910390a45b505050506001600081905550505050565b600063bc197c8160e01b905095945050505050565b8061164f6003612576565b81111580156116735750806007600083815260200190815260200160002060000154145b6116b2576040517f08c379a00000000000000000000000000000000000000000000000000000000081526004016116a9906131ae565b60405180910390fd5b81600115156007600083815260200190815260200160002060040160019054906101000a900460ff1615151461171d576040517f08c379a00000000000000000000000000000000000000000000000000000000081526004016117149061316e565b60405180910390fd5b60026000541415611763576040517f08c379a000000000000000000000000000000000000000000000000000000000815260040161175a9061320e565b60405180910390fd5b600260008190555060006007600085815260200190815260200160002060030154905060006007600086815260200190815260200160002060020154905060006007600087815260200190815260200160002060050160009054906101000a900473ffffffffffffffffffffffffffffffffffffffff16905060006007600088815260200190815260200160002060060154905060006007600089815260200190815260200160002060040160029054906101000a900473ffffffffffffffffffffffffffffffffffffffff1690506000600760008a815260200190815260200160002060070160009054906101000a900460ff1690506000600260009054906101000a900473ffffffffffffffffffffffffffffffffffffffff1673ffffffffffffffffffffffffffffffffffffffff166370a08231336040518263ffffffff1660e01b81526004016118b79190612edb565b60206040518083038186803b1580156118cf57600080fd5b505afa1580156118e3573d6000803e3d6000fd5b505050506040513d601f19601f820116820180604052508101906119079190612aed565b905081156119c157600260009054906101000a900473ffffffffffffffffffffffffffffffffffffffff1673ffffffffffffffffffffffffffffffffffffffff166370a08231336040518263ffffffff1660e01b815260040161196a9190612edb565b60206040518083038186803b15801561198257600080fd5b505afa158015611996573d6000803e3d6000fd5b505050506040513d601f19601f820116820180604052508101906119ba9190612aed565b9050611a6f565b600160009054906101000a900473ffffffffffffffffffffffffffffffffffffffff1673ffffffffffffffffffffffffffffffffffffffff166370a08231336040518263ffffffff1660e01b8152600401611a1c9190612edb565b60206040518083038186803b158015611a3457600080fd5b505afa158015611a48573d6000803e3d6000fd5b505050506040513d601f19601f82011682018060405250810190611a6c9190612aed565b90505b86811015611ab2576040517f08c379a0000000000000000000000000000000000000000000000000000000008152600401611aa99061312e565b60405180910390fd5b6000871115611f7b576000611ae560fa611ad76127108b6125f690919063ffffffff16565b61260c90919063ffffffff16565b90506000611b1a6064611b0c88858d611afe9190613427565b61260c90919063ffffffff16565b6125f690919063ffffffff16565b90508315611d4f57600260009054906101000a900473ffffffffffffffffffffffffffffffffffffffff1673ffffffffffffffffffffffffffffffffffffffff166323b872dd33308c6040518463ffffffff1660e01b8152600401611b8193929190612ef6565b602060405180830381600087803b158015611b9b57600080fd5b505af1158015611baf573d6000803e3d6000fd5b505050506040513d601f19601f82011682018060405250810190611bd39190612a66565b50600260009054906101000a900473ffffffffffffffffffffffffffffffffffffffff1673ffffffffffffffffffffffffffffffffffffffff1663a9059cbb86836040518363ffffffff1660e01b8152600401611c31929190613035565b602060405180830381600087803b158015611c4b57600080fd5b505af1158015611c5f573d6000803e3d6000fd5b505050506040513d601f19601f82011682018060405250810190611c839190612a66565b50600260009054906101000a900473ffffffffffffffffffffffffffffffffffffffff1673ffffffffffffffffffffffffffffffffffffffff1663a9059cbb8883858d611cd09190613427565b611cda9190613427565b6040518363ffffffff1660e01b8152600401611cf7929190613035565b602060405180830381600087803b158015611d1157600080fd5b505af1158015611d25573d6000803e3d6000fd5b505050506040513d601f19601f82011682018060405250810190611d499190612a66565b50611f78565b600160009054906101000a900473ffffffffffffffffffffffffffffffffffffffff1673ffffffffffffffffffffffffffffffffffffffff166323b872dd33308c6040518463ffffffff1660e01b8152600401611dae93929190612ef6565b602060405180830381600087803b158015611dc857600080fd5b505af1158015611ddc573d6000803e3d6000fd5b505050506040513d601f19601f82011682018060405250810190611e009190612a66565b50600160009054906101000a900473ffffffffffffffffffffffffffffffffffffffff1673ffffffffffffffffffffffffffffffffffffffff1663a9059cbb86836040518363ffffffff1660e01b8152600401611e5e929190613035565b602060405180830381600087803b158015611e7857600080fd5b505af1158015611e8c573d6000803e3d6000fd5b505050506040513d601f19601f82011682018060405250810190611eb09190612a66565b50600160009054906101000a900473ffffffffffffffffffffffffffffffffffffffff1673ffffffffffffffffffffffffffffffffffffffff1663a9059cbb8883858d611efd9190613427565b611f079190613427565b6040518363ffffffff1660e01b8152600401611f24929190613035565b602060405180830381600087803b158015611f3e57600080fd5b505af1158015611f52573d6000803e3d6000fd5b505050506040513d601f19601f82011682018060405250810190611f769190612a66565b505b50505b8a73ffffffffffffffffffffffffffffffffffffffff1663f242432a30338960016040518563ffffffff1660e01b8152600401611fbb9493929190612f2d565b600060405180830381600087803b158015611fd557600080fd5b505af1158015611fe9573d6000803e3d6000fd5b505050506000600760008c815260200190815260200160002060040160016101000a81548160ff02191690831515021790555033600760008c815260200190815260200160002060050160006101000a81548173ffffffffffffffffffffffffffffffffffffffff021916908373ffffffffffffffffffffffffffffffffffffffff16021790555061207b600461259a565b81156120dc57858b73ffffffffffffffffffffffffffffffffffffffff168b7f96b74af4bff411ec4390f5aab309e301b812855ab74090d4207fb595779d3b9388338c8a6040516120cf9493929190612fdd565b60405180910390a4612133565b858b73ffffffffffffffffffffffffffffffffffffffff168b7f96b74af4bff411ec4390f5aab309e301b812855ab74090d4207fb595779d3b9388338c8a60405161212a9493929190612f85565b60405180910390a45b50505050505050600160008190555050505050565b606060006121566003612576565b905060008060005b838110156121ff573373ffffffffffffffffffffffffffffffffffffffff166007600060018461218e9190613346565b815260200190815260200160002060040160029054906101000a900473ffffffffffffffffffffffffffffffffffffffff1673ffffffffffffffffffffffffffffffffffffffff1614156121ec576001836121e99190613346565b92505b80806121f790613546565b91505061215e565b5060008267ffffffffffffffff81111561221c5761221b61364b565b5b60405190808252806020026020018201604052801561225557816020015b612242612622565b81526020019060019003908161223a5790505b50905060005b848110156124ec573373ffffffffffffffffffffffffffffffffffffffff166007600060018461228b9190613346565b815260200190815260200160002060040160029054906101000a900473ffffffffffffffffffffffffffffffffffffffff1673ffffffffffffffffffffffffffffffffffffffff1614156124d95760006001826122e89190613346565b905060006007600083815260200190815260200160002090508060405180610140016040529081600082015481526020016001820160009054906101000a900473ffffffffffffffffffffffffffffffffffffffff1673ffffffffffffffffffffffffffffffffffffffff1673ffffffffffffffffffffffffffffffffffffffff16815260200160028201548152602001600382015481526020016004820160009054906101000a900460ff1660048111156123a7576123a66135ed565b5b60048111156123b9576123b86135ed565b5b81526020016004820160019054906101000a900460ff161515151581526020016004820160029054906101000a900473ffffffffffffffffffffffffffffffffffffffff1673ffffffffffffffffffffffffffffffffffffffff1673ffffffffffffffffffffffffffffffffffffffff1681526020016005820160009054906101000a900473ffffffffffffffffffffffffffffffffffffffff1673ffffffffffffffffffffffffffffffffffffffff1673ffffffffffffffffffffffffffffffffffffffff168152602001600682015481526020016007820160009054906101000a900460ff1615151515815250508486815181106124bc576124bb61361c565b5b60200260200101819052506001856124d49190613346565b945050505b80806124e490613546565b91505061225b565b508094505050505090565b600063f23a6e6160e01b905095945050505050565b60007f01ffc9a7000000000000000000000000000000000000000000000000000000007bffffffffffffffffffffffffffffffffffffffffffffffffffffffff1916827bffffffffffffffffffffffffffffffffffffffffffffffffffffffff1916149050919050565b600081600001549050919050565b6001816000016000828254019250508190555050565b600081600001549050600081116125e6576040517f08c379a00000000000000000000000000000000000000000000000000000000081526004016125dd9061314e565b60405180910390fd5b6001810382600001819055505050565b60008183612604919061339c565b905092915050565b6000818361261a91906133cd565b905092915050565b60405180610140016040528060008152602001600073ffffffffffffffffffffffffffffffffffffffff168152602001600081526020016000815260200160006004811115612674576126736135ed565b5b8152602001600015158152602001600073ffffffffffffffffffffffffffffffffffffffff168152602001600073ffffffffffffffffffffffffffffffffffffffff168152602001600081526020016000151581525090565b60006126e06126db8461328e565b613269565b905080838252602082019050828560208602820111156127035761270261367f565b5b60005b858110156127335781612719888261282f565b845260208401935060208301925050600181019050612706565b5050509392505050565b600061275061274b846132ba565b613269565b90508281526020810184848401111561276c5761276b613684565b5b612777848285613506565b509392505050565b60008135905061278e816138f0565b92915050565b600082601f8301126127a9576127a861367a565b5b81356127b98482602086016126cd565b91505092915050565b6000813590506127d181613907565b92915050565b6000815190506127e681613907565b92915050565b6000813590506127fb8161391e565b92915050565b600082601f8301126128165761281561367a565b5b813561282684826020860161273d565b91505092915050565b60008135905061283e81613935565b92915050565b60008151905061285381613935565b92915050565b600080600080600060a086880312156128755761287461368e565b5b60006128838882890161277f565b95505060206128948882890161277f565b945050604086013567ffffffffffffffff8111156128b5576128b4613689565b5b6128c188828901612794565b935050606086013567ffffffffffffffff8111156128e2576128e1613689565b5b6128ee88828901612794565b925050608086013567ffffffffffffffff81111561290f5761290e613689565b5b61291b88828901612801565b9150509295509295909350565b600080600080600060a086880312156129445761294361368e565b5b60006129528882890161277f565b95505060206129638882890161277f565b94505060406129748882890161282f565b93505060606129858882890161282f565b925050608086013567ffffffffffffffff8111156129a6576129a5613689565b5b6129b288828901612801565b9150509295509295909350565b600080604083850312156129d6576129d561368e565b5b60006129e48582860161277f565b92505060206129f58582860161282f565b9150509250929050565b60008060008060808587031215612a1957612a1861368e565b5b6000612a278782880161277f565b9450506020612a388782880161282f565b9350506040612a498782880161282f565b9250506060612a5a8782880161282f565b91505092959194509250565b600060208284031215612a7c57612a7b61368e565b5b6000612a8a848285016127d7565b91505092915050565b600060208284031215612aa957612aa861368e565b5b6000612ab7848285016127ec565b91505092915050565b600060208284031215612ad657612ad561368e565b5b6000612ae48482850161282f565b91505092915050565b600060208284031215612b0357612b0261368e565b5b6000612b1184828501612844565b91505092915050565b600080600060608486031215612b3357612b3261368e565b5b6000612b418682870161282f565b9350506020612b528682870161282f565b9250506040612b63868287016127c2565b9150509250925092565b6000612b798383612df1565b6101408301905092915050565b612b8f8161345b565b82525050565b612b9e8161345b565b82525050565b6000612baf826132fb565b612bb98185613313565b9350612bc4836132eb565b8060005b83811015612bf5578151612bdc8882612b6d565b9750612be783613306565b925050600181019050612bc8565b5085935050505092915050565b612c0b8161346d565b82525050565b612c1a8161346d565b82525050565b612c2981613479565b82525050565b612c38816134e2565b82525050565b612c47816134f4565b82525050565b6000612c5a600383613335565b9150612c65826136a4565b602082019050919050565b6000612c7d602b83613335565b9150612c88826136cd565b604082019050919050565b6000612ca0601b83613335565b9150612cab8261371c565b602082019050919050565b6000612cc3600383613335565b9150612cce82613745565b602082019050919050565b6000612ce6601b83613335565b9150612cf18261376e565b602082019050919050565b6000612d09602283613335565b9150612d1482613797565b604082019050919050565b6000612d2c601383613335565b9150612d37826137e6565b602082019050919050565b6000612d4f600083613324565b9150612d5a8261380f565b600082019050919050565b6000612d72601783613335565b9150612d7d82613812565b602082019050919050565b6000612d95602183613335565b9150612da08261383b565b604082019050919050565b6000612db8601f83613335565b9150612dc38261388a565b602082019050919050565b6000612ddb601c83613335565b9150612de6826138b3565b602082019050919050565b61014082016000820151612e086000850182612ebd565b506020820151612e1b6020850182612b86565b506040820151612e2e6040850182612ebd565b506060820151612e416060850182612ebd565b506080820151612e546080850182612c2f565b5060a0820151612e6760a0850182612c02565b5060c0820151612e7a60c0850182612b86565b5060e0820151612e8d60e0850182612b86565b50610100820151612ea2610100850182612ebd565b50610120820151612eb7610120850182612c02565b50505050565b612ec6816134d8565b82525050565b612ed5816134d8565b82525050565b6000602082019050612ef06000830184612b95565b92915050565b6000606082019050612f0b6000830186612b95565b612f186020830185612b95565b612f256040830184612ecc565b949350505050565b600060a082019050612f426000830187612b95565b612f4f6020830186612b95565b612f5c6040830185612ecc565b612f696060830184612c3e565b8181036080830152612f7a81612d42565b905095945050505050565b600060a082019050612f9a6000830187612b95565b612fa76020830186612b95565b612fb46040830185612ecc565b612fc16060830184612ecc565b8181036080830152612fd281612c4d565b905095945050505050565b600060a082019050612ff26000830187612b95565b612fff6020830186612b95565b61300c6040830185612ecc565b6130196060830184612ecc565b818103608083015261302a81612cb6565b905095945050505050565b600060408201905061304a6000830185612b95565b6130576020830184612ecc565b9392505050565b60006060820190506130736000830185612b95565b6130806020830184612ecc565b818103604083015261309181612c4d565b90509392505050565b60006060820190506130af6000830185612b95565b6130bc6020830184612ecc565b81810360408301526130cd81612cb6565b90509392505050565b600060208201905081810360008301526130f08184612ba4565b905092915050565b600060208201905061310d6000830184612c11565b92915050565b60006020820190506131286000830184612c20565b92915050565b6000602082019050818103600083015261314781612c70565b9050919050565b6000602082019050818103600083015261316781612c93565b9050919050565b6000602082019050818103600083015261318781612cd9565b9050919050565b600060208201905081810360008301526131a781612cfc565b9050919050565b600060208201905081810360008301526131c781612d1f565b9050919050565b600060208201905081810360008301526131e781612d65565b9050919050565b6000602082019050818103600083015261320781612d88565b9050919050565b6000602082019050818103600083015261322781612dab565b9050919050565b6000602082019050818103600083015261324781612dce565b9050919050565b60006020820190506132636000830184612ecc565b92915050565b6000613273613284565b905061327f8282613515565b919050565b6000604051905090565b600067ffffffffffffffff8211156132a9576132a861364b565b5b602082029050602081019050919050565b600067ffffffffffffffff8211156132d5576132d461364b565b5b6132de82613693565b9050602081019050919050565b6000819050602082019050919050565b600081519050919050565b6000602082019050919050565b600082825260208201905092915050565b600082825260208201905092915050565b600082825260208201905092915050565b6000613351826134d8565b915061335c836134d8565b9250827fffffffffffffffffffffffffffffffffffffffffffffffffffffffffffffffff038211156133915761339061358f565b5b828201905092915050565b60006133a7826134d8565b91506133b2836134d8565b9250826133c2576133c16135be565b5b828204905092915050565b60006133d8826134d8565b91506133e3836134d8565b9250817fffffffffffffffffffffffffffffffffffffffffffffffffffffffffffffffff048311821515161561341c5761341b61358f565b5b828202905092915050565b6000613432826134d8565b915061343d836134d8565b9250828210156134505761344f61358f565b5b828203905092915050565b6000613466826134b8565b9050919050565b60008115159050919050565b60007fffffffff0000000000000000000000000000000000000000000000000000000082169050919050565b60008190506134b3826138dc565b919050565b600073ffffffffffffffffffffffffffffffffffffffff82169050919050565b6000819050919050565b60006134ed826134a5565b9050919050565b60006134ff826134d8565b9050919050565b82818337600083830152505050565b61351e82613693565b810181811067ffffffffffffffff8211171561353d5761353c61364b565b5b80604052505050565b6000613551826134d8565b91507fffffffffffffffffffffffffffffffffffffffffffffffffffffffffffffffff8214156135845761358361358f565b5b600182019050919050565b7f4e487b7100000000000000000000000000000000000000000000000000000000600052601160045260246000fd5b7f4e487b7100000000000000000000000000000000000000000000000000000000600052601260045260246000fd5b7f4e487b7100000000000000000000000000000000000000000000000000000000600052602160045260246000fd5b7f4e487b7100000000000000000000000000000000000000000000000000000000600052603260045260246000fd5b7f4e487b7100000000000000000000000000000000000000000000000000000000600052604160045260246000fd5b600080fd5b600080fd5b600080fd5b600080fd5b600080fd5b6000601f19601f8301169050919050565b7f4d434f0000000000000000000000000000000000000000000000000000000000600082015250565b7f496e73756666696369656e742066756e647320746f20636f6d706c657465207460008201527f6865207075726368617365000000000000000000000000000000000000000000602082015250565b7f436f756e7465723a2064656372656d656e74206f766572666c6f770000000000600082015250565b7f47434f0000000000000000000000000000000000000000000000000000000000600082015250565b7f4974656d206e6f742063757272656e746c7920666f722073616c650000000000600082015250565b7f6c6973746572206973206e6f74206f776e6572206f66204e465420616e796d6f60008201527f7265000000000000000000000000000000000000000000000000000000000000602082015250565b7f636f756c64206e6f742066696e64206974656d00000000000000000000000000600082015250565b50565b7f6f6e6c79206f776e65722063616e206c697374204e4654000000000000000000600082015250565b7f6f6e6c79206f776e65722063616e2063616e63656c204e4654206c697374696e60008201527f6700000000000000000000000000000000000000000000000000000000000000602082015250565b7f5265656e7472616e637947756172643a207265656e7472616e742063616c6c00600082015250565b7f5072696365206d757374206265206174206c6561737420312077656900000000600082015250565b600581106138ed576138ec6135ed565b5b50565b6138f98161345b565b811461390457600080fd5b50565b6139108161346d565b811461391b57600080fd5b50565b61392781613479565b811461393257600080fd5b50565b61393e816134d8565b811461394957600080fd5b5056fea264697066735822122093e84e400a36cfe2196a7f9092f44be5fd813047d1a948b7e31476cc150f008b64736f6c63430008060033",
  "immutableReferences": {},
  "source": "// SPDX-License-Identifier: MIT OR Apache-2.0\r\npragma solidity ^0.8.6;\r\n\r\nimport \"../node_modules/@openzeppelin/contracts/token/ERC1155/utils/ERC1155Holder.sol\";\r\nimport \"../node_modules/@openzeppelin/contracts/token/ERC1155/ERC1155.sol\";\r\nimport \"../node_modules/@openzeppelin/contracts/utils/Counters.sol\";\r\nimport \"../node_modules/@openzeppelin/contracts/token/ERC20/IERC20.sol\";\r\nimport \"../node_modules/@openzeppelin/contracts/security/ReentrancyGuard.sol\";\r\nimport \"../node_modules/@openzeppelin/contracts/utils/math/SafeMath.sol\";\r\n\r\n/**\r\n * @title NFTMarket\r\n * @dev NFT Marketplace Smart Contract for ownership\r\n * TODO Make Reselling Functionality\r\n */\r\n\r\ncontract ERC1155Market is ReentrancyGuard,ERC1155Holder{\r\n\r\n    //ERC 20 Transfer\r\n    IERC20 private mcoToken;\r\n    IERC20 private gcoToken;\r\n\r\n    event TransferSent(address _senderAddress, address _destAddress, uint256 _amount);\r\n\r\n    //Marketplace Code\r\n    using Counters for Counters.Counter;\r\n    Counters.Counter private _itemIds;\r\n    Counters.Counter private _itemsListed;\r\n\r\n    using SafeMath for uint256;\r\n    address owner;\r\n    uint256 listingPrice = 0.025 ether;\r\n    enum ItemCategories{ART, MUSIC, COLLECTIBLE, SKILL, OTHER} \r\n    /*string[] collections;\r\n    mapping(string=>uint256) collectionNameToID;*/\r\n\r\n    constructor(IERC20 _mcoToken, IERC20 _gcoToken) {\r\n        owner = address(msg.sender);//Tentatively change to beneficiary\r\n        /*collections.push(\"Independent\");\r\n        collectionNameToID[\"Independent\"] = 1;//collections is -1 from the id*/\r\n        mcoToken = _mcoToken;\r\n        gcoToken = _gcoToken;\r\n    }\r\n    \r\n    function getListingPrice() public view returns (uint256) {\r\n    return listingPrice;\r\n  }\r\n\r\n\r\n    struct MarketItem {\r\n        uint itemId;//Make it a one-to-one mapping with nftContract and tokenID\r\n        address nftContract;\r\n        uint256 tokenId;\r\n        uint256 currentPrice;\r\n        ItemCategories category;\r\n        bool listed;\r\n        address creator;\r\n        address currentOwner;\r\n        uint royalty;\r\n        bool useGco;\r\n    }\r\n\r\n    mapping(uint256 => MarketItem) private idToMarketItem;\r\n\r\n    event MarketItemCreated (\r\n        uint indexed itemId,\r\n        address indexed nftContract,\r\n        uint256 indexed tokenId,\r\n        address seller,\r\n        address owner,\r\n        uint royalty\r\n    );\r\n\r\n    event MarketListingCreated (\r\n        uint indexed itemId,\r\n        address indexed nftContract,\r\n        uint256 indexed tokenId,\r\n        address lister,\r\n        uint256 price,\r\n        string transactionToken\r\n    );\r\n\r\n    event MarketListingCancelled (\r\n        uint indexed itemId,\r\n        address indexed nftContract,\r\n        uint256 indexed tokenId,\r\n        address lister,\r\n        uint256 price,\r\n        string transactionToken\r\n    );\r\n\r\n\r\n    event MarketSaleCreated (\r\n          uint indexed itemId,\r\n          address indexed nftContract,\r\n          uint256 indexed tokenId,\r\n          address seller,\r\n          address buyer,\r\n          uint256 price,\r\n          uint royalty,\r\n          string transactionToken\r\n      );\r\n\r\n\r\n//we waant to create a modifier to check if the caller is the item owner\r\n    modifier onlyItemOwner (address tokenAddress, uint256 tokenId) {\r\n        require(IERC1155(tokenAddress).balanceOf(msg.sender,tokenId) >=1 , \"lister is not owner of NFT anymore\" );\r\n        _;\r\n    }\r\n\r\n    //modifier which checks if the item actuall does exist\r\n    modifier itemExists(uint256 id){\r\n        require(id <= _itemIds.current() && idToMarketItem[id].itemId == id, \"could not find item\");\r\n        _;\r\n    }\r\n\r\n    modifier isForSale(uint256 id) {\r\n        require(idToMarketItem[id].listed == true, \"Item not currently for sale\");\r\n        _;\r\n    }\r\n\r\n    /* Places an item for sale on the marketplace */\r\n  /*function getCollectionId(string collectionName) public view returns(uint256){\r\n    return (collectionNameToID[collectionName]);\r\n  }*/\r\n\r\n/*\r\n  Create Market Item--\r\n  Function: Creates new NFT struct and makes 1-1 mapping to an itemId in the market;\r\n  -- Considerations: \r\n    - Keep it like this where every single minted nft in blockchain is a struct item in contract too\r\n    - Only enter the market contract once want to bring up for listing?-- Downside, need to interface with respective nft contracts\r\n */\r\nfunction createMarketItem(address nftContract, uint256 tokenId, uint category, uint royalty) onlyItemOwner(nftContract, tokenId) public nonReentrant {\r\n    _itemIds.increment();\r\n    uint256 itemId = _itemIds.current();\r\n    \r\n\r\n    //One-to-one mapping itemId to item\r\n    idToMarketItem[itemId] =  MarketItem(itemId, nftContract, tokenId,0,ItemCategories(category), false, address(msg.sender),address(msg.sender),royalty,true);\r\n\r\n    \r\n    //Log creation of Market Item\r\n    emit MarketItemCreated(itemId,nftContract,tokenId,address(0),msg.sender,royalty);\r\n  }\r\n\r\n  /*\r\n  Create Market Listing--\r\n  Function: Transfers ownership of NFT to market and pay listing price\r\n  -- Considerations: \r\n    - Should listing price be fixed amount or a percentage\r\n */\r\n\r\n  function createMarketListing(uint256 itemId, uint256 price, bool useGco) public itemExists(itemId) nonReentrant {\r\n    require(price > 0, \"Price must be at least 1 wei\");\r\n    uint256 tokenId = idToMarketItem[itemId].tokenId;\r\n    address nftContract = idToMarketItem[itemId].nftContract;\r\n    require(IERC1155(nftContract).balanceOf(msg.sender,tokenId) >=1 , \"only owner can list NFT\" );\r\n    //Creator transfers listing price in merchcoin and ownership to the smart contract\r\n    gcoToken.transferFrom(address(msg.sender),address(this),listingPrice);\r\n    if(useGco){\r\n      idToMarketItem[itemId].useGco = true;\r\n    }else{\r\n      idToMarketItem[itemId].useGco = false;\r\n    }\r\n    //Change Current listed price\r\n    idToMarketItem[itemId].currentPrice = price;\r\n\r\n    //Transfer nft ownership to marketplace contract\r\n    IERC1155(nftContract).safeTransferFrom(address(msg.sender), address(this), tokenId,1,\"\");\r\n\r\n    //Change the status to listed\r\n    idToMarketItem[itemId].listed = true;\r\n    _itemsListed.increment();\r\n    //Log creation of Market Listing\r\n    if(useGco){\r\n      emit MarketListingCreated(itemId,nftContract,tokenId,msg.sender,price,'GCO');\r\n    }else{\r\n      emit MarketListingCreated(itemId,nftContract,tokenId,msg.sender,price,'MCO');\r\n    }\r\n  }\r\n\r\n  //Cancel market listing\r\n  function cancelMarketListing(uint256 itemId) public itemExists(itemId) isForSale(itemId) nonReentrant {\r\n    uint256 tokenId = idToMarketItem[itemId].tokenId;\r\n    address nftContract = idToMarketItem[itemId].nftContract;\r\n    require(IERC1155(nftContract).balanceOf(msg.sender,tokenId) >=1 , \"only owner can cancel NFT listing\" );\r\n    //Creator transfers listing price in merchcoin and ownership to the smart contract\r\n    gcoToken.transferFrom(address(this),address(msg.sender),listingPrice);\r\n\r\n    //Transfer nft ownership to marketplace contract\r\n    IERC1155(nftContract).safeTransferFrom(address(this), address(msg.sender), tokenId,1,\"\");\r\n\r\n    //Change the status to listed\r\n    idToMarketItem[itemId].listed = false;\r\n    uint256 price = idToMarketItem[itemId].currentPrice; \r\n    bool useGco = idToMarketItem[itemId].useGco;\r\n    _itemsListed.decrement();\r\n    //Log creation of Market Listing\r\n    if(useGco){\r\n      emit MarketListingCancelled(itemId,nftContract,tokenId,msg.sender,price,'GCO');\r\n    }else{\r\n      emit MarketListingCancelled(itemId,nftContract,tokenId,msg.sender,price,'MCO');\r\n    }\r\n  }\r\n\r\n\r\n\r\n  /*\r\n  Create Market Sale--\r\n  Function: \r\n  When someone buys the item, \r\n  1) transfers item price to the seller\r\n  2) transfers ownership to buyer,\r\n  3) transfers listing price to the admin beneficiary\r\n */\r\n\r\n   function createMarketSale(address nftContract, uint256 itemId) itemExists(itemId) isForSale(itemId) public nonReentrant {\r\n    uint256 price = idToMarketItem[itemId].currentPrice;\r\n    uint tokenId = idToMarketItem[itemId].tokenId;\r\n    address lister = idToMarketItem[itemId].currentOwner;\r\n    uint royalty = idToMarketItem[itemId].royalty;\r\n    address creator = idToMarketItem[itemId].creator;\r\n    bool useGco = idToMarketItem[itemId].useGco;\r\n\r\n    //Balance\r\n    uint256 erc20balance = gcoToken.balanceOf(address(msg.sender)); \r\n    if(useGco)erc20balance = gcoToken.balanceOf(address(msg.sender)); \r\n    else erc20balance = mcoToken.balanceOf(address(msg.sender)); \r\n    \r\n    require(erc20balance >= price, \"Insufficient funds to complete the purchase\");\r\n\r\n    if (price > 0) {\r\n      uint256 fee = (price.div(10000)).mul(250);\r\n      uint creatorRoyalty = (price-fee).mul(royalty).div(100);\r\n      \r\n      if(useGco){\r\n        gcoToken.transferFrom(address(msg.sender), address(this), price);\r\n\r\n        // Contract pays seller\r\n        gcoToken.transfer(address(creator), creatorRoyalty);\r\n        gcoToken.transfer(address(lister), price - fee - creatorRoyalty);\r\n      }else{\r\n          // Buyer pays contract\r\n        mcoToken.transferFrom(address(msg.sender), address(this), price);\r\n\r\n        // Contract pays seller\r\n        mcoToken.transfer(address(creator), creatorRoyalty);\r\n        mcoToken.transfer(address(lister), price - fee - creatorRoyalty);\r\n      }\r\n      \r\n    }\r\n\r\n    // Transfer ownership from contract to buyer\r\n    IERC1155(nftContract).safeTransferFrom(address(this), address(msg.sender), tokenId, 1, \"\");\r\n\r\n    // Increase the sale index for the saleHistory array of the item\r\n    idToMarketItem[itemId].listed = false;\r\n    idToMarketItem[itemId].currentOwner = address(msg.sender);\r\n    _itemsListed.decrement();\r\n\r\n    if(useGco){\r\n      emit MarketSaleCreated(itemId, nftContract, tokenId, lister, msg.sender, price, royalty,'GCO');\r\n    }else{\r\n      emit MarketSaleCreated(itemId, nftContract, tokenId, lister, msg.sender, price, royalty,'MCO');\r\n    }\r\n}\r\n\r\n  /* \r\n  Returns all market items \r\n  --Classification of listed and unlisted will be handled in frontend\r\n  */\r\n  function fetchMarketItems() public view returns (MarketItem[] memory) {\r\n    uint itemCount = _itemIds.current();\r\n    uint currentIndex = 0;\r\n\r\n    MarketItem[] memory items = new MarketItem[](itemCount);\r\n    for (uint i = 0; i < itemCount; i++) {\r\n        uint currentId = i + 1;\r\n        MarketItem storage currentItem = idToMarketItem[currentId];\r\n        items[currentIndex] = currentItem;\r\n        currentIndex += 1;\r\n    }\r\n    return items;\r\n  }\r\n\r\n  /* \r\n  fetchMyNFTs\r\n  -- Returns only items that a user has purchased \r\n  */\r\n  function fetchMyNFTs() public view returns (MarketItem[] memory) {\r\n    uint totalItemCount = _itemIds.current();\r\n    uint itemCount = 0;\r\n    uint currentIndex = 0;\r\n\r\n    for (uint i = 0; i < totalItemCount; i++) {\r\n      if (idToMarketItem[i + 1].currentOwner == msg.sender) {\r\n        itemCount += 1;\r\n      }\r\n    }\r\n\r\n    MarketItem[] memory items = new MarketItem[](itemCount);\r\n    for (uint i = 0; i < totalItemCount; i++) {\r\n      if (idToMarketItem[i + 1].currentOwner == msg.sender) {\r\n        uint currentId = i + 1;\r\n        MarketItem storage currentItem = idToMarketItem[currentId];\r\n        items[currentIndex] = currentItem;\r\n        currentIndex += 1;\r\n      }\r\n    }\r\n    return items;\r\n  }\r\n\r\n\r\n  /* Returns items a user has created */\r\n  function fetchItemsCreated() public view returns (MarketItem[] memory) {\r\n    uint totalItemCount = _itemIds.current();\r\n    uint itemCount = 0;\r\n    uint currentIndex = 0;\r\n\r\n    for (uint i = 0; i < totalItemCount; i++) {\r\n      if (idToMarketItem[i + 1].creator == msg.sender) {\r\n        itemCount += 1;\r\n      }\r\n    }\r\n\r\n    MarketItem[] memory items = new MarketItem[](itemCount);\r\n    for (uint i = 0; i < totalItemCount; i++) {\r\n      if (idToMarketItem[i + 1].creator == msg.sender) {\r\n        uint currentId = i + 1;\r\n        MarketItem storage currentItem = idToMarketItem[currentId];\r\n        items[currentIndex] = currentItem;\r\n        currentIndex += 1;\r\n      }\r\n    }\r\n    return items;\r\n  }\r\n\r\n}",
  "sourcePath": "C:\\Users\\Freddy\\OneDrive - University of Illinois - Urbana\\UIUC Spring 2022\\IBlock\\truffle\\contracts\\ERC1155Market.sol",
  "compiler": {
    "name": "solc",
    "version": "0.8.6+commit.11564f7e.Emscripten.clang"
  },
  "schemaVersion": "3.4.3",
  "updatedAt": "2022-04-15T07:44:37.409Z",
  "networkType": "ethereum",
  "devdoc": {
    "details": "NFT Marketplace Smart Contract for ownership TODO Make Reselling Functionality",
    "kind": "dev",
    "methods": {
      "supportsInterface(bytes4)": {
        "details": "See {IERC165-supportsInterface}."
      }
    },
    "title": "NFTMarket",
    "version": 1
  },
  "userdoc": {
    "kind": "user",
    "methods": {},
    "version": 1
  }
}