{
  "contractName": "NFT",
  "abi": [
    {
      "inputs": [
        {
          "internalType": "address",
          "name": "marketplaceAddress",
          "type": "address"
        }
      ],
      "stateMutability": "nonpayable",
      "type": "constructor"
    },
    {
      "anonymous": false,
      "inputs": [
        {
          "indexed": true,
          "internalType": "address",
          "name": "owner",
          "type": "address"
        },
        {
          "indexed": true,
          "internalType": "address",
          "name": "approved",
          "type": "address"
        },
        {
          "indexed": true,
          "internalType": "uint256",
          "name": "tokenId",
          "type": "uint256"
        }
      ],
      "name": "Approval",
      "type": "event"
    },
    {
      "anonymous": false,
      "inputs": [
        {
          "indexed": true,
          "internalType": "address",
          "name": "owner",
          "type": "address"
        },
        {
          "indexed": true,
          "internalType": "address",
          "name": "operator",
          "type": "address"
        },
        {
          "indexed": false,
          "internalType": "bool",
          "name": "approved",
          "type": "bool"
        }
      ],
      "name": "ApprovalForAll",
      "type": "event"
    },
    {
      "anonymous": false,
      "inputs": [
        {
          "indexed": true,
          "internalType": "address",
          "name": "from",
          "type": "address"
        },
        {
          "indexed": true,
          "internalType": "address",
          "name": "to",
          "type": "address"
        },
        {
          "indexed": true,
          "internalType": "uint256",
          "name": "tokenId",
          "type": "uint256"
        }
      ],
      "name": "Transfer",
      "type": "event"
    },
    {
      "inputs": [
        {
          "internalType": "address",
          "name": "to",
          "type": "address"
        },
        {
          "internalType": "uint256",
          "name": "tokenId",
          "type": "uint256"
        }
      ],
      "name": "approve",
      "outputs": [],
      "stateMutability": "nonpayable",
      "type": "function"
    },
    {
      "inputs": [
        {
          "internalType": "address",
          "name": "owner",
          "type": "address"
        }
      ],
      "name": "balanceOf",
      "outputs": [
        {
          "internalType": "uint256",
          "name": "",
          "type": "uint256"
        }
      ],
      "stateMutability": "view",
      "type": "function",
      "constant": true
    },
    {
      "inputs": [
        {
          "internalType": "uint256",
          "name": "tokenId",
          "type": "uint256"
        }
      ],
      "name": "getApproved",
      "outputs": [
        {
          "internalType": "address",
          "name": "",
          "type": "address"
        }
      ],
      "stateMutability": "view",
      "type": "function",
      "constant": true
    },
    {
      "inputs": [
        {
          "internalType": "address",
          "name": "owner",
          "type": "address"
        },
        {
          "internalType": "address",
          "name": "operator",
          "type": "address"
        }
      ],
      "name": "isApprovedForAll",
      "outputs": [
        {
          "internalType": "bool",
          "name": "",
          "type": "bool"
        }
      ],
      "stateMutability": "view",
      "type": "function",
      "constant": true
    },
    {
      "inputs": [],
      "name": "name",
      "outputs": [
        {
          "internalType": "string",
          "name": "",
          "type": "string"
        }
      ],
      "stateMutability": "view",
      "type": "function",
      "constant": true
    },
    {
      "inputs": [
        {
          "internalType": "uint256",
          "name": "tokenId",
          "type": "uint256"
        }
      ],
      "name": "ownerOf",
      "outputs": [
        {
          "internalType": "address",
          "name": "",
          "type": "address"
        }
      ],
      "stateMutability": "view",
      "type": "function",
      "constant": true
    },
    {
      "inputs": [
        {
          "internalType": "address",
          "name": "from",
          "type": "address"
        },
        {
          "internalType": "address",
          "name": "to",
          "type": "address"
        },
        {
          "internalType": "uint256",
          "name": "tokenId",
          "type": "uint256"
        }
      ],
      "name": "safeTransferFrom",
      "outputs": [],
      "stateMutability": "nonpayable",
      "type": "function"
    },
    {
      "inputs": [
        {
          "internalType": "address",
          "name": "from",
          "type": "address"
        },
        {
          "internalType": "address",
          "name": "to",
          "type": "address"
        },
        {
          "internalType": "uint256",
          "name": "tokenId",
          "type": "uint256"
        },
        {
          "internalType": "bytes",
          "name": "_data",
          "type": "bytes"
        }
      ],
      "name": "safeTransferFrom",
      "outputs": [],
      "stateMutability": "nonpayable",
      "type": "function"
    },
    {
      "inputs": [
        {
          "internalType": "address",
          "name": "operator",
          "type": "address"
        },
        {
          "internalType": "bool",
          "name": "approved",
          "type": "bool"
        }
      ],
      "name": "setApprovalForAll",
      "outputs": [],
      "stateMutability": "nonpayable",
      "type": "function"
    },
    {
      "inputs": [
        {
          "internalType": "bytes4",
          "name": "interfaceId",
          "type": "bytes4"
        }
      ],
      "name": "supportsInterface",
      "outputs": [
        {
          "internalType": "bool",
          "name": "",
          "type": "bool"
        }
      ],
      "stateMutability": "view",
      "type": "function",
      "constant": true
    },
    {
      "inputs": [],
      "name": "symbol",
      "outputs": [
        {
          "internalType": "string",
          "name": "",
          "type": "string"
        }
      ],
      "stateMutability": "view",
      "type": "function",
      "constant": true
    },
    {
      "inputs": [
        {
          "internalType": "uint256",
          "name": "tokenId",
          "type": "uint256"
        }
      ],
      "name": "tokenURI",
      "outputs": [
        {
          "internalType": "string",
          "name": "",
          "type": "string"
        }
      ],
      "stateMutability": "view",
      "type": "function",
      "constant": true
    },
    {
      "inputs": [
        {
          "internalType": "address",
          "name": "from",
          "type": "address"
        },
        {
          "internalType": "address",
          "name": "to",
          "type": "address"
        },
        {
          "internalType": "uint256",
          "name": "tokenId",
          "type": "uint256"
        }
      ],
      "name": "transferFrom",
      "outputs": [],
      "stateMutability": "nonpayable",
      "type": "function"
    },
    {
      "inputs": [
        {
          "internalType": "string",
          "name": "tokenURI",
          "type": "string"
        }
      ],
      "name": "createToken",
      "outputs": [
        {
          "internalType": "uint256",
          "name": "",
          "type": "uint256"
        }
      ],
      "stateMutability": "nonpayable",
      "type": "function"
    }
  ],
  "bytecode": "0x60806040523480156200001157600080fd5b5060405162002eca38038062002eca8339818101604052810190620000379190620001e6565b6040518060400160405280600981526020017f4d657461766572736500000000000000000000000000000000000000000000008152506040518060400160405280600481526020017f4d455454000000000000000000000000000000000000000000000000000000008152508160009080519060200190620000bb9291906200011f565b508060019080519060200190620000d49291906200011f565b50505080600860006101000a81548173ffffffffffffffffffffffffffffffffffffffff021916908373ffffffffffffffffffffffffffffffffffffffff16021790555050620002d0565b8280546200012d906200024c565b90600052602060002090601f0160209004810192826200015157600085556200019d565b82601f106200016c57805160ff19168380011785556200019d565b828001600101855582156200019d579182015b828111156200019c5782518255916020019190600101906200017f565b5b509050620001ac9190620001b0565b5090565b5b80821115620001cb576000816000905550600101620001b1565b5090565b600081519050620001e081620002b6565b92915050565b600060208284031215620001ff57620001fe620002b1565b5b60006200020f84828501620001cf565b91505092915050565b600062000225826200022c565b9050919050565b600073ffffffffffffffffffffffffffffffffffffffff82169050919050565b600060028204905060018216806200026557607f821691505b602082108114156200027c576200027b62000282565b5b50919050565b7f4e487b7100000000000000000000000000000000000000000000000000000000600052602260045260246000fd5b600080fd5b620002c18162000218565b8114620002cd57600080fd5b50565b612bea80620002e06000396000f3fe608060405234801561001057600080fd5b50600436106100ea5760003560e01c80636352211e1161008c578063a22cb46511610066578063a22cb4651461026f578063b88d4fde1461028b578063c87b56dd146102a7578063e985e9c5146102d7576100ea565b80636352211e146101f157806370a082311461022157806395d89b4114610251576100ea565b8063095ea7b3116100c8578063095ea7b31461016d57806323b872dd1461018957806342842e0e146101a557806345576f94146101c1576100ea565b806301ffc9a7146100ef57806306fdde031461011f578063081812fc1461013d575b600080fd5b61010960048036038101906101049190611bff565b610307565b604051610116919061205a565b60405180910390f35b6101276103e9565b6040516101349190612075565b60405180910390f35b61015760048036038101906101529190611ca2565b61047b565b6040516101649190611ff3565b60405180910390f35b61018760048036038101906101829190611bbf565b610500565b005b6101a3600480360381019061019e9190611aa9565b610618565b005b6101bf60048036038101906101ba9190611aa9565b610678565b005b6101db60048036038101906101d69190611c59565b610698565b6040516101e89190612297565b60405180910390f35b61020b60048036038101906102069190611ca2565b6106fc565b6040516102189190611ff3565b60405180910390f35b61023b60048036038101906102369190611a3c565b6107ae565b6040516102489190612297565b60405180910390f35b610259610866565b6040516102669190612075565b60405180910390f35b61028960048036038101906102849190611b7f565b6108f8565b005b6102a560048036038101906102a09190611afc565b61090e565b005b6102c160048036038101906102bc9190611ca2565b610970565b6040516102ce9190612075565b60405180910390f35b6102f160048036038101906102ec9190611a69565b610ac2565b6040516102fe919061205a565b60405180910390f35b60007f80ac58cd000000000000000000000000000000000000000000000000000000007bffffffffffffffffffffffffffffffffffffffffffffffffffffffff1916827bffffffffffffffffffffffffffffffffffffffffffffffffffffffff191614806103d257507f5b5e139f000000000000000000000000000000000000000000000000000000007bffffffffffffffffffffffffffffffffffffffffffffffffffffffff1916827bffffffffffffffffffffffffffffffffffffffffffffffffffffffff1916145b806103e257506103e182610b56565b5b9050919050565b6060600080546103f8906124ed565b80601f0160208091040260200160405190810160405280929190818152602001828054610424906124ed565b80156104715780601f1061044657610100808354040283529160200191610471565b820191906000526020600020905b81548152906001019060200180831161045457829003601f168201915b5050505050905090565b600061048682610bc0565b6104c5576040517f08c379a00000000000000000000000000000000000000000000000000000000081526004016104bc90612217565b60405180910390fd5b6004600083815260200190815260200160002060009054906101000a900473ffffffffffffffffffffffffffffffffffffffff169050919050565b600061050b826106fc565b90508073ffffffffffffffffffffffffffffffffffffffff168373ffffffffffffffffffffffffffffffffffffffff16141561057c576040517f08c379a000000000000000000000000000000000000000000000000000000000815260040161057390612257565b60405180910390fd5b8073ffffffffffffffffffffffffffffffffffffffff1661059b610c2c565b73ffffffffffffffffffffffffffffffffffffffff1614806105ca57506105c9816105c4610c2c565b610ac2565b5b610609576040517f08c379a000000000000000000000000000000000000000000000000000000000815260040161060090612157565b60405180910390fd5b6106138383610c34565b505050565b610629610623610c2c565b82610ced565b610668576040517f08c379a000000000000000000000000000000000000000000000000000000000815260040161065f90612277565b60405180910390fd5b610673838383610dcb565b505050565b6106938383836040518060200160405280600081525061090e565b505050565b60006106a46007611032565b60006106b06007611048565b90506106bc3382611056565b6106c68184611230565b6106f3600860009054906101000a900473ffffffffffffffffffffffffffffffffffffffff1660016108f8565b80915050919050565b6000806002600084815260200190815260200160002060009054906101000a900473ffffffffffffffffffffffffffffffffffffffff169050600073ffffffffffffffffffffffffffffffffffffffff168173ffffffffffffffffffffffffffffffffffffffff1614156107a5576040517f08c379a000000000000000000000000000000000000000000000000000000000815260040161079c90612197565b60405180910390fd5b80915050919050565b60008073ffffffffffffffffffffffffffffffffffffffff168273ffffffffffffffffffffffffffffffffffffffff16141561081f576040517f08c379a000000000000000000000000000000000000000000000000000000000815260040161081690612177565b60405180910390fd5b600360008373ffffffffffffffffffffffffffffffffffffffff1673ffffffffffffffffffffffffffffffffffffffff168152602001908152602001600020549050919050565b606060018054610875906124ed565b80601f01602080910402602001604051908101604052809291908181526020018280546108a1906124ed565b80156108ee5780601f106108c3576101008083540402835291602001916108ee565b820191906000526020600020905b8154815290600101906020018083116108d157829003601f168201915b5050505050905090565b61090a610903610c2c565b83836112a4565b5050565b61091f610919610c2c565b83610ced565b61095e576040517f08c379a000000000000000000000000000000000000000000000000000000000815260040161095590612277565b60405180910390fd5b61096a84848484611411565b50505050565b606061097b82610bc0565b6109ba576040517f08c379a00000000000000000000000000000000000000000000000000000000081526004016109b1906121f7565b60405180910390fd5b60006006600084815260200190815260200160002080546109da906124ed565b80601f0160208091040260200160405190810160405280929190818152602001828054610a06906124ed565b8015610a535780601f10610a2857610100808354040283529160200191610a53565b820191906000526020600020905b815481529060010190602001808311610a3657829003601f168201915b505050505090506000610a6461146d565b9050600081511415610a7a578192505050610abd565b600082511115610aaf578082604051602001610a97929190611fcf565b60405160208183030381529060405292505050610abd565b610ab884611484565b925050505b919050565b6000600560008473ffffffffffffffffffffffffffffffffffffffff1673ffffffffffffffffffffffffffffffffffffffff16815260200190815260200160002060008373ffffffffffffffffffffffffffffffffffffffff1673ffffffffffffffffffffffffffffffffffffffff16815260200190815260200160002060009054906101000a900460ff16905092915050565b60007f01ffc9a7000000000000000000000000000000000000000000000000000000007bffffffffffffffffffffffffffffffffffffffffffffffffffffffff1916827bffffffffffffffffffffffffffffffffffffffffffffffffffffffff1916149050919050565b60008073ffffffffffffffffffffffffffffffffffffffff166002600084815260200190815260200160002060009054906101000a900473ffffffffffffffffffffffffffffffffffffffff1673ffffffffffffffffffffffffffffffffffffffff1614159050919050565b600033905090565b816004600083815260200190815260200160002060006101000a81548173ffffffffffffffffffffffffffffffffffffffff021916908373ffffffffffffffffffffffffffffffffffffffff160217905550808273ffffffffffffffffffffffffffffffffffffffff16610ca7836106fc565b73ffffffffffffffffffffffffffffffffffffffff167f8c5be1e5ebec7d5bd14f71427d1e84f3dd0314c0f7b2291e5b200ac8c7c3b92560405160405180910390a45050565b6000610cf882610bc0565b610d37576040517f08c379a0000000000000000000000000000000000000000000000000000000008152600401610d2e90612137565b60405180910390fd5b6000610d42836106fc565b90508073ffffffffffffffffffffffffffffffffffffffff168473ffffffffffffffffffffffffffffffffffffffff161480610db157508373ffffffffffffffffffffffffffffffffffffffff16610d998461047b565b73ffffffffffffffffffffffffffffffffffffffff16145b80610dc25750610dc18185610ac2565b5b91505092915050565b8273ffffffffffffffffffffffffffffffffffffffff16610deb826106fc565b73ffffffffffffffffffffffffffffffffffffffff1614610e41576040517f08c379a0000000000000000000000000000000000000000000000000000000008152600401610e38906120b7565b60405180910390fd5b600073ffffffffffffffffffffffffffffffffffffffff168273ffffffffffffffffffffffffffffffffffffffff161415610eb1576040517f08c379a0000000000000000000000000000000000000000000000000000000008152600401610ea8906120f7565b60405180910390fd5b610ebc83838361152b565b610ec7600082610c34565b6001600360008573ffffffffffffffffffffffffffffffffffffffff1673ffffffffffffffffffffffffffffffffffffffff1681526020019081526020016000206000828254610f179190612403565b925050819055506001600360008473ffffffffffffffffffffffffffffffffffffffff1673ffffffffffffffffffffffffffffffffffffffff1681526020019081526020016000206000828254610f6e919061237c565b92505081905550816002600083815260200190815260200160002060006101000a81548173ffffffffffffffffffffffffffffffffffffffff021916908373ffffffffffffffffffffffffffffffffffffffff160217905550808273ffffffffffffffffffffffffffffffffffffffff168473ffffffffffffffffffffffffffffffffffffffff167fddf252ad1be2c89b69c2b068fc378daa952ba7f163c4a11628f55a4df523b3ef60405160405180910390a461102d838383611530565b505050565b6001816000016000828254019250508190555050565b600081600001549050919050565b600073ffffffffffffffffffffffffffffffffffffffff168273ffffffffffffffffffffffffffffffffffffffff1614156110c6576040517f08c379a00000000000000000000000000000000000000000000000000000000081526004016110bd906121d7565b60405180910390fd5b6110cf81610bc0565b1561110f576040517f08c379a0000000000000000000000000000000000000000000000000000000008152600401611106906120d7565b60405180910390fd5b61111b6000838361152b565b6001600360008473ffffffffffffffffffffffffffffffffffffffff1673ffffffffffffffffffffffffffffffffffffffff168152602001908152602001600020600082825461116b919061237c565b92505081905550816002600083815260200190815260200160002060006101000a81548173ffffffffffffffffffffffffffffffffffffffff021916908373ffffffffffffffffffffffffffffffffffffffff160217905550808273ffffffffffffffffffffffffffffffffffffffff16600073ffffffffffffffffffffffffffffffffffffffff167fddf252ad1be2c89b69c2b068fc378daa952ba7f163c4a11628f55a4df523b3ef60405160405180910390a461122c60008383611530565b5050565b61123982610bc0565b611278576040517f08c379a000000000000000000000000000000000000000000000000000000000815260040161126f906121b7565b60405180910390fd5b8060066000848152602001908152602001600020908051906020019061129f929190611850565b505050565b8173ffffffffffffffffffffffffffffffffffffffff168373ffffffffffffffffffffffffffffffffffffffff161415611313576040517f08c379a000000000000000000000000000000000000000000000000000000000815260040161130a90612117565b60405180910390fd5b80600560008573ffffffffffffffffffffffffffffffffffffffff1673ffffffffffffffffffffffffffffffffffffffff16815260200190815260200160002060008473ffffffffffffffffffffffffffffffffffffffff1673ffffffffffffffffffffffffffffffffffffffff16815260200190815260200160002060006101000a81548160ff0219169083151502179055508173ffffffffffffffffffffffffffffffffffffffff168373ffffffffffffffffffffffffffffffffffffffff167f17307eab39ab6107e8899845ad3d59bd9653f200f220920489ca2b5937696c3183604051611404919061205a565b60405180910390a3505050565b61141c848484610dcb565b61142884848484611535565b611467576040517f08c379a000000000000000000000000000000000000000000000000000000000815260040161145e90612097565b60405180910390fd5b50505050565b606060405180602001604052806000815250905090565b606061148f82610bc0565b6114ce576040517f08c379a00000000000000000000000000000000000000000000000000000000081526004016114c590612237565b60405180910390fd5b60006114d861146d565b905060008151116114f85760405180602001604052806000815250611523565b80611502846116cc565b604051602001611513929190611fcf565b6040516020818303038152906040525b915050919050565b505050565b505050565b60006115568473ffffffffffffffffffffffffffffffffffffffff1661182d565b156116bf578373ffffffffffffffffffffffffffffffffffffffff1663150b7a0261157f610c2c565b8786866040518563ffffffff1660e01b81526004016115a1949392919061200e565b602060405180830381600087803b1580156115bb57600080fd5b505af19250505080156115ec57506040513d601f19601f820116820180604052508101906115e99190611c2c565b60015b61166f573d806000811461161c576040519150601f19603f3d011682016040523d82523d6000602084013e611621565b606091505b50600081511415611667576040517f08c379a000000000000000000000000000000000000000000000000000000000815260040161165e90612097565b60405180910390fd5b805181602001fd5b63150b7a0260e01b7bffffffffffffffffffffffffffffffffffffffffffffffffffffffff1916817bffffffffffffffffffffffffffffffffffffffffffffffffffffffff1916149150506116c4565b600190505b949350505050565b60606000821415611714576040518060400160405280600181526020017f30000000000000000000000000000000000000000000000000000000000000008152509050611828565b600082905060005b6000821461174657808061172f90612550565b915050600a8261173f91906123d2565b915061171c565b60008167ffffffffffffffff81111561176257611761612686565b5b6040519080825280601f01601f1916602001820160405280156117945781602001600182028036833780820191505090505b5090505b60008514611821576001826117ad9190612403565b9150600a856117bc9190612599565b60306117c8919061237c565b60f81b8183815181106117de576117dd612657565b5b60200101907effffffffffffffffffffffffffffffffffffffffffffffffffffffffffffff1916908160001a905350600a8561181a91906123d2565b9450611798565b8093505050505b919050565b6000808273ffffffffffffffffffffffffffffffffffffffff163b119050919050565b82805461185c906124ed565b90600052602060002090601f01602090048101928261187e57600085556118c5565b82601f1061189757805160ff19168380011785556118c5565b828001600101855582156118c5579182015b828111156118c45782518255916020019190600101906118a9565b5b5090506118d291906118d6565b5090565b5b808211156118ef5760008160009055506001016118d7565b5090565b6000611906611901846122d7565b6122b2565b905082815260208101848484011115611922576119216126ba565b5b61192d8482856124ab565b509392505050565b600061194861194384612308565b6122b2565b905082815260208101848484011115611964576119636126ba565b5b61196f8482856124ab565b509392505050565b60008135905061198681612b58565b92915050565b60008135905061199b81612b6f565b92915050565b6000813590506119b081612b86565b92915050565b6000815190506119c581612b86565b92915050565b600082601f8301126119e0576119df6126b5565b5b81356119f08482602086016118f3565b91505092915050565b600082601f830112611a0e57611a0d6126b5565b5b8135611a1e848260208601611935565b91505092915050565b600081359050611a3681612b9d565b92915050565b600060208284031215611a5257611a516126c4565b5b6000611a6084828501611977565b91505092915050565b60008060408385031215611a8057611a7f6126c4565b5b6000611a8e85828601611977565b9250506020611a9f85828601611977565b9150509250929050565b600080600060608486031215611ac257611ac16126c4565b5b6000611ad086828701611977565b9350506020611ae186828701611977565b9250506040611af286828701611a27565b9150509250925092565b60008060008060808587031215611b1657611b156126c4565b5b6000611b2487828801611977565b9450506020611b3587828801611977565b9350506040611b4687828801611a27565b925050606085013567ffffffffffffffff811115611b6757611b666126bf565b5b611b73878288016119cb565b91505092959194509250565b60008060408385031215611b9657611b956126c4565b5b6000611ba485828601611977565b9250506020611bb58582860161198c565b9150509250929050565b60008060408385031215611bd657611bd56126c4565b5b6000611be485828601611977565b9250506020611bf585828601611a27565b9150509250929050565b600060208284031215611c1557611c146126c4565b5b6000611c23848285016119a1565b91505092915050565b600060208284031215611c4257611c416126c4565b5b6000611c50848285016119b6565b91505092915050565b600060208284031215611c6f57611c6e6126c4565b5b600082013567ffffffffffffffff811115611c8d57611c8c6126bf565b5b611c99848285016119f9565b91505092915050565b600060208284031215611cb857611cb76126c4565b5b6000611cc684828501611a27565b91505092915050565b611cd881612437565b82525050565b611ce781612449565b82525050565b6000611cf882612339565b611d02818561234f565b9350611d128185602086016124ba565b611d1b816126c9565b840191505092915050565b6000611d3182612344565b611d3b8185612360565b9350611d4b8185602086016124ba565b611d54816126c9565b840191505092915050565b6000611d6a82612344565b611d748185612371565b9350611d848185602086016124ba565b80840191505092915050565b6000611d9d603283612360565b9150611da8826126da565b604082019050919050565b6000611dc0602583612360565b9150611dcb82612729565b604082019050919050565b6000611de3601c83612360565b9150611dee82612778565b602082019050919050565b6000611e06602483612360565b9150611e11826127a1565b604082019050919050565b6000611e29601983612360565b9150611e34826127f0565b602082019050919050565b6000611e4c602c83612360565b9150611e5782612819565b604082019050919050565b6000611e6f603883612360565b9150611e7a82612868565b604082019050919050565b6000611e92602a83612360565b9150611e9d826128b7565b604082019050919050565b6000611eb5602983612360565b9150611ec082612906565b604082019050919050565b6000611ed8602e83612360565b9150611ee382612955565b604082019050919050565b6000611efb602083612360565b9150611f06826129a4565b602082019050919050565b6000611f1e603183612360565b9150611f29826129cd565b604082019050919050565b6000611f41602c83612360565b9150611f4c82612a1c565b604082019050919050565b6000611f64602f83612360565b9150611f6f82612a6b565b604082019050919050565b6000611f87602183612360565b9150611f9282612aba565b604082019050919050565b6000611faa603183612360565b9150611fb582612b09565b604082019050919050565b611fc9816124a1565b82525050565b6000611fdb8285611d5f565b9150611fe78284611d5f565b91508190509392505050565b60006020820190506120086000830184611ccf565b92915050565b60006080820190506120236000830187611ccf565b6120306020830186611ccf565b61203d6040830185611fc0565b818103606083015261204f8184611ced565b905095945050505050565b600060208201905061206f6000830184611cde565b92915050565b6000602082019050818103600083015261208f8184611d26565b905092915050565b600060208201905081810360008301526120b081611d90565b9050919050565b600060208201905081810360008301526120d081611db3565b9050919050565b600060208201905081810360008301526120f081611dd6565b9050919050565b6000602082019050818103600083015261211081611df9565b9050919050565b6000602082019050818103600083015261213081611e1c565b9050919050565b6000602082019050818103600083015261215081611e3f565b9050919050565b6000602082019050818103600083015261217081611e62565b9050919050565b6000602082019050818103600083015261219081611e85565b9050919050565b600060208201905081810360008301526121b081611ea8565b9050919050565b600060208201905081810360008301526121d081611ecb565b9050919050565b600060208201905081810360008301526121f081611eee565b9050919050565b6000602082019050818103600083015261221081611f11565b9050919050565b6000602082019050818103600083015261223081611f34565b9050919050565b6000602082019050818103600083015261225081611f57565b9050919050565b6000602082019050818103600083015261227081611f7a565b9050919050565b6000602082019050818103600083015261229081611f9d565b9050919050565b60006020820190506122ac6000830184611fc0565b92915050565b60006122bc6122cd565b90506122c8828261251f565b919050565b6000604051905090565b600067ffffffffffffffff8211156122f2576122f1612686565b5b6122fb826126c9565b9050602081019050919050565b600067ffffffffffffffff82111561232357612322612686565b5b61232c826126c9565b9050602081019050919050565b600081519050919050565b600081519050919050565b600082825260208201905092915050565b600082825260208201905092915050565b600081905092915050565b6000612387826124a1565b9150612392836124a1565b9250827fffffffffffffffffffffffffffffffffffffffffffffffffffffffffffffffff038211156123c7576123c66125ca565b5b828201905092915050565b60006123dd826124a1565b91506123e8836124a1565b9250826123f8576123f76125f9565b5b828204905092915050565b600061240e826124a1565b9150612419836124a1565b92508282101561242c5761242b6125ca565b5b828203905092915050565b600061244282612481565b9050919050565b60008115159050919050565b60007fffffffff0000000000000000000000000000000000000000000000000000000082169050919050565b600073ffffffffffffffffffffffffffffffffffffffff82169050919050565b6000819050919050565b82818337600083830152505050565b60005b838110156124d85780820151818401526020810190506124bd565b838111156124e7576000848401525b50505050565b6000600282049050600182168061250557607f821691505b6020821081141561251957612518612628565b5b50919050565b612528826126c9565b810181811067ffffffffffffffff8211171561254757612546612686565b5b80604052505050565b600061255b826124a1565b91507fffffffffffffffffffffffffffffffffffffffffffffffffffffffffffffffff82141561258e5761258d6125ca565b5b600182019050919050565b60006125a4826124a1565b91506125af836124a1565b9250826125bf576125be6125f9565b5b828206905092915050565b7f4e487b7100000000000000000000000000000000000000000000000000000000600052601160045260246000fd5b7f4e487b7100000000000000000000000000000000000000000000000000000000600052601260045260246000fd5b7f4e487b7100000000000000000000000000000000000000000000000000000000600052602260045260246000fd5b7f4e487b7100000000000000000000000000000000000000000000000000000000600052603260045260246000fd5b7f4e487b7100000000000000000000000000000000000000000000000000000000600052604160045260246000fd5b600080fd5b600080fd5b600080fd5b600080fd5b6000601f19601f8301169050919050565b7f4552433732313a207472616e7366657220746f206e6f6e20455243373231526560008201527f63656976657220696d706c656d656e7465720000000000000000000000000000602082015250565b7f4552433732313a207472616e736665722066726f6d20696e636f72726563742060008201527f6f776e6572000000000000000000000000000000000000000000000000000000602082015250565b7f4552433732313a20746f6b656e20616c7265616479206d696e74656400000000600082015250565b7f4552433732313a207472616e7366657220746f20746865207a65726f2061646460008201527f7265737300000000000000000000000000000000000000000000000000000000602082015250565b7f4552433732313a20617070726f766520746f2063616c6c657200000000000000600082015250565b7f4552433732313a206f70657261746f7220717565727920666f72206e6f6e657860008201527f697374656e7420746f6b656e0000000000000000000000000000000000000000602082015250565b7f4552433732313a20617070726f76652063616c6c6572206973206e6f74206f7760008201527f6e6572206e6f7220617070726f76656420666f7220616c6c0000000000000000602082015250565b7f4552433732313a2062616c616e636520717565727920666f7220746865207a6560008201527f726f206164647265737300000000000000000000000000000000000000000000602082015250565b7f4552433732313a206f776e657220717565727920666f72206e6f6e657869737460008201527f656e7420746f6b656e0000000000000000000000000000000000000000000000602082015250565b7f45524337323155524953746f726167653a2055524920736574206f66206e6f6e60008201527f6578697374656e7420746f6b656e000000000000000000000000000000000000602082015250565b7f4552433732313a206d696e7420746f20746865207a65726f2061646472657373600082015250565b7f45524337323155524953746f726167653a2055524920717565727920666f722060008201527f6e6f6e6578697374656e7420746f6b656e000000000000000000000000000000602082015250565b7f4552433732313a20617070726f76656420717565727920666f72206e6f6e657860008201527f697374656e7420746f6b656e0000000000000000000000000000000000000000602082015250565b7f4552433732314d657461646174613a2055524920717565727920666f72206e6f60008201527f6e6578697374656e7420746f6b656e0000000000000000000000000000000000602082015250565b7f4552433732313a20617070726f76616c20746f2063757272656e74206f776e6560008201527f7200000000000000000000000000000000000000000000000000000000000000602082015250565b7f4552433732313a207472616e736665722063616c6c6572206973206e6f74206f60008201527f776e6572206e6f7220617070726f766564000000000000000000000000000000602082015250565b612b6181612437565b8114612b6c57600080fd5b50565b612b7881612449565b8114612b8357600080fd5b50565b612b8f81612455565b8114612b9a57600080fd5b50565b612ba6816124a1565b8114612bb157600080fd5b5056fea2646970667358221220a7c4ef528063472c23333c5de94bcc2ab699b2a38d87de2932ea9236c9add21064736f6c63430008060033",
  "immutableReferences": {},
  "source": "// SPDX-License-Identifier: MIT OR Apache-2.0\r\npragma solidity ^0.8.6;\r\n\r\nimport \"@openzeppelin/contracts/token/ERC721/ERC721.sol\";\r\nimport \"@openzeppelin/contracts/token/ERC721/extensions/ERC721URIStorage.sol\";\r\nimport \"@openzeppelin/contracts/utils/Counters.sol\";\r\n\r\ncontract NFT is ERC721URIStorage {\r\n    using Counters for Counters.Counter;\r\n    Counters.Counter private _tokenIds;\r\n    address contractAddress;\r\n\r\n    constructor(address marketplaceAddress) ERC721(\"Metaverse\", \"METT\") {\r\n        contractAddress = marketplaceAddress;\r\n    }\r\n\r\n    function createToken(string memory tokenURI) public returns (uint) {\r\n        _tokenIds.increment();\r\n        uint256 newItemId = _tokenIds.current();\r\n\r\n        _mint(msg.sender, newItemId);\r\n        _setTokenURI(newItemId, tokenURI);\r\n        setApprovalForAll(contractAddress, true);\r\n        return newItemId;\r\n    }\r\n}",
  "sourcePath": "C:\\Users\\sutanto4\\Desktop\\IBlockSp22\\sp22_NFT_marketplace\\truffle\\contracts\\NFT.sol",
  "compiler": {
    "name": "solc",
    "version": "0.8.6+commit.11564f7e.Emscripten.clang"
  },
  "schemaVersion": "3.4.3",
  "updatedAt": "2022-04-21T13:11:06.699Z",
  "networkType": "ethereum",
  "devdoc": {
    "kind": "dev",
    "methods": {
      "approve(address,uint256)": {
        "details": "See {IERC721-approve}."
      },
      "balanceOf(address)": {
        "details": "See {IERC721-balanceOf}."
      },
      "getApproved(uint256)": {
        "details": "See {IERC721-getApproved}."
      },
      "isApprovedForAll(address,address)": {
        "details": "See {IERC721-isApprovedForAll}."
      },
      "name()": {
        "details": "See {IERC721Metadata-name}."
      },
      "ownerOf(uint256)": {
        "details": "See {IERC721-ownerOf}."
      },
      "safeTransferFrom(address,address,uint256)": {
        "details": "See {IERC721-safeTransferFrom}."
      },
      "safeTransferFrom(address,address,uint256,bytes)": {
        "details": "See {IERC721-safeTransferFrom}."
      },
      "setApprovalForAll(address,bool)": {
        "details": "See {IERC721-setApprovalForAll}."
      },
      "supportsInterface(bytes4)": {
        "details": "See {IERC165-supportsInterface}."
      },
      "symbol()": {
        "details": "See {IERC721Metadata-symbol}."
      },
      "tokenURI(uint256)": {
        "details": "See {IERC721Metadata-tokenURI}."
      },
      "transferFrom(address,address,uint256)": {
        "details": "See {IERC721-transferFrom}."
      }
    },
    "version": 1
  },
  "userdoc": {
    "kind": "user",
    "methods": {},
    "version": 1
  }
}