{
  "contractName": "Faucet",
  "abi": [
    {
      "inputs": [
        {
          "internalType": "address",
          "name": "_tokenInstance",
          "type": "address"
        }
      ],
      "stateMutability": "nonpayable",
      "type": "constructor"
    },
    {
      "inputs": [],
      "name": "tokenAmount",
      "outputs": [
        {
          "internalType": "uint256",
          "name": "",
          "type": "uint256"
        }
      ],
      "stateMutability": "view",
      "type": "function",
      "constant": true
    },
    {
      "inputs": [],
      "name": "tokenInstance",
      "outputs": [
        {
          "internalType": "contract ERC20",
          "name": "",
          "type": "address"
        }
      ],
      "stateMutability": "view",
      "type": "function",
      "constant": true
    },
    {
      "inputs": [],
      "name": "waitTime",
      "outputs": [
        {
          "internalType": "uint256",
          "name": "",
          "type": "uint256"
        }
      ],
      "stateMutability": "view",
      "type": "function",
      "constant": true
    },
    {
      "inputs": [],
      "name": "requestTokens",
      "outputs": [],
      "stateMutability": "nonpayable",
      "type": "function"
    },
    {
      "inputs": [
        {
          "internalType": "address",
          "name": "_address",
          "type": "address"
        }
      ],
      "name": "allowedToWithdraw",
      "outputs": [
        {
          "internalType": "bool",
          "name": "",
          "type": "bool"
        }
      ],
      "stateMutability": "view",
      "type": "function",
      "constant": true
    }
  ],
  "bytecode": "0x608060405234801561001057600080fd5b506040516103f43803806103f483398101604081905261002f91610067565b600160a060020a03811661004257600080fd5b60008054600160a060020a031916600160a060020a0392909216919091179055610097565b60006020828403121561007957600080fd5b8151600160a060020a038116811461009057600080fd5b9392505050565b61034e806100a66000396000f3fe608060405234801561001057600080fd5b5060043610610084576000357c010000000000000000000000000000000000000000000000000000000090048063658030b31161006d578063658030b3146100bb578063ccca123b14610100578063eec7faa11461011857600080fd5b80632d291cad14610089578063359cf2b7146100b1575b600080fd5b61009c61009736600461027a565b610128565b60405190151581526020015b60405180910390f35b6100b9610196565b005b6000546100db9073ffffffffffffffffffffffffffffffffffffffff1681565b60405173ffffffffffffffffffffffffffffffffffffffff90911681526020016100a8565b61010a6201518081565b6040519081526020016100a8565b61010a68056bc75e2d6310000081565b73ffffffffffffffffffffffffffffffffffffffff811660009081526001602052604081205461015a57506001919050565b73ffffffffffffffffffffffffffffffffffffffff8216600090815260016020526040902054421061018e57506001919050565b506000919050565b61019f33610128565b6101a857600080fd5b6000546040517fa9059cbb00000000000000000000000000000000000000000000000000000000815233600482015268056bc75e2d63100000602482015273ffffffffffffffffffffffffffffffffffffffff9091169063a9059cbb90604401602060405180830381600087803b15801561022257600080fd5b505af1158015610236573d6000803e3d6000fd5b505050506040513d601f19601f8201168201806040525081019061025a91906102b7565b5061026862015180426102d9565b33600090815260016020526040902055565b60006020828403121561028c57600080fd5b813573ffffffffffffffffffffffffffffffffffffffff811681146102b057600080fd5b9392505050565b6000602082840312156102c957600080fd5b815180151581146102b057600080fd5b60008219821115610313577f4e487b7100000000000000000000000000000000000000000000000000000000600052601160045260246000fd5b50019056fea2646970667358221220ff8f8dc8b4b65d71675728e7b456d8652bab490ae942b0d174ee4f0c4f0916af64736f6c63430008060033",
  "immutableReferences": {},
  "source": "pragma solidity ^0.8.6;\n// SPDX-License-Identifier: UNLICENSED\n\ninterface ERC20 {\n    function transfer(address to, uint256 value) external returns (bool);\n    event Transfer(address indexed from, address indexed to, uint256 value);\n}\n\ncontract Faucet {\n    uint256 constant public tokenAmount = 100000000000000000000; // 100 coin\n    uint256 constant public waitTime = 1 days;\n\n    ERC20 public tokenInstance;\n\n    mapping(address => uint256) lastAccessTime;\n\n    // address from which Faucet drains the token\n    constructor(address _tokenInstance) {\n        require(_tokenInstance != address(0));\n        tokenInstance = ERC20(_tokenInstance);\n    }\n\n    function requestTokens() public {\n        require(allowedToWithdraw(msg.sender));\n        tokenInstance.transfer(msg.sender, tokenAmount);\n        // Cool down\n        lastAccessTime[msg.sender] = block.timestamp + waitTime;\n    }\n\n    function allowedToWithdraw(address _address) public view returns (bool) {\n        if (lastAccessTime[_address] == 0) return true;\n        else if (block.timestamp >= lastAccessTime[_address]) return true;\n        return false;\n    }\n}\n",
  "sourcePath": "/Users/jwp/Labs/iBlockCore/truffle/contracts/Faucet.sol",
  "compiler": {
    "name": "solc",
    "version": "0.8.6+commit.11564f7e.Emscripten.clang"
  },
  "schemaVersion": "3.4.4",
  "updatedAt": "2021-12-28T07:12:14.729Z",
  "networkType": "ethereum",
  "devdoc": {
    "kind": "dev",
    "methods": {},
    "version": 1
  },
  "userdoc": {
    "kind": "user",
    "methods": {},
    "version": 1
  }
}